{
  "transactions": [
    {
      "hash": "0x1d5e8a50ea5792b25518ccc5ce393aed4faa0c16385dc7837e30674b27ef042d",
      "transactionType": "CREATE2",
      "contractName": "YieldSeekerAdminTimelock",
      "contractAddress": "0x4e5b054109d9705c39e20d1341be75dd4f47fbd0",
      "function": null,
      "arguments": [
        "0",
        "[0xCE11D6fb4f1e006E5a348230449Dc387fde850CC]",
        "[0xCE11D6fb4f1e006E5a348230449Dc387fde850CC]",
        "0x0000000000000000000000000000000000000000"
      ],
      "transaction": {
        "from": "0xce11d6fb4f1e006e5a348230449dc387fde850cc",
        "to": "0x4e59b44847b379578588920ca78fbf26c0b4956c",
        "gas": "0x1d7bbe",
        "value": "0x0",
        "input": "0x0000000000000000000000000000000000000000000000000000000000000003608060405234620001725762001985803803806200001d8162000176565b9283398101906080818303126200017257805160208201516001600160401b039081811162000172578462000054918501620001c5565b9360408401519182116200017257620000766060916200007e938601620001c5565b9301620001b0565b906200008a3062000261565b506001600160a01b03918083166200015f575b505f5b8451811015620000e85780620000c684620000be6001948962000238565b5116620002d1565b50620000e084620000d8838962000238565b511662000371565b5001620000a0565b5092505f5b82518110156200011b578062000113836200010b6001948762000238565b51166200040b565b5001620000ed565b7f11c24f4ead16507c69ac467fbd5e4eed5fb5c699626d2cc6d66421df253886d5604085806002558151905f82526020820152a160405161149f9081620004a68239f35b6200016a9062000261565b505f6200009d565b5f80fd5b6040519190601f01601f191682016001600160401b038111838210176200019c57604052565b634e487b7160e01b5f52604160045260245ffd5b51906001600160a01b03821682036200017257565b81601f8201121562000172578051916020916001600160401b0384116200019c578360051b908380620001fa81850162000176565b80978152019282010192831162000172578301905b8282106200021e575050505090565b8380916200022c84620001b0565b8152019101906200020f565b80518210156200024d5760209160051b010190565b634e487b7160e01b5f52603260045260245ffd5b6001600160a01b03165f8181525f8051602062001965833981519152602052604090205460ff16620002cc575f8181525f805160206200196583398151915260205260408120805460ff191660011790553391905f80516020620019458339815191528180a4600190565b505f90565b6001600160a01b03165f8181527f3412d5605ac6cd444957cedb533e5dacad6378b4bc819ebe3652188a665066d560205260409020547fb09aa5aeb3702cfd50b6b62bc4532604938f21248a27a1d5ca736082b6819cc1919060ff166200036b57815f525f60205260405f20815f5260205260405f20600160ff1982541617905533915f80516020620019458339815191525f80a4600190565b50505f90565b6001600160a01b03165f8181527fc3ad33e20b0c56a223ad5104fff154aa010f8715b9c981fd38fdc60a4d1a52fb60205260409020547ffd643c72710c63c0180259aba6b2d05451e3591a24e58b62239378085726f783919060ff166200036b57815f525f60205260405f20815f5260205260405f20600160ff1982541617905533915f80516020620019458339815191525f80a4600190565b6001600160a01b03165f8181527fdae2aa361dfd1ca020a396615627d436107c35eff9fe7738a3512819782d706960205260409020547fd8aa0f3194971a2a116679f7c2090f6939c8d4e01a2a8d7e41d55e5351469e63919060ff166200036b57815f525f60205260405f20815f5260205260405f20600160ff1982541617905533915f80516020620019458339815191525f80a460019056fe60406080815260048036101561001e575b5050361561001c575f80fd5b005b5f3560e01c90816301d5062a14610ab557816301ffc9a714610a4457816307bd026514610a1d578163134008d31461097457816313bc9f2014610956578163150b7a0214610904578163248a9ca3146108db5781632ab0f529146108bd5781632f2ff15d1461089557816331d507501461087757816336568abe14610833578163584b153e1461080c57816364d62353146107a35781637958004c146107615781638065657f146107405781638f2a0bb0146105b75781638f61f4f51461057d57816391d148541461053a578163a217fddf14610520578163b08e51c0146104e6578163b1c5f427146104bb578163bc197c8114610438578163c4d252f51461036c578163d45c443514610345578163d547741f1461030a578163e38335e5146101d1578163f23a6e611461017f575063f27a0c921461015e5780610010565b3461017b575f36600319011261017b576020906002549051908152f35b5f80fd5b823461017b5760a036600319011261017b57610199610b60565b506101a2610b76565b506084356001600160401b03811161017b576020926101c391369101610c57565b505163f23a6e6160e01b8152f35b90506101dc36610ccd565b9098949591939296975f8051602061144a8339815191525f525f602052855f205f805260205260ff865f205416156102fc575b8383148015906102f2575b6102c45750610232610239918a868a878b888f610f9d565b988961125b565b5f5b81811061024b5761001c89611314565b80808a7fc2617efa69bab66782fa219543714338489c4e9e178271560a91b82c3f612b588a8a6102bb6102a38f988c61029c828e6102968f60019f610291918591610f24565b610f48565b97610f24565b3595610f5c565b906102b0828287876112c1565b8d5194859485610dec565b0390a30161023b565b85516001624fcdef60e01b031981529081019283526020830185905260408301849052918291506060010390fd5b508483141561021a565b610305336111de565b61020f565b823461017b578060031936011261017b5761001c9135610340600161032d610b76565b93835f525f6020525f200154339061122f565b6113ae565b823461017b57602036600319011261017b57602091355f5260018252805f20549051908152f35b823461017b57602036600319011261017b578135917ffd643c72710c63c0180259aba6b2d05451e3591a24e58b62239378085726f783805f525f602052825f20335f5260205260ff835f2054161561041d57506103c883610e6e565b1561040157505f9082825260016020528120557fbaa1eb22f2a492ba1a5fea61b8df4d27c6c8b5f3971e63bb58fa14ff72eedb705f80a2005b826044925191635ead8eb560e01b835282015260066024820152fd5b604492519163e2517d3f60e01b835233908301526024820152fd5b823461017b5760a036600319011261017b57610452610b60565b5061045b610b76565b506001600160401b0360443581811161017b5761047b9036908501610d2e565b5060643581811161017b576104939036908501610d2e565b5060843590811161017b576020926104ad91369101610c57565b505163bc197c8160e01b8152f35b823461017b576020906104df6104d036610ccd565b96959095949194939293610f9d565b9051908152f35b823461017b575f36600319011261017b57602090517ffd643c72710c63c0180259aba6b2d05451e3591a24e58b62239378085726f7838152f35b823461017b575f36600319011261017b57602090515f8152f35b823461017b578060031936011261017b57602091610556610b76565b90355f525f8352815f209060018060a01b03165f52825260ff815f20541690519015158152f35b823461017b575f36600319011261017b57602090517fb09aa5aeb3702cfd50b6b62bc4532604938f21248a27a1d5ca736082b6819cc18152f35b823461017b5760c036600319011261017b576001600160401b0390823582811161017b576105e89036908501610c9d565b9360243584811161017b576106009036908301610c9d565b9460443590811161017b576106189036908401610c9d565b60649391933590608435978960a435946106313361115c565b828214801590610736575b610709575089848489858a610651968e610f9d565b9961065c858c6110d9565b8a5f5b8a83821061069d578c80925061067157005b7f20fda5fd27a1ea7bf5b9567f143ac5470bb059374a27e8f67cb44f946f6d03879160209151908152a2005b6001927f4cf4410cc57040e44862ef0f45f3dd5a5e02db8eb8add648d4b0e236f1d07dca8b8b6106fe8f8c88978f92898f8f8f6106ec916106e66102918680946106f399610f24565b9a610f24565b3598610f5c565b915196879687610db4565b0390a3018b9061065f565b89516001624fcdef60e01b0319815290810191825260208201849052604082018390529081906060010390fd5b508382141561063c565b823461017b576020906104df61075536610bb9565b94939093929192610ecf565b823461017b57602036600319011261017b5761077d8235610e97565b9051908281101561079057602092508152f35b602183634e487b7160e01b5f525260245ffd5b823461017b57602036600319011261017b578135913033036107f657507f11c24f4ead16507c69ac467fbd5e4eed5fb5c699626d2cc6d66421df253886d5906002548151908152836020820152a1600255005b602491519063e2850c5960e01b82523390820152fd5b823461017b57602036600319011261017b5761082a60209235610e6e565b90519015158152f35b823461017b578060031936011261017b5761084c610b76565b90336001600160a01b03831603610868575061001c91356113ae565b5163334bd91960e11b81529050fd5b823461017b57602036600319011261017b5761082a60209235610e57565b823461017b578060031936011261017b5761001c91356108b8600161032d610b76565b611332565b823461017b57602036600319011261017b5761082a60209235610e3f565b823461017b57602036600319011261017b57602091355f525f82526001815f2001549051908152f35b823461017b57608036600319011261017b5761091e610b60565b50610927610b76565b506064356001600160401b03811161017b5760209261094891369101610c57565b5051630a85bd0160e11b8152f35b823461017b57602036600319011261017b5761082a60209235610e13565b61001c6109f15f610a077fc2617efa69bab66782fa219543714338489c4e9e178271560a91b82c3f612b586109e8886109ac36610bb9565b5f8051602061144a8339815191528b9a9697939598929a528a602052828b208b805260205260ff838c20541615610a0f575b8985858a8a610ecf565b998a988961125b565b6109fd838388886112c1565b5194859485610dec565b0390a3611314565b610a18336111de565b6109de565b823461017b575f36600319011261017b57602090515f8051602061144a8339815191528152f35b90503461017b57602036600319011261017b573563ffffffff60e01b811680910361017b57602091630271189760e51b8214918215610a87575b50519015158152f35b909150637965db0b60e01b8114908115610aa4575b50905f610a7e565b6301ffc9a760e01b1490505f610a9c565b823461017b5760c036600319011261017b57610acf610b60565b9060243592604435936001600160401b03851161017b57610b155f927f4cf4410cc57040e44862ef0f45f3dd5a5e02db8eb8add648d4b0e236f1d07dca96369101610b8c565b95909160643595610b566084359760a43590610b303361115c565b610b3e8a828d8a8989610ecf565b9a8b97610b4b848a6110d9565b8a5196879687610db4565b0390a38161067157005b600435906001600160a01b038216820361017b57565b602435906001600160a01b038216820361017b57565b9181601f8401121561017b578235916001600160401b03831161017b576020838186019501011161017b57565b60a060031982011261017b576004356001600160a01b038116810361017b579160243591604435906001600160401b03821161017b57610bfb91600401610b8c565b90916064359060843590565b90601f801991011681019081106001600160401b03821117610c2857604052565b634e487b7160e01b5f52604160045260245ffd5b6001600160401b038111610c2857601f01601f191660200190565b81601f8201121561017b57803590610c6e82610c3c565b92610c7c6040519485610c07565b8284526020838301011161017b57815f926020809301838601378301015290565b9181601f8401121561017b578235916001600160401b03831161017b576020808501948460051b01011161017b57565b9060a060031983011261017b576001600160401b0360043581811161017b5783610cf991600401610c9d565b9390939260243583811161017b5782610d1491600401610c9d565b9390939260443591821161017b57610bfb91600401610c9d565b81601f8201121561017b578035916020916001600160401b038411610c28578360051b9060405194610d6285840187610c07565b8552838086019282010192831161017b578301905b828210610d85575050505090565b81358152908301908301610d77565b908060209392818452848401375f828201840152601f01601f1916010190565b929093610de2926080959897969860018060a01b03168552602085015260a0604085015260a0840191610d94565b9460608201520152565b610e10949260609260018060a01b0316825260208201528160408201520191610d94565b90565b610e1c90610e97565b6004811015610e2b5760021490565b634e487b7160e01b5f52602160045260245ffd5b610e4890610e97565b6004811015610e2b5760031490565b610e6090610e97565b6004811015610e2b57151590565b610e7790610e97565b6004811015610e2b5760018114908115610e8f575090565b600291501490565b5f52600160205260405f205480155f14610eb057505f90565b60018103610ebe5750600390565b421015610eca57600190565b600290565b94610f05610f1e94959293604051968795602087019960018060a01b03168a52604087015260a0606087015260c0860191610d94565b91608084015260a083015203601f198101835282610c07565b51902090565b9190811015610f345760051b0190565b634e487b7160e01b5f52603260045260245ffd5b356001600160a01b038116810361017b5790565b9190811015610f345760051b81013590601e198136030182121561017b5701908135916001600160401b03831161017b57602001823603811361017b579190565b969294909695919560405196602091828901998060c08b0160a08d525260e08a0191905f5b8181106110b157505050601f19898203810160408b0152888252976001600160fb1b03811161017b579089969495939897929160051b80928a830137019380888601878703606089015252604085019460408260051b82010195835f925b84841061104857505050505050610f1e9550608084015260a083015203908101835282610c07565b9193969850919398999496603f198282030184528935601e198436030181121561017b5783018681019190356001600160401b03811161017b57803603831361017b5761109a88928392600195610d94565b9b0194019401918b98969394919a9997959a611020565b90919283359060018060a01b03821680920361017b5790815285019285019190600101610fc2565b906110e382610e57565b61113c5760025480821061111e575042019081421161110a575f52600160205260405f2055565b634e487b7160e01b5f52601160045260245ffd5b6044925060405191635433660960e01b835260048301526024820152fd5b604051635ead8eb560e01b81526004810183905260016024820152604490fd5b6001600160a01b03165f8181527f3412d5605ac6cd444957cedb533e5dacad6378b4bc819ebe3652188a665066d560205260409020547fb09aa5aeb3702cfd50b6b62bc4532604938f21248a27a1d5ca736082b6819cc19060ff16156111c0575050565b604492506040519163e2517d3f60e01b835260048301526024820152fd5b6001600160a01b03165f8181527fdae2aa361dfd1ca020a396615627d436107c35eff9fe7738a3512819782d706960205260409020545f8051602061144a8339815191529060ff16156111c0575050565b805f525f60205260405f209160018060a01b031691825f5260205260ff60405f205416156111c0575050565b61126481610e13565b156112a2575080151580611292575b61127a5750565b6024906040519063121534c360e31b82526004820152fd5b5061129c81610e3f565b15611273565b60449060405190635ead8eb560e01b8252600482015260046024820152fd5b611309935f93928493826040519384928337810185815203925af13d1561130c573d906112ed82610c3c565b916112fb6040519384610c07565b82523d5f602084013e611420565b50565b606090611420565b61131d81610e13565b156112a2575f526001602052600160405f2055565b90815f525f60205260405f209060018060a01b031690815f5260205260ff60405f205416155f146113a857815f525f60205260405f20815f5260205260405f20600160ff1982541617905533917f2f8788117e7eff1d82e926ec794901d17c78024a50270940304540a733656f0d5f80a4600190565b50505f90565b90815f525f60205260405f209060018060a01b031690815f5260205260ff60405f2054165f146113a857815f525f60205260405f20815f5260205260405f2060ff19815416905533917ff6391f5c32d9c69d2a47ea670b442974b53935d1edc7fd64eb21e047a839171b5f80a4600190565b156114285790565b80511561143757602081519101fd5b60405163d6bda27560e01b8152600490fdfed8aa0f3194971a2a116679f7c2090f6939c8d4e01a2a8d7e41d55e5351469e63a2646970667358221220cad968d94babe8401509809500d7bbb0c6b8a088603f84fba2a597ea481ffe6164736f6c634300081800332f8788117e7eff1d82e926ec794901d17c78024a50270940304540a733656f0dad3228b676f7d3cd4284a5443f17f1962b36e491b30a40b2405849e597ba5fb50000000000000000000000000000000000000000000000000000000000000000000000000000000000000000000000000000000000000000000000000000008000000000000000000000000000000000000000000000000000000000000000c000000000000000000000000000000000000000000000000000000000000000000000000000000000000000000000000000000000000000000000000000000001000000000000000000000000ce11d6fb4f1e006e5a348230449dc387fde850cc0000000000000000000000000000000000000000000000000000000000000001000000000000000000000000ce11d6fb4f1e006e5a348230449dc387fde850cc",
        "nonce": "0x25",
        "chainId": "0x2105"
      },
      "additionalContracts": [],
      "isFixedGasLimit": false
    },
    {
      "hash": "0xef223e59a6b895bd8df15fb9cc112f041cea4f0c44f222bf4f2b2fcc9b4497c2",
      "transactionType": "CREATE2",
      "contractName": "YieldSeekerAgentWalletFactory",
      "contractAddress": "0x18c8a28e105a7262383cebe35d8a265f864750c3",
      "function": null,
      "arguments": [
        "0x4e5B054109D9705C39e20d1341bE75dD4F47Fbd0",
        "0x2eD35991D466E8114d49BDA6f602c3795305006D"
      ],
      "transaction": {
        "from": "0xce11d6fb4f1e006e5a348230449dc387fde850cc",
        "to": "0x4e59b44847b379578588920ca78fbf26c0b4956c",
        "gas": "0x129396",
        "value": "0x0",
        "input": "0x000000000000000000000000000000000000000000000000000000000000000360803461010557601f61105d38819003918201601f19168301916001600160401b0383118484101761010957808492604094855283398101031261010557610052602061004b8361011d565b920161011d565b6001600160a01b03828116156100d05781161561008b5761007561007b92610131565b5061019d565b50604051610de1908161023c8239f35b60405162461bcd60e51b815260206004820152601560248201527f496e76616c6964206167656e742063726561746f7200000000000000000000006044820152606490fd5b60405162461bcd60e51b815260206004820152600d60248201526c24b73b30b634b21030b236b4b760991b6044820152606490fd5b5f80fd5b634e487b7160e01b5f52604160045260245ffd5b51906001600160a01b038216820361010557565b6001600160a01b03165f8181525f8051602061103d833981519152602052604090205460ff16610198575f8181525f8051602061103d83398151915260205260408120805460ff191660011790553391905f8051602061101d8339815191528180a4600190565b505f90565b6001600160a01b03165f8181527f586fe205fdd7d09401d8685cd39c66569e39b1cb59b7a032d2e6bc24118fdb1b60205260409020547f14d61fe1ff734deff390e298beb5f0b1c1f31c62bebead0e7849958f1614082a919060ff1661023557815f525f60205260405f20815f5260205260405f20600160ff1982541617905533915f8051602061101d8339815191525f80a4600190565b50505f9056fe608060408181526004918236101562000016575f80fd5b5f3560e01c9081630155e09814620008475750806301ffc9a714620007ee5780630783797e146200058c578063248a9ca314620005615780632f2ff15d146200053257806336568abe14620004e75780633d21b8ff14620004ab57806350b5c16a1462000481578063545f9e9314620003205780635b34b823146200022957806368fe596f14620001ff57806391d1485414620001b8578063a217fddf146200019c578063c68e00fb146200011a5763d547741f14620000d4575f80fd5b3462000116578060031936011262000116576200011491356200010e6001620000fc6200088e565b93835f525f6020525f200154620009ca565b62000a87565b005b5f80fd5b50903462000116576020366003190112620001165780356001600160a01b038116929083900362000116576200014f62000973565b82156200018f57600180546001600160a01b03191684179055827fab64f92ab780ecbf4f3866f57cee465ff36c89450dcce20237ca7a8d81fb7d135f80a2005b5163e6c4247b60e01b8152fd5b503462000116575f3660031901126200011657602090515f8152f35b50346200011657806003193601126200011657602091620001d86200088e565b90355f525f8352815f209060018060a01b03165f52825260ff815f20541690519015158152f35b503462000116575f366003190112620001165760015490516001600160a01b039091168152602090f35b5090346200011657602036600319011262000116576001600160a01b0381358181169391929084900362000116576200026162000973565b8315620003125760208251809263285ae0b560e11b825281305afa9182156200030957505f91620002c7575b50600280546001600160a01b03191684179055167f482b97c53e48ffa324a976e2738053e9aff6eee04d8aac63b10e19411d869b825f80a3005b90506020813d60201162000300575b81620002e560209383620008dc565b81010312620001165751818116810362000116575f6200028d565b3d9150620002d6565b513d5f823e3d90fd5b905163e6c4247b60e01b8152fd5b503462000116576200033236620008a5565b839293519060209485808401846200036487858490916034926001600160601b03199060601b16825260148201520190565b0394601f199586810182526200037b9082620008dc565b519020936102b193875191838601620003959084620008dc565b8583528383019562000afb87396001546002548a516306b0729b60e31b878201526001600160a01b039788166024820152604481019a909a5292861660648a0152918516608489015260a48082018952949791881694620003f79083620008dc565b88518095858201936200040b918562000936565b0390810185526200041d9085620008dc565b8751938492848401968791518092620004369262000913565b8301905191828583016200044a9262000913565b0103808352016200045c9082620008dc565b519020908351918483015284820152308152600b0160ff815360559020169051908152f35b503462000116575f366003190112620001165760025490516001600160a01b039091168152602090f35b503462000116575f3660031901126200011657602090517f14d61fe1ff734deff390e298beb5f0b1c1f31c62bebead0e7849958f1614082a8152f35b50346200011657806003193601126200011657620005046200088e565b90336001600160a01b0383160362000523575062000114913562000a87565b5163334bd91960e11b81529050fd5b503462000116578060031936011262000116576200011491356200055b6001620000fc6200088e565b62000a0a565b5034620001165760203660031901126200011657602091355f525f82526001815f2001549051908152f35b503462000116576200059e36620008a5565b92917f14d61fe1ff734deff390e298beb5f0b1c1f31c62bebead0e7849958f1614082a93845f526020945f8652845f20335f52865260ff855f20541615620007d057506001600160a01b0395828716928315620007c157878316928315620007b1578860015416908115620007a157855f5260038952875f20875f52895289885f205416620007855790620006d18a9493928a620006c48b8051938c8486018662000663838c8490916034926001600160601b03199060601b16825260148201520190565b039662000679601f1998898101835282620008dc565b51902060025493516306b0729b60e31b968101969096526001600160a01b03998a166024870152604486019190915290881660648501529816909516608482015293849060a4820190565b03908101845283620008dc565b8751926102b18085019185831067ffffffffffffffff84111762000772575091849391620007059362000afb863962000936565b03905ff58015620007685785967f24924211b2afa1a1fa2d9d9361ccc452c0df4f982d439cdcc311140e55b3f56d9116958692845f5260038252865f20865f528252865f20846001600160601b0360a01b8254161790558651908152a451908152f35b84513d5f823e3d90fd5b604190634e487b7160e01b5f525260245ffd5b60448488888b5192633de717e160e21b84528301526024820152fd5b8751630986dde360e31b81528490fd5b865163e6c4247b60e01b81528390fd5b50845163e6c4247b60e01b8152fd5b845163e2517d3f60e01b815233818901526024810191909152604490fd5b5090346200011657602036600319011262000116573563ffffffff60e01b81168091036200011657602091637965db0b60e01b821491821562000835575b50519015158152f35b6301ffc9a760e01b1491505f6200082c565b9050823462000116578260031936011262000116576001600160a01b039035818116939084900362000116576020935f5260038452805f206024355f5284525f2054168152f35b602435906001600160a01b03821682036200011657565b606090600319011262000116576001600160a01b036004358181168103620001165791602435916044359081168103620001165790565b90601f8019910116810190811067ffffffffffffffff821117620008ff57604052565b634e487b7160e01b5f52604160045260245ffd5b5f5b838110620009255750505f910152565b818101518382015260200162000915565b909160609260018060a01b031682526040602083015262000967815180928160408601526020868601910162000913565b601f01601f1916010190565b335f9081527fad3228b676f7d3cd4284a5443f17f1962b36e491b30a40b2405849e597ba5fb5602052604090205460ff1615620009ac57565b60405163e2517d3f60e01b81523360048201525f6024820152604490fd5b805f525f60205260405f20335f5260205260ff60405f20541615620009ec5750565b6044906040519063e2517d3f60e01b82523360048301526024820152fd5b90815f525f60205260405f209060018060a01b031690815f5260205260ff60405f205416155f1462000a8157815f525f60205260405f20815f5260205260405f20600160ff1982541617905533917f2f8788117e7eff1d82e926ec794901d17c78024a50270940304540a733656f0d5f80a4600190565b50505f90565b90815f525f60205260405f209060018060a01b031690815f5260205260ff60405f2054165f1462000a8157815f525f60205260405f20815f5260205260405f2060ff19815416905533917ff6391f5c32d9c69d2a47ea670b442974b53935d1edc7fd64eb21e047a839171b5f80a460019056fe60806040526102b18038038061001481610178565b92833981016040828203126101605781516001600160a01b038116928382036101605760208181015190916001600160401b039190828211610160570184601f8201121561016057805191821161016457610077601f8301601f19168401610178565b94828652838383010111610160575f5b82811061014d575050905f9184010152803b15610134577f360894a13ba1a3210667c828492db98dca3e2076cc3735a920a3ca505d382bbc80546001600160a01b03191684179055604051927fbc7cd75a20ee27fd9adebab32041f755214dbc6bffa90cc0225b39da2e5c2d3b5f80a281511561011857610108925061019d565b505b6040516082908161022f8239f35b505034610125575061010a565b63b398979f60e01b8152600490fd5b604051634c9c8ce360e01b815260048101849052602490fd5b8181018401518682018501528301610087565b5f80fd5b634e487b7160e01b5f52604160045260245ffd5b6040519190601f01601f191682016001600160401b0381118382101761016457604052565b905f8091602081519101845af4808061021b575b156101d15750506040513d81523d5f602083013e60203d82010160405290565b156101f857604051639996b31560e01b81526001600160a01b039091166004820152602490fd5b3d15610209576040513d5f823e3d90fd5b60405163d6bda27560e01b8152600490fd5b503d1515806101b15750813b15156101b156fe60806040527f360894a13ba1a3210667c828492db98dca3e2076cc3735a920a3ca505d382bbc545f9081906001600160a01b0316368280378136915af43d5f803e156048573d5ff35b3d5ffdfea2646970667358221220059ecbaec9bb1321733126d1c884e5151050b70a37a10261a26bf57dcd8c88e864736f6c63430008180033a2646970667358221220c81863838ca339000d4c02dbba792bee8270b14283e837fadf25910106c389f264736f6c634300081800332f8788117e7eff1d82e926ec794901d17c78024a50270940304540a733656f0dad3228b676f7d3cd4284a5443f17f1962b36e491b30a40b2405849e597ba5fb50000000000000000000000004e5b054109d9705c39e20d1341be75dd4f47fbd00000000000000000000000002ed35991d466e8114d49bda6f602c3795305006d",
        "nonce": "0x26",
        "chainId": "0x2105"
      },
      "additionalContracts": [],
      "isFixedGasLimit": false
    },
    {
      "hash": "0x2344b4d12aa6a33108aff28a67b153be17ed2d8b3c892d6c5644ef5bc76a56b1",
      "transactionType": "CREATE2",
      "contractName": "YieldSeekerAgentWallet",
      "contractAddress": "0xfa8104be549edcb99224ec77133d79550cf27eec",
      "function": null,
      "arguments": [
        "0x18C8a28E105a7262383CeBE35D8A265f864750c3"
      ],
      "transaction": {
        "from": "0xce11d6fb4f1e006e5a348230449dc387fde850cc",
        "to": "0x4e59b44847b379578588920ca78fbf26c0b4956c",
        "gas": "0x24b8e8",
        "value": "0x0",
        "input": "0x000000000000000000000000000000000000000000000000000000000000000360c03461012f576001600160401b0390601f62001f4438819003918201601f1916830191848311848410176101335780849260209460405283398101031261012f57516001600160a01b038116810361012f573060805260a0527ff0c57e16840df040f15088dc2f81fe391c3923bec73e23a9662efc9c229c6a009081549060ff8260401c1661011d5780808316036100d8575b604051611dfc908162000148823960805181818161091a015281816109ef0152610f11015260a051818181610a5201528181610d1101528181610e5b01526114730152f35b6001600160401b031990911681179091556040519081527fc7f505b2f371ae2175ee4913f4499e1f2633a7b5936321eed1cdaeb6115181d290602090a15f8080610093565b60405163f92ee8a960e01b8152600490fd5b5f80fd5b634e487b7160e01b5f52604160045260245ffdfe6080604081815260049182361015610021575b505050361561001f575f80fd5b005b5f3560e01c90816318dfb3c7146114a2575080632dd310001461145f578063358394d814611162578063367ad9e214610e1f5780633a871cdd14610d515780634263ec7414610c225780634f1ef2861461099f57806350b5c16a1461096b57806352d1902d1461090757806354d3819d146106f15780635537adb8146106bd578063718d8dc51461057257806387f2f0b6146104bb5780638da5cb5b14610487578063ad3cb1cc1461041c578063b0246dc1146103cd578063b0d691fe1461039f578063b1588fb61461035b578063b61d27f614610313578063cdf456e1146102df578063d087d28814610243578063e9490cac146102065763fb04898d1461012a5780610012565b346101f057806003193601126101f05761014261153c565b602435916024602060018060a01b0361016c815f80516020611da783398151915254163314611657565b5f80516020611d6783398151915254168351928380926370a0823160e01b8252308a8301525afa9081156101fc579084915f916101c3575b50106101b45761001f8383611a04565b51631e9acf1760e31b81528390fd5b9150506020813d6020116101f4575b816101df60209383611552565b810103126101f0578390515f6101a4565b5f80fd5b3d91506101d2565b82513d5f823e3d90fd5b50346101f0575f3660031901126101f0576020907f7806362b894185d934e80baf5730588fbd006dd31fcb4dcacbeccfeb51c69938549051908152f35b50346101f0575f3660031901126101f057805191631aab3f0d60e11b835230908301525f6024830152602082604481735ff137d4b0fdcd49dca30c7cf57e578a026d27895afa9081156102d6575f916102a1575b6020925051908152f35b90506020823d6020116102ce575b816102bc60209383611552565b810103126101f0576020915190610297565b3d91506102af565b513d5f823e3d90fd5b50346101f0575f3660031901126101f0575f80516020611d678339815191525490516001600160a01b039091168152602090f35b50346101f05760603660031901126101f05761032d61153c565b506044356001600160401b0381116101f05761034c9036908401611616565b505051631eb49d6d60e11b8152fd5b346101f05760203660031901126101f05761001f61037761153c565b61039860018060a01b035f80516020611da783398151915254163314611657565b4790611ad2565b50346101f0575f3660031901126101f05760209051735ff137d4b0fdcd49dca30c7cf57e578a026d27898152f35b50346101f057806003193601126101f0576103e661153c565b6024359161040b60018060a01b035f80516020611da783398151915254163314611657565b8247106101b45761001f8383611ad2565b50346101f0575f3660031901126101f0578051908082018281106001600160401b03821117610474576104709350815260058252640352e302e360dc1b6020830152519182916020835260208301906115d8565b0390f35b604184634e487b7160e01b5f525260245ffd5b50346101f0575f3660031901126101f0575f80516020611da78339815191525490516001600160a01b039091168152602090f35b50346101f05760203660031901126101f0576104d561153c565b602060018060a01b036104f9815f80516020611da783398151915254163314611657565b5f80516020611d6783398151915254169360248451809681936370a0823160e01b835230908301525afa9182156102d657505f9161053c575b61001f9250611a04565b90506020823d60201161056a575b8161055760209383611552565b810103126101f05761001f915190610532565b3d915061054a565b50806003193601126101f05761058661153c565b6024356001600160401b0381116101f0576105a49036908501611616565b91735ff137d4b0fdcd49dca30c7cf57e578a026d2789331494851561069c575b85156105f6575b50906105e392916105de61047096611690565b611845565b90519182916020835260208301906115d8565b5f80516020611d27833981519152548551630aa6f5b760e31b815296506001600160a01b0391602091889190829085165afa958615610692575f96610645575b509094163314936105e36105cb565b95509291906020863d60201161068a575b8161066360209383611552565b810103126101f0576105de6105e39461067e61047098611643565b97509192939450610636565b3d9150610656565b85513d5f823e3d90fd5b5f80516020611da7833981519152546001600160a01b0316331495506105c4565b50346101f0575f3660031901126101f0575f80516020611d478339815191525490516001600160a01b039091168152602090f35b50906106fc366114f2565b90735ff137d4b0fdcd49dca30c7cf57e578a026d2789331480156108e7575b8015610858575b61072b90611690565b8183036108485761073b836116ee565b9361074887519586611552565b838552610754846116ee565b60209690601f1901875f5b828110610838575050505f5b8581106107ce57888888825191808301818452825180915281858501958260051b8601019301915f955b8287106107a25785850386f35b9091929382806107be600193603f198a820301865288516115d8565b9601920196019592919092610795565b600581901b83810135906001600160a01b03821682036101f05786831015610825576001929161080361080992880188611705565b91611845565b610813828a611737565b5261081e8189611737565b500161076b565b603284634e487b7160e01b5f525260245ffd5b606082828b01015201889061075f565b855163e6c4247b60e01b81528590fd5b505f80516020611d27833981519152548651630aa6f5b760e31b8152906001600160a01b039060209083908990829085165afa80156108dd575f906108a2575b1633149050610722565b506020823d6020116108d5575b816108bc60209383611552565b810103126101f0576108d061072b92611643565b610898565b3d91506108af565b88513d5f823e3d90fd5b505f80516020611da7833981519152546001600160a01b0316331461071b565b50346101f0575f3660031901126101f0577f00000000000000000000000000000000000000000000000000000000000000006001600160a01b0316300361095e57602090515f80516020611d878339815191528152f35b5163703e46dd60e11b8152fd5b50346101f0575f3660031901126101f0575f80516020611d278339815191525490516001600160a01b039091168152602090f35b5090816003193601126101f0576109b461153c565b6024356001600160401b0381116101f057366023820112156101f0576109e390369060248186013591016115a2565b6001600160a01b0393907f00000000000000000000000000000000000000000000000000000000000000008516308114908115610c07575b50610bf757610a3b855f80516020611da783398151915254163314611657565b8151926368fe596f60e01b845260209586858781847f0000000000000000000000000000000000000000000000000000000000000000165afa948515610bed575f95610bb6575b5080821694168403610ba65782516352d1902d60e01b81529580878781885afa9687915f98610b76575b5050610ac957505051634c9c8ce360e01b81529182015260249150fd5b838593875f80516020611d8783398151915290818103610b605750833b15610b495780546001600160a01b0319168317905551907fbc7cd75a20ee27fd9adebab32041f755214dbc6bffa90cc0225b39da2e5c2d3b5f80a2825115610b33575061001f9250611c08565b91505034610b3d57005b63b398979f60e01b8152fd5b8151634c9c8ce360e01b8152808701849052602490fd5b86602491845191632a87526960e21b8352820152fd5b9080929850813d8311610b9f575b610b8e8183611552565b810103126101f05751955f80610aac565b503d610b84565b8251632c8cb44760e21b81528590fd5b9094508681813d8311610be6575b610bce8183611552565b810103126101f057610bdf90611643565b935f610a82565b503d610bc4565b84513d5f823e3d90fd5b815163703e46dd60e11b81528490fd5b9050855f80516020611d87833981519152541614155f610a1b565b50346101f0575f3660031901126101f0575f80516020611da7833981519152546001600160a01b0390811633148015610d38575b8015610d0d575b15610cff575f80516020611d27833981519152548251630aa6f5b760e31b81529360209285928391165afa9081156102d657505f90610cc4575b5f80516020611d4783398151915280546001600160a01b0319166001600160a01b03909216919091179055005b506020813d602011610cf7575b81610cde60209383611552565b810103126101f057610cf261001f91611643565b610c97565b3d9150610cd1565b5051631eb49d6d60e11b8152fd5b50807f0000000000000000000000000000000000000000000000000000000000000000163314610c5d565b50805f80516020611d4783398151915254163314610c56565b5090346101f057600319906060368301126101f0578035916001600160401b0383116101f0576101609083360301126101f05760443591735ff137d4b0fdcd49dca30c7cf57e578a026d27893303610ddc5760209391610db591602435910161175f565b9180610dc3575b5051908152f35b5f80808093338219f150610dd5611816565b505f610dbc565b835162461bcd60e51b8152602081840152601c60248201527f6163636f756e743a206e6f742066726f6d20456e747279506f696e74000000006044820152606490fd5b5090346101f0575f3660031901126101f0575f80516020611da783398151915280546001600160a01b039390610e589085163314611657565b837f000000000000000000000000000000000000000000000000000000000000000016918151946368fe596f60e01b9081875260209182888881895afa978815610692575f9861112b575b50845163285ae0b560e11b8152838189818a5afa8015611121575f906110e9575b5f80516020611d2783398151915280546001600160a01b0319166001600160a01b03909216919091179055505b8451938385018581106001600160401b038211176110d65786525f8552827f0000000000000000000000000000000000000000000000000000000000000000168030149081156110bb575b506110ab5790610f5183859354163314611657565b8786518098819382525afa948515610bed575f95611074575b5080871694168403610ba65782516352d1902d60e01b81529080828781885afa9182915f93611044575b5050610fb157505051634c9c8ce360e01b81529182015260249150fd5b915f80516020611d878339815191529491949283810361102f5750853b1561101957505080546001600160a01b031916821790557fbc7cd75a20ee27fd9adebab32041f755214dbc6bffa90cc0225b39da2e5c2d3b5f80a280511561001f5761001f91611c08565b51634c9c8ce360e01b8152908101839052602490fd5b9051632a87526960e21b815291820152602490fd5b9080929350813d831161106d575b61105c8183611552565b810103126101f05751905f80610f94565b503d611052565b9094508181813d83116110a4575b61108c8183611552565b810103126101f05761109d90611643565b935f610f6a565b503d611082565b855163703e46dd60e11b81528890fd5b9050835f80516020611d87833981519152541614155f610f3c565b604189634e487b7160e01b5f525260245ffd5b508381813d831161111a575b6110ff8183611552565b810103126101f0575182811681036101f057610ef190610ec4565b503d6110f5565b86513d5f823e3d90fd5b9097508281813d831161115b575b6111438183611552565b810103126101f05761115490611643565b965f610ea3565b503d611139565b5090346101f05760803660031901126101f05761117d61153c565b6001600160a01b03604435818116949193908590036101f057606435848116908181036101f0577ff0c57e16840df040f15088dc2f81fe391c3923bec73e23a9662efc9c229c6a009586549560ff87871c1615966001600160401b03811680159081611457575b600114908161144d575b159081611444575b506114345767ffffffffffffffff198116600117895587611415575b50169687156113e25780156113aa575f80516020611da783398151915280546001600160a01b03199081168a179091556024357f7806362b894185d934e80baf5730588fbd006dd31fcb4dcacbeccfeb51c69938555f80516020611d67833981519152805482169092179091555f80516020611d2783398151915280549091166001600160a01b039092169190911790556020908351630aa6f5b760e31b815292839182905afa80156101fc575f9061136f575b5f80516020611d4783398151915280546001600160a01b0319166001600160a01b03909216919091179055505b5192735ff137d4b0fdcd49dca30c7cf57e578a026d27897ed85ca086af8cd244972a2f5c120c23ed58e508f2922c683db6a936a3838f1b5f80a361133357005b805468ff000000000000000019169055600181527fc7f505b2f371ae2175ee4913f4499e1f2633a7b5936321eed1cdaeb6115181d290602090a1005b506020813d6020116113a2575b8161138960209383611552565b810103126101f05761139d6112f391611643565b6112c6565b3d915061137c565b845162461bcd60e51b81526020818601526012602482015271125b9d985b1a590818985cd948185cdcd95d60721b6044820152606490fd5b845162461bcd60e51b8152602081860152600d60248201526c24b73b30b634b21037bbb732b960991b6044820152606490fd5b68ffffffffffffffffff1916680100000000000000011788555f611212565b865163f92ee8a960e01b81528690fd5b9050155f6111f6565b303b1591506111ee565b8991506111e4565b50346101f0575f3660031901126101f057517f00000000000000000000000000000000000000000000000000000000000000006001600160a01b03168152602090f35b8390346101f0576114b2366114f2565b5050631eb49d6d60e11b83525050fd5b9181601f840112156101f0578235916001600160401b0383116101f0576020808501948460051b0101116101f057565b60406003198201126101f0576001600160401b03916004358381116101f0578261151e916004016114c2565b939093926024359182116101f057611538916004016114c2565b9091565b600435906001600160a01b03821682036101f057565b90601f801991011681019081106001600160401b0382111761157357604052565b634e487b7160e01b5f52604160045260245ffd5b6001600160401b03811161157357601f01601f191660200190565b9291926115ae82611587565b916115bc6040519384611552565b8294818452818301116101f0578281602093845f960137010152565b91908251928382525f5b848110611602575050825f602080949584010152601f8019910116010190565b6020818301810151848301820152016115e2565b9181601f840112156101f0578235916001600160401b0383116101f057602083818601950101116101f057565b51906001600160a01b03821682036101f057565b1561165e57565b60405162461bcd60e51b815260206004820152600a60248201526937b7363c9037bbb732b960b11b6044820152606490fd5b1561169757565b60405162461bcd60e51b815260206004820152602960248201527f6163636f756e743a206e6f74204f776e65722c20456e747279506f696e742c2060448201526837b91029b2b93b32b960b91b6064820152608490fd5b6001600160401b0381116115735760051b60200190565b903590601e19813603018212156101f057018035906001600160401b0382116101f0576020019181360383136101f057565b805182101561174b5760209160051b010190565b634e487b7160e01b5f52603260045260245ffd5b6117b0906117b9927f19457468657265756d205369676e6564204d6573736167653a0a3332000000005f52601c526117aa6117a3603c5f2092610140810190611705565b36916115a2565b90611b4b565b90929192611b85565b5f80516020611da7833981519152546001600160a01b03918216919081168214611810575f80516020611d4783398151915254168015159182611806575b505061180257600190565b5f90565b1490505f806117f7565b50505f90565b3d15611840573d9061182782611587565b916118356040519384611552565b82523d5f602084013e565b606090565b909291602481106119f257806004116101f0576020600319858381010301126101f05760048401356001600160a01b03818116918290036101f057805f80516020611d27833981519152541660408093602482518094819363142b74b560e11b835260048301525afa9081156119e8575f905f926119a1575b5015908115611992575b50611979575f80835185898237808681018381520390875af4956118ea611816565b96156119545760608392858061194f947ffed7f84a4776977ece28604db1631d8092ee61747da07724f8574527dc9bf765989751978789988952880152848701375f858201840152601f01601f191684018481038301602086015296169501876115d8565b0390a2565b825163c2ac6b1560e01b81526020600482015280611975602482018a6115d8565b0390fd5b905163fc6da03f60e01b81529083166004820152602490fd5b8216858316141590505f6118c8565b809250848092503d83116119e1575b6119ba8183611552565b810103126101f05780519081151582036101f05760206119da9101611643565b905f6118be565b503d6119b0565b83513d5f823e3d90fd5b60405163e6c4247b60e01b8152600490fd5b6001600160a01b03919082169081156119f257825f80516020611d6783398151915254169260405163a9059cbb60e01b5f52836004528260245260205f60448180895af160015f5114811615611ab3575b8160405215611a9d575060207f8c0281578dec46ac28aa238d1ddc3bce894975318c50432a4b4c82e587776216915f80516020611da7833981519152541692604051908152a4565b635274afe760e01b815260048101859052602490fd5b6001811516611ac957853b15153d151616611a55565b503d5f823e3d90fd5b6001600160a01b03808216929183156119f2575f80808581945af1611af5611816565b5015611b395760207f5c3457fa8f0624848f7477f9bc10f88c2c14a6f88ff9dfdfb6f6978a9dea47a8915f80516020611da7833981519152541692604051908152a3565b6040516312171d8360e31b8152600490fd5b8151919060418303611b7b57611b749250602082015190606060408401519301515f1a90611c99565b9192909190565b50505f9160029190565b6004811015611bf45780611b97575050565b60018103611bb15760405163f645eedf60e01b8152600490fd5b60028103611bd25760405163fce698f760e01b815260048101839052602490fd5b600314611bdc5750565b602490604051906335e2f38360e21b82526004820152fd5b634e487b7160e01b5f52602160045260245ffd5b905f8091602081519101845af48080611c86575b15611c3c5750506040513d81523d5f602083013e60203d82010160405290565b15611c6357604051639996b31560e01b81526001600160a01b039091166004820152602490fd5b3d15611c74576040513d5f823e3d90fd5b60405163d6bda27560e01b8152600490fd5b503d151580611c1c5750813b1515611c1c565b91907f7fffffffffffffffffffffffffffffff5d576e7357a4501ddfe92f46681b20a08411611d1b579160209360809260ff5f9560405194855216868401526040830152606082015282805260015afa15611d10575f516001600160a01b03811615611d0657905f905f90565b505f906001905f90565b6040513d5f823e3d90fd5b5050505f916003919056fe7806362b894185d934e80baf5730588fbd006dd31fcb4dcacbeccfeb51c6993a7806362b894185d934e80baf5730588fbd006dd31fcb4dcacbeccfeb51c6993b7806362b894185d934e80baf5730588fbd006dd31fcb4dcacbeccfeb51c69939360894a13ba1a3210667c828492db98dca3e2076cc3735a920a3ca505d382bbc7806362b894185d934e80baf5730588fbd006dd31fcb4dcacbeccfeb51c69937a26469706673582212207aa1391a6dd61407dd811e4a10120cc47ed5aa06479f0a699b04af34a201eaa864736f6c6343000818003300000000000000000000000018c8a28e105a7262383cebe35d8a265f864750c3",
        "nonce": "0x27",
        "chainId": "0x2105"
      },
      "additionalContracts": [],
      "isFixedGasLimit": false
    },
    {
      "hash": "0x2e94bd5ade2266200b37be2bfdd4a5993bc8b8a3c3a55245c82412b5c283a47e",
      "transactionType": "CREATE2",
      "contractName": "YieldSeekerAdapterRegistry",
      "contractAddress": "0xa1dda4d6e2838f68cc2b945f291ad1c5da032ce5",
      "function": null,
      "arguments": [
        "0x4e5B054109D9705C39e20d1341bE75dD4F47Fbd0",
        "0xCE11D6fb4f1e006E5a348230449Dc387fde850CC"
      ],
      "transaction": {
        "from": "0xce11d6fb4f1e006e5a348230449dc387fde850cc",
        "to": "0x4e59b44847b379578588920ca78fbf26c0b4956c",
        "gas": "0x1480e1",
        "value": "0x0",
        "input": "0x0000000000000000000000000000000000000000000000000000000000000003608034620000b857601f620010e138819003918201601f19168301916001600160401b03831184841017620000bc578084926040948552833981010312620000b8576200005a60206200005283620000d0565b9201620000d0565b6001600160a01b0382811615620000a657811615620000a6576200008e82620000876200009594620000e5565b5062000155565b50620001f5565b50604051610e119081620002908239f35b60405163d92e233d60e01b8152600490fd5b5f80fd5b634e487b7160e01b5f52604160045260245ffd5b51906001600160a01b0382168203620000b857565b6001600160a01b03165f8181525f80516020620010c1833981519152602052604090205460ff1662000150575f8181525f80516020620010c183398151915260205260408120805460ff191660011790553391905f80516020620010a18339815191528180a4600190565b505f90565b6001600160a01b03165f8181527f83cab6d7cca1d18cc7de94a8ca8455ea26ea82b1fedd1b586dedde3a5e0e2b0060205260409020547fbb28eb1a0cfabcecf96003fab466159bc2e051e49d79baf049890044e9072440919060ff16620001ef57815f525f60205260405f20815f5260205260405f20600160ff1982541617905533915f80516020620010a18339815191525f80a4600190565b50505f90565b6001600160a01b03165f8181527f3c1b1854ab1360abbb06c8d4c6b2672d4b8cedc5eff522ab19e51d5cb8fdbd4660205260409020547fbf233dd2aafeb4d50879c4aa5c81e96d92f6e6945c906a58f9f2d1c1631b4b26919060ff16620001ef57815f525f60205260405f20815f5260205260405f20600160ff1982541617905533915f80516020620010a18339815191525f80a460019056fe6080604090808252600480361015610015575f80fd5b5f3560e01c91826301ffc9a714610b31575081631d46021f14610a5757816320df435914610a1d57816322f2caf1146109a1578163248a9ca3146109785781632856e96a146108fb5781632f2ff15d146108d357816336568abe1461088f5781633f4ba83a146108465781634a1293b7146108285781635537adb8146107fc5781635c975abb146107d9578163618295df146107485781637a1ff20d146106cc5781638456cb591461068057816389810a901461055457816391d1485414610511578163a217fddf146104f7578163a56affb6146104b7578163bf584c4b1461047d578163c157c57c14610457578163c70d539814610358578163d547741f1461031d578163d5d7ff3c146101b657508063e3f1dd691461017d5763fa351f791461013e575f80fd5b34610179576020366003190112610179576020906001600160a01b03610162610b83565b165f526002825260ff815f20541690519015158152f35b5f80fd5b5034610179576020366003190112610179576020906001600160a01b03806101a3610b83565b165f5260018352815f2054169051908152f35b9050346101795760209081600319360112610179576101d3610b83565b926101dc610c71565b6001600160a01b039384165f81815260018552829020548516939092908415610307575f8481526001825283812080546001600160a01b0319169055828252839020546003545f199791908881019081116102f45780839183036102a7575b505050600354968715610294575f959697019061025782610baf565b909182549160031b1b19169055600355848452528120557f95acdd767bfb2c6578833b7678c4dcc015f00b35820877f64a390809892628015f80a3005b603184634e487b7160e01b5f525260245ffd5b6102b090610baf565b90549060031b1c166102e3816102c584610baf565b90919060018060a01b038084549260031b9316831b921b1916179055565b5f52838352845f20555f818161023b565b601185634e487b7160e01b5f525260245ffd5b50826024925191633b3f036f60e01b8352820152fd5b823461017957806003193601126101795761035691356103516001610340610b99565b93835f525f6020525f200154610ccc565b610d69565b005b8234610179578060031936011261017957610371610b83565b610379610b99565b91610382610bf8565b6001600160a01b039182165f81815260016020528290205490939083161561044057821693845f52600260205260ff825f2054161561042b5750825f5260016020525f20805490846bffffffffffffffffffffffff60a01b831617905516817f95acdd767bfb2c6578833b7678c4dcc015f00b35820877f64a390809892628015f80a37f1cf35c87329e14a81fdc68af8a463c1db203ccfc925ff5150f5dbc71bc4c23725f80a3005b84602492519163fc6da03f60e01b8352820152fd5b8151633b3f036f60e01b8152808601859052602490fd5b8234610179576020366003190112610179576020906001600160a01b03806101a3610b83565b8234610179575f36600319011261017957602090517fbb28eb1a0cfabcecf96003fab466159bc2e051e49d79baf049890044e90724408152f35b905034610179576020366003190112610179573590600354821015610179576104e1602092610baf565b60018060a01b0391549060031b1c169051908152f35b8234610179575f36600319011261017957602090515f8152f35b823461017957806003193601126101795760209161052d610b99565b90355f525f8352815f209060018060a01b03165f52825260ff815f20541690519015158152f35b823461017957806003193601126101795761056d610b83565b610575610b99565b9161057e610bf8565b6001600160a01b039382851693841561067157851694855f52600260205260ff835f2054161561065b57845f526001602052825f20541661064657835f526001602052815f20856bffffffffffffffffffffffff60a01b8254161790556003548092826020525f2055680100000000000000008210156106335750906102c582600161060d9401600355610baf565b7f1cf35c87329e14a81fdc68af8a463c1db203ccfc925ff5150f5dbc71bc4c23725f80a3005b604190634e487b7160e01b5f525260245ffd5b8360249251916313ae1d3560e11b8352820152fd5b5084602492519163fc6da03f60e01b8352820152fd5b50905163d92e233d60e01b8152fd5b34610179575f36600319011261017957610698610c71565b600160ff196005541617600555337f62e78cea01bee320cd4e420270b5ea74000d11b0c9f74754ebdbfc544b05a2585f80a2005b34610179576020366003190112610179576106e5610b83565b6106ed610bf8565b60058054610100600160a81b03198116600884811b610100600160a81b0316919091179092556001600160a01b0392831692911c167fa7be491d4950fa053880b9583913cd0588f88ea64c26b6c3afbfd77ad2c36ca05f80a3005b823461017957602036600319011261017957610762610b83565b61076a610c71565b6001600160a01b03165f81815260026020528290205490929060ff16156107c45750815f5260026020525f2060ff1981541690557f9fbc8baf3d886b40fce5c05b089495702c9f5d8cb64f9c05db1a25e040d062965f80a2005b82602492519163fc6da03f60e01b8352820152fd5b8234610179575f3660031901126101795760209060ff6005541690519015158152f35b8234610179575f36600319011261017957600554905160089190911c6001600160a01b03168152602090f35b8234610179575f366003190112610179576020906003549051908152f35b34610179575f3660031901126101795761085e610bf8565b60ff1960055416600555337f5db9ee0a495bf2e6ff9c91a7834c1ba4fdd244a5e8aa4e537bd38aeae4b073aa5f80a2005b82346101795780600319360112610179576108a8610b99565b90336001600160a01b038316036108c457506103569135610d69565b5163334bd91960e11b81529050fd5b823461017957806003193601126101795761035691356108f66001610340610b99565b610ced565b90503461017957602036600319011261017957610916610b83565b9060ff6005541661096a57506001600160a01b039081165f908152600160205282902054168015159081610953575b825191151582526020820152f35b8091505f52600260205260ff825f20541690610945565b82516309148bcd60e21b8152fd5b823461017957602036600319011261017957602091355f525f82526001815f2001549051908152f35b8234610179576020366003190112610179576109bb610b83565b6109c3610bf8565b6001600160a01b0316918215610a0f5750815f5260026020525f20600160ff198254161790557fa77e7c594c11a0d5d9d8e6a9132ac0db912dc0f34f5fb7d94860fe38d16410bd5f80a2005b905163d92e233d60e01b8152fd5b8234610179575f36600319011261017957602090517fbf233dd2aafeb4d50879c4aa5c81e96d92f6e6945c906a58f9f2d1c1631b4b268152f35b8234610179575f36600319011261017957805180600354928382526020809201809460035f527fc2575a0e9e593c00f959f8c92f12db2869c3395a3b0502d05e2516446f71f85b905f5b85828210610b145750505050839003601f01601f191683019467ffffffffffffffff86118487101761063357508481528185529151818501819052849392840192915f5b828110610af457505050500390f35b83516001600160a01b031685528695509381019392810192600101610ae5565b83546001600160a01b031685529093019260019283019201610aa1565b903461017957602036600319011261017957359063ffffffff60e01b821680920361017957602091637965db0b60e01b8114908115610b72575b5015158152f35b6301ffc9a760e01b14905083610b6b565b600435906001600160a01b038216820361017957565b602435906001600160a01b038216820361017957565b600354811015610be45760035f527fc2575a0e9e593c00f959f8c92f12db2869c3395a3b0502d05e2516446f71f85b01905f90565b634e487b7160e01b5f52603260045260245ffd5b335f9081527f83cab6d7cca1d18cc7de94a8ca8455ea26ea82b1fedd1b586dedde3a5e0e2b0060205260409020547fbb28eb1a0cfabcecf96003fab466159bc2e051e49d79baf049890044e90724409060ff1615610c535750565b6044906040519063e2517d3f60e01b82523360048301526024820152fd5b335f9081527f3c1b1854ab1360abbb06c8d4c6b2672d4b8cedc5eff522ab19e51d5cb8fdbd4660205260409020547fbf233dd2aafeb4d50879c4aa5c81e96d92f6e6945c906a58f9f2d1c1631b4b269060ff1615610c535750565b805f525f60205260405f20335f5260205260ff60405f20541615610c535750565b90815f525f60205260405f209060018060a01b031690815f5260205260ff60405f205416155f14610d6357815f525f60205260405f20815f5260205260405f20600160ff1982541617905533917f2f8788117e7eff1d82e926ec794901d17c78024a50270940304540a733656f0d5f80a4600190565b50505f90565b90815f525f60205260405f209060018060a01b031690815f5260205260ff60405f2054165f14610d6357815f525f60205260405f20815f5260205260405f2060ff19815416905533917ff6391f5c32d9c69d2a47ea670b442974b53935d1edc7fd64eb21e047a839171b5f80a460019056fea2646970667358221220d3707946cc19fde03716926fdf9ff7447a7fb6dbc0cf4f22a96fa965db044bec64736f6c634300081800332f8788117e7eff1d82e926ec794901d17c78024a50270940304540a733656f0dad3228b676f7d3cd4284a5443f17f1962b36e491b30a40b2405849e597ba5fb50000000000000000000000004e5b054109d9705c39e20d1341be75dd4f47fbd0000000000000000000000000ce11d6fb4f1e006e5a348230449dc387fde850cc",
        "nonce": "0x28",
        "chainId": "0x2105"
      },
      "additionalContracts": [],
      "isFixedGasLimit": false
    },
    {
      "hash": "0x1b07d01d17813ff044afbd6230e7ed027fe7189d7dd4de07b42e6050ae5cb23f",
      "transactionType": "CREATE2",
      "contractName": "YieldSeekerERC4626Adapter",
      "contractAddress": "0xcf0cb704125dea26d327a9f729b1aaf33b487c85",
      "function": null,
      "arguments": null,
      "transaction": {
        "from": "0xce11d6fb4f1e006e5a348230449dc387fde850cc",
        "to": "0x4e59b44847b379578588920ca78fbf26c0b4956c",
        "gas": "0x7775c",
        "value": "0x0",
        "input": "0x00000000000000000000000000000000000000000000000000000000000000036080806040523461001657610511908161001b8239f35b5f80fdfe608060409080825260049081361015610016575f80fd5b5f3560e01c90816330b8b2c6146103fe5750806340a4289a1461035a57806347e7ef241461012f5763f3fef3a31461004c575f80fd5b3461010c578160031936011261010c57610064610470565b916024359283156101215760018060a01b031683825193635d043b2960e11b855284015230602484015230604484015260209384846064815f865af1938415610117575f946100e4575b50825190815283858201527f91fb9d98b786c57d74c099ccd2beca1739e9f6a81fb49001ca465c4b7591bbe2833092a351908152f35b9093508481813d8311610110575b6100fc8183610486565b8101031261010c5751925f6100ae565b5f80fd5b503d6100f2565b83513d5f823e3d90fd5b5051631f2a200560e01b8152fd5b503461010c578160031936011261010c57610148610470565b9160248035801561034b5782516338d52e0f60e01b81526020956001600160a01b03908116939187818881885afa908115610341575f91610314575b501684519063095ea7b360e01b91825f52858852848452885f60448180865af160015f5114811615610307575b81885215610250575b50508451636e553f6560e01b815295860183905250309085015284846044815f865af1938415610117575f94610221575b50825190815283858201527ff5681f9d0db1b911ac18ee83d515a1cf1051853a9eae418316a2fdf7dea427c5833092a351908152f35b9093508481813d8311610249575b6102398183610486565b8101031261010c5751925f6101eb565b503d61022f565b825f528588525f8452885f60448180865af160015f51148116156102e8575b818852156102d657508551915f52848752838352875f60448180855af160015f51148116156102b7575b828752156102a757806101ba565b635274afe760e01b825281870152fd5b60018115166102cd57813b15153d151616610299565b823d5f823e3d90fd5b915086635274afe760e01b8352820152fd5b60018115166102fe57823b15153d15161661026f565b503d5f823e3d90fd5b823b15153d1516166101b1565b6103349150883d8a1161033a575b61032c8183610486565b8101906104bc565b5f610184565b503d610322565b86513d5f823e3d90fd5b505051631f2a200560e01b8152fd5b50903461010c578060031936011261010c57610374610470565b916024356001600160a01b038181169182900361010c57602092602491855196879485936370a0823160e01b8552840152165afa9081156103f5575f916103c0575b6020925051908152f35b90506020823d6020116103ed575b816103db60209383610486565b8101031261010c5760209151906103b6565b3d91506103ce565b513d5f823e3d90fd5b9190503461010c57602036600319011261010c576001600160a01b03906020908390818461042a610470565b6338d52e0f60e01b8352165afa91821561011757926020935f93610451575b505191168152f35b610469919350843d861161033a5761032c8183610486565b915f610449565b600435906001600160a01b038216820361010c57565b90601f8019910116810190811067ffffffffffffffff8211176104a857604052565b634e487b7160e01b5f52604160045260245ffd5b9081602091031261010c57516001600160a01b038116810361010c579056fea264697066735822122094ed6df242709155ff2ec2b7996e490ea5b6e32fbdf1a0dc40e7d9df2d1a34e864736f6c63430008180033",
        "nonce": "0x29",
        "chainId": "0x2105"
      },
      "additionalContracts": [],
      "isFixedGasLimit": false
    },
    {
      "hash": "0x3eb4af3faa5d6d6912ac220e2afcc3063ac545b228a07e9da19b203fda31ecaa",
      "transactionType": "CREATE2",
      "contractName": "YieldSeekerAaveV3Adapter",
      "contractAddress": "0x4351cd71eb607f5f35a0b406ad81f6b27a2cfc63",
      "function": null,
      "arguments": null,
      "transaction": {
        "from": "0xce11d6fb4f1e006e5a348230449dc387fde850cc",
        "to": "0x4e59b44847b379578588920ca78fbf26c0b4956c",
        "gas": "0x62073",
        "value": "0x0",
        "input": "0x00000000000000000000000000000000000000000000000000000000000000036080806040523461001657610447908161001b8239f35b5f80fdfe608060409080825260049182361015610016575f80fd5b5f915f3560e01c9081630c0a769b146101c657508063203660df146101205763d9caed1214610043575f80fd5b3461011c57610051366103a6565b80959291951561010c5760018060a01b0380921691845196631a4ca37b60e21b88521680938701526024860152306044860152602094858160648188865af194851561010157946100ce575b5082518481527fa4195c37c2947bbe89165f03e320b6903116f0b10d8cfdb522330f7ce6f9fa24863092a451908152f35b9093508481813d83116100fa575b6100e681836103db565b810103126100f65751925f61009d565b5f80fd5b503d6100dc565b8451903d90823e3d90fd5b8351631f2a200560e01b81528390fd5b5080fd5b503461011c578060031936011261011c5782356001600160a01b0381811694918590036100f6576024359081168091036100f6576024602092845196879384926370a0823160e01b84528301525afa9182156101bb5791610186575b6020925051908152f35b90506020823d6020116101b3575b816101a1602093836103db565b810103126100f657602091519061017c565b3d9150610194565b9051903d90823e3d90fd5b91849150346100f6576101d8366103a6565b9291939094831561039a5750815163095ea7b360e01b5f8181526001600160a01b03968716808552602487815298909716979290602090604481808c5af160015f511481161561038d575b818652156102d9575b5050843b156100f65782519163617ba03760e01b8352868184015284828401523060448401525f60648401525f83608481838a5af180156102cf5761029c575b505050519081527f50413727b37795d672f09d0997645a955fa227befaefdd4adb611542dea3fd8060203092a480f35b909192965067ffffffffffffffff83116102be57505084525f9385808061026c565b604190634e487b7160e01b5f52525ffd5b84513d5f823e3d90fd5b815f528684525f835260205f604481808c5af160015f5114811615610377575b8186521561036357508351905f5285835284825260205f604481808b5af160015f5114811615610344575b81855215610332578061022c565b635274afe760e01b8152808301879052fd5b600181151661035a57873b15153d151616610324565b503d5f823e3d90fd5b635274afe760e01b81528381018890529050fd5b600181151661035a57883b15153d1516166102f9565b883b15153d151616610223565b631f2a200560e01b8152fd5b60609060031901126100f6576001600160a01b039060043582811681036100f6579160243590811681036100f6579060443590565b90601f8019910116810190811067ffffffffffffffff8211176103fd57604052565b634e487b7160e01b5f52604160045260245ffdfea2646970667358221220f6ec6c658ccebfebfb37b02fb512b67a9716c1d39b6c7a0a2325db65bdcca89e64736f6c63430008180033",
        "nonce": "0x2a",
        "chainId": "0x2105"
      },
      "additionalContracts": [],
      "isFixedGasLimit": false
    },
    {
      "hash": "0xcd73fb9df887a2d8023a6d0cd4b7aaf33482d27b45c1b9f7fa1d801a21ff979a",
      "transactionType": "CALL",
      "contractName": "YieldSeekerAdminTimelock",
      "contractAddress": "0x4e5b054109d9705c39e20d1341be75dd4f47fbd0",
      "function": "schedule(address,uint256,bytes,bytes32,bytes32,uint256)",
      "arguments": [
        "0x18C8a28E105a7262383CeBE35D8A265f864750c3",
        "0",
        "0xc68e00fb000000000000000000000000fa8104be549edcb99224ec77133d79550cf27eec",
        "0x0000000000000000000000000000000000000000000000000000000000000000",
        "0x00000000000000000000000000000000000000000000000000000000000003e8",
        "0"
      ],
      "transaction": {
        "from": "0xce11d6fb4f1e006e5a348230449dc387fde850cc",
        "to": "0x4e5b054109d9705c39e20d1341be75dd4f47fbd0",
        "gas": "0x12d3c",
        "value": "0x0",
        "input": "0x01d5062a00000000000000000000000018c8a28e105a7262383cebe35d8a265f864750c3000000000000000000000000000000000000000000000000000000000000000000000000000000000000000000000000000000000000000000000000000000c0000000000000000000000000000000000000000000000000000000000000000000000000000000000000000000000000000000000000000000000000000003e800000000000000000000000000000000000000000000000000000000000000000000000000000000000000000000000000000000000000000000000000000024c68e00fb000000000000000000000000fa8104be549edcb99224ec77133d79550cf27eec00000000000000000000000000000000000000000000000000000000",
        "nonce": "0x2b",
        "chainId": "0x2105"
      },
      "additionalContracts": [],
      "isFixedGasLimit": false
    },
    {
      "hash": "0x3cc93bb51c1bc4cee678494cc6ae0e2b500edbe94575e8563fd4af0c7eb18dcb",
      "transactionType": "CALL",
      "contractName": "YieldSeekerAdminTimelock",
      "contractAddress": "0x4e5b054109d9705c39e20d1341be75dd4f47fbd0",
      "function": "execute(address,uint256,bytes,bytes32,bytes32)",
      "arguments": [
        "0x18C8a28E105a7262383CeBE35D8A265f864750c3",
        "0",
        "0xc68e00fb000000000000000000000000fa8104be549edcb99224ec77133d79550cf27eec",
        "0x0000000000000000000000000000000000000000000000000000000000000000",
        "0x00000000000000000000000000000000000000000000000000000000000003e8"
      ],
      "transaction": {
        "from": "0xce11d6fb4f1e006e5a348230449dc387fde850cc",
        "to": "0x4e5b054109d9705c39e20d1341be75dd4f47fbd0",
        "gas": "0x1796d",
        "value": "0x0",
        "input": "0x134008d300000000000000000000000018c8a28e105a7262383cebe35d8a265f864750c3000000000000000000000000000000000000000000000000000000000000000000000000000000000000000000000000000000000000000000000000000000a0000000000000000000000000000000000000000000000000000000000000000000000000000000000000000000000000000000000000000000000000000003e80000000000000000000000000000000000000000000000000000000000000024c68e00fb000000000000000000000000fa8104be549edcb99224ec77133d79550cf27eec00000000000000000000000000000000000000000000000000000000",
        "nonce": "0x2c",
        "chainId": "0x2105"
      },
      "additionalContracts": [],
      "isFixedGasLimit": false
    },
    {
      "hash": "0xcd6d9bcb7a57a30a03028a5cd92ef63c115e9acd6fcd36940f5fcd695e4954d0",
      "transactionType": "CALL",
      "contractName": "YieldSeekerAdminTimelock",
      "contractAddress": "0x4e5b054109d9705c39e20d1341be75dd4f47fbd0",
      "function": "schedule(address,uint256,bytes,bytes32,bytes32,uint256)",
      "arguments": [
        "0x18C8a28E105a7262383CeBE35D8A265f864750c3",
        "0",
        "0x5b34b823000000000000000000000000a1dda4d6e2838f68cc2b945f291ad1c5da032ce5",
        "0x0000000000000000000000000000000000000000000000000000000000000000",
        "0x00000000000000000000000000000000000000000000000000000000000003e9",
        "0"
      ],
      "transaction": {
        "from": "0xce11d6fb4f1e006e5a348230449dc387fde850cc",
        "to": "0x4e5b054109d9705c39e20d1341be75dd4f47fbd0",
        "gas": "0x13f05",
        "value": "0x0",
        "input": "0x01d5062a00000000000000000000000018c8a28e105a7262383cebe35d8a265f864750c3000000000000000000000000000000000000000000000000000000000000000000000000000000000000000000000000000000000000000000000000000000c0000000000000000000000000000000000000000000000000000000000000000000000000000000000000000000000000000000000000000000000000000003e9000000000000000000000000000000000000000000000000000000000000000000000000000000000000000000000000000000000000000000000000000000245b34b823000000000000000000000000a1dda4d6e2838f68cc2b945f291ad1c5da032ce500000000000000000000000000000000000000000000000000000000",
        "nonce": "0x2d",
        "chainId": "0x2105"
      },
      "additionalContracts": [],
      "isFixedGasLimit": false
    },
    {
      "hash": "0x7dc7dcd050ea40a3c5a593f1d81a10b2a0b7066898bfc76a4a4499e4ff19d1d0",
      "transactionType": "CALL",
      "contractName": "YieldSeekerAdminTimelock",
      "contractAddress": "0x4e5b054109d9705c39e20d1341be75dd4f47fbd0",
      "function": "execute(address,uint256,bytes,bytes32,bytes32)",
      "arguments": [
        "0x18C8a28E105a7262383CeBE35D8A265f864750c3",
        "0",
        "0x5b34b823000000000000000000000000a1dda4d6e2838f68cc2b945f291ad1c5da032ce5",
        "0x0000000000000000000000000000000000000000000000000000000000000000",
        "0x00000000000000000000000000000000000000000000000000000000000003e9"
      ],
      "transaction": {
        "from": "0xce11d6fb4f1e006e5a348230449dc387fde850cc",
        "to": "0x4e5b054109d9705c39e20d1341be75dd4f47fbd0",
        "gas": "0x16aa4",
        "value": "0x0",
        "input": "0x134008d300000000000000000000000018c8a28e105a7262383cebe35d8a265f864750c3000000000000000000000000000000000000000000000000000000000000000000000000000000000000000000000000000000000000000000000000000000a0000000000000000000000000000000000000000000000000000000000000000000000000000000000000000000000000000000000000000000000000000003e900000000000000000000000000000000000000000000000000000000000000245b34b823000000000000000000000000a1dda4d6e2838f68cc2b945f291ad1c5da032ce500000000000000000000000000000000000000000000000000000000",
        "nonce": "0x2e",
        "chainId": "0x2105"
      },
      "additionalContracts": [],
      "isFixedGasLimit": false
    },
    {
      "hash": "0x39e0bd66af5743d091ee145c810fbcacb38ea08f83d2b2ef1574175c31e1a519",
      "transactionType": "CALL",
      "contractName": "YieldSeekerAdminTimelock",
      "contractAddress": "0x4e5b054109d9705c39e20d1341be75dd4f47fbd0",
      "function": "schedule(address,uint256,bytes,bytes32,bytes32,uint256)",
      "arguments": [
        "0xA1DdA4d6e2838f68CC2B945F291Ad1C5Da032ce5",
        "0",
        "0x22f2caf1000000000000000000000000cf0cb704125dea26d327a9f729b1aaf33b487c85",
        "0x0000000000000000000000000000000000000000000000000000000000000000",
        "0x00000000000000000000000000000000000000000000000000000000000003ea",
        "0"
      ],
      "transaction": {
        "from": "0xce11d6fb4f1e006e5a348230449dc387fde850cc",
        "to": "0x4e5b054109d9705c39e20d1341be75dd4f47fbd0",
        "gas": "0x13f05",
        "value": "0x0",
        "input": "0x01d5062a000000000000000000000000a1dda4d6e2838f68cc2b945f291ad1c5da032ce5000000000000000000000000000000000000000000000000000000000000000000000000000000000000000000000000000000000000000000000000000000c0000000000000000000000000000000000000000000000000000000000000000000000000000000000000000000000000000000000000000000000000000003ea0000000000000000000000000000000000000000000000000000000000000000000000000000000000000000000000000000000000000000000000000000002422f2caf1000000000000000000000000cf0cb704125dea26d327a9f729b1aaf33b487c8500000000000000000000000000000000000000000000000000000000",
        "nonce": "0x2f",
        "chainId": "0x2105"
      },
      "additionalContracts": [],
      "isFixedGasLimit": false
    },
    {
      "hash": "0x0341e605e40f71c8a650e433d55d7e92c8fddda7b60e085e18e44a523769dc1f",
      "transactionType": "CALL",
      "contractName": "YieldSeekerAdminTimelock",
      "contractAddress": "0x4e5b054109d9705c39e20d1341be75dd4f47fbd0",
      "function": "execute(address,uint256,bytes,bytes32,bytes32)",
      "arguments": [
        "0xA1DdA4d6e2838f68CC2B945F291Ad1C5Da032ce5",
        "0",
        "0x22f2caf1000000000000000000000000cf0cb704125dea26d327a9f729b1aaf33b487c85",
        "0x0000000000000000000000000000000000000000000000000000000000000000",
        "0x00000000000000000000000000000000000000000000000000000000000003ea"
      ],
      "transaction": {
        "from": "0xce11d6fb4f1e006e5a348230449dc387fde850cc",
        "to": "0x4e5b054109d9705c39e20d1341be75dd4f47fbd0",
        "gas": "0x163d1",
        "value": "0x0",
        "input": "0x134008d3000000000000000000000000a1dda4d6e2838f68cc2b945f291ad1c5da032ce5000000000000000000000000000000000000000000000000000000000000000000000000000000000000000000000000000000000000000000000000000000a0000000000000000000000000000000000000000000000000000000000000000000000000000000000000000000000000000000000000000000000000000003ea000000000000000000000000000000000000000000000000000000000000002422f2caf1000000000000000000000000cf0cb704125dea26d327a9f729b1aaf33b487c8500000000000000000000000000000000000000000000000000000000",
        "nonce": "0x30",
        "chainId": "0x2105"
      },
      "additionalContracts": [],
      "isFixedGasLimit": false
    },
    {
      "hash": "0x47162fb1cdf402c729bd9a6ab26f2441bc2679bfc450a1f55802d1bc3c2b8001",
      "transactionType": "CALL",
      "contractName": "YieldSeekerAdminTimelock",
      "contractAddress": "0x4e5b054109d9705c39e20d1341be75dd4f47fbd0",
      "function": "schedule(address,uint256,bytes,bytes32,bytes32,uint256)",
      "arguments": [
        "0xA1DdA4d6e2838f68CC2B945F291Ad1C5Da032ce5",
        "0",
        "0x22f2caf10000000000000000000000004351cd71eb607f5f35a0b406ad81f6b27a2cfc63",
        "0x0000000000000000000000000000000000000000000000000000000000000000",
        "0x00000000000000000000000000000000000000000000000000000000000003eb",
        "0"
      ],
      "transaction": {
        "from": "0xce11d6fb4f1e006e5a348230449dc387fde850cc",
        "to": "0x4e5b054109d9705c39e20d1341be75dd4f47fbd0",
        "gas": "0x13f05",
        "value": "0x0",
        "input": "0x01d5062a000000000000000000000000a1dda4d6e2838f68cc2b945f291ad1c5da032ce5000000000000000000000000000000000000000000000000000000000000000000000000000000000000000000000000000000000000000000000000000000c0000000000000000000000000000000000000000000000000000000000000000000000000000000000000000000000000000000000000000000000000000003eb0000000000000000000000000000000000000000000000000000000000000000000000000000000000000000000000000000000000000000000000000000002422f2caf10000000000000000000000004351cd71eb607f5f35a0b406ad81f6b27a2cfc6300000000000000000000000000000000000000000000000000000000",
        "nonce": "0x31",
        "chainId": "0x2105"
      },
      "additionalContracts": [],
      "isFixedGasLimit": false
    },
    {
      "hash": "0xe1a6cfa0b0ec56a00a9ce67231718766b671ab14aa272f1ea2fe3ce30114b553",
      "transactionType": "CALL",
      "contractName": "YieldSeekerAdminTimelock",
      "contractAddress": "0x4e5b054109d9705c39e20d1341be75dd4f47fbd0",
      "function": "execute(address,uint256,bytes,bytes32,bytes32)",
      "arguments": [
        "0xA1DdA4d6e2838f68CC2B945F291Ad1C5Da032ce5",
        "0",
        "0x22f2caf10000000000000000000000004351cd71eb607f5f35a0b406ad81f6b27a2cfc63",
        "0x0000000000000000000000000000000000000000000000000000000000000000",
        "0x00000000000000000000000000000000000000000000000000000000000003eb"
      ],
      "transaction": {
        "from": "0xce11d6fb4f1e006e5a348230449dc387fde850cc",
        "to": "0x4e5b054109d9705c39e20d1341be75dd4f47fbd0",
        "gas": "0x163d1",
        "value": "0x0",
        "input": "0x134008d3000000000000000000000000a1dda4d6e2838f68cc2b945f291ad1c5da032ce5000000000000000000000000000000000000000000000000000000000000000000000000000000000000000000000000000000000000000000000000000000a0000000000000000000000000000000000000000000000000000000000000000000000000000000000000000000000000000000000000000000000000000003eb000000000000000000000000000000000000000000000000000000000000002422f2caf10000000000000000000000004351cd71eb607f5f35a0b406ad81f6b27a2cfc6300000000000000000000000000000000000000000000000000000000",
        "nonce": "0x32",
        "chainId": "0x2105"
      },
      "additionalContracts": [],
      "isFixedGasLimit": false
    },
    {
      "hash": "0x7d81f9a74971d98318fd1d46fae88501be9512359974570685ffe1f2a289a032",
      "transactionType": "CALL",
      "contractName": "YieldSeekerAdminTimelock",
      "contractAddress": "0x4e5b054109d9705c39e20d1341be75dd4f47fbd0",
      "function": "schedule(address,uint256,bytes,bytes32,bytes32,uint256)",
      "arguments": [
        "0xA1DdA4d6e2838f68CC2B945F291Ad1C5Da032ce5",
        "0",
        "0x7a1ff20d0000000000000000000000002ed35991d466e8114d49bda6f602c3795305006d",
        "0x0000000000000000000000000000000000000000000000000000000000000000",
        "0x00000000000000000000000000000000000000000000000000000000000003ec",
        "0"
      ],
      "transaction": {
        "from": "0xce11d6fb4f1e006e5a348230449dc387fde850cc",
        "to": "0x4e5b054109d9705c39e20d1341be75dd4f47fbd0",
        "gas": "0x12d3c",
        "value": "0x0",
        "input": "0x01d5062a000000000000000000000000a1dda4d6e2838f68cc2b945f291ad1c5da032ce5000000000000000000000000000000000000000000000000000000000000000000000000000000000000000000000000000000000000000000000000000000c0000000000000000000000000000000000000000000000000000000000000000000000000000000000000000000000000000000000000000000000000000003ec000000000000000000000000000000000000000000000000000000000000000000000000000000000000000000000000000000000000000000000000000000247a1ff20d0000000000000000000000002ed35991d466e8114d49bda6f602c3795305006d00000000000000000000000000000000000000000000000000000000",
        "nonce": "0x33",
        "chainId": "0x2105"
      },
      "additionalContracts": [],
      "isFixedGasLimit": false
    },
    {
      "hash": "0xe1ac3cee89d99f4ec0e5d52207b89e13d74ebbc97fc506f605f73f1b9e1ccdaf",
      "transactionType": "CALL",
      "contractName": "YieldSeekerAdminTimelock",
      "contractAddress": "0x4e5b054109d9705c39e20d1341be75dd4f47fbd0",
      "function": "execute(address,uint256,bytes,bytes32,bytes32)",
      "arguments": [
        "0xA1DdA4d6e2838f68CC2B945F291Ad1C5Da032ce5",
        "0",
        "0x7a1ff20d0000000000000000000000002ed35991d466e8114d49bda6f602c3795305006d",
        "0x0000000000000000000000000000000000000000000000000000000000000000",
        "0x00000000000000000000000000000000000000000000000000000000000003ec"
      ],
      "transaction": {
        "from": "0xce11d6fb4f1e006e5a348230449dc387fde850cc",
        "to": "0x4e5b054109d9705c39e20d1341be75dd4f47fbd0",
        "gas": "0x166e5",
        "value": "0x0",
        "input": "0x134008d3000000000000000000000000a1dda4d6e2838f68cc2b945f291ad1c5da032ce5000000000000000000000000000000000000000000000000000000000000000000000000000000000000000000000000000000000000000000000000000000a0000000000000000000000000000000000000000000000000000000000000000000000000000000000000000000000000000000000000000000000000000003ec00000000000000000000000000000000000000000000000000000000000000247a1ff20d0000000000000000000000002ed35991d466e8114d49bda6f602c3795305006d00000000000000000000000000000000000000000000000000000000",
        "nonce": "0x34",
        "chainId": "0x2105"
      },
      "additionalContracts": [],
      "isFixedGasLimit": false
    }
  ],
  "receipts": [
    {
      "status": "0x1",
      "cumulativeGasUsed": "0x21d3e87",
      "logs": [
        {
          "address": "0x4e5b054109d9705c39e20d1341be75dd4f47fbd0",
          "topics": [
            "0x2f8788117e7eff1d82e926ec794901d17c78024a50270940304540a733656f0d",
            "0x0000000000000000000000000000000000000000000000000000000000000000",
            "0x0000000000000000000000004e5b054109d9705c39e20d1341be75dd4f47fbd0",
            "0x0000000000000000000000004e59b44847b379578588920ca78fbf26c0b4956c"
          ],
          "data": "0x",
          "blockHash": "0x7e1c21486a29a9605294ecc2818d4d2c709eeaa4b2c5b05ad36a5029b8457373",
          "blockNumber": "0x25c0eaf",
          "blockTimestamp": "0x69427a41",
          "transactionHash": "0x2344b4d12aa6a33108aff28a67b153be17ed2d8b3c892d6c5644ef5bc76a56b1",
          "transactionIndex": "0x10d",
          "logIndex": "0x171",
          "removed": false
        },
        {
          "address": "0x4e5b054109d9705c39e20d1341be75dd4f47fbd0",
          "topics": [
            "0x2f8788117e7eff1d82e926ec794901d17c78024a50270940304540a733656f0d",
            "0xb09aa5aeb3702cfd50b6b62bc4532604938f21248a27a1d5ca736082b6819cc1",
            "0x000000000000000000000000ce11d6fb4f1e006e5a348230449dc387fde850cc",
            "0x0000000000000000000000004e59b44847b379578588920ca78fbf26c0b4956c"
          ],
          "data": "0x",
          "blockHash": "0x7e1c21486a29a9605294ecc2818d4d2c709eeaa4b2c5b05ad36a5029b8457373",
          "blockNumber": "0x25c0eaf",
          "blockTimestamp": "0x69427a41",
          "transactionHash": "0x2344b4d12aa6a33108aff28a67b153be17ed2d8b3c892d6c5644ef5bc76a56b1",
          "transactionIndex": "0x10d",
          "logIndex": "0x172",
          "removed": false
        },
        {
          "address": "0x4e5b054109d9705c39e20d1341be75dd4f47fbd0",
          "topics": [
            "0x2f8788117e7eff1d82e926ec794901d17c78024a50270940304540a733656f0d",
            "0xfd643c72710c63c0180259aba6b2d05451e3591a24e58b62239378085726f783",
            "0x000000000000000000000000ce11d6fb4f1e006e5a348230449dc387fde850cc",
            "0x0000000000000000000000004e59b44847b379578588920ca78fbf26c0b4956c"
          ],
          "data": "0x",
          "blockHash": "0x7e1c21486a29a9605294ecc2818d4d2c709eeaa4b2c5b05ad36a5029b8457373",
          "blockNumber": "0x25c0eaf",
          "blockTimestamp": "0x69427a41",
          "transactionHash": "0x2344b4d12aa6a33108aff28a67b153be17ed2d8b3c892d6c5644ef5bc76a56b1",
          "transactionIndex": "0x10d",
          "logIndex": "0x173",
          "removed": false
        },
        {
          "address": "0x4e5b054109d9705c39e20d1341be75dd4f47fbd0",
          "topics": [
            "0x2f8788117e7eff1d82e926ec794901d17c78024a50270940304540a733656f0d",
            "0xd8aa0f3194971a2a116679f7c2090f6939c8d4e01a2a8d7e41d55e5351469e63",
            "0x000000000000000000000000ce11d6fb4f1e006e5a348230449dc387fde850cc",
            "0x0000000000000000000000004e59b44847b379578588920ca78fbf26c0b4956c"
          ],
          "data": "0x",
          "blockHash": "0x7e1c21486a29a9605294ecc2818d4d2c709eeaa4b2c5b05ad36a5029b8457373",
          "blockNumber": "0x25c0eaf",
          "blockTimestamp": "0x69427a41",
          "transactionHash": "0x2344b4d12aa6a33108aff28a67b153be17ed2d8b3c892d6c5644ef5bc76a56b1",
          "transactionIndex": "0x10d",
          "logIndex": "0x174",
          "removed": false
        },
        {
          "address": "0x4e5b054109d9705c39e20d1341be75dd4f47fbd0",
          "topics": [
            "0x11c24f4ead16507c69ac467fbd5e4eed5fb5c699626d2cc6d66421df253886d5"
          ],
          "data": "0x00000000000000000000000000000000000000000000000000000000000000000000000000000000000000000000000000000000000000000000000000000000",
          "blockHash": "0x7e1c21486a29a9605294ecc2818d4d2c709eeaa4b2c5b05ad36a5029b8457373",
          "blockNumber": "0x25c0eaf",
          "blockTimestamp": "0x69427a41",
          "transactionHash": "0x2344b4d12aa6a33108aff28a67b153be17ed2d8b3c892d6c5644ef5bc76a56b1",
          "transactionIndex": "0x10d",
          "logIndex": "0x175",
          "removed": false
        }
      ],
      "logsBloom": "0x00000004000000000000000000000000020000000000080000000000000000000000000000000000000000000001000000000000000000000200000010200000000000000000000000000010000000008000000000000000000000000000000000000000020800000000020000000800000000000000000000020000000000000000000000000000000000000000000000000000001000080000008000000000000000000021000000000000000000080000000000000000001000000000000100000000000000004000000000000000000000000000000100000100200020000000000000000000000000000000000080000004000000010000000000000000",
      "type": "0x2",
      "transactionHash": "0x2344b4d12aa6a33108aff28a67b153be17ed2d8b3c892d6c5644ef5bc76a56b1",
      "transactionIndex": "0x10d",
      "blockHash": "0x7e1c21486a29a9605294ecc2818d4d2c709eeaa4b2c5b05ad36a5029b8457373",
      "blockNumber": "0x25c0eaf",
      "gasUsed": "0x1428da",
      "effectiveGasPrice": "0x77a46",
      "blobGasUsed": "0x125088",
      "from": "0xce11d6fb4f1e006e5a348230449dc387fde850cc",
      "to": "0x4e59b44847b379578588920ca78fbf26c0b4956c",
      "contractAddress": "0x4e5b054109d9705c39e20d1341be75dd4f47fbd0",
      "daFootprintGasScalar": "0x138",
      "l1BaseFeeScalar": "0x8dd",
      "l1BlobBaseFee": "0x1c874f",
      "l1BlobBaseFeeScalar": "0x101c12",
      "l1Fee": "0x2d273f965",
      "l1GasPrice": "0x1ee9168",
      "l1GasUsed": "0xf072"
    },
    {
      "status": "0x1",
      "cumulativeGasUsed": "0x22ab17d",
      "logs": [
        {
          "address": "0x18c8a28e105a7262383cebe35d8a265f864750c3",
          "topics": [
            "0x2f8788117e7eff1d82e926ec794901d17c78024a50270940304540a733656f0d",
            "0x0000000000000000000000000000000000000000000000000000000000000000",
            "0x0000000000000000000000004e5b054109d9705c39e20d1341be75dd4f47fbd0",
            "0x0000000000000000000000004e59b44847b379578588920ca78fbf26c0b4956c"
          ],
          "data": "0x",
          "blockHash": "0x7e1c21486a29a9605294ecc2818d4d2c709eeaa4b2c5b05ad36a5029b8457373",
          "blockNumber": "0x25c0eaf",
          "blockTimestamp": "0x69427a41",
          "transactionHash": "0xef223e59a6b895bd8df15fb9cc112f041cea4f0c44f222bf4f2b2fcc9b4497c2",
          "transactionIndex": "0x10e",
          "logIndex": "0x176",
          "removed": false
        },
        {
          "address": "0x18c8a28e105a7262383cebe35d8a265f864750c3",
          "topics": [
            "0x2f8788117e7eff1d82e926ec794901d17c78024a50270940304540a733656f0d",
            "0x14d61fe1ff734deff390e298beb5f0b1c1f31c62bebead0e7849958f1614082a",
            "0x0000000000000000000000002ed35991d466e8114d49bda6f602c3795305006d",
            "0x0000000000000000000000004e59b44847b379578588920ca78fbf26c0b4956c"
          ],
          "data": "0x",
          "blockHash": "0x7e1c21486a29a9605294ecc2818d4d2c709eeaa4b2c5b05ad36a5029b8457373",
          "blockNumber": "0x25c0eaf",
          "blockTimestamp": "0x69427a41",
          "transactionHash": "0xef223e59a6b895bd8df15fb9cc112f041cea4f0c44f222bf4f2b2fcc9b4497c2",
          "transactionIndex": "0x10e",
          "logIndex": "0x177",
          "removed": false
        }
      ],
      "logsBloom": "0x00000004000000000000000000000000000000400800000000000000000000000000000000000000000000000000000000000000000000000000000000000000000000000000000000000000020010000000000000000000000000000000000000000000020000000000000000000800000000000000000000040000000000000000000000000000000000000000000000040000001000008000000000000000000000000001000000000000000000000000000000000000001000000000000100000000000000000000000000000000000000000000000100000200100020000000000000000000000000000000000080000004000000010000000000000000",
      "type": "0x2",
      "transactionHash": "0xef223e59a6b895bd8df15fb9cc112f041cea4f0c44f222bf4f2b2fcc9b4497c2",
      "transactionIndex": "0x10e",
      "blockHash": "0x7e1c21486a29a9605294ecc2818d4d2c709eeaa4b2c5b05ad36a5029b8457373",
      "blockNumber": "0x25c0eaf",
      "gasUsed": "0xd72f6",
      "effectiveGasPrice": "0x77a46",
      "blobGasUsed": "0xca3c8",
      "from": "0xce11d6fb4f1e006e5a348230449dc387fde850cc",
      "to": "0x4e59b44847b379578588920ca78fbf26c0b4956c",
      "contractAddress": "0x18c8a28e105a7262383cebe35d8a265f864750c3",
      "daFootprintGasScalar": "0x138",
      "l1BaseFeeScalar": "0x8dd",
      "l1BlobBaseFee": "0x1c874f",
      "l1BlobBaseFeeScalar": "0x101c12",
      "l1Fee": "0x1f2c331ee",
      "l1GasPrice": "0x1ee9168",
      "l1GasUsed": "0xa5ff"
    },
    {
      "status": "0x1",
      "cumulativeGasUsed": "0x2454794",
      "logs": [
        {
          "address": "0xfa8104be549edcb99224ec77133d79550cf27eec",
          "topics": [
            "0xc7f505b2f371ae2175ee4913f4499e1f2633a7b5936321eed1cdaeb6115181d2"
          ],
          "data": "0x000000000000000000000000000000000000000000000000ffffffffffffffff",
          "blockHash": "0x7e1c21486a29a9605294ecc2818d4d2c709eeaa4b2c5b05ad36a5029b8457373",
          "blockNumber": "0x25c0eaf",
          "blockTimestamp": "0x69427a41",
          "transactionHash": "0xe1ac3cee89d99f4ec0e5d52207b89e13d74ebbc97fc506f605f73f1b9e1ccdaf",
          "transactionIndex": "0x10f",
          "logIndex": "0x178",
          "removed": false
        }
      ],
      "logsBloom": "0x00000000000000000000000000000000000000000000000000000000000000000000000000000000000000000000000000000000000000000000000000000000000000000000000000000000000000000000000000000000000000000000000000000000000000000000000000000000000000000000000000000000000000000000000000000000000800000000000000000000000080000000000000000000000000000000000000000000000000000000000000000000000000000000000000008020000200000000000000000000000000000004000000000000000000000000000000000000000000000000000000000000000000000000000000000000",
      "type": "0x2",
      "transactionHash": "0xe1ac3cee89d99f4ec0e5d52207b89e13d74ebbc97fc506f605f73f1b9e1ccdaf",
      "transactionIndex": "0x10f",
      "blockHash": "0x7e1c21486a29a9605294ecc2818d4d2c709eeaa4b2c5b05ad36a5029b8457373",
      "blockNumber": "0x25c0eaf",
      "gasUsed": "0x1a9617",
      "effectiveGasPrice": "0x77a46",
      "blobGasUsed": "0x159be8",
      "from": "0xce11d6fb4f1e006e5a348230449dc387fde850cc",
      "to": "0x4e59b44847b379578588920ca78fbf26c0b4956c",
      "contractAddress": "0xfa8104be549edcb99224ec77133d79550cf27eec",
      "daFootprintGasScalar": "0x138",
      "l1BaseFeeScalar": "0x8dd",
      "l1BlobBaseFee": "0x1c874f",
      "l1BlobBaseFeeScalar": "0x101c12",
      "l1Fee": "0x3548530f8",
      "l1GasPrice": "0x1ee9168",
      "l1GasUsed": "0x11bbc"
    },
    {
      "status": "0x1",
      "cumulativeGasUsed": "0x2534c8f",
      "logs": [
        {
          "address": "0xa1dda4d6e2838f68cc2b945f291ad1c5da032ce5",
          "topics": [
            "0x2f8788117e7eff1d82e926ec794901d17c78024a50270940304540a733656f0d",
            "0x0000000000000000000000000000000000000000000000000000000000000000",
            "0x0000000000000000000000004e5b054109d9705c39e20d1341be75dd4f47fbd0",
            "0x0000000000000000000000004e59b44847b379578588920ca78fbf26c0b4956c"
          ],
          "data": "0x",
          "blockHash": "0x7e1c21486a29a9605294ecc2818d4d2c709eeaa4b2c5b05ad36a5029b8457373",
          "blockNumber": "0x25c0eaf",
          "blockTimestamp": "0x69427a41",
          "transactionHash": "0x7d81f9a74971d98318fd1d46fae88501be9512359974570685ffe1f2a289a032",
          "transactionIndex": "0x110",
          "logIndex": "0x179",
          "removed": false
        },
        {
          "address": "0xa1dda4d6e2838f68cc2b945f291ad1c5da032ce5",
          "topics": [
            "0x2f8788117e7eff1d82e926ec794901d17c78024a50270940304540a733656f0d",
            "0xbb28eb1a0cfabcecf96003fab466159bc2e051e49d79baf049890044e9072440",
            "0x0000000000000000000000004e5b054109d9705c39e20d1341be75dd4f47fbd0",
            "0x0000000000000000000000004e59b44847b379578588920ca78fbf26c0b4956c"
          ],
          "data": "0x",
          "blockHash": "0x7e1c21486a29a9605294ecc2818d4d2c709eeaa4b2c5b05ad36a5029b8457373",
          "blockNumber": "0x25c0eaf",
          "blockTimestamp": "0x69427a41",
          "transactionHash": "0x7d81f9a74971d98318fd1d46fae88501be9512359974570685ffe1f2a289a032",
          "transactionIndex": "0x110",
          "logIndex": "0x17a",
          "removed": false
        },
        {
          "address": "0xa1dda4d6e2838f68cc2b945f291ad1c5da032ce5",
          "topics": [
            "0x2f8788117e7eff1d82e926ec794901d17c78024a50270940304540a733656f0d",
            "0xbf233dd2aafeb4d50879c4aa5c81e96d92f6e6945c906a58f9f2d1c1631b4b26",
            "0x000000000000000000000000ce11d6fb4f1e006e5a348230449dc387fde850cc",
            "0x0000000000000000000000004e59b44847b379578588920ca78fbf26c0b4956c"
          ],
          "data": "0x",
          "blockHash": "0x7e1c21486a29a9605294ecc2818d4d2c709eeaa4b2c5b05ad36a5029b8457373",
          "blockNumber": "0x25c0eaf",
          "blockTimestamp": "0x69427a41",
          "transactionHash": "0x7d81f9a74971d98318fd1d46fae88501be9512359974570685ffe1f2a289a032",
          "transactionIndex": "0x110",
          "logIndex": "0x17b",
          "removed": false
        }
      ],
      "logsBloom": "0x00008004000000000000000000000000000000000000080000000000000000000000000000000000000000000040010008000000000000000000000000000010000000000000000000000000080000000000000000000000000000000010000000000000020000000000028000000800000000000000000000000000000000000000000000000000000000000000000000000000001000000000000000000000000004000001000000000000000000080000000000000000001000000000000100000000000000000000000000000000000000000000000100000000000020000000000000000000000000000000000080000004000000010000000000000000",
      "type": "0x2",
      "transactionHash": "0x7d81f9a74971d98318fd1d46fae88501be9512359974570685ffe1f2a289a032",
      "transactionIndex": "0x110",
      "blockHash": "0x7e1c21486a29a9605294ecc2818d4d2c709eeaa4b2c5b05ad36a5029b8457373",
      "blockNumber": "0x25c0eaf",
      "gasUsed": "0xe04fb",
      "effectiveGasPrice": "0x77a46",
      "blobGasUsed": "0xb92c8",
      "from": "0xce11d6fb4f1e006e5a348230449dc387fde850cc",
      "to": "0x4e59b44847b379578588920ca78fbf26c0b4956c",
      "contractAddress": "0xa1dda4d6e2838f68cc2b945f291ad1c5da032ce5",
      "daFootprintGasScalar": "0x138",
      "l1BaseFeeScalar": "0x8dd",
      "l1BlobBaseFee": "0x1c874f",
      "l1BlobBaseFeeScalar": "0x101c12",
      "l1Fee": "0x1c8a9d5bd",
      "l1GasPrice": "0x1ee9168",
      "l1GasUsed": "0x97fc"
    },
    {
      "status": "0x1",
      "cumulativeGasUsed": "0x2586779",
      "logs": [],
      "logsBloom": "0x00000000000000000000000000000000000000000000000000000000000000000000000000000000000000000000000000000000000000000000000000000000000000000000000000000000000000000000000000000000000000000000000000000000000000000000000000000000000000000000000000000000000000000000000000000000000000000000000000000000000000000000000000000000000000000000000000000000000000000000000000000000000000000000000000000000000000000000000000000000000000000000000000000000000000000000000000000000000000000000000000000000000000000000000000000000",
      "type": "0x2",
      "transactionHash": "0xe1a6cfa0b0ec56a00a9ce67231718766b671ab14aa272f1ea2fe3ce30114b553",
      "transactionIndex": "0x111",
      "blockHash": "0x7e1c21486a29a9605294ecc2818d4d2c709eeaa4b2c5b05ad36a5029b8457373",
      "blockNumber": "0x25c0eaf",
      "gasUsed": "0x51aea",
      "effectiveGasPrice": "0x77a46",
      "blobGasUsed": "0x47c10",
      "from": "0xce11d6fb4f1e006e5a348230449dc387fde850cc",
      "to": "0x4e59b44847b379578588920ca78fbf26c0b4956c",
      "contractAddress": "0xcf0cb704125dea26d327a9f729b1aaf33b487c85",
      "daFootprintGasScalar": "0x138",
      "l1BaseFeeScalar": "0x8dd",
      "l1BlobBaseFee": "0x1c874f",
      "l1BlobBaseFeeScalar": "0x101c12",
      "l1Fee": "0xb10cdc69",
      "l1GasPrice": "0x1ee9168",
      "l1GasUsed": "0x3aec"
    },
    {
      "status": "0x1",
      "cumulativeGasUsed": "0x25cd701",
      "logs": [],
      "logsBloom": "0x00000000000000000000000000000000000000000000000000000000000000000000000000000000000000000000000000000000000000000000000000000000000000000000000000000000000000000000000000000000000000000000000000000000000000000000000000000000000000000000000000000000000000000000000000000000000000000000000000000000000000000000000000000000000000000000000000000000000000000000000000000000000000000000000000000000000000000000000000000000000000000000000000000000000000000000000000000000000000000000000000000000000000000000000000000000",
      "type": "0x2",
      "transactionHash": "0x47162fb1cdf402c729bd9a6ab26f2441bc2679bfc450a1f55802d1bc3c2b8001",
      "transactionIndex": "0x112",
      "blockHash": "0x7e1c21486a29a9605294ecc2818d4d2c709eeaa4b2c5b05ad36a5029b8457373",
      "blockNumber": "0x25c0eaf",
      "gasUsed": "0x46f88",
      "effectiveGasPrice": "0x77a46",
      "blobGasUsed": "0x427f8",
      "from": "0xce11d6fb4f1e006e5a348230449dc387fde850cc",
      "to": "0x4e59b44847b379578588920ca78fbf26c0b4956c",
      "contractAddress": "0x4351cd71eb607f5f35a0b406ad81f6b27a2cfc63",
      "daFootprintGasScalar": "0x138",
      "l1BaseFeeScalar": "0x8dd",
      "l1BlobBaseFee": "0x1c874f",
      "l1BlobBaseFeeScalar": "0x101c12",
      "l1Fee": "0xa40318b2",
      "l1GasPrice": "0x1ee9168",
      "l1GasUsed": "0x3696"
    },
    {
      "status": "0x1",
      "cumulativeGasUsed": "0x25db118",
      "logs": [
        {
          "address": "0x4e5b054109d9705c39e20d1341be75dd4f47fbd0",
          "topics": [
            "0x4cf4410cc57040e44862ef0f45f3dd5a5e02db8eb8add648d4b0e236f1d07dca",
            "0x7f44c4dc1799a1fe21f6ad538ad34a11464cd20268879735f132ab3cc13ace03",
            "0x0000000000000000000000000000000000000000000000000000000000000000"
          ],
          "data": "0x00000000000000000000000018c8a28e105a7262383cebe35d8a265f864750c3000000000000000000000000000000000000000000000000000000000000000000000000000000000000000000000000000000000000000000000000000000a0000000000000000000000000000000000000000000000000000000000000000000000000000000000000000000000000000000000000000000000000000000000000000000000000000000000000000000000000000000000000000000000024c68e00fb000000000000000000000000fa8104be549edcb99224ec77133d79550cf27eec00000000000000000000000000000000000000000000000000000000",
          "blockHash": "0x7e1c21486a29a9605294ecc2818d4d2c709eeaa4b2c5b05ad36a5029b8457373",
          "blockNumber": "0x25c0eaf",
          "blockTimestamp": "0x69427a41",
          "transactionHash": "0x39e0bd66af5743d091ee145c810fbcacb38ea08f83d2b2ef1574175c31e1a519",
          "transactionIndex": "0x113",
          "logIndex": "0x17c",
          "removed": false
        },
        {
          "address": "0x4e5b054109d9705c39e20d1341be75dd4f47fbd0",
          "topics": [
            "0x20fda5fd27a1ea7bf5b9567f143ac5470bb059374a27e8f67cb44f946f6d0387",
            "0x7f44c4dc1799a1fe21f6ad538ad34a11464cd20268879735f132ab3cc13ace03"
          ],
          "data": "0x00000000000000000000000000000000000000000000000000000000000003e8",
          "blockHash": "0x7e1c21486a29a9605294ecc2818d4d2c709eeaa4b2c5b05ad36a5029b8457373",
          "blockNumber": "0x25c0eaf",
          "blockTimestamp": "0x69427a41",
          "transactionHash": "0x39e0bd66af5743d091ee145c810fbcacb38ea08f83d2b2ef1574175c31e1a519",
          "transactionIndex": "0x113",
          "logIndex": "0x17d",
          "removed": false
        }
      ],
      "logsBloom": "0x00000000000000000000000040000000000000000000000000000000000000000000000000000000000000000000000100000000800000000000000000000000000000000000000000000000000000008000000000000008000000000000000000000000020800000000000000000800000080000000000000000000000000000000000000000000080000080000000000000000000000000000008000000000000000000000000000000000000000000000000000000000000000000000000000000000000000000000000000000000000000008000400000000000000020000000000000000000000000000000000000000000000000000000000000000000",
      "type": "0x2",
      "transactionHash": "0x39e0bd66af5743d091ee145c810fbcacb38ea08f83d2b2ef1574175c31e1a519",
      "transactionIndex": "0x113",
      "blockHash": "0x7e1c21486a29a9605294ecc2818d4d2c709eeaa4b2c5b05ad36a5029b8457373",
      "blockNumber": "0x25c0eaf",
      "gasUsed": "0xda17",
      "effectiveGasPrice": "0x77a46",
      "blobGasUsed": "0x9c00",
      "from": "0xce11d6fb4f1e006e5a348230449dc387fde850cc",
      "to": "0x4e5b054109d9705c39e20d1341be75dd4f47fbd0",
      "contractAddress": null,
      "daFootprintGasScalar": "0x138",
      "l1BaseFeeScalar": "0x8dd",
      "l1BlobBaseFee": "0x1c874f",
      "l1BlobBaseFeeScalar": "0x101c12",
      "l1Fee": "0x18349c07",
      "l1GasPrice": "0x1ee9168",
      "l1GasUsed": "0x80e"
    },
    {
      "status": "0x1",
      "cumulativeGasUsed": "0x25eb32a",
      "logs": [
        {
          "address": "0x18c8a28e105a7262383cebe35d8a265f864750c3",
          "topics": [
            "0xab64f92ab780ecbf4f3866f57cee465ff36c89450dcce20237ca7a8d81fb7d13",
            "0x000000000000000000000000fa8104be549edcb99224ec77133d79550cf27eec"
          ],
          "data": "0x",
          "blockHash": "0x7e1c21486a29a9605294ecc2818d4d2c709eeaa4b2c5b05ad36a5029b8457373",
          "blockNumber": "0x25c0eaf",
          "blockTimestamp": "0x69427a41",
          "transactionHash": "0x7dc7dcd050ea40a3c5a593f1d81a10b2a0b7066898bfc76a4a4499e4ff19d1d0",
          "transactionIndex": "0x114",
          "logIndex": "0x17e",
          "removed": false
        },
        {
          "address": "0x4e5b054109d9705c39e20d1341be75dd4f47fbd0",
          "topics": [
            "0xc2617efa69bab66782fa219543714338489c4e9e178271560a91b82c3f612b58",
            "0x7f44c4dc1799a1fe21f6ad538ad34a11464cd20268879735f132ab3cc13ace03",
            "0x0000000000000000000000000000000000000000000000000000000000000000"
          ],
          "data": "0x00000000000000000000000018c8a28e105a7262383cebe35d8a265f864750c3000000000000000000000000000000000000000000000000000000000000000000000000000000000000000000000000000000000000000000000000000000600000000000000000000000000000000000000000000000000000000000000024c68e00fb000000000000000000000000fa8104be549edcb99224ec77133d79550cf27eec00000000000000000000000000000000000000000000000000000000",
          "blockHash": "0x7e1c21486a29a9605294ecc2818d4d2c709eeaa4b2c5b05ad36a5029b8457373",
          "blockNumber": "0x25c0eaf",
          "blockTimestamp": "0x69427a41",
          "transactionHash": "0x7dc7dcd050ea40a3c5a593f1d81a10b2a0b7066898bfc76a4a4499e4ff19d1d0",
          "transactionIndex": "0x114",
          "logIndex": "0x17f",
          "removed": false
        }
      ],
      "logsBloom": "0x00000000000000000000000000000000000000400000000000000000000000000000000000000000000000000000000000000000000800000000000000000000000000000000000000000000000000008000000000000000000000000000002000000000020800000000000000000800000000000000000000000000000000000200000000000000080000080000000000040000000000000000008000000000000000000000000000000000000020000000000000000000200000000000000000000020000000080000000000000000000000008000000000000200000820000000000000000000000004000000000000000000000000000000000000000000",
      "type": "0x2",
      "transactionHash": "0x7dc7dcd050ea40a3c5a593f1d81a10b2a0b7066898bfc76a4a4499e4ff19d1d0",
      "transactionIndex": "0x114",
      "blockHash": "0x7e1c21486a29a9605294ecc2818d4d2c709eeaa4b2c5b05ad36a5029b8457373",
      "blockNumber": "0x25c0eaf",
      "gasUsed": "0x10212",
      "effectiveGasPrice": "0x77a46",
      "blobGasUsed": "0x9c00",
      "from": "0xce11d6fb4f1e006e5a348230449dc387fde850cc",
      "to": "0x4e5b054109d9705c39e20d1341be75dd4f47fbd0",
      "contractAddress": null,
      "daFootprintGasScalar": "0x138",
      "l1BaseFeeScalar": "0x8dd",
      "l1BlobBaseFee": "0x1c874f",
      "l1BlobBaseFeeScalar": "0x101c12",
      "l1Fee": "0x18349c07",
      "l1GasPrice": "0x1ee9168",
      "l1GasUsed": "0x80e"
    },
    {
      "status": "0x1",
      "cumulativeGasUsed": "0x25f8d4d",
      "logs": [
        {
          "address": "0x4e5b054109d9705c39e20d1341be75dd4f47fbd0",
          "topics": [
            "0x4cf4410cc57040e44862ef0f45f3dd5a5e02db8eb8add648d4b0e236f1d07dca",
            "0x650d8cfb4b9d00090316504d28acdbcf3f4e9ac439e41091ed65c976dec309d5",
            "0x0000000000000000000000000000000000000000000000000000000000000000"
          ],
          "data": "0x00000000000000000000000018c8a28e105a7262383cebe35d8a265f864750c3000000000000000000000000000000000000000000000000000000000000000000000000000000000000000000000000000000000000000000000000000000a00000000000000000000000000000000000000000000000000000000000000000000000000000000000000000000000000000000000000000000000000000000000000000000000000000000000000000000000000000000000000000000000245b34b823000000000000000000000000a1dda4d6e2838f68cc2b945f291ad1c5da032ce500000000000000000000000000000000000000000000000000000000",
          "blockHash": "0x7e1c21486a29a9605294ecc2818d4d2c709eeaa4b2c5b05ad36a5029b8457373",
          "blockNumber": "0x25c0eaf",
          "blockTimestamp": "0x69427a41",
          "transactionHash": "0x1b07d01d17813ff044afbd6230e7ed027fe7189d7dd4de07b42e6050ae5cb23f",
          "transactionIndex": "0x115",
          "logIndex": "0x180",
          "removed": false
        },
        {
          "address": "0x4e5b054109d9705c39e20d1341be75dd4f47fbd0",
          "topics": [
            "0x20fda5fd27a1ea7bf5b9567f143ac5470bb059374a27e8f67cb44f946f6d0387",
            "0x650d8cfb4b9d00090316504d28acdbcf3f4e9ac439e41091ed65c976dec309d5"
          ],
          "data": "0x00000000000000000000000000000000000000000000000000000000000003e9",
          "blockHash": "0x7e1c21486a29a9605294ecc2818d4d2c709eeaa4b2c5b05ad36a5029b8457373",
          "blockNumber": "0x25c0eaf",
          "blockTimestamp": "0x69427a41",
          "transactionHash": "0x1b07d01d17813ff044afbd6230e7ed027fe7189d7dd4de07b42e6050ae5cb23f",
          "transactionIndex": "0x115",
          "logIndex": "0x181",
          "removed": false
        }
      ],
      "logsBloom": "0x00000000000000000000000040000000000000000000000000000000000000000000000000000000000000000000000100000000800000000000000000000000000000000000000000000000000000008000000000000008000000000000000000000000020800000000000000000800000080000000010000000000000000000000000000000000000000000000000000000000000000000000008000000000000000000000000000000000000000000000000000000000000000000000000000000000000000000000000000000000000000000000400000000000000020000000000000000020000000000000080000000000000000000000000000000000",
      "type": "0x2",
      "transactionHash": "0x1b07d01d17813ff044afbd6230e7ed027fe7189d7dd4de07b42e6050ae5cb23f",
      "transactionIndex": "0x115",
      "blockHash": "0x7e1c21486a29a9605294ecc2818d4d2c709eeaa4b2c5b05ad36a5029b8457373",
      "blockNumber": "0x25c0eaf",
      "gasUsed": "0xda23",
      "effectiveGasPrice": "0x77a46",
      "blobGasUsed": "0x9c00",
      "from": "0xce11d6fb4f1e006e5a348230449dc387fde850cc",
      "to": "0x4e5b054109d9705c39e20d1341be75dd4f47fbd0",
      "contractAddress": null,
      "daFootprintGasScalar": "0x138",
      "l1BaseFeeScalar": "0x8dd",
      "l1BlobBaseFee": "0x1c874f",
      "l1BlobBaseFeeScalar": "0x101c12",
      "l1Fee": "0x18349c07",
      "l1GasPrice": "0x1ee9168",
      "l1GasUsed": "0x80e"
    },
    {
      "status": "0x1",
      "cumulativeGasUsed": "0x26093da",
      "logs": [
        {
          "address": "0x18c8a28e105a7262383cebe35d8a265f864750c3",
          "topics": [
            "0x482b97c53e48ffa324a976e2738053e9aff6eee04d8aac63b10e19411d869b82",
            "0x0000000000000000000000000000000000000000000000000000000000000000",
            "0x000000000000000000000000a1dda4d6e2838f68cc2b945f291ad1c5da032ce5"
          ],
          "data": "0x",
          "blockHash": "0x7e1c21486a29a9605294ecc2818d4d2c709eeaa4b2c5b05ad36a5029b8457373",
          "blockNumber": "0x25c0eaf",
          "blockTimestamp": "0x69427a41",
          "transactionHash": "0xcd6d9bcb7a57a30a03028a5cd92ef63c115e9acd6fcd36940f5fcd695e4954d0",
          "transactionIndex": "0x116",
          "logIndex": "0x182",
          "removed": false
        },
        {
          "address": "0x4e5b054109d9705c39e20d1341be75dd4f47fbd0",
          "topics": [
            "0xc2617efa69bab66782fa219543714338489c4e9e178271560a91b82c3f612b58",
            "0x650d8cfb4b9d00090316504d28acdbcf3f4e9ac439e41091ed65c976dec309d5",
            "0x0000000000000000000000000000000000000000000000000000000000000000"
          ],
          "data": "0x00000000000000000000000018c8a28e105a7262383cebe35d8a265f864750c30000000000000000000000000000000000000000000000000000000000000000000000000000000000000000000000000000000000000000000000000000006000000000000000000000000000000000000000000000000000000000000000245b34b823000000000000000000000000a1dda4d6e2838f68cc2b945f291ad1c5da032ce500000000000000000000000000000000000000000000000000000000",
          "blockHash": "0x7e1c21486a29a9605294ecc2818d4d2c709eeaa4b2c5b05ad36a5029b8457373",
          "blockNumber": "0x25c0eaf",
          "blockTimestamp": "0x69427a41",
          "transactionHash": "0xcd6d9bcb7a57a30a03028a5cd92ef63c115e9acd6fcd36940f5fcd695e4954d0",
          "transactionIndex": "0x116",
          "logIndex": "0x183",
          "removed": false
        }
      ],
      "logsBloom": "0x00000000000000000000000000000000000000400000000000000000400000000000000000000000000000000000000000000000000800010000000000000000000000000000000000000000000000008000000000000000020000000000002000000000020800000000000000000800000000000000010000000000000000000000000000000000000000000000000040040000000000000000008800000000000000000000000000000000000000000000000000000000000000000000000000000000000000080000000000000000000000000000000000000200000020000000000000000020800000000000080000000000000000000000000000000000",
      "type": "0x2",
      "transactionHash": "0xcd6d9bcb7a57a30a03028a5cd92ef63c115e9acd6fcd36940f5fcd695e4954d0",
      "transactionIndex": "0x116",
      "blockHash": "0x7e1c21486a29a9605294ecc2818d4d2c709eeaa4b2c5b05ad36a5029b8457373",
      "blockNumber": "0x25c0eaf",
      "gasUsed": "0x1068d",
      "effectiveGasPrice": "0x77a46",
      "blobGasUsed": "0x9c00",
      "from": "0xce11d6fb4f1e006e5a348230449dc387fde850cc",
      "to": "0x4e5b054109d9705c39e20d1341be75dd4f47fbd0",
      "contractAddress": null,
      "daFootprintGasScalar": "0x138",
      "l1BaseFeeScalar": "0x8dd",
      "l1BlobBaseFee": "0x1c874f",
      "l1BlobBaseFeeScalar": "0x101c12",
      "l1Fee": "0x18349c07",
      "l1GasPrice": "0x1ee9168",
      "l1GasUsed": "0x80e"
    },
    {
      "status": "0x1",
      "cumulativeGasUsed": "0x2616dfd",
      "logs": [
        {
          "address": "0x4e5b054109d9705c39e20d1341be75dd4f47fbd0",
          "topics": [
            "0x4cf4410cc57040e44862ef0f45f3dd5a5e02db8eb8add648d4b0e236f1d07dca",
            "0x9e1cb124f4c121f4e1f831acecf1158b506a55699fa30abe65c71f14e1f175cb",
            "0x0000000000000000000000000000000000000000000000000000000000000000"
          ],
          "data": "0x000000000000000000000000a1dda4d6e2838f68cc2b945f291ad1c5da032ce5000000000000000000000000000000000000000000000000000000000000000000000000000000000000000000000000000000000000000000000000000000a000000000000000000000000000000000000000000000000000000000000000000000000000000000000000000000000000000000000000000000000000000000000000000000000000000000000000000000000000000000000000000000002422f2caf1000000000000000000000000cf0cb704125dea26d327a9f729b1aaf33b487c8500000000000000000000000000000000000000000000000000000000",
          "blockHash": "0x7e1c21486a29a9605294ecc2818d4d2c709eeaa4b2c5b05ad36a5029b8457373",
          "blockNumber": "0x25c0eaf",
          "blockTimestamp": "0x69427a41",
          "transactionHash": "0x0341e605e40f71c8a650e433d55d7e92c8fddda7b60e085e18e44a523769dc1f",
          "transactionIndex": "0x117",
          "logIndex": "0x184",
          "removed": false
        },
        {
          "address": "0x4e5b054109d9705c39e20d1341be75dd4f47fbd0",
          "topics": [
            "0x20fda5fd27a1ea7bf5b9567f143ac5470bb059374a27e8f67cb44f946f6d0387",
            "0x9e1cb124f4c121f4e1f831acecf1158b506a55699fa30abe65c71f14e1f175cb"
          ],
          "data": "0x00000000000000000000000000000000000000000000000000000000000003ea",
          "blockHash": "0x7e1c21486a29a9605294ecc2818d4d2c709eeaa4b2c5b05ad36a5029b8457373",
          "blockNumber": "0x25c0eaf",
          "blockTimestamp": "0x69427a41",
          "transactionHash": "0x0341e605e40f71c8a650e433d55d7e92c8fddda7b60e085e18e44a523769dc1f",
          "transactionIndex": "0x117",
          "logIndex": "0x185",
          "removed": false
        }
      ],
      "logsBloom": "0x00000000000000000000000040000000000000000000000000000000000000000000000000000000000000000000000100000000800000000000000000000000000000000000000000000000000000008000000000008008000000000000000000000000020800000000000000000800000080000000000000000000000000000000000000004000000000000000000000000000000000000000008000000000000000000000000000000000000000000000000000000000000000000000000000000000020000000000000000000000000000000000400000000000000020000000000000000000000000000000000000000000000000000000000000000000",
      "type": "0x2",
      "transactionHash": "0x0341e605e40f71c8a650e433d55d7e92c8fddda7b60e085e18e44a523769dc1f",
      "transactionIndex": "0x117",
      "blockHash": "0x7e1c21486a29a9605294ecc2818d4d2c709eeaa4b2c5b05ad36a5029b8457373",
      "blockNumber": "0x25c0eaf",
      "gasUsed": "0xda23",
      "effectiveGasPrice": "0x77a46",
      "blobGasUsed": "0x9c00",
      "from": "0xce11d6fb4f1e006e5a348230449dc387fde850cc",
      "to": "0x4e5b054109d9705c39e20d1341be75dd4f47fbd0",
      "contractAddress": null,
      "daFootprintGasScalar": "0x138",
      "l1BaseFeeScalar": "0x8dd",
      "l1BlobBaseFee": "0x1c874f",
      "l1BlobBaseFeeScalar": "0x101c12",
      "l1Fee": "0x18349c07",
      "l1GasPrice": "0x1ee9168",
      "l1GasUsed": "0x80e"
    },
    {
      "status": "0x1",
      "cumulativeGasUsed": "0x2626f99",
      "logs": [
        {
          "address": "0xa1dda4d6e2838f68cc2b945f291ad1c5da032ce5",
          "topics": [
            "0xa77e7c594c11a0d5d9d8e6a9132ac0db912dc0f34f5fb7d94860fe38d16410bd",
            "0x000000000000000000000000cf0cb704125dea26d327a9f729b1aaf33b487c85"
          ],
          "data": "0x",
          "blockHash": "0x7e1c21486a29a9605294ecc2818d4d2c709eeaa4b2c5b05ad36a5029b8457373",
          "blockNumber": "0x25c0eaf",
          "blockTimestamp": "0x69427a41",
          "transactionHash": "0x1d5e8a50ea5792b25518ccc5ce393aed4faa0c16385dc7837e30674b27ef042d",
          "transactionIndex": "0x118",
          "logIndex": "0x186",
          "removed": false
        },
        {
          "address": "0x4e5b054109d9705c39e20d1341be75dd4f47fbd0",
          "topics": [
            "0xc2617efa69bab66782fa219543714338489c4e9e178271560a91b82c3f612b58",
            "0x9e1cb124f4c121f4e1f831acecf1158b506a55699fa30abe65c71f14e1f175cb",
            "0x0000000000000000000000000000000000000000000000000000000000000000"
          ],
          "data": "0x000000000000000000000000a1dda4d6e2838f68cc2b945f291ad1c5da032ce500000000000000000000000000000000000000000000000000000000000000000000000000000000000000000000000000000000000000000000000000000060000000000000000000000000000000000000000000000000000000000000002422f2caf1000000000000000000000000cf0cb704125dea26d327a9f729b1aaf33b487c8500000000000000000000000000000000000000000000000000000000",
          "blockHash": "0x7e1c21486a29a9605294ecc2818d4d2c709eeaa4b2c5b05ad36a5029b8457373",
          "blockNumber": "0x25c0eaf",
          "blockTimestamp": "0x69427a41",
          "transactionHash": "0x1d5e8a50ea5792b25518ccc5ce393aed4faa0c16385dc7837e30674b27ef042d",
          "transactionIndex": "0x118",
          "logIndex": "0x187",
          "removed": false
        }
      ],
      "logsBloom": "0x00008000000000000400000000000000000000000000000000000000000000000000000000000000000000000000000008000080000800000000000000000010000000000000000000000000000000008000000000008000000000000000002000000000020800000000000000000800000000200000000000000000000000000000000000004000000000000000000000000000000000000000008000000000000000000000000000000000000000000000000000000000000080000000000000004000020000080000000000000000000000000000000000000000000020000000000100000000000000000000000000000000000000000000000000000000",
      "type": "0x2",
      "transactionHash": "0x1d5e8a50ea5792b25518ccc5ce393aed4faa0c16385dc7837e30674b27ef042d",
      "transactionIndex": "0x118",
      "blockHash": "0x7e1c21486a29a9605294ecc2818d4d2c709eeaa4b2c5b05ad36a5029b8457373",
      "blockNumber": "0x25c0eaf",
      "gasUsed": "0x1019c",
      "effectiveGasPrice": "0x77a46",
      "blobGasUsed": "0x9c00",
      "from": "0xce11d6fb4f1e006e5a348230449dc387fde850cc",
      "to": "0x4e5b054109d9705c39e20d1341be75dd4f47fbd0",
      "contractAddress": null,
      "daFootprintGasScalar": "0x138",
      "l1BaseFeeScalar": "0x8dd",
      "l1BlobBaseFee": "0x1c874f",
      "l1BlobBaseFeeScalar": "0x101c12",
      "l1Fee": "0x18349c07",
      "l1GasPrice": "0x1ee9168",
      "l1GasUsed": "0x80e"
    },
    {
      "status": "0x1",
      "cumulativeGasUsed": "0x26349bc",
      "logs": [
        {
          "address": "0x4e5b054109d9705c39e20d1341be75dd4f47fbd0",
          "topics": [
            "0x4cf4410cc57040e44862ef0f45f3dd5a5e02db8eb8add648d4b0e236f1d07dca",
            "0xe68853104207b486b1eb10ce327c41ee4e87b9722fdfc827bae0d51201ec4aff",
            "0x0000000000000000000000000000000000000000000000000000000000000000"
          ],
          "data": "0x000000000000000000000000a1dda4d6e2838f68cc2b945f291ad1c5da032ce5000000000000000000000000000000000000000000000000000000000000000000000000000000000000000000000000000000000000000000000000000000a000000000000000000000000000000000000000000000000000000000000000000000000000000000000000000000000000000000000000000000000000000000000000000000000000000000000000000000000000000000000000000000002422f2caf10000000000000000000000004351cd71eb607f5f35a0b406ad81f6b27a2cfc6300000000000000000000000000000000000000000000000000000000",
          "blockHash": "0x7e1c21486a29a9605294ecc2818d4d2c709eeaa4b2c5b05ad36a5029b8457373",
          "blockNumber": "0x25c0eaf",
          "blockTimestamp": "0x69427a41",
          "transactionHash": "0x2e94bd5ade2266200b37be2bfdd4a5993bc8b8a3c3a55245c82412b5c283a47e",
          "transactionIndex": "0x119",
          "logIndex": "0x188",
          "removed": false
        },
        {
          "address": "0x4e5b054109d9705c39e20d1341be75dd4f47fbd0",
          "topics": [
            "0x20fda5fd27a1ea7bf5b9567f143ac5470bb059374a27e8f67cb44f946f6d0387",
            "0xe68853104207b486b1eb10ce327c41ee4e87b9722fdfc827bae0d51201ec4aff"
          ],
          "data": "0x00000000000000000000000000000000000000000000000000000000000003eb",
          "blockHash": "0x7e1c21486a29a9605294ecc2818d4d2c709eeaa4b2c5b05ad36a5029b8457373",
          "blockNumber": "0x25c0eaf",
          "blockTimestamp": "0x69427a41",
          "transactionHash": "0x2e94bd5ade2266200b37be2bfdd4a5993bc8b8a3c3a55245c82412b5c283a47e",
          "transactionIndex": "0x119",
          "logIndex": "0x189",
          "removed": false
        }
      ],
      "logsBloom": "0x00000000000000000000000040000000000000000000000000000000000000000000000000000000000000000000000100000000800000040000000000000000000000000000000000000000000000008000000000000008000000000000000000000000020800000000000000000800000080000000000000000000000000000000000000000000000000000000000000000000000000000000008000000000000000000000000000000000000000000000000040000000000000000000000000000000000000000000000000000000000000000000400000000000000020000000000000000000000010000000000000000000000000000000000000000000",
      "type": "0x2",
      "transactionHash": "0x2e94bd5ade2266200b37be2bfdd4a5993bc8b8a3c3a55245c82412b5c283a47e",
      "transactionIndex": "0x119",
      "blockHash": "0x7e1c21486a29a9605294ecc2818d4d2c709eeaa4b2c5b05ad36a5029b8457373",
      "blockNumber": "0x25c0eaf",
      "gasUsed": "0xda23",
      "effectiveGasPrice": "0x77a46",
      "blobGasUsed": "0x9c00",
      "from": "0xce11d6fb4f1e006e5a348230449dc387fde850cc",
      "to": "0x4e5b054109d9705c39e20d1341be75dd4f47fbd0",
      "contractAddress": null,
      "daFootprintGasScalar": "0x138",
      "l1BaseFeeScalar": "0x8dd",
      "l1BlobBaseFee": "0x1c874f",
      "l1BlobBaseFeeScalar": "0x101c12",
      "l1Fee": "0x18349c07",
      "l1GasPrice": "0x1ee9168",
      "l1GasUsed": "0x80e"
    },
    {
      "status": "0x1",
      "cumulativeGasUsed": "0x2644b58",
      "logs": [
        {
          "address": "0xa1dda4d6e2838f68cc2b945f291ad1c5da032ce5",
          "topics": [
            "0xa77e7c594c11a0d5d9d8e6a9132ac0db912dc0f34f5fb7d94860fe38d16410bd",
            "0x0000000000000000000000004351cd71eb607f5f35a0b406ad81f6b27a2cfc63"
          ],
          "data": "0x",
          "blockHash": "0x7e1c21486a29a9605294ecc2818d4d2c709eeaa4b2c5b05ad36a5029b8457373",
          "blockNumber": "0x25c0eaf",
          "blockTimestamp": "0x69427a41",
          "transactionHash": "0x3eb4af3faa5d6d6912ac220e2afcc3063ac545b228a07e9da19b203fda31ecaa",
          "transactionIndex": "0x11a",
          "logIndex": "0x18a",
          "removed": false
        },
        {
          "address": "0x4e5b054109d9705c39e20d1341be75dd4f47fbd0",
          "topics": [
            "0xc2617efa69bab66782fa219543714338489c4e9e178271560a91b82c3f612b58",
            "0xe68853104207b486b1eb10ce327c41ee4e87b9722fdfc827bae0d51201ec4aff",
            "0x0000000000000000000000000000000000000000000000000000000000000000"
          ],
          "data": "0x000000000000000000000000a1dda4d6e2838f68cc2b945f291ad1c5da032ce500000000000000000000000000000000000000000000000000000000000000000000000000000000000000000000000000000000000000000000000000000060000000000000000000000000000000000000000000000000000000000000002422f2caf10000000000000000000000004351cd71eb607f5f35a0b406ad81f6b27a2cfc6300000000000000000000000000000000000000000000000000000000",
          "blockHash": "0x7e1c21486a29a9605294ecc2818d4d2c709eeaa4b2c5b05ad36a5029b8457373",
          "blockNumber": "0x25c0eaf",
          "blockTimestamp": "0x69427a41",
          "transactionHash": "0x3eb4af3faa5d6d6912ac220e2afcc3063ac545b228a07e9da19b203fda31ecaa",
          "transactionIndex": "0x11a",
          "logIndex": "0x18b",
          "removed": false
        }
      ],
      "logsBloom": "0x00008000000000000000000000000000000000000000000000000200000000000000000000000000000000000000000008000000000800040000000000000010000000000000000000000000000000008000000000000000000000000000002000000000020800000000000000000800000000200000000000000000000000000000000000000000000000000000000000000000000000000000008000000000000000000000000000000000200000000000200040000000000080000000000000000000000000080000000000000000000000000000000000000000000020000000000100000000000010000000000000000000000000000000000000000000",
      "type": "0x2",
      "transactionHash": "0x3eb4af3faa5d6d6912ac220e2afcc3063ac545b228a07e9da19b203fda31ecaa",
      "transactionIndex": "0x11a",
      "blockHash": "0x7e1c21486a29a9605294ecc2818d4d2c709eeaa4b2c5b05ad36a5029b8457373",
      "blockNumber": "0x25c0eaf",
      "gasUsed": "0x1019c",
      "effectiveGasPrice": "0x77a46",
      "blobGasUsed": "0x9c00",
      "from": "0xce11d6fb4f1e006e5a348230449dc387fde850cc",
      "to": "0x4e5b054109d9705c39e20d1341be75dd4f47fbd0",
      "contractAddress": null,
      "daFootprintGasScalar": "0x138",
      "l1BaseFeeScalar": "0x8dd",
      "l1BlobBaseFee": "0x1c874f",
      "l1BlobBaseFeeScalar": "0x101c12",
      "l1Fee": "0x18349c07",
      "l1GasPrice": "0x1ee9168",
      "l1GasUsed": "0x80e"
    },
    {
      "status": "0x1",
      "cumulativeGasUsed": "0x265256f",
      "logs": [
        {
          "address": "0x4e5b054109d9705c39e20d1341be75dd4f47fbd0",
          "topics": [
            "0x4cf4410cc57040e44862ef0f45f3dd5a5e02db8eb8add648d4b0e236f1d07dca",
            "0x6c159306d2e9f86d369d856fc20ee133e6478d3226526265a2841c62a4f17524",
            "0x0000000000000000000000000000000000000000000000000000000000000000"
          ],
          "data": "0x000000000000000000000000a1dda4d6e2838f68cc2b945f291ad1c5da032ce5000000000000000000000000000000000000000000000000000000000000000000000000000000000000000000000000000000000000000000000000000000a00000000000000000000000000000000000000000000000000000000000000000000000000000000000000000000000000000000000000000000000000000000000000000000000000000000000000000000000000000000000000000000000247a1ff20d0000000000000000000000002ed35991d466e8114d49bda6f602c3795305006d00000000000000000000000000000000000000000000000000000000",
          "blockHash": "0x7e1c21486a29a9605294ecc2818d4d2c709eeaa4b2c5b05ad36a5029b8457373",
          "blockNumber": "0x25c0eaf",
          "blockTimestamp": "0x69427a41",
          "transactionHash": "0xcd73fb9df887a2d8023a6d0cd4b7aaf33482d27b45c1b9f7fa1d801a21ff979a",
          "transactionIndex": "0x11b",
          "logIndex": "0x18c",
          "removed": false
        },
        {
          "address": "0x4e5b054109d9705c39e20d1341be75dd4f47fbd0",
          "topics": [
            "0x20fda5fd27a1ea7bf5b9567f143ac5470bb059374a27e8f67cb44f946f6d0387",
            "0x6c159306d2e9f86d369d856fc20ee133e6478d3226526265a2841c62a4f17524"
          ],
          "data": "0x00000000000000000000000000000000000000000000000000000000000003ec",
          "blockHash": "0x7e1c21486a29a9605294ecc2818d4d2c709eeaa4b2c5b05ad36a5029b8457373",
          "blockNumber": "0x25c0eaf",
          "blockTimestamp": "0x69427a41",
          "transactionHash": "0xcd73fb9df887a2d8023a6d0cd4b7aaf33482d27b45c1b9f7fa1d801a21ff979a",
          "transactionIndex": "0x11b",
          "logIndex": "0x18d",
          "removed": false
        }
      ],
      "logsBloom": "0x00000000000000000000000040000000000000000000000000000000000000000000000000000000000000000000000100000000800000000000000000000000000000000000000000000000000000008000000000000008000000000000000000000000020800000000000000000800000080000000000000000000000000000000000000000000000000000000000000000000000000000000008000000000000000000000000000100000000000000000000000000000000000008000000000000000000000200000000000000000000000000000400000000000000020000000000000000000000000000000000000000000000000000000000000000000",
      "type": "0x2",
      "transactionHash": "0xcd73fb9df887a2d8023a6d0cd4b7aaf33482d27b45c1b9f7fa1d801a21ff979a",
      "transactionIndex": "0x11b",
      "blockHash": "0x7e1c21486a29a9605294ecc2818d4d2c709eeaa4b2c5b05ad36a5029b8457373",
      "blockNumber": "0x25c0eaf",
      "gasUsed": "0xda17",
      "effectiveGasPrice": "0x77a46",
      "blobGasUsed": "0x9c00",
      "from": "0xce11d6fb4f1e006e5a348230449dc387fde850cc",
      "to": "0x4e5b054109d9705c39e20d1341be75dd4f47fbd0",
      "contractAddress": null,
      "daFootprintGasScalar": "0x138",
      "l1BaseFeeScalar": "0x8dd",
      "l1BlobBaseFee": "0x1c874f",
      "l1BlobBaseFeeScalar": "0x101c12",
      "l1Fee": "0x18349c07",
      "l1GasPrice": "0x1ee9168",
      "l1GasUsed": "0x80e"
    },
    {
      "status": "0x1",
      "cumulativeGasUsed": "0x2662945",
      "logs": [
        {
          "address": "0xa1dda4d6e2838f68cc2b945f291ad1c5da032ce5",
          "topics": [
            "0xa7be491d4950fa053880b9583913cd0588f88ea64c26b6c3afbfd77ad2c36ca0",
            "0x0000000000000000000000000000000000000000000000000000000000000000",
            "0x0000000000000000000000002ed35991d466e8114d49bda6f602c3795305006d"
          ],
          "data": "0x",
          "blockHash": "0x7e1c21486a29a9605294ecc2818d4d2c709eeaa4b2c5b05ad36a5029b8457373",
          "blockNumber": "0x25c0eaf",
          "blockTimestamp": "0x69427a41",
          "transactionHash": "0x3cc93bb51c1bc4cee678494cc6ae0e2b500edbe94575e8563fd4af0c7eb18dcb",
          "transactionIndex": "0x11c",
          "logIndex": "0x18e",
          "removed": false
        },
        {
          "address": "0x4e5b054109d9705c39e20d1341be75dd4f47fbd0",
          "topics": [
            "0xc2617efa69bab66782fa219543714338489c4e9e178271560a91b82c3f612b58",
            "0x6c159306d2e9f86d369d856fc20ee133e6478d3226526265a2841c62a4f17524",
            "0x0000000000000000000000000000000000000000000000000000000000000000"
          ],
          "data": "0x000000000000000000000000a1dda4d6e2838f68cc2b945f291ad1c5da032ce50000000000000000000000000000000000000000000000000000000000000000000000000000000000000000000000000000000000000000000000000000006000000000000000000000000000000000000000000000000000000000000000247a1ff20d0000000000000000000000002ed35991d466e8114d49bda6f602c3795305006d00000000000000000000000000000000000000000000000000000000",
          "blockHash": "0x7e1c21486a29a9605294ecc2818d4d2c709eeaa4b2c5b05ad36a5029b8457373",
          "blockNumber": "0x25c0eaf",
          "blockTimestamp": "0x69427a41",
          "transactionHash": "0x3cc93bb51c1bc4cee678494cc6ae0e2b500edbe94575e8563fd4af0c7eb18dcb",
          "transactionIndex": "0x11c",
          "logIndex": "0x18f",
          "removed": false
        }
      ],
      "logsBloom": "0x00008000000000000000000000000000000000000800000000000000000000000000000000000000000000000000000008000000000800000000000000000010000000000000000000000000000010008000000000000000000000000000002000000000020800000000000000000800000000000000000000040000000000000000000000000000000000000000000020000000000000000000008000000000000000000000000000100000000000000000000000000000000000008000000000000000000000280000000000000000000000000000000000000000000020000000000000000000000000000000000000200000000000000020000000000000",
      "type": "0x2",
      "transactionHash": "0x3cc93bb51c1bc4cee678494cc6ae0e2b500edbe94575e8563fd4af0c7eb18dcb",
      "transactionIndex": "0x11c",
      "blockHash": "0x7e1c21486a29a9605294ecc2818d4d2c709eeaa4b2c5b05ad36a5029b8457373",
      "blockNumber": "0x25c0eaf",
      "gasUsed": "0x103d6",
      "effectiveGasPrice": "0x77a46",
      "blobGasUsed": "0x9c00",
      "from": "0xce11d6fb4f1e006e5a348230449dc387fde850cc",
      "to": "0x4e5b054109d9705c39e20d1341be75dd4f47fbd0",
      "contractAddress": null,
      "daFootprintGasScalar": "0x138",
      "l1BaseFeeScalar": "0x8dd",
      "l1BlobBaseFee": "0x1c874f",
      "l1BlobBaseFeeScalar": "0x101c12",
      "l1Fee": "0x18349c07",
      "l1GasPrice": "0x1ee9168",
      "l1GasUsed": "0x80e"
    }
  ],
  "libraries": [],
  "pending": [],
  "returns": {},
  "timestamp": 1765964807989,
  "chain": 8453,
  "commit": "60f4cda"
}