{
  "transactions": [
    {
      "hash": "0xe7a4760e6a730841af67db0eaabc3dde1bffd9aeede2b436b12a20c64d7e5b45",
      "transactionType": "CREATE2",
      "contractName": "YieldSeekerMerklAdapter",
      "contractAddress": "0x6a3ba9690a9fbe3ab58d241f764e47e4b18956b3",
      "function": null,
      "arguments": null,
      "transaction": {
        "from": "0xce11d6fb4f1e006e5a348230449dc387fde850cc",
        "to": "0x4e59b44847b379578588920ca78fbf26c0b4956c",
        "gas": "0xe03fe",
        "value": "0x0",
        "input": "0x000000000000000000000000000000000000000000000000000000000000000460a0806040523460225730608052610b0990816100278239608051816101360152f35b5f80fdfe60806040526004361015610011575f80fd5b5f3560e01c80631cff79cd146100d7576371ee95c01461002f575f80fd5b346100d35760803660031901126100d3576004356001600160401b0381116100d35761005f9036906004016101b1565b50506024356001600160401b0381116100d3576100809036906004016101b1565b50506044356001600160401b0381116100d3576100a19036906004016101b1565b50506064356001600160401b0381116100d3576100c29036906004016101b1565b5050633954108560e21b5f5260045ffd5b5f80fd5b60403660031901126100d3576004356001600160a01b03811681036100d357602435906001600160401b0382116100d357366023830112156100d3578160040135916001600160401b0383116100d35736602484830101116100d357307f00000000000000000000000000000000000000000000000000000000000000006001600160a01b0316146101a257602092604092602461017693019061029b565b815192839181835280519182918282860152018484015e5f828201840152601f01601f19168101030190f35b633954108560e21b5f5260045ffd5b9181601f840112156100d3578235916001600160401b0383116100d3576020808501948460051b0101116100d357565b90601f801991011681019081106001600160401b0382111761020257604052565b634e487b7160e01b5f52604160045260245ffd5b6001600160401b0381116102025760051b60200190565b9080601f830112156100d35781359061024582610216565b9261025360405194856101e1565b82845260208085019360051b8201019182116100d357602001915b81831061027b5750505090565b82356001600160a01b03811681036100d35781526020928301920161026e565b5f92806004116100d35782356001600160e01b0319166301c7ba5760e61b146102cd576311fa59f360e11b8452600484fd5b820193608083860360031901126100d35760048301356001600160401b0381116100d3578560046103009286010161022d565b9360248401356001600160401b0381116100d3578660046103239287010161022d565b9260448501356001600160401b0381116100d357850195876023880112156100d35760048701359561035487610216565b97610362604051998a6101e1565b8789526020890160206004829a60051b84010101918b83116100d357602401905b8282106109f9575050506064810135906001600160401b0382116100d35701886023820112156100d3576004810135906103bc82610216565b996103ca6040519b8c6101e1565b828b5260208b019160206004849560051b83010101908282116100d35760248101935b82851061097557505050505085519661040588610216565b97610413604051998a6101e1565b808952610422601f1991610216565b013660208a01375f995f5b88518110156104d4575f5f5b8d8110610495575b5015610450575b60010161042d565b9a6001600160a01b036104638d8b610a09565b511661046f828c610a09565b525f198114610481576001019a610448565b634e487b7160e01b5f52601160045260245ffd5b6001600160a01b036104a7848d610a09565b51166001600160a01b036104bb838f610a09565b5116146104ca57600101610439565b505060015f610441565b5090919294989996939795996104e988610216565b986104f76040519a8b6101e1565b888a52601f196105068a610216565b013660208c01375f5b8981106108e857506001600160a01b031694853b156100d3579060206105696105579896959493604051998a986301c7ba5760e61b8a52608060048b015260848a0190610a31565b8881036003190160248a015290610a31565b8681036003190160448801529151808352910192905f5b8181106108cf5750505060031984830301606485015251808252602082019160208260051b82010193925f915b83831061087357505050505091815f81819503925af1801561086857610853575b5060405163cdf456e160e01b8152602081600481305afa908115610848578591610802575b506001600160a01b031692845b83811061064257505050505060405190602082018281106001600160401b0382111761062e57604052815290565b634e487b7160e01b82526041600452602482fd5b602460206001600160a01b036106588487610a09565b5116604051928380926370a0823160e01b82523060048301525afa90811561072c5787916107d1575b5061068c8284610a09565b51808203918083116107bd57036106a7575b50600101610600565b856001600160a01b036106ba8487610a09565b51160361073b576001600160a01b036106d1610a6d565b1690813b1561073757879160248392604051948593849263070cd18960e11b845260048401525af1801561072c57908791610713575b50506001905b9061069e565b8161071d916101e1565b61072857855f610707565b8580fd5b6040513d89823e3d90fd5b8780fd5b6001600160a01b0361074b610a6d565b16906001600160a01b0361075f8487610a09565b5116823b156107b9579060448992836040519586948593633d2dca7160e01b8552600485015260248401525af1801561072c579087916107a4575b505060019061070d565b816107ae916101e1565b61072857855f61079a565b8880fd5b634e487b7160e01b89526011600452602489fd5b90506020813d82116107fa575b816107eb602093836101e1565b810103126100d357515f610681565b3d91506107de565b90506020813d602011610840575b8161081d602093836101e1565b8101031261083c57516001600160a01b038116810361083c575f6105f3565b8480fd5b3d9150610810565b6040513d87823e3d90fd5b6108609194505f906101e1565b5f925f6105ce565b6040513d5f823e3d90fd5b919395509193601f19828203018352855190602080835192838152019201905f905b8082106108b757505050602080600192970193019301909287959492936105ad565b90919260208060019286518152019401920190610895565b8251855288965060209485019490920191600101610580565b60249060206001600160a01b036108ff838d610a09565b5116604051938480926370a0823160e01b82523060048301525afa8015610868578c925f9161093d575b5061093682600194610a09565b520161050f565b9250506020823d821161096d575b81610958602093836101e1565b810103126100d35790518b9190610936610929565b3d915061094b565b84356001600160401b0381116100d35760049083010184603f820112156100d3576020810135906109a582610216565b916109b360405193846101e1565b8083526020808085019260051b84010101918783116100d357604001905b8282106109e9575050508152602094850194016103ed565b81358152602091820191016109d1565b8135815260209182019101610383565b8051821015610a1d5760209160051b010190565b634e487b7160e01b5f52603260045260245ffd5b90602080835192838152019201905f5b818110610a4e5750505090565b82516001600160a01b0316845260209384019390920191600101610a41565b604051633325e1df60e01b8152602081600481305afa908115610868575f91610a94575090565b90506020813d602011610acb575b81610aaf602093836101e1565b810103126100d357516001600160a01b03811681036100d35790565b3d9150610aa256fea2646970667358221220141213831ff0724fcefcc57da05a1afe14efe696313a8b57fa6907ea7dd9cc2b64736f6c634300081c0033",
        "nonce": "0x6f",
        "chainId": "0x2105"
      },
      "additionalContracts": [],
      "isFixedGasLimit": false
    },
    {
      "hash": "0x3ef4c014ca70861cfad8f506cca78fcb753da20ae616ccd5a9a03e81947e8f6f",
      "transactionType": "CALL",
      "contractName": "YieldSeekerAdminTimelock",
      "contractAddress": "0xec88da9d5e3efd3cee14760d75a4146459076c09",
      "function": "scheduleBatch(address[],uint256[],bytes[],bytes32,bytes32,uint256)",
      "arguments": [
        "[0x7c4750c562A75aC6a9e42C17dE3Af8956f5B87Ad]",
        "[0]",
        "[0x22f2caf10000000000000000000000006a3ba9690a9fbe3ab58d241f764e47e4b18956b3]",
        "0x0000000000000000000000000000000000000000000000000000000000000000",
        "0x00000000000000000000000000000000000000000000000000000000000003e8",
        "0"
      ],
      "transaction": {
        "from": "0xce11d6fb4f1e006e5a348230449dc387fde850cc",
        "to": "0xec88da9d5e3efd3cee14760d75a4146459076c09",
        "gas": "0x13ce6",
        "value": "0x0",
        "input": "0x8f2a0bb000000000000000000000000000000000000000000000000000000000000000c000000000000000000000000000000000000000000000000000000000000001000000000000000000000000000000000000000000000000000000000000000140000000000000000000000000000000000000000000000000000000000000000000000000000000000000000000000000000000000000000000000000000003e8000000000000000000000000000000000000000000000000000000000000000000000000000000000000000000000000000000000000000000000000000000010000000000000000000000007c4750c562a75ac6a9e42c17de3af8956f5b87ad0000000000000000000000000000000000000000000000000000000000000001000000000000000000000000000000000000000000000000000000000000000000000000000000000000000000000000000000000000000000000000000000010000000000000000000000000000000000000000000000000000000000000020000000000000000000000000000000000000000000000000000000000000002422f2caf10000000000000000000000006a3ba9690a9fbe3ab58d241f764e47e4b18956b300000000000000000000000000000000000000000000000000000000",
        "nonce": "0x70",
        "chainId": "0x2105"
      },
      "additionalContracts": [],
      "isFixedGasLimit": false
    },
    {
      "hash": "0x2e0b11f2b4faa9ceef30803777c47702a55b3f032ff872219361316215a1c193",
      "transactionType": "CALL",
      "contractName": "YieldSeekerAdminTimelock",
      "contractAddress": "0xec88da9d5e3efd3cee14760d75a4146459076c09",
      "function": "executeBatch(address[],uint256[],bytes[],bytes32,bytes32)",
      "arguments": [
        "[0x7c4750c562A75aC6a9e42C17dE3Af8956f5B87Ad]",
        "[0]",
        "[0x22f2caf10000000000000000000000006a3ba9690a9fbe3ab58d241f764e47e4b18956b3]",
        "0x0000000000000000000000000000000000000000000000000000000000000000",
        "0x00000000000000000000000000000000000000000000000000000000000003e8"
      ],
      "transaction": {
        "from": "0xce11d6fb4f1e006e5a348230449dc387fde850cc",
        "to": "0xec88da9d5e3efd3cee14760d75a4146459076c09",
        "gas": "0x19830",
        "value": "0x0",
        "input": "0xe38335e500000000000000000000000000000000000000000000000000000000000000a000000000000000000000000000000000000000000000000000000000000000e00000000000000000000000000000000000000000000000000000000000000120000000000000000000000000000000000000000000000000000000000000000000000000000000000000000000000000000000000000000000000000000003e800000000000000000000000000000000000000000000000000000000000000010000000000000000000000007c4750c562a75ac6a9e42c17de3af8956f5b87ad0000000000000000000000000000000000000000000000000000000000000001000000000000000000000000000000000000000000000000000000000000000000000000000000000000000000000000000000000000000000000000000000010000000000000000000000000000000000000000000000000000000000000020000000000000000000000000000000000000000000000000000000000000002422f2caf10000000000000000000000006a3ba9690a9fbe3ab58d241f764e47e4b18956b300000000000000000000000000000000000000000000000000000000",
        "nonce": "0x71",
        "chainId": "0x2105"
      },
      "additionalContracts": [],
      "isFixedGasLimit": false
    }
  ],
  "receipts": [
    {
      "status": "0x1",
      "cumulativeGasUsed": "0xa31140",
      "logs": [],
      "logsBloom": "0x00000000000000000000000000000000000000000000000000000000000000000000000000000000000000000000000000000000000000000000000000000000000000000000000000000000000000000000000000000000000000000000000000000000000000000000000000000000000000000000000000000000000000000000000000000000000000000000000000000000000000000000000000000000000000000000000000000000000000000000000000000000000000000000000000000000000000000000000000000000000000000000000000000000000000000000000000000000000000000000000000000000000000000000000000000000",
      "type": "0x2",
      "transactionHash": "0x3ef4c014ca70861cfad8f506cca78fcb753da20ae616ccd5a9a03e81947e8f6f",
      "transactionIndex": "0x3e",
      "blockHash": "0x44c57364fba2972a867d38fba5231255e71d12ae2f08100dce61ef2d83d46d39",
      "blockNumber": "0x260a608",
      "gasUsed": "0xa25a5",
      "effectiveGasPrice": "0x83062",
      "blobGasUsed": "0x90916",
      "from": "0xce11d6fb4f1e006e5a348230449dc387fde850cc",
      "to": "0x4e59b44847b379578588920ca78fbf26c0b4956c",
      "contractAddress": "0x6a3ba9690a9fbe3ab58d241f764e47e4b18956b3",
      "daFootprintGasScalar": "0x145",
      "l1BaseFeeScalar": "0x8dd",
      "l1BlobBaseFee": "0x17b9ea",
      "l1BlobBaseFeeScalar": "0x101c12",
      "l1Fee": "0x121af456a",
      "l1GasPrice": "0x1aea9d2",
      "l1GasUsed": "0x71ec"
    },
    {
      "status": "0x1",
      "cumulativeGasUsed": "0xa3f6af",
      "logs": [
        {
          "address": "0xec88da9d5e3efd3cee14760d75a4146459076c09",
          "topics": [
            "0x4cf4410cc57040e44862ef0f45f3dd5a5e02db8eb8add648d4b0e236f1d07dca",
            "0x4c8c585b715579f39300a271516d54f33f7dfd40169b3bb30a02a0396c95fcf2",
            "0x0000000000000000000000000000000000000000000000000000000000000000"
          ],
          "data": "0x0000000000000000000000007c4750c562a75ac6a9e42c17de3af8956f5b87ad000000000000000000000000000000000000000000000000000000000000000000000000000000000000000000000000000000000000000000000000000000a000000000000000000000000000000000000000000000000000000000000000000000000000000000000000000000000000000000000000000000000000000000000000000000000000000000000000000000000000000000000000000000002422f2caf10000000000000000000000006a3ba9690a9fbe3ab58d241f764e47e4b18956b300000000000000000000000000000000000000000000000000000000",
          "blockHash": "0x44c57364fba2972a867d38fba5231255e71d12ae2f08100dce61ef2d83d46d39",
          "blockNumber": "0x260a608",
          "blockTimestamp": "0x694ba8f3",
          "transactionHash": "0x2e0b11f2b4faa9ceef30803777c47702a55b3f032ff872219361316215a1c193",
          "transactionIndex": "0x3f",
          "logIndex": "0xfa",
          "removed": false
        },
        {
          "address": "0xec88da9d5e3efd3cee14760d75a4146459076c09",
          "topics": [
            "0x20fda5fd27a1ea7bf5b9567f143ac5470bb059374a27e8f67cb44f946f6d0387",
            "0x4c8c585b715579f39300a271516d54f33f7dfd40169b3bb30a02a0396c95fcf2"
          ],
          "data": "0x00000000000000000000000000000000000000000000000000000000000003e8",
          "blockHash": "0x44c57364fba2972a867d38fba5231255e71d12ae2f08100dce61ef2d83d46d39",
          "blockNumber": "0x260a608",
          "blockTimestamp": "0x694ba8f3",
          "transactionHash": "0x2e0b11f2b4faa9ceef30803777c47702a55b3f032ff872219361316215a1c193",
          "transactionIndex": "0x3f",
          "logIndex": "0xfb",
          "removed": false
        }
      ],
      "logsBloom": "0x00000000000000000000000040000000000000000000000000200000000000000000000000000000000000000000000100000000800000000000000000000000000000000000000000000000000000000000000000000008000000000000000000000000020000000000000001000800000080000000000000000000000000000000000000000000004000000200000000000000000000000000000000000000000000000000020000000000000000000000000000000000000000000000000000000000000000000000000000000000000000000000400000000000000020000000400000000000000000000000000000000000000000000000000000000000",
      "type": "0x2",
      "transactionHash": "0x2e0b11f2b4faa9ceef30803777c47702a55b3f032ff872219361316215a1c193",
      "transactionIndex": "0x3f",
      "blockHash": "0x44c57364fba2972a867d38fba5231255e71d12ae2f08100dce61ef2d83d46d39",
      "blockNumber": "0x260a608",
      "gasUsed": "0xe56f",
      "effectiveGasPrice": "0x83062",
      "blobGasUsed": "0xbe6e",
      "from": "0xce11d6fb4f1e006e5a348230449dc387fde850cc",
      "to": "0xec88da9d5e3efd3cee14760d75a4146459076c09",
      "contractAddress": null,
      "daFootprintGasScalar": "0x145",
      "l1BaseFeeScalar": "0x8dd",
      "l1BlobBaseFee": "0x17b9ea",
      "l1BlobBaseFeeScalar": "0x101c12",
      "l1Fee": "0x17f0e2b1",
      "l1GasPrice": "0x1aea9d2",
      "l1GasUsed": "0x96a"
    },
    {
      "status": "0x1",
      "cumulativeGasUsed": "0xa50dca",
      "logs": [
        {
          "address": "0x7c4750c562a75ac6a9e42c17de3af8956f5b87ad",
          "topics": [
            "0xa77e7c594c11a0d5d9d8e6a9132ac0db912dc0f34f5fb7d94860fe38d16410bd",
            "0x0000000000000000000000006a3ba9690a9fbe3ab58d241f764e47e4b18956b3"
          ],
          "data": "0x",
          "blockHash": "0x44c57364fba2972a867d38fba5231255e71d12ae2f08100dce61ef2d83d46d39",
          "blockNumber": "0x260a608",
          "blockTimestamp": "0x694ba8f3",
          "transactionHash": "0xe7a4760e6a730841af67db0eaabc3dde1bffd9aeede2b436b12a20c64d7e5b45",
          "transactionIndex": "0x40",
          "logIndex": "0xfc",
          "removed": false
        },
        {
          "address": "0xec88da9d5e3efd3cee14760d75a4146459076c09",
          "topics": [
            "0xc2617efa69bab66782fa219543714338489c4e9e178271560a91b82c3f612b58",
            "0x4c8c585b715579f39300a271516d54f33f7dfd40169b3bb30a02a0396c95fcf2",
            "0x0000000000000000000000000000000000000000000000000000000000000000"
          ],
          "data": "0x0000000000000000000000007c4750c562a75ac6a9e42c17de3af8956f5b87ad00000000000000000000000000000000000000000000000000000000000000000000000000000000000000000000000000000000000000000000000000000060000000000000000000000000000000000000000000000000000000000000002422f2caf10000000000000000000000006a3ba9690a9fbe3ab58d241f764e47e4b18956b300000000000000000000000000000000000000000000000000000000",
          "blockHash": "0x44c57364fba2972a867d38fba5231255e71d12ae2f08100dce61ef2d83d46d39",
          "blockNumber": "0x260a608",
          "blockTimestamp": "0x694ba8f3",
          "transactionHash": "0xe7a4760e6a730841af67db0eaabc3dde1bffd9aeede2b436b12a20c64d7e5b45",
          "transactionIndex": "0x40",
          "logIndex": "0xfd",
          "removed": false
        }
      ],
      "logsBloom": "0x00000000000200000000000000000000000000000000000000200000000000000000000000000000000000000000000000000000000800000000000000000000000000000000000000800000000000000000000000000000000000000000002000000000024000000000000001000800000008200000000000000000000000000000000000000000004000000200000000000000000000000000000080000000000000000000020000000000000000000000000000000000000080000000000000000000000000180000000000000000000000000000000000000000000020000000400100000000000000000000000000000000000000000000000000000000",
      "type": "0x2",
      "transactionHash": "0xe7a4760e6a730841af67db0eaabc3dde1bffd9aeede2b436b12a20c64d7e5b45",
      "transactionIndex": "0x40",
      "blockHash": "0x44c57364fba2972a867d38fba5231255e71d12ae2f08100dce61ef2d83d46d39",
      "blockNumber": "0x260a608",
      "gasUsed": "0x1171b",
      "effectiveGasPrice": "0x83062",
      "blobGasUsed": "0xc0f8",
      "from": "0xce11d6fb4f1e006e5a348230449dc387fde850cc",
      "to": "0xec88da9d5e3efd3cee14760d75a4146459076c09",
      "contractAddress": null,
      "daFootprintGasScalar": "0x145",
      "l1BaseFeeScalar": "0x8dd",
      "l1BlobBaseFee": "0x17b9ea",
      "l1BlobBaseFeeScalar": "0x101c12",
      "l1Fee": "0x1834f32f",
      "l1GasPrice": "0x1aea9d2",
      "l1GasUsed": "0x985"
    }
  ],
  "libraries": [],
  "pending": [],
  "returns": {},
  "timestamp": 1766566151368,
  "chain": 8453,
  "commit": "31a7469"
}