{
  "transactions": [
    {
      "hash": "0xe225adc06feea911b9d5c51a9ab29b81df1dded292a9360e4c203fcb944f0aab",
      "transactionType": "CREATE2",
      "contractName": "YieldSeekerERC4626Adapter",
      "contractAddress": "0x7c4fc12b49ecd94397c2801682dff26193d3281e",
      "function": null,
      "arguments": null,
      "transaction": {
        "from": "0xce11d6fb4f1e006e5a348230449dc387fde850cc",
        "to": "0x4e59b44847b379578588920ca78fbf26c0b4956c",
        "gas": "0x6b447",
        "value": "0x0",
        "input": "0x0000000000000000000000000000000000000000000000000000000000000004608080604052346015576104c5908161001a8239f35b5f80fdfe6080806040526004361015610012575f80fd5b5f3560e01c90816347e7ef2414610179575063f3fef3a314610032575f80fd5b34610124576100403661038a565b90811561016a576040516338d52e0f60e01b81526001600160a01b03919091169190602081600481865afa801561013057610082915f9161013b575b50610405565b60405191635d043b2960e11b83528160048401523060248401523060448401526020836064815f855af1918215610130575f926100f7575b6020935060405190815282848201527f91fb9d98b786c57d74c099ccd2beca1739e9f6a81fb49001ca465c4b7591bbe260403092a3604051908152f35b91506020833d602011610128575b81610112602093836103b0565b810103126101245760209251916100ba565b5f80fd5b3d9150610105565b6040513d5f823e3d90fd5b61015d915060203d602011610163575b61015581836103b0565b8101906103e6565b5f61007c565b503d61014b565b631f2a200560e01b5f5260045ffd5b34610124576101873661038a565b90811561016a576338d52e0f60e01b83526001600160a01b031691602081600481865afa908115610130575f9161036b575b506101c381610405565b60018060a01b031660405163095ea7b360e01b5f52836004528260245260205f60448180865af19060015f511482161561035c575b604052156102a7575b50604051636e553f6560e01b815260048101829052306024820152916020836044815f855af1918215610130575f92610272575b6020935060405190815282848201527ff5681f9d0db1b911ac18ee83d515a1cf1051853a9eae418316a2fdf7dea427c560403092a3604051908152f35b91506020833d60201161029f575b8161028d602093836103b0565b81010312610124576020925191610235565b3d9150610280565b60405163095ea7b360e01b5f52836004525f60245260205f60448180865af19060015f5114821615610344575b604052156103115760405163095ea7b360e01b5f52836004528260245260205f60448180865af19060015f5114821615610323575b604052610201575b635274afe760e01b5f5260045260245ffd5b90600181151661033b57823b15153d15161690610309565b503d5f823e3d90fd5b90600181151661033b57823b15153d151616906102d4565b90823b15153d151616906101f8565b610384915060203d6020116101635761015581836103b0565b836101b9565b6040906003190112610124576004356001600160a01b0381168103610124579060243590565b90601f8019910116810190811067ffffffffffffffff8211176103d257604052565b634e487b7160e01b5f52604160045260245ffd5b9081602091031261012457516001600160a01b03811681036101245790565b60405163cdf456e160e01b8152602081600481305afa908115610130575f9161044d575b506001600160a01b0390811691160361043e57565b636448d6e960e11b5f5260045ffd5b90506020813d602011610487575b81610468602093836103b0565b8101031261012457516001600160a01b0381168103610124575f610429565b3d915061045b56fea2646970667358221220c3fcf1f92b48d739bca6dd6f86e568b9ee8291ecd691ff64f6133ece983ea74a64736f6c634300081c0033",
        "nonce": "0x5a",
        "chainId": "0x2105"
      },
      "additionalContracts": [],
      "isFixedGasLimit": false
    },
    {
      "hash": "0xf5c80fc6db9e3bd8a00640de11bf576adf6b8ce3b8a4273b3086b3ce953dc427",
      "transactionType": "CREATE2",
      "contractName": "YieldSeekerZeroXAdapter",
      "contractAddress": "0xc7730086095809f70c51f8c6d9d5acc9cad2ea16",
      "function": null,
      "arguments": [
        "0x0000000000001fF3684f28c67538d4D072C22734"
      ],
      "transaction": {
        "from": "0xce11d6fb4f1e006e5a348230449dc387fde850cc",
        "to": "0x4e59b44847b379578588920ca78fbf26c0b4956c",
        "gas": "0x80029",
        "value": "0x0",
        "input": "0x000000000000000000000000000000000000000000000000000000000000000460a034608157601f61067238819003918201601f19168301916001600160401b03831184841017608557808492602094604052833981010312608157516001600160a01b038116808203608157156072576080526040516105d8908161009a82396080518181816103ad01526105510152f35b631440bbc360e11b5f5260045ffd5b5f80fd5b634e487b7160e01b5f52604160045260245ffdfe6080806040526004361015610012575f80fd5b5f3560e01c908163227515931461053f575063a76c5d5214610032575f80fd5b60e0366003190112610292576004356001600160a01b03811690818103610292576024356001600160a01b0381169290839003610292576044356001600160a01b0381169390849003610292576064356084359460a43567ffffffffffffffff811161029257366023820112156102925780600401359567ffffffffffffffff87116102925736602488840101116102925760c4359084158015610537575b61038d5760405163cdf456e160e01b8152602081600481305afa90811561029e575f916104f5575b506001600160a01b031684036104e65773eeeeeeeeeeeeeeeeeeeeeeeeeeeeeeeeeeeeeeee860361039c5784821061038d57814710610376575b73eeeeeeeeeeeeeeeeeeeeeeeeeeeeeeeeeeeeeeee8414928315610305579060245f938493479b5b80604051948593018337810185815203925af13d156102fd573d9067ffffffffffffffff82116102e9576040519161019d601f8201601f191660200184610580565b82523d5f602084013e5b156102a95750156102375747945b85039485116102235785851061020c57602095506040519283528583015260408201528260608201527fd6d4f5681c246c9f42c203e287975af1601f8df8035a9251f79aab5c8f09e2f860803092a3604051908152f35b8585630583371760e31b5f5260045260245260445ffd5b634e487b7160e01b5f52601160045260245ffd5b6040516370a0823160e01b8152306004820152602081602481855afa90811561029e575f91610268575b50946101b5565b90506020813d602011610296575b8161028360209383610580565b8101031261029257515f610261565b5f80fd5b3d9150610276565b6040513d5f823e3d90fd5b604460209160405192839163ff9fa59560e01b83528160048401528051918291826024860152018484015e5f828201840152601f01601f19168101030190fd5b634e487b7160e01b5f52604160045260245ffd5b6060906101a7565b6040516370a0823160e01b8152306004820152602081602481895afa90811561029e575f9161033e575b505f938493926024929b61015b565b90506020929192813d60201161036e575b8161035c60209383610580565b8101031261029257519091905f61032f565b3d915061034f565b5047633ebbc33760e01b5f5260045260245260445ffd5b631f2a200560e01b5f5260045ffd5b60405163095ea7b360e01b5f9081527f00000000000000000000000000000000000000000000000000000000000000006001600160a01b0316600481905260248890529190602090604481808c5af19060015f51148216156104d7575b60405215610408575b50610133565b60405163095ea7b360e01b5f52816004525f60245260205f604481808c5af19060015f51148216156104bf575b604052156104ac576040519063095ea7b360e01b5f526004528560245260205f604481808b5af19060015f511482161561048b575b60405215610478575f610402565b85635274afe760e01b5f5260045260245ffd5b9060018115166104a357873b15153d1516169061046a565b503d5f823e3d90fd5b86635274afe760e01b5f5260045260245ffd5b9060018115166104a357883b15153d15161690610435565b90883b15153d151616906103f9565b636448d6e960e11b5f5260045ffd5b90506020813d60201161052f575b8161051060209383610580565b8101031261029257516001600160a01b0381168103610292575f6100f9565b3d9150610503565b5088156100d1565b34610292575f366003190112610292577f00000000000000000000000000000000000000000000000000000000000000006001600160a01b03168152602090f35b90601f8019910116810190811067ffffffffffffffff8211176102e95760405256fea26469706673582212203088890a56795948efc55cd7b716aba2dbb656a3fa5df303c33299d10d95bdae64736f6c634300081c00330000000000000000000000000000000000001ff3684f28c67538d4d072c22734",
        "nonce": "0x5b",
        "chainId": "0x2105"
      },
      "additionalContracts": [],
      "isFixedGasLimit": false
    },
    {
      "hash": "0xae69360fdca770e647fd421b0c8b4c0b46480100e437cfdf38539a51c41b9894",
      "transactionType": "CALL",
      "contractName": "YieldSeekerAdminTimelock",
      "contractAddress": "0x869f8d6e8d05ec1fdeab1d5d8d67f3d224da7571",
      "function": "scheduleBatch(address[],uint256[],bytes[],bytes32,bytes32,uint256)",
      "arguments": [
        "[0xc5Cb6d1c588C5bfeBd23B817Ce33D9d380e50c00, 0xc5Cb6d1c588C5bfeBd23B817Ce33D9d380e50c00]",
        "[0, 0]",
        "[0x22f2caf10000000000000000000000007c4fc12b49ecd94397c2801682dff26193d3281e, 0x22f2caf1000000000000000000000000c7730086095809f70c51f8c6d9d5acc9cad2ea16]",
        "0x0000000000000000000000000000000000000000000000000000000000000000",
        "0x00000000000000000000000000000000000000000000000000000000000003e8",
        "0"
      ],
      "transaction": {
        "from": "0xce11d6fb4f1e006e5a348230449dc387fde850cc",
        "to": "0x869f8d6e8d05ec1fdeab1d5d8d67f3d224da7571",
        "gas": "0x15e88",
        "value": "0x0",
        "input": "0x8f2a0bb000000000000000000000000000000000000000000000000000000000000000c000000000000000000000000000000000000000000000000000000000000001200000000000000000000000000000000000000000000000000000000000000180000000000000000000000000000000000000000000000000000000000000000000000000000000000000000000000000000000000000000000000000000003e800000000000000000000000000000000000000000000000000000000000000000000000000000000000000000000000000000000000000000000000000000002000000000000000000000000c5cb6d1c588c5bfebd23b817ce33d9d380e50c00000000000000000000000000c5cb6d1c588c5bfebd23b817ce33d9d380e50c000000000000000000000000000000000000000000000000000000000000000002000000000000000000000000000000000000000000000000000000000000000000000000000000000000000000000000000000000000000000000000000000000000000000000000000000000000000000000000000000000000000000000002000000000000000000000000000000000000000000000000000000000000004000000000000000000000000000000000000000000000000000000000000000a0000000000000000000000000000000000000000000000000000000000000002422f2caf10000000000000000000000007c4fc12b49ecd94397c2801682dff26193d3281e00000000000000000000000000000000000000000000000000000000000000000000000000000000000000000000000000000000000000000000002422f2caf1000000000000000000000000c7730086095809f70c51f8c6d9d5acc9cad2ea1600000000000000000000000000000000000000000000000000000000",
        "nonce": "0x5c",
        "chainId": "0x2105"
      },
      "additionalContracts": [],
      "isFixedGasLimit": false
    },
    {
      "hash": "0x365f9dbe81814100f7b4a9255aa1d829dfef4d1725bb7aae7f3d4bdd927dcd0e",
      "transactionType": "CALL",
      "contractName": "YieldSeekerAdminTimelock",
      "contractAddress": "0x869f8d6e8d05ec1fdeab1d5d8d67f3d224da7571",
      "function": "executeBatch(address[],uint256[],bytes[],bytes32,bytes32)",
      "arguments": [
        "[0xc5Cb6d1c588C5bfeBd23B817Ce33D9d380e50c00, 0xc5Cb6d1c588C5bfeBd23B817Ce33D9d380e50c00]",
        "[0, 0]",
        "[0x22f2caf10000000000000000000000007c4fc12b49ecd94397c2801682dff26193d3281e, 0x22f2caf1000000000000000000000000c7730086095809f70c51f8c6d9d5acc9cad2ea16]",
        "0x0000000000000000000000000000000000000000000000000000000000000000",
        "0x00000000000000000000000000000000000000000000000000000000000003e8"
      ],
      "transaction": {
        "from": "0xce11d6fb4f1e006e5a348230449dc387fde850cc",
        "to": "0x869f8d6e8d05ec1fdeab1d5d8d67f3d224da7571",
        "gas": "0x213fa",
        "value": "0x0",
        "input": "0xe38335e500000000000000000000000000000000000000000000000000000000000000a000000000000000000000000000000000000000000000000000000000000001000000000000000000000000000000000000000000000000000000000000000160000000000000000000000000000000000000000000000000000000000000000000000000000000000000000000000000000000000000000000000000000003e80000000000000000000000000000000000000000000000000000000000000002000000000000000000000000c5cb6d1c588c5bfebd23b817ce33d9d380e50c00000000000000000000000000c5cb6d1c588c5bfebd23b817ce33d9d380e50c000000000000000000000000000000000000000000000000000000000000000002000000000000000000000000000000000000000000000000000000000000000000000000000000000000000000000000000000000000000000000000000000000000000000000000000000000000000000000000000000000000000000000002000000000000000000000000000000000000000000000000000000000000004000000000000000000000000000000000000000000000000000000000000000a0000000000000000000000000000000000000000000000000000000000000002422f2caf10000000000000000000000007c4fc12b49ecd94397c2801682dff26193d3281e00000000000000000000000000000000000000000000000000000000000000000000000000000000000000000000000000000000000000000000002422f2caf1000000000000000000000000c7730086095809f70c51f8c6d9d5acc9cad2ea1600000000000000000000000000000000000000000000000000000000",
        "nonce": "0x5d",
        "chainId": "0x2105"
      },
      "additionalContracts": [],
      "isFixedGasLimit": false
    }
  ],
  "receipts": [
    {
      "status": "0x1",
      "cumulativeGasUsed": "0x21fd28b",
      "logs": [],
      "logsBloom": "0x00000000000000000000000000000000000000000000000000000000000000000000000000000000000000000000000000000000000000000000000000000000000000000000000000000000000000000000000000000000000000000000000000000000000000000000000000000000000000000000000000000000000000000000000000000000000000000000000000000000000000000000000000000000000000000000000000000000000000000000000000000000000000000000000000000000000000000000000000000000000000000000000000000000000000000000000000000000000000000000000000000000000000000000000000000000",
      "type": "0x2",
      "transactionHash": "0xae69360fdca770e647fd421b0c8b4c0b46480100e437cfdf38539a51c41b9894",
      "transactionIndex": "0xb6",
      "blockHash": "0x660ece370c74216d18b47087b785799cef486b69e403b52f82b98392acf6e79d",
      "blockNumber": "0x25cd498",
      "gasUsed": "0x4da8f",
      "effectiveGasPrice": "0x74aa43",
      "blobGasUsed": "0x3e4f0",
      "from": "0xce11d6fb4f1e006e5a348230449dc387fde850cc",
      "to": "0x4e59b44847b379578588920ca78fbf26c0b4956c",
      "contractAddress": "0x7c4fc12b49ecd94397c2801682dff26193d3281e",
      "daFootprintGasScalar": "0x138",
      "l1BaseFeeScalar": "0x8dd",
      "l1BlobBaseFee": "0x9c5889",
      "l1BlobBaseFeeScalar": "0x101c12",
      "l1Fee": "0x371e84d17",
      "l1GasPrice": "0xbee27b2",
      "l1GasUsed": "0x3322"
    },
    {
      "status": "0x1",
      "cumulativeGasUsed": "0x2259d60",
      "logs": [],
      "logsBloom": "0x00000000000000000000000000000000000000000000000000000000000000000000000000000000000000000000000000000000000000000000000000000000000000000000000000000000000000000000000000000000000000000000000000000000000000000000000000000000000000000000000000000000000000000000000000000000000000000000000000000000000000000000000000000000000000000000000000000000000000000000000000000000000000000000000000000000000000000000000000000000000000000000000000000000000000000000000000000000000000000000000000000000000000000000000000000000",
      "type": "0x2",
      "transactionHash": "0x365f9dbe81814100f7b4a9255aa1d829dfef4d1725bb7aae7f3d4bdd927dcd0e",
      "transactionIndex": "0xb7",
      "blockHash": "0x660ece370c74216d18b47087b785799cef486b69e403b52f82b98392acf6e79d",
      "blockNumber": "0x25cd498",
      "gasUsed": "0x5cad5",
      "effectiveGasPrice": "0x74aa43",
      "blobGasUsed": "0x52b90",
      "from": "0xce11d6fb4f1e006e5a348230449dc387fde850cc",
      "to": "0x4e59b44847b379578588920ca78fbf26c0b4956c",
      "contractAddress": "0xc7730086095809f70c51f8c6d9d5acc9cad2ea16",
      "daFootprintGasScalar": "0x138",
      "l1BaseFeeScalar": "0x8dd",
      "l1BlobBaseFee": "0x9c5889",
      "l1BlobBaseFeeScalar": "0x101c12",
      "l1Fee": "0x493574ae7",
      "l1GasPrice": "0xbee27b2",
      "l1GasUsed": "0x43eb"
    },
    {
      "status": "0x1",
      "cumulativeGasUsed": "0x2269b28",
      "logs": [
        {
          "address": "0x869f8d6e8d05ec1fdeab1d5d8d67f3d224da7571",
          "topics": [
            "0x4cf4410cc57040e44862ef0f45f3dd5a5e02db8eb8add648d4b0e236f1d07dca",
            "0x2d7a956f740f349f77a7e40f4e56ef19b23578a90e0ec6085e3c9f56947e75d4",
            "0x0000000000000000000000000000000000000000000000000000000000000000"
          ],
          "data": "0x000000000000000000000000c5cb6d1c588c5bfebd23b817ce33d9d380e50c00000000000000000000000000000000000000000000000000000000000000000000000000000000000000000000000000000000000000000000000000000000a000000000000000000000000000000000000000000000000000000000000000000000000000000000000000000000000000000000000000000000000000000000000000000000000000000000000000000000000000000000000000000000002422f2caf10000000000000000000000007c4fc12b49ecd94397c2801682dff26193d3281e00000000000000000000000000000000000000000000000000000000",
          "blockHash": "0x660ece370c74216d18b47087b785799cef486b69e403b52f82b98392acf6e79d",
          "blockNumber": "0x25cd498",
          "blockTimestamp": "0x69440613",
          "transactionHash": "0xf5c80fc6db9e3bd8a00640de11bf576adf6b8ce3b8a4273b3086b3ce953dc427",
          "transactionIndex": "0xb8",
          "logIndex": "0x31b",
          "removed": false
        },
        {
          "address": "0x869f8d6e8d05ec1fdeab1d5d8d67f3d224da7571",
          "topics": [
            "0x4cf4410cc57040e44862ef0f45f3dd5a5e02db8eb8add648d4b0e236f1d07dca",
            "0x2d7a956f740f349f77a7e40f4e56ef19b23578a90e0ec6085e3c9f56947e75d4",
            "0x0000000000000000000000000000000000000000000000000000000000000001"
          ],
          "data": "0x000000000000000000000000c5cb6d1c588c5bfebd23b817ce33d9d380e50c00000000000000000000000000000000000000000000000000000000000000000000000000000000000000000000000000000000000000000000000000000000a000000000000000000000000000000000000000000000000000000000000000000000000000000000000000000000000000000000000000000000000000000000000000000000000000000000000000000000000000000000000000000000002422f2caf1000000000000000000000000c7730086095809f70c51f8c6d9d5acc9cad2ea1600000000000000000000000000000000000000000000000000000000",
          "blockHash": "0x660ece370c74216d18b47087b785799cef486b69e403b52f82b98392acf6e79d",
          "blockNumber": "0x25cd498",
          "blockTimestamp": "0x69440613",
          "transactionHash": "0xf5c80fc6db9e3bd8a00640de11bf576adf6b8ce3b8a4273b3086b3ce953dc427",
          "transactionIndex": "0xb8",
          "logIndex": "0x31c",
          "removed": false
        },
        {
          "address": "0x869f8d6e8d05ec1fdeab1d5d8d67f3d224da7571",
          "topics": [
            "0x20fda5fd27a1ea7bf5b9567f143ac5470bb059374a27e8f67cb44f946f6d0387",
            "0x2d7a956f740f349f77a7e40f4e56ef19b23578a90e0ec6085e3c9f56947e75d4"
          ],
          "data": "0x00000000000000000000000000000000000000000000000000000000000003e8",
          "blockHash": "0x660ece370c74216d18b47087b785799cef486b69e403b52f82b98392acf6e79d",
          "blockNumber": "0x25cd498",
          "blockTimestamp": "0x69440613",
          "transactionHash": "0xf5c80fc6db9e3bd8a00640de11bf576adf6b8ce3b8a4273b3086b3ce953dc427",
          "transactionIndex": "0xb8",
          "logIndex": "0x31d",
          "removed": false
        }
      ],
      "logsBloom": "0x00000000000000000000000040000000000000000000000000000000000000000000000000000000000000000000000100000000800000000000000000040000000000000000000000000001000000000080000000040008000000000000000000000000020000000000000000020800000080000000000000000000000000000400000000000000000000000000000000000000000002000000000000000000000000000000000000000000000000200000000000000000000000000000000000000000000000000000000000000000000000000000400000000000000060000000000000000000000000000000000000000000000000000000000000000000",
      "type": "0x2",
      "transactionHash": "0xf5c80fc6db9e3bd8a00640de11bf576adf6b8ce3b8a4273b3086b3ce953dc427",
      "transactionIndex": "0xb8",
      "blockHash": "0x660ece370c74216d18b47087b785799cef486b69e403b52f82b98392acf6e79d",
      "blockNumber": "0x25cd498",
      "gasUsed": "0xfdc8",
      "effectiveGasPrice": "0x74aa43",
      "blobGasUsed": "0xdf08",
      "from": "0xce11d6fb4f1e006e5a348230449dc387fde850cc",
      "to": "0x869f8d6e8d05ec1fdeab1d5d8d67f3d224da7571",
      "contractAddress": null,
      "daFootprintGasScalar": "0x138",
      "l1BaseFeeScalar": "0x8dd",
      "l1BlobBaseFee": "0x9c5889",
      "l1BlobBaseFeeScalar": "0x101c12",
      "l1Fee": "0xc58bbb89",
      "l1GasPrice": "0xbee27b2",
      "l1GasUsed": "0xb74"
    },
    {
      "status": "0x1",
      "cumulativeGasUsed": "0x2281c4d",
      "logs": [
        {
          "address": "0xc5cb6d1c588c5bfebd23b817ce33d9d380e50c00",
          "topics": [
            "0xa77e7c594c11a0d5d9d8e6a9132ac0db912dc0f34f5fb7d94860fe38d16410bd",
            "0x0000000000000000000000007c4fc12b49ecd94397c2801682dff26193d3281e"
          ],
          "data": "0x",
          "blockHash": "0x660ece370c74216d18b47087b785799cef486b69e403b52f82b98392acf6e79d",
          "blockNumber": "0x25cd498",
          "blockTimestamp": "0x69440613",
          "transactionHash": "0xe225adc06feea911b9d5c51a9ab29b81df1dded292a9360e4c203fcb944f0aab",
          "transactionIndex": "0xb9",
          "logIndex": "0x31e",
          "removed": false
        },
        {
          "address": "0x869f8d6e8d05ec1fdeab1d5d8d67f3d224da7571",
          "topics": [
            "0xc2617efa69bab66782fa219543714338489c4e9e178271560a91b82c3f612b58",
            "0x2d7a956f740f349f77a7e40f4e56ef19b23578a90e0ec6085e3c9f56947e75d4",
            "0x0000000000000000000000000000000000000000000000000000000000000000"
          ],
          "data": "0x000000000000000000000000c5cb6d1c588c5bfebd23b817ce33d9d380e50c0000000000000000000000000000000000000000000000000000000000000000000000000000000000000000000000000000000000000000000000000000000060000000000000000000000000000000000000000000000000000000000000002422f2caf10000000000000000000000007c4fc12b49ecd94397c2801682dff26193d3281e00000000000000000000000000000000000000000000000000000000",
          "blockHash": "0x660ece370c74216d18b47087b785799cef486b69e403b52f82b98392acf6e79d",
          "blockNumber": "0x25cd498",
          "blockTimestamp": "0x69440613",
          "transactionHash": "0xe225adc06feea911b9d5c51a9ab29b81df1dded292a9360e4c203fcb944f0aab",
          "transactionIndex": "0xb9",
          "logIndex": "0x31f",
          "removed": false
        },
        {
          "address": "0xc5cb6d1c588c5bfebd23b817ce33d9d380e50c00",
          "topics": [
            "0xa77e7c594c11a0d5d9d8e6a9132ac0db912dc0f34f5fb7d94860fe38d16410bd",
            "0x000000000000000000000000c7730086095809f70c51f8c6d9d5acc9cad2ea16"
          ],
          "data": "0x",
          "blockHash": "0x660ece370c74216d18b47087b785799cef486b69e403b52f82b98392acf6e79d",
          "blockNumber": "0x25cd498",
          "blockTimestamp": "0x69440613",
          "transactionHash": "0xe225adc06feea911b9d5c51a9ab29b81df1dded292a9360e4c203fcb944f0aab",
          "transactionIndex": "0xb9",
          "logIndex": "0x320",
          "removed": false
        },
        {
          "address": "0x869f8d6e8d05ec1fdeab1d5d8d67f3d224da7571",
          "topics": [
            "0xc2617efa69bab66782fa219543714338489c4e9e178271560a91b82c3f612b58",
            "0x2d7a956f740f349f77a7e40f4e56ef19b23578a90e0ec6085e3c9f56947e75d4",
            "0x0000000000000000000000000000000000000000000000000000000000000001"
          ],
          "data": "0x000000000000000000000000c5cb6d1c588c5bfebd23b817ce33d9d380e50c0000000000000000000000000000000000000000000000000000000000000000000000000000000000000000000000000000000000000000000000000000000060000000000000000000000000000000000000000000000000000000000000002422f2caf1000000000000000000000000c7730086095809f70c51f8c6d9d5acc9cad2ea1600000000000000000000000000000000000000000000000000000000",
          "blockHash": "0x660ece370c74216d18b47087b785799cef486b69e403b52f82b98392acf6e79d",
          "blockNumber": "0x25cd498",
          "blockTimestamp": "0x69440613",
          "transactionHash": "0xe225adc06feea911b9d5c51a9ab29b81df1dded292a9360e4c203fcb944f0aab",
          "transactionIndex": "0xb9",
          "logIndex": "0x321",
          "removed": false
        }
      ],
      "logsBloom": "0x00000000000000000000000000000000000000000000000000000000000000000000200000000000000000000000000000000000000800000002000000040000000000000000000000000001000000000080000000040000000000000000002400040000020000000000000000020800000000200000000000020000000000000400000000000000000000000000000000000000020002000000000800000000000000000000000000000000000000200000000000000000000080000000000000000000000000080000000000010400000000000000000000000000000060000000000100000000000000000000000000000000000000000000000000000000",
      "type": "0x2",
      "transactionHash": "0xe225adc06feea911b9d5c51a9ab29b81df1dded292a9360e4c203fcb944f0aab",
      "transactionIndex": "0xb9",
      "blockHash": "0x660ece370c74216d18b47087b785799cef486b69e403b52f82b98392acf6e79d",
      "blockNumber": "0x25cd498",
      "gasUsed": "0x18125",
      "effectiveGasPrice": "0x74aa43",
      "blobGasUsed": "0xdc98",
      "from": "0xce11d6fb4f1e006e5a348230449dc387fde850cc",
      "to": "0x869f8d6e8d05ec1fdeab1d5d8d67f3d224da7571",
      "contractAddress": null,
      "daFootprintGasScalar": "0x138",
      "l1BaseFeeScalar": "0x8dd",
      "l1BlobBaseFee": "0x9c5889",
      "l1BlobBaseFeeScalar": "0x101c12",
      "l1Fee": "0xc3be14de",
      "l1GasPrice": "0xbee27b2",
      "l1GasUsed": "0xb59"
    }
  ],
  "libraries": [],
  "pending": [],
  "returns": {},
  "timestamp": 1766065721118,
  "chain": 8453,
  "commit": "9437124"
}