{
  "transactions": [
    {
      "hash": "0x05fe0942ccb25120729610d40fd118efa2b212190f43e44705f84516e713814a",
      "transactionType": "CREATE2",
      "contractName": "YieldSeekerAdminTimelock",
      "contractAddress": "0x869f8d6e8d05ec1fdeab1d5d8d67f3d224da7571",
      "function": null,
      "arguments": [
        "0",
        "[0xCE11D6fb4f1e006E5a348230449Dc387fde850CC]",
        "[0xCE11D6fb4f1e006E5a348230449Dc387fde850CC]",
        "0x0000000000000000000000000000000000000000"
      ],
      "transaction": {
        "from": "0xce11d6fb4f1e006e5a348230449dc387fde850cc",
        "to": "0x4e59b44847b379578588920ca78fbf26c0b4956c",
        "gas": "0x1ca708",
        "value": "0x0",
        "input": "0x000000000000000000000000000000000000000000000000000000000000000460806040523461016657611a61803803806100198161016a565b92833981019060808183031261016657805160208201519091906001600160401b038111610166578361004d9183016101b7565b604082015190936001600160401b0382116101665761007360609161007a9385016101b7565b92016101a3565b61008330610249565b506001600160a01b038116610156575b505f5b83518110156100e0576001906100be6001600160a01b036100b78388610221565b51166102bf565b506100d9828060a01b036100d28388610221565b5116610352565b5001610096565b50905f5b82518110156101135760019061010c6001600160a01b036101058387610221565b51166103e5565b50016100e4565b7f11c24f4ead16507c69ac467fbd5e4eed5fb5c699626d2cc6d66421df253886d5604083806002558151905f82526020820152a160405161154890816104798239f35b61015f90610249565b505f610093565b5f80fd5b6040519190601f01601f191682016001600160401b0381118382101761018f57604052565b634e487b7160e01b5f52604160045260245ffd5b51906001600160a01b038216820361016657565b9080601f83011215610166578151916001600160401b03831161018f578260051b906020806101e781850161016a565b80968152019282010192831161016657602001905b8282106102095750505090565b60208091610216846101a3565b8152019101906101fc565b80518210156102355760209160051b010190565b634e487b7160e01b5f52603260045260245ffd5b6001600160a01b0381165f9081525f516020611a415f395f51905f52602052604090205460ff166102ba576001600160a01b03165f8181525f516020611a415f395f51905f5260205260408120805460ff191660011790553391905f5160206119c15f395f51905f528180a4600190565b505f90565b6001600160a01b0381165f9081525f5160206119e15f395f51905f52602052604090205460ff166102ba576001600160a01b03165f8181525f5160206119e15f395f51905f5260205260408120805460ff191660011790553391907fb09aa5aeb3702cfd50b6b62bc4532604938f21248a27a1d5ca736082b6819cc1905f5160206119c15f395f51905f529080a4600190565b6001600160a01b0381165f9081525f516020611a215f395f51905f52602052604090205460ff166102ba576001600160a01b03165f8181525f516020611a215f395f51905f5260205260408120805460ff191660011790553391907ffd643c72710c63c0180259aba6b2d05451e3591a24e58b62239378085726f783905f5160206119c15f395f51905f529080a4600190565b6001600160a01b0381165f9081525f516020611a015f395f51905f52602052604090205460ff166102ba576001600160a01b03165f8181525f516020611a015f395f51905f5260205260408120805460ff191660011790553391907fd8aa0f3194971a2a116679f7c2090f6939c8d4e01a2a8d7e41d55e5351469e63905f5160206119c15f395f51905f529080a460019056fe6080604052600436101561001a575b3615610018575f80fd5b005b5f3560e01c806301d5062a14610b2057806301ffc9a714610ab057806307bd026514610a76578063134008d3146109c357806313bc9f20146109a5578063150b7a0214610950578063248a9ca3146109265780632ab0f529146109085780632f2ff15d146108cb57806331d50750146108ad57806336568abe14610869578063584b153e1461084157806364d62353146107dc5780637958004c146107995780638065657f1461077a5780638f2a0bb0146105f55780638f61f4f5146105bb57806391d1485414610573578063a217fddf14610559578063b08e51c01461051f578063b1c5f427146104f5578063bc197c8114610460578063c4d252f514610382578063d45c443514610358578063d547741f14610314578063e38335e5146101c8578063f23a6e61146101735763f27a0c920361000e573461016f575f36600319011261016f576020600254604051908152f35b5f80fd5b3461016f5760a036600319011261016f5761018c610bcb565b50610195610be1565b506084356001600160401b03811161016f576101b5903690600401610cc2565b5060405163f23a6e6160e01b8152602090f35b6101d136610d38565b5f80527fdae2aa361dfd1ca020a396615627d436107c35eff9fe7738a3512819782d70696020527f5ba6852781629bcdcd4bdaa6de76d786f1c64b16acdac474e55bebc0ea1579515492979196919593949260ff1615610306575b8282148015906102fc575b6102e15761024e61025591888a888789888d611002565b968761131b565b5f5b81811061026757610018876113c6565b8080887fc2617efa69bab66782fa219543714338489c4e9e178271560a91b82c3f612b5888886102d86102bf8f986001998f828e6102b28f836102ad916102b896610f89565b610fad565b97610f89565b3595610fc1565b906102cc82828787611373565b60405194859485610e65565b0390a301610257565b50869063ffb0321160e01b5f5260045260245260445260645ffd5b5087821415610237565b61030f3361124d565b61022c565b3461016f57604036600319011261016f57610018600435610333610be1565b9061035361034c825f525f602052600160405f20015490565b33906112d3565b61146c565b3461016f57602036600319011261016f576004355f526001602052602060405f2054604051908152f35b3461016f57602036600319011261016f57335f9081527fc3ad33e20b0c56a223ad5104fff154aa010f8715b9c981fd38fdc60a4d1a52fb60205260409020546004359060ff1615610429576103d681610ed3565b1561040f57805f5260016020525f60408120557fbaa1eb22f2a492ba1a5fea61b8df4d27c6c8b5f3971e63bb58fa14ff72eedb705f80a2005b635ead8eb560e01b5f52600452600460021760245260445ffd5b63e2517d3f60e01b5f52336004527ffd643c72710c63c0180259aba6b2d05451e3591a24e58b62239378085726f78360245260445ffd5b3461016f5760a036600319011261016f57610479610bcb565b50610482610be1565b506044356001600160401b03811161016f576104a2903690600401610da6565b506064356001600160401b03811161016f576104c2903690600401610da6565b506084356001600160401b03811161016f576104e2903690600401610cc2565b5060405163bc197c8160e01b8152602090f35b3461016f57602061051761050836610d38565b96959095949194939293611002565b604051908152f35b3461016f575f36600319011261016f5760206040517ffd643c72710c63c0180259aba6b2d05451e3591a24e58b62239378085726f7838152f35b3461016f575f36600319011261016f5760206040515f8152f35b3461016f57604036600319011261016f5761058c610be1565b6004355f525f60205260405f209060018060a01b03165f52602052602060ff60405f2054166040519015158152f35b3461016f575f36600319011261016f5760206040517fb09aa5aeb3702cfd50b6b62bc4532604938f21248a27a1d5ca736082b6819cc18152f35b3461016f5760c036600319011261016f576004356001600160401b03811161016f57610625903690600401610d08565b906024356001600160401b03811161016f57610645903690600401610d08565b6044929192356001600160401b03811161016f57610667903690600401610d08565b9390916064356084359560a4359261067e336111c7565b808914801590610770575b6107565761069d88848489858a8f8e611002565b986106a8858b611154565b895f5b8281106106e8575089806106bb57005b60207f20fda5fd27a1ea7bf5b9567f143ac5470bb059374a27e8f67cb44f946f6d038791604051908152a2005b806001927f4cf4410cc57040e44862ef0f45f3dd5a5e02db8eb8add648d4b0e236f1d07dca8b8b61074b8f8c61073e8f928e6107378f8f906107316102ad8f8097948195610f89565b99610f89565b3597610fc1565b9060405196879687610e2d565b0390a3018a906106ab565b908863ffb0321160e01b5f5260045260245260445260645ffd5b5081891415610689565b3461016f57602061051761078d36610c24565b94939093929192610f34565b3461016f57602036600319011261016f576107b5600435610efc565b60405160048210156107c8576020918152f35b634e487b7160e01b5f52602160045260245ffd5b3461016f57602036600319011261016f5760043530330361082e577f11c24f4ead16507c69ac467fbd5e4eed5fb5c699626d2cc6d66421df253886d560406002548151908152836020820152a1600255005b63e2850c5960e01b5f523360045260245ffd5b3461016f57602036600319011261016f57602061085f600435610ed3565b6040519015158152f35b3461016f57604036600319011261016f57610882610be1565b336001600160a01b0382160361089e576100189060043561146c565b63334bd91960e11b5f5260045ffd5b3461016f57602036600319011261016f57602061085f600435610ebc565b3461016f57604036600319011261016f576100186004356108ea610be1565b9061090361034c825f525f602052600160405f20015490565b6113e4565b3461016f57602036600319011261016f57602061085f600435610ea4565b3461016f57602036600319011261016f5760206105176004355f525f602052600160405f20015490565b3461016f57608036600319011261016f57610969610bcb565b50610972610be1565b506064356001600160401b03811161016f57610992903690600401610cc2565b50604051630a85bd0160e11b8152602090f35b3461016f57602036600319011261016f57602061085f600435610e8c565b610018610a545f610a607fc2617efa69bab66782fa219543714338489c4e9e178271560a91b82c3f612b58610a4b6109fa36610c24565b7fd8aa0f3194971a2a116679f7c2090f6939c8d4e01a2a8d7e41d55e5351469e638a9995979299949394528960205260408a208a805260205260ff60408b20541615610a68575b8884848989610f34565b9889978861131b565b6102cc82828787611373565b0390a36113c6565b610a713361124d565b610a41565b3461016f575f36600319011261016f5760206040517fd8aa0f3194971a2a116679f7c2090f6939c8d4e01a2a8d7e41d55e5351469e638152f35b3461016f57602036600319011261016f5760043563ffffffff60e01b811680910361016f57602090630271189760e51b8114908115610af5575b506040519015158152f35b637965db0b60e01b811491508115610b0f575b5082610aea565b6301ffc9a760e01b14905082610b08565b3461016f5760c036600319011261016f57610b39610bcb565b602435906044356001600160401b03811161016f577f4cf4410cc57040e44862ef0f45f3dd5a5e02db8eb8add648d4b0e236f1d07dca92610b7f5f923690600401610bf7565b94909160643594610bc16084359660a43590610b9a336111c7565b610ba889828c8a8989610f34565b998a97610bb5848a611154565b60405196879687610e2d565b0390a3806106bb57005b600435906001600160a01b038216820361016f57565b602435906001600160a01b038216820361016f57565b9181601f8401121561016f578235916001600160401b03831161016f576020838186019501011161016f57565b60a060031982011261016f576004356001600160a01b038116810361016f579160243591604435906001600160401b03821161016f57610c6691600401610bf7565b90916064359060843590565b90601f801991011681019081106001600160401b03821117610c9357604052565b634e487b7160e01b5f52604160045260245ffd5b6001600160401b038111610c9357601f01601f191660200190565b81601f8201121561016f57803590610cd982610ca7565b92610ce76040519485610c72565b8284526020838301011161016f57815f926020809301838601378301015290565b9181601f8401121561016f578235916001600160401b03831161016f576020808501948460051b01011161016f57565b60a060031982011261016f576004356001600160401b03811161016f5781610d6291600401610d08565b929092916024356001600160401b03811161016f5781610d8491600401610d08565b92909291604435906001600160401b03821161016f57610c6691600401610d08565b9080601f8301121561016f578135916001600160401b038311610c93578260051b9060405193610dd96020840186610c72565b845260208085019282010192831161016f57602001905b828210610dfd5750505090565b8135815260209182019101610df0565b908060209392818452848401375f828201840152601f01601f1916010190565b929093610e5b926080959897969860018060a01b03168552602085015260a0604085015260a0840191610e0d565b9460608201520152565b610e89949260609260018060a01b0316825260208201528160408201520191610e0d565b90565b610e9590610efc565b60048110156107c85760021490565b610ead90610efc565b60048110156107c85760031490565b610ec590610efc565b60048110156107c857151590565b610edc90610efc565b60048110156107c85760018114908115610ef4575090565b600291501490565b5f52600160205260405f205480155f14610f1557505f90565b60018103610f235750600390565b421015610f2f57600190565b600290565b94610f6a610f8394959293604051968795602087019960018060a01b03168a52604087015260a0606087015260c0860191610e0d565b91608084015260a083015203601f198101835282610c72565b51902090565b9190811015610f995760051b0190565b634e487b7160e01b5f52603260045260245ffd5b356001600160a01b038116810361016f5790565b9190811015610f995760051b81013590601e198136030182121561016f5701908135916001600160401b03831161016f57602001823603811361016f579190565b9693949190969592956040519660208801988060c08a0160a08c525260e0890192905f905b80821061111e57505050878203601f190160408901528082526001600160fb1b03811161016f579087959394929160051b8092602083013701848103606086015260208101849052600584901b8101604090810194908201915f90889036829003601e1901905b8484106110b857505050505050610f839450608084015260a083015203601f198101835282610c72565b91939597909294969850601f19601f198383030101875289358381121561016f57840190602082359201916001600160401b03811161016f57803603831361016f5761110a6020928392600195610e0d565b9b0197019401918a9896999795939161108e565b91939091908435906001600160a01b038216820361016f576001600160a01b039091168152602090810194019160010190611027565b9061115e82610ebc565b6111af576002548082106111995750420190814211611185575f52600160205260405f2055565b634e487b7160e01b5f52601160045260245ffd5b90635433660960e01b5f5260045260245260445ffd5b50635ead8eb560e01b5f52600452600160245260445ffd5b6001600160a01b0381165f9081527f3412d5605ac6cd444957cedb533e5dacad6378b4bc819ebe3652188a665066d5602052604090205460ff16156112095750565b63e2517d3f60e01b5f9081526001600160a01b03919091166004527fb09aa5aeb3702cfd50b6b62bc4532604938f21248a27a1d5ca736082b6819cc1602452604490fd5b6001600160a01b0381165f9081527fdae2aa361dfd1ca020a396615627d436107c35eff9fe7738a3512819782d7069602052604090205460ff161561128f5750565b63e2517d3f60e01b5f9081526001600160a01b03919091166004527fd8aa0f3194971a2a116679f7c2090f6939c8d4e01a2a8d7e41d55e5351469e63602452604490fd5b90815f525f60205260405f2060018060a01b0382165f5260205260ff60405f205416156112fe575050565b63e2517d3f60e01b5f5260018060a01b031660045260245260445ffd5b61132481610e8c565b1561135c57508015158061134c575b61133a5750565b63121534c360e31b5f5260045260245ffd5b5061135681610ea4565b15611333565b635ead8eb560e01b5f52600452600460245260445ffd5b6113bb935f93928493826040519384928337810185815203925af13d156113be573d9061139f82610ca7565b916113ad6040519384610c72565b82523d5f602084013e6114ec565b50565b6060906114ec565b6113cf81610e8c565b1561135c575f526001602052600160405f2055565b5f818152602081815260408083206001600160a01b038616845290915290205460ff16611466575f818152602081815260408083206001600160a01b0395909516808452949091528120805460ff19166001179055339291907f2f8788117e7eff1d82e926ec794901d17c78024a50270940304540a733656f0d9080a4600190565b50505f90565b5f818152602081815260408083206001600160a01b038616845290915290205460ff1615611466575f818152602081815260408083206001600160a01b0395909516808452949091528120805460ff19169055339291907ff6391f5c32d9c69d2a47ea670b442974b53935d1edc7fd64eb21e047a839171b9080a4600190565b156114f45790565b80511561150357602081519101fd5b63d6bda27560e01b5f5260045ffdfea2646970667358221220021e4b930b4f525db5f25ee51c949b8aa874a92622c0a9e38abb4575f7a1522864736f6c634300081c00332f8788117e7eff1d82e926ec794901d17c78024a50270940304540a733656f0d3412d5605ac6cd444957cedb533e5dacad6378b4bc819ebe3652188a665066d5dae2aa361dfd1ca020a396615627d436107c35eff9fe7738a3512819782d7069c3ad33e20b0c56a223ad5104fff154aa010f8715b9c981fd38fdc60a4d1a52fbad3228b676f7d3cd4284a5443f17f1962b36e491b30a40b2405849e597ba5fb50000000000000000000000000000000000000000000000000000000000000000000000000000000000000000000000000000000000000000000000000000008000000000000000000000000000000000000000000000000000000000000000c000000000000000000000000000000000000000000000000000000000000000000000000000000000000000000000000000000000000000000000000000000001000000000000000000000000ce11d6fb4f1e006e5a348230449dc387fde850cc0000000000000000000000000000000000000000000000000000000000000001000000000000000000000000ce11d6fb4f1e006e5a348230449dc387fde850cc",
        "nonce": "0x37",
        "chainId": "0x2105"
      },
      "additionalContracts": [],
      "isFixedGasLimit": false
    },
    {
      "hash": "0xef6b59ae3c98db1ff97b16546eec8531c47949996d0e37267dd8b3721cc07d45",
      "transactionType": "CREATE2",
      "contractName": "YieldSeekerAgentWalletFactory",
      "contractAddress": "0x9b97e678fbc4b5e97516d452e057e15a9b5b8e1c",
      "function": null,
      "arguments": [
        "0x869f8D6E8d05EC1fDEAB1d5d8D67f3D224da7571",
        "0x2eD35991D466E8114d49BDA6f602c3795305006D"
      ],
      "transaction": {
        "from": "0xce11d6fb4f1e006e5a348230449dc387fde850cc",
        "to": "0x4e59b44847b379578588920ca78fbf26c0b4956c",
        "gas": "0x1b3b83",
        "value": "0x0",
        "input": "0x000000000000000000000000000000000000000000000000000000000000000460803461019957601f61152338819003918201601f19168301916001600160401b0383118484101761019d57808492604094855283398101031261019957610052602061004b836101b1565b92016101b1565b6001600160a01b03821691908215610164576001600160a01b03811692831561011f5761008161008c936101c5565b6100e6575b5061023b565b6100a0575b604051611177908161032c8239f35b5f5160206114e35f395f51905f525f5260016020526100df907f2737f4fbde60fa8ca451e7409d70a576ffb90aaa6a453ecd5bd224428e0091036102bb565b505f610091565b5f80526001602052610118907fa6eef7e35abe7026729641147f7915573c7e97b47efa546f5f6e3230263bcb496102bb565b505f610086565b60405162461bcd60e51b815260206004820152601560248201527f496e76616c6964206167656e742063726561746f7200000000000000000000006044820152606490fd5b60405162461bcd60e51b815260206004820152600d60248201526c24b73b30b634b21030b236b4b760991b6044820152606490fd5b5f80fd5b634e487b7160e01b5f52604160045260245ffd5b51906001600160a01b038216820361019957565b6001600160a01b0381165f9081525f5160206115035f395f51905f52602052604090205460ff16610236576001600160a01b03165f8181525f5160206115035f395f51905f5260205260408120805460ff191660011790553391905f5160206114a35f395f51905f528180a4600190565b505f90565b6001600160a01b0381165f9081525f5160206114c35f395f51905f52602052604090205460ff16610236576001600160a01b03165f8181525f5160206114c35f395f51905f5260205260408120805460ff191660011790553391905f5160206114e35f395f51905f52905f5160206114a35f395f51905f529080a4600190565b6001810190825f528160205260405f2054155f146103245780546801000000000000000081101561019d5760018101808355811015610310578390825f5260205f20015554915f5260205260405f2055600190565b634e487b7160e01b5f52603260045260245ffd5b5050505f9056fe6080806040526004361015610012575f80fd5b5f3560e01c9081630155e09814610a185750806301ffc9a7146109a85780630783797e14610785578063244c9c291461066c578063248a9ca31461063a5780632f2ff15d146105d557806336568abe1461059157806350b5c16a14610569578063545f9e931461042c5780635b34b8231461034557806368fe596f1461031d5780639010d07c146102d757806391d148541461028f578063a1dcf28214610268578063a217fddf1461024e578063a3246ad3146101da578063c68e00fb1461015f578063ca15c873146101355763d547741f146100ed575f80fd5b346101315760403660031901126101315761012f60043561010c610a67565b9061012a610125825f525f602052600160405f20015490565b610bbe565b610bf6565b005b5f80fd5b34610131576020366003190112610131576004355f526001602052602060405f2054604051908152f35b34610131576020366003190112610131576004356001600160a01b038116908190036101315761018d610b6f565b80156101cb57600280546001600160a01b031916821790557fab64f92ab780ecbf4f3866f57cee465ff36c89450dcce20237ca7a8d81fb7d135f80a2005b63e6c4247b60e01b5f5260045ffd5b34610131576020366003190112610131576004355f52600160205260405f206040519081602082549182815201915f5260205f20905f5b818110610238576102348561022881870382610af9565b60405191829182610ab7565b0390f35b8254845260209093019260019283019201610211565b34610131575f3660031901126101315760206040515f8152f35b34610131575f3660031901126101315760206040515f5160206111225f395f51905f528152f35b34610131576040366003190112610131576102a8610a67565b6004355f525f60205260405f209060018060a01b03165f52602052602060ff60405f2054166040519015158152f35b34610131576040366003190112610131576004355f526001602052602061030460405f2060243590610d38565b905460405160039290921b1c6001600160a01b03168152f35b34610131575f366003190112610131576002546040516001600160a01b039091168152602090f35b34610131576020366003190112610131576004356001600160a01b0381169081900361013157610373610b6f565b80156101cb5760405163285ae0b560e11b8152602081600481305afa908115610421575f916103df575b50600380546001600160a01b031916831790556001600160a01b03167f482b97c53e48ffa324a976e2738053e9aff6eee04d8aac63b10e19411d869b825f80a3005b90506020813d602011610419575b816103fa60209383610af9565b8101031261013157516001600160a01b0381168103610131578261039d565b3d91506103ed565b6040513d5f823e3d90fd5b34610131576020600b6104fb61053a61044436610a7d565b604080516001600160a01b038516818a0190815260208101859052929694959392899290919061048190829084015b03601f198101835282610af9565b5190209561050961028c936104eb6040519861049f8688018b610af9565b868a52858a0196610e96883960025460405163c350a1b560e01b888201526001600160a01b03928316602482015260448101949094529481166064840152909316928160848101610473565b6040519687918583019485610b1b565b03601f198101875286610af9565b60405194859383850197518091895e840190838201905f8252519283915e01015f815203601f198101835282610af9565b51902090604051916040830152838201523081520160ff8153605590206040516001600160a01b039091168152f35b34610131575f366003190112610131576003546040516001600160a01b039091168152602090f35b34610131576040366003190112610131576105aa610a67565b336001600160a01b038216036105c65761012f90600435610bf6565b63334bd91960e11b5f5260045ffd5b34610131576040366003190112610131576004356105f1610a67565b610609610125835f525f602052600160405f20015490565b6106138183610c30565b61061957005b5f9182526001602052604090912061012f916001600160a01b031690610d4d565b346101315760203660031901126101315760206106646004355f525f602052600160405f20015490565b604051908152f35b34610131575f366003190112610131575f5160206111225f395f51905f525f5260016020527f2737f4fbde60fa8ca451e7409d70a576ffb90aaa6a453ecd5bd224428e009103546106bc81610b57565b906106ca6040519283610af9565b808252601f196106d982610b57565b013660208401375f5b8181106106f757604051806102348582610ab7565b5f5160206111225f395f51905f525f526001602052610736817f2737f4fbde60fa8ca451e7409d70a576ffb90aaa6a453ecd5bd224428e009103610d38565b9054845160039290921b1c6001600160a01b03169190811015610771576001600160a01b03909116600582901b8401602001526001016106e2565b634e487b7160e01b5f52603260045260245ffd5b346101315761079336610a7d565b335f9081527fe8424ec1ecf42e9e88998e7da204f6091f75a50979eee18faf18b49b474940b0602052604090205490919060ff1615610984576001600160a01b0383169182156101cb576001600160a01b0381169384156101cb576002546001600160a01b031690811561097557845f52600460205260405f20845f5260205260018060a01b0360405f20541661095e57604080516001600160a01b038316602082019081529181018690528593926108a5929091610897919061085a8160608101610473565b51902060405163c350a1b560e01b60208201526001600160a01b039384166024820152604481019690965295909116606485015283906084820190565b03601f198101845283610af9565b6040519161028c908184019284841067ffffffffffffffff85111761094a5784936108d493610e968639610b1b565b03905ff5918215610421576020937f24924211b2afa1a1fa2d9d9361ccc452c0df4f982d439cdcc311140e55b3f56d859460018060a01b0316948592845f526004825260405f20865f52825260405f20846bffffffffffffffffffffffff60a01b825416179055604051908152a4604051908152f35b634e487b7160e01b5f52604160045260245ffd5b8385633de717e160e21b5f5260045260245260445ffd5b630986dde360e31b5f5260045ffd5b63e2517d3f60e01b5f52336004525f5160206111225f395f51905f5260245260445ffd5b346101315760203660031901126101315760043563ffffffff60e01b811680910361013157602090635a05180f60e01b81149081156109ed575b506040519015158152f35b637965db0b60e01b811491508115610a07575b50826109e2565b6301ffc9a760e01b14905082610a00565b34610131576040366003190112610131576004356001600160a01b0381169190829003610131575f91825260046020908152604080842060243585528252909220546001600160a01b03168152f35b602435906001600160a01b038216820361013157565b6060906003190112610131576004356001600160a01b03811681036101315790602435906044356001600160a01b03811681036101315790565b60206040818301928281528451809452019201905f5b818110610ada5750505090565b82516001600160a01b0316845260209384019390920191600101610acd565b90601f8019910116810190811067ffffffffffffffff82111761094a57604052565b6001600160a01b0390911681526040602080830182905283519183018290526060938291018484015e5f828201840152601f01601f1916010190565b67ffffffffffffffff811161094a5760051b60200190565b335f9081527fad3228b676f7d3cd4284a5443f17f1962b36e491b30a40b2405849e597ba5fb5602052604090205460ff1615610ba757565b63e2517d3f60e01b5f52336004525f60245260445ffd5b5f8181526020818152604080832033845290915290205460ff1615610be05750565b63e2517d3f60e01b5f523360045260245260445ffd5b610c008282610cb8565b9182610c0b57505090565b5f91825260016020526040909120610c2c916001600160a01b031690610dbc565b5090565b5f818152602081815260408083206001600160a01b038616845290915290205460ff16610cb2575f818152602081815260408083206001600160a01b0395909516808452949091528120805460ff19166001179055339291907f2f8788117e7eff1d82e926ec794901d17c78024a50270940304540a733656f0d9080a4600190565b50505f90565b5f818152602081815260408083206001600160a01b038616845290915290205460ff1615610cb2575f818152602081815260408083206001600160a01b0395909516808452949091528120805460ff19169055339291907ff6391f5c32d9c69d2a47ea670b442974b53935d1edc7fd64eb21e047a839171b9080a4600190565b8054821015610771575f5260205f2001905f90565b6001810190825f528160205260405f2054155f14610db55780546801000000000000000081101561094a57610da2610d8c826001879401855584610d38565b819391549060031b91821b915f19901b19161790565b905554915f5260205260405f2055600190565b5050505f90565b906001820191815f528260205260405f20548015155f14610e8d575f198101818111610e795782545f19810191908211610e7957818103610e44575b50505080548015610e30575f190190610e118282610d38565b8154905f199060031b1b19169055555f526020525f6040812055600190565b634e487b7160e01b5f52603160045260245ffd5b610e64610e54610d8c9386610d38565b90549060031b1c92839286610d38565b90555f528360205260405f20555f8080610df8565b634e487b7160e01b5f52601160045260245ffd5b505050505f9056fe608060405261028c8038038061001481610158565b9283398101604082820312610140578151916001600160a01b03831690818403610140576020810151906001600160401b038211610140570182601f82011215610140578051906001600160401b0382116101445761007c601f8301601f1916602001610158565b938285526020838301011161014057815f9260208093018387015e84010152823b1561012e577f360894a13ba1a3210667c828492db98dca3e2076cc3735a920a3ca505d382bbc80546001600160a01b031916821790557fbc7cd75a20ee27fd9adebab32041f755214dbc6bffa90cc0225b39da2e5c2d3b5f80a2805115610117576101079161017d565b505b6040516082908161020a8239f35b505034156101095763b398979f60e01b5f5260045ffd5b634c9c8ce360e01b5f5260045260245ffd5b5f80fd5b634e487b7160e01b5f52604160045260245ffd5b6040519190601f01601f191682016001600160401b0381118382101761014457604052565b905f8091602081519101845af480806101f6575b156101b15750506040513d81523d5f602083013e60203d82010160405290565b156101d657639996b31560e01b5f9081526001600160a01b0391909116600452602490fd5b3d156101e7576040513d5f823e3d90fd5b63d6bda27560e01b5f5260045ffd5b503d1515806101915750813b151561019156fe60806040527f360894a13ba1a3210667c828492db98dca3e2076cc3735a920a3ca505d382bbc545f9081906001600160a01b0316368280378136915af43d5f803e156048573d5ff35b3d5ffdfea26469706673582212207f125fa0cf30ddc5a30b7ba2775bcdce5866270a752ef673e18f7031b3cc3ebf64736f6c634300081c00332fbb137a62ebd69bc6a41f4b4e96301da2105eef211fb1a3c75e8cfb9bfe7879a26469706673582212202ca46f9e947dc9c7df5d8bc5454005d533b059d6f1b82c717ad1db330672d8ee64736f6c634300081c00332f8788117e7eff1d82e926ec794901d17c78024a50270940304540a733656f0de8424ec1ecf42e9e88998e7da204f6091f75a50979eee18faf18b49b474940b02fbb137a62ebd69bc6a41f4b4e96301da2105eef211fb1a3c75e8cfb9bfe7879ad3228b676f7d3cd4284a5443f17f1962b36e491b30a40b2405849e597ba5fb5000000000000000000000000869f8d6e8d05ec1fdeab1d5d8d67f3d224da75710000000000000000000000002ed35991d466e8114d49bda6f602c3795305006d",
        "nonce": "0x38",
        "chainId": "0x2105"
      },
      "additionalContracts": [],
      "isFixedGasLimit": false
    },
    {
      "hash": "0x2093398e08d03fe7fc24a57892190c7ae4df6e53c3ce5f39e03b1fdca0083163",
      "transactionType": "CREATE2",
      "contractName": "YieldSeekerAgentWallet",
      "contractAddress": "0x6c99855b07b0bb62b0d9e3c71a4094f01388aff5",
      "function": null,
      "arguments": [
        "0x9b97e678Fbc4b5e97516D452E057E15a9B5B8E1C"
      ],
      "transaction": {
        "from": "0xce11d6fb4f1e006e5a348230449dc387fde850cc",
        "to": "0x4e59b44847b379578588920ca78fbf26c0b4956c",
        "gas": "0x266295",
        "value": "0x0",
        "input": "0x000000000000000000000000000000000000000000000000000000000000000460c03461013b57601f6120da38819003918201601f19168301916001600160401b0383118484101761013f5780849260209460405283398101031261013b57516001600160a01b0381169081900361013b573060805260a0525f5160206120ba5f395f51905f525460ff8160401c1661012c576002600160401b03196001600160401b038216016100d6575b604051611f6690816101548239608051818181610b7201528181610c4c0152611018015260a0518181816102d601528181610cb301528181610fb30152818161127501526116760152f35b6001600160401b0319166001600160401b039081175f5160206120ba5f395f51905f52556040519081527fc7f505b2f371ae2175ee4913f4499e1f2633a7b5936321eed1cdaeb6115181d290602090a15f61008b565b63f92ee8a960e01b5f5260045ffd5b5f80fd5b634e487b7160e01b5f52604160045260245ffdfe6080604052600436101561001a575b3615610018575f80fd5b005b5f5f3560e01c806318dfb3c714611367578063244c9c29146112a45780632dd3100014611260578063367ad9e214610f715780633a871cdd14610e9e5780634f1ef28614610bfb57806350b5c16a14610bc657806352d1902d14610b5f57806354d3819d146109bd578063718d8dc51461090b57806387f2f0b61461083f5780638da5cb5b1461080a57806397ef9655146107dc578063ad3cb1cc1461078f578063b0246dc11461073f578063b0d691fe14610710578063b1588fb6146106cb578063b61d27f61461067d578063c350a1b5146103e8578063cdf456e1146103b3578063d087d28814610313578063d8adf13914610258578063e9490cac1461021b5763fb04898d1461012d575061000e565b3461021857604036600319011261021857610146611408565b6024359061016b60018060a01b035f516020611ef15f395f51905f52541633146114f5565b5f516020611eb15f395f51905f52546040516370a0823160e01b815230600482015290602090829060249082906001600160a01b03165afa801561020d57839185916101d4575b50106101c557906101c291611b67565b80f35b631e9acf1760e31b8352600483fd5b9150506020813d602011610205575b816101f06020938361141e565b81010312610201578290515f6101b2565b5f80fd5b3d91506101e3565b6040513d86823e3d90fd5b80fd5b503461021857806003193601126102185760207f7806362b894185d934e80baf5730588fbd006dd31fcb4dcacbeccfeb51c6993854604051908152f35b50346102185780600319360112610218575f516020611ef15f395f51905f52546001600160a01b031633148015610304575b80156102d2575b1561029e576101c2611667565b60405162461bcd60e51b815260206004820152600c60248201526b6f6e6c792073796e6365727360a01b6044820152606490fd5b50337f00000000000000000000000000000000000000000000000000000000000000006001600160a01b031614610291565b5061030e336115f0565b61028a565b5034610218578060031936011261021857604051631aab3f0d60e11b81523060048201526024810182905290602082604481735ff137d4b0fdcd49dca30c7cf57e578a026d27895afa9081156103a75790610374575b602090604051908152f35b506020813d60201161039f575b8161038e6020938361141e565b810103126102015760209051610369565b3d9150610381565b604051903d90823e3d90fd5b50346102185780600319360112610218575f516020611eb15f395f51905f52546040516001600160a01b039091168152602090f35b503461021857606036600319011261021857610402611408565b6044356001600160a01b0381169190829003610679575f516020611f115f395f51905f52549060ff8260401c1615916001600160401b03811680159081610671575b6001149081610667575b15908161065e575b5061064f5767ffffffffffffffff1981166001175f516020611f115f395f51905f525582610623575b506001600160a01b03169182156105ee5780156105b457826001600160601b0360a01b5f516020611ef15f395f51905f525416175f516020611ef15f395f51905f52556024357f7806362b894185d934e80baf5730588fbd006dd31fcb4dcacbeccfeb51c69938556001600160601b0360a01b5f516020611eb15f395f51905f525416175f516020611eb15f395f51905f525561051a611667565b60405191735ff137d4b0fdcd49dca30c7cf57e578a026d27897ed85ca086af8cd244972a2f5c120c23ed58e508f2922c683db6a936a3838f1b8580a361055e575080f35b60207fc7f505b2f371ae2175ee4913f4499e1f2633a7b5936321eed1cdaeb6115181d29168ff0000000000000000195f516020611f115f395f51905f5254165f516020611f115f395f51905f525560018152a180f35b60405162461bcd60e51b8152602060048201526012602482015271125b9d985b1a590818985cd948185cdcd95d60721b6044820152606490fd5b60405162461bcd60e51b815260206004820152600d60248201526c24b73b30b634b21037bbb732b960991b6044820152606490fd5b68ffffffffffffffffff191668010000000000000001175f516020611f115f395f51905f52555f61047f565b63f92ee8a960e01b8552600485fd5b9050155f610456565b303b15915061044e565b849150610444565b8280fd5b503461021857606036600319011261021857610697611408565b506044356001600160401b0381116106c757906106b9600492369084016114c8565b5050631eb49d6d60e11b8152fd5b5080fd5b5034610218576020366003190112610218576101c26106e8611408565b61070960018060a01b035f516020611ef15f395f51905f52541633146114f5565b4790611c36565b50346102185780600319360112610218576020604051735ff137d4b0fdcd49dca30c7cf57e578a026d27898152f35b503461021857604036600319011261021857610759611408565b6024359061077e60018060a01b035f516020611ef15f395f51905f52541633146114f5565b8147106101c557906101c291611c36565b5034610218578060031936011261021857506107d86040516107b260408261141e565b60058152640352e302e360dc1b60208201526040519182916020835260208301906114a4565b0390f35b50346102185760203660031901126102185760206108006107fb611408565b6115f0565b6040519015158152f35b50346102185780600319360112610218575f516020611ef15f395f51905f52546040516001600160a01b039091168152602090f35b503461021857602036600319011261021857602461085b611408565b61087c60018060a01b035f516020611ef15f395f51905f52541633146114f5565b5f516020611eb15f395f51905f52546040516370a0823160e01b81523060048201529260209184919082906001600160a01b03165afa9081156109005783916108ca575b6101c29250611b67565b90506020823d6020116108f8575b816108e56020938361141e565b81010312610201576101c29151906108c0565b3d91506108d8565b6040513d85823e3d90fd5b50604036600319011261021857610920611408565b90602435906001600160401b038211610218576107d861097d8461094736600487016114c8565b9160018060a01b035f516020611ef15f395f51905f525416331480156109ae575b8015610991575b61097890611542565b61198b565b6040519182916020835260208301906114a4565b5033735ff137d4b0fdcd49dca30c7cf57e578a026d27891461096f565b506109b8336115f0565b610968565b506109c7366113b8565b919260018060a01b035f516020611ef15f395f51905f52541633148015610b50575b8015610b33575b6109f990611542565b828403610b2457610a098461157f565b94610a17604051968761141e565b848652601f19610a268661157f565b01815b818110610b13575050805b85811015610aab57600581901b83810135906001600160a01b0382168203610aa75786831015610a935760019291610a71610a7792880188611596565b9161198b565b610a81828a6115c8565b52610a8c81896115c8565b5001610a34565b634e487b7160e01b84526032600452602484fd5b8380fd5b5085906040519182916020830160208452825180915260408401602060408360051b870101940192905b828210610ae457505050500390f35b91936001919395506020610b038192603f198a820301865288516114a4565b9601920192018594939192610ad5565b806060602080938b01015201610a29565b63e6c4247b60e01b8552600485fd5b5033735ff137d4b0fdcd49dca30c7cf57e578a026d2789146109f0565b50610b5a336115f0565b6109e9565b50346102185780600319360112610218577f00000000000000000000000000000000000000000000000000000000000000006001600160a01b03163003610bb75760206040515f516020611ed15f395f51905f528152f35b63703e46dd60e11b8152600490fd5b50346102185780600319360112610218575f516020611e715f395f51905f52546040516001600160a01b039091168152602090f35b50604036600319011261021857610c10611408565b906024356001600160401b0381116106c757366023820112156106c757610c4190369060248160040135910161146e565b916001600160a01b037f000000000000000000000000000000000000000000000000000000000000000016308114908115610e7c575b50610e6d57610c9d60018060a01b035f516020611ef15f395f51905f52541633146114f5565b6040516368fe596f60e01b8152906020826004817f00000000000000000000000000000000000000000000000000000000000000006001600160a01b03165afa918215610900578392610e31575b506001600160a01b0381811692168203610e22576040516352d1902d60e01b815293602085600481865afa80958596610dea575b50610d3857634c9c8ce360e01b84526004839052602484fd5b9091845f516020611ed15f395f51905f528103610dd85750823b15610dc6575f516020611ed15f395f51905f5280546001600160a01b031916821790557fbc7cd75a20ee27fd9adebab32041f755214dbc6bffa90cc0225b39da2e5c2d3b8480a2805115610dad57610da991611d62565b5080f35b505034610db75780f35b63b398979f60e01b8152600490fd5b634c9c8ce360e01b8452600452602483fd5b632a87526960e21b8552600452602484fd5b9095506020813d602011610e1a575b81610e066020938361141e565b81010312610e165751945f610d1f565b8480fd5b3d9150610df9565b632c8cb44760e21b8352600483fd5b9091506020813d602011610e65575b81610e4d6020938361141e565b8101031261067957610e5e9061152e565b905f610ceb565b3d9150610e40565b63703e46dd60e11b8252600482fd5b5f516020611ed15f395f51905f52546001600160a01b0316141590505f610c77565b503461021857606036600319011261021857600435906001600160401b0382116102185761016060031983360301126102185760443590735ff137d4b0fdcd49dca30c7cf57e578a026d27893303610f2c57610f02602093602435906004016118c6565b9180610f13575b5050604051908152f35b81808092335f19f150610f2461195c565b505f80610f09565b60405162461bcd60e51b815260206004820152601c60248201527f6163636f756e743a206e6f742066726f6d20456e747279506f696e74000000006044820152606490fd5b5034610201575f36600319011261020157610fa360018060a01b035f516020611ef15f395f51905f52541633146114f5565b6040516368fe596f60e01b8152907f00000000000000000000000000000000000000000000000000000000000000006001600160a01b0316602083600481845afa9283156111e8575f93611224575b50610ffb611667565b60209260405161100b858261141e565b5f81526001600160a01b037f000000000000000000000000000000000000000000000000000000000000000016308114908115611202575b506111f3578460049361106d60018060a01b035f516020611ef15f395f51905f52541633146114f5565b6040516368fe596f60e01b815294859182905afa9283156111e8575f936111b1575b506001600160a01b03828116931683036111a2576040516352d1902d60e01b8152948086600481875afa9586915f97611172575b50506110dd57634c9c8ce360e01b84526004839052602484fd5b9091845f516020611ed15f395f51905f5281036111605750823b1561114e575f516020611ed15f395f51905f5280546001600160a01b031916821790557fbc7cd75a20ee27fd9adebab32041f755214dbc6bffa90cc0225b39da2e5c2d3b5f80a280511561001857610da991611d62565b634c9c8ce360e01b5f5260045260245ffd5b632a87526960e21b5f5260045260245ffd5b9080929750813d831161119b575b61118a818361141e565b810103126102015751945f806110c3565b503d611180565b632c8cb44760e21b5f5260045ffd5b9092508481813d83116111e1575b6111c9818361141e565b81010312610201576111da9061152e565b915f61108f565b503d6111bf565b6040513d5f823e3d90fd5b63703e46dd60e11b5f5260045ffd5b5f516020611ed15f395f51905f52546001600160a01b0316141590505f611043565b9092506020813d602011611258575b816112406020938361141e565b81010312610201576112519061152e565b915f610ff2565b3d9150611233565b34610201575f366003190112610201576040517f00000000000000000000000000000000000000000000000000000000000000006001600160a01b03168152602090f35b34610201575f366003190112610201576040518060205f516020611e915f395f51905f5254928381520180925f516020611e915f395f51905f525f5260205f20905f5b81811061134857505050816112fd91038261141e565b604051918291602083019060208452518091526040830191905f5b818110611326575050500390f35b82516001600160a01b0316845285945060209384019390920191600101611318565b82546001600160a01b03168452602090930192600192830192016112e7565b3461020157611375366113b8565b50505050631eb49d6d60e11b5f5260045ffd5b9181601f84011215610201578235916001600160401b038311610201576020808501948460051b01011161020157565b6040600319820112610201576004356001600160401b03811161020157816113e291600401611388565b92909291602435906001600160401b0382116102015761140491600401611388565b9091565b600435906001600160a01b038216820361020157565b90601f801991011681019081106001600160401b0382111761143f57604052565b634e487b7160e01b5f52604160045260245ffd5b6001600160401b03811161143f57601f01601f191660200190565b92919261147a82611453565b91611488604051938461141e565b829481845281830111610201578281602093845f960137010152565b805180835260209291819084018484015e5f828201840152601f01601f1916010190565b9181601f84011215610201578235916001600160401b038311610201576020838186019501011161020157565b156114fc57565b60405162461bcd60e51b815260206004820152600a60248201526937b7363c9037bbb732b960b11b6044820152606490fd5b51906001600160a01b038216820361020157565b1561154957565b60405162461bcd60e51b815260206004820152600e60248201526d6f6e6c79206578656375746f727360901b6044820152606490fd5b6001600160401b03811161143f5760051b60200190565b903590601e198136030182121561020157018035906001600160401b0382116102015760200191813603831361020157565b80518210156115dc5760209160051b010190565b634e487b7160e01b5f52603260045260245ffd5b5f516020611e915f395f51905f5254905f5b82811015611660575f516020611e915f395f51905f525f527f0eeb8a415dcf841fa80c6dcf25b20cb305a1a6d5cfd76af09b03e72abcec44868101546001600160a01b0383811691161461165857600101611602565b505050600190565b5050505f90565b60405163244c9c2960e01b81527f00000000000000000000000000000000000000000000000000000000000000006001600160a01b0316905f81600481855afa9081156111e8575f9161182e575b508051906001600160401b03821161143f5768010000000000000000821161143f575f516020611e915f395f51905f5254825f516020611e915f395f51905f52558083106117de575b506020015f516020611e915f395f51905f525f5260205f205f5b8381106117c1575050505060206004916040519283809263285ae0b560e11b82525afa9081156111e8575f9161177f575b5060018060a01b03166001600160601b0360a01b5f516020611e715f395f51905f525416175f516020611e715f395f51905f5255565b90506020813d6020116117b9575b8161179a6020938361141e565b8101031261020157516001600160a01b0381168103610201575f611749565b3d915061178d565b82516001600160a01b031681830155602090920191600101611718565b5f516020611e915f395f51905f525f527f0eeb8a415dcf841fa80c6dcf25b20cb305a1a6d5cfd76af09b03e72abcec44869081019083015b81811061182357506116fe565b5f8155600101611816565b90503d805f833e61183f818361141e565b810190602081830312610201578051906001600160401b03821161020157019080601f830112156102015781516118758161157f565b92611883604051948561141e565b81845260208085019260051b82010192831161020157602001905b8282106118ae575050505f6116b5565b602080916118bb8461152e565b81520191019061189e565b61191790611920927f19457468657265756d205369676e6564204d6573736167653a0a3332000000005f52601c5261191161190a603c5f2092610140810190611596565b369161146e565b90611cb4565b90929192611cee565b5f516020611ef15f395f51905f52546001600160a01b038281169116146119575761194a906115f0565b61195357600190565b5f90565b505f90565b3d15611986573d9061196d82611453565b9161197b604051938461141e565b82523d5f602084013e565b606090565b90929160248110611b585780600411610201576020600319858381010301126102015760048401356001600160a01b03811690819003610201575f516020611e715f395f51905f52546040805163142b74b560e11b8152600481019390935290829060249082906001600160a01b03165afa9081156111e8575f905f92611b0d575b5015908115611af6575b50611ad5575f8060405183878237808481018381520390855af493611a3a61195c565b9415611aaf57907ffed7f84a4776977ece28604db1631d8092ee61747da07724f8574527dc9bf76591611aaa60608360405194859460408652816040870152838601375f848201830152601f01601f19168301838103820160208501526001600160a01b039096169501876114a4565b0390a2565b60405163c2ac6b1560e01b81526020600482015280611ad160248201886114a4565b0390fd5b5063fc6da03f60e01b5f9081526001600160a01b0391909116600452602490fd5b6001600160a01b038481169116141590505f611a17565b9150506040813d604011611b50575b81611b296040938361141e565b81010312610201578051908115158203610201576020611b49910161152e565b905f611a0d565b3d9150611b1c565b63e6c4247b60e01b5f5260045ffd5b6001600160a01b03168015611b585760018060a01b035f516020611eb15f395f51905f5254169160405163a9059cbb60e01b5f52826004528160245260205f60448180885af160015f5114811615611c17575b8160405215611c045760207f8c0281578dec46ac28aa238d1ddc3bce894975318c50432a4b4c82e5877762169160018060a01b035f516020611ef15f395f51905f525416938152a4565b83635274afe760e01b5f5260045260245ffd5b6001811516611c2d57843b15153d151616611bba565b503d5f823e3d90fd5b6001600160a01b03811691908215611b58575f80808481945af1611c5861195c565b5015611ca5575f516020611ef15f395f51905f52546040519182526001600160a01b0316907f5c3457fa8f0624848f7477f9bc10f88c2c14a6f88ff9dfdfb6f6978a9dea47a890602090a3565b6312171d8360e31b5f5260045ffd5b8151919060418303611ce457611cdd9250602082015190606060408401519301515f1a90611dee565b9192909190565b50505f9160029190565b6004811015611d4e5780611d00575050565b60018103611d175763f645eedf60e01b5f5260045ffd5b60028103611d32575063fce698f760e01b5f5260045260245ffd5b600314611d3c5750565b6335e2f38360e21b5f5260045260245ffd5b634e487b7160e01b5f52602160045260245ffd5b905f8091602081519101845af48080611ddb575b15611d965750506040513d81523d5f602083013e60203d82010160405290565b15611dbb57639996b31560e01b5f9081526001600160a01b0391909116600452602490fd5b3d15611dcc576040513d5f823e3d90fd5b63d6bda27560e01b5f5260045ffd5b503d151580611d765750813b1515611d76565b91907f7fffffffffffffffffffffffffffffff5d576e7357a4501ddfe92f46681b20a08411611e65579160209360809260ff5f9560405194855216868401526040830152606082015282805260015afa156111e8575f516001600160a01b03811615611e5b57905f905f90565b505f906001905f90565b5050505f916003919056fe7806362b894185d934e80baf5730588fbd006dd31fcb4dcacbeccfeb51c6993a7806362b894185d934e80baf5730588fbd006dd31fcb4dcacbeccfeb51c6993b7806362b894185d934e80baf5730588fbd006dd31fcb4dcacbeccfeb51c69939360894a13ba1a3210667c828492db98dca3e2076cc3735a920a3ca505d382bbc7806362b894185d934e80baf5730588fbd006dd31fcb4dcacbeccfeb51c69937f0c57e16840df040f15088dc2f81fe391c3923bec73e23a9662efc9c229c6a00a26469706673582212206596ff802123d1a4691fa1dadd940c37201a9a56f1f1e90cdbbf1ea62abe455864736f6c634300081c0033f0c57e16840df040f15088dc2f81fe391c3923bec73e23a9662efc9c229c6a000000000000000000000000009b97e678fbc4b5e97516d452e057e15a9b5b8e1c",
        "nonce": "0x39",
        "chainId": "0x2105"
      },
      "additionalContracts": [],
      "isFixedGasLimit": false
    },
    {
      "hash": "0x79b84c96afe0954ebc09f0b0411687006d31d83ad5b3ad0f84184b427a677791",
      "transactionType": "CREATE2",
      "contractName": "YieldSeekerAdapterRegistry",
      "contractAddress": "0xc5cb6d1c588c5bfebd23b817ce33d9d380e50c00",
      "function": null,
      "arguments": [
        "0x869f8D6E8d05EC1fDEAB1d5d8D67f3D224da7571",
        "0xCE11D6fb4f1e006E5a348230449Dc387fde850CC"
      ],
      "transaction": {
        "from": "0xce11d6fb4f1e006e5a348230449dc387fde850cc",
        "to": "0x4e59b44847b379578588920ca78fbf26c0b4956c",
        "gas": "0x12de9c",
        "value": "0x0",
        "input": "0x00000000000000000000000000000000000000000000000000000000000000046080346100ab57601f61109438819003918201601f19168301916001600160401b038311848410176100af5780849260409485528339810103126100ab57610052602061004b836100c3565b92016100c3565b6001600160a01b0382161561009c576001600160a01b0381161561009c576100868261008061008c946100d7565b5061014d565b506101e0565b50604051610da090816102748239f35b63d92e233d60e01b5f5260045ffd5b5f80fd5b634e487b7160e01b5f52604160045260245ffd5b51906001600160a01b03821682036100ab57565b6001600160a01b0381165f9081525f5160206110745f395f51905f52602052604090205460ff16610148576001600160a01b03165f8181525f5160206110745f395f51905f5260205260408120805460ff191660011790553391905f5160206110145f395f51905f528180a4600190565b505f90565b6001600160a01b0381165f9081525f5160206110345f395f51905f52602052604090205460ff16610148576001600160a01b03165f8181525f5160206110345f395f51905f5260205260408120805460ff191660011790553391907fbb28eb1a0cfabcecf96003fab466159bc2e051e49d79baf049890044e9072440905f5160206110145f395f51905f529080a4600190565b6001600160a01b0381165f9081525f5160206110545f395f51905f52602052604090205460ff16610148576001600160a01b03165f8181525f5160206110545f395f51905f5260205260408120805460ff191660011790553391907fbf233dd2aafeb4d50879c4aa5c81e96d92f6e6945c906a58f9f2d1c1631b4b26905f5160206110145f395f51905f529080a460019056fe6080806040526004361015610012575f80fd5b5f3560e01c90816301ffc9a714610aa1575080631d46021f146109c457806320df43591461098a57806322f2caf11461091d578063248a9ca3146108eb5780632856e96a1461086c5780632f2ff15d1461082f57806336568abe146107eb5780633f4ba83a146107a25780634a1293b7146107855780635c975abb14610763578063618295df146106d75780638456cb591461068b57806389810a901461054c57806391d1485414610504578063a217fddf146104ea578063a56affb6146104a8578063bf584c4b1461046e578063c157c57c14610165578063c70d539814610365578063d547741f14610321578063d5d7ff3c146101a5578063e3f1dd69146101655763fa351f7914610124575f80fd5b34610161576020366003190112610161576001600160a01b03610145610af4565b165f526002602052602060ff60405f2054166040519015158152f35b5f80fd5b34610161576020366003190112610161576001600160a01b03610186610af4565b165f526001602052602060018060a01b0360405f205416604051908152f35b34610161576020366003190112610161576101be610af4565b6101c6610bbb565b6001600160a01b039081165f8181526001602052604090205490911690811561030f575f81815260016020908152604080832080546001600160a01b031916905560049091529020546003545f1981019081116102fb5780820361029c575b50506003548015610288575f190161023c81610b20565b81546001600160a01b03600392831b1b1916909155555f8181526004602052604081208190557f95acdd767bfb2c6578833b7678c4dcc015f00b35820877f64a390809892628019080a3005b634e487b7160e01b5f52603160045260245ffd5b6102a590610b20565b905460039190911b1c6001600160a01b03166102e8816102c484610b20565b81546001600160a01b0393841660039290921b91821b9390911b1916919091179055565b5f52600460205260405f20558280610225565b634e487b7160e01b5f52601160045260245ffd5b633b3f036f60e01b5f5260045260245ffd5b3461016157604036600319011261016157610363600435610340610b0a565b9061035e610359825f525f602052600160405f20015490565b610c2a565b610cea565b005b346101615760403660031901126101615761037e610af4565b610386610b0a565b9061038f610b4c565b6001600160a01b039081165f81815260016020526040902054909291161561045b576001600160a01b03165f8181526002602052604090205490919060ff1615610448575f81815260016020526040812080546001600160a01b0319811685179091556001600160a01b03169082907f95acdd767bfb2c6578833b7678c4dcc015f00b35820877f64a390809892628019080a37f1cf35c87329e14a81fdc68af8a463c1db203ccfc925ff5150f5dbc71bc4c23725f80a3005b5063fc6da03f60e01b5f5260045260245ffd5b50633b3f036f60e01b5f5260045260245ffd5b34610161575f3660031901126101615760206040517fbb28eb1a0cfabcecf96003fab466159bc2e051e49d79baf049890044e90724408152f35b3461016157602036600319011261016157600435600354811015610161576104d1602091610b20565b905460405160039290921b1c6001600160a01b03168152f35b34610161575f3660031901126101615760206040515f8152f35b346101615760403660031901126101615761051d610b0a565b6004355f525f60205260405f209060018060a01b03165f52602052602060ff60405f2054166040519015158152f35b3461016157604036600319011261016157610565610af4565b61056d610b0a565b610575610b4c565b6001600160a01b03821690811561067c576001600160a01b03165f8181526002602052604090205490929060ff1615610669575f828152600160205260409020546001600160a01b031661065657815f52600160205260405f20836bffffffffffffffffffffffff60a01b82541617905560035490825f5260046020528160405f205568010000000000000000821015610642576102c482600161061c9401600355610b20565b7f1cf35c87329e14a81fdc68af8a463c1db203ccfc925ff5150f5dbc71bc4c23725f80a3005b634e487b7160e01b5f52604160045260245ffd5b506313ae1d3560e11b5f5260045260245ffd5b8263fc6da03f60e01b5f5260045260245ffd5b63d92e233d60e01b5f5260045ffd5b34610161575f366003190112610161576106a3610bbb565b600160ff196005541617600555337f62e78cea01bee320cd4e420270b5ea74000d11b0c9f74754ebdbfc544b05a2585f80a2005b34610161576020366003190112610161576106f0610af4565b6106f8610bbb565b6001600160a01b03165f8181526002602052604090205460ff161561075157805f52600260205260405f2060ff1981541690557f9fbc8baf3d886b40fce5c05b089495702c9f5d8cb64f9c05db1a25e040d062965f80a2005b63fc6da03f60e01b5f5260045260245ffd5b34610161575f36600319011261016157602060ff600554166040519015158152f35b34610161575f366003190112610161576020600354604051908152f35b34610161575f366003190112610161576107ba610b4c565b60ff1960055416600555337f5db9ee0a495bf2e6ff9c91a7834c1ba4fdd244a5e8aa4e537bd38aeae4b073aa5f80a2005b3461016157604036600319011261016157610804610b0a565b336001600160a01b038216036108205761036390600435610cea565b63334bd91960e11b5f5260045ffd5b346101615760403660031901126101615761036360043561084e610b0a565b90610867610359825f525f602052600160405f20015490565b610c62565b3461016157602036600319011261016157610885610af4565b60ff600554166108dc576001600160a01b039081165f90815260016020526040908190205490911680151590816108c5575b825191151582526020820152f35b8091505f52600260205260ff825f205416906108b7565b6309148bcd60e21b5f5260045ffd5b346101615760203660031901126101615760206109156004355f525f602052600160405f20015490565b604051908152f35b3461016157602036600319011261016157610936610af4565b61093e610b4c565b6001600160a01b0316801561067c57805f52600260205260405f20600160ff198254161790557fa77e7c594c11a0d5d9d8e6a9132ac0db912dc0f34f5fb7d94860fe38d16410bd5f80a2005b34610161575f3660031901126101615760206040517fbf233dd2aafeb4d50879c4aa5c81e96d92f6e6945c906a58f9f2d1c1631b4b268152f35b34610161575f366003190112610161576040518060206003549182815201809160035f527fc2575a0e9e593c00f959f8c92f12db2869c3395a3b0502d05e2516446f71f85b905f5b818110610a8257505050829003601f01601f191682019167ffffffffffffffff8311818410176106425790829182604052602083019060208452518091526040830191905f5b818110610a60575050500390f35b82516001600160a01b0316845285945060209384019390920191600101610a52565b82546001600160a01b0316845260209093019260019283019201610a0c565b34610161576020366003190112610161576004359063ffffffff60e01b821680920361016157602091637965db0b60e01b8114908115610ae3575b5015158152f35b6301ffc9a760e01b14905083610adc565b600435906001600160a01b038216820361016157565b602435906001600160a01b038216820361016157565b600354811015610b385760035f5260205f2001905f90565b634e487b7160e01b5f52603260045260245ffd5b335f9081527f83cab6d7cca1d18cc7de94a8ca8455ea26ea82b1fedd1b586dedde3a5e0e2b00602052604090205460ff1615610b8457565b63e2517d3f60e01b5f52336004527fbb28eb1a0cfabcecf96003fab466159bc2e051e49d79baf049890044e907244060245260445ffd5b335f9081527f3c1b1854ab1360abbb06c8d4c6b2672d4b8cedc5eff522ab19e51d5cb8fdbd46602052604090205460ff1615610bf357565b63e2517d3f60e01b5f52336004527fbf233dd2aafeb4d50879c4aa5c81e96d92f6e6945c906a58f9f2d1c1631b4b2660245260445ffd5b5f8181526020818152604080832033845290915290205460ff1615610c4c5750565b63e2517d3f60e01b5f523360045260245260445ffd5b5f818152602081815260408083206001600160a01b038616845290915290205460ff16610ce4575f818152602081815260408083206001600160a01b0395909516808452949091528120805460ff19166001179055339291907f2f8788117e7eff1d82e926ec794901d17c78024a50270940304540a733656f0d9080a4600190565b50505f90565b5f818152602081815260408083206001600160a01b038616845290915290205460ff1615610ce4575f818152602081815260408083206001600160a01b0395909516808452949091528120805460ff19169055339291907ff6391f5c32d9c69d2a47ea670b442974b53935d1edc7fd64eb21e047a839171b9080a460019056fea2646970667358221220078e7aead92c87d411d362ff47a6d9f1bda770384250b03ee5488f7de7d1824564736f6c634300081c00332f8788117e7eff1d82e926ec794901d17c78024a50270940304540a733656f0d83cab6d7cca1d18cc7de94a8ca8455ea26ea82b1fedd1b586dedde3a5e0e2b003c1b1854ab1360abbb06c8d4c6b2672d4b8cedc5eff522ab19e51d5cb8fdbd46ad3228b676f7d3cd4284a5443f17f1962b36e491b30a40b2405849e597ba5fb5000000000000000000000000869f8d6e8d05ec1fdeab1d5d8d67f3d224da7571000000000000000000000000ce11d6fb4f1e006e5a348230449dc387fde850cc",
        "nonce": "0x3a",
        "chainId": "0x2105"
      },
      "additionalContracts": [],
      "isFixedGasLimit": false
    },
    {
      "hash": "0xf66554b404b808978e4f5ca5893085f85aa811c7be37190e025eec7d2e8dc3f4",
      "transactionType": "CREATE2",
      "contractName": "YieldSeekerERC4626Adapter",
      "contractAddress": "0x8730f9e76fd4b4a84b203ffdbc289101056b345c",
      "function": null,
      "arguments": null,
      "transaction": {
        "from": "0xce11d6fb4f1e006e5a348230449dc387fde850cc",
        "to": "0x4e59b44847b379578588920ca78fbf26c0b4956c",
        "gas": "0x59eb2",
        "value": "0x0",
        "input": "0x0000000000000000000000000000000000000000000000000000000000000004608080604052346015576103d8908161001a8239f35b5f80fdfe6080806040526004361015610012575f80fd5b5f3560e01c90816347e7ef241461011b575063f3fef3a314610032575f80fd5b346100f55761004036610346565b90811561010c57604051635d043b2960e11b8152600481018390523060248201819052604482015291906001600160a01b03166020836064815f855af1918215610101575f926100c8575b6020935060405190815282848201527f91fb9d98b786c57d74c099ccd2beca1739e9f6a81fb49001ca465c4b7591bbe260403092a3604051908152f35b91506020833d6020116100f9575b816100e36020938361036c565b810103126100f557602092519161008b565b5f80fd5b3d91506100d6565b6040513d5f823e3d90fd5b631f2a200560e01b5f5260045ffd5b346100f55761012936610346565b90811561010c576338d52e0f60e01b83526001600160a01b031691602081600481865afa908115610101575f91610304575b5060018060a01b031660405163095ea7b360e01b5f52836004528260245260205f60448180865af19060015f51148216156102f5575b60405215610240575b50604051636e553f6560e01b815260048101829052306024820152916020836044815f855af1918215610101575f9261020b575b6020935060405190815282848201527ff5681f9d0db1b911ac18ee83d515a1cf1051853a9eae418316a2fdf7dea427c560403092a3604051908152f35b91506020833d602011610238575b816102266020938361036c565b810103126100f55760209251916101ce565b3d9150610219565b60405163095ea7b360e01b5f52836004525f60245260205f60448180865af19060015f51148216156102dd575b604052156102aa5760405163095ea7b360e01b5f52836004528260245260205f60448180865af19060015f51148216156102bc575b60405261019a575b635274afe760e01b5f5260045260245ffd5b9060018115166102d457823b15153d151616906102a2565b503d5f823e3d90fd5b9060018115166102d457823b15153d1516169061026d565b90823b15153d15161690610191565b90506020813d60201161033e575b8161031f6020938361036c565b810103126100f557516001600160a01b03811681036100f5578361015b565b3d9150610312565b60409060031901126100f5576004356001600160a01b03811681036100f5579060243590565b90601f8019910116810190811067ffffffffffffffff82111761038e57604052565b634e487b7160e01b5f52604160045260245ffdfea2646970667358221220bccc816c78dc3995ba290ba7e511e8d4cacdf7862d220e7b8cdf1a6dc491244464736f6c634300081c0033",
        "nonce": "0x3b",
        "chainId": "0x2105"
      },
      "additionalContracts": [],
      "isFixedGasLimit": false
    },
    {
      "hash": "0xef6c8a99a25b44b75a93f3ecac688c998d4037a8b245650f7721224ec5feee9b",
      "transactionType": "CREATE2",
      "contractName": "YieldSeekerAaveV3Adapter",
      "contractAddress": "0x8f80861648294912d01976c2d0eedc8e6eea37e5",
      "function": null,
      "arguments": null,
      "transaction": {
        "from": "0xce11d6fb4f1e006e5a348230449dc387fde850cc",
        "to": "0x4e59b44847b379578588920ca78fbf26c0b4956c",
        "gas": "0x5997e",
        "value": "0x0",
        "input": "0x00000000000000000000000000000000000000000000000000000000000000046080806040523460155761038f908161001a8239f35b5f80fdfe60806040526004361015610011575f80fd5b5f5f3560e01c80630c0a769b1461011e5763d9caed1214610030575f80fd5b3461011b5761003e366102e9565b9091811561010c57604051631a4ca37b60e21b81526001600160a01b03938416600482018190526024820193909352306044820152921660208360648187855af19283156101015784936100c5575b50602093506040518381527fa4195c37c2947bbe89165f03e320b6903116f0b10d8cfdb522330f7ce6f9fa24853092a4604051908152f35b9092506020813d6020116100f9575b816100e160209383610323565b810103126100f5576020935051915f61008d565b8380fd5b3d91506100d4565b6040513d86823e3d90fd5b631f2a200560e01b8452600484fd5b80fd5b50346102115761012d366102e9565b919082156102da5760405163095ea7b360e01b5f9081526001600160a01b03938416600481905260248690529290931693919260209060448180885af19060015f51148216156102cb575b60405215610215575b813b156102115760405163617ba03760e01b81528360048201528160248201523060448201525f60648201525f8160848183875af18015610206576101f1575b506040519081527f50413727b37795d672f09d0997645a955fa227befaefdd4adb611542dea3fd8060203092a480f35b6101fe9194505f90610323565b5f925f6101c1565b6040513d5f823e3d90fd5b5f80fd5b60405163095ea7b360e01b5f52826004525f60245260205f60448180885af19060015f51148216156102b3575b6040521561027f5760405163095ea7b360e01b5f52826004528160245260205f60448180885af19060015f5114821615610292575b604052610181575b82635274afe760e01b5f5260045260245ffd5b9060018115166102aa57843b15153d15161690610277565b503d5f823e3d90fd5b9060018115166102aa57843b15153d15161690610242565b90843b15153d15161690610178565b631f2a200560e01b5f5260045ffd5b6060906003190112610211576004356001600160a01b038116810361021157906024356001600160a01b0381168103610211579060443590565b90601f8019910116810190811067ffffffffffffffff82111761034557604052565b634e487b7160e01b5f52604160045260245ffdfea26469706673582212209a0125568d9c9c7eca536adf2e3375c3674e9cd76789db362819bad3a4e08f0364736f6c634300081c0033",
        "nonce": "0x3c",
        "chainId": "0x2105"
      },
      "additionalContracts": [],
      "isFixedGasLimit": false
    },
    {
      "hash": "0xf9462165f42c202342682a592177a74a5da8feefb2f5e1057e16ffe9924c2e27",
      "transactionType": "CREATE2",
      "contractName": "YieldSeekerZeroExAdapter",
      "contractAddress": "0x581ee947078b7009ae0ff840fa15a65526fdaf5c",
      "function": null,
      "arguments": [
        "0x0000000000001fF3684f28c67538d4D072C22734"
      ],
      "transaction": {
        "from": "0xce11d6fb4f1e006e5a348230449dc387fde850cc",
        "to": "0x4e59b44847b379578588920ca78fbf26c0b4956c",
        "gas": "0x7f91d",
        "value": "0x0",
        "input": "0x000000000000000000000000000000000000000000000000000000000000000460a034608157601f61060b38819003918201601f19168301916001600160401b03831184841017608557808492602094604052833981010312608157516001600160a01b03811680820360815715607257608052604051610571908161009a823960805181818161010001526104ea0152f35b631440bbc360e11b5f5260045ffd5b5f80fd5b634e487b7160e01b5f52604160045260245ffdfe6080806040526004361015610012575f80fd5b5f3560e01c90816322751593146104d857506346be7c3714610032575f80fd5b610100366003190112610346576004356001600160a01b03811690818103610346576024356001600160a01b0381169290839003610346576044356001600160a01b0381169390849003610346576084359260a4356001600160a01b03811691606435918390036103465760c4359067ffffffffffffffff821161034657366023830112156103465781600401359167ffffffffffffffff831161034657366024848301011161034657831580156104d0575b6104c15784156104b25760405163095ea7b360e01b5f9081527f00000000000000000000000000000000000000000000000000000000000000006001600160a01b0316600481905260248790529190602090604481808c5af19060015f51148216156104a3575b604052156103f0575b506040516370a0823160e01b8152306004820152926020846024818d5afa938415610352575f946103b9575b509160245f93928385946040519384930183378101848152039160e435905af13d156103b1573d9067ffffffffffffffff821161039d57604051916101d0601f8201601f191660200184610519565b82523d5f602084013e5b1561035d57506040516370a0823160e01b8152306004820152906020826024818b5afa918215610352575f9261031a575b5080820396828811610306578088106102f057503084141591826102e5575b505061027c575b60209560405193845286840152604083015283606083015260808201527f708b6a6365d720804b655ee8404abd203adebf3c9235ce90c901817eee3d53b660a03092a3604051908152f35b60405163a9059cbb60e01b5f52826004528560245260205f604481808b5af19060015f51148216156102c4575b604052610231575b85635274afe760e01b5f5260045260245ffd5b9060018115166102dc57873b15153d151616906102a9565b503d5f823e3d90fd5b141590505f8061022a565b87630583371760e31b5f5260045260245260445ffd5b634e487b7160e01b5f52601160045260245ffd5b9091506020813d60201161034a575b8161033660209383610519565b810103126103465751905f61020b565b5f80fd5b3d9150610329565b6040513d5f823e3d90fd5b604460209160405192839163ff9fa59560e01b83528160048401528051918291826024860152018484015e5f828201840152601f01601f19168101030190fd5b634e487b7160e01b5f52604160045260245ffd5b6060906101da565b929093506020833d6020116103e8575b816103d660209383610519565b81010312610346579151926024610181565b3d91506103c9565b60405163095ea7b360e01b5f52816004525f60245260205f604481808c5af19060015f511482161561048b575b60405215610478576040519063095ea7b360e01b5f526004528460245260205f604481808b5af19060015f5114821615610460575b604052156102b1575f610155565b9060018115166102dc57873b15153d15161690610452565b86635274afe760e01b5f5260045260245ffd5b9060018115166102dc57883b15153d1516169061041d565b90883b15153d1516169061014c565b634e46966960e11b5f5260045ffd5b631f2a200560e01b5f5260045ffd5b5087156100e5565b34610346575f366003190112610346577f00000000000000000000000000000000000000000000000000000000000000006001600160a01b03168152602090f35b90601f8019910116810190811067ffffffffffffffff82111761039d5760405256fea2646970667358221220d304ee81a8812767183058758e92fa20f60f298e868b143f388a48f9b5511bae64736f6c634300081c00330000000000000000000000000000000000001ff3684f28c67538d4d072c22734",
        "nonce": "0x3d",
        "chainId": "0x2105"
      },
      "additionalContracts": [],
      "isFixedGasLimit": false
    },
    {
      "hash": "0x8509fcf48bcc80d95c30ec919b48b1509a6bdf87d9a2faa925c8e816f12af936",
      "transactionType": "CALL",
      "contractName": "YieldSeekerAdminTimelock",
      "contractAddress": "0x869f8d6e8d05ec1fdeab1d5d8d67f3d224da7571",
      "function": "schedule(address,uint256,bytes,bytes32,bytes32,uint256)",
      "arguments": [
        "0x9b97e678Fbc4b5e97516D452E057E15a9B5B8E1C",
        "0",
        "0xc68e00fb0000000000000000000000006c99855b07b0bb62b0d9e3c71a4094f01388aff5",
        "0x0000000000000000000000000000000000000000000000000000000000000000",
        "0x00000000000000000000000000000000000000000000000000000000000003e8",
        "0"
      ],
      "transaction": {
        "from": "0xce11d6fb4f1e006e5a348230449dc387fde850cc",
        "to": "0x869f8d6e8d05ec1fdeab1d5d8d67f3d224da7571",
        "gas": "0x13ed7",
        "value": "0x0",
        "input": "0x01d5062a0000000000000000000000009b97e678fbc4b5e97516d452e057e15a9b5b8e1c000000000000000000000000000000000000000000000000000000000000000000000000000000000000000000000000000000000000000000000000000000c0000000000000000000000000000000000000000000000000000000000000000000000000000000000000000000000000000000000000000000000000000003e800000000000000000000000000000000000000000000000000000000000000000000000000000000000000000000000000000000000000000000000000000024c68e00fb0000000000000000000000006c99855b07b0bb62b0d9e3c71a4094f01388aff500000000000000000000000000000000000000000000000000000000",
        "nonce": "0x3e",
        "chainId": "0x2105"
      },
      "additionalContracts": [],
      "isFixedGasLimit": false
    },
    {
      "hash": "0x415e71200bd3d83620bc5300ec59f72a849dcc0d67e024f160dd2e21b3b1b996",
      "transactionType": "CALL",
      "contractName": "YieldSeekerAdminTimelock",
      "contractAddress": "0x869f8d6e8d05ec1fdeab1d5d8d67f3d224da7571",
      "function": "execute(address,uint256,bytes,bytes32,bytes32)",
      "arguments": [
        "0x9b97e678Fbc4b5e97516D452E057E15a9B5B8E1C",
        "0",
        "0xc68e00fb0000000000000000000000006c99855b07b0bb62b0d9e3c71a4094f01388aff5",
        "0x0000000000000000000000000000000000000000000000000000000000000000",
        "0x00000000000000000000000000000000000000000000000000000000000003e8"
      ],
      "transaction": {
        "from": "0xce11d6fb4f1e006e5a348230449dc387fde850cc",
        "to": "0x869f8d6e8d05ec1fdeab1d5d8d67f3d224da7571",
        "gas": "0x1793e",
        "value": "0x0",
        "input": "0x134008d30000000000000000000000009b97e678fbc4b5e97516d452e057e15a9b5b8e1c000000000000000000000000000000000000000000000000000000000000000000000000000000000000000000000000000000000000000000000000000000a0000000000000000000000000000000000000000000000000000000000000000000000000000000000000000000000000000000000000000000000000000003e80000000000000000000000000000000000000000000000000000000000000024c68e00fb0000000000000000000000006c99855b07b0bb62b0d9e3c71a4094f01388aff500000000000000000000000000000000000000000000000000000000",
        "nonce": "0x3f",
        "chainId": "0x2105"
      },
      "additionalContracts": [],
      "isFixedGasLimit": false
    },
    {
      "hash": "0xa4b919b730bbac5cd7ecced910d277530b7eab27c0a7d207f4416a0ed7df6fdc",
      "transactionType": "CALL",
      "contractName": "YieldSeekerAdminTimelock",
      "contractAddress": "0x869f8d6e8d05ec1fdeab1d5d8d67f3d224da7571",
      "function": "schedule(address,uint256,bytes,bytes32,bytes32,uint256)",
      "arguments": [
        "0x9b97e678Fbc4b5e97516D452E057E15a9B5B8E1C",
        "0",
        "0x5b34b823000000000000000000000000c5cb6d1c588c5bfebd23b817ce33d9d380e50c00",
        "0x0000000000000000000000000000000000000000000000000000000000000000",
        "0x00000000000000000000000000000000000000000000000000000000000003e9",
        "0"
      ],
      "transaction": {
        "from": "0xce11d6fb4f1e006e5a348230449dc387fde850cc",
        "to": "0x869f8d6e8d05ec1fdeab1d5d8d67f3d224da7571",
        "gas": "0x13ed7",
        "value": "0x0",
        "input": "0x01d5062a0000000000000000000000009b97e678fbc4b5e97516d452e057e15a9b5b8e1c000000000000000000000000000000000000000000000000000000000000000000000000000000000000000000000000000000000000000000000000000000c0000000000000000000000000000000000000000000000000000000000000000000000000000000000000000000000000000000000000000000000000000003e9000000000000000000000000000000000000000000000000000000000000000000000000000000000000000000000000000000000000000000000000000000245b34b823000000000000000000000000c5cb6d1c588c5bfebd23b817ce33d9d380e50c0000000000000000000000000000000000000000000000000000000000",
        "nonce": "0x40",
        "chainId": "0x2105"
      },
      "additionalContracts": [],
      "isFixedGasLimit": false
    },
    {
      "hash": "0x8821c4b2afedaa4f34f00001de7d2cfc5a63465ccffa111389944c03d5663b0c",
      "transactionType": "CALL",
      "contractName": "YieldSeekerAdminTimelock",
      "contractAddress": "0x869f8d6e8d05ec1fdeab1d5d8d67f3d224da7571",
      "function": "execute(address,uint256,bytes,bytes32,bytes32)",
      "arguments": [
        "0x9b97e678Fbc4b5e97516D452E057E15a9B5B8E1C",
        "0",
        "0x5b34b823000000000000000000000000c5cb6d1c588c5bfebd23b817ce33d9d380e50c00",
        "0x0000000000000000000000000000000000000000000000000000000000000000",
        "0x00000000000000000000000000000000000000000000000000000000000003e9"
      ],
      "transaction": {
        "from": "0xce11d6fb4f1e006e5a348230449dc387fde850cc",
        "to": "0x869f8d6e8d05ec1fdeab1d5d8d67f3d224da7571",
        "gas": "0x16a19",
        "value": "0x0",
        "input": "0x134008d30000000000000000000000009b97e678fbc4b5e97516d452e057e15a9b5b8e1c000000000000000000000000000000000000000000000000000000000000000000000000000000000000000000000000000000000000000000000000000000a0000000000000000000000000000000000000000000000000000000000000000000000000000000000000000000000000000000000000000000000000000003e900000000000000000000000000000000000000000000000000000000000000245b34b823000000000000000000000000c5cb6d1c588c5bfebd23b817ce33d9d380e50c0000000000000000000000000000000000000000000000000000000000",
        "nonce": "0x41",
        "chainId": "0x2105"
      },
      "additionalContracts": [],
      "isFixedGasLimit": false
    },
    {
      "hash": "0x05c8817eeb846237e8b17592843de8a80f0c5971ca0a220ca18eca073e0e8d73",
      "transactionType": "CALL",
      "contractName": "YieldSeekerAdminTimelock",
      "contractAddress": "0x869f8d6e8d05ec1fdeab1d5d8d67f3d224da7571",
      "function": "schedule(address,uint256,bytes,bytes32,bytes32,uint256)",
      "arguments": [
        "0xc5Cb6d1c588C5bfeBd23B817Ce33D9d380e50c00",
        "0",
        "0x22f2caf10000000000000000000000008730f9e76fd4b4a84b203ffdbc289101056b345c",
        "0x0000000000000000000000000000000000000000000000000000000000000000",
        "0x00000000000000000000000000000000000000000000000000000000000003ea",
        "0"
      ],
      "transaction": {
        "from": "0xce11d6fb4f1e006e5a348230449dc387fde850cc",
        "to": "0x869f8d6e8d05ec1fdeab1d5d8d67f3d224da7571",
        "gas": "0x13ed7",
        "value": "0x0",
        "input": "0x01d5062a000000000000000000000000c5cb6d1c588c5bfebd23b817ce33d9d380e50c00000000000000000000000000000000000000000000000000000000000000000000000000000000000000000000000000000000000000000000000000000000c0000000000000000000000000000000000000000000000000000000000000000000000000000000000000000000000000000000000000000000000000000003ea0000000000000000000000000000000000000000000000000000000000000000000000000000000000000000000000000000000000000000000000000000002422f2caf10000000000000000000000008730f9e76fd4b4a84b203ffdbc289101056b345c00000000000000000000000000000000000000000000000000000000",
        "nonce": "0x42",
        "chainId": "0x2105"
      },
      "additionalContracts": [],
      "isFixedGasLimit": false
    },
    {
      "hash": "0xa5ba3231d53004733dff1719282b13f81b52a97d69cc957da77eb1a26e3f4752",
      "transactionType": "CALL",
      "contractName": "YieldSeekerAdminTimelock",
      "contractAddress": "0x869f8d6e8d05ec1fdeab1d5d8d67f3d224da7571",
      "function": "execute(address,uint256,bytes,bytes32,bytes32)",
      "arguments": [
        "0xc5Cb6d1c588C5bfeBd23B817Ce33D9d380e50c00",
        "0",
        "0x22f2caf10000000000000000000000008730f9e76fd4b4a84b203ffdbc289101056b345c",
        "0x0000000000000000000000000000000000000000000000000000000000000000",
        "0x00000000000000000000000000000000000000000000000000000000000003ea"
      ],
      "transaction": {
        "from": "0xce11d6fb4f1e006e5a348230449dc387fde850cc",
        "to": "0x869f8d6e8d05ec1fdeab1d5d8d67f3d224da7571",
        "gas": "0x16337",
        "value": "0x0",
        "input": "0x134008d3000000000000000000000000c5cb6d1c588c5bfebd23b817ce33d9d380e50c00000000000000000000000000000000000000000000000000000000000000000000000000000000000000000000000000000000000000000000000000000000a0000000000000000000000000000000000000000000000000000000000000000000000000000000000000000000000000000000000000000000000000000003ea000000000000000000000000000000000000000000000000000000000000002422f2caf10000000000000000000000008730f9e76fd4b4a84b203ffdbc289101056b345c00000000000000000000000000000000000000000000000000000000",
        "nonce": "0x43",
        "chainId": "0x2105"
      },
      "additionalContracts": [],
      "isFixedGasLimit": false
    },
    {
      "hash": "0x24e557c384ebc6cd61d4a52ccd97bd84550198da6277986c6d25de900a572c01",
      "transactionType": "CALL",
      "contractName": "YieldSeekerAdminTimelock",
      "contractAddress": "0x869f8d6e8d05ec1fdeab1d5d8d67f3d224da7571",
      "function": "schedule(address,uint256,bytes,bytes32,bytes32,uint256)",
      "arguments": [
        "0xc5Cb6d1c588C5bfeBd23B817Ce33D9d380e50c00",
        "0",
        "0x22f2caf10000000000000000000000008f80861648294912d01976c2d0eedc8e6eea37e5",
        "0x0000000000000000000000000000000000000000000000000000000000000000",
        "0x00000000000000000000000000000000000000000000000000000000000003eb",
        "0"
      ],
      "transaction": {
        "from": "0xce11d6fb4f1e006e5a348230449dc387fde850cc",
        "to": "0x869f8d6e8d05ec1fdeab1d5d8d67f3d224da7571",
        "gas": "0x13ed7",
        "value": "0x0",
        "input": "0x01d5062a000000000000000000000000c5cb6d1c588c5bfebd23b817ce33d9d380e50c00000000000000000000000000000000000000000000000000000000000000000000000000000000000000000000000000000000000000000000000000000000c0000000000000000000000000000000000000000000000000000000000000000000000000000000000000000000000000000000000000000000000000000003eb0000000000000000000000000000000000000000000000000000000000000000000000000000000000000000000000000000000000000000000000000000002422f2caf10000000000000000000000008f80861648294912d01976c2d0eedc8e6eea37e500000000000000000000000000000000000000000000000000000000",
        "nonce": "0x44",
        "chainId": "0x2105"
      },
      "additionalContracts": [],
      "isFixedGasLimit": false
    },
    {
      "hash": "0xba162ac87481d175d60811d8bcd01b1429d754d180fee571afb91eb63fe4e932",
      "transactionType": "CALL",
      "contractName": "YieldSeekerAdminTimelock",
      "contractAddress": "0x869f8d6e8d05ec1fdeab1d5d8d67f3d224da7571",
      "function": "execute(address,uint256,bytes,bytes32,bytes32)",
      "arguments": [
        "0xc5Cb6d1c588C5bfeBd23B817Ce33D9d380e50c00",
        "0",
        "0x22f2caf10000000000000000000000008f80861648294912d01976c2d0eedc8e6eea37e5",
        "0x0000000000000000000000000000000000000000000000000000000000000000",
        "0x00000000000000000000000000000000000000000000000000000000000003eb"
      ],
      "transaction": {
        "from": "0xce11d6fb4f1e006e5a348230449dc387fde850cc",
        "to": "0x869f8d6e8d05ec1fdeab1d5d8d67f3d224da7571",
        "gas": "0x16337",
        "value": "0x0",
        "input": "0x134008d3000000000000000000000000c5cb6d1c588c5bfebd23b817ce33d9d380e50c00000000000000000000000000000000000000000000000000000000000000000000000000000000000000000000000000000000000000000000000000000000a0000000000000000000000000000000000000000000000000000000000000000000000000000000000000000000000000000000000000000000000000000003eb000000000000000000000000000000000000000000000000000000000000002422f2caf10000000000000000000000008f80861648294912d01976c2d0eedc8e6eea37e500000000000000000000000000000000000000000000000000000000",
        "nonce": "0x45",
        "chainId": "0x2105"
      },
      "additionalContracts": [],
      "isFixedGasLimit": false
    },
    {
      "hash": "0x43a21a6c5076e279c6d39d7bd2d37031a0661cb4aefe31c62913bab984976de1",
      "transactionType": "CALL",
      "contractName": "YieldSeekerAdminTimelock",
      "contractAddress": "0x869f8d6e8d05ec1fdeab1d5d8d67f3d224da7571",
      "function": "schedule(address,uint256,bytes,bytes32,bytes32,uint256)",
      "arguments": [
        "0xc5Cb6d1c588C5bfeBd23B817Ce33D9d380e50c00",
        "0",
        "0x22f2caf1000000000000000000000000581ee947078b7009ae0ff840fa15a65526fdaf5c",
        "0x0000000000000000000000000000000000000000000000000000000000000000",
        "0x00000000000000000000000000000000000000000000000000000000000003ed",
        "0"
      ],
      "transaction": {
        "from": "0xce11d6fb4f1e006e5a348230449dc387fde850cc",
        "to": "0x869f8d6e8d05ec1fdeab1d5d8d67f3d224da7571",
        "gas": "0x13ed7",
        "value": "0x0",
        "input": "0x01d5062a000000000000000000000000c5cb6d1c588c5bfebd23b817ce33d9d380e50c00000000000000000000000000000000000000000000000000000000000000000000000000000000000000000000000000000000000000000000000000000000c0000000000000000000000000000000000000000000000000000000000000000000000000000000000000000000000000000000000000000000000000000003ed0000000000000000000000000000000000000000000000000000000000000000000000000000000000000000000000000000000000000000000000000000002422f2caf1000000000000000000000000581ee947078b7009ae0ff840fa15a65526fdaf5c00000000000000000000000000000000000000000000000000000000",
        "nonce": "0x46",
        "chainId": "0x2105"
      },
      "additionalContracts": [],
      "isFixedGasLimit": false
    },
    {
      "hash": "0x38e703813b09fd7b88298448f9701ec08145d0edd7a0f8ffac62ccf2d146c1e2",
      "transactionType": "CALL",
      "contractName": "YieldSeekerAdminTimelock",
      "contractAddress": "0x869f8d6e8d05ec1fdeab1d5d8d67f3d224da7571",
      "function": "execute(address,uint256,bytes,bytes32,bytes32)",
      "arguments": [
        "0xc5Cb6d1c588C5bfeBd23B817Ce33D9d380e50c00",
        "0",
        "0x22f2caf1000000000000000000000000581ee947078b7009ae0ff840fa15a65526fdaf5c",
        "0x0000000000000000000000000000000000000000000000000000000000000000",
        "0x00000000000000000000000000000000000000000000000000000000000003ed"
      ],
      "transaction": {
        "from": "0xce11d6fb4f1e006e5a348230449dc387fde850cc",
        "to": "0x869f8d6e8d05ec1fdeab1d5d8d67f3d224da7571",
        "gas": "0x16337",
        "value": "0x0",
        "input": "0x134008d3000000000000000000000000c5cb6d1c588c5bfebd23b817ce33d9d380e50c00000000000000000000000000000000000000000000000000000000000000000000000000000000000000000000000000000000000000000000000000000000a0000000000000000000000000000000000000000000000000000000000000000000000000000000000000000000000000000000000000000000000000000003ed000000000000000000000000000000000000000000000000000000000000002422f2caf1000000000000000000000000581ee947078b7009ae0ff840fa15a65526fdaf5c00000000000000000000000000000000000000000000000000000000",
        "nonce": "0x47",
        "chainId": "0x2105"
      },
      "additionalContracts": [],
      "isFixedGasLimit": false
    }
  ],
  "receipts": [
    {
      "status": "0x1",
      "cumulativeGasUsed": "0x2e39c6a",
      "logs": [
        {
          "address": "0x869f8d6e8d05ec1fdeab1d5d8d67f3d224da7571",
          "topics": [
            "0x2f8788117e7eff1d82e926ec794901d17c78024a50270940304540a733656f0d",
            "0x0000000000000000000000000000000000000000000000000000000000000000",
            "0x000000000000000000000000869f8d6e8d05ec1fdeab1d5d8d67f3d224da7571",
            "0x0000000000000000000000004e59b44847b379578588920ca78fbf26c0b4956c"
          ],
          "data": "0x",
          "blockHash": "0x726019aa18f700b05edd715e36223b12af0d3776970e32499c9ebfe2665ecbc7",
          "blockNumber": "0x25cc4a3",
          "blockTimestamp": "0x6943e629",
          "transactionHash": "0xf9462165f42c202342682a592177a74a5da8feefb2f5e1057e16ffe9924c2e27",
          "transactionIndex": "0xaa",
          "logIndex": "0x3cc",
          "removed": false
        },
        {
          "address": "0x869f8d6e8d05ec1fdeab1d5d8d67f3d224da7571",
          "topics": [
            "0x2f8788117e7eff1d82e926ec794901d17c78024a50270940304540a733656f0d",
            "0xb09aa5aeb3702cfd50b6b62bc4532604938f21248a27a1d5ca736082b6819cc1",
            "0x000000000000000000000000ce11d6fb4f1e006e5a348230449dc387fde850cc",
            "0x0000000000000000000000004e59b44847b379578588920ca78fbf26c0b4956c"
          ],
          "data": "0x",
          "blockHash": "0x726019aa18f700b05edd715e36223b12af0d3776970e32499c9ebfe2665ecbc7",
          "blockNumber": "0x25cc4a3",
          "blockTimestamp": "0x6943e629",
          "transactionHash": "0xf9462165f42c202342682a592177a74a5da8feefb2f5e1057e16ffe9924c2e27",
          "transactionIndex": "0xaa",
          "logIndex": "0x3cd",
          "removed": false
        },
        {
          "address": "0x869f8d6e8d05ec1fdeab1d5d8d67f3d224da7571",
          "topics": [
            "0x2f8788117e7eff1d82e926ec794901d17c78024a50270940304540a733656f0d",
            "0xfd643c72710c63c0180259aba6b2d05451e3591a24e58b62239378085726f783",
            "0x000000000000000000000000ce11d6fb4f1e006e5a348230449dc387fde850cc",
            "0x0000000000000000000000004e59b44847b379578588920ca78fbf26c0b4956c"
          ],
          "data": "0x",
          "blockHash": "0x726019aa18f700b05edd715e36223b12af0d3776970e32499c9ebfe2665ecbc7",
          "blockNumber": "0x25cc4a3",
          "blockTimestamp": "0x6943e629",
          "transactionHash": "0xf9462165f42c202342682a592177a74a5da8feefb2f5e1057e16ffe9924c2e27",
          "transactionIndex": "0xaa",
          "logIndex": "0x3ce",
          "removed": false
        },
        {
          "address": "0x869f8d6e8d05ec1fdeab1d5d8d67f3d224da7571",
          "topics": [
            "0x2f8788117e7eff1d82e926ec794901d17c78024a50270940304540a733656f0d",
            "0xd8aa0f3194971a2a116679f7c2090f6939c8d4e01a2a8d7e41d55e5351469e63",
            "0x000000000000000000000000ce11d6fb4f1e006e5a348230449dc387fde850cc",
            "0x0000000000000000000000004e59b44847b379578588920ca78fbf26c0b4956c"
          ],
          "data": "0x",
          "blockHash": "0x726019aa18f700b05edd715e36223b12af0d3776970e32499c9ebfe2665ecbc7",
          "blockNumber": "0x25cc4a3",
          "blockTimestamp": "0x6943e629",
          "transactionHash": "0xf9462165f42c202342682a592177a74a5da8feefb2f5e1057e16ffe9924c2e27",
          "transactionIndex": "0xaa",
          "logIndex": "0x3cf",
          "removed": false
        },
        {
          "address": "0x869f8d6e8d05ec1fdeab1d5d8d67f3d224da7571",
          "topics": [
            "0x11c24f4ead16507c69ac467fbd5e4eed5fb5c699626d2cc6d66421df253886d5"
          ],
          "data": "0x00000000000000000000000000000000000000000000000000000000000000000000000000000000000000000000000000000000000000000000000000000000",
          "blockHash": "0x726019aa18f700b05edd715e36223b12af0d3776970e32499c9ebfe2665ecbc7",
          "blockNumber": "0x25cc4a3",
          "blockTimestamp": "0x6943e629",
          "transactionHash": "0xf9462165f42c202342682a592177a74a5da8feefb2f5e1057e16ffe9924c2e27",
          "transactionIndex": "0xaa",
          "logIndex": "0x3d0",
          "removed": false
        }
      ],
      "logsBloom": "0x00000004000000000000000000000000020000000000080000000000000000000000000000000000000000000001000000000000000000000200000010200000000000000000000000000010000000000080000000000000000000100000000000000000020000000000020000020800000000000000000000020000000000000000000000000000000000000000000000000000001002080000000000000000000000000021000000000000000000080000000000000000001000000000000000000000000200004000000000000000000000000000000100000100200020000000000000000000000000000000000080000000008000000000000000000000",
      "type": "0x2",
      "transactionHash": "0xf9462165f42c202342682a592177a74a5da8feefb2f5e1057e16ffe9924c2e27",
      "transactionIndex": "0xaa",
      "blockHash": "0x726019aa18f700b05edd715e36223b12af0d3776970e32499c9ebfe2665ecbc7",
      "blockNumber": "0x25cc4a3",
      "gasUsed": "0x14be6f",
      "effectiveGasPrice": "0xf87c9",
      "blobGasUsed": "0x118d88",
      "from": "0xce11d6fb4f1e006e5a348230449dc387fde850cc",
      "to": "0x4e59b44847b379578588920ca78fbf26c0b4956c",
      "contractAddress": "0x869f8d6e8d05ec1fdeab1d5d8d67f3d224da7571",
      "daFootprintGasScalar": "0x138",
      "l1BaseFeeScalar": "0x8dd",
      "l1BlobBaseFee": "0x19f5b4",
      "l1BlobBaseFeeScalar": "0x101c12",
      "l1Fee": "0x27a535d33",
      "l1GasPrice": "0x1ca1df8",
      "l1GasUsed": "0xe675"
    },
    {
      "status": "0x1",
      "cumulativeGasUsed": "0x2f63b43",
      "logs": [
        {
          "address": "0x9b97e678fbc4b5e97516d452e057e15a9b5b8e1c",
          "topics": [
            "0x2f8788117e7eff1d82e926ec794901d17c78024a50270940304540a733656f0d",
            "0x0000000000000000000000000000000000000000000000000000000000000000",
            "0x000000000000000000000000869f8d6e8d05ec1fdeab1d5d8d67f3d224da7571",
            "0x0000000000000000000000004e59b44847b379578588920ca78fbf26c0b4956c"
          ],
          "data": "0x",
          "blockHash": "0x726019aa18f700b05edd715e36223b12af0d3776970e32499c9ebfe2665ecbc7",
          "blockNumber": "0x25cc4a3",
          "blockTimestamp": "0x6943e629",
          "transactionHash": "0x2093398e08d03fe7fc24a57892190c7ae4df6e53c3ce5f39e03b1fdca0083163",
          "transactionIndex": "0xab",
          "logIndex": "0x3d1",
          "removed": false
        },
        {
          "address": "0x9b97e678fbc4b5e97516d452e057e15a9b5b8e1c",
          "topics": [
            "0x2f8788117e7eff1d82e926ec794901d17c78024a50270940304540a733656f0d",
            "0x2fbb137a62ebd69bc6a41f4b4e96301da2105eef211fb1a3c75e8cfb9bfe7879",
            "0x0000000000000000000000002ed35991d466e8114d49bda6f602c3795305006d",
            "0x0000000000000000000000004e59b44847b379578588920ca78fbf26c0b4956c"
          ],
          "data": "0x",
          "blockHash": "0x726019aa18f700b05edd715e36223b12af0d3776970e32499c9ebfe2665ecbc7",
          "blockNumber": "0x25cc4a3",
          "blockTimestamp": "0x6943e629",
          "transactionHash": "0x2093398e08d03fe7fc24a57892190c7ae4df6e53c3ce5f39e03b1fdca0083163",
          "transactionIndex": "0xab",
          "logIndex": "0x3d2",
          "removed": false
        }
      ],
      "logsBloom": "0x00000004000000000000000000100000010000000800000000000000000000000000000000000000000000000000000000000000000000000000000000000000000000000000000000000000000010000008000000000000000000100000000000000000020000000000000000000800000000000000000000040000000000000000010000000000000000000000000000000000001000000000000000000000000080000001000000000000100000000000000000000000001000000000000000000000000200000000000000000000000000000000000100000000000020000000000000000000000000000000000080000000008000000000000000000000",
      "type": "0x2",
      "transactionHash": "0x2093398e08d03fe7fc24a57892190c7ae4df6e53c3ce5f39e03b1fdca0083163",
      "transactionIndex": "0xab",
      "blockHash": "0x726019aa18f700b05edd715e36223b12af0d3776970e32499c9ebfe2665ecbc7",
      "blockNumber": "0x25cc4a3",
      "gasUsed": "0x129ed9",
      "effectiveGasPrice": "0xf87c9",
      "blobGasUsed": "0xf2fd0",
      "from": "0xce11d6fb4f1e006e5a348230449dc387fde850cc",
      "to": "0x4e59b44847b379578588920ca78fbf26c0b4956c",
      "contractAddress": "0x9b97e678fbc4b5e97516d452e057e15a9b5b8e1c",
      "daFootprintGasScalar": "0x138",
      "l1BaseFeeScalar": "0x8dd",
      "l1BlobBaseFee": "0x19f5b4",
      "l1BlobBaseFeeScalar": "0x101c12",
      "l1Fee": "0x224d94e85",
      "l1GasPrice": "0x1ca1df8",
      "l1GasUsed": "0xc767"
    },
    {
      "status": "0x1",
      "cumulativeGasUsed": "0x3120588",
      "logs": [
        {
          "address": "0x6c99855b07b0bb62b0d9e3c71a4094f01388aff5",
          "topics": [
            "0xc7f505b2f371ae2175ee4913f4499e1f2633a7b5936321eed1cdaeb6115181d2"
          ],
          "data": "0x000000000000000000000000000000000000000000000000ffffffffffffffff",
          "blockHash": "0x726019aa18f700b05edd715e36223b12af0d3776970e32499c9ebfe2665ecbc7",
          "blockNumber": "0x25cc4a3",
          "blockTimestamp": "0x6943e629",
          "transactionHash": "0x8821c4b2afedaa4f34f00001de7d2cfc5a63465ccffa111389944c03d5663b0c",
          "transactionIndex": "0xac",
          "logIndex": "0x3d3",
          "removed": false
        }
      ],
      "logsBloom": "0x00000000000000000000000000000000000000000000000000000000000000000000000000000000000000000000000000000000000000000000000000000000000000000000000000000000000000000000000000000000100000000000000000000000000000002000000000000000000000000000000000000000000000000000000000000000000800000000000000000000000080000000000000000000000000000000000000000000000000000000000000000000000000000000000000000000100000000000000000000000000000000004000000000000000000000000000000000000000000000000000000000000000000000000000000000000",
      "type": "0x2",
      "transactionHash": "0x8821c4b2afedaa4f34f00001de7d2cfc5a63465ccffa111389944c03d5663b0c",
      "transactionIndex": "0xac",
      "blockHash": "0x726019aa18f700b05edd715e36223b12af0d3776970e32499c9ebfe2665ecbc7",
      "blockNumber": "0x25cc4a3",
      "gasUsed": "0x1bca45",
      "effectiveGasPrice": "0xf87c9",
      "blobGasUsed": "0x15ba60",
      "from": "0xce11d6fb4f1e006e5a348230449dc387fde850cc",
      "to": "0x4e59b44847b379578588920ca78fbf26c0b4956c",
      "contractAddress": "0x6c99855b07b0bb62b0d9e3c71a4094f01388aff5",
      "daFootprintGasScalar": "0x138",
      "l1BaseFeeScalar": "0x8dd",
      "l1BlobBaseFee": "0x19f5b4",
      "l1BlobBaseFeeScalar": "0x101c12",
      "l1Fee": "0x31146ee13",
      "l1GasPrice": "0x1ca1df8",
      "l1GasUsed": "0x11d4d"
    },
    {
      "status": "0x1",
      "cumulativeGasUsed": "0x31faecf",
      "logs": [
        {
          "address": "0xc5cb6d1c588c5bfebd23b817ce33d9d380e50c00",
          "topics": [
            "0x2f8788117e7eff1d82e926ec794901d17c78024a50270940304540a733656f0d",
            "0x0000000000000000000000000000000000000000000000000000000000000000",
            "0x000000000000000000000000869f8d6e8d05ec1fdeab1d5d8d67f3d224da7571",
            "0x0000000000000000000000004e59b44847b379578588920ca78fbf26c0b4956c"
          ],
          "data": "0x",
          "blockHash": "0x726019aa18f700b05edd715e36223b12af0d3776970e32499c9ebfe2665ecbc7",
          "blockNumber": "0x25cc4a3",
          "blockTimestamp": "0x6943e629",
          "transactionHash": "0xf66554b404b808978e4f5ca5893085f85aa811c7be37190e025eec7d2e8dc3f4",
          "transactionIndex": "0xad",
          "logIndex": "0x3d4",
          "removed": false
        },
        {
          "address": "0xc5cb6d1c588c5bfebd23b817ce33d9d380e50c00",
          "topics": [
            "0x2f8788117e7eff1d82e926ec794901d17c78024a50270940304540a733656f0d",
            "0xbb28eb1a0cfabcecf96003fab466159bc2e051e49d79baf049890044e9072440",
            "0x000000000000000000000000869f8d6e8d05ec1fdeab1d5d8d67f3d224da7571",
            "0x0000000000000000000000004e59b44847b379578588920ca78fbf26c0b4956c"
          ],
          "data": "0x",
          "blockHash": "0x726019aa18f700b05edd715e36223b12af0d3776970e32499c9ebfe2665ecbc7",
          "blockNumber": "0x25cc4a3",
          "blockTimestamp": "0x6943e629",
          "transactionHash": "0xf66554b404b808978e4f5ca5893085f85aa811c7be37190e025eec7d2e8dc3f4",
          "transactionIndex": "0xad",
          "logIndex": "0x3d5",
          "removed": false
        },
        {
          "address": "0xc5cb6d1c588c5bfebd23b817ce33d9d380e50c00",
          "topics": [
            "0x2f8788117e7eff1d82e926ec794901d17c78024a50270940304540a733656f0d",
            "0xbf233dd2aafeb4d50879c4aa5c81e96d92f6e6945c906a58f9f2d1c1631b4b26",
            "0x000000000000000000000000ce11d6fb4f1e006e5a348230449dc387fde850cc",
            "0x0000000000000000000000004e59b44847b379578588920ca78fbf26c0b4956c"
          ],
          "data": "0x",
          "blockHash": "0x726019aa18f700b05edd715e36223b12af0d3776970e32499c9ebfe2665ecbc7",
          "blockNumber": "0x25cc4a3",
          "blockTimestamp": "0x6943e629",
          "transactionHash": "0xf66554b404b808978e4f5ca5893085f85aa811c7be37190e025eec7d2e8dc3f4",
          "transactionIndex": "0xad",
          "logIndex": "0x3d6",
          "removed": false
        }
      ],
      "logsBloom": "0x00000004000000000000000000000000000000000000080000000000000000000000200000000000000000000040010000000000000000000002000000000000000000000000000000000000080000000000000000000000000000100010000000000000020000000000028000000800000000000000000000020000000000000000000000000000000000000000000000000000001000000000000000000000000004000001000000000000000000080000000000000000001000000000000000000000000200000000000000000000000000000000000100000000000020000000000000000000000000000000000080000000008000000000000000000000",
      "type": "0x2",
      "transactionHash": "0xf66554b404b808978e4f5ca5893085f85aa811c7be37190e025eec7d2e8dc3f4",
      "transactionIndex": "0xad",
      "blockHash": "0x726019aa18f700b05edd715e36223b12af0d3776970e32499c9ebfe2665ecbc7",
      "blockNumber": "0x25cc4a3",
      "gasUsed": "0xda947",
      "effectiveGasPrice": "0xf87c9",
      "blobGasUsed": "0xab8a0",
      "from": "0xce11d6fb4f1e006e5a348230449dc387fde850cc",
      "to": "0x4e59b44847b379578588920ca78fbf26c0b4956c",
      "contractAddress": "0xc5cb6d1c588c5bfebd23b817ce33d9d380e50c00",
      "daFootprintGasScalar": "0x138",
      "l1BaseFeeScalar": "0x8dd",
      "l1BlobBaseFee": "0x19f5b4",
      "l1BlobBaseFeeScalar": "0x101c12",
      "l1Fee": "0x183895ec6",
      "l1GasPrice": "0x1ca1df8",
      "l1GasUsed": "0x8ccc"
    },
    {
      "status": "0x1",
      "cumulativeGasUsed": "0x323c067",
      "logs": [],
      "logsBloom": "0x00000000000000000000000000000000000000000000000000000000000000000000000000000000000000000000000000000000000000000000000000000000000000000000000000000000000000000000000000000000000000000000000000000000000000000000000000000000000000000000000000000000000000000000000000000000000000000000000000000000000000000000000000000000000000000000000000000000000000000000000000000000000000000000000000000000000000000000000000000000000000000000000000000000000000000000000000000000000000000000000000000000000000000000000000000000",
      "type": "0x2",
      "transactionHash": "0xef6b59ae3c98db1ff97b16546eec8531c47949996d0e37267dd8b3721cc07d45",
      "transactionIndex": "0xae",
      "blockHash": "0x726019aa18f700b05edd715e36223b12af0d3776970e32499c9ebfe2665ecbc7",
      "blockNumber": "0x25cc4a3",
      "gasUsed": "0x41198",
      "effectiveGasPrice": "0xf87c9",
      "blobGasUsed": "0x347b8",
      "from": "0xce11d6fb4f1e006e5a348230449dc387fde850cc",
      "to": "0x4e59b44847b379578588920ca78fbf26c0b4956c",
      "contractAddress": "0x8730f9e76fd4b4a84b203ffdbc289101056b345c",
      "daFootprintGasScalar": "0x138",
      "l1BaseFeeScalar": "0x8dd",
      "l1BlobBaseFee": "0x19f5b4",
      "l1BlobBaseFeeScalar": "0x101c12",
      "l1Fee": "0x76964018",
      "l1GasPrice": "0x1ca1df8",
      "l1GasUsed": "0x2b15"
    },
    {
      "status": "0x1",
      "cumulativeGasUsed": "0x33f849c",
      "logs": [],
      "logsBloom": "0x00000000000000000000000000000000000000000000000000000000000000000000000000000000000000000000000000000000000000000000000000000000000000000000000000000000000000000000000000000000000000000000000000000000000000000000000000000000000000000000000000000000000000000000000000000000000000000000000000000000000000000000000000000000000000000000000000000000000000000000000000000000000000000000000000000000000000000000000000000000000000000000000000000000000000000000000000000000000000000000000000000000000000000000000000000000",
      "type": "0x2",
      "transactionHash": "0xa5ba3231d53004733dff1719282b13f81b52a97d69cc957da77eb1a26e3f4752",
      "transactionIndex": "0xbc",
      "blockHash": "0x726019aa18f700b05edd715e36223b12af0d3776970e32499c9ebfe2665ecbc7",
      "blockNumber": "0x25cc4a3",
      "gasUsed": "0x3d42b",
      "effectiveGasPrice": "0xf87c9",
      "blobGasUsed": "0x35b38",
      "from": "0xce11d6fb4f1e006e5a348230449dc387fde850cc",
      "to": "0x4e59b44847b379578588920ca78fbf26c0b4956c",
      "contractAddress": "0x8f80861648294912d01976c2d0eedc8e6eea37e5",
      "daFootprintGasScalar": "0x138",
      "l1BaseFeeScalar": "0x8dd",
      "l1BlobBaseFee": "0x19f5b4",
      "l1BlobBaseFeeScalar": "0x101c12",
      "l1Fee": "0x79522e77",
      "l1GasPrice": "0x1ca1df8",
      "l1GasUsed": "0x2c13"
    },
    {
      "status": "0x1",
      "cumulativeGasUsed": "0x344f83f",
      "logs": [],
      "logsBloom": "0x00000000000000000000000000000000000000000000000000000000000000000000000000000000000000000000000000000000000000000000000000000000000000000000000000000000000000000000000000000000000000000000000000000000000000000000000000000000000000000000000000000000000000000000000000000000000000000000000000000000000000000000000000000000000000000000000000000000000000000000000000000000000000000000000000000000000000000000000000000000000000000000000000000000000000000000000000000000000000000000000000000000000000000000000000000000",
      "type": "0x2",
      "transactionHash": "0x05fe0942ccb25120729610d40fd118efa2b212190f43e44705f84516e713814a",
      "transactionIndex": "0xbd",
      "blockHash": "0x726019aa18f700b05edd715e36223b12af0d3776970e32499c9ebfe2665ecbc7",
      "blockNumber": "0x25cc4a3",
      "gasUsed": "0x573a3",
      "effectiveGasPrice": "0xf87c9",
      "blobGasUsed": "0x50aa8",
      "from": "0xce11d6fb4f1e006e5a348230449dc387fde850cc",
      "to": "0x4e59b44847b379578588920ca78fbf26c0b4956c",
      "contractAddress": "0x581ee947078b7009ae0ff840fa15a65526fdaf5c",
      "daFootprintGasScalar": "0x138",
      "l1BaseFeeScalar": "0x8dd",
      "l1BlobBaseFee": "0x19f5b4",
      "l1BlobBaseFeeScalar": "0x101c12",
      "l1Fee": "0xb630dbd4",
      "l1GasPrice": "0x1ca1df8",
      "l1GasUsed": "0x4231"
    },
    {
      "status": "0x1",
      "cumulativeGasUsed": "0x345d242",
      "logs": [
        {
          "address": "0x869f8d6e8d05ec1fdeab1d5d8d67f3d224da7571",
          "topics": [
            "0x4cf4410cc57040e44862ef0f45f3dd5a5e02db8eb8add648d4b0e236f1d07dca",
            "0x24b68ea7c41751c9d3aa471a5a8b0585ce7aa2e3bca7f6fd8c466872ec53785c",
            "0x0000000000000000000000000000000000000000000000000000000000000000"
          ],
          "data": "0x0000000000000000000000009b97e678fbc4b5e97516d452e057e15a9b5b8e1c000000000000000000000000000000000000000000000000000000000000000000000000000000000000000000000000000000000000000000000000000000a0000000000000000000000000000000000000000000000000000000000000000000000000000000000000000000000000000000000000000000000000000000000000000000000000000000000000000000000000000000000000000000000024c68e00fb0000000000000000000000006c99855b07b0bb62b0d9e3c71a4094f01388aff500000000000000000000000000000000000000000000000000000000",
          "blockHash": "0x726019aa18f700b05edd715e36223b12af0d3776970e32499c9ebfe2665ecbc7",
          "blockNumber": "0x25cc4a3",
          "blockTimestamp": "0x6943e629",
          "transactionHash": "0xba162ac87481d175d60811d8bcd01b1429d754d180fee571afb91eb63fe4e932",
          "transactionIndex": "0xbe",
          "logIndex": "0x3e2",
          "removed": false
        },
        {
          "address": "0x869f8d6e8d05ec1fdeab1d5d8d67f3d224da7571",
          "topics": [
            "0x20fda5fd27a1ea7bf5b9567f143ac5470bb059374a27e8f67cb44f946f6d0387",
            "0x24b68ea7c41751c9d3aa471a5a8b0585ce7aa2e3bca7f6fd8c466872ec53785c"
          ],
          "data": "0x00000000000000000000000000000000000000000000000000000000000003e8",
          "blockHash": "0x726019aa18f700b05edd715e36223b12af0d3776970e32499c9ebfe2665ecbc7",
          "blockNumber": "0x25cc4a3",
          "blockTimestamp": "0x6943e629",
          "transactionHash": "0xba162ac87481d175d60811d8bcd01b1429d754d180fee571afb91eb63fe4e932",
          "transactionIndex": "0xbe",
          "logIndex": "0x3e3",
          "removed": false
        }
      ],
      "logsBloom": "0x00000000000000000000000040000000000000800000000000000000000000000000000000000000000000000000000100000000880000000000000000000000000000000000000000000000000000000080000000000008000000000000000000000000020000000000000000020800000080000000000000000000000000000000000000000000000000000000000000000000000002000000000000000000000000000000000000000000000000000000000000000000000000000000000000000000000000000000000000000000800000000000400000000000000020000000000000000000000000000000000000000000000000000000000000000000",
      "type": "0x2",
      "transactionHash": "0xba162ac87481d175d60811d8bcd01b1429d754d180fee571afb91eb63fe4e932",
      "transactionIndex": "0xbe",
      "blockHash": "0x726019aa18f700b05edd715e36223b12af0d3776970e32499c9ebfe2665ecbc7",
      "blockNumber": "0x25cc4a3",
      "gasUsed": "0xda03",
      "effectiveGasPrice": "0xf87c9",
      "blobGasUsed": "0x9d38",
      "from": "0xce11d6fb4f1e006e5a348230449dc387fde850cc",
      "to": "0x869f8d6e8d05ec1fdeab1d5d8d67f3d224da7571",
      "contractAddress": null,
      "daFootprintGasScalar": "0x138",
      "l1BaseFeeScalar": "0x8dd",
      "l1BlobBaseFee": "0x19f5b4",
      "l1BlobBaseFeeScalar": "0x101c12",
      "l1Fee": "0x16514e97",
      "l1GasPrice": "0x1ca1df8",
      "l1GasUsed": "0x81b"
    },
    {
      "status": "0x1",
      "cumulativeGasUsed": "0x346d434",
      "logs": [
        {
          "address": "0x9b97e678fbc4b5e97516d452e057e15a9b5b8e1c",
          "topics": [
            "0xab64f92ab780ecbf4f3866f57cee465ff36c89450dcce20237ca7a8d81fb7d13",
            "0x0000000000000000000000006c99855b07b0bb62b0d9e3c71a4094f01388aff5"
          ],
          "data": "0x",
          "blockHash": "0x726019aa18f700b05edd715e36223b12af0d3776970e32499c9ebfe2665ecbc7",
          "blockNumber": "0x25cc4a3",
          "blockTimestamp": "0x6943e629",
          "transactionHash": "0x38e703813b09fd7b88298448f9701ec08145d0edd7a0f8ffac62ccf2d146c1e2",
          "transactionIndex": "0xbf",
          "logIndex": "0x3e4",
          "removed": false
        },
        {
          "address": "0x869f8d6e8d05ec1fdeab1d5d8d67f3d224da7571",
          "topics": [
            "0xc2617efa69bab66782fa219543714338489c4e9e178271560a91b82c3f612b58",
            "0x24b68ea7c41751c9d3aa471a5a8b0585ce7aa2e3bca7f6fd8c466872ec53785c",
            "0x0000000000000000000000000000000000000000000000000000000000000000"
          ],
          "data": "0x0000000000000000000000009b97e678fbc4b5e97516d452e057e15a9b5b8e1c000000000000000000000000000000000000000000000000000000000000000000000000000000000000000000000000000000000000000000000000000000600000000000000000000000000000000000000000000000000000000000000024c68e00fb0000000000000000000000006c99855b07b0bb62b0d9e3c71a4094f01388aff500000000000000000000000000000000000000000000000000000000",
          "blockHash": "0x726019aa18f700b05edd715e36223b12af0d3776970e32499c9ebfe2665ecbc7",
          "blockNumber": "0x25cc4a3",
          "blockTimestamp": "0x6943e629",
          "transactionHash": "0x38e703813b09fd7b88298448f9701ec08145d0edd7a0f8ffac62ccf2d146c1e2",
          "transactionIndex": "0xbf",
          "logIndex": "0x3e5",
          "removed": false
        }
      ],
      "logsBloom": "0x00000000000000040000000000000000000000800000000000000000000000000000000000000000000000000000000000000000080800000000000000000000000000000000000000000000000000000088000000000000000000000000002000000000020000000000000000020800000000000000000000000000000000000000000000020000000000000000000000000000000002000000000000000000000080000000000000000000100000000000000000000000200000000000000000000020000000080000000000000000800000000000000000000000000020000000000000000000000004000000000000000000000000000000400000000000",
      "type": "0x2",
      "transactionHash": "0x38e703813b09fd7b88298448f9701ec08145d0edd7a0f8ffac62ccf2d146c1e2",
      "transactionIndex": "0xbf",
      "blockHash": "0x726019aa18f700b05edd715e36223b12af0d3776970e32499c9ebfe2665ecbc7",
      "blockNumber": "0x25cc4a3",
      "gasUsed": "0x101f2",
      "effectiveGasPrice": "0xf87c9",
      "blobGasUsed": "0x9d38",
      "from": "0xce11d6fb4f1e006e5a348230449dc387fde850cc",
      "to": "0x869f8d6e8d05ec1fdeab1d5d8d67f3d224da7571",
      "contractAddress": null,
      "daFootprintGasScalar": "0x138",
      "l1BaseFeeScalar": "0x8dd",
      "l1BlobBaseFee": "0x19f5b4",
      "l1BlobBaseFeeScalar": "0x101c12",
      "l1Fee": "0x16514e97",
      "l1GasPrice": "0x1ca1df8",
      "l1GasUsed": "0x81b"
    },
    {
      "status": "0x1",
      "cumulativeGasUsed": "0x347ae37",
      "logs": [
        {
          "address": "0x869f8d6e8d05ec1fdeab1d5d8d67f3d224da7571",
          "topics": [
            "0x4cf4410cc57040e44862ef0f45f3dd5a5e02db8eb8add648d4b0e236f1d07dca",
            "0xc996267dc4fc767a4c0e1d9f8af0ab6e20258d75c54bbd77b35cbea3b770ddca",
            "0x0000000000000000000000000000000000000000000000000000000000000000"
          ],
          "data": "0x0000000000000000000000009b97e678fbc4b5e97516d452e057e15a9b5b8e1c000000000000000000000000000000000000000000000000000000000000000000000000000000000000000000000000000000000000000000000000000000a00000000000000000000000000000000000000000000000000000000000000000000000000000000000000000000000000000000000000000000000000000000000000000000000000000000000000000000000000000000000000000000000245b34b823000000000000000000000000c5cb6d1c588c5bfebd23b817ce33d9d380e50c0000000000000000000000000000000000000000000000000000000000",
          "blockHash": "0x726019aa18f700b05edd715e36223b12af0d3776970e32499c9ebfe2665ecbc7",
          "blockNumber": "0x25cc4a3",
          "blockTimestamp": "0x6943e629",
          "transactionHash": "0x79b84c96afe0954ebc09f0b0411687006d31d83ad5b3ad0f84184b427a677791",
          "transactionIndex": "0xc0",
          "logIndex": "0x3e6",
          "removed": false
        },
        {
          "address": "0x869f8d6e8d05ec1fdeab1d5d8d67f3d224da7571",
          "topics": [
            "0x20fda5fd27a1ea7bf5b9567f143ac5470bb059374a27e8f67cb44f946f6d0387",
            "0xc996267dc4fc767a4c0e1d9f8af0ab6e20258d75c54bbd77b35cbea3b770ddca"
          ],
          "data": "0x00000000000000000000000000000000000000000000000000000000000003e9",
          "blockHash": "0x726019aa18f700b05edd715e36223b12af0d3776970e32499c9ebfe2665ecbc7",
          "blockNumber": "0x25cc4a3",
          "blockTimestamp": "0x6943e629",
          "transactionHash": "0x79b84c96afe0954ebc09f0b0411687006d31d83ad5b3ad0f84184b427a677791",
          "transactionIndex": "0xc0",
          "logIndex": "0x3e7",
          "removed": false
        }
      ],
      "logsBloom": "0x00000000000000000000000040000000000000000000000000000000000000000000000000000000000000000000000100000000800000000000000000000000000000000000000000000000000000000084000000000008000000000000000000000000020000000000000000020800000080000000000000000000000000000000000000000000000000000000000000000000000002000000000000000000000000000000000000000000000000000000000000000000000000000000000000000000000000000000000000000000000000000000400001000000000020000000000000000000000000000000000000000000000000000000000000002000",
      "type": "0x2",
      "transactionHash": "0x79b84c96afe0954ebc09f0b0411687006d31d83ad5b3ad0f84184b427a677791",
      "transactionIndex": "0xc0",
      "blockHash": "0x726019aa18f700b05edd715e36223b12af0d3776970e32499c9ebfe2665ecbc7",
      "blockNumber": "0x25cc4a3",
      "gasUsed": "0xda03",
      "effectiveGasPrice": "0xf87c9",
      "blobGasUsed": "0x9c00",
      "from": "0xce11d6fb4f1e006e5a348230449dc387fde850cc",
      "to": "0x869f8d6e8d05ec1fdeab1d5d8d67f3d224da7571",
      "contractAddress": null,
      "daFootprintGasScalar": "0x138",
      "l1BaseFeeScalar": "0x8dd",
      "l1BlobBaseFee": "0x19f5b4",
      "l1BlobBaseFeeScalar": "0x101c12",
      "l1Fee": "0x162c77f1",
      "l1GasPrice": "0x1ca1df8",
      "l1GasUsed": "0x80e"
    },
    {
      "status": "0x1",
      "cumulativeGasUsed": "0x348b45f",
      "logs": [
        {
          "address": "0x9b97e678fbc4b5e97516d452e057e15a9b5b8e1c",
          "topics": [
            "0x482b97c53e48ffa324a976e2738053e9aff6eee04d8aac63b10e19411d869b82",
            "0x0000000000000000000000000000000000000000000000000000000000000000",
            "0x000000000000000000000000c5cb6d1c588c5bfebd23b817ce33d9d380e50c00"
          ],
          "data": "0x",
          "blockHash": "0x726019aa18f700b05edd715e36223b12af0d3776970e32499c9ebfe2665ecbc7",
          "blockNumber": "0x25cc4a3",
          "blockTimestamp": "0x6943e629",
          "transactionHash": "0x24e557c384ebc6cd61d4a52ccd97bd84550198da6277986c6d25de900a572c01",
          "transactionIndex": "0xc1",
          "logIndex": "0x3e8",
          "removed": false
        },
        {
          "address": "0x869f8d6e8d05ec1fdeab1d5d8d67f3d224da7571",
          "topics": [
            "0xc2617efa69bab66782fa219543714338489c4e9e178271560a91b82c3f612b58",
            "0xc996267dc4fc767a4c0e1d9f8af0ab6e20258d75c54bbd77b35cbea3b770ddca",
            "0x0000000000000000000000000000000000000000000000000000000000000000"
          ],
          "data": "0x0000000000000000000000009b97e678fbc4b5e97516d452e057e15a9b5b8e1c0000000000000000000000000000000000000000000000000000000000000000000000000000000000000000000000000000000000000000000000000000006000000000000000000000000000000000000000000000000000000000000000245b34b823000000000000000000000000c5cb6d1c588c5bfebd23b817ce33d9d380e50c0000000000000000000000000000000000000000000000000000000000",
          "blockHash": "0x726019aa18f700b05edd715e36223b12af0d3776970e32499c9ebfe2665ecbc7",
          "blockNumber": "0x25cc4a3",
          "blockTimestamp": "0x6943e629",
          "transactionHash": "0x24e557c384ebc6cd61d4a52ccd97bd84550198da6277986c6d25de900a572c01",
          "transactionIndex": "0xc1",
          "logIndex": "0x3e9",
          "removed": false
        }
      ],
      "logsBloom": "0x0000000000000000000000000000000000000000000000000000000000000000000000000000000000000000000000000000000000080001000000000000000000000000000000800000000000000000008c000000000000000000000000002000000000020000000000000000020800000000000000000000000000000000000000000000000000000000000000000040000000000002000000000000000000000080000000000000000000100080000000000000000000000000000000000000000400000000080000000000000000000000000000000001000000000020000000000000000000800000000000000000000000000000000000000000002000",
      "type": "0x2",
      "transactionHash": "0x24e557c384ebc6cd61d4a52ccd97bd84550198da6277986c6d25de900a572c01",
      "transactionIndex": "0xc1",
      "blockHash": "0x726019aa18f700b05edd715e36223b12af0d3776970e32499c9ebfe2665ecbc7",
      "blockNumber": "0x25cc4a3",
      "gasUsed": "0x10628",
      "effectiveGasPrice": "0xf87c9",
      "blobGasUsed": "0x9c00",
      "from": "0xce11d6fb4f1e006e5a348230449dc387fde850cc",
      "to": "0x869f8d6e8d05ec1fdeab1d5d8d67f3d224da7571",
      "contractAddress": null,
      "daFootprintGasScalar": "0x138",
      "l1BaseFeeScalar": "0x8dd",
      "l1BlobBaseFee": "0x19f5b4",
      "l1BlobBaseFeeScalar": "0x101c12",
      "l1Fee": "0x162c77f1",
      "l1GasPrice": "0x1ca1df8",
      "l1GasUsed": "0x80e"
    },
    {
      "status": "0x1",
      "cumulativeGasUsed": "0x3498e62",
      "logs": [
        {
          "address": "0x869f8d6e8d05ec1fdeab1d5d8d67f3d224da7571",
          "topics": [
            "0x4cf4410cc57040e44862ef0f45f3dd5a5e02db8eb8add648d4b0e236f1d07dca",
            "0xc8639fa1ac3ecb0546c39e38f75ad108dc86889f373e429a61a8f0e3f99093e8",
            "0x0000000000000000000000000000000000000000000000000000000000000000"
          ],
          "data": "0x000000000000000000000000c5cb6d1c588c5bfebd23b817ce33d9d380e50c00000000000000000000000000000000000000000000000000000000000000000000000000000000000000000000000000000000000000000000000000000000a000000000000000000000000000000000000000000000000000000000000000000000000000000000000000000000000000000000000000000000000000000000000000000000000000000000000000000000000000000000000000000000002422f2caf10000000000000000000000008730f9e76fd4b4a84b203ffdbc289101056b345c00000000000000000000000000000000000000000000000000000000",
          "blockHash": "0x726019aa18f700b05edd715e36223b12af0d3776970e32499c9ebfe2665ecbc7",
          "blockNumber": "0x25cc4a3",
          "blockTimestamp": "0x6943e629",
          "transactionHash": "0x415e71200bd3d83620bc5300ec59f72a849dcc0d67e024f160dd2e21b3b1b996",
          "transactionIndex": "0xc2",
          "logIndex": "0x3ea",
          "removed": false
        },
        {
          "address": "0x869f8d6e8d05ec1fdeab1d5d8d67f3d224da7571",
          "topics": [
            "0x20fda5fd27a1ea7bf5b9567f143ac5470bb059374a27e8f67cb44f946f6d0387",
            "0xc8639fa1ac3ecb0546c39e38f75ad108dc86889f373e429a61a8f0e3f99093e8"
          ],
          "data": "0x00000000000000000000000000000000000000000000000000000000000003ea",
          "blockHash": "0x726019aa18f700b05edd715e36223b12af0d3776970e32499c9ebfe2665ecbc7",
          "blockNumber": "0x25cc4a3",
          "blockTimestamp": "0x6943e629",
          "transactionHash": "0x415e71200bd3d83620bc5300ec59f72a849dcc0d67e024f160dd2e21b3b1b996",
          "transactionIndex": "0xc2",
          "logIndex": "0x3eb",
          "removed": false
        }
      ],
      "logsBloom": "0x00000000000000000000000040000000000000000000000000000000000000000000000000000000000000000000000100000000800000000000000000000000000000000000000000000000000000000080000000000008000000000000000000000000020000000000000000420800000090000000000000000000000000000000000000000000000000000000000000000000000002000000000000000004000000000000000000000000000000000000000000000000000000000000000000000000000000000000000000000000000000000000400000000000000020000000000000000000000000000000000000000000000000000000000000000000",
      "type": "0x2",
      "transactionHash": "0x415e71200bd3d83620bc5300ec59f72a849dcc0d67e024f160dd2e21b3b1b996",
      "transactionIndex": "0xc2",
      "blockHash": "0x726019aa18f700b05edd715e36223b12af0d3776970e32499c9ebfe2665ecbc7",
      "blockNumber": "0x25cc4a3",
      "gasUsed": "0xda03",
      "effectiveGasPrice": "0xf87c9",
      "blobGasUsed": "0x9c00",
      "from": "0xce11d6fb4f1e006e5a348230449dc387fde850cc",
      "to": "0x869f8d6e8d05ec1fdeab1d5d8d67f3d224da7571",
      "contractAddress": null,
      "daFootprintGasScalar": "0x138",
      "l1BaseFeeScalar": "0x8dd",
      "l1BlobBaseFee": "0x19f5b4",
      "l1BlobBaseFeeScalar": "0x101c12",
      "l1Fee": "0x162c77f1",
      "l1GasPrice": "0x1ca1df8",
      "l1GasUsed": "0x80e"
    },
    {
      "status": "0x1",
      "cumulativeGasUsed": "0x34a8f8e",
      "logs": [
        {
          "address": "0xc5cb6d1c588c5bfebd23b817ce33d9d380e50c00",
          "topics": [
            "0xa77e7c594c11a0d5d9d8e6a9132ac0db912dc0f34f5fb7d94860fe38d16410bd",
            "0x0000000000000000000000008730f9e76fd4b4a84b203ffdbc289101056b345c"
          ],
          "data": "0x",
          "blockHash": "0x726019aa18f700b05edd715e36223b12af0d3776970e32499c9ebfe2665ecbc7",
          "blockNumber": "0x25cc4a3",
          "blockTimestamp": "0x6943e629",
          "transactionHash": "0x8509fcf48bcc80d95c30ec919b48b1509a6bdf87d9a2faa925c8e816f12af936",
          "transactionIndex": "0xc3",
          "logIndex": "0x3ec",
          "removed": false
        },
        {
          "address": "0x869f8d6e8d05ec1fdeab1d5d8d67f3d224da7571",
          "topics": [
            "0xc2617efa69bab66782fa219543714338489c4e9e178271560a91b82c3f612b58",
            "0xc8639fa1ac3ecb0546c39e38f75ad108dc86889f373e429a61a8f0e3f99093e8",
            "0x0000000000000000000000000000000000000000000000000000000000000000"
          ],
          "data": "0x000000000000000000000000c5cb6d1c588c5bfebd23b817ce33d9d380e50c0000000000000000000000000000000000000000000000000000000000000000000000000000000000000000000000000000000000000000000000000000000060000000000000000000000000000000000000000000000000000000000000002422f2caf10000000000000000000000008730f9e76fd4b4a84b203ffdbc289101056b345c00000000000000000000000000000000000000000000000000000000",
          "blockHash": "0x726019aa18f700b05edd715e36223b12af0d3776970e32499c9ebfe2665ecbc7",
          "blockNumber": "0x25cc4a3",
          "blockTimestamp": "0x6943e629",
          "transactionHash": "0x8509fcf48bcc80d95c30ec919b48b1509a6bdf87d9a2faa925c8e816f12af936",
          "transactionIndex": "0xc3",
          "logIndex": "0x3ed",
          "removed": false
        }
      ],
      "logsBloom": "0x00000000000000000000000000000000004000000000000000000000000000000000200000000000000000000000000000000000000800000002000000000000000000000000000000000000000000000080000000000000000000000000002000000000020000000000000000420800000010200000000000020000000000000000000000000000000000000000000000000000000002000400000000000004000000000000000000000000000000000000000000000000000080000000000000000000000000080000000000000000000000000000000000000000000020000000000100000000000000000000000000000000000000000000000040000000",
      "type": "0x2",
      "transactionHash": "0x8509fcf48bcc80d95c30ec919b48b1509a6bdf87d9a2faa925c8e816f12af936",
      "transactionIndex": "0xc3",
      "blockHash": "0x726019aa18f700b05edd715e36223b12af0d3776970e32499c9ebfe2665ecbc7",
      "blockNumber": "0x25cc4a3",
      "gasUsed": "0x1012c",
      "effectiveGasPrice": "0xf87c9",
      "blobGasUsed": "0x9c00",
      "from": "0xce11d6fb4f1e006e5a348230449dc387fde850cc",
      "to": "0x869f8d6e8d05ec1fdeab1d5d8d67f3d224da7571",
      "contractAddress": null,
      "daFootprintGasScalar": "0x138",
      "l1BaseFeeScalar": "0x8dd",
      "l1BlobBaseFee": "0x19f5b4",
      "l1BlobBaseFeeScalar": "0x101c12",
      "l1Fee": "0x162c77f1",
      "l1GasPrice": "0x1ca1df8",
      "l1GasUsed": "0x80e"
    },
    {
      "status": "0x1",
      "cumulativeGasUsed": "0x34b6991",
      "logs": [
        {
          "address": "0x869f8d6e8d05ec1fdeab1d5d8d67f3d224da7571",
          "topics": [
            "0x4cf4410cc57040e44862ef0f45f3dd5a5e02db8eb8add648d4b0e236f1d07dca",
            "0x055a2aa57450e616642394c2bfcaf332269b404cc8dcb389a4c3996d1ce12c59",
            "0x0000000000000000000000000000000000000000000000000000000000000000"
          ],
          "data": "0x000000000000000000000000c5cb6d1c588c5bfebd23b817ce33d9d380e50c00000000000000000000000000000000000000000000000000000000000000000000000000000000000000000000000000000000000000000000000000000000a000000000000000000000000000000000000000000000000000000000000000000000000000000000000000000000000000000000000000000000000000000000000000000000000000000000000000000000000000000000000000000000002422f2caf10000000000000000000000008f80861648294912d01976c2d0eedc8e6eea37e500000000000000000000000000000000000000000000000000000000",
          "blockHash": "0x726019aa18f700b05edd715e36223b12af0d3776970e32499c9ebfe2665ecbc7",
          "blockNumber": "0x25cc4a3",
          "blockTimestamp": "0x6943e629",
          "transactionHash": "0xa4b919b730bbac5cd7ecced910d277530b7eab27c0a7d207f4416a0ed7df6fdc",
          "transactionIndex": "0xc4",
          "logIndex": "0x3ee",
          "removed": false
        },
        {
          "address": "0x869f8d6e8d05ec1fdeab1d5d8d67f3d224da7571",
          "topics": [
            "0x20fda5fd27a1ea7bf5b9567f143ac5470bb059374a27e8f67cb44f946f6d0387",
            "0x055a2aa57450e616642394c2bfcaf332269b404cc8dcb389a4c3996d1ce12c59"
          ],
          "data": "0x00000000000000000000000000000000000000000000000000000000000003eb",
          "blockHash": "0x726019aa18f700b05edd715e36223b12af0d3776970e32499c9ebfe2665ecbc7",
          "blockNumber": "0x25cc4a3",
          "blockTimestamp": "0x6943e629",
          "transactionHash": "0xa4b919b730bbac5cd7ecced910d277530b7eab27c0a7d207f4416a0ed7df6fdc",
          "transactionIndex": "0xc4",
          "logIndex": "0x3ef",
          "removed": false
        }
      ],
      "logsBloom": "0x00000000000000000000000040000000000000000000000000000000000000000000000000000000000000000000000100000000800000000000000000000000000000000000000000000000000000000080000000000008000000000000000000000000020000000000000000020800000080000000000000000000000000000000000000000000000000000000000000000000000002000000000000000000000000000000000000000000000000000000001000000000000000000000000000000000000000000000000000000000000000000000400000000008000020000000000000000008000000000000000000000000000000000000000000000000",
      "type": "0x2",
      "transactionHash": "0xa4b919b730bbac5cd7ecced910d277530b7eab27c0a7d207f4416a0ed7df6fdc",
      "transactionIndex": "0xc4",
      "blockHash": "0x726019aa18f700b05edd715e36223b12af0d3776970e32499c9ebfe2665ecbc7",
      "blockNumber": "0x25cc4a3",
      "gasUsed": "0xda03",
      "effectiveGasPrice": "0xf87c9",
      "blobGasUsed": "0x9c00",
      "from": "0xce11d6fb4f1e006e5a348230449dc387fde850cc",
      "to": "0x869f8d6e8d05ec1fdeab1d5d8d67f3d224da7571",
      "contractAddress": null,
      "daFootprintGasScalar": "0x138",
      "l1BaseFeeScalar": "0x8dd",
      "l1BlobBaseFee": "0x19f5b4",
      "l1BlobBaseFeeScalar": "0x101c12",
      "l1Fee": "0x162c77f1",
      "l1GasPrice": "0x1ca1df8",
      "l1GasUsed": "0x80e"
    },
    {
      "status": "0x1",
      "cumulativeGasUsed": "0x34c6abd",
      "logs": [
        {
          "address": "0xc5cb6d1c588c5bfebd23b817ce33d9d380e50c00",
          "topics": [
            "0xa77e7c594c11a0d5d9d8e6a9132ac0db912dc0f34f5fb7d94860fe38d16410bd",
            "0x0000000000000000000000008f80861648294912d01976c2d0eedc8e6eea37e5"
          ],
          "data": "0x",
          "blockHash": "0x726019aa18f700b05edd715e36223b12af0d3776970e32499c9ebfe2665ecbc7",
          "blockNumber": "0x25cc4a3",
          "blockTimestamp": "0x6943e629",
          "transactionHash": "0x05c8817eeb846237e8b17592843de8a80f0c5971ca0a220ca18eca073e0e8d73",
          "transactionIndex": "0xc5",
          "logIndex": "0x3f0",
          "removed": false
        },
        {
          "address": "0x869f8d6e8d05ec1fdeab1d5d8d67f3d224da7571",
          "topics": [
            "0xc2617efa69bab66782fa219543714338489c4e9e178271560a91b82c3f612b58",
            "0x055a2aa57450e616642394c2bfcaf332269b404cc8dcb389a4c3996d1ce12c59",
            "0x0000000000000000000000000000000000000000000000000000000000000000"
          ],
          "data": "0x000000000000000000000000c5cb6d1c588c5bfebd23b817ce33d9d380e50c0000000000000000000000000000000000000000000000000000000000000000000000000000000000000000000000000000000000000000000000000000000060000000000000000000000000000000000000000000000000000000000000002422f2caf10000000000000000000000008f80861648294912d01976c2d0eedc8e6eea37e500000000000000000000000000000000000000000000000000000000",
          "blockHash": "0x726019aa18f700b05edd715e36223b12af0d3776970e32499c9ebfe2665ecbc7",
          "blockNumber": "0x25cc4a3",
          "blockTimestamp": "0x6943e629",
          "transactionHash": "0x05c8817eeb846237e8b17592843de8a80f0c5971ca0a220ca18eca073e0e8d73",
          "transactionIndex": "0xc5",
          "logIndex": "0x3f1",
          "removed": false
        }
      ],
      "logsBloom": "0x00000000000000000000000000400000000000000000000000000000000000000000200000000000000000000000000000000000000800000002000000000000000000000000008000000000000000000080000000000000000000000000002000000000020000000000000000020800000000200000000000020000000000000000000000000000000000000000000000000000000002000000000000000000000000000000000000000000000000000000001000000000000080000000000000000000000000080000000000000000000000000000000000000008000020004000000100000008000000000000000000000000000000000000000000000000",
      "type": "0x2",
      "transactionHash": "0x05c8817eeb846237e8b17592843de8a80f0c5971ca0a220ca18eca073e0e8d73",
      "transactionIndex": "0xc5",
      "blockHash": "0x726019aa18f700b05edd715e36223b12af0d3776970e32499c9ebfe2665ecbc7",
      "blockNumber": "0x25cc4a3",
      "gasUsed": "0x1012c",
      "effectiveGasPrice": "0xf87c9",
      "blobGasUsed": "0x9c00",
      "from": "0xce11d6fb4f1e006e5a348230449dc387fde850cc",
      "to": "0x869f8d6e8d05ec1fdeab1d5d8d67f3d224da7571",
      "contractAddress": null,
      "daFootprintGasScalar": "0x138",
      "l1BaseFeeScalar": "0x8dd",
      "l1BlobBaseFee": "0x19f5b4",
      "l1BlobBaseFeeScalar": "0x101c12",
      "l1Fee": "0x162c77f1",
      "l1GasPrice": "0x1ca1df8",
      "l1GasUsed": "0x80e"
    },
    {
      "status": "0x1",
      "cumulativeGasUsed": "0x34d44c0",
      "logs": [
        {
          "address": "0x869f8d6e8d05ec1fdeab1d5d8d67f3d224da7571",
          "topics": [
            "0x4cf4410cc57040e44862ef0f45f3dd5a5e02db8eb8add648d4b0e236f1d07dca",
            "0x31d31e92d2fe6d1958c6db98d7ef87077d9b08a9ff50a1f4a9dcc5fc81ca7b86",
            "0x0000000000000000000000000000000000000000000000000000000000000000"
          ],
          "data": "0x000000000000000000000000c5cb6d1c588c5bfebd23b817ce33d9d380e50c00000000000000000000000000000000000000000000000000000000000000000000000000000000000000000000000000000000000000000000000000000000a000000000000000000000000000000000000000000000000000000000000000000000000000000000000000000000000000000000000000000000000000000000000000000000000000000000000000000000000000000000000000000000002422f2caf1000000000000000000000000581ee947078b7009ae0ff840fa15a65526fdaf5c00000000000000000000000000000000000000000000000000000000",
          "blockHash": "0x726019aa18f700b05edd715e36223b12af0d3776970e32499c9ebfe2665ecbc7",
          "blockNumber": "0x25cc4a3",
          "blockTimestamp": "0x6943e629",
          "transactionHash": "0x43a21a6c5076e279c6d39d7bd2d37031a0661cb4aefe31c62913bab984976de1",
          "transactionIndex": "0xc6",
          "logIndex": "0x3f2",
          "removed": false
        },
        {
          "address": "0x869f8d6e8d05ec1fdeab1d5d8d67f3d224da7571",
          "topics": [
            "0x20fda5fd27a1ea7bf5b9567f143ac5470bb059374a27e8f67cb44f946f6d0387",
            "0x31d31e92d2fe6d1958c6db98d7ef87077d9b08a9ff50a1f4a9dcc5fc81ca7b86"
          ],
          "data": "0x00000000000000000000000000000000000000000000000000000000000003ed",
          "blockHash": "0x726019aa18f700b05edd715e36223b12af0d3776970e32499c9ebfe2665ecbc7",
          "blockNumber": "0x25cc4a3",
          "blockTimestamp": "0x6943e629",
          "transactionHash": "0x43a21a6c5076e279c6d39d7bd2d37031a0661cb4aefe31c62913bab984976de1",
          "transactionIndex": "0xc6",
          "logIndex": "0x3f3",
          "removed": false
        }
      ],
      "logsBloom": "0x00000000000000000200000040000000000000000000000000000000000000000000000000000000000000000000000100000000800000000000000000000000000000000000000000000000000000000080000000000008000000000000000000000000020000000000000000820800000080000000000000000000000000000000000000000000000000000000000000000000000002000000000000000000000000000000000000000000000000000000000000000000000000000000000000000000000000000000000000000000000000000000400000000000000020000000000000000000000000000000000000000008000000000000000000000000",
      "type": "0x2",
      "transactionHash": "0x43a21a6c5076e279c6d39d7bd2d37031a0661cb4aefe31c62913bab984976de1",
      "transactionIndex": "0xc6",
      "blockHash": "0x726019aa18f700b05edd715e36223b12af0d3776970e32499c9ebfe2665ecbc7",
      "blockNumber": "0x25cc4a3",
      "gasUsed": "0xda03",
      "effectiveGasPrice": "0xf87c9",
      "blobGasUsed": "0x9c00",
      "from": "0xce11d6fb4f1e006e5a348230449dc387fde850cc",
      "to": "0x869f8d6e8d05ec1fdeab1d5d8d67f3d224da7571",
      "contractAddress": null,
      "daFootprintGasScalar": "0x138",
      "l1BaseFeeScalar": "0x8dd",
      "l1BlobBaseFee": "0x19f5b4",
      "l1BlobBaseFeeScalar": "0x101c12",
      "l1Fee": "0x162c77f1",
      "l1GasPrice": "0x1ca1df8",
      "l1GasUsed": "0x80e"
    },
    {
      "status": "0x1",
      "cumulativeGasUsed": "0x34e45ec",
      "logs": [
        {
          "address": "0xc5cb6d1c588c5bfebd23b817ce33d9d380e50c00",
          "topics": [
            "0xa77e7c594c11a0d5d9d8e6a9132ac0db912dc0f34f5fb7d94860fe38d16410bd",
            "0x000000000000000000000000581ee947078b7009ae0ff840fa15a65526fdaf5c"
          ],
          "data": "0x",
          "blockHash": "0x726019aa18f700b05edd715e36223b12af0d3776970e32499c9ebfe2665ecbc7",
          "blockNumber": "0x25cc4a3",
          "blockTimestamp": "0x6943e629",
          "transactionHash": "0xef6c8a99a25b44b75a93f3ecac688c998d4037a8b245650f7721224ec5feee9b",
          "transactionIndex": "0xc7",
          "logIndex": "0x3f4",
          "removed": false
        },
        {
          "address": "0x869f8d6e8d05ec1fdeab1d5d8d67f3d224da7571",
          "topics": [
            "0xc2617efa69bab66782fa219543714338489c4e9e178271560a91b82c3f612b58",
            "0x31d31e92d2fe6d1958c6db98d7ef87077d9b08a9ff50a1f4a9dcc5fc81ca7b86",
            "0x0000000000000000000000000000000000000000000000000000000000000000"
          ],
          "data": "0x000000000000000000000000c5cb6d1c588c5bfebd23b817ce33d9d380e50c0000000000000000000000000000000000000000000000000000000000000000000000000000000000000000000000000000000000000000000000000000000060000000000000000000000000000000000000000000000000000000000000002422f2caf1000000000000000000000000581ee947078b7009ae0ff840fa15a65526fdaf5c00000000000000000000000000000000000000000000000000000000",
          "blockHash": "0x726019aa18f700b05edd715e36223b12af0d3776970e32499c9ebfe2665ecbc7",
          "blockNumber": "0x25cc4a3",
          "blockTimestamp": "0x6943e629",
          "transactionHash": "0xef6c8a99a25b44b75a93f3ecac688c998d4037a8b245650f7721224ec5feee9b",
          "transactionIndex": "0xc7",
          "logIndex": "0x3f5",
          "removed": false
        }
      ],
      "logsBloom": "0x00000000000000000200000000000000000000000000000000000000000000000000200000000000000000000000000000000000000800000002000000000000000000000000000000000000000000000080000000000000000000000000002000000000020100000000000000820800000200200000000000020000000000000000000000000000000000000000000000002000000002000000000000000000000000000000000000000000000000000000000000000000000080000000000000000000000000080000000000000000000000000000000000000000000020000000000100000000000000000000000000000008000000000000000000000000",
      "type": "0x2",
      "transactionHash": "0xef6c8a99a25b44b75a93f3ecac688c998d4037a8b245650f7721224ec5feee9b",
      "transactionIndex": "0xc7",
      "blockHash": "0x726019aa18f700b05edd715e36223b12af0d3776970e32499c9ebfe2665ecbc7",
      "blockNumber": "0x25cc4a3",
      "gasUsed": "0x1012c",
      "effectiveGasPrice": "0xf87c9",
      "blobGasUsed": "0x9c00",
      "from": "0xce11d6fb4f1e006e5a348230449dc387fde850cc",
      "to": "0x869f8d6e8d05ec1fdeab1d5d8d67f3d224da7571",
      "contractAddress": null,
      "daFootprintGasScalar": "0x138",
      "l1BaseFeeScalar": "0x8dd",
      "l1BlobBaseFee": "0x19f5b4",
      "l1BlobBaseFeeScalar": "0x101c12",
      "l1Fee": "0x162c77f1",
      "l1GasPrice": "0x1ca1df8",
      "l1GasUsed": "0x80e"
    }
  ],
  "libraries": [],
  "pending": [],
  "returns": {},
  "timestamp": 1766057634290,
  "chain": 8453,
  "commit": "a76589e"
}