{
  "transactions": [
    {
      "hash": "0xcb9ae64f2270f1f07d3db1d45447df30e3aa7138db2119fa3ff77485f10c40aa",
      "transactionType": "CREATE2",
      "contractName": "YieldSeekerMoonwellRewardAdapter",
      "contractAddress": "0x4367677bd9466bdbb64e4af7911d63344eaa8eee",
      "function": null,
      "arguments": [
        "0xA88594D404727625A9437C3f886C7643872296AE"
      ],
      "transaction": {
        "from": "0xd6768630e0b26eba52d52e75a5d21989aa750113",
        "to": "0x4e59b44847b379578588920ca78fbf26c0b4956c",
        "gas": "0x83fff",
        "value": "0x0",
        "input": "0x000000000000000000000000000000000000000000000000000000000000071160c03461009557601f6106be38819003918201601f19168301916001600160401b038311848410176100995780849260209460405283398101031261009557516001600160a01b03811690819003610095573060805280156100865760a05260405161061090816100ae823960805181610101015260a05181818161018e01526102ec0152f35b63d92e233d60e01b5f5260045ffd5b5f80fd5b634e487b7160e01b5f52604160045260245ffdfe6080806040526004361015610012575f80fd5b5f3560e01c9081630c44d37c1461017c575080631cff79cd146100ab57633685ffe71461003d575f80fd5b346100a75760403660031901126100a7576100566101bd565b5060243567ffffffffffffffff81116100a757366023820112156100a75780600401359067ffffffffffffffff82116100a757602490369260051b0101116100a757633954108560e21b5f5260045ffd5b5f80fd5b60403660031901126100a7576100bf6101bd565b6024359067ffffffffffffffff82116100a757366023830112156100a75781600401359167ffffffffffffffff83116100a75736602484830101116100a757307f00000000000000000000000000000000000000000000000000000000000000006001600160a01b03161461016d576020926040926024610141930190610209565b815192839181835280519182918282860152018484015e5f828201840152601f01601f19168101030190f35b633954108560e21b5f5260045ffd5b346100a7575f3660031901126100a7577f00000000000000000000000000000000000000000000000000000000000000006001600160a01b03168152602090f35b600435906001600160a01b03821682036100a757565b90601f8019910116810190811067ffffffffffffffff8211176101f557604052565b634e487b7160e01b5f52604160045260245ffd5b5f92806004116100a75782356001600160e01b031916633685ffe760e01b1461023b576311fa59f360e11b8452600484fd5b820191604081840360031901126100a75760048101356001600160a01b03811691908290036100a75760248101359067ffffffffffffffff82116100a7570190836023830112156100a75760048201359167ffffffffffffffff83116101f5578260051b94604051936102b160208801866101d3565b84526020840191602060048498830101019182116100a757602401915b8183106105ba5750506040516370a0823160e01b81523060048201527f00000000000000000000000000000000000000000000000000000000000000006001600160a01b0316959094909150602085602481895afa948515610546575f95610586575b50308303610573576001600160a01b031691823b156100a75760408051633685ffe760e01b815260048101929092526024820152925160448401819052839160648301915f5b8181106105515750505091815f81819503925af1801561054657610531575b506040516370a0823160e01b815230600482015290602082602481865afa9182156104de5784926104fd575b50808203918083116104e9570361040d575b5050604051906020820182811067ffffffffffffffff8211176103f957604052815290565b634e487b7160e01b82526041600452602482fd5b604051633325e1df60e01b8152602081600481305afa9081156104de57849161049c575b506001600160a01b031691823b15610498579060448492836040519586948593633d2dca7160e01b8552600485015260248401525af1801561048d57908291156103d4578161047f916101d3565b61048a57805f6103d4565b80fd5b6040513d84823e3d90fd5b8380fd5b90506020813d6020116104d6575b816104b7602093836101d3565b8101031261049857516001600160a01b0381168103610498575f610431565b3d91506104aa565b6040513d86823e3d90fd5b634e487b7160e01b85526011600452602485fd5b9091506020813d602011610529575b81610519602093836101d3565b810103126100a75751905f6103c2565b3d915061050c565b61053e9193505f906101d3565b5f915f610396565b6040513d5f823e3d90fd5b82516001600160a01b0316845286945060209384019390920191600101610377565b826308cd561560e11b5f5260045260245ffd5b9094506020813d6020116105b2575b816105a2602093836101d3565b810103126100a75751935f610331565b3d9150610595565b82356001600160a01b03811681036100a7578152602092830192016102ce56fea264697066735822122043669df88ecf41bdb7efb65839f5a88549e712f78080fb77c05f2504ed15623e64736f6c634300081c0033000000000000000000000000a88594d404727625a9437c3f886c7643872296ae",
        "nonce": "0x20",
        "chainId": "0x2105"
      },
      "additionalContracts": [],
      "isFixedGasLimit": false
    },
    {
      "hash": "0x520d3b62fa087d7aeefd67dc40a1e5ba350870de367f7324cbcbbb5fdb485491",
      "transactionType": "CALL",
      "contractName": "YieldSeekerAdminTimelock",
      "contractAddress": "0x8e074b7636f6a56097f1f719e708e2c932e23bab",
      "function": "scheduleBatch(address[],uint256[],bytes[],bytes32,bytes32,uint256)",
      "arguments": [
        "[0x4A5c3Cca0Ac2a1949D600891A89dd19B35189Cf0]",
        "[0]",
        "[0x22f2caf10000000000000000000000004367677bd9466bdbb64e4af7911d63344eaa8eee]",
        "0x0000000000000000000000000000000000000000000000000000000000000000",
        "0x00000000000000000000000000000000000000000000000000000000000003e8",
        "345600"
      ],
      "transaction": {
        "from": "0xd6768630e0b26eba52d52e75a5d21989aa750113",
        "to": "0x8e074b7636f6a56097f1f719e708e2c932e23bab",
        "gas": "0x13d08",
        "value": "0x0",
        "input": "0x8f2a0bb000000000000000000000000000000000000000000000000000000000000000c000000000000000000000000000000000000000000000000000000000000001000000000000000000000000000000000000000000000000000000000000000140000000000000000000000000000000000000000000000000000000000000000000000000000000000000000000000000000000000000000000000000000003e8000000000000000000000000000000000000000000000000000000000005460000000000000000000000000000000000000000000000000000000000000000010000000000000000000000004a5c3cca0ac2a1949d600891a89dd19b35189cf00000000000000000000000000000000000000000000000000000000000000001000000000000000000000000000000000000000000000000000000000000000000000000000000000000000000000000000000000000000000000000000000010000000000000000000000000000000000000000000000000000000000000020000000000000000000000000000000000000000000000000000000000000002422f2caf10000000000000000000000004367677bd9466bdbb64e4af7911d63344eaa8eee00000000000000000000000000000000000000000000000000000000",
        "nonce": "0x21",
        "chainId": "0x2105"
      },
      "additionalContracts": [],
      "isFixedGasLimit": false
    }
  ],
  "receipts": [
    {
      "type": "0x2",
      "status": "0x1",
      "cumulativeGasUsed": "0x29ce0cb",
      "logs": [],
      "logsBloom": "0x00000000000000000000000000000000000000000000000000000000000000000000000000000000000000000000000000000000000000000000000000000000000000000000000000000000000000000000000000000000000000000000000000000000000000000000000000000000000000000000000000000000000000000000000000000000000000000000000000000000000000000000000000000000000000000000000000000000000000000000000000000000000000000000000000000000000000000000000000000000000000000000000000000000000000000000000000000000000000000000000000000000000000000000000000000000",
      "transactionHash": "0xcb9ae64f2270f1f07d3db1d45447df30e3aa7138db2119fa3ff77485f10c40aa",
      "transactionIndex": "0x101",
      "blockHash": "0x4aee3146f761805db66c0c764fd11fdb62f72052e2da7ccfce0c067d56e22fc0",
      "blockNumber": "0x2ebf3a9",
      "gasUsed": "0x5f90d",
      "effectiveGasPrice": "0x503056",
      "blobGasUsed": "0x29560",
      "from": "0xd6768630e0b26eba52d52e75a5d21989aa750113",
      "to": "0x4e59b44847b379578588920ca78fbf26c0b4956c",
      "contractAddress": null,
      "l1GasPrice": "0xe67b132",
      "l1GasUsed": "0x4786",
      "l1Fee": "0x64df54989",
      "l1BaseFeeScalar": "0x8dd",
      "l1BlobBaseFee": "0xd72934",
      "l1BlobBaseFeeScalar": "0x101c12",
      "daFootprintGasScalar": "0x94"
    },
    {
      "type": "0x2",
      "status": "0x1",
      "cumulativeGasUsed": "0x1ca73b9",
      "logs": [
        {
          "address": "0x8e074b7636f6a56097f1f719e708e2c932e23bab",
          "topics": [
            "0x4cf4410cc57040e44862ef0f45f3dd5a5e02db8eb8add648d4b0e236f1d07dca",
            "0x223d8a109d2724f426118ab757907769ef50fcff03998e9bf64f1c1852ab08cb",
            "0x0000000000000000000000000000000000000000000000000000000000000000"
          ],
          "data": "0x0000000000000000000000004a5c3cca0ac2a1949d600891a89dd19b35189cf0000000000000000000000000000000000000000000000000000000000000000000000000000000000000000000000000000000000000000000000000000000a000000000000000000000000000000000000000000000000000000000000000000000000000000000000000000000000000000000000000000000000000054600000000000000000000000000000000000000000000000000000000000000002422f2caf10000000000000000000000004367677bd9466bdbb64e4af7911d63344eaa8eee00000000000000000000000000000000000000000000000000000000",
          "blockHash": "0x8a764f90bf31d95409e6d85b209127f8936108fd9544be3a105f6565824ff923",
          "blockNumber": "0x2ebf3ab",
          "blockTimestamp": "0x6a624439",
          "transactionHash": "0x520d3b62fa087d7aeefd67dc40a1e5ba350870de367f7324cbcbbb5fdb485491",
          "transactionIndex": "0x33",
          "logIndex": "0x29e",
          "removed": false
        },
        {
          "address": "0x8e074b7636f6a56097f1f719e708e2c932e23bab",
          "topics": [
            "0x20fda5fd27a1ea7bf5b9567f143ac5470bb059374a27e8f67cb44f946f6d0387",
            "0x223d8a109d2724f426118ab757907769ef50fcff03998e9bf64f1c1852ab08cb"
          ],
          "data": "0x00000000000000000000000000000000000000000000000000000000000003e8",
          "blockHash": "0x8a764f90bf31d95409e6d85b209127f8936108fd9544be3a105f6565824ff923",
          "blockNumber": "0x2ebf3ab",
          "blockTimestamp": "0x6a624439",
          "transactionHash": "0x520d3b62fa087d7aeefd67dc40a1e5ba350870de367f7324cbcbbb5fdb485491",
          "transactionIndex": "0x33",
          "logIndex": "0x29f",
          "removed": false
        }
      ],
      "logsBloom": "0x00000000000000000000000040000000000000000000000000000000000000000000000000001000000000000000000100000000800000000000000000040000000000000000000000000000000000000000000000000008000000000000000000000000020000000000000000000800000080000000000000000000000000000000000000000000000000000000000000000000080000000000000000000000000000000000000000000000000000000000000000000000000000000000000000000010000000200000000000000000000000000000400000000000000020000000000000000000000000000000000000000000000000000000000000800000",
      "transactionHash": "0x520d3b62fa087d7aeefd67dc40a1e5ba350870de367f7324cbcbbb5fdb485491",
      "transactionIndex": "0x33",
      "blockHash": "0x8a764f90bf31d95409e6d85b209127f8936108fd9544be3a105f6565824ff923",
      "blockNumber": "0x2ebf3ab",
      "gasUsed": "0xe587",
      "effectiveGasPrice": "0x503056",
      "blobGasUsed": "0x5a30",
      "from": "0xd6768630e0b26eba52d52e75a5d21989aa750113",
      "to": "0x8e074b7636f6a56097f1f719e708e2c932e23bab",
      "contractAddress": null,
      "l1GasPrice": "0xe67b132",
      "l1GasUsed": "0x9c8",
      "l1Fee": "0xdcb6c0fd",
      "l1BaseFeeScalar": "0x8dd",
      "l1BlobBaseFee": "0xd72934",
      "l1BlobBaseFeeScalar": "0x101c12",
      "daFootprintGasScalar": "0x94"
    }
  ],
  "libraries": [],
  "pending": [],
  "returns": {},
  "timestamp": 1784824890621,
  "chain": 8453,
  "commit": "426a7fb"
}