{
  "transactions": [
    {
      "hash": "0x1294b0f68220c1569687b433cbd7cf128f1500ae6fd5895c88c567bc1741502f",
      "transactionType": "CREATE2",
      "contractName": "YieldSeekerZeroXAdapter",
      "contractAddress": "0x8b53956c8b7753bcc7ec518e899007a880d7dfe0",
      "function": null,
      "arguments": [
        "0x0000000000001fF3684f28c67538d4D072C22734"
      ],
      "transaction": {
        "from": "0xce11d6fb4f1e006e5a348230449dc387fde850cc",
        "to": "0x4e59b44847b379578588920ca78fbf26c0b4956c",
        "gas": "0x7c2a0",
        "value": "0x0",
        "input": "0x000000000000000000000000000000000000000000000000000000000000000460a034608157601f6105df38819003918201601f19168301916001600160401b03831184841017608557808492602094604052833981010312608157516001600160a01b03811680820360815715607257608052604051610545908161009a823960805181818161036b01526104be0152f35b631440bbc360e11b5f5260045ffd5b5f80fd5b634e487b7160e01b5f52604160045260245ffdfe6080806040526004361015610012575f80fd5b5f3560e01c90816322751593146104ac575063a76c5d5214610032575f80fd5b60e036600319011261025e576004356001600160a01b0381169081810361025e576024356001600160a01b038116929083900361025e576044356001600160a01b038116939084900361025e576064356084359460a43567ffffffffffffffff811161025e573660238201121561025e5780600401359567ffffffffffffffff871161025e57366024888401011161025e5760c43590841580156104a4575b6103425773eeeeeeeeeeeeeeeeeeeeeeeeeeeeeeeeeeeeeeee860361035a578482108015610351575b610342575b73eeeeeeeeeeeeeeeeeeeeeeeeeeeeeeeeeeeeeeee84149283156102d1579060245f938493479b5b80604051948593018337810185815203925af13d156102c9573d9067ffffffffffffffff82116102b55760405191610169601f8201601f1916602001846104ed565b82523d5f602084013e5b156102755750156102035747945b85039485116101ef578585106101d857602095506040519283528583015260408201528260608201527fd6d4f5681c246c9f42c203e287975af1601f8df8035a9251f79aab5c8f09e2f860803092a3604051908152f35b8585630583371760e31b5f5260045260245260445ffd5b634e487b7160e01b5f52601160045260245ffd5b6040516370a0823160e01b8152306004820152602081602481855afa90811561026a575f91610234575b5094610181565b90506020813d602011610262575b8161024f602093836104ed565b8101031261025e57515f61022d565b5f80fd5b3d9150610242565b6040513d5f823e3d90fd5b604460209160405192839163ff9fa59560e01b83528160048401528051918291826024860152018484015e5f828201840152601f01601f19168101030190fd5b634e487b7160e01b5f52604160045260245ffd5b606090610173565b6040516370a0823160e01b8152306004820152602081602481895afa90811561026a575f9161030a575b505f938493926024929b610127565b90506020929192813d60201161033a575b81610328602093836104ed565b8101031261025e57519091905f6102fb565b3d915061031b565b631f2a200560e01b5f5260045ffd5b508134106100fa565b60405163095ea7b360e01b5f9081527f00000000000000000000000000000000000000000000000000000000000000006001600160a01b0316600481905260248890529190602090604481808c5af19060015f5114821615610495575b604052156103c6575b506100ff565b60405163095ea7b360e01b5f52816004525f60245260205f604481808c5af19060015f511482161561047d575b6040521561046a576040519063095ea7b360e01b5f526004528560245260205f604481808b5af19060015f5114821615610449575b60405215610436575f6103c0565b85635274afe760e01b5f5260045260245ffd5b90600181151661046157873b15153d15161690610428565b503d5f823e3d90fd5b86635274afe760e01b5f5260045260245ffd5b90600181151661046157883b15153d151616906103f3565b90883b15153d151616906103b7565b5088156100d1565b3461025e575f36600319011261025e577f00000000000000000000000000000000000000000000000000000000000000006001600160a01b03168152602090f35b90601f8019910116810190811067ffffffffffffffff8211176102b55760405256fea26469706673582212205498df6a0c2d532dc111841c35dc820272d562579dbde1363a97cffc5b40f25464736f6c634300081c00330000000000000000000000000000000000001ff3684f28c67538d4d072c22734",
        "nonce": "0x4e",
        "chainId": "0x2105"
      },
      "additionalContracts": [],
      "isFixedGasLimit": false
    },
    {
      "hash": "0xa706c2b4160c0480cf46430da595bc4d5acb1c1bd49cfab8f0598b23c8a35d5a",
      "transactionType": "CALL",
      "contractName": "YieldSeekerAdminTimelock",
      "contractAddress": "0x869f8d6e8d05ec1fdeab1d5d8d67f3d224da7571",
      "function": "scheduleBatch(address[],uint256[],bytes[],bytes32,bytes32,uint256)",
      "arguments": [
        "[0xc5Cb6d1c588C5bfeBd23B817Ce33D9d380e50c00]",
        "[0]",
        "[0x22f2caf10000000000000000000000008b53956c8b7753bcc7ec518e899007a880d7dfe0]",
        "0x0000000000000000000000000000000000000000000000000000000000000000",
        "0x00000000000000000000000000000000000000000000000000000000000003e8",
        "0"
      ],
      "transaction": {
        "from": "0xce11d6fb4f1e006e5a348230449dc387fde850cc",
        "to": "0x869f8d6e8d05ec1fdeab1d5d8d67f3d224da7571",
        "gas": "0x14f79",
        "value": "0x0",
        "input": "0x8f2a0bb000000000000000000000000000000000000000000000000000000000000000c000000000000000000000000000000000000000000000000000000000000001000000000000000000000000000000000000000000000000000000000000000140000000000000000000000000000000000000000000000000000000000000000000000000000000000000000000000000000000000000000000000000000003e800000000000000000000000000000000000000000000000000000000000000000000000000000000000000000000000000000000000000000000000000000001000000000000000000000000c5cb6d1c588c5bfebd23b817ce33d9d380e50c000000000000000000000000000000000000000000000000000000000000000001000000000000000000000000000000000000000000000000000000000000000000000000000000000000000000000000000000000000000000000000000000010000000000000000000000000000000000000000000000000000000000000020000000000000000000000000000000000000000000000000000000000000002422f2caf10000000000000000000000008b53956c8b7753bcc7ec518e899007a880d7dfe000000000000000000000000000000000000000000000000000000000",
        "nonce": "0x4f",
        "chainId": "0x2105"
      },
      "additionalContracts": [],
      "isFixedGasLimit": false
    },
    {
      "hash": "0x6b7dc998135249635cb34669e876c96c2896e20682ebdcd58cab934a5be3c6b9",
      "transactionType": "CALL",
      "contractName": "YieldSeekerAdminTimelock",
      "contractAddress": "0x869f8d6e8d05ec1fdeab1d5d8d67f3d224da7571",
      "function": "executeBatch(address[],uint256[],bytes[],bytes32,bytes32)",
      "arguments": [
        "[0xc5Cb6d1c588C5bfeBd23B817Ce33D9d380e50c00]",
        "[0]",
        "[0x22f2caf10000000000000000000000008b53956c8b7753bcc7ec518e899007a880d7dfe0]",
        "0x0000000000000000000000000000000000000000000000000000000000000000",
        "0x00000000000000000000000000000000000000000000000000000000000003e8"
      ],
      "transaction": {
        "from": "0xce11d6fb4f1e006e5a348230449dc387fde850cc",
        "to": "0x869f8d6e8d05ec1fdeab1d5d8d67f3d224da7571",
        "gas": "0x18924",
        "value": "0x0",
        "input": "0xe38335e500000000000000000000000000000000000000000000000000000000000000a000000000000000000000000000000000000000000000000000000000000000e00000000000000000000000000000000000000000000000000000000000000120000000000000000000000000000000000000000000000000000000000000000000000000000000000000000000000000000000000000000000000000000003e80000000000000000000000000000000000000000000000000000000000000001000000000000000000000000c5cb6d1c588c5bfebd23b817ce33d9d380e50c000000000000000000000000000000000000000000000000000000000000000001000000000000000000000000000000000000000000000000000000000000000000000000000000000000000000000000000000000000000000000000000000010000000000000000000000000000000000000000000000000000000000000020000000000000000000000000000000000000000000000000000000000000002422f2caf10000000000000000000000008b53956c8b7753bcc7ec518e899007a880d7dfe000000000000000000000000000000000000000000000000000000000",
        "nonce": "0x50",
        "chainId": "0x2105"
      },
      "additionalContracts": [],
      "isFixedGasLimit": false
    }
  ],
  "receipts": [
    {
      "status": "0x1",
      "cumulativeGasUsed": "0x12ba440",
      "logs": [],
      "logsBloom": "0x00000000000000000000000000000000000000000000000000000000000000000000000000000000000000000000000000000000000000000000000000000000000000000000000000000000000000000000000000000000000000000000000000000000000000000000000000000000000000000000000000000000000000000000000000000000000000000000000000000000000000000000000000000000000000000000000000000000000000000000000000000000000000000000000000000000000000000000000000000000000000000000000000000000000000000000000000000000000000000000000000000000000000000000000000000000",
      "type": "0x2",
      "transactionHash": "0xa706c2b4160c0480cf46430da595bc4d5acb1c1bd49cfab8f0598b23c8a35d5a",
      "transactionIndex": "0xe0",
      "blockHash": "0xad61f9f344a233b1fec3fc4cd7218079b0b622b2337a5bd5aab0ba16d47ea44e",
      "blockNumber": "0x25cc95f",
      "gasUsed": "0x54e61",
      "effectiveGasPrice": "0xe38fb",
      "blobGasUsed": "0x4d298",
      "from": "0xce11d6fb4f1e006e5a348230449dc387fde850cc",
      "to": "0x4e59b44847b379578588920ca78fbf26c0b4956c",
      "contractAddress": "0x8b53956c8b7753bcc7ec518e899007a880d7dfe0",
      "daFootprintGasScalar": "0x138",
      "l1BaseFeeScalar": "0x8dd",
      "l1BlobBaseFee": "0x1a3b9e",
      "l1BlobBaseFeeScalar": "0x101c12",
      "l1Fee": "0xb00cc270",
      "l1GasPrice": "0x1ce84fe",
      "l1GasUsed": "0x3f51"
    },
    {
      "status": "0x1",
      "cumulativeGasUsed": "0x12c89a3",
      "logs": [
        {
          "address": "0x869f8d6e8d05ec1fdeab1d5d8d67f3d224da7571",
          "topics": [
            "0x4cf4410cc57040e44862ef0f45f3dd5a5e02db8eb8add648d4b0e236f1d07dca",
            "0xa66b8e0f3488fee89bff607fa9c5adcce35eeda62dcda98167acb89d15c69d28",
            "0x0000000000000000000000000000000000000000000000000000000000000000"
          ],
          "data": "0x000000000000000000000000c5cb6d1c588c5bfebd23b817ce33d9d380e50c00000000000000000000000000000000000000000000000000000000000000000000000000000000000000000000000000000000000000000000000000000000a000000000000000000000000000000000000000000000000000000000000000000000000000000000000000000000000000000000000000000000000000000000000000000000000000000000000000000000000000000000000000000000002422f2caf10000000000000000000000008b53956c8b7753bcc7ec518e899007a880d7dfe000000000000000000000000000000000000000000000000000000000",
          "blockHash": "0xad61f9f344a233b1fec3fc4cd7218079b0b622b2337a5bd5aab0ba16d47ea44e",
          "blockNumber": "0x25cc95f",
          "blockTimestamp": "0x6943efa1",
          "transactionHash": "0x1294b0f68220c1569687b433cbd7cf128f1500ae6fd5895c88c567bc1741502f",
          "transactionIndex": "0xe1",
          "logIndex": "0x1a6",
          "removed": false
        },
        {
          "address": "0x869f8d6e8d05ec1fdeab1d5d8d67f3d224da7571",
          "topics": [
            "0x20fda5fd27a1ea7bf5b9567f143ac5470bb059374a27e8f67cb44f946f6d0387",
            "0xa66b8e0f3488fee89bff607fa9c5adcce35eeda62dcda98167acb89d15c69d28"
          ],
          "data": "0x00000000000000000000000000000000000000000000000000000000000003e8",
          "blockHash": "0xad61f9f344a233b1fec3fc4cd7218079b0b622b2337a5bd5aab0ba16d47ea44e",
          "blockNumber": "0x25cc95f",
          "blockTimestamp": "0x6943efa1",
          "transactionHash": "0x1294b0f68220c1569687b433cbd7cf128f1500ae6fd5895c88c567bc1741502f",
          "transactionIndex": "0xe1",
          "logIndex": "0x1a7",
          "removed": false
        }
      ],
      "logsBloom": "0x00000000000000000000000040000000000000000000000000000000000000000000000000000000000000000000000100000000800000000000000000040000000000000000000000000000000000000080000000000008000000000000000000000000020100000000000000020800000080000000000000000000000000000000000000000000000000000000000000000000000002000000000000000000000000000000000000000000000000000000000000000000000000000000000000000000000000000000000000000000000000000000400000000000000020000000000000000000000000000000000000000000000000000400000000000000",
      "type": "0x2",
      "transactionHash": "0x1294b0f68220c1569687b433cbd7cf128f1500ae6fd5895c88c567bc1741502f",
      "transactionIndex": "0xe1",
      "blockHash": "0xad61f9f344a233b1fec3fc4cd7218079b0b622b2337a5bd5aab0ba16d47ea44e",
      "blockNumber": "0x25cc95f",
      "gasUsed": "0xe563",
      "effectiveGasPrice": "0xe38fb",
      "blobGasUsed": "0xb6d0",
      "from": "0xce11d6fb4f1e006e5a348230449dc387fde850cc",
      "to": "0x869f8d6e8d05ec1fdeab1d5d8d67f3d224da7571",
      "contractAddress": null,
      "daFootprintGasScalar": "0x138",
      "l1BaseFeeScalar": "0x8dd",
      "l1BlobBaseFee": "0x1a3b9e",
      "l1BlobBaseFeeScalar": "0x101c12",
      "l1Fee": "0x1a2dc82e",
      "l1GasPrice": "0x1ce84fe",
      "l1GasUsed": "0x96a"
    },
    {
      "status": "0x1",
      "cumulativeGasUsed": "0x1653374",
      "logs": [
        {
          "address": "0xc5cb6d1c588c5bfebd23b817ce33d9d380e50c00",
          "topics": [
            "0xa77e7c594c11a0d5d9d8e6a9132ac0db912dc0f34f5fb7d94860fe38d16410bd",
            "0x0000000000000000000000008b53956c8b7753bcc7ec518e899007a880d7dfe0"
          ],
          "data": "0x",
          "blockHash": "0xad61f9f344a233b1fec3fc4cd7218079b0b622b2337a5bd5aab0ba16d47ea44e",
          "blockNumber": "0x25cc95f",
          "blockTimestamp": "0x6943efa1",
          "transactionHash": "0x6b7dc998135249635cb34669e876c96c2896e20682ebdcd58cab934a5be3c6b9",
          "transactionIndex": "0x10c",
          "logIndex": "0x1f0",
          "removed": false
        },
        {
          "address": "0x869f8d6e8d05ec1fdeab1d5d8d67f3d224da7571",
          "topics": [
            "0xc2617efa69bab66782fa219543714338489c4e9e178271560a91b82c3f612b58",
            "0xa66b8e0f3488fee89bff607fa9c5adcce35eeda62dcda98167acb89d15c69d28",
            "0x0000000000000000000000000000000000000000000000000000000000000000"
          ],
          "data": "0x000000000000000000000000c5cb6d1c588c5bfebd23b817ce33d9d380e50c0000000000000000000000000000000000000000000000000000000000000000000000000000000000000000000000000000000000000000000000000000000060000000000000000000000000000000000000000000000000000000000000002422f2caf10000000000000000000000008b53956c8b7753bcc7ec518e899007a880d7dfe000000000000000000000000000000000000000000000000000000000",
          "blockHash": "0xad61f9f344a233b1fec3fc4cd7218079b0b622b2337a5bd5aab0ba16d47ea44e",
          "blockNumber": "0x25cc95f",
          "blockTimestamp": "0x6943efa1",
          "transactionHash": "0x6b7dc998135249635cb34669e876c96c2896e20682ebdcd58cab934a5be3c6b9",
          "transactionIndex": "0x10c",
          "logIndex": "0x1f1",
          "removed": false
        }
      ],
      "logsBloom": "0x00000000000000000000000000000000000000000000000000400000000000000000200000000000000000000000000000000000000800000002000100040000000000000000000000000000000000000080000000000000000000000000002000000000020100000000000000020800000000200000000000020000000000000000000000000000000000000000000000000000000002000000000000000000000000000000000000000000000000000000000000000000000080000000000000000000000000080000000000040000000000000000000000000000000020000000000100000000000000000000000000000000000000000400000000000000",
      "type": "0x2",
      "transactionHash": "0x6b7dc998135249635cb34669e876c96c2896e20682ebdcd58cab934a5be3c6b9",
      "transactionIndex": "0x10c",
      "blockHash": "0xad61f9f344a233b1fec3fc4cd7218079b0b622b2337a5bd5aab0ba16d47ea44e",
      "blockNumber": "0x25cc95f",
      "gasUsed": "0x10cd1",
      "effectiveGasPrice": "0xe38fb",
      "blobGasUsed": "0xb460",
      "from": "0xce11d6fb4f1e006e5a348230449dc387fde850cc",
      "to": "0x869f8d6e8d05ec1fdeab1d5d8d67f3d224da7571",
      "contractAddress": null,
      "daFootprintGasScalar": "0x138",
      "l1BaseFeeScalar": "0x8dd",
      "l1BlobBaseFee": "0x1a3b9e",
      "l1BlobBaseFeeScalar": "0x101c12",
      "l1Fee": "0x19e35af0",
      "l1GasPrice": "0x1ce84fe",
      "l1GasUsed": "0x94f"
    }
  ],
  "libraries": [],
  "pending": [],
  "returns": {},
  "timestamp": 1766059958143,
  "chain": 8453,
  "commit": "3835213"
}