{
  "transactions": [
    {
      "hash": "0x172cbd9cca0152041cb0f65cf8413a5ed0590f91b190f8a1acd898d36ea0239a",
      "transactionType": "CREATE2",
      "contractName": "YieldSeekerZeroXAdapter",
      "contractAddress": "0xfb9783db09a415953b0d3865cc1220d1fb0f156e",
      "function": null,
      "arguments": [
        "0x0000000000001fF3684f28c67538d4D072C22734"
      ],
      "transaction": {
        "from": "0xce11d6fb4f1e006e5a348230449dc387fde850cc",
        "to": "0x4e59b44847b379578588920ca78fbf26c0b4956c",
        "gas": "0x7d40d",
        "value": "0x0",
        "input": "0x000000000000000000000000000000000000000000000000000000000000000460a034608157601f6105ed38819003918201601f19168301916001600160401b03831184841017608557808492602094604052833981010312608157516001600160a01b03811680820360815715607257608052604051610553908161009a823960805181818161037901526104cc0152f35b631440bbc360e11b5f5260045ffd5b5f80fd5b634e487b7160e01b5f52604160045260245ffdfe6080806040526004361015610012575f80fd5b5f3560e01c90816322751593146104ba575063a76c5d5214610032575f80fd5b60e036600319011261025e576004356001600160a01b0381169081810361025e576024356001600160a01b038116929083900361025e576044356001600160a01b038116939084900361025e576064356084359460a43567ffffffffffffffff811161025e573660238201121561025e5780600401359567ffffffffffffffff871161025e57366024888401011161025e5760c43590841580156104b2575b6103595773eeeeeeeeeeeeeeeeeeeeeeeeeeeeeeeeeeeeeeee86036103685784821061035957814710610342575b73eeeeeeeeeeeeeeeeeeeeeeeeeeeeeeeeeeeeeeee84149283156102d1579060245f938493479b5b80604051948593018337810185815203925af13d156102c9573d9067ffffffffffffffff82116102b55760405191610169601f8201601f1916602001846104fb565b82523d5f602084013e5b156102755750156102035747945b85039485116101ef578585106101d857602095506040519283528583015260408201528260608201527fd6d4f5681c246c9f42c203e287975af1601f8df8035a9251f79aab5c8f09e2f860803092a3604051908152f35b8585630583371760e31b5f5260045260245260445ffd5b634e487b7160e01b5f52601160045260245ffd5b6040516370a0823160e01b8152306004820152602081602481855afa90811561026a575f91610234575b5094610181565b90506020813d602011610262575b8161024f602093836104fb565b8101031261025e57515f61022d565b5f80fd5b3d9150610242565b6040513d5f823e3d90fd5b604460209160405192839163ff9fa59560e01b83528160048401528051918291826024860152018484015e5f828201840152601f01601f19168101030190fd5b634e487b7160e01b5f52604160045260245ffd5b606090610173565b6040516370a0823160e01b8152306004820152602081602481895afa90811561026a575f9161030a575b505f938493926024929b610127565b90506020929192813d60201161033a575b81610328602093836104fb565b8101031261025e57519091905f6102fb565b3d915061031b565b5047633ebbc33760e01b5f5260045260245260445ffd5b631f2a200560e01b5f5260045ffd5b60405163095ea7b360e01b5f9081527f00000000000000000000000000000000000000000000000000000000000000006001600160a01b0316600481905260248890529190602090604481808c5af19060015f51148216156104a3575b604052156103d4575b506100ff565b60405163095ea7b360e01b5f52816004525f60245260205f604481808c5af19060015f511482161561048b575b60405215610478576040519063095ea7b360e01b5f526004528560245260205f604481808b5af19060015f5114821615610457575b60405215610444575f6103ce565b85635274afe760e01b5f5260045260245ffd5b90600181151661046f57873b15153d15161690610436565b503d5f823e3d90fd5b86635274afe760e01b5f5260045260245ffd5b90600181151661046f57883b15153d15161690610401565b90883b15153d151616906103c5565b5088156100d1565b3461025e575f36600319011261025e577f00000000000000000000000000000000000000000000000000000000000000006001600160a01b03168152602090f35b90601f8019910116810190811067ffffffffffffffff8211176102b55760405256fea2646970667358221220c47a84789abe8dcec5a09902a3c6eb2152f58239ef3fdca18cac65c8b33ec2fd64736f6c634300081c00330000000000000000000000000000000000001ff3684f28c67538d4d072c22734",
        "nonce": "0x55",
        "chainId": "0x2105"
      },
      "additionalContracts": [],
      "isFixedGasLimit": false
    },
    {
      "hash": "0xcbfa6d43157ad2f867b56085d9b58c81a48126d97790f70e1cfd3c9b4378923f",
      "transactionType": "CALL",
      "contractName": "YieldSeekerAdminTimelock",
      "contractAddress": "0x869f8d6e8d05ec1fdeab1d5d8d67f3d224da7571",
      "function": "scheduleBatch(address[],uint256[],bytes[],bytes32,bytes32,uint256)",
      "arguments": [
        "[0xc5Cb6d1c588C5bfeBd23B817Ce33D9d380e50c00]",
        "[0]",
        "[0x22f2caf1000000000000000000000000fb9783db09a415953b0d3865cc1220d1fb0f156e]",
        "0x0000000000000000000000000000000000000000000000000000000000000000",
        "0x00000000000000000000000000000000000000000000000000000000000003e8",
        "0"
      ],
      "transaction": {
        "from": "0xce11d6fb4f1e006e5a348230449dc387fde850cc",
        "to": "0x869f8d6e8d05ec1fdeab1d5d8d67f3d224da7571",
        "gas": "0x14f79",
        "value": "0x0",
        "input": "0x8f2a0bb000000000000000000000000000000000000000000000000000000000000000c000000000000000000000000000000000000000000000000000000000000001000000000000000000000000000000000000000000000000000000000000000140000000000000000000000000000000000000000000000000000000000000000000000000000000000000000000000000000000000000000000000000000003e800000000000000000000000000000000000000000000000000000000000000000000000000000000000000000000000000000000000000000000000000000001000000000000000000000000c5cb6d1c588c5bfebd23b817ce33d9d380e50c000000000000000000000000000000000000000000000000000000000000000001000000000000000000000000000000000000000000000000000000000000000000000000000000000000000000000000000000000000000000000000000000010000000000000000000000000000000000000000000000000000000000000020000000000000000000000000000000000000000000000000000000000000002422f2caf1000000000000000000000000fb9783db09a415953b0d3865cc1220d1fb0f156e00000000000000000000000000000000000000000000000000000000",
        "nonce": "0x56",
        "chainId": "0x2105"
      },
      "additionalContracts": [],
      "isFixedGasLimit": false
    },
    {
      "hash": "0x0549f0a4216c4f364cadd02aad71929ab6271bba919a7d1bddb223318062f012",
      "transactionType": "CALL",
      "contractName": "YieldSeekerAdminTimelock",
      "contractAddress": "0x869f8d6e8d05ec1fdeab1d5d8d67f3d224da7571",
      "function": "executeBatch(address[],uint256[],bytes[],bytes32,bytes32)",
      "arguments": [
        "[0xc5Cb6d1c588C5bfeBd23B817Ce33D9d380e50c00]",
        "[0]",
        "[0x22f2caf1000000000000000000000000fb9783db09a415953b0d3865cc1220d1fb0f156e]",
        "0x0000000000000000000000000000000000000000000000000000000000000000",
        "0x00000000000000000000000000000000000000000000000000000000000003e8"
      ],
      "transaction": {
        "from": "0xce11d6fb4f1e006e5a348230449dc387fde850cc",
        "to": "0x869f8d6e8d05ec1fdeab1d5d8d67f3d224da7571",
        "gas": "0x18924",
        "value": "0x0",
        "input": "0xe38335e500000000000000000000000000000000000000000000000000000000000000a000000000000000000000000000000000000000000000000000000000000000e00000000000000000000000000000000000000000000000000000000000000120000000000000000000000000000000000000000000000000000000000000000000000000000000000000000000000000000000000000000000000000000003e80000000000000000000000000000000000000000000000000000000000000001000000000000000000000000c5cb6d1c588c5bfebd23b817ce33d9d380e50c000000000000000000000000000000000000000000000000000000000000000001000000000000000000000000000000000000000000000000000000000000000000000000000000000000000000000000000000000000000000000000000000010000000000000000000000000000000000000000000000000000000000000020000000000000000000000000000000000000000000000000000000000000002422f2caf1000000000000000000000000fb9783db09a415953b0d3865cc1220d1fb0f156e00000000000000000000000000000000000000000000000000000000",
        "nonce": "0x57",
        "chainId": "0x2105"
      },
      "additionalContracts": [],
      "isFixedGasLimit": false
    }
  ],
  "receipts": [
    {
      "status": "0x1",
      "cumulativeGasUsed": "0x608b2a8",
      "logs": [],
      "logsBloom": "0x00000000000000000000000000000000000000000000000000000000000000000000000000000000000000000000000000000000000000000000000000000000000000000000000000000000000000000000000000000000000000000000000000000000000000000000000000000000000000000000000000000000000000000000000000000000000000000000000000000000000000000000000000000000000000000000000000000000000000000000000000000000000000000000000000000000000000000000000000000000000000000000000000000000000000000000000000000000000000000000000000000000000000000000000000000000",
      "type": "0x2",
      "transactionHash": "0x0549f0a4216c4f364cadd02aad71929ab6271bba919a7d1bddb223318062f012",
      "transactionIndex": "0x1ce",
      "blockHash": "0x0b9648081b67656807ee4043b7e589ccdc36de7105e885e658dcc76246ef6af0",
      "blockNumber": "0x25cd185",
      "gasUsed": "0x55a4b",
      "effectiveGasPrice": "0x3d0513",
      "blobGasUsed": "0x4d778",
      "from": "0xce11d6fb4f1e006e5a348230449dc387fde850cc",
      "to": "0x4e59b44847b379578588920ca78fbf26c0b4956c",
      "contractAddress": "0xfb9783db09a415953b0d3865cc1220d1fb0f156e",
      "daFootprintGasScalar": "0x138",
      "l1BaseFeeScalar": "0x8dd",
      "l1BlobBaseFee": "0x5c24ff",
      "l1BlobBaseFeeScalar": "0x101c12",
      "l1Fee": "0x25e766227",
      "l1GasPrice": "0x5f447ed",
      "l1GasUsed": "0x3f94"
    },
    {
      "status": "0x1",
      "cumulativeGasUsed": "0x609980b",
      "logs": [
        {
          "address": "0x869f8d6e8d05ec1fdeab1d5d8d67f3d224da7571",
          "topics": [
            "0x4cf4410cc57040e44862ef0f45f3dd5a5e02db8eb8add648d4b0e236f1d07dca",
            "0x412bba3e5deffb60758cb2db3c827bb8cc2bb48a354dd12c8518dced6f547c83",
            "0x0000000000000000000000000000000000000000000000000000000000000000"
          ],
          "data": "0x000000000000000000000000c5cb6d1c588c5bfebd23b817ce33d9d380e50c00000000000000000000000000000000000000000000000000000000000000000000000000000000000000000000000000000000000000000000000000000000a000000000000000000000000000000000000000000000000000000000000000000000000000000000000000000000000000000000000000000000000000000000000000000000000000000000000000000000000000000000000000000000002422f2caf1000000000000000000000000fb9783db09a415953b0d3865cc1220d1fb0f156e00000000000000000000000000000000000000000000000000000000",
          "blockHash": "0x0b9648081b67656807ee4043b7e589ccdc36de7105e885e658dcc76246ef6af0",
          "blockNumber": "0x25cd185",
          "blockTimestamp": "0x6943ffed",
          "transactionHash": "0xcbfa6d43157ad2f867b56085d9b58c81a48126d97790f70e1cfd3c9b4378923f",
          "transactionIndex": "0x1cf",
          "logIndex": "0x8b0",
          "removed": false
        },
        {
          "address": "0x869f8d6e8d05ec1fdeab1d5d8d67f3d224da7571",
          "topics": [
            "0x20fda5fd27a1ea7bf5b9567f143ac5470bb059374a27e8f67cb44f946f6d0387",
            "0x412bba3e5deffb60758cb2db3c827bb8cc2bb48a354dd12c8518dced6f547c83"
          ],
          "data": "0x00000000000000000000000000000000000000000000000000000000000003e8",
          "blockHash": "0x0b9648081b67656807ee4043b7e589ccdc36de7105e885e658dcc76246ef6af0",
          "blockNumber": "0x25cd185",
          "blockTimestamp": "0x6943ffed",
          "transactionHash": "0xcbfa6d43157ad2f867b56085d9b58c81a48126d97790f70e1cfd3c9b4378923f",
          "transactionIndex": "0x1cf",
          "logIndex": "0x8b1",
          "removed": false
        }
      ],
      "logsBloom": "0x00000000000000000010000040000000000000000000000000000000000000000000100000000000000000000000000100000000800000000000000000000000000000000000000000000000000000000080000000000008000000000000000000000000020000000000000000020800000080000000000000000000000000000000000000000000000000000000000000000000000002000000000000000000000000000000000000000000000000000000000000000000000000000000000000000000000000000000000000000000000000000010400000000000000020000000000000000000000000000000000000000000000000000000000000000000",
      "type": "0x2",
      "transactionHash": "0xcbfa6d43157ad2f867b56085d9b58c81a48126d97790f70e1cfd3c9b4378923f",
      "transactionIndex": "0x1cf",
      "blockHash": "0x0b9648081b67656807ee4043b7e589ccdc36de7105e885e658dcc76246ef6af0",
      "blockNumber": "0x25cd185",
      "gasUsed": "0xe563",
      "effectiveGasPrice": "0x3d0513",
      "blobGasUsed": "0xb460",
      "from": "0xce11d6fb4f1e006e5a348230449dc387fde850cc",
      "to": "0x869f8d6e8d05ec1fdeab1d5d8d67f3d224da7571",
      "contractAddress": null,
      "daFootprintGasScalar": "0x138",
      "l1BaseFeeScalar": "0x8dd",
      "l1BlobBaseFee": "0x5c24ff",
      "l1BlobBaseFeeScalar": "0x101c12",
      "l1Fee": "0x58509a6c",
      "l1GasPrice": "0x5f447ed",
      "l1GasUsed": "0x942"
    },
    {
      "status": "0x1",
      "cumulativeGasUsed": "0x60aa4dc",
      "logs": [
        {
          "address": "0xc5cb6d1c588c5bfebd23b817ce33d9d380e50c00",
          "topics": [
            "0xa77e7c594c11a0d5d9d8e6a9132ac0db912dc0f34f5fb7d94860fe38d16410bd",
            "0x000000000000000000000000fb9783db09a415953b0d3865cc1220d1fb0f156e"
          ],
          "data": "0x",
          "blockHash": "0x0b9648081b67656807ee4043b7e589ccdc36de7105e885e658dcc76246ef6af0",
          "blockNumber": "0x25cd185",
          "blockTimestamp": "0x6943ffed",
          "transactionHash": "0x172cbd9cca0152041cb0f65cf8413a5ed0590f91b190f8a1acd898d36ea0239a",
          "transactionIndex": "0x1d0",
          "logIndex": "0x8b2",
          "removed": false
        },
        {
          "address": "0x869f8d6e8d05ec1fdeab1d5d8d67f3d224da7571",
          "topics": [
            "0xc2617efa69bab66782fa219543714338489c4e9e178271560a91b82c3f612b58",
            "0x412bba3e5deffb60758cb2db3c827bb8cc2bb48a354dd12c8518dced6f547c83",
            "0x0000000000000000000000000000000000000000000000000000000000000000"
          ],
          "data": "0x000000000000000000000000c5cb6d1c588c5bfebd23b817ce33d9d380e50c0000000000000000000000000000000000000000000000000000000000000000000000000000000000000000000000000000000000000000000000000000000060000000000000000000000000000000000000000000000000000000000000002422f2caf1000000000000000000000000fb9783db09a415953b0d3865cc1220d1fb0f156e00000000000000000000000000000000000000000000000000000000",
          "blockHash": "0x0b9648081b67656807ee4043b7e589ccdc36de7105e885e658dcc76246ef6af0",
          "blockNumber": "0x25cd185",
          "blockTimestamp": "0x6943ffed",
          "transactionHash": "0x172cbd9cca0152041cb0f65cf8413a5ed0590f91b190f8a1acd898d36ea0239a",
          "transactionIndex": "0x1d0",
          "logIndex": "0x8b3",
          "removed": false
        }
      ],
      "logsBloom": "0x00000000000000000010000000000000000000000000000000000000000000000000300000100000000004000000000000000000000800000002000000000000000000000000000000000000000000000080000000000000000000000000002000000000020000000000000000020800000000200000000000020000000000000000000000000000000100000000000000000000000002000000000000000000000000000000000000000000000000000000000000000000000080000000000000000000000000080000000000000000000000000010000000000000000020000000000100000000000000000000000000000000000000000000000000000000",
      "type": "0x2",
      "transactionHash": "0x172cbd9cca0152041cb0f65cf8413a5ed0590f91b190f8a1acd898d36ea0239a",
      "transactionIndex": "0x1d0",
      "blockHash": "0x0b9648081b67656807ee4043b7e589ccdc36de7105e885e658dcc76246ef6af0",
      "blockNumber": "0x25cd185",
      "gasUsed": "0x10cd1",
      "effectiveGasPrice": "0x3d0513",
      "blobGasUsed": "0xb598",
      "from": "0xce11d6fb4f1e006e5a348230449dc387fde850cc",
      "to": "0x869f8d6e8d05ec1fdeab1d5d8d67f3d224da7571",
      "contractAddress": null,
      "daFootprintGasScalar": "0x138",
      "l1BaseFeeScalar": "0x8dd",
      "l1BlobBaseFee": "0x5c24ff",
      "l1BlobBaseFeeScalar": "0x101c12",
      "l1Fee": "0x594fefcf",
      "l1GasPrice": "0x5f447ed",
      "l1GasUsed": "0x95c"
    }
  ],
  "libraries": [],
  "pending": [],
  "returns": {},
  "timestamp": 1766064134186,
  "chain": 8453,
  "commit": "3835213"
}