{
  "transactions": [
    {
      "hash": "0x7bde3610c5aac69b5618ae2a3497d8c2191bae6a73475e41ff2c02313f418966",
      "transactionType": "CALL",
      "contractName": null,
      "contractAddress": "0x255d531f423446cdcf44ceb12692f7bd92b54596",
      "function": "schedule(address,uint256,bytes,bytes32,bytes32,uint256)",
      "arguments": [
        "0xd44B1a9b5dF3dA41c00a88ADb95D7e41bB09D530",
        "0",
        "0x89810a90000000000000000000000000e74c499fa461af1844fca84204490877787ced56000000000000000000000000e27e2c756880a41d774c73fdc05aceff6c25cb21",
        "0x0000000000000000000000000000000000000000000000000000000000000000",
        "0xfa8f72c71a0fbc4b1eee3a1903e7a943a1c91cc67daa24462652319102828318",
        "0"
      ],
      "transaction": {
        "from": "0xce11d6fb4f1e006e5a348230449dc387fde850cc",
        "to": "0x255d531f423446cdcf44ceb12692f7bd92b54596",
        "gas": "0x132b5",
        "value": "0x0",
        "input": "0x01d5062a000000000000000000000000d44b1a9b5df3da41c00a88adb95d7e41bb09d530000000000000000000000000000000000000000000000000000000000000000000000000000000000000000000000000000000000000000000000000000000c00000000000000000000000000000000000000000000000000000000000000000fa8f72c71a0fbc4b1eee3a1903e7a943a1c91cc67daa244626523191028283180000000000000000000000000000000000000000000000000000000000000000000000000000000000000000000000000000000000000000000000000000004489810a90000000000000000000000000e74c499fa461af1844fca84204490877787ced56000000000000000000000000e27e2c756880a41d774c73fdc05aceff6c25cb2100000000000000000000000000000000000000000000000000000000",
        "nonce": "0x23",
        "chainId": "0x2105"
      },
      "additionalContracts": [],
      "isFixedGasLimit": false
    },
    {
      "hash": "0xe9e7fc4530c061634314a60c09a701e45259f020f4dd3eb26f539fa8aaea366d",
      "transactionType": "CALL",
      "contractName": null,
      "contractAddress": "0x255d531f423446cdcf44ceb12692f7bd92b54596",
      "function": "execute(address,uint256,bytes,bytes32,bytes32)",
      "arguments": [
        "0xd44B1a9b5dF3dA41c00a88ADb95D7e41bB09D530",
        "0",
        "0x89810a90000000000000000000000000e74c499fa461af1844fca84204490877787ced56000000000000000000000000e27e2c756880a41d774c73fdc05aceff6c25cb21",
        "0x0000000000000000000000000000000000000000000000000000000000000000",
        "0xfa8f72c71a0fbc4b1eee3a1903e7a943a1c91cc67daa24462652319102828318"
      ],
      "transaction": {
        "from": "0xce11d6fb4f1e006e5a348230449dc387fde850cc",
        "to": "0x255d531f423446cdcf44ceb12692f7bd92b54596",
        "gas": "0x27645",
        "value": "0x0",
        "input": "0x134008d3000000000000000000000000d44b1a9b5df3da41c00a88adb95d7e41bb09d530000000000000000000000000000000000000000000000000000000000000000000000000000000000000000000000000000000000000000000000000000000a00000000000000000000000000000000000000000000000000000000000000000fa8f72c71a0fbc4b1eee3a1903e7a943a1c91cc67daa24462652319102828318000000000000000000000000000000000000000000000000000000000000004489810a90000000000000000000000000e74c499fa461af1844fca84204490877787ced56000000000000000000000000e27e2c756880a41d774c73fdc05aceff6c25cb2100000000000000000000000000000000000000000000000000000000",
        "nonce": "0x24",
        "chainId": "0x2105"
      },
      "additionalContracts": [],
      "isFixedGasLimit": false
    }
  ],
  "receipts": [
    {
      "status": "0x1",
      "cumulativeGasUsed": "0x256b2c3",
      "logs": [
        {
          "address": "0x255d531f423446cdcf44ceb12692f7bd92b54596",
          "topics": [
            "0x4cf4410cc57040e44862ef0f45f3dd5a5e02db8eb8add648d4b0e236f1d07dca",
            "0x0f8c9c2c9621737d3bac7e1d3f12617b743ad7560b00acefa7f87f75d37e3799",
            "0x0000000000000000000000000000000000000000000000000000000000000000"
          ],
          "data": "0x000000000000000000000000d44b1a9b5df3da41c00a88adb95d7e41bb09d530000000000000000000000000000000000000000000000000000000000000000000000000000000000000000000000000000000000000000000000000000000a000000000000000000000000000000000000000000000000000000000000000000000000000000000000000000000000000000000000000000000000000000000000000000000000000000000000000000000000000000000000000000000004489810a90000000000000000000000000e74c499fa461af1844fca84204490877787ced56000000000000000000000000e27e2c756880a41d774c73fdc05aceff6c25cb2100000000000000000000000000000000000000000000000000000000",
          "blockHash": "0x7ae2cd456a83d4f4a1a07d117a5e9740ddae8369c21d61f19989f9b843abddf7",
          "blockNumber": "0x25bab1b",
          "blockTimestamp": "0x6941b319",
          "transactionHash": "0xe9e7fc4530c061634314a60c09a701e45259f020f4dd3eb26f539fa8aaea366d",
          "transactionIndex": "0x138",
          "logIndex": "0x257",
          "removed": false
        },
        {
          "address": "0x255d531f423446cdcf44ceb12692f7bd92b54596",
          "topics": [
            "0x20fda5fd27a1ea7bf5b9567f143ac5470bb059374a27e8f67cb44f946f6d0387",
            "0x0f8c9c2c9621737d3bac7e1d3f12617b743ad7560b00acefa7f87f75d37e3799"
          ],
          "data": "0xfa8f72c71a0fbc4b1eee3a1903e7a943a1c91cc67daa24462652319102828318",
          "blockHash": "0x7ae2cd456a83d4f4a1a07d117a5e9740ddae8369c21d61f19989f9b843abddf7",
          "blockNumber": "0x25bab1b",
          "blockTimestamp": "0x6941b319",
          "transactionHash": "0xe9e7fc4530c061634314a60c09a701e45259f020f4dd3eb26f539fa8aaea366d",
          "transactionIndex": "0x138",
          "logIndex": "0x258",
          "removed": false
        }
      ],
      "logsBloom": "0x00100000000000000000000040000000000000000000000000000008000000000000000000000000000000000000000100000000800000000000000000000000000000000000000000000000000000000000000000000008000000000000000000000000020000000000000000000800000080000000000000000000000000000000000000000000000000000010000000000000000002000000080000000000000000000000000000000000000000000000000000000000000000000000000000000000000000000000000000000000000000000000400000000000100020000000000000000000000000000000000000000000000000000000000000000000",
      "type": "0x2",
      "transactionHash": "0xe9e7fc4530c061634314a60c09a701e45259f020f4dd3eb26f539fa8aaea366d",
      "transactionIndex": "0x138",
      "blockHash": "0x7ae2cd456a83d4f4a1a07d117a5e9740ddae8369c21d61f19989f9b843abddf7",
      "blockNumber": "0x25bab1b",
      "gasUsed": "0xde0e",
      "effectiveGasPrice": "0x2a854c",
      "blobGasUsed": "0xd1a0",
      "from": "0xce11d6fb4f1e006e5a348230449dc387fde850cc",
      "to": "0x255d531f423446cdcf44ceb12692f7bd92b54596",
      "contractAddress": null,
      "daFootprintGasScalar": "0x138",
      "l1BaseFeeScalar": "0x8dd",
      "l1BlobBaseFee": "0x22a102",
      "l1BlobBaseFeeScalar": "0x101c12",
      "l1Fee": "0x27564769",
      "l1GasPrice": "0x259f99f",
      "l1GasUsed": "0xac6"
    },
    {
      "status": "0x1",
      "cumulativeGasUsed": "0x2587b12",
      "logs": [
        {
          "address": "0xd44b1a9b5df3da41c00a88adb95d7e41bb09d530",
          "topics": [
            "0x1cf35c87329e14a81fdc68af8a463c1db203ccfc925ff5150f5dbc71bc4c2372",
            "0x000000000000000000000000e74c499fa461af1844fca84204490877787ced56",
            "0x000000000000000000000000e27e2c756880a41d774c73fdc05aceff6c25cb21"
          ],
          "data": "0x",
          "blockHash": "0x7ae2cd456a83d4f4a1a07d117a5e9740ddae8369c21d61f19989f9b843abddf7",
          "blockNumber": "0x25bab1b",
          "blockTimestamp": "0x6941b319",
          "transactionHash": "0x7bde3610c5aac69b5618ae2a3497d8c2191bae6a73475e41ff2c02313f418966",
          "transactionIndex": "0x139",
          "logIndex": "0x259",
          "removed": false
        },
        {
          "address": "0x255d531f423446cdcf44ceb12692f7bd92b54596",
          "topics": [
            "0xc2617efa69bab66782fa219543714338489c4e9e178271560a91b82c3f612b58",
            "0x0f8c9c2c9621737d3bac7e1d3f12617b743ad7560b00acefa7f87f75d37e3799",
            "0x0000000000000000000000000000000000000000000000000000000000000000"
          ],
          "data": "0x000000000000000000000000d44b1a9b5df3da41c00a88adb95d7e41bb09d53000000000000000000000000000000000000000000000000000000000000000000000000000000000000000000000000000000000000000000000000000000060000000000000000000000000000000000000000000000000000000000000004489810a90000000000000000000000000e74c499fa461af1844fca84204490877787ced56000000000000000000000000e27e2c756880a41d774c73fdc05aceff6c25cb2100000000000000000000000000000000000000000000000000000000",
          "blockHash": "0x7ae2cd456a83d4f4a1a07d117a5e9740ddae8369c21d61f19989f9b843abddf7",
          "blockNumber": "0x25bab1b",
          "blockTimestamp": "0x6941b319",
          "transactionHash": "0x7bde3610c5aac69b5618ae2a3497d8c2191bae6a73475e41ff2c02313f418966",
          "transactionIndex": "0x139",
          "logIndex": "0x25a",
          "removed": false
        }
      ],
      "logsBloom": "0x00100000000000000010000000000000008000000000000000000008000000000000000000000000000000000000000000000000000800000200000000000000000000000000000000000000000000000000000000000000000000000000002000000000020004000000000000000800000000000000000000000000000000000001008000000000100000000010000000000000000002000000081000000000000000000000000000000000800000000000000000000000000000002000000000000000000040080000000000000000000000000000000000000000100020000000000000000000000000000000000000000000000000000400000000000000",
      "type": "0x2",
      "transactionHash": "0x7bde3610c5aac69b5618ae2a3497d8c2191bae6a73475e41ff2c02313f418966",
      "transactionIndex": "0x139",
      "blockHash": "0x7ae2cd456a83d4f4a1a07d117a5e9740ddae8369c21d61f19989f9b843abddf7",
      "blockNumber": "0x25bab1b",
      "gasUsed": "0x1c84f",
      "effectiveGasPrice": "0x2a854c",
      "blobGasUsed": "0xcdf8",
      "from": "0xce11d6fb4f1e006e5a348230449dc387fde850cc",
      "to": "0x255d531f423446cdcf44ceb12692f7bd92b54596",
      "contractAddress": null,
      "daFootprintGasScalar": "0x138",
      "l1BaseFeeScalar": "0x8dd",
      "l1BlobBaseFee": "0x22a102",
      "l1BlobBaseFeeScalar": "0x101c12",
      "l1Fee": "0x26c3b060",
      "l1GasPrice": "0x259f99f",
      "l1GasUsed": "0xa9e"
    }
  ],
  "libraries": [],
  "pending": [],
  "returns": {},
  "timestamp": 1765913373679,
  "chain": 8453,
  "commit": "75cf281"
}