{
  "transactions": [
    {
      "hash": "0x6a7971d24f074f410e1c5e4599999cf7742f6db0fb437404161399013da5b70b",
      "transactionType": "CALL",
      "contractName": "YieldSeekerAdminTimelock",
      "contractAddress": "0xec88da9d5e3efd3cee14760d75a4146459076c09",
      "function": "schedule(address,uint256,bytes,bytes32,bytes32,uint256)",
      "arguments": [
        "0x7c4750c562A75aC6a9e42C17dE3Af8956f5B87Ad",
        "0",
        "0x9362149e0000000000000000000000003ef3d8ba38ebe18db133cec108f4d14ce00dd9ae0000000000000000000000006a3ba9690a9fbe3ab58d241f764e47e4b18956b3",
        "0x0000000000000000000000000000000000000000000000000000000000000000",
        "0x80b18fe38b4e76960b3fb9765a42568279b6999870d94314819a0ba47bac092d",
        "0"
      ],
      "transaction": {
        "from": "0xce11d6fb4f1e006e5a348230449dc387fde850cc",
        "to": "0xec88da9d5e3efd3cee14760d75a4146459076c09",
        "gas": "0x144a3",
        "value": "0x0",
        "input": "0x01d5062a0000000000000000000000007c4750c562a75ac6a9e42c17de3af8956f5b87ad000000000000000000000000000000000000000000000000000000000000000000000000000000000000000000000000000000000000000000000000000000c0000000000000000000000000000000000000000000000000000000000000000080b18fe38b4e76960b3fb9765a42568279b6999870d94314819a0ba47bac092d000000000000000000000000000000000000000000000000000000000000000000000000000000000000000000000000000000000000000000000000000000449362149e0000000000000000000000003ef3d8ba38ebe18db133cec108f4d14ce00dd9ae0000000000000000000000006a3ba9690a9fbe3ab58d241f764e47e4b18956b300000000000000000000000000000000000000000000000000000000",
        "nonce": "0x72",
        "chainId": "0x2105"
      },
      "additionalContracts": [],
      "isFixedGasLimit": false
    },
    {
      "hash": "0x97436d91f57cff1d87335c11bb37148e738f239a67964ae0a37834899723ac96",
      "transactionType": "CALL",
      "contractName": "YieldSeekerAdminTimelock",
      "contractAddress": "0xec88da9d5e3efd3cee14760d75a4146459076c09",
      "function": "execute(address,uint256,bytes,bytes32,bytes32)",
      "arguments": [
        "0x7c4750c562A75aC6a9e42C17dE3Af8956f5B87Ad",
        "0",
        "0x9362149e0000000000000000000000003ef3d8ba38ebe18db133cec108f4d14ce00dd9ae0000000000000000000000006a3ba9690a9fbe3ab58d241f764e47e4b18956b3",
        "0x0000000000000000000000000000000000000000000000000000000000000000",
        "0x80b18fe38b4e76960b3fb9765a42568279b6999870d94314819a0ba47bac092d"
      ],
      "transaction": {
        "from": "0xce11d6fb4f1e006e5a348230449dc387fde850cc",
        "to": "0xec88da9d5e3efd3cee14760d75a4146459076c09",
        "gas": "0x2873b",
        "value": "0x0",
        "input": "0x134008d30000000000000000000000007c4750c562a75ac6a9e42c17de3af8956f5b87ad000000000000000000000000000000000000000000000000000000000000000000000000000000000000000000000000000000000000000000000000000000a0000000000000000000000000000000000000000000000000000000000000000080b18fe38b4e76960b3fb9765a42568279b6999870d94314819a0ba47bac092d00000000000000000000000000000000000000000000000000000000000000449362149e0000000000000000000000003ef3d8ba38ebe18db133cec108f4d14ce00dd9ae0000000000000000000000006a3ba9690a9fbe3ab58d241f764e47e4b18956b300000000000000000000000000000000000000000000000000000000",
        "nonce": "0x73",
        "chainId": "0x2105"
      },
      "additionalContracts": [],
      "isFixedGasLimit": false
    }
  ],
  "receipts": [
    {
      "status": "0x1",
      "cumulativeGasUsed": "0x1bc2b44",
      "logs": [
        {
          "address": "0xec88da9d5e3efd3cee14760d75a4146459076c09",
          "topics": [
            "0x4cf4410cc57040e44862ef0f45f3dd5a5e02db8eb8add648d4b0e236f1d07dca",
            "0x48a7c7cf2fb95bdfd24ec7442f538c29d6c917f0ac30bdeeb4e32318a4ccb9fd",
            "0x0000000000000000000000000000000000000000000000000000000000000000"
          ],
          "data": "0x0000000000000000000000007c4750c562a75ac6a9e42c17de3af8956f5b87ad000000000000000000000000000000000000000000000000000000000000000000000000000000000000000000000000000000000000000000000000000000a00000000000000000000000000000000000000000000000000000000000000000000000000000000000000000000000000000000000000000000000000000000000000000000000000000000000000000000000000000000000000000000000449362149e0000000000000000000000003ef3d8ba38ebe18db133cec108f4d14ce00dd9ae0000000000000000000000006a3ba9690a9fbe3ab58d241f764e47e4b18956b300000000000000000000000000000000000000000000000000000000",
          "blockHash": "0x9c8d7c3ad9758cd89400be3417092ab126266c7afca389395fa6541137a41e8b",
          "blockNumber": "0x260a623",
          "blockTimestamp": "0x694ba929",
          "transactionHash": "0x97436d91f57cff1d87335c11bb37148e738f239a67964ae0a37834899723ac96",
          "transactionIndex": "0x9b",
          "logIndex": "0x272",
          "removed": false
        },
        {
          "address": "0xec88da9d5e3efd3cee14760d75a4146459076c09",
          "topics": [
            "0x20fda5fd27a1ea7bf5b9567f143ac5470bb059374a27e8f67cb44f946f6d0387",
            "0x48a7c7cf2fb95bdfd24ec7442f538c29d6c917f0ac30bdeeb4e32318a4ccb9fd"
          ],
          "data": "0x80b18fe38b4e76960b3fb9765a42568279b6999870d94314819a0ba47bac092d",
          "blockHash": "0x9c8d7c3ad9758cd89400be3417092ab126266c7afca389395fa6541137a41e8b",
          "blockNumber": "0x260a623",
          "blockTimestamp": "0x694ba929",
          "transactionHash": "0x97436d91f57cff1d87335c11bb37148e738f239a67964ae0a37834899723ac96",
          "transactionIndex": "0x9b",
          "logIndex": "0x273",
          "removed": false
        }
      ],
      "logsBloom": "0x00000000000000000000000040000000000000000000000000000000000000000000000000000000000000000000000100000000800200000000000000000000000000000000000000000000000000000000000000000008000000000004000000000000020000000000000001000800000080000000000000000000000000000000000000000000004000000200000000000000000000000000000000000000000000000000000000000000000000000000000000000000000000000000000000000000000000000000000000000000000000000000400000000000000020000000000000000000000000000000000000000000000000000000000000010000",
      "type": "0x2",
      "transactionHash": "0x97436d91f57cff1d87335c11bb37148e738f239a67964ae0a37834899723ac96",
      "transactionIndex": "0x9b",
      "blockHash": "0x9c8d7c3ad9758cd89400be3417092ab126266c7afca389395fa6541137a41e8b",
      "blockNumber": "0x260a623",
      "gasUsed": "0xddfa",
      "effectiveGasPrice": "0xad570",
      "blobGasUsed": "0xda5c",
      "from": "0xce11d6fb4f1e006e5a348230449dc387fde850cc",
      "to": "0xec88da9d5e3efd3cee14760d75a4146459076c09",
      "contractAddress": null,
      "daFootprintGasScalar": "0x145",
      "l1BaseFeeScalar": "0x8dd",
      "l1BlobBaseFee": "0x1987c5",
      "l1BlobBaseFeeScalar": "0x101c12",
      "l1Fee": "0x1d35b64d",
      "l1GasPrice": "0x1c45557",
      "l1GasUsed": "0xac6"
    },
    {
      "status": "0x1",
      "cumulativeGasUsed": "0x1bdffda",
      "logs": [
        {
          "address": "0x7c4750c562a75ac6a9e42c17de3af8956f5b87ad",
          "topics": [
            "0x1cf35c87329e14a81fdc68af8a463c1db203ccfc925ff5150f5dbc71bc4c2372",
            "0x0000000000000000000000003ef3d8ba38ebe18db133cec108f4d14ce00dd9ae",
            "0x0000000000000000000000006a3ba9690a9fbe3ab58d241f764e47e4b18956b3"
          ],
          "data": "0x",
          "blockHash": "0x9c8d7c3ad9758cd89400be3417092ab126266c7afca389395fa6541137a41e8b",
          "blockNumber": "0x260a623",
          "blockTimestamp": "0x694ba929",
          "transactionHash": "0x6a7971d24f074f410e1c5e4599999cf7742f6db0fb437404161399013da5b70b",
          "transactionIndex": "0x9c",
          "logIndex": "0x274",
          "removed": false
        },
        {
          "address": "0xec88da9d5e3efd3cee14760d75a4146459076c09",
          "topics": [
            "0xc2617efa69bab66782fa219543714338489c4e9e178271560a91b82c3f612b58",
            "0x48a7c7cf2fb95bdfd24ec7442f538c29d6c917f0ac30bdeeb4e32318a4ccb9fd",
            "0x0000000000000000000000000000000000000000000000000000000000000000"
          ],
          "data": "0x0000000000000000000000007c4750c562a75ac6a9e42c17de3af8956f5b87ad0000000000000000000000000000000000000000000000000000000000000000000000000000000000000000000000000000000000000000000000000000006000000000000000000000000000000000000000000000000000000000000000449362149e0000000000000000000000003ef3d8ba38ebe18db133cec108f4d14ce00dd9ae0000000000000000000000006a3ba9690a9fbe3ab58d241f764e47e4b18956b300000000000000000000000000000000000000000000000000000000",
          "blockHash": "0x9c8d7c3ad9758cd89400be3417092ab126266c7afca389395fa6541137a41e8b",
          "blockNumber": "0x260a623",
          "blockTimestamp": "0x694ba929",
          "transactionHash": "0x6a7971d24f074f410e1c5e4599999cf7742f6db0fb437404161399013da5b70b",
          "transactionIndex": "0x9c",
          "logIndex": "0x275",
          "removed": false
        }
      ],
      "logsBloom": "0x40000000000200000000000002000000000000000000000000000000000000000000000000000000000000000000000000000000000a00000200000000000000000000000000000000800001000000000000000000000000000000000004002000000000024000000000000001000800000008000000000000000000000000000000008000000000004000000200000000000000000000000000001080000000000000000000000000000000000000000000000000000000000000000000000000000000000000180000000000000000000000000000000000000000000020000000000000000000000000000000000000000000000000000000000000010000",
      "type": "0x2",
      "transactionHash": "0x6a7971d24f074f410e1c5e4599999cf7742f6db0fb437404161399013da5b70b",
      "transactionIndex": "0x9c",
      "blockHash": "0x9c8d7c3ad9758cd89400be3417092ab126266c7afca389395fa6541137a41e8b",
      "blockNumber": "0x260a623",
      "gasUsed": "0x1d496",
      "effectiveGasPrice": "0xad570",
      "blobGasUsed": "0xd68d",
      "from": "0xce11d6fb4f1e006e5a348230449dc387fde850cc",
      "to": "0xec88da9d5e3efd3cee14760d75a4146459076c09",
      "contractAddress": null,
      "daFootprintGasScalar": "0x145",
      "l1BaseFeeScalar": "0x8dd",
      "l1BlobBaseFee": "0x1987c5",
      "l1BlobBaseFeeScalar": "0x101c12",
      "l1Fee": "0x1cc8dc80",
      "l1GasPrice": "0x1c45557",
      "l1GasUsed": "0xa9e"
    }
  ],
  "libraries": [],
  "pending": [],
  "returns": {},
  "timestamp": 1766566188250,
  "chain": 8453,
  "commit": "31a7469"
}