{
  "transactions": [
    {
      "hash": "0x4a30df51ed41f82cef61d7706d0ab0fd9838b9fd17e8cb00ccd1b1104e0c21c3",
      "transactionType": "CALL",
      "contractName": null,
      "contractAddress": "0x8e074b7636f6a56097f1f719e708e2c932e23bab",
      "function": "schedule(address,uint256,bytes,bytes32,bytes32,uint256)",
      "arguments": [
        "0x4A5c3Cca0Ac2a1949D600891A89dd19B35189Cf0",
        "0",
        "0x9362149e0000000000000000000000000fabfeacedf47e890c50c8120177fff69c6a1d9b0000000000000000000000003bf2b1e1da1bd2c3d397e9df06b7f717c2f12ad7",
        "0x7ac5d88a13cd2acf506ab335af9f46af373b9527f040efc590ac456670847bff",
        "0x40ff373ce682ff2d0914d7bc8de471daba99f32c2ff9c8dd712c1d6799ae5508",
        "345600"
      ],
      "transaction": {
        "from": "0xf8cbf6437d2473ec59885299af38d9a13ce97eca",
        "to": "0x8e074b7636f6a56097f1f719e708e2c932e23bab",
        "gas": "0x146f8",
        "value": "0x0",
        "input": "0x01d5062a0000000000000000000000004a5c3cca0ac2a1949d600891a89dd19b35189cf0000000000000000000000000000000000000000000000000000000000000000000000000000000000000000000000000000000000000000000000000000000c07ac5d88a13cd2acf506ab335af9f46af373b9527f040efc590ac456670847bff40ff373ce682ff2d0914d7bc8de471daba99f32c2ff9c8dd712c1d6799ae5508000000000000000000000000000000000000000000000000000000000005460000000000000000000000000000000000000000000000000000000000000000449362149e0000000000000000000000000fabfeacedf47e890c50c8120177fff69c6a1d9b0000000000000000000000003bf2b1e1da1bd2c3d397e9df06b7f717c2f12ad700000000000000000000000000000000000000000000000000000000",
        "nonce": "0x5c",
        "chainId": "0x2105"
      },
      "additionalContracts": [],
      "isFixedGasLimit": false
    }
  ],
  "receipts": [
    {
      "status": "0x1",
      "cumulativeGasUsed": "0x202b865",
      "logs": [
        {
          "address": "0x8e074b7636f6a56097f1f719e708e2c932e23bab",
          "topics": [
            "0x4cf4410cc57040e44862ef0f45f3dd5a5e02db8eb8add648d4b0e236f1d07dca",
            "0xfc00121bb26a07dda417c05e130dba3ce80040827c61083a2832ff7b45028bab",
            "0x0000000000000000000000000000000000000000000000000000000000000000"
          ],
          "data": "0x0000000000000000000000004a5c3cca0ac2a1949d600891a89dd19b35189cf0000000000000000000000000000000000000000000000000000000000000000000000000000000000000000000000000000000000000000000000000000000a07ac5d88a13cd2acf506ab335af9f46af373b9527f040efc590ac456670847bff000000000000000000000000000000000000000000000000000000000005460000000000000000000000000000000000000000000000000000000000000000449362149e0000000000000000000000000fabfeacedf47e890c50c8120177fff69c6a1d9b0000000000000000000000003bf2b1e1da1bd2c3d397e9df06b7f717c2f12ad700000000000000000000000000000000000000000000000000000000",
          "blockHash": "0xa3ed0acccc0d9daca2061ffb2af56385cc9f62ceca18714af0a17fef5cf2be27",
          "blockNumber": "0x296ec14",
          "blockTimestamp": "0x69b8350b",
          "transactionHash": "0x4a30df51ed41f82cef61d7706d0ab0fd9838b9fd17e8cb00ccd1b1104e0c21c3",
          "transactionIndex": "0xc6",
          "logIndex": "0x294",
          "removed": false
        },
        {
          "address": "0x8e074b7636f6a56097f1f719e708e2c932e23bab",
          "topics": [
            "0x20fda5fd27a1ea7bf5b9567f143ac5470bb059374a27e8f67cb44f946f6d0387",
            "0xfc00121bb26a07dda417c05e130dba3ce80040827c61083a2832ff7b45028bab"
          ],
          "data": "0x40ff373ce682ff2d0914d7bc8de471daba99f32c2ff9c8dd712c1d6799ae5508",
          "blockHash": "0xa3ed0acccc0d9daca2061ffb2af56385cc9f62ceca18714af0a17fef5cf2be27",
          "blockNumber": "0x296ec14",
          "blockTimestamp": "0x69b8350b",
          "transactionHash": "0x4a30df51ed41f82cef61d7706d0ab0fd9838b9fd17e8cb00ccd1b1104e0c21c3",
          "transactionIndex": "0xc6",
          "logIndex": "0x295",
          "removed": false
        }
      ],
      "logsBloom": "0x00000400000000000000000040000000000000000000000000000000000000000000000000001000000000000000000100000000800000000000000000000000000000000000000000000000000000000000000000000008000000000000000000000000020000000000000000000800000080000000000000000000000000000000000000000000000000000000000000000000000000000000000000000000000000000000000000000000000000000020000000000000000000000000000000000010000000000000000000000000000000000000400000000000000020000000000000000000000000000000000000000080000000000000000000800000",
      "type": "0x2",
      "transactionHash": "0x4a30df51ed41f82cef61d7706d0ab0fd9838b9fd17e8cb00ccd1b1104e0c21c3",
      "transactionIndex": "0xc6",
      "blockHash": "0xa3ed0acccc0d9daca2061ffb2af56385cc9f62ceca18714af0a17fef5cf2be27",
      "blockNumber": "0x296ec14",
      "gasUsed": "0xdf92",
      "effectiveGasPrice": "0x6699f2",
      "blobGasUsed": "0x6ec4",
      "from": "0xf8cbf6437d2473ec59885299af38d9a13ce97eca",
      "to": "0x8e074b7636f6a56097f1f719e708e2c932e23bab",
      "contractAddress": null,
      "daFootprintGasScalar": "0x8b",
      "l1BaseFeeScalar": "0x8dd",
      "l1BlobBaseFee": "0xfd8f8b",
      "l1BlobBaseFeeScalar": "0x101c12",
      "l1Fee": "0x1520b7922",
      "l1GasPrice": "0x10ccc6f9",
      "l1GasUsed": "0xcc2"
    }
  ],
  "libraries": [],
  "pending": [],
  "returns": {},
  "timestamp": 1773679887553,
  "chain": 8453,
  "commit": "dee1601"
}