{
  "transactions": [
    {
      "hash": "0x0c45f522c9eec44ea0bd9023559b972f5765719e808c1f25d3cb58a0018064c4",
      "transactionType": "CALL",
      "contractName": null,
      "contractAddress": "0x8e074b7636f6a56097f1f719e708e2c932e23bab",
      "function": "schedule(address,uint256,bytes,bytes32,bytes32,uint256)",
      "arguments": [
        "0x4A5c3Cca0Ac2a1949D600891A89dd19B35189Cf0",
        "0",
        "0x9362149e000000000000000000000000b7890cee6cf4792cdcc13489d36d9d42726ab8630000000000000000000000003bf2b1e1da1bd2c3d397e9df06b7f717c2f12ad7",
        "0x7ac5d88a13cd2acf506ab335af9f46af373b9527f040efc590ac456670847bff",
        "0xad12ca67fa578784dfc2fac395bc203ee1919e4cefe88301df6e2250b4bf8dd9",
        "345600"
      ],
      "transaction": {
        "from": "0xf8cbf6437d2473ec59885299af38d9a13ce97eca",
        "to": "0x8e074b7636f6a56097f1f719e708e2c932e23bab",
        "gas": "0x146f8",
        "value": "0x0",
        "input": "0x01d5062a0000000000000000000000004a5c3cca0ac2a1949d600891a89dd19b35189cf0000000000000000000000000000000000000000000000000000000000000000000000000000000000000000000000000000000000000000000000000000000c07ac5d88a13cd2acf506ab335af9f46af373b9527f040efc590ac456670847bffad12ca67fa578784dfc2fac395bc203ee1919e4cefe88301df6e2250b4bf8dd9000000000000000000000000000000000000000000000000000000000005460000000000000000000000000000000000000000000000000000000000000000449362149e000000000000000000000000b7890cee6cf4792cdcc13489d36d9d42726ab8630000000000000000000000003bf2b1e1da1bd2c3d397e9df06b7f717c2f12ad700000000000000000000000000000000000000000000000000000000",
        "nonce": "0x56",
        "chainId": "0x2105"
      },
      "additionalContracts": [],
      "isFixedGasLimit": false
    }
  ],
  "receipts": [
    {
      "status": "0x1",
      "cumulativeGasUsed": "0xc82944",
      "logs": [
        {
          "address": "0x8e074b7636f6a56097f1f719e708e2c932e23bab",
          "topics": [
            "0x4cf4410cc57040e44862ef0f45f3dd5a5e02db8eb8add648d4b0e236f1d07dca",
            "0x1cbd52784d5f3a368b72ed86fd0cc9f6f7f31660e4a07da6cc6e79c09e561d16",
            "0x0000000000000000000000000000000000000000000000000000000000000000"
          ],
          "data": "0x0000000000000000000000004a5c3cca0ac2a1949d600891a89dd19b35189cf0000000000000000000000000000000000000000000000000000000000000000000000000000000000000000000000000000000000000000000000000000000a07ac5d88a13cd2acf506ab335af9f46af373b9527f040efc590ac456670847bff000000000000000000000000000000000000000000000000000000000005460000000000000000000000000000000000000000000000000000000000000000449362149e000000000000000000000000b7890cee6cf4792cdcc13489d36d9d42726ab8630000000000000000000000003bf2b1e1da1bd2c3d397e9df06b7f717c2f12ad700000000000000000000000000000000000000000000000000000000",
          "blockHash": "0xcffb3cea9ad96c96953fa8b8648e15dd81a4b7cd51872cb88afe946020814ca5",
          "blockNumber": "0x296ebe4",
          "blockTimestamp": "0x69b834ab",
          "transactionHash": "0x0c45f522c9eec44ea0bd9023559b972f5765719e808c1f25d3cb58a0018064c4",
          "transactionIndex": "0x45",
          "logIndex": "0x18f",
          "removed": false
        },
        {
          "address": "0x8e074b7636f6a56097f1f719e708e2c932e23bab",
          "topics": [
            "0x20fda5fd27a1ea7bf5b9567f143ac5470bb059374a27e8f67cb44f946f6d0387",
            "0x1cbd52784d5f3a368b72ed86fd0cc9f6f7f31660e4a07da6cc6e79c09e561d16"
          ],
          "data": "0xad12ca67fa578784dfc2fac395bc203ee1919e4cefe88301df6e2250b4bf8dd9",
          "blockHash": "0xcffb3cea9ad96c96953fa8b8648e15dd81a4b7cd51872cb88afe946020814ca5",
          "blockNumber": "0x296ebe4",
          "blockTimestamp": "0x69b834ab",
          "transactionHash": "0x0c45f522c9eec44ea0bd9023559b972f5765719e808c1f25d3cb58a0018064c4",
          "transactionIndex": "0x45",
          "logIndex": "0x190",
          "removed": false
        }
      ],
      "logsBloom": "0x00000000000000000000000040000000000000000800000000000000000000000000000000001000000000000000000100000000800000000000000000000000000000000000000000000000000000000000000000000008000000000000000000000000020000000000000000000800008080000000000000000000000000000000000000000000000000000000000000000000000000000000000000000100000000000000000000000000000000000000000000000000000000000000000000000010000000000000000000000000000000000000400000000000000020000000000000000000000000000000000000000000000000000000000000800000",
      "type": "0x2",
      "transactionHash": "0x0c45f522c9eec44ea0bd9023559b972f5765719e808c1f25d3cb58a0018064c4",
      "transactionIndex": "0x45",
      "blockHash": "0xcffb3cea9ad96c96953fa8b8648e15dd81a4b7cd51872cb88afe946020814ca5",
      "blockNumber": "0x296ebe4",
      "gasUsed": "0xdf92",
      "effectiveGasPrice": "0x68204a",
      "blobGasUsed": "0x6ec4",
      "from": "0xf8cbf6437d2473ec59885299af38d9a13ce97eca",
      "to": "0x8e074b7636f6a56097f1f719e708e2c932e23bab",
      "contractAddress": null,
      "daFootprintGasScalar": "0x8b",
      "l1BaseFeeScalar": "0x8dd",
      "l1BlobBaseFee": "0xdb278b",
      "l1BlobBaseFeeScalar": "0x101c12",
      "l1Fee": "0x12ce50d6a",
      "l1GasPrice": "0xfb258b3",
      "l1GasUsed": "0xcc2"
    }
  ],
  "libraries": [],
  "pending": [],
  "returns": {},
  "timestamp": 1773679790793,
  "chain": 8453,
  "commit": "dee1601"
}