{
  "transactions": [
    {
      "hash": "0x5ad0833fc187845c01a32e213b4d6ece215cb18bbe105aa10260d08bbff806d1",
      "transactionType": "CALL",
      "contractName": null,
      "contractAddress": "0x8e074b7636f6a56097f1f719e708e2c932e23bab",
      "function": "schedule(address,uint256,bytes,bytes32,bytes32,uint256)",
      "arguments": [
        "0x4A5c3Cca0Ac2a1949D600891A89dd19B35189Cf0",
        "0",
        "0x9362149e000000000000000000000000a0e430870c4604ccfc7b38ca7845b1ff653d0ff10000000000000000000000003bf2b1e1da1bd2c3d397e9df06b7f717c2f12ad7",
        "0x0000000000000000000000000000000000000000000000000000000000000000",
        "0xf7358fa179809e5e706661ee7b9963bc7dc7c09334f625984f1895fa02130745",
        "345600"
      ],
      "transaction": {
        "from": "0xd6768630e0b26eba52d52e75a5d21989aa750113",
        "to": "0x8e074b7636f6a56097f1f719e708e2c932e23bab",
        "gas": "0x144c6",
        "value": "0x0",
        "input": "0x01d5062a0000000000000000000000004a5c3cca0ac2a1949d600891a89dd19b35189cf0000000000000000000000000000000000000000000000000000000000000000000000000000000000000000000000000000000000000000000000000000000c00000000000000000000000000000000000000000000000000000000000000000f7358fa179809e5e706661ee7b9963bc7dc7c09334f625984f1895fa02130745000000000000000000000000000000000000000000000000000000000005460000000000000000000000000000000000000000000000000000000000000000449362149e000000000000000000000000a0e430870c4604ccfc7b38ca7845b1ff653d0ff10000000000000000000000003bf2b1e1da1bd2c3d397e9df06b7f717c2f12ad700000000000000000000000000000000000000000000000000000000",
        "nonce": "0xd",
        "chainId": "0x2105"
      },
      "additionalContracts": [],
      "isFixedGasLimit": false
    }
  ],
  "receipts": [
    {
      "type": "0x2",
      "status": "0x1",
      "cumulativeGasUsed": "0xf40ca4",
      "logs": [
        {
          "address": "0x8e074b7636f6a56097f1f719e708e2c932e23bab",
          "topics": [
            "0x4cf4410cc57040e44862ef0f45f3dd5a5e02db8eb8add648d4b0e236f1d07dca",
            "0xb143e31cbaec47aef9a62157273165063a52c1df804158133f0040b220762b1c",
            "0x0000000000000000000000000000000000000000000000000000000000000000"
          ],
          "data": "0x0000000000000000000000004a5c3cca0ac2a1949d600891a89dd19b35189cf0000000000000000000000000000000000000000000000000000000000000000000000000000000000000000000000000000000000000000000000000000000a00000000000000000000000000000000000000000000000000000000000000000000000000000000000000000000000000000000000000000000000000005460000000000000000000000000000000000000000000000000000000000000000449362149e000000000000000000000000a0e430870c4604ccfc7b38ca7845b1ff653d0ff10000000000000000000000003bf2b1e1da1bd2c3d397e9df06b7f717c2f12ad700000000000000000000000000000000000000000000000000000000",
          "blockHash": "0xc1d72f85e5ca495954a3730515423fbd71d8a7f7c591c18680a7bf7af903c712",
          "blockNumber": "0x2da03a0",
          "blockTimestamp": "0x6a3e6423",
          "transactionHash": "0x5ad0833fc187845c01a32e213b4d6ece215cb18bbe105aa10260d08bbff806d1",
          "transactionIndex": "0x74",
          "logIndex": "0x12a",
          "removed": false
        },
        {
          "address": "0x8e074b7636f6a56097f1f719e708e2c932e23bab",
          "topics": [
            "0x20fda5fd27a1ea7bf5b9567f143ac5470bb059374a27e8f67cb44f946f6d0387",
            "0xb143e31cbaec47aef9a62157273165063a52c1df804158133f0040b220762b1c"
          ],
          "data": "0xf7358fa179809e5e706661ee7b9963bc7dc7c09334f625984f1895fa02130745",
          "blockHash": "0xc1d72f85e5ca495954a3730515423fbd71d8a7f7c591c18680a7bf7af903c712",
          "blockNumber": "0x2da03a0",
          "blockTimestamp": "0x6a3e6423",
          "transactionHash": "0x5ad0833fc187845c01a32e213b4d6ece215cb18bbe105aa10260d08bbff806d1",
          "transactionIndex": "0x74",
          "logIndex": "0x12b",
          "removed": false
        }
      ],
      "logsBloom": "0x00000000000000000000000040000000000000000000000000000000000000000000000000001000000000000000000100000000800000000000000000000000000000000000000000000000000000000000000000000008400000000000000000000000020000000000000000000800000080000000000000000000000000000000000000000000000000000000000000000000000000000000000400000000000000000000000000000000000000000000000000000000000000000000000000000010000000010000000000000000000000000000400000000000000020000000000000000000000000000000000000000000000000000000000000800000",
      "transactionHash": "0x5ad0833fc187845c01a32e213b4d6ece215cb18bbe105aa10260d08bbff806d1",
      "transactionIndex": "0x74",
      "blockHash": "0xc1d72f85e5ca495954a3730515423fbd71d8a7f7c591c18680a7bf7af903c712",
      "blockNumber": "0x2da03a0",
      "gasUsed": "0xde12",
      "effectiveGasPrice": "0x57bfea",
      "blobGasUsed": "0x677c",
      "from": "0xd6768630e0b26eba52d52e75a5d21989aa750113",
      "to": "0x8e074b7636f6a56097f1f719e708e2c932e23bab",
      "contractAddress": null,
      "l1GasPrice": "0x5fce91c",
      "l1GasUsed": "0xb31",
      "l1Fee": "0x6a2f5f75",
      "l1BaseFeeScalar": "0x8dd",
      "l1BlobBaseFee": "0x5b0f6c",
      "l1BlobBaseFeeScalar": "0x101c12",
      "daFootprintGasScalar": "0x94"
    }
  ],
  "libraries": [],
  "pending": [],
  "returns": {},
  "timestamp": 1782473766308,
  "chain": 8453,
  "commit": "de5ca46"
}