{
  "transactions": [
    {
      "hash": "0x489e80d014f0bce33ccdc1b786891f976f090ffb952a47bf7509c36393d01ced",
      "transactionType": "CALL",
      "contractName": null,
      "contractAddress": "0x8e074b7636f6a56097f1f719e708e2c932e23bab",
      "function": "schedule(address,uint256,bytes,bytes32,bytes32,uint256)",
      "arguments": [
        "0x4A5c3Cca0Ac2a1949D600891A89dd19B35189Cf0",
        "0",
        "0x9362149e00000000000000000000000012afdefb2237a5963e7bab3e2d46ad0eee70406e0000000000000000000000003bf2b1e1da1bd2c3d397e9df06b7f717c2f12ad7",
        "0x7ac5d88a13cd2acf506ab335af9f46af373b9527f040efc590ac456670847bff",
        "0x0281397a8915fa251532023fabb346bd9ee12a0d7b703cd393b5b4579e350646",
        "345600"
      ],
      "transaction": {
        "from": "0xf8cbf6437d2473ec59885299af38d9a13ce97eca",
        "to": "0x8e074b7636f6a56097f1f719e708e2c932e23bab",
        "gas": "0x146f8",
        "value": "0x0",
        "input": "0x01d5062a0000000000000000000000004a5c3cca0ac2a1949d600891a89dd19b35189cf0000000000000000000000000000000000000000000000000000000000000000000000000000000000000000000000000000000000000000000000000000000c07ac5d88a13cd2acf506ab335af9f46af373b9527f040efc590ac456670847bff0281397a8915fa251532023fabb346bd9ee12a0d7b703cd393b5b4579e350646000000000000000000000000000000000000000000000000000000000005460000000000000000000000000000000000000000000000000000000000000000449362149e00000000000000000000000012afdefb2237a5963e7bab3e2d46ad0eee70406e0000000000000000000000003bf2b1e1da1bd2c3d397e9df06b7f717c2f12ad700000000000000000000000000000000000000000000000000000000",
        "nonce": "0x5b",
        "chainId": "0x2105"
      },
      "additionalContracts": [],
      "isFixedGasLimit": false
    }
  ],
  "receipts": [
    {
      "status": "0x1",
      "cumulativeGasUsed": "0x3812c6e",
      "logs": [
        {
          "address": "0x8e074b7636f6a56097f1f719e708e2c932e23bab",
          "topics": [
            "0x4cf4410cc57040e44862ef0f45f3dd5a5e02db8eb8add648d4b0e236f1d07dca",
            "0x3d7cbbdfdbffa50b340bb5752a8347f9ed0539415ac44abe6c0c0e122c38628e",
            "0x0000000000000000000000000000000000000000000000000000000000000000"
          ],
          "data": "0x0000000000000000000000004a5c3cca0ac2a1949d600891a89dd19b35189cf0000000000000000000000000000000000000000000000000000000000000000000000000000000000000000000000000000000000000000000000000000000a07ac5d88a13cd2acf506ab335af9f46af373b9527f040efc590ac456670847bff000000000000000000000000000000000000000000000000000000000005460000000000000000000000000000000000000000000000000000000000000000449362149e00000000000000000000000012afdefb2237a5963e7bab3e2d46ad0eee70406e0000000000000000000000003bf2b1e1da1bd2c3d397e9df06b7f717c2f12ad700000000000000000000000000000000000000000000000000000000",
          "blockHash": "0x2cd3c83459eaeb3cb41ef27aeb2e4fea50ccc0e2345c22b8c3e882906b622835",
          "blockNumber": "0x296ec0d",
          "blockTimestamp": "0x69b834fd",
          "transactionHash": "0x489e80d014f0bce33ccdc1b786891f976f090ffb952a47bf7509c36393d01ced",
          "transactionIndex": "0x116",
          "logIndex": "0x44e",
          "removed": false
        },
        {
          "address": "0x8e074b7636f6a56097f1f719e708e2c932e23bab",
          "topics": [
            "0x20fda5fd27a1ea7bf5b9567f143ac5470bb059374a27e8f67cb44f946f6d0387",
            "0x3d7cbbdfdbffa50b340bb5752a8347f9ed0539415ac44abe6c0c0e122c38628e"
          ],
          "data": "0x0281397a8915fa251532023fabb346bd9ee12a0d7b703cd393b5b4579e350646",
          "blockHash": "0x2cd3c83459eaeb3cb41ef27aeb2e4fea50ccc0e2345c22b8c3e882906b622835",
          "blockNumber": "0x296ec0d",
          "blockTimestamp": "0x69b834fd",
          "transactionHash": "0x489e80d014f0bce33ccdc1b786891f976f090ffb952a47bf7509c36393d01ced",
          "transactionIndex": "0x116",
          "logIndex": "0x44f",
          "removed": false
        }
      ],
      "logsBloom": "0x00000000000000000000000040000000000000000000000000000000000000000000000000001000000000000000000100100000800000000000000000000000000000040000000000000000000000000000000000000008000000000000000000000000020000000000000000000800000080000000000000000000000000000000000000000000000000000000000000000000000000000000000000000000000000000000000000000000000000000000000000000000000000000000000000000010000000000000000100000000000000000000400000000000000020000000000000000000000000000000000000000000000000000000000000800000",
      "type": "0x2",
      "transactionHash": "0x489e80d014f0bce33ccdc1b786891f976f090ffb952a47bf7509c36393d01ced",
      "transactionIndex": "0x116",
      "blockHash": "0x2cd3c83459eaeb3cb41ef27aeb2e4fea50ccc0e2345c22b8c3e882906b622835",
      "blockNumber": "0x296ec0d",
      "gasUsed": "0xdf92",
      "effectiveGasPrice": "0x62a79f",
      "blobGasUsed": "0x6c98",
      "from": "0xf8cbf6437d2473ec59885299af38d9a13ce97eca",
      "to": "0x8e074b7636f6a56097f1f719e708e2c932e23bab",
      "contractAddress": null,
      "daFootprintGasScalar": "0x8b",
      "l1BaseFeeScalar": "0x8dd",
      "l1BlobBaseFee": "0xfd8f8b",
      "l1BlobBaseFeeScalar": "0x101c12",
      "l1Fee": "0x14a71a9d5",
      "l1GasPrice": "0x1084685c",
      "l1GasUsed": "0xc8d"
    }
  ],
  "libraries": [],
  "pending": [],
  "returns": {},
  "timestamp": 1773679872345,
  "chain": 8453,
  "commit": "dee1601"
}