{
  "transactions": [
    {
      "hash": "0x650378b628048ef5a79611cdb837c0dce1ed8f1524d00755f19adfe6556c96ab",
      "transactionType": "CALL",
      "contractName": null,
      "contractAddress": "0x8e074b7636f6a56097f1f719e708e2c932e23bab",
      "function": "schedule(address,uint256,bytes,bytes32,bytes32,uint256)",
      "arguments": [
        "0x4A5c3Cca0Ac2a1949D600891A89dd19B35189Cf0",
        "0",
        "0x9362149e000000000000000000000000944766f715b51967e56afde5f0aa76ceacc9e7f90000000000000000000000003bf2b1e1da1bd2c3d397e9df06b7f717c2f12ad7",
        "0x0000000000000000000000000000000000000000000000000000000000000000",
        "0x5cef54f5ec7515db089a2aa4e53b1cea27f851e953bbd874c9ef4b651984e894",
        "345600"
      ],
      "transaction": {
        "from": "0xd6768630e0b26eba52d52e75a5d21989aa750113",
        "to": "0x8e074b7636f6a56097f1f719e708e2c932e23bab",
        "gas": "0x144c6",
        "value": "0x0",
        "input": "0x01d5062a0000000000000000000000004a5c3cca0ac2a1949d600891a89dd19b35189cf0000000000000000000000000000000000000000000000000000000000000000000000000000000000000000000000000000000000000000000000000000000c000000000000000000000000000000000000000000000000000000000000000005cef54f5ec7515db089a2aa4e53b1cea27f851e953bbd874c9ef4b651984e894000000000000000000000000000000000000000000000000000000000005460000000000000000000000000000000000000000000000000000000000000000449362149e000000000000000000000000944766f715b51967e56afde5f0aa76ceacc9e7f90000000000000000000000003bf2b1e1da1bd2c3d397e9df06b7f717c2f12ad700000000000000000000000000000000000000000000000000000000",
        "nonce": "0x4",
        "chainId": "0x2105"
      },
      "additionalContracts": [],
      "isFixedGasLimit": false
    }
  ],
  "receipts": [
    {
      "type": "0x2",
      "status": "0x1",
      "cumulativeGasUsed": "0xb017ff",
      "logs": [
        {
          "address": "0x8e074b7636f6a56097f1f719e708e2c932e23bab",
          "topics": [
            "0x4cf4410cc57040e44862ef0f45f3dd5a5e02db8eb8add648d4b0e236f1d07dca",
            "0x834e1a118ce15cc1da6476a318d194208f684c241cec44e41f4f9ba6dd72190b",
            "0x0000000000000000000000000000000000000000000000000000000000000000"
          ],
          "data": "0x0000000000000000000000004a5c3cca0ac2a1949d600891a89dd19b35189cf0000000000000000000000000000000000000000000000000000000000000000000000000000000000000000000000000000000000000000000000000000000a00000000000000000000000000000000000000000000000000000000000000000000000000000000000000000000000000000000000000000000000000005460000000000000000000000000000000000000000000000000000000000000000449362149e000000000000000000000000944766f715b51967e56afde5f0aa76ceacc9e7f90000000000000000000000003bf2b1e1da1bd2c3d397e9df06b7f717c2f12ad700000000000000000000000000000000000000000000000000000000",
          "blockHash": "0x48de0d3e2cbdf781964f513fe92a19feae29e1b12033c0afb61a033b43dc24ff",
          "blockNumber": "0x2d8ac14",
          "blockTimestamp": "0x6a3bb50b",
          "transactionHash": "0x650378b628048ef5a79611cdb837c0dce1ed8f1524d00755f19adfe6556c96ab",
          "transactionIndex": "0x22",
          "logIndex": "0x189",
          "removed": false
        },
        {
          "address": "0x8e074b7636f6a56097f1f719e708e2c932e23bab",
          "topics": [
            "0x20fda5fd27a1ea7bf5b9567f143ac5470bb059374a27e8f67cb44f946f6d0387",
            "0x834e1a118ce15cc1da6476a318d194208f684c241cec44e41f4f9ba6dd72190b"
          ],
          "data": "0x5cef54f5ec7515db089a2aa4e53b1cea27f851e953bbd874c9ef4b651984e894",
          "blockHash": "0x48de0d3e2cbdf781964f513fe92a19feae29e1b12033c0afb61a033b43dc24ff",
          "blockNumber": "0x2d8ac14",
          "blockTimestamp": "0x6a3bb50b",
          "transactionHash": "0x650378b628048ef5a79611cdb837c0dce1ed8f1524d00755f19adfe6556c96ab",
          "transactionIndex": "0x22",
          "logIndex": "0x18a",
          "removed": false
        }
      ],
      "logsBloom": "0x00000000000000000000000040000000000000000000000000000000000000000000000000003000000000000000000100000000800000000000000000000000000000000000000000000000000000000000000000000008000000000000000000000000020000000000000000000800000080000000000000000000000000000000000000000000000000000000000000000000000000000000000000000000000000000000000000000000008000000000000000000000000000000000000000000010000000000000000000000000020000000000400000000000000020000000000000000000000000000000000000000000000000000000000000800000",
      "transactionHash": "0x650378b628048ef5a79611cdb837c0dce1ed8f1524d00755f19adfe6556c96ab",
      "transactionIndex": "0x22",
      "blockHash": "0x48de0d3e2cbdf781964f513fe92a19feae29e1b12033c0afb61a033b43dc24ff",
      "blockNumber": "0x2d8ac14",
      "gasUsed": "0xde12",
      "effectiveGasPrice": "0x5b8d80",
      "blobGasUsed": "0x677c",
      "from": "0xd6768630e0b26eba52d52e75a5d21989aa750113",
      "to": "0x8e074b7636f6a56097f1f719e708e2c932e23bab",
      "contractAddress": null,
      "l1GasPrice": "0x9de8910",
      "l1GasUsed": "0xb31",
      "l1Fee": "0x927d854d",
      "l1BaseFeeScalar": "0x8dd",
      "l1BlobBaseFee": "0x6f7716",
      "l1BlobBaseFeeScalar": "0x101c12",
      "daFootprintGasScalar": "0x94"
    }
  ],
  "libraries": [],
  "pending": [],
  "returns": {},
  "timestamp": 1782297870501,
  "chain": 8453,
  "commit": "0e39ed8"
}