{
  "transactions": [
    {
      "hash": "0xfe4b7686b7b0ab9614df4c5302397daa28c14fe75845035312dd74e46c4e4fc3",
      "transactionType": "CALL",
      "contractName": null,
      "contractAddress": "0x8e074b7636f6a56097f1f719e708e2c932e23bab",
      "function": "schedule(address,uint256,bytes,bytes32,bytes32,uint256)",
      "arguments": [
        "0x4A5c3Cca0Ac2a1949D600891A89dd19B35189Cf0",
        "0",
        "0x9362149e0000000000000000000000001401d1271c47648ac70cbcdfa3776d4a87ce006b0000000000000000000000003bf2b1e1da1bd2c3d397e9df06b7f717c2f12ad7",
        "0x7ac5d88a13cd2acf506ab335af9f46af373b9527f040efc590ac456670847bff",
        "0x0191fb9300a9991b7acdc0c401de147346ce08b7dab4764e1a767016c335a021",
        "345600"
      ],
      "transaction": {
        "from": "0xf8cbf6437d2473ec59885299af38d9a13ce97eca",
        "to": "0x8e074b7636f6a56097f1f719e708e2c932e23bab",
        "gas": "0x146d5",
        "value": "0x0",
        "input": "0x01d5062a0000000000000000000000004a5c3cca0ac2a1949d600891a89dd19b35189cf0000000000000000000000000000000000000000000000000000000000000000000000000000000000000000000000000000000000000000000000000000000c07ac5d88a13cd2acf506ab335af9f46af373b9527f040efc590ac456670847bff0191fb9300a9991b7acdc0c401de147346ce08b7dab4764e1a767016c335a021000000000000000000000000000000000000000000000000000000000005460000000000000000000000000000000000000000000000000000000000000000449362149e0000000000000000000000001401d1271c47648ac70cbcdfa3776d4a87ce006b0000000000000000000000003bf2b1e1da1bd2c3d397e9df06b7f717c2f12ad700000000000000000000000000000000000000000000000000000000",
        "nonce": "0x70",
        "chainId": "0x2105"
      },
      "additionalContracts": [],
      "isFixedGasLimit": false
    }
  ],
  "receipts": [
    {
      "status": "0x1",
      "cumulativeGasUsed": "0x1ca3469",
      "logs": [
        {
          "address": "0x8e074b7636f6a56097f1f719e708e2c932e23bab",
          "topics": [
            "0x4cf4410cc57040e44862ef0f45f3dd5a5e02db8eb8add648d4b0e236f1d07dca",
            "0xb214b79a8480dea2af156c099c0449f959f3f9239d6458cc0484b4945da7f7c6",
            "0x0000000000000000000000000000000000000000000000000000000000000000"
          ],
          "data": "0x0000000000000000000000004a5c3cca0ac2a1949d600891a89dd19b35189cf0000000000000000000000000000000000000000000000000000000000000000000000000000000000000000000000000000000000000000000000000000000a07ac5d88a13cd2acf506ab335af9f46af373b9527f040efc590ac456670847bff000000000000000000000000000000000000000000000000000000000005460000000000000000000000000000000000000000000000000000000000000000449362149e0000000000000000000000001401d1271c47648ac70cbcdfa3776d4a87ce006b0000000000000000000000003bf2b1e1da1bd2c3d397e9df06b7f717c2f12ad700000000000000000000000000000000000000000000000000000000",
          "blockHash": "0xf53a3284d1593b816c842d5eb61d25dd0ae443a25c862de79272f12811c36f77",
          "blockNumber": "0x296ecaf",
          "blockTimestamp": "0x69b83641",
          "transactionHash": "0xfe4b7686b7b0ab9614df4c5302397daa28c14fe75845035312dd74e46c4e4fc3",
          "transactionIndex": "0x90",
          "logIndex": "0x2c8",
          "removed": false
        },
        {
          "address": "0x8e074b7636f6a56097f1f719e708e2c932e23bab",
          "topics": [
            "0x20fda5fd27a1ea7bf5b9567f143ac5470bb059374a27e8f67cb44f946f6d0387",
            "0xb214b79a8480dea2af156c099c0449f959f3f9239d6458cc0484b4945da7f7c6"
          ],
          "data": "0x0191fb9300a9991b7acdc0c401de147346ce08b7dab4764e1a767016c335a021",
          "blockHash": "0xf53a3284d1593b816c842d5eb61d25dd0ae443a25c862de79272f12811c36f77",
          "blockNumber": "0x296ecaf",
          "blockTimestamp": "0x69b83641",
          "transactionHash": "0xfe4b7686b7b0ab9614df4c5302397daa28c14fe75845035312dd74e46c4e4fc3",
          "transactionIndex": "0x90",
          "logIndex": "0x2c9",
          "removed": false
        }
      ],
      "logsBloom": "0x00000000000000000000000040000000000000000000000000000000000000000000000000001000000000001000000100000000800000000000000000000000000000000000010000000000000000000000000000000008000000000000000000000000020000000000000000000800000080000000000000000000000000000000000000000000000000000000000000000000000000020000000000000000000000000000000000000000000000000000000000000000000000000000000000000010000000000000000000000000000000000000400000000000000020000000000000000000000000000000000000000000000000000000000000800000",
      "type": "0x2",
      "transactionHash": "0xfe4b7686b7b0ab9614df4c5302397daa28c14fe75845035312dd74e46c4e4fc3",
      "transactionIndex": "0x90",
      "blockHash": "0xf53a3284d1593b816c842d5eb61d25dd0ae443a25c862de79272f12811c36f77",
      "blockNumber": "0x296ecaf",
      "gasUsed": "0xdf7a",
      "effectiveGasPrice": "0x67a274",
      "blobGasUsed": "0x6ec4",
      "from": "0xf8cbf6437d2473ec59885299af38d9a13ce97eca",
      "to": "0x8e074b7636f6a56097f1f719e708e2c932e23bab",
      "contractAddress": null,
      "daFootprintGasScalar": "0x8b",
      "l1BaseFeeScalar": "0x8dd",
      "l1BlobBaseFee": "0xeb4a51",
      "l1BlobBaseFeeScalar": "0x101c12",
      "l1Fee": "0x13ef88593",
      "l1GasPrice": "0x104d5df4",
      "l1GasUsed": "0xcc2"
    }
  ],
  "libraries": [],
  "pending": [],
  "returns": {},
  "timestamp": 1773680197420,
  "chain": 8453,
  "commit": "dee1601"
}