{
  "transactions": [
    {
      "hash": "0x32eaa9da30ca6910d157b72356f17bed4faf28c8528755b2a320b7bd55fa8cae",
      "transactionType": "CALL",
      "contractName": null,
      "contractAddress": "0x8e074b7636f6a56097f1f719e708e2c932e23bab",
      "function": "schedule(address,uint256,bytes,bytes32,bytes32,uint256)",
      "arguments": [
        "0x4A5c3Cca0Ac2a1949D600891A89dd19B35189Cf0",
        "0",
        "0x9362149e000000000000000000000000f42f5795d9ac7e9d757db633d693cd548cfd91690000000000000000000000003bf2b1e1da1bd2c3d397e9df06b7f717c2f12ad7",
        "0x7ac5d88a13cd2acf506ab335af9f46af373b9527f040efc590ac456670847bff",
        "0x2b9d4adcb43c52c958dcf11735bec0586e1b503b899a1d318781dac2897a581d",
        "345600"
      ],
      "transaction": {
        "from": "0xf8cbf6437d2473ec59885299af38d9a13ce97eca",
        "to": "0x8e074b7636f6a56097f1f719e708e2c932e23bab",
        "gas": "0x146f8",
        "value": "0x0",
        "input": "0x01d5062a0000000000000000000000004a5c3cca0ac2a1949d600891a89dd19b35189cf0000000000000000000000000000000000000000000000000000000000000000000000000000000000000000000000000000000000000000000000000000000c07ac5d88a13cd2acf506ab335af9f46af373b9527f040efc590ac456670847bff2b9d4adcb43c52c958dcf11735bec0586e1b503b899a1d318781dac2897a581d000000000000000000000000000000000000000000000000000000000005460000000000000000000000000000000000000000000000000000000000000000449362149e000000000000000000000000f42f5795d9ac7e9d757db633d693cd548cfd91690000000000000000000000003bf2b1e1da1bd2c3d397e9df06b7f717c2f12ad700000000000000000000000000000000000000000000000000000000",
        "nonce": "0x74",
        "chainId": "0x2105"
      },
      "additionalContracts": [],
      "isFixedGasLimit": false
    }
  ],
  "receipts": [
    {
      "status": "0x1",
      "cumulativeGasUsed": "0x3420920",
      "logs": [
        {
          "address": "0x8e074b7636f6a56097f1f719e708e2c932e23bab",
          "topics": [
            "0x4cf4410cc57040e44862ef0f45f3dd5a5e02db8eb8add648d4b0e236f1d07dca",
            "0x4be6ea148a2f6545cc0359aabb8277e9ba5c68eaa9f43f3c760eece25558d082",
            "0x0000000000000000000000000000000000000000000000000000000000000000"
          ],
          "data": "0x0000000000000000000000004a5c3cca0ac2a1949d600891a89dd19b35189cf0000000000000000000000000000000000000000000000000000000000000000000000000000000000000000000000000000000000000000000000000000000a07ac5d88a13cd2acf506ab335af9f46af373b9527f040efc590ac456670847bff000000000000000000000000000000000000000000000000000000000005460000000000000000000000000000000000000000000000000000000000000000449362149e000000000000000000000000f42f5795d9ac7e9d757db633d693cd548cfd91690000000000000000000000003bf2b1e1da1bd2c3d397e9df06b7f717c2f12ad700000000000000000000000000000000000000000000000000000000",
          "blockHash": "0xdda31b4d1f838a84dc52a5729f9177838fa12f834bc873ceb481907f927c1a99",
          "blockNumber": "0x296eccb",
          "blockTimestamp": "0x69b83679",
          "transactionHash": "0x32eaa9da30ca6910d157b72356f17bed4faf28c8528755b2a320b7bd55fa8cae",
          "transactionIndex": "0xe9",
          "logIndex": "0x3c0",
          "removed": false
        },
        {
          "address": "0x8e074b7636f6a56097f1f719e708e2c932e23bab",
          "topics": [
            "0x20fda5fd27a1ea7bf5b9567f143ac5470bb059374a27e8f67cb44f946f6d0387",
            "0x4be6ea148a2f6545cc0359aabb8277e9ba5c68eaa9f43f3c760eece25558d082"
          ],
          "data": "0x2b9d4adcb43c52c958dcf11735bec0586e1b503b899a1d318781dac2897a581d",
          "blockHash": "0xdda31b4d1f838a84dc52a5729f9177838fa12f834bc873ceb481907f927c1a99",
          "blockNumber": "0x296eccb",
          "blockTimestamp": "0x69b83679",
          "transactionHash": "0x32eaa9da30ca6910d157b72356f17bed4faf28c8528755b2a320b7bd55fa8cae",
          "transactionIndex": "0xe9",
          "logIndex": "0x3c1",
          "removed": false
        }
      ],
      "logsBloom": "0x00000000000000000000000040000000000000000000000000000000200000000000000000001000000000000000000100000000800000000000000000000000000000000000000000000000000000000000000000000008000000000000000000000000020000000000000000000800000080000000000000000000000000000000000000000000000000000000000000000000000000000000000000000000000000000000000000000000000100000000000000000000000000000000000000000010000000000000000000000000000000000000400000000000000020000000000000000000080000000000000000000000000000000000000000800000",
      "type": "0x2",
      "transactionHash": "0x32eaa9da30ca6910d157b72356f17bed4faf28c8528755b2a320b7bd55fa8cae",
      "transactionIndex": "0xe9",
      "blockHash": "0xdda31b4d1f838a84dc52a5729f9177838fa12f834bc873ceb481907f927c1a99",
      "blockNumber": "0x296eccb",
      "gasUsed": "0xdf92",
      "effectiveGasPrice": "0x66cc6e",
      "blobGasUsed": "0x6ec4",
      "from": "0xf8cbf6437d2473ec59885299af38d9a13ce97eca",
      "to": "0x8e074b7636f6a56097f1f719e708e2c932e23bab",
      "contractAddress": null,
      "daFootprintGasScalar": "0x8b",
      "l1BaseFeeScalar": "0x8dd",
      "l1BlobBaseFee": "0xf7028e",
      "l1BlobBaseFeeScalar": "0x101c12",
      "l1Fee": "0x148fcbd5d",
      "l1GasPrice": "0x105278a3",
      "l1GasUsed": "0xcc2"
    }
  ],
  "libraries": [],
  "pending": [],
  "returns": {},
  "timestamp": 1773680252234,
  "chain": 8453,
  "commit": "dee1601"
}