{
  "transactions": [
    {
      "hash": "0xd6a26b32e34b88e8730dc3b9f4adb4f2656f1d0b4b65529c64ff2002d5b37650",
      "transactionType": "CALL",
      "contractName": null,
      "contractAddress": "0x8e074b7636f6a56097f1f719e708e2c932e23bab",
      "function": "schedule(address,uint256,bytes,bytes32,bytes32,uint256)",
      "arguments": [
        "0x4A5c3Cca0Ac2a1949D600891A89dd19B35189Cf0",
        "0",
        "0x9362149e0000000000000000000000008effa741061aaa2d8a5012a9b09a2d31d8b628d70000000000000000000000003bf2b1e1da1bd2c3d397e9df06b7f717c2f12ad7",
        "0x0000000000000000000000000000000000000000000000000000000000000000",
        "0x924966613d3e4ff600db9d72866421fba6e91caae0de6e4106a7da11db43c25f",
        "345600"
      ],
      "transaction": {
        "from": "0xd6768630e0b26eba52d52e75a5d21989aa750113",
        "to": "0x8e074b7636f6a56097f1f719e708e2c932e23bab",
        "gas": "0x132ab",
        "value": "0x0",
        "input": "0x01d5062a0000000000000000000000004a5c3cca0ac2a1949d600891a89dd19b35189cf0000000000000000000000000000000000000000000000000000000000000000000000000000000000000000000000000000000000000000000000000000000c00000000000000000000000000000000000000000000000000000000000000000924966613d3e4ff600db9d72866421fba6e91caae0de6e4106a7da11db43c25f000000000000000000000000000000000000000000000000000000000005460000000000000000000000000000000000000000000000000000000000000000449362149e0000000000000000000000008effa741061aaa2d8a5012a9b09a2d31d8b628d70000000000000000000000003bf2b1e1da1bd2c3d397e9df06b7f717c2f12ad700000000000000000000000000000000000000000000000000000000",
        "nonce": "0x6",
        "chainId": "0x2105"
      },
      "additionalContracts": [],
      "isFixedGasLimit": false
    }
  ],
  "receipts": [
    {
      "type": "0x2",
      "status": "0x1",
      "cumulativeGasUsed": "0x138b6b7",
      "logs": [
        {
          "address": "0x8e074b7636f6a56097f1f719e708e2c932e23bab",
          "topics": [
            "0x4cf4410cc57040e44862ef0f45f3dd5a5e02db8eb8add648d4b0e236f1d07dca",
            "0x861d23f42f4b15b3d8274c11b268ae6c57bffa36c34436fc7ad439527c373676",
            "0x0000000000000000000000000000000000000000000000000000000000000000"
          ],
          "data": "0x0000000000000000000000004a5c3cca0ac2a1949d600891a89dd19b35189cf0000000000000000000000000000000000000000000000000000000000000000000000000000000000000000000000000000000000000000000000000000000a00000000000000000000000000000000000000000000000000000000000000000000000000000000000000000000000000000000000000000000000000005460000000000000000000000000000000000000000000000000000000000000000449362149e0000000000000000000000008effa741061aaa2d8a5012a9b09a2d31d8b628d70000000000000000000000003bf2b1e1da1bd2c3d397e9df06b7f717c2f12ad700000000000000000000000000000000000000000000000000000000",
          "blockHash": "0xa1ebfa1b015ac380775dd9530e3d5d60a64a7e4cdff3020d053ac44fba3a225c",
          "blockNumber": "0x2d8ac4a",
          "blockTimestamp": "0x6a3bb577",
          "transactionHash": "0xd6a26b32e34b88e8730dc3b9f4adb4f2656f1d0b4b65529c64ff2002d5b37650",
          "transactionIndex": "0x9a",
          "logIndex": "0x18c",
          "removed": false
        },
        {
          "address": "0x8e074b7636f6a56097f1f719e708e2c932e23bab",
          "topics": [
            "0x20fda5fd27a1ea7bf5b9567f143ac5470bb059374a27e8f67cb44f946f6d0387",
            "0x861d23f42f4b15b3d8274c11b268ae6c57bffa36c34436fc7ad439527c373676"
          ],
          "data": "0x924966613d3e4ff600db9d72866421fba6e91caae0de6e4106a7da11db43c25f",
          "blockHash": "0xa1ebfa1b015ac380775dd9530e3d5d60a64a7e4cdff3020d053ac44fba3a225c",
          "blockNumber": "0x2d8ac4a",
          "blockTimestamp": "0x6a3bb577",
          "transactionHash": "0xd6a26b32e34b88e8730dc3b9f4adb4f2656f1d0b4b65529c64ff2002d5b37650",
          "transactionIndex": "0x9a",
          "logIndex": "0x18d",
          "removed": false
        }
      ],
      "logsBloom": "0x00000000000000000000000040000000000000000000000000000000000800000000000000001000000000000000000100000000800000000000000000000000000000000000000000000000000000000040000000000008000000000000000000000000020000000000000000000800000080000000000000000000000000000000000000000000000000000000000000000000000000000000800000000000000000000000000000000000000000000000000000000000000000000000000000000010000000000000000000000000000000000000400000000000000020000000000000000000000000000000000000000000000000000000000000800000",
      "transactionHash": "0xd6a26b32e34b88e8730dc3b9f4adb4f2656f1d0b4b65529c64ff2002d5b37650",
      "transactionIndex": "0x9a",
      "blockHash": "0xa1ebfa1b015ac380775dd9530e3d5d60a64a7e4cdff3020d053ac44fba3a225c",
      "blockNumber": "0x2d8ac4a",
      "gasUsed": "0xde06",
      "effectiveGasPrice": "0x576c53",
      "blobGasUsed": "0x677c",
      "from": "0xd6768630e0b26eba52d52e75a5d21989aa750113",
      "to": "0x8e074b7636f6a56097f1f719e708e2c932e23bab",
      "contractAddress": null,
      "l1GasPrice": "0x90b4929",
      "l1GasUsed": "0xb31",
      "l1Fee": "0x98a2c50a",
      "l1BaseFeeScalar": "0x8dd",
      "l1BlobBaseFee": "0x7f0cd8",
      "l1BlobBaseFeeScalar": "0x101c12",
      "daFootprintGasScalar": "0x94"
    }
  ],
  "libraries": [],
  "pending": [],
  "returns": {},
  "timestamp": 1782297980717,
  "chain": 8453,
  "commit": "0e39ed8"
}