{
  "transactions": [
    {
      "hash": "0xb4fdd9302a18a37234572c7b5ec44a26cc182f275b964ac461d7e90d87bfedaf",
      "transactionType": "CALL",
      "contractName": "YieldSeekerAdminTimelock",
      "contractAddress": "0x8e074b7636f6a56097f1f719e708e2c932e23bab",
      "function": "schedule(address,uint256,bytes,bytes32,bytes32,uint256)",
      "arguments": [
        "0x4A5c3Cca0Ac2a1949D600891A89dd19B35189Cf0",
        "0",
        "0x9362149e000000000000000000000000fbb21d0380bee3312b33c4353c8936a0f13ef26c0000000000000000000000004367677bd9466bdbb64e4af7911d63344eaa8eee",
        "0x223d8a109d2724f426118ab757907769ef50fcff03998e9bf64f1c1852ab08cb",
        "0x1e105f3e8853cb7f5603a8af3635c30e77853ac15c3c9c34fdb037bbc684a4ee",
        "345600"
      ],
      "transaction": {
        "from": "0xd6768630e0b26eba52d52e75a5d21989aa750113",
        "to": "0x8e074b7636f6a56097f1f719e708e2c932e23bab",
        "gas": "0x146f8",
        "value": "0x0",
        "input": "0x01d5062a0000000000000000000000004a5c3cca0ac2a1949d600891a89dd19b35189cf0000000000000000000000000000000000000000000000000000000000000000000000000000000000000000000000000000000000000000000000000000000c0223d8a109d2724f426118ab757907769ef50fcff03998e9bf64f1c1852ab08cb1e105f3e8853cb7f5603a8af3635c30e77853ac15c3c9c34fdb037bbc684a4ee000000000000000000000000000000000000000000000000000000000005460000000000000000000000000000000000000000000000000000000000000000449362149e000000000000000000000000fbb21d0380bee3312b33c4353c8936a0f13ef26c0000000000000000000000004367677bd9466bdbb64e4af7911d63344eaa8eee00000000000000000000000000000000000000000000000000000000",
        "nonce": "0x22",
        "chainId": "0x2105"
      },
      "additionalContracts": [],
      "isFixedGasLimit": false
    }
  ],
  "receipts": [
    {
      "type": "0x2",
      "status": "0x1",
      "cumulativeGasUsed": "0x6e50ec",
      "logs": [
        {
          "address": "0x8e074b7636f6a56097f1f719e708e2c932e23bab",
          "topics": [
            "0x4cf4410cc57040e44862ef0f45f3dd5a5e02db8eb8add648d4b0e236f1d07dca",
            "0xdd80683fe0a17c24bdbb2b13d78cb1266fbc42cdbf01ae27f28193699c1d9a93",
            "0x0000000000000000000000000000000000000000000000000000000000000000"
          ],
          "data": "0x0000000000000000000000004a5c3cca0ac2a1949d600891a89dd19b35189cf0000000000000000000000000000000000000000000000000000000000000000000000000000000000000000000000000000000000000000000000000000000a0223d8a109d2724f426118ab757907769ef50fcff03998e9bf64f1c1852ab08cb000000000000000000000000000000000000000000000000000000000005460000000000000000000000000000000000000000000000000000000000000000449362149e000000000000000000000000fbb21d0380bee3312b33c4353c8936a0f13ef26c0000000000000000000000004367677bd9466bdbb64e4af7911d63344eaa8eee00000000000000000000000000000000000000000000000000000000",
          "blockHash": "0xc6c6a0de4a790f44a73c95516e15b92e54ce8c20d5e2fee91161c38f37c8c41c",
          "blockNumber": "0x2ebf487",
          "blockTimestamp": "0x6a6245f1",
          "transactionHash": "0xb4fdd9302a18a37234572c7b5ec44a26cc182f275b964ac461d7e90d87bfedaf",
          "transactionIndex": "0x36",
          "logIndex": "0xa2",
          "removed": false
        },
        {
          "address": "0x8e074b7636f6a56097f1f719e708e2c932e23bab",
          "topics": [
            "0x20fda5fd27a1ea7bf5b9567f143ac5470bb059374a27e8f67cb44f946f6d0387",
            "0xdd80683fe0a17c24bdbb2b13d78cb1266fbc42cdbf01ae27f28193699c1d9a93"
          ],
          "data": "0x1e105f3e8853cb7f5603a8af3635c30e77853ac15c3c9c34fdb037bbc684a4ee",
          "blockHash": "0xc6c6a0de4a790f44a73c95516e15b92e54ce8c20d5e2fee91161c38f37c8c41c",
          "blockNumber": "0x2ebf487",
          "blockTimestamp": "0x6a6245f1",
          "transactionHash": "0xb4fdd9302a18a37234572c7b5ec44a26cc182f275b964ac461d7e90d87bfedaf",
          "transactionIndex": "0x36",
          "logIndex": "0xa3",
          "removed": false
        }
      ],
      "logsBloom": "0x00000000000000000000000040000000000000000100000000000000000000000000000000001000000000000000000100000000800000000000000000000000000000000000000000000000000000000000000000000008000000000000000000000000020000000000000000000800000080000000000000000000000000000000000000000000000000000000000000000000000000000000000000000000000000000000000000000000000000000000000000000000000000000000000000000010000020000000000000000000000000000000400000000000000020004000000000000000000000000000000000000000000000000000000000800000",
      "transactionHash": "0xb4fdd9302a18a37234572c7b5ec44a26cc182f275b964ac461d7e90d87bfedaf",
      "transactionIndex": "0x36",
      "blockHash": "0xc6c6a0de4a790f44a73c95516e15b92e54ce8c20d5e2fee91161c38f37c8c41c",
      "blockNumber": "0x2ebf487",
      "gasUsed": "0xdf92",
      "effectiveGasPrice": "0x5b8d80",
      "blobGasUsed": "0x7434",
      "from": "0xd6768630e0b26eba52d52e75a5d21989aa750113",
      "to": "0x8e074b7636f6a56097f1f719e708e2c932e23bab",
      "contractAddress": null,
      "l1GasPrice": "0xa03d6db",
      "l1GasUsed": "0xc9a",
      "l1Fee": "0xcf81ec77",
      "l1BaseFeeScalar": "0x8dd",
      "l1BlobBaseFee": "0xa15548",
      "l1BlobBaseFeeScalar": "0x101c12",
      "daFootprintGasScalar": "0x94"
    }
  ],
  "libraries": [],
  "pending": [],
  "returns": {},
  "timestamp": 1784825329442,
  "chain": 8453,
  "commit": "426a7fb"
}