{
  "transactions": [
    {
      "hash": "0x4e08777beebc82a1f6f6c95dff5cee94246953a6e01689683f340788e8db16e8",
      "transactionType": "CALL",
      "contractName": null,
      "contractAddress": "0x8e074b7636f6a56097f1f719e708e2c932e23bab",
      "function": "schedule(address,uint256,bytes,bytes32,bytes32,uint256)",
      "arguments": [
        "0x4A5c3Cca0Ac2a1949D600891A89dd19B35189Cf0",
        "0",
        "0x9362149e000000000000000000000000cddcdd18a16ed441f6cb10c3909e5e7ec2b9e8f30000000000000000000000003bf2b1e1da1bd2c3d397e9df06b7f717c2f12ad7",
        "0x7ac5d88a13cd2acf506ab335af9f46af373b9527f040efc590ac456670847bff",
        "0xcbe6c9659d4dab384f100eb156bdea8e76ab6cc39d959a6a47713154518efda8",
        "345600"
      ],
      "transaction": {
        "from": "0xf8cbf6437d2473ec59885299af38d9a13ce97eca",
        "to": "0x8e074b7636f6a56097f1f719e708e2c932e23bab",
        "gas": "0x146f8",
        "value": "0x0",
        "input": "0x01d5062a0000000000000000000000004a5c3cca0ac2a1949d600891a89dd19b35189cf0000000000000000000000000000000000000000000000000000000000000000000000000000000000000000000000000000000000000000000000000000000c07ac5d88a13cd2acf506ab335af9f46af373b9527f040efc590ac456670847bffcbe6c9659d4dab384f100eb156bdea8e76ab6cc39d959a6a47713154518efda8000000000000000000000000000000000000000000000000000000000005460000000000000000000000000000000000000000000000000000000000000000449362149e000000000000000000000000cddcdd18a16ed441f6cb10c3909e5e7ec2b9e8f30000000000000000000000003bf2b1e1da1bd2c3d397e9df06b7f717c2f12ad700000000000000000000000000000000000000000000000000000000",
        "nonce": "0x50",
        "chainId": "0x2105"
      },
      "additionalContracts": [],
      "isFixedGasLimit": false
    }
  ],
  "receipts": [
    {
      "status": "0x1",
      "cumulativeGasUsed": "0x1996ccc",
      "logs": [
        {
          "address": "0x8e074b7636f6a56097f1f719e708e2c932e23bab",
          "topics": [
            "0x4cf4410cc57040e44862ef0f45f3dd5a5e02db8eb8add648d4b0e236f1d07dca",
            "0x013efa544e35f793aaac33b5f81dbacbf7c76a9eedeae659db7191fd9a6e5c6e",
            "0x0000000000000000000000000000000000000000000000000000000000000000"
          ],
          "data": "0x0000000000000000000000004a5c3cca0ac2a1949d600891a89dd19b35189cf0000000000000000000000000000000000000000000000000000000000000000000000000000000000000000000000000000000000000000000000000000000a07ac5d88a13cd2acf506ab335af9f46af373b9527f040efc590ac456670847bff000000000000000000000000000000000000000000000000000000000005460000000000000000000000000000000000000000000000000000000000000000449362149e000000000000000000000000cddcdd18a16ed441f6cb10c3909e5e7ec2b9e8f30000000000000000000000003bf2b1e1da1bd2c3d397e9df06b7f717c2f12ad700000000000000000000000000000000000000000000000000000000",
          "blockHash": "0x9e1c8032ceb726a4c1800ffab284d43e24141f106f7945a4b56c124906780898",
          "blockNumber": "0x296ea9c",
          "blockTimestamp": "0x69b8321b",
          "transactionHash": "0x4e08777beebc82a1f6f6c95dff5cee94246953a6e01689683f340788e8db16e8",
          "transactionIndex": "0x61",
          "logIndex": "0x28b",
          "removed": false
        },
        {
          "address": "0x8e074b7636f6a56097f1f719e708e2c932e23bab",
          "topics": [
            "0x20fda5fd27a1ea7bf5b9567f143ac5470bb059374a27e8f67cb44f946f6d0387",
            "0x013efa544e35f793aaac33b5f81dbacbf7c76a9eedeae659db7191fd9a6e5c6e"
          ],
          "data": "0xcbe6c9659d4dab384f100eb156bdea8e76ab6cc39d959a6a47713154518efda8",
          "blockHash": "0x9e1c8032ceb726a4c1800ffab284d43e24141f106f7945a4b56c124906780898",
          "blockNumber": "0x296ea9c",
          "blockTimestamp": "0x69b8321b",
          "transactionHash": "0x4e08777beebc82a1f6f6c95dff5cee94246953a6e01689683f340788e8db16e8",
          "transactionIndex": "0x61",
          "logIndex": "0x28c",
          "removed": false
        }
      ],
      "logsBloom": "0x00000000000000000000000040000000000000000000000000000008000000000000000000001000000000000000000100000000800000000000000000000000000000000000040000000000000000000000000000000008000000000000000000000000020000000000000000000800000080000000000000000000000000000000000000000000000000000000000000000000000000000000000000000000000000000000000000000000000000000000000000000000000000000000000000000010000000000000000000000000000000000000400000000000000020000000200000000000000000000000000000000000000000000000000000800000",
      "type": "0x2",
      "transactionHash": "0x4e08777beebc82a1f6f6c95dff5cee94246953a6e01689683f340788e8db16e8",
      "transactionIndex": "0x61",
      "blockHash": "0x9e1c8032ceb726a4c1800ffab284d43e24141f106f7945a4b56c124906780898",
      "blockNumber": "0x296ea9c",
      "gasUsed": "0xdf92",
      "effectiveGasPrice": "0x4f0afa",
      "blobGasUsed": "0x6d23",
      "from": "0xf8cbf6437d2473ec59885299af38d9a13ce97eca",
      "to": "0x8e074b7636f6a56097f1f719e708e2c932e23bab",
      "contractAddress": null,
      "daFootprintGasScalar": "0x8b",
      "l1BaseFeeScalar": "0x8dd",
      "l1BlobBaseFee": "0xb9e89c",
      "l1BlobBaseFeeScalar": "0x101c12",
      "l1Fee": "0xefcdc5bb",
      "l1GasPrice": "0xba268cb",
      "l1GasUsed": "0xc9a"
    }
  ],
  "libraries": [],
  "pending": [],
  "returns": {},
  "timestamp": 1773679135236,
  "chain": 8453,
  "commit": "dee1601"
}