{
  "transactions": [
    {
      "hash": "0x4896381208f70efb7f81c210525c3f3f690af0f3edbdf5202db1b085f39aca28",
      "transactionType": "CALL",
      "contractName": null,
      "contractAddress": "0x8e074b7636f6a56097f1f719e708e2c932e23bab",
      "function": "schedule(address,uint256,bytes,bytes32,bytes32,uint256)",
      "arguments": [
        "0x4A5c3Cca0Ac2a1949D600891A89dd19B35189Cf0",
        "0",
        "0x9362149e0000000000000000000000001c4a802fd6b591bb71daa01d8335e43719048b240000000000000000000000003bf2b1e1da1bd2c3d397e9df06b7f717c2f12ad7",
        "0x7ac5d88a13cd2acf506ab335af9f46af373b9527f040efc590ac456670847bff",
        "0xb96f21e4014e394dbb4f829dc5b31b003a270db3996ce549b5305f2f3829c394",
        "345600"
      ],
      "transaction": {
        "from": "0xf8cbf6437d2473ec59885299af38d9a13ce97eca",
        "to": "0x8e074b7636f6a56097f1f719e708e2c932e23bab",
        "gas": "0x134bd",
        "value": "0x0",
        "input": "0x01d5062a0000000000000000000000004a5c3cca0ac2a1949d600891a89dd19b35189cf0000000000000000000000000000000000000000000000000000000000000000000000000000000000000000000000000000000000000000000000000000000c07ac5d88a13cd2acf506ab335af9f46af373b9527f040efc590ac456670847bffb96f21e4014e394dbb4f829dc5b31b003a270db3996ce549b5305f2f3829c394000000000000000000000000000000000000000000000000000000000005460000000000000000000000000000000000000000000000000000000000000000449362149e0000000000000000000000001c4a802fd6b591bb71daa01d8335e43719048b240000000000000000000000003bf2b1e1da1bd2c3d397e9df06b7f717c2f12ad700000000000000000000000000000000000000000000000000000000",
        "nonce": "0x72",
        "chainId": "0x2105"
      },
      "additionalContracts": [],
      "isFixedGasLimit": false
    }
  ],
  "receipts": [
    {
      "status": "0x1",
      "cumulativeGasUsed": "0xc31350",
      "logs": [
        {
          "address": "0x8e074b7636f6a56097f1f719e708e2c932e23bab",
          "topics": [
            "0x4cf4410cc57040e44862ef0f45f3dd5a5e02db8eb8add648d4b0e236f1d07dca",
            "0x0b9b91aebaafc734c29d2afac1f8a5477fe4f9cd6a2db187ab9cfc4f642ced11",
            "0x0000000000000000000000000000000000000000000000000000000000000000"
          ],
          "data": "0x0000000000000000000000004a5c3cca0ac2a1949d600891a89dd19b35189cf0000000000000000000000000000000000000000000000000000000000000000000000000000000000000000000000000000000000000000000000000000000a07ac5d88a13cd2acf506ab335af9f46af373b9527f040efc590ac456670847bff000000000000000000000000000000000000000000000000000000000005460000000000000000000000000000000000000000000000000000000000000000449362149e0000000000000000000000001c4a802fd6b591bb71daa01d8335e43719048b240000000000000000000000003bf2b1e1da1bd2c3d397e9df06b7f717c2f12ad700000000000000000000000000000000000000000000000000000000",
          "blockHash": "0xc41ff6570ddebe7985a285b7143dc55daa70c7fa23189495b635906a0364efa8",
          "blockNumber": "0x296ecbd",
          "blockTimestamp": "0x69b8365d",
          "transactionHash": "0x4896381208f70efb7f81c210525c3f3f690af0f3edbdf5202db1b085f39aca28",
          "transactionIndex": "0x4a",
          "logIndex": "0x13d",
          "removed": false
        },
        {
          "address": "0x8e074b7636f6a56097f1f719e708e2c932e23bab",
          "topics": [
            "0x20fda5fd27a1ea7bf5b9567f143ac5470bb059374a27e8f67cb44f946f6d0387",
            "0x0b9b91aebaafc734c29d2afac1f8a5477fe4f9cd6a2db187ab9cfc4f642ced11"
          ],
          "data": "0xb96f21e4014e394dbb4f829dc5b31b003a270db3996ce549b5305f2f3829c394",
          "blockHash": "0xc41ff6570ddebe7985a285b7143dc55daa70c7fa23189495b635906a0364efa8",
          "blockNumber": "0x296ecbd",
          "blockTimestamp": "0x69b8365d",
          "transactionHash": "0x4896381208f70efb7f81c210525c3f3f690af0f3edbdf5202db1b085f39aca28",
          "transactionIndex": "0x4a",
          "logIndex": "0x13e",
          "removed": false
        }
      ],
      "logsBloom": "0x00000000000000000000000040000000000000000200000100000000000000000000000000001000000000000000000100000000800000000000000000000000000000000000000000000000000000000000000000000008000000000000000000000000020000000000000000000800000080000000000000000000000000000000000000000000000000000000000000000000000000000000000000000000000000000000000000000000000000000000000000000000000000000000000000000010000000000000000200000000000000000000400000000000000020000000000000000000000000000000000000000000000000000000000000800000",
      "type": "0x2",
      "transactionHash": "0x4896381208f70efb7f81c210525c3f3f690af0f3edbdf5202db1b085f39aca28",
      "transactionIndex": "0x4a",
      "blockHash": "0xc41ff6570ddebe7985a285b7143dc55daa70c7fa23189495b635906a0364efa8",
      "blockNumber": "0x296ecbd",
      "gasUsed": "0xdf86",
      "effectiveGasPrice": "0x69541b",
      "blobGasUsed": "0x6ec4",
      "from": "0xf8cbf6437d2473ec59885299af38d9a13ce97eca",
      "to": "0x8e074b7636f6a56097f1f719e708e2c932e23bab",
      "contractAddress": null,
      "daFootprintGasScalar": "0x8b",
      "l1BaseFeeScalar": "0x8dd",
      "l1BlobBaseFee": "0xf187b3",
      "l1BlobBaseFeeScalar": "0x101c12",
      "l1Fee": "0x143b18b22",
      "l1GasPrice": "0x103b02a3",
      "l1GasUsed": "0xcc2"
    }
  ],
  "libraries": [],
  "pending": [],
  "returns": {},
  "timestamp": 1773680224815,
  "chain": 8453,
  "commit": "dee1601"
}