{
  "transactions": [
    {
      "hash": "0xba7360b0c5c2be82817fb2579496bef00e13848c0bf998b314277fcf2a9361d4",
      "transactionType": "CALL",
      "contractName": "YieldSeekerAdminTimelock",
      "contractAddress": "0xec88da9d5e3efd3cee14760d75a4146459076c09",
      "function": "schedule(address,uint256,bytes,bytes32,bytes32,uint256)",
      "arguments": [
        "0x7c4750c562A75aC6a9e42C17dE3Af8956f5B87Ad",
        "0",
        "0x9362149e0000000000000000000000000000000000001ff3684f28c67538d4d072c22734000000000000000000000000219eae3eec370e2afd69bf8468107ee2453bb819",
        "0x0000000000000000000000000000000000000000000000000000000000000000",
        "0x4ae8fd766392e966118c04e4b8257c705b8f96a16ce2649b0134afdcc5d3b7b2",
        "0"
      ],
      "transaction": {
        "from": "0xce11d6fb4f1e006e5a348230449dc387fde850cc",
        "to": "0xec88da9d5e3efd3cee14760d75a4146459076c09",
        "gas": "0x1443a",
        "value": "0x0",
        "input": "0x01d5062a0000000000000000000000007c4750c562a75ac6a9e42c17de3af8956f5b87ad000000000000000000000000000000000000000000000000000000000000000000000000000000000000000000000000000000000000000000000000000000c000000000000000000000000000000000000000000000000000000000000000004ae8fd766392e966118c04e4b8257c705b8f96a16ce2649b0134afdcc5d3b7b2000000000000000000000000000000000000000000000000000000000000000000000000000000000000000000000000000000000000000000000000000000449362149e0000000000000000000000000000000000001ff3684f28c67538d4d072c22734000000000000000000000000219eae3eec370e2afd69bf8468107ee2453bb81900000000000000000000000000000000000000000000000000000000",
        "nonce": "0x6d",
        "chainId": "0x2105"
      },
      "additionalContracts": [],
      "isFixedGasLimit": false
    },
    {
      "hash": "0x441d57234e76d05a5a2974d2c1644b23e22261ebdd4206c44de95b72219f095d",
      "transactionType": "CALL",
      "contractName": "YieldSeekerAdminTimelock",
      "contractAddress": "0xec88da9d5e3efd3cee14760d75a4146459076c09",
      "function": "execute(address,uint256,bytes,bytes32,bytes32)",
      "arguments": [
        "0x7c4750c562A75aC6a9e42C17dE3Af8956f5B87Ad",
        "0",
        "0x9362149e0000000000000000000000000000000000001ff3684f28c67538d4d072c22734000000000000000000000000219eae3eec370e2afd69bf8468107ee2453bb819",
        "0x0000000000000000000000000000000000000000000000000000000000000000",
        "0x4ae8fd766392e966118c04e4b8257c705b8f96a16ce2649b0134afdcc5d3b7b2"
      ],
      "transaction": {
        "from": "0xce11d6fb4f1e006e5a348230449dc387fde850cc",
        "to": "0xec88da9d5e3efd3cee14760d75a4146459076c09",
        "gas": "0x286d7",
        "value": "0x0",
        "input": "0x134008d30000000000000000000000007c4750c562a75ac6a9e42c17de3af8956f5b87ad000000000000000000000000000000000000000000000000000000000000000000000000000000000000000000000000000000000000000000000000000000a000000000000000000000000000000000000000000000000000000000000000004ae8fd766392e966118c04e4b8257c705b8f96a16ce2649b0134afdcc5d3b7b200000000000000000000000000000000000000000000000000000000000000449362149e0000000000000000000000000000000000001ff3684f28c67538d4d072c22734000000000000000000000000219eae3eec370e2afd69bf8468107ee2453bb81900000000000000000000000000000000000000000000000000000000",
        "nonce": "0x6e",
        "chainId": "0x2105"
      },
      "additionalContracts": [],
      "isFixedGasLimit": false
    }
  ],
  "receipts": [
    {
      "status": "0x1",
      "cumulativeGasUsed": "0x126bd00",
      "logs": [
        {
          "address": "0xec88da9d5e3efd3cee14760d75a4146459076c09",
          "topics": [
            "0x4cf4410cc57040e44862ef0f45f3dd5a5e02db8eb8add648d4b0e236f1d07dca",
            "0xd999031169ae435865410532ec59d5e0bf2c1ac2396fe33328648fdc8649e538",
            "0x0000000000000000000000000000000000000000000000000000000000000000"
          ],
          "data": "0x0000000000000000000000007c4750c562a75ac6a9e42c17de3af8956f5b87ad000000000000000000000000000000000000000000000000000000000000000000000000000000000000000000000000000000000000000000000000000000a00000000000000000000000000000000000000000000000000000000000000000000000000000000000000000000000000000000000000000000000000000000000000000000000000000000000000000000000000000000000000000000000449362149e0000000000000000000000000000000000001ff3684f28c67538d4d072c22734000000000000000000000000219eae3eec370e2afd69bf8468107ee2453bb81900000000000000000000000000000000000000000000000000000000",
          "blockHash": "0x4c458af602a6ec3c7c5d31deba4c3b77468ff6d61c0b27723bae49ae054fec7a",
          "blockNumber": "0x260a5db",
          "blockTimestamp": "0x694ba899",
          "transactionHash": "0xba7360b0c5c2be82817fb2579496bef00e13848c0bf998b314277fcf2a9361d4",
          "transactionIndex": "0x68",
          "logIndex": "0x1d0",
          "removed": false
        },
        {
          "address": "0xec88da9d5e3efd3cee14760d75a4146459076c09",
          "topics": [
            "0x20fda5fd27a1ea7bf5b9567f143ac5470bb059374a27e8f67cb44f946f6d0387",
            "0xd999031169ae435865410532ec59d5e0bf2c1ac2396fe33328648fdc8649e538"
          ],
          "data": "0x4ae8fd766392e966118c04e4b8257c705b8f96a16ce2649b0134afdcc5d3b7b2",
          "blockHash": "0x4c458af602a6ec3c7c5d31deba4c3b77468ff6d61c0b27723bae49ae054fec7a",
          "blockNumber": "0x260a5db",
          "blockTimestamp": "0x694ba899",
          "transactionHash": "0xba7360b0c5c2be82817fb2579496bef00e13848c0bf998b314277fcf2a9361d4",
          "transactionIndex": "0x68",
          "logIndex": "0x1d1",
          "removed": false
        }
      ],
      "logsBloom": "0x00000000000000000000000040000000000000000000000000000000000000000000000000200000000000000000000100000000800000000000000000000000000000000000000000000000000000000000000000000008000000000000000000000000020000000000000001000800000080000000000000000000000000000000000000000000004000000200000000000000000000000000000000000010000000000000000000000000000000000000000000000000000000000000000000000000000000000000000000000000000800000000400000000000000020000000000000000000000000000000000000000000000000000000000000000000",
      "type": "0x2",
      "transactionHash": "0xba7360b0c5c2be82817fb2579496bef00e13848c0bf998b314277fcf2a9361d4",
      "transactionIndex": "0x68",
      "blockHash": "0x4c458af602a6ec3c7c5d31deba4c3b77468ff6d61c0b27723bae49ae054fec7a",
      "blockNumber": "0x260a5db",
      "gasUsed": "0xddb2",
      "effectiveGasPrice": "0xb2390",
      "blobGasUsed": "0xd403",
      "from": "0xce11d6fb4f1e006e5a348230449dc387fde850cc",
      "to": "0xec88da9d5e3efd3cee14760d75a4146459076c09",
      "contractAddress": null,
      "daFootprintGasScalar": "0x145",
      "l1BaseFeeScalar": "0x8dd",
      "l1BlobBaseFee": "0x1a584f",
      "l1BlobBaseFeeScalar": "0x101c12",
      "l1Fee": "0x1d39b14f",
      "l1GasPrice": "0x1d12046",
      "l1GasUsed": "0xa76"
    },
    {
      "status": "0x1",
      "cumulativeGasUsed": "0x128914e",
      "logs": [
        {
          "address": "0x7c4750c562a75ac6a9e42c17de3af8956f5b87ad",
          "topics": [
            "0x1cf35c87329e14a81fdc68af8a463c1db203ccfc925ff5150f5dbc71bc4c2372",
            "0x0000000000000000000000000000000000001ff3684f28c67538d4d072c22734",
            "0x000000000000000000000000219eae3eec370e2afd69bf8468107ee2453bb819"
          ],
          "data": "0x",
          "blockHash": "0x4c458af602a6ec3c7c5d31deba4c3b77468ff6d61c0b27723bae49ae054fec7a",
          "blockNumber": "0x260a5db",
          "blockTimestamp": "0x694ba899",
          "transactionHash": "0x441d57234e76d05a5a2974d2c1644b23e22261ebdd4206c44de95b72219f095d",
          "transactionIndex": "0x69",
          "logIndex": "0x1d2",
          "removed": false
        },
        {
          "address": "0xec88da9d5e3efd3cee14760d75a4146459076c09",
          "topics": [
            "0xc2617efa69bab66782fa219543714338489c4e9e178271560a91b82c3f612b58",
            "0xd999031169ae435865410532ec59d5e0bf2c1ac2396fe33328648fdc8649e538",
            "0x0000000000000000000000000000000000000000000000000000000000000000"
          ],
          "data": "0x0000000000000000000000007c4750c562a75ac6a9e42c17de3af8956f5b87ad0000000000000000000000000000000000000000000000000000000000000000000000000000000000000000000000000000000000000000000000000000006000000000000000000000000000000000000000000000000000000000000000449362149e0000000000000000000000000000000000001ff3684f28c67538d4d072c22734000000000000000000000000219eae3eec370e2afd69bf8468107ee2453bb81900000000000000000000000000000000000000000000000000000000",
          "blockHash": "0x4c458af602a6ec3c7c5d31deba4c3b77468ff6d61c0b27723bae49ae054fec7a",
          "blockNumber": "0x260a5db",
          "blockTimestamp": "0x694ba899",
          "transactionHash": "0x441d57234e76d05a5a2974d2c1644b23e22261ebdd4206c44de95b72219f095d",
          "transactionIndex": "0x69",
          "logIndex": "0x1d3",
          "removed": false
        }
      ],
      "logsBloom": "0x0000000000020000000000000000000000000000000000000000000000000000000000000020000000000000000000000000000000080000020000000000000000000000000000000080000000000000000000000000000000002020000000200000000002000040000000000900080000000800000000000000000000000000000000c000000000004000000200000000000000000000000000001000000010000000000000000000000000000000000000000000000000000000000000000000000008000000080000000000000000000800000000000000000000000020000000000000000000000000000000000000000000000000000000000000000000",
      "type": "0x2",
      "transactionHash": "0x441d57234e76d05a5a2974d2c1644b23e22261ebdd4206c44de95b72219f095d",
      "transactionIndex": "0x69",
      "blockHash": "0x4c458af602a6ec3c7c5d31deba4c3b77468ff6d61c0b27723bae49ae054fec7a",
      "blockNumber": "0x260a5db",
      "gasUsed": "0x1d44e",
      "effectiveGasPrice": "0xb2390",
      "blobGasUsed": "0xd034",
      "from": "0xce11d6fb4f1e006e5a348230449dc387fde850cc",
      "to": "0xec88da9d5e3efd3cee14760d75a4146459076c09",
      "contractAddress": null,
      "daFootprintGasScalar": "0x145",
      "l1BaseFeeScalar": "0x8dd",
      "l1BlobBaseFee": "0x1a584f",
      "l1BlobBaseFeeScalar": "0x101c12",
      "l1Fee": "0x1cc984a3",
      "l1GasPrice": "0x1d12046",
      "l1GasUsed": "0xa4d"
    }
  ],
  "libraries": [],
  "pending": [],
  "returns": {},
  "timestamp": 1766566043820,
  "chain": 8453,
  "commit": "31a7469"
}