{
  "transactions": [
    {
      "hash": "0xedcc5753f85a1cafda4e5d7b32a92de0c804521ae45e27566dbdbe1816a9992d",
      "transactionType": "CALL",
      "contractName": null,
      "contractAddress": "0x8e074b7636f6a56097f1f719e708e2c932e23bab",
      "function": "schedule(address,uint256,bytes,bytes32,bytes32,uint256)",
      "arguments": [
        "0x4A5c3Cca0Ac2a1949D600891A89dd19B35189Cf0",
        "0",
        "0x9362149e000000000000000000000000cbeef01994e24a60f7dcb8de98e75ad8bd4ad60d0000000000000000000000003bf2b1e1da1bd2c3d397e9df06b7f717c2f12ad7",
        "0x7ac5d88a13cd2acf506ab335af9f46af373b9527f040efc590ac456670847bff",
        "0x1582dad5cefc4c9c22ac1d14825496569b3c4b3c97e00e281abaf479db9b8b0d",
        "345600"
      ],
      "transaction": {
        "from": "0xf8cbf6437d2473ec59885299af38d9a13ce97eca",
        "to": "0x8e074b7636f6a56097f1f719e708e2c932e23bab",
        "gas": "0x146f8",
        "value": "0x0",
        "input": "0x01d5062a0000000000000000000000004a5c3cca0ac2a1949d600891a89dd19b35189cf0000000000000000000000000000000000000000000000000000000000000000000000000000000000000000000000000000000000000000000000000000000c07ac5d88a13cd2acf506ab335af9f46af373b9527f040efc590ac456670847bff1582dad5cefc4c9c22ac1d14825496569b3c4b3c97e00e281abaf479db9b8b0d000000000000000000000000000000000000000000000000000000000005460000000000000000000000000000000000000000000000000000000000000000449362149e000000000000000000000000cbeef01994e24a60f7dcb8de98e75ad8bd4ad60d0000000000000000000000003bf2b1e1da1bd2c3d397e9df06b7f717c2f12ad700000000000000000000000000000000000000000000000000000000",
        "nonce": "0x6e",
        "chainId": "0x2105"
      },
      "additionalContracts": [],
      "isFixedGasLimit": false
    }
  ],
  "receipts": [
    {
      "status": "0x1",
      "cumulativeGasUsed": "0x1757064",
      "logs": [
        {
          "address": "0x8e074b7636f6a56097f1f719e708e2c932e23bab",
          "topics": [
            "0x4cf4410cc57040e44862ef0f45f3dd5a5e02db8eb8add648d4b0e236f1d07dca",
            "0x7bbef44636ca68bc7533068bc8f27c890230e55b331d5311c61b7ccdcdc64054",
            "0x0000000000000000000000000000000000000000000000000000000000000000"
          ],
          "data": "0x0000000000000000000000004a5c3cca0ac2a1949d600891a89dd19b35189cf0000000000000000000000000000000000000000000000000000000000000000000000000000000000000000000000000000000000000000000000000000000a07ac5d88a13cd2acf506ab335af9f46af373b9527f040efc590ac456670847bff000000000000000000000000000000000000000000000000000000000005460000000000000000000000000000000000000000000000000000000000000000449362149e000000000000000000000000cbeef01994e24a60f7dcb8de98e75ad8bd4ad60d0000000000000000000000003bf2b1e1da1bd2c3d397e9df06b7f717c2f12ad700000000000000000000000000000000000000000000000000000000",
          "blockHash": "0x3d0702aec910ccdea1335efd39f131db7b8b4d8e33c39301b9445b1bd7b3bb78",
          "blockNumber": "0x296eca0",
          "blockTimestamp": "0x69b83623",
          "transactionHash": "0xedcc5753f85a1cafda4e5d7b32a92de0c804521ae45e27566dbdbe1816a9992d",
          "transactionIndex": "0x65",
          "logIndex": "0x235",
          "removed": false
        },
        {
          "address": "0x8e074b7636f6a56097f1f719e708e2c932e23bab",
          "topics": [
            "0x20fda5fd27a1ea7bf5b9567f143ac5470bb059374a27e8f67cb44f946f6d0387",
            "0x7bbef44636ca68bc7533068bc8f27c890230e55b331d5311c61b7ccdcdc64054"
          ],
          "data": "0x1582dad5cefc4c9c22ac1d14825496569b3c4b3c97e00e281abaf479db9b8b0d",
          "blockHash": "0x3d0702aec910ccdea1335efd39f131db7b8b4d8e33c39301b9445b1bd7b3bb78",
          "blockNumber": "0x296eca0",
          "blockTimestamp": "0x69b83623",
          "transactionHash": "0xedcc5753f85a1cafda4e5d7b32a92de0c804521ae45e27566dbdbe1816a9992d",
          "transactionIndex": "0x65",
          "logIndex": "0x236",
          "removed": false
        }
      ],
      "logsBloom": "0x00000000000000000000000040000000000000000000000000000000000000000000000000001000000000000000000100000000800000000000000000000000000000000000000000000000000000000000000000000008000000000000000000000000020000000000000000000800004080000000000000000000000000000000000000000000000000000000000000000000000000000000000000000000000000000000000000000000000000000000000000000000000000000000000000000010000080000000000000000000000000000000400000000000000020000000000000000000000000000000000000000002000000000000000000800000",
      "type": "0x2",
      "transactionHash": "0xedcc5753f85a1cafda4e5d7b32a92de0c804521ae45e27566dbdbe1816a9992d",
      "transactionIndex": "0x65",
      "blockHash": "0x3d0702aec910ccdea1335efd39f131db7b8b4d8e33c39301b9445b1bd7b3bb78",
      "blockNumber": "0x296eca0",
      "gasUsed": "0xdf92",
      "effectiveGasPrice": "0x6794b9",
      "blobGasUsed": "0x6dae",
      "from": "0xf8cbf6437d2473ec59885299af38d9a13ce97eca",
      "to": "0x8e074b7636f6a56097f1f719e708e2c932e23bab",
      "contractAddress": null,
      "daFootprintGasScalar": "0x8b",
      "l1BaseFeeScalar": "0x8dd",
      "l1BlobBaseFee": "0xdbf9b1",
      "l1BlobBaseFeeScalar": "0x101c12",
      "l1Fee": "0x133997cae",
      "l1GasPrice": "0x10d9caa5",
      "l1GasUsed": "0xca8"
    }
  ],
  "libraries": [],
  "pending": [],
  "returns": {},
  "timestamp": 1773680166994,
  "chain": 8453,
  "commit": "dee1601"
}