{
  "transactions": [
    {
      "hash": "0xd12be61ce598e42df01ffd3b4c3813f15ff221e9f5f7fd8794778e06d814a615",
      "transactionType": "CALL",
      "contractName": "YieldSeekerAdminTimelock",
      "contractAddress": "0x60163d6406503426e712ed6c507137229552756d",
      "function": "schedule(address,uint256,bytes,bytes32,bytes32,uint256)",
      "arguments": [
        "0x81f17748B0abE955790346B904f6B78E67594ed0",
        "0",
        "0x9362149e0000000000000000000000000000000000001ff3684f28c67538d4d072c2273400000000000000000000000015a8067f0b38e29f7fcffb93f85c585748d49d82",
        "0x0000000000000000000000000000000000000000000000000000000000000000",
        "0xd59efacf410f307eeb53f61da64b159b000358adf8b73debe5dec9ac5082506d",
        "0"
      ],
      "transaction": {
        "from": "0xf8cbf6437d2473ec59885299af38d9a13ce97eca",
        "to": "0x60163d6406503426e712ed6c507137229552756d",
        "gas": "0x13226",
        "value": "0x0",
        "input": "0x01d5062a00000000000000000000000081f17748b0abe955790346b904f6b78e67594ed0000000000000000000000000000000000000000000000000000000000000000000000000000000000000000000000000000000000000000000000000000000c00000000000000000000000000000000000000000000000000000000000000000d59efacf410f307eeb53f61da64b159b000358adf8b73debe5dec9ac5082506d000000000000000000000000000000000000000000000000000000000000000000000000000000000000000000000000000000000000000000000000000000449362149e0000000000000000000000000000000000001ff3684f28c67538d4d072c2273400000000000000000000000015a8067f0b38e29f7fcffb93f85c585748d49d8200000000000000000000000000000000000000000000000000000000",
        "nonce": "0xc",
        "chainId": "0x2105"
      },
      "additionalContracts": [],
      "isFixedGasLimit": false
    },
    {
      "hash": "0xd5276b8cf53b1ee680a3fadf867e0c5f32b935deaab35b0619f60ce55c187bde",
      "transactionType": "CALL",
      "contractName": "YieldSeekerAdminTimelock",
      "contractAddress": "0x60163d6406503426e712ed6c507137229552756d",
      "function": "execute(address,uint256,bytes,bytes32,bytes32)",
      "arguments": [
        "0x81f17748B0abE955790346B904f6B78E67594ed0",
        "0",
        "0x9362149e0000000000000000000000000000000000001ff3684f28c67538d4d072c2273400000000000000000000000015a8067f0b38e29f7fcffb93f85c585748d49d82",
        "0x0000000000000000000000000000000000000000000000000000000000000000",
        "0xd59efacf410f307eeb53f61da64b159b000358adf8b73debe5dec9ac5082506d"
      ],
      "transaction": {
        "from": "0xf8cbf6437d2473ec59885299af38d9a13ce97eca",
        "to": "0x60163d6406503426e712ed6c507137229552756d",
        "gas": "0x2acd3",
        "value": "0x0",
        "input": "0x134008d300000000000000000000000081f17748b0abe955790346b904f6b78e67594ed0000000000000000000000000000000000000000000000000000000000000000000000000000000000000000000000000000000000000000000000000000000a00000000000000000000000000000000000000000000000000000000000000000d59efacf410f307eeb53f61da64b159b000358adf8b73debe5dec9ac5082506d00000000000000000000000000000000000000000000000000000000000000449362149e0000000000000000000000000000000000001ff3684f28c67538d4d072c2273400000000000000000000000015a8067f0b38e29f7fcffb93f85c585748d49d8200000000000000000000000000000000000000000000000000000000",
        "nonce": "0xd",
        "chainId": "0x2105"
      },
      "additionalContracts": [],
      "isFixedGasLimit": false
    }
  ],
  "receipts": [
    {
      "status": "0x1",
      "cumulativeGasUsed": "0x1a493f9",
      "logs": [
        {
          "address": "0x60163d6406503426e712ed6c507137229552756d",
          "topics": [
            "0x4cf4410cc57040e44862ef0f45f3dd5a5e02db8eb8add648d4b0e236f1d07dca",
            "0x3d05db0046ddbf13b3f4a62fe46e04683efd4322384d3cd0f170a2b214f578b7",
            "0x0000000000000000000000000000000000000000000000000000000000000000"
          ],
          "data": "0x00000000000000000000000081f17748b0abe955790346b904f6b78e67594ed0000000000000000000000000000000000000000000000000000000000000000000000000000000000000000000000000000000000000000000000000000000a00000000000000000000000000000000000000000000000000000000000000000000000000000000000000000000000000000000000000000000000000000000000000000000000000000000000000000000000000000000000000000000000449362149e0000000000000000000000000000000000001ff3684f28c67538d4d072c2273400000000000000000000000015a8067f0b38e29f7fcffb93f85c585748d49d8200000000000000000000000000000000000000000000000000000000",
          "blockHash": "0x80057690dafdba92577a0c06336a15fdf68e9342a619d0954d8bc07688729ba8",
          "blockNumber": "0x26c0cac",
          "blockTimestamp": "0x6962763b",
          "transactionHash": "0xd12be61ce598e42df01ffd3b4c3813f15ff221e9f5f7fd8794778e06d814a615",
          "transactionIndex": "0x32",
          "logIndex": "0x32e",
          "removed": false
        },
        {
          "address": "0x60163d6406503426e712ed6c507137229552756d",
          "topics": [
            "0x20fda5fd27a1ea7bf5b9567f143ac5470bb059374a27e8f67cb44f946f6d0387",
            "0x3d05db0046ddbf13b3f4a62fe46e04683efd4322384d3cd0f170a2b214f578b7"
          ],
          "data": "0xd59efacf410f307eeb53f61da64b159b000358adf8b73debe5dec9ac5082506d",
          "blockHash": "0x80057690dafdba92577a0c06336a15fdf68e9342a619d0954d8bc07688729ba8",
          "blockNumber": "0x26c0cac",
          "blockTimestamp": "0x6962763b",
          "transactionHash": "0xd12be61ce598e42df01ffd3b4c3813f15ff221e9f5f7fd8794778e06d814a615",
          "transactionIndex": "0x32",
          "logIndex": "0x32f",
          "removed": false
        }
      ],
      "logsBloom": "0x00000000000000000000000040000000000000000000000000000000000000000000002000000000000000000000000100000000800000000000000000000000000000400000000000000000000000000000000000000008000000000008000000080000020000000000000000000800000080000000000000000000000000000000000000040040000000000000000000000000000000000000000000000000000000000000000000000000000000000000000000000000000000000000000000000000000000000000000000000000000000000000400000000000000020000000000000000000000000000000000000000000000000000000000000000000",
      "type": "0x2",
      "transactionHash": "0xd12be61ce598e42df01ffd3b4c3813f15ff221e9f5f7fd8794778e06d814a615",
      "transactionIndex": "0x32",
      "blockHash": "0x80057690dafdba92577a0c06336a15fdf68e9342a619d0954d8bc07688729ba8",
      "blockNumber": "0x26c0cac",
      "gasUsed": "0xdda6",
      "effectiveGasPrice": "0xfe146",
      "blobGasUsed": "0xd034",
      "from": "0xf8cbf6437d2473ec59885299af38d9a13ce97eca",
      "to": "0x60163d6406503426e712ed6c507137229552756d",
      "contractAddress": null,
      "daFootprintGasScalar": "0x145",
      "l1BaseFeeScalar": "0x8dd",
      "l1BlobBaseFee": "0x1ed1c0",
      "l1BlobBaseFeeScalar": "0x101c12",
      "l1Fee": "0x21dfa927",
      "l1GasPrice": "0x2288ff8",
      "l1GasUsed": "0xa4d"
    },
    {
      "status": "0x1",
      "cumulativeGasUsed": "0x1a6683b",
      "logs": [
        {
          "address": "0x81f17748b0abe955790346b904f6b78e67594ed0",
          "topics": [
            "0x1cf35c87329e14a81fdc68af8a463c1db203ccfc925ff5150f5dbc71bc4c2372",
            "0x0000000000000000000000000000000000001ff3684f28c67538d4d072c22734",
            "0x00000000000000000000000015a8067f0b38e29f7fcffb93f85c585748d49d82"
          ],
          "data": "0x",
          "blockHash": "0x80057690dafdba92577a0c06336a15fdf68e9342a619d0954d8bc07688729ba8",
          "blockNumber": "0x26c0cac",
          "blockTimestamp": "0x6962763b",
          "transactionHash": "0xd5276b8cf53b1ee680a3fadf867e0c5f32b935deaab35b0619f60ce55c187bde",
          "transactionIndex": "0x33",
          "logIndex": "0x330",
          "removed": false
        },
        {
          "address": "0x60163d6406503426e712ed6c507137229552756d",
          "topics": [
            "0xc2617efa69bab66782fa219543714338489c4e9e178271560a91b82c3f612b58",
            "0x3d05db0046ddbf13b3f4a62fe46e04683efd4322384d3cd0f170a2b214f578b7",
            "0x0000000000000000000000000000000000000000000000000000000000000000"
          ],
          "data": "0x00000000000000000000000081f17748b0abe955790346b904f6b78e67594ed00000000000000000000000000000000000000000000000000000000000000000000000000000000000000000000000000000000000000000000000000000006000000000000000000000000000000000000000000000000000000000000000449362149e0000000000000000000000000000000000001ff3684f28c67538d4d072c2273400000000000000000000000015a8067f0b38e29f7fcffb93f85c585748d49d8200000000000000000000000000000000000000000000000000000000",
          "blockHash": "0x80057690dafdba92577a0c06336a15fdf68e9342a619d0954d8bc07688729ba8",
          "blockNumber": "0x26c0cac",
          "blockTimestamp": "0x6962763b",
          "transactionHash": "0xd5276b8cf53b1ee680a3fadf867e0c5f32b935deaab35b0619f60ce55c187bde",
          "transactionIndex": "0x33",
          "logIndex": "0x331",
          "removed": false
        }
      ],
      "logsBloom": "0x00000000000000000000000400000000000000000000000000000000000000000000002000000000000000400000000000000000000800000200000000000000000000400000000000000000000000000000000000000000000000000408002000080000020000400000000008000800000000000000000000000000000000000000008000040040000000000000000000000000000000000000001000000000000000000000000000000000000000000000000000000000000000000000000000000008000000080000000000000000000400000000000000000000000020000000000000000000000000000000100000000000000000000000000000000000",
      "type": "0x2",
      "transactionHash": "0xd5276b8cf53b1ee680a3fadf867e0c5f32b935deaab35b0619f60ce55c187bde",
      "transactionIndex": "0x33",
      "blockHash": "0x80057690dafdba92577a0c06336a15fdf68e9342a619d0954d8bc07688729ba8",
      "blockNumber": "0x26c0cac",
      "gasUsed": "0x1d442",
      "effectiveGasPrice": "0xfe146",
      "blobGasUsed": "0xcdaa",
      "from": "0xf8cbf6437d2473ec59885299af38d9a13ce97eca",
      "to": "0x60163d6406503426e712ed6c507137229552756d",
      "contractAddress": null,
      "daFootprintGasScalar": "0x145",
      "l1BaseFeeScalar": "0x8dd",
      "l1BlobBaseFee": "0x1ed1c0",
      "l1BlobBaseFeeScalar": "0x101c12",
      "l1Fee": "0x215baa72",
      "l1GasPrice": "0x2288ff8",
      "l1GasUsed": "0xa25"
    }
  ],
  "libraries": [],
  "pending": [],
  "returns": {},
  "timestamp": 1768060478674,
  "chain": 8453,
  "commit": "a2591e4"
}