{
  "transactions": [
    {
      "hash": "0x67f42928f71c9696de186b303ddbfd812cebdf3815445c05d8cf5e09d9fc0e60",
      "transactionType": "CALL",
      "contractName": null,
      "contractAddress": "0x8e074b7636f6a56097f1f719e708e2c932e23bab",
      "function": "schedule(address,uint256,bytes,bytes32,bytes32,uint256)",
      "arguments": [
        "0x4A5c3Cca0Ac2a1949D600891A89dd19B35189Cf0",
        "0",
        "0x9362149e0000000000000000000000005435bc53f2c61298167cdb11cdf0db2bfa259ca00000000000000000000000003bf2b1e1da1bd2c3d397e9df06b7f717c2f12ad7",
        "0x7ac5d88a13cd2acf506ab335af9f46af373b9527f040efc590ac456670847bff",
        "0x63fbf6135d9c2c5d7aa15ce29ec3370c313213e3fc9f0570c7b28a858d23240f",
        "345600"
      ],
      "transaction": {
        "from": "0xf8cbf6437d2473ec59885299af38d9a13ce97eca",
        "to": "0x8e074b7636f6a56097f1f719e708e2c932e23bab",
        "gas": "0x146f8",
        "value": "0x0",
        "input": "0x01d5062a0000000000000000000000004a5c3cca0ac2a1949d600891a89dd19b35189cf0000000000000000000000000000000000000000000000000000000000000000000000000000000000000000000000000000000000000000000000000000000c07ac5d88a13cd2acf506ab335af9f46af373b9527f040efc590ac456670847bff63fbf6135d9c2c5d7aa15ce29ec3370c313213e3fc9f0570c7b28a858d23240f000000000000000000000000000000000000000000000000000000000005460000000000000000000000000000000000000000000000000000000000000000449362149e0000000000000000000000005435bc53f2c61298167cdb11cdf0db2bfa259ca00000000000000000000000003bf2b1e1da1bd2c3d397e9df06b7f717c2f12ad700000000000000000000000000000000000000000000000000000000",
        "nonce": "0x6f",
        "chainId": "0x2105"
      },
      "additionalContracts": [],
      "isFixedGasLimit": false
    }
  ],
  "receipts": [
    {
      "status": "0x1",
      "cumulativeGasUsed": "0x1313348",
      "logs": [
        {
          "address": "0x8e074b7636f6a56097f1f719e708e2c932e23bab",
          "topics": [
            "0x4cf4410cc57040e44862ef0f45f3dd5a5e02db8eb8add648d4b0e236f1d07dca",
            "0xa8fbf065422b1516b985955f0aafe6dce74c796313ec88812a6f35e2cbed9069",
            "0x0000000000000000000000000000000000000000000000000000000000000000"
          ],
          "data": "0x0000000000000000000000004a5c3cca0ac2a1949d600891a89dd19b35189cf0000000000000000000000000000000000000000000000000000000000000000000000000000000000000000000000000000000000000000000000000000000a07ac5d88a13cd2acf506ab335af9f46af373b9527f040efc590ac456670847bff000000000000000000000000000000000000000000000000000000000005460000000000000000000000000000000000000000000000000000000000000000449362149e0000000000000000000000005435bc53f2c61298167cdb11cdf0db2bfa259ca00000000000000000000000003bf2b1e1da1bd2c3d397e9df06b7f717c2f12ad700000000000000000000000000000000000000000000000000000000",
          "blockHash": "0x725fbef9dd31660e6e38e3b62a35ff9fb153ae271035f511f86747aa379ab8ef",
          "blockNumber": "0x296eca7",
          "blockTimestamp": "0x69b83631",
          "transactionHash": "0x67f42928f71c9696de186b303ddbfd812cebdf3815445c05d8cf5e09d9fc0e60",
          "transactionIndex": "0x56",
          "logIndex": "0x1e8",
          "removed": false
        },
        {
          "address": "0x8e074b7636f6a56097f1f719e708e2c932e23bab",
          "topics": [
            "0x20fda5fd27a1ea7bf5b9567f143ac5470bb059374a27e8f67cb44f946f6d0387",
            "0xa8fbf065422b1516b985955f0aafe6dce74c796313ec88812a6f35e2cbed9069"
          ],
          "data": "0x63fbf6135d9c2c5d7aa15ce29ec3370c313213e3fc9f0570c7b28a858d23240f",
          "blockHash": "0x725fbef9dd31660e6e38e3b62a35ff9fb153ae271035f511f86747aa379ab8ef",
          "blockNumber": "0x296eca7",
          "blockTimestamp": "0x69b83631",
          "transactionHash": "0x67f42928f71c9696de186b303ddbfd812cebdf3815445c05d8cf5e09d9fc0e60",
          "transactionIndex": "0x56",
          "logIndex": "0x1e9",
          "removed": false
        }
      ],
      "logsBloom": "0x00000000000000000000000040000000000000000000000000000000080000000000000000001000000000000000000100000000800000000000000000000000000000000000000000000000000000000000000000000008000000000000000000000000020000000000000000000800000080000000000000000000000000200000000000000000000000000000000000000000000000000000000000000000000000000000000000000000000000000000000000000000000000000000000000000010000000000000000000000000000000000000400000000020000020000000000000000000000000000000000000000000000000000000000000800000",
      "type": "0x2",
      "transactionHash": "0x67f42928f71c9696de186b303ddbfd812cebdf3815445c05d8cf5e09d9fc0e60",
      "transactionIndex": "0x56",
      "blockHash": "0x725fbef9dd31660e6e38e3b62a35ff9fb153ae271035f511f86747aa379ab8ef",
      "blockNumber": "0x296eca7",
      "gasUsed": "0xdf92",
      "effectiveGasPrice": "0x660d7f",
      "blobGasUsed": "0x6e39",
      "from": "0xf8cbf6437d2473ec59885299af38d9a13ce97eca",
      "to": "0x8e074b7636f6a56097f1f719e708e2c932e23bab",
      "contractAddress": null,
      "daFootprintGasScalar": "0x8b",
      "l1BaseFeeScalar": "0x8dd",
      "l1BlobBaseFee": "0xdccca6",
      "l1BlobBaseFeeScalar": "0x101c12",
      "l1Fee": "0x138715aa1",
      "l1GasPrice": "0x113db7dd",
      "l1GasUsed": "0xcb5"
    }
  ],
  "libraries": [],
  "pending": [],
  "returns": {},
  "timestamp": 1773680181208,
  "chain": 8453,
  "commit": "dee1601"
}