{
  "transactions": [
    {
      "hash": "0x2a76e26a1044280cad4ebc073fb3fff866c2634f438e77d4a9c4fa5656085330",
      "transactionType": "CALL",
      "contractName": null,
      "contractAddress": "0x8e074b7636f6a56097f1f719e708e2c932e23bab",
      "function": "schedule(address,uint256,bytes,bytes32,bytes32,uint256)",
      "arguments": [
        "0x4A5c3Cca0Ac2a1949D600891A89dd19B35189Cf0",
        "0",
        "0x9362149e0000000000000000000000006770216ac60f634483ec073cbabc4011c94307cb0000000000000000000000003bf2b1e1da1bd2c3d397e9df06b7f717c2f12ad7",
        "0x0000000000000000000000000000000000000000000000000000000000000000",
        "0x7a40c2529ef7899cac3cf18d272f562af4bad0924f7f97bad7eef64642b37457",
        "345600"
      ],
      "transaction": {
        "from": "0xd6768630e0b26eba52d52e75a5d21989aa750113",
        "to": "0x8e074b7636f6a56097f1f719e708e2c932e23bab",
        "gas": "0x144c6",
        "value": "0x0",
        "input": "0x01d5062a0000000000000000000000004a5c3cca0ac2a1949d600891a89dd19b35189cf0000000000000000000000000000000000000000000000000000000000000000000000000000000000000000000000000000000000000000000000000000000c000000000000000000000000000000000000000000000000000000000000000007a40c2529ef7899cac3cf18d272f562af4bad0924f7f97bad7eef64642b37457000000000000000000000000000000000000000000000000000000000005460000000000000000000000000000000000000000000000000000000000000000449362149e0000000000000000000000006770216ac60f634483ec073cbabc4011c94307cb0000000000000000000000003bf2b1e1da1bd2c3d397e9df06b7f717c2f12ad700000000000000000000000000000000000000000000000000000000",
        "nonce": "0x1b",
        "chainId": "0x2105"
      },
      "additionalContracts": [],
      "isFixedGasLimit": false
    }
  ],
  "receipts": [
    {
      "type": "0x2",
      "status": "0x1",
      "cumulativeGasUsed": "0x565e8b",
      "logs": [
        {
          "address": "0x8e074b7636f6a56097f1f719e708e2c932e23bab",
          "topics": [
            "0x4cf4410cc57040e44862ef0f45f3dd5a5e02db8eb8add648d4b0e236f1d07dca",
            "0xb3d16ad35657c6adb0be16912ac38cab1e23fac1970cc478df053fc7dc663743",
            "0x0000000000000000000000000000000000000000000000000000000000000000"
          ],
          "data": "0x0000000000000000000000004a5c3cca0ac2a1949d600891a89dd19b35189cf0000000000000000000000000000000000000000000000000000000000000000000000000000000000000000000000000000000000000000000000000000000a00000000000000000000000000000000000000000000000000000000000000000000000000000000000000000000000000000000000000000000000000005460000000000000000000000000000000000000000000000000000000000000000449362149e0000000000000000000000006770216ac60f634483ec073cbabc4011c94307cb0000000000000000000000003bf2b1e1da1bd2c3d397e9df06b7f717c2f12ad700000000000000000000000000000000000000000000000000000000",
          "blockHash": "0x9b2232b95a18951fe7005fb5002279ea3757e325e073fb8cd92a37854164cf92",
          "blockNumber": "0x2da0407",
          "blockTimestamp": "0x6a3e64f1",
          "transactionHash": "0x2a76e26a1044280cad4ebc073fb3fff866c2634f438e77d4a9c4fa5656085330",
          "transactionIndex": "0x31",
          "logIndex": "0x82",
          "removed": false
        },
        {
          "address": "0x8e074b7636f6a56097f1f719e708e2c932e23bab",
          "topics": [
            "0x20fda5fd27a1ea7bf5b9567f143ac5470bb059374a27e8f67cb44f946f6d0387",
            "0xb3d16ad35657c6adb0be16912ac38cab1e23fac1970cc478df053fc7dc663743"
          ],
          "data": "0x7a40c2529ef7899cac3cf18d272f562af4bad0924f7f97bad7eef64642b37457",
          "blockHash": "0x9b2232b95a18951fe7005fb5002279ea3757e325e073fb8cd92a37854164cf92",
          "blockNumber": "0x2da0407",
          "blockTimestamp": "0x6a3e64f1",
          "transactionHash": "0x2a76e26a1044280cad4ebc073fb3fff866c2634f438e77d4a9c4fa5656085330",
          "transactionIndex": "0x31",
          "logIndex": "0x83",
          "removed": false
        }
      ],
      "logsBloom": "0x00000000000000000000000040000000000000000000000000000000000000000000000000001000000000000000000100000000800000000000000000000000000000010000000000000000000000000010000000000008000000000000000000000000020000000000000000000800000080000000000000000000000000000000000000000000000000000000000000000000000000000000000000000000000000000000000000000000000000000000000000000000000000000000000000000010000000000000000000000000000000000000400000000000000020000000400000000000000000000000000000000000000000000000000000800000",
      "transactionHash": "0x2a76e26a1044280cad4ebc073fb3fff866c2634f438e77d4a9c4fa5656085330",
      "transactionIndex": "0x31",
      "blockHash": "0x9b2232b95a18951fe7005fb5002279ea3757e325e073fb8cd92a37854164cf92",
      "blockNumber": "0x2da0407",
      "gasUsed": "0xde12",
      "effectiveGasPrice": "0x55d4b9",
      "blobGasUsed": "0x677c",
      "from": "0xd6768630e0b26eba52d52e75a5d21989aa750113",
      "to": "0x8e074b7636f6a56097f1f719e708e2c932e23bab",
      "contractAddress": null,
      "l1GasPrice": "0x5d35852",
      "l1GasUsed": "0xb31",
      "l1Fee": "0x68a0d9f8",
      "l1BaseFeeScalar": "0x8dd",
      "l1BlobBaseFee": "0x5a61bc",
      "l1BlobBaseFeeScalar": "0x101c12",
      "daFootprintGasScalar": "0x94"
    }
  ],
  "libraries": [],
  "pending": [],
  "returns": {},
  "timestamp": 1782473972471,
  "chain": 8453,
  "commit": "de5ca46"
}