{
  "transactions": [
    {
      "hash": "0xef3ac3a823e092878164161ce8fbbe60d6c692e12c9b2e42d7f9bf012ebf488a",
      "transactionType": "CALL",
      "contractName": null,
      "contractAddress": "0x8e074b7636f6a56097f1f719e708e2c932e23bab",
      "function": "schedule(address,uint256,bytes,bytes32,bytes32,uint256)",
      "arguments": [
        "0x4A5c3Cca0Ac2a1949D600891A89dd19B35189Cf0",
        "0",
        "0x9362149e000000000000000000000000f877acafa28c19b96727966690b2f44d35ad59760000000000000000000000003f7de883c831b3f164bdc57855f199616ad5366a",
        "0x0000000000000000000000000000000000000000000000000000000000000000",
        "0xb713ee3e5a096b36fe178d409a4399570cebf2f7b449115352af4efeb096a482",
        "345600"
      ],
      "transaction": {
        "from": "0xd6768630e0b26eba52d52e75a5d21989aa750113",
        "to": "0x8e074b7636f6a56097f1f719e708e2c932e23bab",
        "gas": "0x144c6",
        "value": "0x0",
        "input": "0x01d5062a0000000000000000000000004a5c3cca0ac2a1949d600891a89dd19b35189cf0000000000000000000000000000000000000000000000000000000000000000000000000000000000000000000000000000000000000000000000000000000c00000000000000000000000000000000000000000000000000000000000000000b713ee3e5a096b36fe178d409a4399570cebf2f7b449115352af4efeb096a482000000000000000000000000000000000000000000000000000000000005460000000000000000000000000000000000000000000000000000000000000000449362149e000000000000000000000000f877acafa28c19b96727966690b2f44d35ad59760000000000000000000000003f7de883c831b3f164bdc57855f199616ad5366a00000000000000000000000000000000000000000000000000000000",
        "nonce": "0x17",
        "chainId": "0x2105"
      },
      "additionalContracts": [],
      "isFixedGasLimit": false
    }
  ],
  "receipts": [
    {
      "type": "0x2",
      "status": "0x1",
      "cumulativeGasUsed": "0x6d8026",
      "logs": [
        {
          "address": "0x8e074b7636f6a56097f1f719e708e2c932e23bab",
          "topics": [
            "0x4cf4410cc57040e44862ef0f45f3dd5a5e02db8eb8add648d4b0e236f1d07dca",
            "0x3b7f23a243c6fba8c99a947e5b7f01e090effd999bf4c0df02480009ba30c410",
            "0x0000000000000000000000000000000000000000000000000000000000000000"
          ],
          "data": "0x0000000000000000000000004a5c3cca0ac2a1949d600891a89dd19b35189cf0000000000000000000000000000000000000000000000000000000000000000000000000000000000000000000000000000000000000000000000000000000a00000000000000000000000000000000000000000000000000000000000000000000000000000000000000000000000000000000000000000000000000005460000000000000000000000000000000000000000000000000000000000000000449362149e000000000000000000000000f877acafa28c19b96727966690b2f44d35ad59760000000000000000000000003f7de883c831b3f164bdc57855f199616ad5366a00000000000000000000000000000000000000000000000000000000",
          "blockHash": "0x21cf6cd020684d6a93949224bba73e3db674c79f7efc939ad8e4c82674a3af6c",
          "blockNumber": "0x2da03e7",
          "blockTimestamp": "0x6a3e64b1",
          "transactionHash": "0xef3ac3a823e092878164161ce8fbbe60d6c692e12c9b2e42d7f9bf012ebf488a",
          "transactionIndex": "0x34",
          "logIndex": "0xc5",
          "removed": false
        },
        {
          "address": "0x8e074b7636f6a56097f1f719e708e2c932e23bab",
          "topics": [
            "0x20fda5fd27a1ea7bf5b9567f143ac5470bb059374a27e8f67cb44f946f6d0387",
            "0x3b7f23a243c6fba8c99a947e5b7f01e090effd999bf4c0df02480009ba30c410"
          ],
          "data": "0xb713ee3e5a096b36fe178d409a4399570cebf2f7b449115352af4efeb096a482",
          "blockHash": "0x21cf6cd020684d6a93949224bba73e3db674c79f7efc939ad8e4c82674a3af6c",
          "blockNumber": "0x2da03e7",
          "blockTimestamp": "0x6a3e64b1",
          "transactionHash": "0xef3ac3a823e092878164161ce8fbbe60d6c692e12c9b2e42d7f9bf012ebf488a",
          "transactionIndex": "0x34",
          "logIndex": "0xc6",
          "removed": false
        }
      ],
      "logsBloom": "0x00000000000000000000000040000000000000000000000000000000000000000000000000001000000000000000000100000000800000000000000000000000000000000000000000000000000000000000000000000008000000000000200000000000020000000000000000000800000080000000000000000000000000000000000000000000000000000000000000000000000000000000000000000000000000000000000000000000000000000000000000000000000000000000000000000010000000000000100000000000000000000000400000000000000020000000000000000000000001000000000000000000000000000000000000800000",
      "transactionHash": "0xef3ac3a823e092878164161ce8fbbe60d6c692e12c9b2e42d7f9bf012ebf488a",
      "transactionIndex": "0x34",
      "blockHash": "0x21cf6cd020684d6a93949224bba73e3db674c79f7efc939ad8e4c82674a3af6c",
      "blockNumber": "0x2da03e7",
      "gasUsed": "0xde12",
      "effectiveGasPrice": "0x5b8d80",
      "blobGasUsed": "0x677c",
      "from": "0xd6768630e0b26eba52d52e75a5d21989aa750113",
      "to": "0x8e074b7636f6a56097f1f719e708e2c932e23bab",
      "contractAddress": null,
      "l1GasPrice": "0x665ab48",
      "l1GasUsed": "0xb31",
      "l1Fee": "0x6d9aae8d",
      "l1BaseFeeScalar": "0x8dd",
      "l1BlobBaseFee": "0x5c1662",
      "l1BlobBaseFeeScalar": "0x101c12",
      "daFootprintGasScalar": "0x94"
    }
  ],
  "libraries": [],
  "pending": [],
  "returns": {},
  "timestamp": 1782473907143,
  "chain": 8453,
  "commit": "de5ca46"
}