{
  "transactions": [
    {
      "hash": "0x6217fc5c3572d11a8d1a5325faa976a308014f7b466022683d4d8aeddf8e01fc",
      "transactionType": "CALL",
      "contractName": null,
      "contractAddress": "0x8e074b7636f6a56097f1f719e708e2c932e23bab",
      "function": "schedule(address,uint256,bytes,bytes32,bytes32,uint256)",
      "arguments": [
        "0x4A5c3Cca0Ac2a1949D600891A89dd19B35189Cf0",
        "0",
        "0x9362149e000000000000000000000000c1256ae5ff1cf2719d4937adb3bbccab2e00a2ca0000000000000000000000003bf2b1e1da1bd2c3d397e9df06b7f717c2f12ad7",
        "0x7ac5d88a13cd2acf506ab335af9f46af373b9527f040efc590ac456670847bff",
        "0xe906f2862e1a78d87c84184505df04253b32ee3f5bb0a6a7c8fe832f7ff10f80",
        "345600"
      ],
      "transaction": {
        "from": "0xf8cbf6437d2473ec59885299af38d9a13ce97eca",
        "to": "0x8e074b7636f6a56097f1f719e708e2c932e23bab",
        "gas": "0x134bd",
        "value": "0x0",
        "input": "0x01d5062a0000000000000000000000004a5c3cca0ac2a1949d600891a89dd19b35189cf0000000000000000000000000000000000000000000000000000000000000000000000000000000000000000000000000000000000000000000000000000000c07ac5d88a13cd2acf506ab335af9f46af373b9527f040efc590ac456670847bffe906f2862e1a78d87c84184505df04253b32ee3f5bb0a6a7c8fe832f7ff10f80000000000000000000000000000000000000000000000000000000000005460000000000000000000000000000000000000000000000000000000000000000449362149e000000000000000000000000c1256ae5ff1cf2719d4937adb3bbccab2e00a2ca0000000000000000000000003bf2b1e1da1bd2c3d397e9df06b7f717c2f12ad700000000000000000000000000000000000000000000000000000000",
        "nonce": "0x52",
        "chainId": "0x2105"
      },
      "additionalContracts": [],
      "isFixedGasLimit": false
    }
  ],
  "receipts": [
    {
      "status": "0x1",
      "cumulativeGasUsed": "0x289c280",
      "logs": [
        {
          "address": "0x8e074b7636f6a56097f1f719e708e2c932e23bab",
          "topics": [
            "0x4cf4410cc57040e44862ef0f45f3dd5a5e02db8eb8add648d4b0e236f1d07dca",
            "0xdfb5337a7547c4a562787f72e6677fa580f9101c5694aac2c83b53a3b74f797c",
            "0x0000000000000000000000000000000000000000000000000000000000000000"
          ],
          "data": "0x0000000000000000000000004a5c3cca0ac2a1949d600891a89dd19b35189cf0000000000000000000000000000000000000000000000000000000000000000000000000000000000000000000000000000000000000000000000000000000a07ac5d88a13cd2acf506ab335af9f46af373b9527f040efc590ac456670847bff000000000000000000000000000000000000000000000000000000000005460000000000000000000000000000000000000000000000000000000000000000449362149e000000000000000000000000c1256ae5ff1cf2719d4937adb3bbccab2e00a2ca0000000000000000000000003bf2b1e1da1bd2c3d397e9df06b7f717c2f12ad700000000000000000000000000000000000000000000000000000000",
          "blockHash": "0x783355a56372412d2e9ed8c4013a6b6bc40b6051fd3069b220c6aa817473ff0f",
          "blockNumber": "0x296ebc4",
          "blockTimestamp": "0x69b8346b",
          "transactionHash": "0x6217fc5c3572d11a8d1a5325faa976a308014f7b466022683d4d8aeddf8e01fc",
          "transactionIndex": "0xdf",
          "logIndex": "0x42c",
          "removed": false
        },
        {
          "address": "0x8e074b7636f6a56097f1f719e708e2c932e23bab",
          "topics": [
            "0x20fda5fd27a1ea7bf5b9567f143ac5470bb059374a27e8f67cb44f946f6d0387",
            "0xdfb5337a7547c4a562787f72e6677fa580f9101c5694aac2c83b53a3b74f797c"
          ],
          "data": "0xe906f2862e1a78d87c84184505df04253b32ee3f5bb0a6a7c8fe832f7ff10f80",
          "blockHash": "0x783355a56372412d2e9ed8c4013a6b6bc40b6051fd3069b220c6aa817473ff0f",
          "blockNumber": "0x296ebc4",
          "blockTimestamp": "0x69b8346b",
          "transactionHash": "0x6217fc5c3572d11a8d1a5325faa976a308014f7b466022683d4d8aeddf8e01fc",
          "transactionIndex": "0xdf",
          "logIndex": "0x42d",
          "removed": false
        }
      ],
      "logsBloom": "0x00000000000000000000000040000000000000000000000000000000000000000000000000001000000000000000000100000000800000000000000000000000000000000000000000000000000000000000000000000008000000000000000000000000020000000000000000040800000080000000000000000000000000000000000000000000000000000000000000000000000000100000000000000000000000000000000000000000000000000000000000000000000000000000000000000010000000000000000000000000000000000000400000000000000020000000000000000000004000000000000000000000000000000000000000800000",
      "type": "0x2",
      "transactionHash": "0x6217fc5c3572d11a8d1a5325faa976a308014f7b466022683d4d8aeddf8e01fc",
      "transactionIndex": "0xdf",
      "blockHash": "0x783355a56372412d2e9ed8c4013a6b6bc40b6051fd3069b220c6aa817473ff0f",
      "blockNumber": "0x296ebc4",
      "gasUsed": "0xdf86",
      "effectiveGasPrice": "0x624302",
      "blobGasUsed": "0x6d23",
      "from": "0xf8cbf6437d2473ec59885299af38d9a13ce97eca",
      "to": "0x8e074b7636f6a56097f1f719e708e2c932e23bab",
      "contractAddress": null,
      "daFootprintGasScalar": "0x8b",
      "l1BaseFeeScalar": "0x8dd",
      "l1BlobBaseFee": "0xc91847",
      "l1BlobBaseFeeScalar": "0x101c12",
      "l1Fee": "0x11c0a00f1",
      "l1GasPrice": "0xff37bb2",
      "l1GasUsed": "0xc9a"
    }
  ],
  "libraries": [],
  "pending": [],
  "returns": {},
  "timestamp": 1773679726263,
  "chain": 8453,
  "commit": "dee1601"
}