{
  "transactions": [
    {
      "hash": "0x875ee50fa16ce6e14f141fbe095d5db15382f9f36ba239cd76a4860c60066b8f",
      "transactionType": "CALL",
      "contractName": null,
      "contractAddress": "0x8e074b7636f6a56097f1f719e708e2c932e23bab",
      "function": "schedule(address,uint256,bytes,bytes32,bytes32,uint256)",
      "arguments": [
        "0x4A5c3Cca0Ac2a1949D600891A89dd19B35189Cf0",
        "0",
        "0x9362149e000000000000000000000000beef050a7485865a7a8d8ca0cc5f7536b7a3443e0000000000000000000000003bf2b1e1da1bd2c3d397e9df06b7f717c2f12ad7",
        "0x0000000000000000000000000000000000000000000000000000000000000000",
        "0xdd17b8f9750c8beb31a1eb347eecc1d849b09b8c48c45d982a77cc2b0954cb7d",
        "345600"
      ],
      "transaction": {
        "from": "0xd6768630e0b26eba52d52e75a5d21989aa750113",
        "to": "0x8e074b7636f6a56097f1f719e708e2c932e23bab",
        "gas": "0x144c6",
        "value": "0x0",
        "input": "0x01d5062a0000000000000000000000004a5c3cca0ac2a1949d600891a89dd19b35189cf0000000000000000000000000000000000000000000000000000000000000000000000000000000000000000000000000000000000000000000000000000000c00000000000000000000000000000000000000000000000000000000000000000dd17b8f9750c8beb31a1eb347eecc1d849b09b8c48c45d982a77cc2b0954cb7d000000000000000000000000000000000000000000000000000000000005460000000000000000000000000000000000000000000000000000000000000000449362149e000000000000000000000000beef050a7485865a7a8d8ca0cc5f7536b7a3443e0000000000000000000000003bf2b1e1da1bd2c3d397e9df06b7f717c2f12ad700000000000000000000000000000000000000000000000000000000",
        "nonce": "0x15",
        "chainId": "0x2105"
      },
      "additionalContracts": [],
      "isFixedGasLimit": false
    }
  ],
  "receipts": [
    {
      "type": "0x2",
      "status": "0x1",
      "cumulativeGasUsed": "0x8eddfc",
      "logs": [
        {
          "address": "0x8e074b7636f6a56097f1f719e708e2c932e23bab",
          "topics": [
            "0x4cf4410cc57040e44862ef0f45f3dd5a5e02db8eb8add648d4b0e236f1d07dca",
            "0xdabcef3e0bf89bef0437fa73268be89a90c8747c630370d957430f612525b846",
            "0x0000000000000000000000000000000000000000000000000000000000000000"
          ],
          "data": "0x0000000000000000000000004a5c3cca0ac2a1949d600891a89dd19b35189cf0000000000000000000000000000000000000000000000000000000000000000000000000000000000000000000000000000000000000000000000000000000a00000000000000000000000000000000000000000000000000000000000000000000000000000000000000000000000000000000000000000000000000005460000000000000000000000000000000000000000000000000000000000000000449362149e000000000000000000000000beef050a7485865a7a8d8ca0cc5f7536b7a3443e0000000000000000000000003bf2b1e1da1bd2c3d397e9df06b7f717c2f12ad700000000000000000000000000000000000000000000000000000000",
          "blockHash": "0x479676b8892e8510267abb3356f4400e3dcfcb757c17856c68b086a0ded43cd9",
          "blockNumber": "0x2da03d3",
          "blockTimestamp": "0x6a3e6489",
          "transactionHash": "0x875ee50fa16ce6e14f141fbe095d5db15382f9f36ba239cd76a4860c60066b8f",
          "transactionIndex": "0x3d",
          "logIndex": "0xab",
          "removed": false
        },
        {
          "address": "0x8e074b7636f6a56097f1f719e708e2c932e23bab",
          "topics": [
            "0x20fda5fd27a1ea7bf5b9567f143ac5470bb059374a27e8f67cb44f946f6d0387",
            "0xdabcef3e0bf89bef0437fa73268be89a90c8747c630370d957430f612525b846"
          ],
          "data": "0xdd17b8f9750c8beb31a1eb347eecc1d849b09b8c48c45d982a77cc2b0954cb7d",
          "blockHash": "0x479676b8892e8510267abb3356f4400e3dcfcb757c17856c68b086a0ded43cd9",
          "blockNumber": "0x2da03d3",
          "blockTimestamp": "0x6a3e6489",
          "transactionHash": "0x875ee50fa16ce6e14f141fbe095d5db15382f9f36ba239cd76a4860c60066b8f",
          "transactionIndex": "0x3d",
          "logIndex": "0xac",
          "removed": false
        }
      ],
      "logsBloom": "0x00000000000000000000000040000000000000000000000000000000000000000000000000001000000000000000000100000000801000000000000000000000000000000000000000000000000000000000000000000008000000000000000000000000020000000000000000000800000080000000000000000000000000000000000000000000000000000000000000000000000000000000000000000000000000001000000000000000000000000000000000000000000020000000000000000010000000000000000000000000000000000000400000000000000020000000000000000000000000000000000000000000000000000000000000800000",
      "transactionHash": "0x875ee50fa16ce6e14f141fbe095d5db15382f9f36ba239cd76a4860c60066b8f",
      "transactionIndex": "0x3d",
      "blockHash": "0x479676b8892e8510267abb3356f4400e3dcfcb757c17856c68b086a0ded43cd9",
      "blockNumber": "0x2da03d3",
      "gasUsed": "0xde12",
      "effectiveGasPrice": "0x570d27",
      "blobGasUsed": "0x677c",
      "from": "0xd6768630e0b26eba52d52e75a5d21989aa750113",
      "to": "0x8e074b7636f6a56097f1f719e708e2c932e23bab",
      "contractAddress": null,
      "l1GasPrice": "0x6446a3b",
      "l1GasUsed": "0xb31",
      "l1Fee": "0x68186f35",
      "l1BaseFeeScalar": "0x8dd",
      "l1BlobBaseFee": "0x55c5ae",
      "l1BlobBaseFeeScalar": "0x101c12",
      "daFootprintGasScalar": "0x94"
    }
  ],
  "libraries": [],
  "pending": [],
  "returns": {},
  "timestamp": 1782473867551,
  "chain": 8453,
  "commit": "de5ca46"
}