{
  "transactions": [
    {
      "hash": "0xde106b813bcafec216dca3f4b91451512667d86cbc61e4e33be2007b22b5a51d",
      "transactionType": "CALL",
      "contractName": "YieldSeekerAdminTimelock",
      "contractAddress": "0x869f8d6e8d05ec1fdeab1d5d8d67f3d224da7571",
      "function": "schedule(address,uint256,bytes,bytes32,bytes32,uint256)",
      "arguments": [
        "0xc5Cb6d1c588C5bfeBd23B817Ce33D9d380e50c00",
        "0",
        "0xc70d5398000000000000000000000000e74c499fa461af1844fca84204490877787ced560000000000000000000000007c4fc12b49ecd94397c2801682dff26193d3281e",
        "0x0000000000000000000000000000000000000000000000000000000000000000",
        "0xcc7229ebc6407cd9bbdfbb50fe3f5ac3ff46434fd5e4f14d5440a068f0a839b0",
        "0"
      ],
      "transaction": {
        "from": "0xce11d6fb4f1e006e5a348230449dc387fde850cc",
        "to": "0x869f8d6e8d05ec1fdeab1d5d8d67f3d224da7571",
        "gas": "0x13289",
        "value": "0x0",
        "input": "0x01d5062a000000000000000000000000c5cb6d1c588c5bfebd23b817ce33d9d380e50c00000000000000000000000000000000000000000000000000000000000000000000000000000000000000000000000000000000000000000000000000000000c00000000000000000000000000000000000000000000000000000000000000000cc7229ebc6407cd9bbdfbb50fe3f5ac3ff46434fd5e4f14d5440a068f0a839b000000000000000000000000000000000000000000000000000000000000000000000000000000000000000000000000000000000000000000000000000000044c70d5398000000000000000000000000e74c499fa461af1844fca84204490877787ced560000000000000000000000007c4fc12b49ecd94397c2801682dff26193d3281e00000000000000000000000000000000000000000000000000000000",
        "nonce": "0x5e",
        "chainId": "0x2105"
      },
      "additionalContracts": [],
      "isFixedGasLimit": false
    },
    {
      "hash": "0x208e74541faa91450c86a29170594226580a0a43e56331e5f3abebe60d2fafd2",
      "transactionType": "CALL",
      "contractName": "YieldSeekerAdminTimelock",
      "contractAddress": "0x869f8d6e8d05ec1fdeab1d5d8d67f3d224da7571",
      "function": "execute(address,uint256,bytes,bytes32,bytes32)",
      "arguments": [
        "0xc5Cb6d1c588C5bfeBd23B817Ce33D9d380e50c00",
        "0",
        "0xc70d5398000000000000000000000000e74c499fa461af1844fca84204490877787ced560000000000000000000000007c4fc12b49ecd94397c2801682dff26193d3281e",
        "0x0000000000000000000000000000000000000000000000000000000000000000",
        "0xcc7229ebc6407cd9bbdfbb50fe3f5ac3ff46434fd5e4f14d5440a068f0a839b0"
      ],
      "transaction": {
        "from": "0xce11d6fb4f1e006e5a348230449dc387fde850cc",
        "to": "0x869f8d6e8d05ec1fdeab1d5d8d67f3d224da7571",
        "gas": "0x12610",
        "value": "0x0",
        "input": "0x134008d3000000000000000000000000c5cb6d1c588c5bfebd23b817ce33d9d380e50c00000000000000000000000000000000000000000000000000000000000000000000000000000000000000000000000000000000000000000000000000000000a00000000000000000000000000000000000000000000000000000000000000000cc7229ebc6407cd9bbdfbb50fe3f5ac3ff46434fd5e4f14d5440a068f0a839b00000000000000000000000000000000000000000000000000000000000000044c70d5398000000000000000000000000e74c499fa461af1844fca84204490877787ced560000000000000000000000007c4fc12b49ecd94397c2801682dff26193d3281e00000000000000000000000000000000000000000000000000000000",
        "nonce": "0x5f",
        "chainId": "0x2105"
      },
      "additionalContracts": [],
      "isFixedGasLimit": false
    }
  ],
  "receipts": [
    {
      "status": "0x1",
      "cumulativeGasUsed": "0x2126058",
      "logs": [
        {
          "address": "0x869f8d6e8d05ec1fdeab1d5d8d67f3d224da7571",
          "topics": [
            "0x4cf4410cc57040e44862ef0f45f3dd5a5e02db8eb8add648d4b0e236f1d07dca",
            "0x72670fd5cee8d75a9c8857e02aed65d831b15e39992064b5b79cc94210f7724e",
            "0x0000000000000000000000000000000000000000000000000000000000000000"
          ],
          "data": "0x000000000000000000000000c5cb6d1c588c5bfebd23b817ce33d9d380e50c00000000000000000000000000000000000000000000000000000000000000000000000000000000000000000000000000000000000000000000000000000000a0000000000000000000000000000000000000000000000000000000000000000000000000000000000000000000000000000000000000000000000000000000000000000000000000000000000000000000000000000000000000000000000044c70d5398000000000000000000000000e74c499fa461af1844fca84204490877787ced560000000000000000000000007c4fc12b49ecd94397c2801682dff26193d3281e00000000000000000000000000000000000000000000000000000000",
          "blockHash": "0x92ccc15a9d53322cb5945e1e356252bc2c442580618f4a778e6acf8720701a04",
          "blockNumber": "0x25cd4c2",
          "blockTimestamp": "0x69440667",
          "transactionHash": "0x208e74541faa91450c86a29170594226580a0a43e56331e5f3abebe60d2fafd2",
          "transactionIndex": "0x7a",
          "logIndex": "0x2e6",
          "removed": false
        },
        {
          "address": "0x869f8d6e8d05ec1fdeab1d5d8d67f3d224da7571",
          "topics": [
            "0x20fda5fd27a1ea7bf5b9567f143ac5470bb059374a27e8f67cb44f946f6d0387",
            "0x72670fd5cee8d75a9c8857e02aed65d831b15e39992064b5b79cc94210f7724e"
          ],
          "data": "0xcc7229ebc6407cd9bbdfbb50fe3f5ac3ff46434fd5e4f14d5440a068f0a839b0",
          "blockHash": "0x92ccc15a9d53322cb5945e1e356252bc2c442580618f4a778e6acf8720701a04",
          "blockNumber": "0x25cd4c2",
          "blockTimestamp": "0x69440667",
          "transactionHash": "0x208e74541faa91450c86a29170594226580a0a43e56331e5f3abebe60d2fafd2",
          "transactionIndex": "0x7a",
          "logIndex": "0x2e7",
          "removed": false
        }
      ],
      "logsBloom": "0x00000000000000000000000040000000000000000000000000000000000000000000000000000000000000000000000100000000800000000000000000000000000000000000000000000000000000000080000000000008000000000000000000000000020000000000000000020800000080000000000000000000000000000000000000000000000000000000000000000000000002000000000000000200000000000000000000000000000000000000000000000000000000000000000000000000800000000000000000000000000000000000440000000000000020000000000000000000000000000000000000000000000000000000000000000000",
      "type": "0x2",
      "transactionHash": "0x208e74541faa91450c86a29170594226580a0a43e56331e5f3abebe60d2fafd2",
      "transactionIndex": "0x7a",
      "blockHash": "0x92ccc15a9d53322cb5945e1e356252bc2c442580618f4a778e6acf8720701a04",
      "blockNumber": "0x25cd4c2",
      "gasUsed": "0xddee",
      "effectiveGasPrice": "0xb3fa43",
      "blobGasUsed": "0xd1a0",
      "from": "0xce11d6fb4f1e006e5a348230449dc387fde850cc",
      "to": "0x869f8d6e8d05ec1fdeab1d5d8d67f3d224da7571",
      "contractAddress": null,
      "daFootprintGasScalar": "0x138",
      "l1BaseFeeScalar": "0x8dd",
      "l1BlobBaseFee": "0xb8db76",
      "l1BlobBaseFeeScalar": "0x101c12",
      "l1Fee": "0xd687d8fa",
      "l1GasPrice": "0xd473486",
      "l1GasUsed": "0xac6"
    },
    {
      "status": "0x1",
      "cumulativeGasUsed": "0x213353e",
      "logs": [
        {
          "address": "0xc5cb6d1c588c5bfebd23b817ce33d9d380e50c00",
          "topics": [
            "0x95acdd767bfb2c6578833b7678c4dcc015f00b35820877f64a39080989262801",
            "0x000000000000000000000000e74c499fa461af1844fca84204490877787ced56",
            "0x0000000000000000000000008730f9e76fd4b4a84b203ffdbc289101056b345c"
          ],
          "data": "0x",
          "blockHash": "0x92ccc15a9d53322cb5945e1e356252bc2c442580618f4a778e6acf8720701a04",
          "blockNumber": "0x25cd4c2",
          "blockTimestamp": "0x69440667",
          "transactionHash": "0xde106b813bcafec216dca3f4b91451512667d86cbc61e4e33be2007b22b5a51d",
          "transactionIndex": "0x7b",
          "logIndex": "0x2e8",
          "removed": false
        },
        {
          "address": "0xc5cb6d1c588c5bfebd23b817ce33d9d380e50c00",
          "topics": [
            "0x1cf35c87329e14a81fdc68af8a463c1db203ccfc925ff5150f5dbc71bc4c2372",
            "0x000000000000000000000000e74c499fa461af1844fca84204490877787ced56",
            "0x0000000000000000000000007c4fc12b49ecd94397c2801682dff26193d3281e"
          ],
          "data": "0x",
          "blockHash": "0x92ccc15a9d53322cb5945e1e356252bc2c442580618f4a778e6acf8720701a04",
          "blockNumber": "0x25cd4c2",
          "blockTimestamp": "0x69440667",
          "transactionHash": "0xde106b813bcafec216dca3f4b91451512667d86cbc61e4e33be2007b22b5a51d",
          "transactionIndex": "0x7b",
          "logIndex": "0x2e9",
          "removed": false
        },
        {
          "address": "0x869f8d6e8d05ec1fdeab1d5d8d67f3d224da7571",
          "topics": [
            "0xc2617efa69bab66782fa219543714338489c4e9e178271560a91b82c3f612b58",
            "0x72670fd5cee8d75a9c8857e02aed65d831b15e39992064b5b79cc94210f7724e",
            "0x0000000000000000000000000000000000000000000000000000000000000000"
          ],
          "data": "0x000000000000000000000000c5cb6d1c588c5bfebd23b817ce33d9d380e50c00000000000000000000000000000000000000000000000000000000000000000000000000000000000000000000000000000000000000000000000000000000600000000000000000000000000000000000000000000000000000000000000044c70d5398000000000000000000000000e74c499fa461af1844fca84204490877787ced560000000000000000000000007c4fc12b49ecd94397c2801682dff26193d3281e00000000000000000000000000000000000000000000000000000000",
          "blockHash": "0x92ccc15a9d53322cb5945e1e356252bc2c442580618f4a778e6acf8720701a04",
          "blockNumber": "0x25cd4c2",
          "blockTimestamp": "0x69440667",
          "transactionHash": "0xde106b813bcafec216dca3f4b91451512667d86cbc61e4e33be2007b22b5a51d",
          "transactionIndex": "0x7b",
          "logIndex": "0x2ea",
          "removed": false
        }
      ],
      "logsBloom": "0x0000000000000000000000000000000000c000000000000000000001000000000000200000000000000000000000000000000000000800000202000000000000000000000000000000000000000000000080000000000000000000000000002400040000020000000000000000020800000000000000000000020000000000000000008000000000000000000000000000000000000002000400001000000200000000000000000000000000800000000000000000000000000000002000000000000000800080080000000000010000000000000000040000000000000020000000020000000000000000000000000000000000000000000000000040000000",
      "type": "0x2",
      "transactionHash": "0xde106b813bcafec216dca3f4b91451512667d86cbc61e4e33be2007b22b5a51d",
      "transactionIndex": "0x7b",
      "blockHash": "0x92ccc15a9d53322cb5945e1e356252bc2c442580618f4a778e6acf8720701a04",
      "blockNumber": "0x25cd4c2",
      "gasUsed": "0xd4e6",
      "effectiveGasPrice": "0xb3fa43",
      "blobGasUsed": "0xcdf8",
      "from": "0xce11d6fb4f1e006e5a348230449dc387fde850cc",
      "to": "0x869f8d6e8d05ec1fdeab1d5d8d67f3d224da7571",
      "contractAddress": null,
      "daFootprintGasScalar": "0x138",
      "l1BaseFeeScalar": "0x8dd",
      "l1BlobBaseFee": "0xb8db76",
      "l1BlobBaseFeeScalar": "0x101c12",
      "l1Fee": "0xd3686566",
      "l1GasPrice": "0xd473486",
      "l1GasUsed": "0xa9e"
    }
  ],
  "libraries": [],
  "pending": [],
  "returns": {},
  "timestamp": 1766065770864,
  "chain": 8453,
  "commit": "9437124"
}