{
  "transactions": [
    {
      "hash": "0x70e023d698e2859205c4fdb2f9b1fe08ab5ee5a653c3f209d488bb69859ad273",
      "transactionType": "CALL",
      "contractName": null,
      "contractAddress": "0x8e074b7636f6a56097f1f719e708e2c932e23bab",
      "function": "schedule(address,uint256,bytes,bytes32,bytes32,uint256)",
      "arguments": [
        "0x4A5c3Cca0Ac2a1949D600891A89dd19B35189Cf0",
        "0",
        "0x9362149e000000000000000000000000543257ef2161176d7c8cd90ba65c2d4caef5a7960000000000000000000000003bf2b1e1da1bd2c3d397e9df06b7f717c2f12ad7",
        "0x0000000000000000000000000000000000000000000000000000000000000000",
        "0x236c4d4182faa245edf89375a7222739ecf02c21d4947dd154cdbb4847b28516",
        "345600"
      ],
      "transaction": {
        "from": "0xd6768630e0b26eba52d52e75a5d21989aa750113",
        "to": "0x8e074b7636f6a56097f1f719e708e2c932e23bab",
        "gas": "0x144c6",
        "value": "0x0",
        "input": "0x01d5062a0000000000000000000000004a5c3cca0ac2a1949d600891a89dd19b35189cf0000000000000000000000000000000000000000000000000000000000000000000000000000000000000000000000000000000000000000000000000000000c00000000000000000000000000000000000000000000000000000000000000000236c4d4182faa245edf89375a7222739ecf02c21d4947dd154cdbb4847b28516000000000000000000000000000000000000000000000000000000000005460000000000000000000000000000000000000000000000000000000000000000449362149e000000000000000000000000543257ef2161176d7c8cd90ba65c2d4caef5a7960000000000000000000000003bf2b1e1da1bd2c3d397e9df06b7f717c2f12ad700000000000000000000000000000000000000000000000000000000",
        "nonce": "0x18",
        "chainId": "0x2105"
      },
      "additionalContracts": [],
      "isFixedGasLimit": false
    }
  ],
  "receipts": [
    {
      "type": "0x2",
      "status": "0x1",
      "cumulativeGasUsed": "0x36a28a",
      "logs": [
        {
          "address": "0x8e074b7636f6a56097f1f719e708e2c932e23bab",
          "topics": [
            "0x4cf4410cc57040e44862ef0f45f3dd5a5e02db8eb8add648d4b0e236f1d07dca",
            "0x7c6d0a11d5faa6df68c2eb0b3e21d9abff0ca2c1e3886cfbd1e0302547a64dd5",
            "0x0000000000000000000000000000000000000000000000000000000000000000"
          ],
          "data": "0x0000000000000000000000004a5c3cca0ac2a1949d600891a89dd19b35189cf0000000000000000000000000000000000000000000000000000000000000000000000000000000000000000000000000000000000000000000000000000000a00000000000000000000000000000000000000000000000000000000000000000000000000000000000000000000000000000000000000000000000000005460000000000000000000000000000000000000000000000000000000000000000449362149e000000000000000000000000543257ef2161176d7c8cd90ba65c2d4caef5a7960000000000000000000000003bf2b1e1da1bd2c3d397e9df06b7f717c2f12ad700000000000000000000000000000000000000000000000000000000",
          "blockHash": "0xbafa4b278fd9448d57e97297fe40851d167273c01ec742b5fcf85b7cfa47fa0f",
          "blockNumber": "0x2da03f6",
          "blockTimestamp": "0x6a3e64cf",
          "transactionHash": "0x70e023d698e2859205c4fdb2f9b1fe08ab5ee5a653c3f209d488bb69859ad273",
          "transactionIndex": "0x1c",
          "logIndex": "0x4b",
          "removed": false
        },
        {
          "address": "0x8e074b7636f6a56097f1f719e708e2c932e23bab",
          "topics": [
            "0x20fda5fd27a1ea7bf5b9567f143ac5470bb059374a27e8f67cb44f946f6d0387",
            "0x7c6d0a11d5faa6df68c2eb0b3e21d9abff0ca2c1e3886cfbd1e0302547a64dd5"
          ],
          "data": "0x236c4d4182faa245edf89375a7222739ecf02c21d4947dd154cdbb4847b28516",
          "blockHash": "0xbafa4b278fd9448d57e97297fe40851d167273c01ec742b5fcf85b7cfa47fa0f",
          "blockNumber": "0x2da03f6",
          "blockTimestamp": "0x6a3e64cf",
          "transactionHash": "0x70e023d698e2859205c4fdb2f9b1fe08ab5ee5a653c3f209d488bb69859ad273",
          "transactionIndex": "0x1c",
          "logIndex": "0x4c",
          "removed": false
        }
      ],
      "logsBloom": "0x00000000000000004000000040000000000000000100000000000000000000000000000000001000000000000000000100000000800000000000000000000000000000000000000000000000000000000000000000000008000000000000000000000000020000000000000000000800000080000000000000000000000000000000000000000000000000000000000000000000000000000000000000000000000000000000000000000000000000800000000000000000000000000000000000000010000000000000000000000000000000000000400000000000000020000000000000000000000000000000000000000000000000000000000000800000",
      "transactionHash": "0x70e023d698e2859205c4fdb2f9b1fe08ab5ee5a653c3f209d488bb69859ad273",
      "transactionIndex": "0x1c",
      "blockHash": "0xbafa4b278fd9448d57e97297fe40851d167273c01ec742b5fcf85b7cfa47fa0f",
      "blockNumber": "0x2da03f6",
      "gasUsed": "0xde12",
      "effectiveGasPrice": "0x57bcf0",
      "blobGasUsed": "0x677c",
      "from": "0xd6768630e0b26eba52d52e75a5d21989aa750113",
      "to": "0x8e074b7636f6a56097f1f719e708e2c932e23bab",
      "contractAddress": null,
      "l1GasPrice": "0x61013a0",
      "l1GasUsed": "0xb31",
      "l1Fee": "0x6d7ee3b7",
      "l1BaseFeeScalar": "0x8dd",
      "l1BlobBaseFee": "0x5ee238",
      "l1BlobBaseFeeScalar": "0x101c12",
      "daFootprintGasScalar": "0x94"
    }
  ],
  "libraries": [],
  "pending": [],
  "returns": {},
  "timestamp": 1782473937219,
  "chain": 8453,
  "commit": "de5ca46"
}