{
  "transactions": [
    {
      "hash": "0x84a5bd58ca4dabbe8f1a2acdf8ad372dd869335acbc3ee287640c51521e32eef",
      "transactionType": "CALL",
      "contractName": "YieldSeekerAdminTimelock",
      "contractAddress": "0xec88da9d5e3efd3cee14760d75a4146459076c09",
      "function": "schedule(address,uint256,bytes,bytes32,bytes32,uint256)",
      "arguments": [
        "0x7c4750c562A75aC6a9e42C17dE3Af8956f5B87Ad",
        "0",
        "0x9362149e000000000000000000000000e74c499fa461af1844fca84204490877787ced560000000000000000000000004120cb3267f1ee83534e119c1a0b459a072860c3",
        "0x0000000000000000000000000000000000000000000000000000000000000000",
        "0x78d86462906614dec69d5d2b920479a8bc04245b880937262d69201ea0920eba",
        "0"
      ],
      "transaction": {
        "from": "0xce11d6fb4f1e006e5a348230449dc387fde850cc",
        "to": "0xec88da9d5e3efd3cee14760d75a4146459076c09",
        "gas": "0x144a3",
        "value": "0x0",
        "input": "0x01d5062a0000000000000000000000007c4750c562a75ac6a9e42c17de3af8956f5b87ad000000000000000000000000000000000000000000000000000000000000000000000000000000000000000000000000000000000000000000000000000000c0000000000000000000000000000000000000000000000000000000000000000078d86462906614dec69d5d2b920479a8bc04245b880937262d69201ea0920eba000000000000000000000000000000000000000000000000000000000000000000000000000000000000000000000000000000000000000000000000000000449362149e000000000000000000000000e74c499fa461af1844fca84204490877787ced560000000000000000000000004120cb3267f1ee83534e119c1a0b459a072860c300000000000000000000000000000000000000000000000000000000",
        "nonce": "0x6b",
        "chainId": "0x2105"
      },
      "additionalContracts": [],
      "isFixedGasLimit": false
    },
    {
      "hash": "0x574f8fd48f7ba8758003a7782ed9fa8b90ef9ca9f9d75dbeb560b27039978450",
      "transactionType": "CALL",
      "contractName": "YieldSeekerAdminTimelock",
      "contractAddress": "0xec88da9d5e3efd3cee14760d75a4146459076c09",
      "function": "execute(address,uint256,bytes,bytes32,bytes32)",
      "arguments": [
        "0x7c4750c562A75aC6a9e42C17dE3Af8956f5B87Ad",
        "0",
        "0x9362149e000000000000000000000000e74c499fa461af1844fca84204490877787ced560000000000000000000000004120cb3267f1ee83534e119c1a0b459a072860c3",
        "0x0000000000000000000000000000000000000000000000000000000000000000",
        "0x78d86462906614dec69d5d2b920479a8bc04245b880937262d69201ea0920eba"
      ],
      "transaction": {
        "from": "0xce11d6fb4f1e006e5a348230449dc387fde850cc",
        "to": "0xec88da9d5e3efd3cee14760d75a4146459076c09",
        "gas": "0x30eff",
        "value": "0x0",
        "input": "0x134008d30000000000000000000000007c4750c562a75ac6a9e42c17de3af8956f5b87ad000000000000000000000000000000000000000000000000000000000000000000000000000000000000000000000000000000000000000000000000000000a0000000000000000000000000000000000000000000000000000000000000000078d86462906614dec69d5d2b920479a8bc04245b880937262d69201ea0920eba00000000000000000000000000000000000000000000000000000000000000449362149e000000000000000000000000e74c499fa461af1844fca84204490877787ced560000000000000000000000004120cb3267f1ee83534e119c1a0b459a072860c300000000000000000000000000000000000000000000000000000000",
        "nonce": "0x6c",
        "chainId": "0x2105"
      },
      "additionalContracts": [],
      "isFixedGasLimit": false
    }
  ],
  "receipts": [
    {
      "status": "0x1",
      "cumulativeGasUsed": "0xf90f14",
      "logs": [
        {
          "address": "0xec88da9d5e3efd3cee14760d75a4146459076c09",
          "topics": [
            "0x4cf4410cc57040e44862ef0f45f3dd5a5e02db8eb8add648d4b0e236f1d07dca",
            "0xfc32372d3ee582e863bf5ff57d5ee31dc50b3f4292bf468a11c102c1268a7907",
            "0x0000000000000000000000000000000000000000000000000000000000000000"
          ],
          "data": "0x0000000000000000000000007c4750c562a75ac6a9e42c17de3af8956f5b87ad000000000000000000000000000000000000000000000000000000000000000000000000000000000000000000000000000000000000000000000000000000a00000000000000000000000000000000000000000000000000000000000000000000000000000000000000000000000000000000000000000000000000000000000000000000000000000000000000000000000000000000000000000000000449362149e000000000000000000000000e74c499fa461af1844fca84204490877787ced560000000000000000000000004120cb3267f1ee83534e119c1a0b459a072860c300000000000000000000000000000000000000000000000000000000",
          "blockHash": "0x59d2d4e3cf0e1a5badd3b01714a7ca4ecd13ee242fb68b18dc56a46f64452f07",
          "blockNumber": "0x260a5d2",
          "blockTimestamp": "0x694ba887",
          "transactionHash": "0x84a5bd58ca4dabbe8f1a2acdf8ad372dd869335acbc3ee287640c51521e32eef",
          "transactionIndex": "0x55",
          "logIndex": "0x1d7",
          "removed": false
        },
        {
          "address": "0xec88da9d5e3efd3cee14760d75a4146459076c09",
          "topics": [
            "0x20fda5fd27a1ea7bf5b9567f143ac5470bb059374a27e8f67cb44f946f6d0387",
            "0xfc32372d3ee582e863bf5ff57d5ee31dc50b3f4292bf468a11c102c1268a7907"
          ],
          "data": "0x78d86462906614dec69d5d2b920479a8bc04245b880937262d69201ea0920eba",
          "blockHash": "0x59d2d4e3cf0e1a5badd3b01714a7ca4ecd13ee242fb68b18dc56a46f64452f07",
          "blockNumber": "0x260a5d2",
          "blockTimestamp": "0x694ba887",
          "transactionHash": "0x84a5bd58ca4dabbe8f1a2acdf8ad372dd869335acbc3ee287640c51521e32eef",
          "transactionIndex": "0x55",
          "logIndex": "0x1d8",
          "removed": false
        }
      ],
      "logsBloom": "0x00000000000000000000000040000000000000000000000000040000000000000000000000000000000000000000000100000000800000000000000000000000000000000000000000000000000000000000000000000008000000000000008000000000020000000000000001000800000080000000000000000000000000000000001000000000004000000200000000000000000000000000000000000000000000000000000000000000000000000000000000000000000000000000000000000000000000000000000000000000000000000000400000000000000020000000000000000000000000000000000000000000000000000000000000000000",
      "type": "0x2",
      "transactionHash": "0x84a5bd58ca4dabbe8f1a2acdf8ad372dd869335acbc3ee287640c51521e32eef",
      "transactionIndex": "0x55",
      "blockHash": "0x59d2d4e3cf0e1a5badd3b01714a7ca4ecd13ee242fb68b18dc56a46f64452f07",
      "blockNumber": "0x260a5d2",
      "gasUsed": "0xddfa",
      "effectiveGasPrice": "0xd63bc",
      "blobGasUsed": "0xda5c",
      "from": "0xce11d6fb4f1e006e5a348230449dc387fde850cc",
      "to": "0xec88da9d5e3efd3cee14760d75a4146459076c09",
      "contractAddress": null,
      "daFootprintGasScalar": "0x145",
      "l1BaseFeeScalar": "0x8dd",
      "l1BlobBaseFee": "0x187bb7",
      "l1BlobBaseFeeScalar": "0x101c12",
      "l1Fee": "0x1ba020db",
      "l1GasPrice": "0x1a1fadc",
      "l1GasUsed": "0xac6"
    },
    {
      "status": "0x1",
      "cumulativeGasUsed": "0xfb2676",
      "logs": [
        {
          "address": "0x7c4750c562a75ac6a9e42c17de3af8956f5b87ad",
          "topics": [
            "0x1cf35c87329e14a81fdc68af8a463c1db203ccfc925ff5150f5dbc71bc4c2372",
            "0x000000000000000000000000e74c499fa461af1844fca84204490877787ced56",
            "0x0000000000000000000000004120cb3267f1ee83534e119c1a0b459a072860c3"
          ],
          "data": "0x",
          "blockHash": "0x59d2d4e3cf0e1a5badd3b01714a7ca4ecd13ee242fb68b18dc56a46f64452f07",
          "blockNumber": "0x260a5d2",
          "blockTimestamp": "0x694ba887",
          "transactionHash": "0x574f8fd48f7ba8758003a7782ed9fa8b90ef9ca9f9d75dbeb560b27039978450",
          "transactionIndex": "0x56",
          "logIndex": "0x1d9",
          "removed": false
        },
        {
          "address": "0xec88da9d5e3efd3cee14760d75a4146459076c09",
          "topics": [
            "0xc2617efa69bab66782fa219543714338489c4e9e178271560a91b82c3f612b58",
            "0xfc32372d3ee582e863bf5ff57d5ee31dc50b3f4292bf468a11c102c1268a7907",
            "0x0000000000000000000000000000000000000000000000000000000000000000"
          ],
          "data": "0x0000000000000000000000007c4750c562a75ac6a9e42c17de3af8956f5b87ad0000000000000000000000000000000000000000000000000000000000000000000000000000000000000000000000000000000000000000000000000000006000000000000000000000000000000000000000000000000000000000000000449362149e000000000000000000000000e74c499fa461af1844fca84204490877787ced560000000000000000000000004120cb3267f1ee83534e119c1a0b459a072860c300000000000000000000000000000000000000000000000000000000",
          "blockHash": "0x59d2d4e3cf0e1a5badd3b01714a7ca4ecd13ee242fb68b18dc56a46f64452f07",
          "blockNumber": "0x260a5d2",
          "blockTimestamp": "0x694ba887",
          "transactionHash": "0x574f8fd48f7ba8758003a7782ed9fa8b90ef9ca9f9d75dbeb560b27039978450",
          "transactionIndex": "0x56",
          "logIndex": "0x1da",
          "removed": false
        }
      ],
      "logsBloom": "0x0000000000020000000000000000000000800000000000000004000000000000000000000000000000000000000000000000000000080000020000000000000000000000000000000080000000000000000000000000000000000000000000a000000000020000000000008001000800000008000000000000000000000000000000009000000000004000000200000000000000000000000000001000000000000000000000000000800000800000000000000000000000000000002000000000000000000000080000004000000000000000000000000000000000000020000000000000000000000000000000000000000000000000000000000000000000",
      "type": "0x2",
      "transactionHash": "0x574f8fd48f7ba8758003a7782ed9fa8b90ef9ca9f9d75dbeb560b27039978450",
      "transactionIndex": "0x56",
      "blockHash": "0x59d2d4e3cf0e1a5badd3b01714a7ca4ecd13ee242fb68b18dc56a46f64452f07",
      "blockNumber": "0x260a5d2",
      "gasUsed": "0x21762",
      "effectiveGasPrice": "0xd63bc",
      "blobGasUsed": "0xd68d",
      "from": "0xce11d6fb4f1e006e5a348230449dc387fde850cc",
      "to": "0xec88da9d5e3efd3cee14760d75a4146459076c09",
      "contractAddress": null,
      "daFootprintGasScalar": "0x145",
      "l1BaseFeeScalar": "0x8dd",
      "l1BlobBaseFee": "0x187bb7",
      "l1BlobBaseFeeScalar": "0x101c12",
      "l1Fee": "0x1b392e78",
      "l1GasPrice": "0x1a1fadc",
      "l1GasUsed": "0xa9e"
    }
  ],
  "libraries": [],
  "pending": [],
  "returns": {},
  "timestamp": 1766566027075,
  "chain": 8453,
  "commit": "31a7469"
}