{
  "transactions": [
    {
      "hash": "0x541f4b50c56074234843eed2efdc39bebf00a8ad8a235c3af246cad0e428debc",
      "transactionType": "CALL",
      "contractName": null,
      "contractAddress": "0x8e074b7636f6a56097f1f719e708e2c932e23bab",
      "function": "schedule(address,uint256,bytes,bytes32,bytes32,uint256)",
      "arguments": [
        "0x4A5c3Cca0Ac2a1949D600891A89dd19B35189Cf0",
        "0",
        "0x9362149e0000000000000000000000008773447e6369472d9b72f064ea62e405216e90840000000000000000000000003bf2b1e1da1bd2c3d397e9df06b7f717c2f12ad7",
        "0x7ac5d88a13cd2acf506ab335af9f46af373b9527f040efc590ac456670847bff",
        "0x60d9208f2a9d77c7fe207f799c00a37fd2647f02f2eb6b6d9116c27a8b7179d0",
        "345600"
      ],
      "transaction": {
        "from": "0xf8cbf6437d2473ec59885299af38d9a13ce97eca",
        "to": "0x8e074b7636f6a56097f1f719e708e2c932e23bab",
        "gas": "0x134bd",
        "value": "0x0",
        "input": "0x01d5062a0000000000000000000000004a5c3cca0ac2a1949d600891a89dd19b35189cf0000000000000000000000000000000000000000000000000000000000000000000000000000000000000000000000000000000000000000000000000000000c07ac5d88a13cd2acf506ab335af9f46af373b9527f040efc590ac456670847bff60d9208f2a9d77c7fe207f799c00a37fd2647f02f2eb6b6d9116c27a8b7179d0000000000000000000000000000000000000000000000000000000000005460000000000000000000000000000000000000000000000000000000000000000449362149e0000000000000000000000008773447e6369472d9b72f064ea62e405216e90840000000000000000000000003bf2b1e1da1bd2c3d397e9df06b7f717c2f12ad700000000000000000000000000000000000000000000000000000000",
        "nonce": "0x69",
        "chainId": "0x2105"
      },
      "additionalContracts": [],
      "isFixedGasLimit": false
    }
  ],
  "receipts": [
    {
      "status": "0x1",
      "cumulativeGasUsed": "0x13c7374",
      "logs": [
        {
          "address": "0x8e074b7636f6a56097f1f719e708e2c932e23bab",
          "topics": [
            "0x4cf4410cc57040e44862ef0f45f3dd5a5e02db8eb8add648d4b0e236f1d07dca",
            "0xbba1bf00e5f145d3b0eff58c78ac7619429ada6574d9693f87338d5452e5d464",
            "0x0000000000000000000000000000000000000000000000000000000000000000"
          ],
          "data": "0x0000000000000000000000004a5c3cca0ac2a1949d600891a89dd19b35189cf0000000000000000000000000000000000000000000000000000000000000000000000000000000000000000000000000000000000000000000000000000000a07ac5d88a13cd2acf506ab335af9f46af373b9527f040efc590ac456670847bff000000000000000000000000000000000000000000000000000000000005460000000000000000000000000000000000000000000000000000000000000000449362149e0000000000000000000000008773447e6369472d9b72f064ea62e405216e90840000000000000000000000003bf2b1e1da1bd2c3d397e9df06b7f717c2f12ad700000000000000000000000000000000000000000000000000000000",
          "blockHash": "0xb40f07f1bce7737aae7476c63b9fa9b57d19602b936239ffe18e689432d3dafd",
          "blockNumber": "0x296ec7a",
          "blockTimestamp": "0x69b835d7",
          "transactionHash": "0x541f4b50c56074234843eed2efdc39bebf00a8ad8a235c3af246cad0e428debc",
          "transactionIndex": "0x3c",
          "logIndex": "0x2a8",
          "removed": false
        },
        {
          "address": "0x8e074b7636f6a56097f1f719e708e2c932e23bab",
          "topics": [
            "0x20fda5fd27a1ea7bf5b9567f143ac5470bb059374a27e8f67cb44f946f6d0387",
            "0xbba1bf00e5f145d3b0eff58c78ac7619429ada6574d9693f87338d5452e5d464"
          ],
          "data": "0x60d9208f2a9d77c7fe207f799c00a37fd2647f02f2eb6b6d9116c27a8b7179d0",
          "blockHash": "0xb40f07f1bce7737aae7476c63b9fa9b57d19602b936239ffe18e689432d3dafd",
          "blockNumber": "0x296ec7a",
          "blockTimestamp": "0x69b835d7",
          "transactionHash": "0x541f4b50c56074234843eed2efdc39bebf00a8ad8a235c3af246cad0e428debc",
          "transactionIndex": "0x3c",
          "logIndex": "0x2a9",
          "removed": false
        }
      ],
      "logsBloom": "0x00000000000000000000000040000000000000000000000000000000000000000000000000001000000000000000000100000000800000000800000000000000000000000000000000000000000000000000000000000008000000000000000000000000020000000000000000000800000080000000000000000000000080000000000000000000000000000000000000000000000000000000000000000000000000000000000000000000000000000000000000000000000000000000000000000010000000000000000000000000000000000000400020000000000020000000000000000000000000000000000000000000000000000000000000800000",
      "type": "0x2",
      "transactionHash": "0x541f4b50c56074234843eed2efdc39bebf00a8ad8a235c3af246cad0e428debc",
      "transactionIndex": "0x3c",
      "blockHash": "0xb40f07f1bce7737aae7476c63b9fa9b57d19602b936239ffe18e689432d3dafd",
      "blockNumber": "0x296ec7a",
      "gasUsed": "0xdf86",
      "effectiveGasPrice": "0x698a8d",
      "blobGasUsed": "0x6ec4",
      "from": "0xf8cbf6437d2473ec59885299af38d9a13ce97eca",
      "to": "0x8e074b7636f6a56097f1f719e708e2c932e23bab",
      "contractAddress": null,
      "daFootprintGasScalar": "0x8b",
      "l1BaseFeeScalar": "0x8dd",
      "l1BlobBaseFee": "0xed0e77",
      "l1BlobBaseFeeScalar": "0x101c12",
      "l1Fee": "0x1346054f1",
      "l1GasPrice": "0xeac1d95",
      "l1GasUsed": "0xcc2"
    }
  ],
  "libraries": [],
  "pending": [],
  "returns": {},
  "timestamp": 1773680090575,
  "chain": 8453,
  "commit": "dee1601"
}