{
  "transactions": [
    {
      "hash": "0xf17b037bc1a7f0b7cf5441d55c6a08149c49b4bcf1fc61265f0e60909f6f9666",
      "transactionType": "CALL",
      "contractName": null,
      "contractAddress": "0x8e074b7636f6a56097f1f719e708e2c932e23bab",
      "function": "schedule(address,uint256,bytes,bytes32,bytes32,uint256)",
      "arguments": [
        "0x4A5c3Cca0Ac2a1949D600891A89dd19B35189Cf0",
        "0",
        "0x9362149e0000000000000000000000001deefabee758aabdc29a542b24ca3b75afd567650000000000000000000000003bf2b1e1da1bd2c3d397e9df06b7f717c2f12ad7",
        "0x0000000000000000000000000000000000000000000000000000000000000000",
        "0x3d62c5c08e57ae4e633ccc319132f81af060e32de288bcc3e6084ad440e42845",
        "345600"
      ],
      "transaction": {
        "from": "0xd6768630e0b26eba52d52e75a5d21989aa750113",
        "to": "0x8e074b7636f6a56097f1f719e708e2c932e23bab",
        "gas": "0x144c6",
        "value": "0x0",
        "input": "0x01d5062a0000000000000000000000004a5c3cca0ac2a1949d600891a89dd19b35189cf0000000000000000000000000000000000000000000000000000000000000000000000000000000000000000000000000000000000000000000000000000000c000000000000000000000000000000000000000000000000000000000000000003d62c5c08e57ae4e633ccc319132f81af060e32de288bcc3e6084ad440e42845000000000000000000000000000000000000000000000000000000000005460000000000000000000000000000000000000000000000000000000000000000449362149e0000000000000000000000001deefabee758aabdc29a542b24ca3b75afd567650000000000000000000000003bf2b1e1da1bd2c3d397e9df06b7f717c2f12ad700000000000000000000000000000000000000000000000000000000",
        "nonce": "0x5",
        "chainId": "0x2105"
      },
      "additionalContracts": [],
      "isFixedGasLimit": false
    }
  ],
  "receipts": [
    {
      "type": "0x2",
      "status": "0x1",
      "cumulativeGasUsed": "0xea695d",
      "logs": [
        {
          "address": "0x8e074b7636f6a56097f1f719e708e2c932e23bab",
          "topics": [
            "0x4cf4410cc57040e44862ef0f45f3dd5a5e02db8eb8add648d4b0e236f1d07dca",
            "0x83ca2e09d8ed83366e13dc58dad69e399d6b463f5d70f9650ea545d25dd6d74d",
            "0x0000000000000000000000000000000000000000000000000000000000000000"
          ],
          "data": "0x0000000000000000000000004a5c3cca0ac2a1949d600891a89dd19b35189cf0000000000000000000000000000000000000000000000000000000000000000000000000000000000000000000000000000000000000000000000000000000a00000000000000000000000000000000000000000000000000000000000000000000000000000000000000000000000000000000000000000000000000005460000000000000000000000000000000000000000000000000000000000000000449362149e0000000000000000000000001deefabee758aabdc29a542b24ca3b75afd567650000000000000000000000003bf2b1e1da1bd2c3d397e9df06b7f717c2f12ad700000000000000000000000000000000000000000000000000000000",
          "blockHash": "0x27c3930c2700cc1581c422d8170d0ee520c6722c00ced0ba5700f9de8ef2abfa",
          "blockNumber": "0x2d8ac2d",
          "blockTimestamp": "0x6a3bb53d",
          "transactionHash": "0xf17b037bc1a7f0b7cf5441d55c6a08149c49b4bcf1fc61265f0e60909f6f9666",
          "transactionIndex": "0x6c",
          "logIndex": "0x347",
          "removed": false
        },
        {
          "address": "0x8e074b7636f6a56097f1f719e708e2c932e23bab",
          "topics": [
            "0x20fda5fd27a1ea7bf5b9567f143ac5470bb059374a27e8f67cb44f946f6d0387",
            "0x83ca2e09d8ed83366e13dc58dad69e399d6b463f5d70f9650ea545d25dd6d74d"
          ],
          "data": "0x3d62c5c08e57ae4e633ccc319132f81af060e32de288bcc3e6084ad440e42845",
          "blockHash": "0x27c3930c2700cc1581c422d8170d0ee520c6722c00ced0ba5700f9de8ef2abfa",
          "blockNumber": "0x2d8ac2d",
          "blockTimestamp": "0x6a3bb53d",
          "transactionHash": "0xf17b037bc1a7f0b7cf5441d55c6a08149c49b4bcf1fc61265f0e60909f6f9666",
          "transactionIndex": "0x6c",
          "logIndex": "0x348",
          "removed": false
        }
      ],
      "logsBloom": "0x00000000000000000000000040000000000000000000000000000000000000000000000000001000000000000000000100000000800000000000000000000000000000000000000000000000000000000000000000000008000000001000000000000000020000000000000000000800000080000000000000000000000000000000000000000000000000000000000000000000000000000000000000000000000000000000000000000000000800000000000000000000000000000000000000000010000000000000000000000000000000000000400000000000000020000000000000000000000000000000000000000000000040000000000000800000",
      "transactionHash": "0xf17b037bc1a7f0b7cf5441d55c6a08149c49b4bcf1fc61265f0e60909f6f9666",
      "transactionIndex": "0x6c",
      "blockHash": "0x27c3930c2700cc1581c422d8170d0ee520c6722c00ced0ba5700f9de8ef2abfa",
      "blockNumber": "0x2d8ac2d",
      "gasUsed": "0xde12",
      "effectiveGasPrice": "0x5b8d80",
      "blobGasUsed": "0x677c",
      "from": "0xd6768630e0b26eba52d52e75a5d21989aa750113",
      "to": "0x8e074b7636f6a56097f1f719e708e2c932e23bab",
      "contractAddress": null,
      "l1GasPrice": "0x9631bdc",
      "l1GasUsed": "0xb31",
      "l1Fee": "0x94c231a0",
      "l1BaseFeeScalar": "0x8dd",
      "l1BlobBaseFee": "0x76c7d2",
      "l1BlobBaseFeeScalar": "0x101c12",
      "daFootprintGasScalar": "0x94"
    }
  ],
  "libraries": [],
  "pending": [],
  "returns": {},
  "timestamp": 1782297919822,
  "chain": 8453,
  "commit": "0e39ed8"
}