{
  "transactions": [
    {
      "hash": "0x91829084db15265d5c4b1d8046394fe7f43ff894c3ee75a885c1ee48ba03f8bc",
      "transactionType": "CALL",
      "contractName": null,
      "contractAddress": "0x8e074b7636f6a56097f1f719e708e2c932e23bab",
      "function": "schedule(address,uint256,bytes,bytes32,bytes32,uint256)",
      "arguments": [
        "0x4A5c3Cca0Ac2a1949D600891A89dd19B35189Cf0",
        "0",
        "0x9362149e000000000000000000000000beef00fc6e87de086a0e29169a2f6e25cf5c11a90000000000000000000000003bf2b1e1da1bd2c3d397e9df06b7f717c2f12ad7",
        "0x0000000000000000000000000000000000000000000000000000000000000000",
        "0xba06ad5b6d6ee13346ed7af73467df4b20de80845c71c6c2af6a4fc568097ccb",
        "345600"
      ],
      "transaction": {
        "from": "0xd6768630e0b26eba52d52e75a5d21989aa750113",
        "to": "0x8e074b7636f6a56097f1f719e708e2c932e23bab",
        "gas": "0x132ab",
        "value": "0x0",
        "input": "0x01d5062a0000000000000000000000004a5c3cca0ac2a1949d600891a89dd19b35189cf0000000000000000000000000000000000000000000000000000000000000000000000000000000000000000000000000000000000000000000000000000000c00000000000000000000000000000000000000000000000000000000000000000ba06ad5b6d6ee13346ed7af73467df4b20de80845c71c6c2af6a4fc568097ccb000000000000000000000000000000000000000000000000000000000005460000000000000000000000000000000000000000000000000000000000000000449362149e000000000000000000000000beef00fc6e87de086a0e29169a2f6e25cf5c11a90000000000000000000000003bf2b1e1da1bd2c3d397e9df06b7f717c2f12ad700000000000000000000000000000000000000000000000000000000",
        "nonce": "0x9",
        "chainId": "0x2105"
      },
      "additionalContracts": [],
      "isFixedGasLimit": false
    }
  ],
  "receipts": [
    {
      "type": "0x2",
      "status": "0x1",
      "cumulativeGasUsed": "0x1263bc6",
      "logs": [
        {
          "address": "0x8e074b7636f6a56097f1f719e708e2c932e23bab",
          "topics": [
            "0x4cf4410cc57040e44862ef0f45f3dd5a5e02db8eb8add648d4b0e236f1d07dca",
            "0x3400c3d278b5e674a3100173635113461bdf96a07a996de275029b5eee837dd1",
            "0x0000000000000000000000000000000000000000000000000000000000000000"
          ],
          "data": "0x0000000000000000000000004a5c3cca0ac2a1949d600891a89dd19b35189cf0000000000000000000000000000000000000000000000000000000000000000000000000000000000000000000000000000000000000000000000000000000a00000000000000000000000000000000000000000000000000000000000000000000000000000000000000000000000000000000000000000000000000005460000000000000000000000000000000000000000000000000000000000000000449362149e000000000000000000000000beef00fc6e87de086a0e29169a2f6e25cf5c11a90000000000000000000000003bf2b1e1da1bd2c3d397e9df06b7f717c2f12ad700000000000000000000000000000000000000000000000000000000",
          "blockHash": "0x98c8ecb09d67e59fca8cbdd9e5f55670ff4b0b7e63b677b5411e46192a059e04",
          "blockNumber": "0x2d8ac76",
          "blockTimestamp": "0x6a3bb5cf",
          "transactionHash": "0x91829084db15265d5c4b1d8046394fe7f43ff894c3ee75a885c1ee48ba03f8bc",
          "transactionIndex": "0x77",
          "logIndex": "0x12e",
          "removed": false
        },
        {
          "address": "0x8e074b7636f6a56097f1f719e708e2c932e23bab",
          "topics": [
            "0x20fda5fd27a1ea7bf5b9567f143ac5470bb059374a27e8f67cb44f946f6d0387",
            "0x3400c3d278b5e674a3100173635113461bdf96a07a996de275029b5eee837dd1"
          ],
          "data": "0xba06ad5b6d6ee13346ed7af73467df4b20de80845c71c6c2af6a4fc568097ccb",
          "blockHash": "0x98c8ecb09d67e59fca8cbdd9e5f55670ff4b0b7e63b677b5411e46192a059e04",
          "blockNumber": "0x2d8ac76",
          "blockTimestamp": "0x6a3bb5cf",
          "transactionHash": "0x91829084db15265d5c4b1d8046394fe7f43ff894c3ee75a885c1ee48ba03f8bc",
          "transactionIndex": "0x77",
          "logIndex": "0x12f",
          "removed": false
        }
      ],
      "logsBloom": "0x00000000000000000000000040000000000000000000000000000000000000000000000000001000000000000000000100000000800000000000000000000000000400000000000000000000000000000000000000000008000000000100000000000000020000000000000000000800000080000000000000000000000000000000000000000000000000000000000000000000000000000000000000000000000000000000000000200000000000000000000000000000000000000000000000000010000000000000000000000000000000000000400000000000000020000000000000000000000000000000000000000000000000000000000000800000",
      "transactionHash": "0x91829084db15265d5c4b1d8046394fe7f43ff894c3ee75a885c1ee48ba03f8bc",
      "transactionIndex": "0x77",
      "blockHash": "0x98c8ecb09d67e59fca8cbdd9e5f55670ff4b0b7e63b677b5411e46192a059e04",
      "blockNumber": "0x2d8ac76",
      "gasUsed": "0xde06",
      "effectiveGasPrice": "0x5b8d80",
      "blobGasUsed": "0x677c",
      "from": "0xd6768630e0b26eba52d52e75a5d21989aa750113",
      "to": "0x8e074b7636f6a56097f1f719e708e2c932e23bab",
      "contractAddress": null,
      "l1GasPrice": "0x9288783",
      "l1GasUsed": "0xb31",
      "l1Fee": "0x9cf41b78",
      "l1BaseFeeScalar": "0x8dd",
      "l1BlobBaseFee": "0x83e403",
      "l1BlobBaseFeeScalar": "0x101c12",
      "daFootprintGasScalar": "0x94"
    }
  ],
  "libraries": [],
  "pending": [],
  "returns": {},
  "timestamp": 1782298067540,
  "chain": 8453,
  "commit": "0e39ed8"
}