{
  "transactions": [
    {
      "hash": "0x8f076b1a1cf4a3e7f0cfd3abd9295858c98638f2dffb8e46754e3a1b81d155bb",
      "transactionType": "CALL",
      "contractName": null,
      "contractAddress": "0x8e074b7636f6a56097f1f719e708e2c932e23bab",
      "function": "schedule(address,uint256,bytes,bytes32,bytes32,uint256)",
      "arguments": [
        "0x4A5c3Cca0Ac2a1949D600891A89dd19B35189Cf0",
        "0",
        "0x9362149e0000000000000000000000000000000f2eb9f69274678c76222b35eec7588a650000000000000000000000003bf2b1e1da1bd2c3d397e9df06b7f717c2f12ad7",
        "0x7ac5d88a13cd2acf506ab335af9f46af373b9527f040efc590ac456670847bff",
        "0x1c837e15f761f33e113d90c8fa3997bb969b5d82ce0113e3ee11933dc5635da9",
        "345600"
      ],
      "transaction": {
        "from": "0xf8cbf6437d2473ec59885299af38d9a13ce97eca",
        "to": "0x8e074b7636f6a56097f1f719e708e2c932e23bab",
        "gas": "0x1349b",
        "value": "0x0",
        "input": "0x01d5062a0000000000000000000000004a5c3cca0ac2a1949d600891a89dd19b35189cf0000000000000000000000000000000000000000000000000000000000000000000000000000000000000000000000000000000000000000000000000000000c07ac5d88a13cd2acf506ab335af9f46af373b9527f040efc590ac456670847bff1c837e15f761f33e113d90c8fa3997bb969b5d82ce0113e3ee11933dc5635da9000000000000000000000000000000000000000000000000000000000005460000000000000000000000000000000000000000000000000000000000000000449362149e0000000000000000000000000000000f2eb9f69274678c76222b35eec7588a650000000000000000000000003bf2b1e1da1bd2c3d397e9df06b7f717c2f12ad700000000000000000000000000000000000000000000000000000000",
        "nonce": "0x67",
        "chainId": "0x2105"
      },
      "additionalContracts": [],
      "isFixedGasLimit": false
    }
  ],
  "receipts": [
    {
      "status": "0x1",
      "cumulativeGasUsed": "0xe1350a",
      "logs": [
        {
          "address": "0x8e074b7636f6a56097f1f719e708e2c932e23bab",
          "topics": [
            "0x4cf4410cc57040e44862ef0f45f3dd5a5e02db8eb8add648d4b0e236f1d07dca",
            "0xcef3a0d5d8c6e6a8110426d18d750b7187893daf72c58184f13e9bb9ff81ea6f",
            "0x0000000000000000000000000000000000000000000000000000000000000000"
          ],
          "data": "0x0000000000000000000000004a5c3cca0ac2a1949d600891a89dd19b35189cf0000000000000000000000000000000000000000000000000000000000000000000000000000000000000000000000000000000000000000000000000000000a07ac5d88a13cd2acf506ab335af9f46af373b9527f040efc590ac456670847bff000000000000000000000000000000000000000000000000000000000005460000000000000000000000000000000000000000000000000000000000000000449362149e0000000000000000000000000000000f2eb9f69274678c76222b35eec7588a650000000000000000000000003bf2b1e1da1bd2c3d397e9df06b7f717c2f12ad700000000000000000000000000000000000000000000000000000000",
          "blockHash": "0x78271b277d73dc7e1d9492676c4877857a8598105fc9a17d9c0591a114b1827c",
          "blockNumber": "0x296ec6b",
          "blockTimestamp": "0x69b835b9",
          "transactionHash": "0x8f076b1a1cf4a3e7f0cfd3abd9295858c98638f2dffb8e46754e3a1b81d155bb",
          "transactionIndex": "0x44",
          "logIndex": "0x19c",
          "removed": false
        },
        {
          "address": "0x8e074b7636f6a56097f1f719e708e2c932e23bab",
          "topics": [
            "0x20fda5fd27a1ea7bf5b9567f143ac5470bb059374a27e8f67cb44f946f6d0387",
            "0xcef3a0d5d8c6e6a8110426d18d750b7187893daf72c58184f13e9bb9ff81ea6f"
          ],
          "data": "0x1c837e15f761f33e113d90c8fa3997bb969b5d82ce0113e3ee11933dc5635da9",
          "blockHash": "0x78271b277d73dc7e1d9492676c4877857a8598105fc9a17d9c0591a114b1827c",
          "blockNumber": "0x296ec6b",
          "blockTimestamp": "0x69b835b9",
          "transactionHash": "0x8f076b1a1cf4a3e7f0cfd3abd9295858c98638f2dffb8e46754e3a1b81d155bb",
          "transactionIndex": "0x44",
          "logIndex": "0x19d",
          "removed": false
        }
      ],
      "logsBloom": "0x00000000010000000000000040000000000000000000000000000000000000000000000000001000000000000000000100000000800000000000000000000000000000000000000000000000000010000000000000000008000000000000000000000000020000000000000000000800000080000000000000000000000000000000000000000000000000000000000000000000000000000000000000000000000000000000000000000000000000000000000000000000000000000000000000000010000000000000000000000000000000000000400000000000000020000000000000000000000000000000000000000000000002000000000000800000",
      "type": "0x2",
      "transactionHash": "0x8f076b1a1cf4a3e7f0cfd3abd9295858c98638f2dffb8e46754e3a1b81d155bb",
      "transactionIndex": "0x44",
      "blockHash": "0x78271b277d73dc7e1d9492676c4877857a8598105fc9a17d9c0591a114b1827c",
      "blockNumber": "0x296ec6b",
      "gasUsed": "0xdf6e",
      "effectiveGasPrice": "0x679f07",
      "blobGasUsed": "0x6c0d",
      "from": "0xf8cbf6437d2473ec59885299af38d9a13ce97eca",
      "to": "0x8e074b7636f6a56097f1f719e708e2c932e23bab",
      "contractAddress": null,
      "daFootprintGasScalar": "0x8b",
      "l1BaseFeeScalar": "0x8dd",
      "l1BlobBaseFee": "0xdda06a",
      "l1BlobBaseFeeScalar": "0x101c12",
      "l1Fee": "0x123bccb32",
      "l1GasPrice": "0xf00e711",
      "l1GasUsed": "0xc7f"
    }
  ],
  "libraries": [],
  "pending": [],
  "returns": {},
  "timestamp": 1773680060641,
  "chain": 8453,
  "commit": "dee1601"
}