{
  "transactions": [
    {
      "hash": "0x055f009782aea06b4a43a6ca099e03b82a534140701e43b65f0d1419568d872a",
      "transactionType": "CALL",
      "contractName": "YieldSeekerAdminTimelock",
      "contractAddress": "0x869f8d6e8d05ec1fdeab1d5d8d67f3d224da7571",
      "function": "schedule(address,uint256,bytes,bytes32,bytes32,uint256)",
      "arguments": [
        "0xc5Cb6d1c588C5bfeBd23B817Ce33D9d380e50c00",
        "0",
        "0x89810a900000000000000000000000009d3afdbc30dc648597f7b3887cd6897e2ef4be070000000000000000000000008730f9e76fd4b4a84b203ffdbc289101056b345c",
        "0x0000000000000000000000000000000000000000000000000000000000000000",
        "0x2c5b7815e95cdd81c5f9f987c8ac3d46cb22ac98365c28b7eb75f59d6422ccaf",
        "0"
      ],
      "transaction": {
        "from": "0xce11d6fb4f1e006e5a348230449dc387fde850cc",
        "to": "0x869f8d6e8d05ec1fdeab1d5d8d67f3d224da7571",
        "gas": "0x13289",
        "value": "0x0",
        "input": "0x01d5062a000000000000000000000000c5cb6d1c588c5bfebd23b817ce33d9d380e50c00000000000000000000000000000000000000000000000000000000000000000000000000000000000000000000000000000000000000000000000000000000c000000000000000000000000000000000000000000000000000000000000000002c5b7815e95cdd81c5f9f987c8ac3d46cb22ac98365c28b7eb75f59d6422ccaf0000000000000000000000000000000000000000000000000000000000000000000000000000000000000000000000000000000000000000000000000000004489810a900000000000000000000000009d3afdbc30dc648597f7b3887cd6897e2ef4be070000000000000000000000008730f9e76fd4b4a84b203ffdbc289101056b345c00000000000000000000000000000000000000000000000000000000",
        "nonce": "0x48",
        "chainId": "0x2105"
      },
      "additionalContracts": [],
      "isFixedGasLimit": false
    },
    {
      "hash": "0x36aa081ddc468f34ab1fed5828375b7a9710333541863b02ceba7d906490de67",
      "transactionType": "CALL",
      "contractName": "YieldSeekerAdminTimelock",
      "contractAddress": "0x869f8d6e8d05ec1fdeab1d5d8d67f3d224da7571",
      "function": "execute(address,uint256,bytes,bytes32,bytes32)",
      "arguments": [
        "0xc5Cb6d1c588C5bfeBd23B817Ce33D9d380e50c00",
        "0",
        "0x89810a900000000000000000000000009d3afdbc30dc648597f7b3887cd6897e2ef4be070000000000000000000000008730f9e76fd4b4a84b203ffdbc289101056b345c",
        "0x0000000000000000000000000000000000000000000000000000000000000000",
        "0x2c5b7815e95cdd81c5f9f987c8ac3d46cb22ac98365c28b7eb75f59d6422ccaf"
      ],
      "transaction": {
        "from": "0xce11d6fb4f1e006e5a348230449dc387fde850cc",
        "to": "0x869f8d6e8d05ec1fdeab1d5d8d67f3d224da7571",
        "gas": "0x275ef",
        "value": "0x0",
        "input": "0x134008d3000000000000000000000000c5cb6d1c588c5bfebd23b817ce33d9d380e50c00000000000000000000000000000000000000000000000000000000000000000000000000000000000000000000000000000000000000000000000000000000a000000000000000000000000000000000000000000000000000000000000000002c5b7815e95cdd81c5f9f987c8ac3d46cb22ac98365c28b7eb75f59d6422ccaf000000000000000000000000000000000000000000000000000000000000004489810a900000000000000000000000009d3afdbc30dc648597f7b3887cd6897e2ef4be070000000000000000000000008730f9e76fd4b4a84b203ffdbc289101056b345c00000000000000000000000000000000000000000000000000000000",
        "nonce": "0x49",
        "chainId": "0x2105"
      },
      "additionalContracts": [],
      "isFixedGasLimit": false
    }
  ],
  "receipts": [
    {
      "status": "0x1",
      "cumulativeGasUsed": "0xd65c07",
      "logs": [
        {
          "address": "0x869f8d6e8d05ec1fdeab1d5d8d67f3d224da7571",
          "topics": [
            "0x4cf4410cc57040e44862ef0f45f3dd5a5e02db8eb8add648d4b0e236f1d07dca",
            "0xb4c1a803237a633cfd13423aed78bcd1003d49b5d21376245b362f8be423ff74",
            "0x0000000000000000000000000000000000000000000000000000000000000000"
          ],
          "data": "0x000000000000000000000000c5cb6d1c588c5bfebd23b817ce33d9d380e50c00000000000000000000000000000000000000000000000000000000000000000000000000000000000000000000000000000000000000000000000000000000a000000000000000000000000000000000000000000000000000000000000000000000000000000000000000000000000000000000000000000000000000000000000000000000000000000000000000000000000000000000000000000000004489810a900000000000000000000000009d3afdbc30dc648597f7b3887cd6897e2ef4be070000000000000000000000008730f9e76fd4b4a84b203ffdbc289101056b345c00000000000000000000000000000000000000000000000000000000",
          "blockHash": "0xe8fb0f319d28701ca3523528168221b86dacbbb82e40abf28bae89c439fa907a",
          "blockNumber": "0x25cc5de",
          "blockTimestamp": "0x6943e89f",
          "transactionHash": "0x36aa081ddc468f34ab1fed5828375b7a9710333541863b02ceba7d906490de67",
          "transactionIndex": "0x41",
          "logIndex": "0x181",
          "removed": false
        },
        {
          "address": "0x869f8d6e8d05ec1fdeab1d5d8d67f3d224da7571",
          "topics": [
            "0x20fda5fd27a1ea7bf5b9567f143ac5470bb059374a27e8f67cb44f946f6d0387",
            "0xb4c1a803237a633cfd13423aed78bcd1003d49b5d21376245b362f8be423ff74"
          ],
          "data": "0x2c5b7815e95cdd81c5f9f987c8ac3d46cb22ac98365c28b7eb75f59d6422ccaf",
          "blockHash": "0xe8fb0f319d28701ca3523528168221b86dacbbb82e40abf28bae89c439fa907a",
          "blockNumber": "0x25cc5de",
          "blockTimestamp": "0x6943e89f",
          "transactionHash": "0x36aa081ddc468f34ab1fed5828375b7a9710333541863b02ceba7d906490de67",
          "transactionIndex": "0x41",
          "logIndex": "0x182",
          "removed": false
        }
      ],
      "logsBloom": "0x00000000000000000000000040000000000000000000000000000000000000000000000000000000000000000000000100000000800000000000000000000000000000000000000000000000000000000080000000000008000000000000000000000000020000200000000000020800000080000000000000000000800000000000000000000000000000000000000000000000000002000000000000000000000000000000000000000000000000000000000001000000000000000000000000000000000000000000000000000000000000000000400000000000000020000000000000000000000000000000000000000000000000000000000000000000",
      "type": "0x2",
      "transactionHash": "0x36aa081ddc468f34ab1fed5828375b7a9710333541863b02ceba7d906490de67",
      "transactionIndex": "0x41",
      "blockHash": "0xe8fb0f319d28701ca3523528168221b86dacbbb82e40abf28bae89c439fa907a",
      "blockNumber": "0x25cc5de",
      "gasUsed": "0xddee",
      "effectiveGasPrice": "0x86433",
      "blobGasUsed": "0xcdf8",
      "from": "0xce11d6fb4f1e006e5a348230449dc387fde850cc",
      "to": "0x869f8d6e8d05ec1fdeab1d5d8d67f3d224da7571",
      "contractAddress": null,
      "daFootprintGasScalar": "0x138",
      "l1BaseFeeScalar": "0x8dd",
      "l1BlobBaseFee": "0x159d1d",
      "l1BlobBaseFeeScalar": "0x101c12",
      "l1Fee": "0x17eb46ed",
      "l1GasPrice": "0x1712ffa",
      "l1GasUsed": "0xa90"
    },
    {
      "status": "0x1",
      "cumulativeGasUsed": "0xd82417",
      "logs": [
        {
          "address": "0xc5cb6d1c588c5bfebd23b817ce33d9d380e50c00",
          "topics": [
            "0x1cf35c87329e14a81fdc68af8a463c1db203ccfc925ff5150f5dbc71bc4c2372",
            "0x0000000000000000000000009d3afdbc30dc648597f7b3887cd6897e2ef4be07",
            "0x0000000000000000000000008730f9e76fd4b4a84b203ffdbc289101056b345c"
          ],
          "data": "0x",
          "blockHash": "0xe8fb0f319d28701ca3523528168221b86dacbbb82e40abf28bae89c439fa907a",
          "blockNumber": "0x25cc5de",
          "blockTimestamp": "0x6943e89f",
          "transactionHash": "0x055f009782aea06b4a43a6ca099e03b82a534140701e43b65f0d1419568d872a",
          "transactionIndex": "0x42",
          "logIndex": "0x183",
          "removed": false
        },
        {
          "address": "0x869f8d6e8d05ec1fdeab1d5d8d67f3d224da7571",
          "topics": [
            "0xc2617efa69bab66782fa219543714338489c4e9e178271560a91b82c3f612b58",
            "0xb4c1a803237a633cfd13423aed78bcd1003d49b5d21376245b362f8be423ff74",
            "0x0000000000000000000000000000000000000000000000000000000000000000"
          ],
          "data": "0x000000000000000000000000c5cb6d1c588c5bfebd23b817ce33d9d380e50c0000000000000000000000000000000000000000000000000000000000000000000000000000000000000000000000000000000000000000000000000000000060000000000000000000000000000000000000000000000000000000000000004489810a900000000000000000000000009d3afdbc30dc648597f7b3887cd6897e2ef4be070000000000000000000000008730f9e76fd4b4a84b203ffdbc289101056b345c00000000000000000000000000000000000000000000000000000000",
          "blockHash": "0xe8fb0f319d28701ca3523528168221b86dacbbb82e40abf28bae89c439fa907a",
          "blockNumber": "0x25cc5de",
          "blockTimestamp": "0x6943e89f",
          "transactionHash": "0x055f009782aea06b4a43a6ca099e03b82a534140701e43b65f0d1419568d872a",
          "transactionIndex": "0x42",
          "logIndex": "0x184",
          "removed": false
        }
      ],
      "logsBloom": "0x00000000000000000000000000000000004000000000000000000000000000000000200000000000000000000000000000000000000800000202000000000000000000000000000000000000000000000080000000000000000000000000002000000000020000200000000000020800000000000000000000020000800020000000008000000000000000000000000000000000004002000400001000000000000000000000400000000000000000000000000001000000000000000000000000000000000000080000000000000000000000000000000000000000000020000000000000000000000000000000000000000000000000000000000040000000",
      "type": "0x2",
      "transactionHash": "0x055f009782aea06b4a43a6ca099e03b82a534140701e43b65f0d1419568d872a",
      "transactionIndex": "0x42",
      "blockHash": "0xe8fb0f319d28701ca3523528168221b86dacbbb82e40abf28bae89c439fa907a",
      "blockNumber": "0x25cc5de",
      "gasUsed": "0x1c810",
      "effectiveGasPrice": "0x86433",
      "blobGasUsed": "0xca50",
      "from": "0xce11d6fb4f1e006e5a348230449dc387fde850cc",
      "to": "0x869f8d6e8d05ec1fdeab1d5d8d67f3d224da7571",
      "contractAddress": null,
      "daFootprintGasScalar": "0x138",
      "l1BaseFeeScalar": "0x8dd",
      "l1BlobBaseFee": "0x159d1d",
      "l1BlobBaseFeeScalar": "0x101c12",
      "l1Fee": "0x179060cd",
      "l1GasPrice": "0x1712ffa",
      "l1GasUsed": "0xa68"
    }
  ],
  "libraries": [],
  "pending": [],
  "returns": {},
  "timestamp": 1766058147403,
  "chain": 8453,
  "commit": "a76589e"
}