{
  "transactions": [
    {
      "hash": "0xd0707382810d9cd4bff45cd9a784cf4c0e38e0927b76c6bb1ce5c436da5a1aa0",
      "transactionType": "CALL",
      "contractName": null,
      "contractAddress": "0x8e074b7636f6a56097f1f719e708e2c932e23bab",
      "function": "schedule(address,uint256,bytes,bytes32,bytes32,uint256)",
      "arguments": [
        "0x4A5c3Cca0Ac2a1949D600891A89dd19B35189Cf0",
        "0",
        "0x9362149e000000000000000000000000050ce30b927da55177a4914ec73480238bad56f00000000000000000000000003bf2b1e1da1bd2c3d397e9df06b7f717c2f12ad7",
        "0x0000000000000000000000000000000000000000000000000000000000000000",
        "0x7d4cfcb14414021c2f3edb11150f94f1e577b1d1e70992941fdab6ba2eaf1b8d",
        "345600"
      ],
      "transaction": {
        "from": "0xd6768630e0b26eba52d52e75a5d21989aa750113",
        "to": "0x8e074b7636f6a56097f1f719e708e2c932e23bab",
        "gas": "0x144c6",
        "value": "0x0",
        "input": "0x01d5062a0000000000000000000000004a5c3cca0ac2a1949d600891a89dd19b35189cf0000000000000000000000000000000000000000000000000000000000000000000000000000000000000000000000000000000000000000000000000000000c000000000000000000000000000000000000000000000000000000000000000007d4cfcb14414021c2f3edb11150f94f1e577b1d1e70992941fdab6ba2eaf1b8d000000000000000000000000000000000000000000000000000000000005460000000000000000000000000000000000000000000000000000000000000000449362149e000000000000000000000000050ce30b927da55177a4914ec73480238bad56f00000000000000000000000003bf2b1e1da1bd2c3d397e9df06b7f717c2f12ad700000000000000000000000000000000000000000000000000000000",
        "nonce": "0x3",
        "chainId": "0x2105"
      },
      "additionalContracts": [],
      "isFixedGasLimit": false
    }
  ],
  "receipts": [
    {
      "type": "0x2",
      "status": "0x1",
      "cumulativeGasUsed": "0x1044292",
      "logs": [
        {
          "address": "0x8e074b7636f6a56097f1f719e708e2c932e23bab",
          "topics": [
            "0x4cf4410cc57040e44862ef0f45f3dd5a5e02db8eb8add648d4b0e236f1d07dca",
            "0x3bd5488747de7db9afd836e2296f983cc26ae7a9b6ccb4439122141e51d2826a",
            "0x0000000000000000000000000000000000000000000000000000000000000000"
          ],
          "data": "0x0000000000000000000000004a5c3cca0ac2a1949d600891a89dd19b35189cf0000000000000000000000000000000000000000000000000000000000000000000000000000000000000000000000000000000000000000000000000000000a00000000000000000000000000000000000000000000000000000000000000000000000000000000000000000000000000000000000000000000000000005460000000000000000000000000000000000000000000000000000000000000000449362149e000000000000000000000000050ce30b927da55177a4914ec73480238bad56f00000000000000000000000003bf2b1e1da1bd2c3d397e9df06b7f717c2f12ad700000000000000000000000000000000000000000000000000000000",
          "blockHash": "0x15050a047c7f60c462966620458a6fadae8818ece4532a0cddf3053e702aeac9",
          "blockNumber": "0x2d8ac0d",
          "blockTimestamp": "0x6a3bb4fd",
          "transactionHash": "0xd0707382810d9cd4bff45cd9a784cf4c0e38e0927b76c6bb1ce5c436da5a1aa0",
          "transactionIndex": "0x6b",
          "logIndex": "0x140",
          "removed": false
        },
        {
          "address": "0x8e074b7636f6a56097f1f719e708e2c932e23bab",
          "topics": [
            "0x20fda5fd27a1ea7bf5b9567f143ac5470bb059374a27e8f67cb44f946f6d0387",
            "0x3bd5488747de7db9afd836e2296f983cc26ae7a9b6ccb4439122141e51d2826a"
          ],
          "data": "0x7d4cfcb14414021c2f3edb11150f94f1e577b1d1e70992941fdab6ba2eaf1b8d",
          "blockHash": "0x15050a047c7f60c462966620458a6fadae8818ece4532a0cddf3053e702aeac9",
          "blockNumber": "0x2d8ac0d",
          "blockTimestamp": "0x6a3bb4fd",
          "transactionHash": "0xd0707382810d9cd4bff45cd9a784cf4c0e38e0927b76c6bb1ce5c436da5a1aa0",
          "transactionIndex": "0x6b",
          "logIndex": "0x141",
          "removed": false
        }
      ],
      "logsBloom": "0x00000000000000000000000040000000000000000000000000000000000000000000000000001000000000000000000100000000800000000000000000000000000000000000000000000000000000000000000000000208000000000000000000000000020000000000000000000800000080000000000000000000000000000000000000000000000000000000000000000000000000000000000000000000000000000000000000000000000000000000000400000000000000000000000000000010400000000000000000000000000000000000400000000000000020000000000000000000000000000000000000000000000000000000000000800000",
      "transactionHash": "0xd0707382810d9cd4bff45cd9a784cf4c0e38e0927b76c6bb1ce5c436da5a1aa0",
      "transactionIndex": "0x6b",
      "blockHash": "0x15050a047c7f60c462966620458a6fadae8818ece4532a0cddf3053e702aeac9",
      "blockNumber": "0x2d8ac0d",
      "gasUsed": "0xde12",
      "effectiveGasPrice": "0x5b8d80",
      "blobGasUsed": "0x6654",
      "from": "0xd6768630e0b26eba52d52e75a5d21989aa750113",
      "to": "0x8e074b7636f6a56097f1f719e708e2c932e23bab",
      "contractAddress": null,
      "l1GasPrice": "0x97eff77",
      "l1GasUsed": "0xb16",
      "l1Fee": "0x8d3523f0",
      "l1BaseFeeScalar": "0x8dd",
      "l1BlobBaseFee": "0x6d668f",
      "l1BlobBaseFeeScalar": "0x101c12",
      "daFootprintGasScalar": "0x94"
    }
  ],
  "libraries": [],
  "pending": [],
  "returns": {},
  "timestamp": 1782297857580,
  "chain": 8453,
  "commit": "0e39ed8"
}