{
  "transactions": [
    {
      "hash": "0x1f4a83966119c78f56650242fbe71469fa6c7297bbfea030500a797473124dff",
      "transactionType": "CALL",
      "contractName": null,
      "contractAddress": "0x8e074b7636f6a56097f1f719e708e2c932e23bab",
      "function": "schedule(address,uint256,bytes,bytes32,bytes32,uint256)",
      "arguments": [
        "0x4A5c3Cca0Ac2a1949D600891A89dd19B35189Cf0",
        "0",
        "0x9362149e0000000000000000000000003128a0f7f0ea68e7b7c9b00afa7e41045828e8580000000000000000000000003bf2b1e1da1bd2c3d397e9df06b7f717c2f12ad7",
        "0x7ac5d88a13cd2acf506ab335af9f46af373b9527f040efc590ac456670847bff",
        "0x1cfb4968142cab08d137f3ec11275e186c0a0a6f384677e1bd85af7d69756b05",
        "345600"
      ],
      "transaction": {
        "from": "0xf8cbf6437d2473ec59885299af38d9a13ce97eca",
        "to": "0x8e074b7636f6a56097f1f719e708e2c932e23bab",
        "gas": "0x146f8",
        "value": "0x0",
        "input": "0x01d5062a0000000000000000000000004a5c3cca0ac2a1949d600891a89dd19b35189cf0000000000000000000000000000000000000000000000000000000000000000000000000000000000000000000000000000000000000000000000000000000c07ac5d88a13cd2acf506ab335af9f46af373b9527f040efc590ac456670847bff1cfb4968142cab08d137f3ec11275e186c0a0a6f384677e1bd85af7d69756b05000000000000000000000000000000000000000000000000000000000005460000000000000000000000000000000000000000000000000000000000000000449362149e0000000000000000000000003128a0f7f0ea68e7b7c9b00afa7e41045828e8580000000000000000000000003bf2b1e1da1bd2c3d397e9df06b7f717c2f12ad700000000000000000000000000000000000000000000000000000000",
        "nonce": "0x5d",
        "chainId": "0x2105"
      },
      "additionalContracts": [],
      "isFixedGasLimit": false
    }
  ],
  "receipts": [
    {
      "status": "0x1",
      "cumulativeGasUsed": "0xb65524",
      "logs": [
        {
          "address": "0x8e074b7636f6a56097f1f719e708e2c932e23bab",
          "topics": [
            "0x4cf4410cc57040e44862ef0f45f3dd5a5e02db8eb8add648d4b0e236f1d07dca",
            "0xf9f05c6df698159917e483c1ee006861622d2d0c37518309d15671994ea4ca02",
            "0x0000000000000000000000000000000000000000000000000000000000000000"
          ],
          "data": "0x0000000000000000000000004a5c3cca0ac2a1949d600891a89dd19b35189cf0000000000000000000000000000000000000000000000000000000000000000000000000000000000000000000000000000000000000000000000000000000a07ac5d88a13cd2acf506ab335af9f46af373b9527f040efc590ac456670847bff000000000000000000000000000000000000000000000000000000000005460000000000000000000000000000000000000000000000000000000000000000449362149e0000000000000000000000003128a0f7f0ea68e7b7c9b00afa7e41045828e8580000000000000000000000003bf2b1e1da1bd2c3d397e9df06b7f717c2f12ad700000000000000000000000000000000000000000000000000000000",
          "blockHash": "0xc5f97577daba7bbb31908d52b063362ff7bf33f512b697ff234ddedb4b2e75d7",
          "blockNumber": "0x296ec1c",
          "blockTimestamp": "0x69b8351b",
          "transactionHash": "0x1f4a83966119c78f56650242fbe71469fa6c7297bbfea030500a797473124dff",
          "transactionIndex": "0x34",
          "logIndex": "0x191",
          "removed": false
        },
        {
          "address": "0x8e074b7636f6a56097f1f719e708e2c932e23bab",
          "topics": [
            "0x20fda5fd27a1ea7bf5b9567f143ac5470bb059374a27e8f67cb44f946f6d0387",
            "0xf9f05c6df698159917e483c1ee006861622d2d0c37518309d15671994ea4ca02"
          ],
          "data": "0x1cfb4968142cab08d137f3ec11275e186c0a0a6f384677e1bd85af7d69756b05",
          "blockHash": "0xc5f97577daba7bbb31908d52b063362ff7bf33f512b697ff234ddedb4b2e75d7",
          "blockNumber": "0x296ec1c",
          "blockTimestamp": "0x69b8351b",
          "transactionHash": "0x1f4a83966119c78f56650242fbe71469fa6c7297bbfea030500a797473124dff",
          "transactionIndex": "0x34",
          "logIndex": "0x192",
          "removed": false
        }
      ],
      "logsBloom": "0x00000000000000000000000040000000000000000000000000000000000000001020000000001000000000000000000100000000820000000000000000000000000000000000000000000000000000000000000000000008000000000000000000000000020000000000000000000800000080000000000000000000000000000000000000000000000000000000000000000000000000000000000000000000000000000000000000000000000000000000000000000000000000000000000000000010000000000000000000000000000000000000400000000000000020000000000000000000000000000000000000000000000000000000000000800000",
      "type": "0x2",
      "transactionHash": "0x1f4a83966119c78f56650242fbe71469fa6c7297bbfea030500a797473124dff",
      "transactionIndex": "0x34",
      "blockHash": "0xc5f97577daba7bbb31908d52b063362ff7bf33f512b697ff234ddedb4b2e75d7",
      "blockNumber": "0x296ec1c",
      "gasUsed": "0xdf92",
      "effectiveGasPrice": "0x664ba2",
      "blobGasUsed": "0x6ec4",
      "from": "0xf8cbf6437d2473ec59885299af38d9a13ce97eca",
      "to": "0x8e074b7636f6a56097f1f719e708e2c932e23bab",
      "contractAddress": null,
      "daFootprintGasScalar": "0x8b",
      "l1BaseFeeScalar": "0x8dd",
      "l1BlobBaseFee": "0xfd8f8b",
      "l1BlobBaseFeeScalar": "0x101c12",
      "l1Fee": "0x152dfcbbb",
      "l1GasPrice": "0x10e96baf",
      "l1GasUsed": "0xcc2"
    }
  ],
  "libraries": [],
  "pending": [],
  "returns": {},
  "timestamp": 1773679902467,
  "chain": 8453,
  "commit": "dee1601"
}