{
  "transactions": [
    {
      "hash": "0xa751fb4e51e78f9e5b0d32595465091c041eb046dc48ddd6c1a0c3f424e44b9f",
      "transactionType": "CALL",
      "contractName": null,
      "contractAddress": "0x8e074b7636f6a56097f1f719e708e2c932e23bab",
      "function": "schedule(address,uint256,bytes,bytes32,bytes32,uint256)",
      "arguments": [
        "0x4A5c3Cca0Ac2a1949D600891A89dd19B35189Cf0",
        "0",
        "0x9362149e000000000000000000000000bdb9300b7cde636d9cd4aff00f6f009ffbbc8ee60000000000000000000000002d04c5bdf9ecb7b16833c4d8006c53eb0736baeb",
        "0x0000000000000000000000000000000000000000000000000000000000000000",
        "0x8dd8593167897756f2eb3d13b03f36a481434a877c2226f4eb3926710031c2fa",
        "345600"
      ],
      "transaction": {
        "from": "0xd6768630e0b26eba52d52e75a5d21989aa750113",
        "to": "0x8e074b7636f6a56097f1f719e708e2c932e23bab",
        "gas": "0x13289",
        "value": "0x0",
        "input": "0x01d5062a0000000000000000000000004a5c3cca0ac2a1949d600891a89dd19b35189cf0000000000000000000000000000000000000000000000000000000000000000000000000000000000000000000000000000000000000000000000000000000c000000000000000000000000000000000000000000000000000000000000000008dd8593167897756f2eb3d13b03f36a481434a877c2226f4eb3926710031c2fa000000000000000000000000000000000000000000000000000000000005460000000000000000000000000000000000000000000000000000000000000000449362149e000000000000000000000000bdb9300b7cde636d9cd4aff00f6f009ffbbc8ee60000000000000000000000002d04c5bdf9ecb7b16833c4d8006c53eb0736baeb00000000000000000000000000000000000000000000000000000000",
        "nonce": "0x16",
        "chainId": "0x2105"
      },
      "additionalContracts": [],
      "isFixedGasLimit": false
    }
  ],
  "receipts": [
    {
      "type": "0x2",
      "status": "0x1",
      "cumulativeGasUsed": "0x7543e0",
      "logs": [
        {
          "address": "0x8e074b7636f6a56097f1f719e708e2c932e23bab",
          "topics": [
            "0x4cf4410cc57040e44862ef0f45f3dd5a5e02db8eb8add648d4b0e236f1d07dca",
            "0xb45b31c14c195a4da063e8e1fe83220a09383c99520cdb6c8d69096b75e1639a",
            "0x0000000000000000000000000000000000000000000000000000000000000000"
          ],
          "data": "0x0000000000000000000000004a5c3cca0ac2a1949d600891a89dd19b35189cf0000000000000000000000000000000000000000000000000000000000000000000000000000000000000000000000000000000000000000000000000000000a00000000000000000000000000000000000000000000000000000000000000000000000000000000000000000000000000000000000000000000000000005460000000000000000000000000000000000000000000000000000000000000000449362149e000000000000000000000000bdb9300b7cde636d9cd4aff00f6f009ffbbc8ee60000000000000000000000002d04c5bdf9ecb7b16833c4d8006c53eb0736baeb00000000000000000000000000000000000000000000000000000000",
          "blockHash": "0xf449f6cef343ce9f1ae9bd11ec13890b8d6032a6edd7189fffa2a97ed64495c4",
          "blockNumber": "0x2da03e1",
          "blockTimestamp": "0x6a3e64a5",
          "transactionHash": "0xa751fb4e51e78f9e5b0d32595465091c041eb046dc48ddd6c1a0c3f424e44b9f",
          "transactionIndex": "0x42",
          "logIndex": "0xb3",
          "removed": false
        },
        {
          "address": "0x8e074b7636f6a56097f1f719e708e2c932e23bab",
          "topics": [
            "0x20fda5fd27a1ea7bf5b9567f143ac5470bb059374a27e8f67cb44f946f6d0387",
            "0xb45b31c14c195a4da063e8e1fe83220a09383c99520cdb6c8d69096b75e1639a"
          ],
          "data": "0x8dd8593167897756f2eb3d13b03f36a481434a877c2226f4eb3926710031c2fa",
          "blockHash": "0xf449f6cef343ce9f1ae9bd11ec13890b8d6032a6edd7189fffa2a97ed64495c4",
          "blockNumber": "0x2da03e1",
          "blockTimestamp": "0x6a3e64a5",
          "transactionHash": "0xa751fb4e51e78f9e5b0d32595465091c041eb046dc48ddd6c1a0c3f424e44b9f",
          "transactionIndex": "0x42",
          "logIndex": "0xb4",
          "removed": false
        }
      ],
      "logsBloom": "0x00000000000000000000000040000000000000000000000000000000000000000000000000001000000000000000000100000000800000000000000000000000000000000000000000000000000000000000000000000008000000000400000000000000020000000000000000000800000080000000000000002000000000000000000000000000000000000000000000000000000000000000000000000000000000000000000000000000000000000000000000000000000000000000000000040010000000000000000000000000000000000000400000000000000020000000000000000000000000000000000000000000000000000000000000800000",
      "transactionHash": "0xa751fb4e51e78f9e5b0d32595465091c041eb046dc48ddd6c1a0c3f424e44b9f",
      "transactionIndex": "0x42",
      "blockHash": "0xf449f6cef343ce9f1ae9bd11ec13890b8d6032a6edd7189fffa2a97ed64495c4",
      "blockNumber": "0x2da03e1",
      "gasUsed": "0xddee",
      "effectiveGasPrice": "0x5b8d80",
      "blobGasUsed": "0x677c",
      "from": "0xd6768630e0b26eba52d52e75a5d21989aa750113",
      "to": "0x8e074b7636f6a56097f1f719e708e2c932e23bab",
      "contractAddress": null,
      "l1GasPrice": "0x635ff84",
      "l1GasUsed": "0xb31",
      "l1Fee": "0x6ae279a6",
      "l1BaseFeeScalar": "0x8dd",
      "l1BlobBaseFee": "0x5a0b62",
      "l1BlobBaseFeeScalar": "0x101c12",
      "daFootprintGasScalar": "0x94"
    }
  ],
  "libraries": [],
  "pending": [],
  "returns": {},
  "timestamp": 1782473895669,
  "chain": 8453,
  "commit": "de5ca46"
}