{
  "transactions": [
    {
      "hash": "0xb80976fcab8db890d53b2040bfc14950b963929dbc8634acc45531437c1f57a5",
      "transactionType": "CALL",
      "contractName": "YieldSeekerAdminTimelock",
      "contractAddress": "0x869f8d6e8d05ec1fdeab1d5d8d67f3d224da7571",
      "function": "schedule(address,uint256,bytes,bytes32,bytes32,uint256)",
      "arguments": [
        "0xc5Cb6d1c588C5bfeBd23B817Ce33D9d380e50c00",
        "0",
        "0x89810a900000000000000000000000000000000000001ff3684f28c67538d4d072c227340000000000000000000000008b53956c8b7753bcc7ec518e899007a880d7dfe0",
        "0x0000000000000000000000000000000000000000000000000000000000000000",
        "0xfa04f77495ac9275b44697c717a257f77b5911e1babc5efb4484211ef851b6a9",
        "0"
      ],
      "transaction": {
        "from": "0xce11d6fb4f1e006e5a348230449dc387fde850cc",
        "to": "0x869f8d6e8d05ec1fdeab1d5d8d67f3d224da7571",
        "gas": "0x13226",
        "value": "0x0",
        "input": "0x01d5062a000000000000000000000000c5cb6d1c588c5bfebd23b817ce33d9d380e50c00000000000000000000000000000000000000000000000000000000000000000000000000000000000000000000000000000000000000000000000000000000c00000000000000000000000000000000000000000000000000000000000000000fa04f77495ac9275b44697c717a257f77b5911e1babc5efb4484211ef851b6a90000000000000000000000000000000000000000000000000000000000000000000000000000000000000000000000000000000000000000000000000000004489810a900000000000000000000000000000000000001ff3684f28c67538d4d072c227340000000000000000000000008b53956c8b7753bcc7ec518e899007a880d7dfe000000000000000000000000000000000000000000000000000000000",
        "nonce": "0x53",
        "chainId": "0x2105"
      },
      "additionalContracts": [],
      "isFixedGasLimit": false
    },
    {
      "hash": "0xfff1b90cfac4bf8f2210dab23b5e6ec934b4c9a86cbe67b486b854cc77e53125",
      "transactionType": "CALL",
      "contractName": "YieldSeekerAdminTimelock",
      "contractAddress": "0x869f8d6e8d05ec1fdeab1d5d8d67f3d224da7571",
      "function": "execute(address,uint256,bytes,bytes32,bytes32)",
      "arguments": [
        "0xc5Cb6d1c588C5bfeBd23B817Ce33D9d380e50c00",
        "0",
        "0x89810a900000000000000000000000000000000000001ff3684f28c67538d4d072c227340000000000000000000000008b53956c8b7753bcc7ec518e899007a880d7dfe0",
        "0x0000000000000000000000000000000000000000000000000000000000000000",
        "0xfa04f77495ac9275b44697c717a257f77b5911e1babc5efb4484211ef851b6a9"
      ],
      "transaction": {
        "from": "0xce11d6fb4f1e006e5a348230449dc387fde850cc",
        "to": "0x869f8d6e8d05ec1fdeab1d5d8d67f3d224da7571",
        "gas": "0x284a7",
        "value": "0x0",
        "input": "0x134008d3000000000000000000000000c5cb6d1c588c5bfebd23b817ce33d9d380e50c00000000000000000000000000000000000000000000000000000000000000000000000000000000000000000000000000000000000000000000000000000000a00000000000000000000000000000000000000000000000000000000000000000fa04f77495ac9275b44697c717a257f77b5911e1babc5efb4484211ef851b6a9000000000000000000000000000000000000000000000000000000000000004489810a900000000000000000000000000000000000001ff3684f28c67538d4d072c227340000000000000000000000008b53956c8b7753bcc7ec518e899007a880d7dfe000000000000000000000000000000000000000000000000000000000",
        "nonce": "0x54",
        "chainId": "0x2105"
      },
      "additionalContracts": [],
      "isFixedGasLimit": false
    }
  ],
  "receipts": [
    {
      "status": "0x1",
      "cumulativeGasUsed": "0xf6b3c9",
      "logs": [
        {
          "address": "0x869f8d6e8d05ec1fdeab1d5d8d67f3d224da7571",
          "topics": [
            "0x4cf4410cc57040e44862ef0f45f3dd5a5e02db8eb8add648d4b0e236f1d07dca",
            "0xb62efc352341bb38645c7565fe6205ab0f180a0d2065dddbff38b2f6d5fbeda7",
            "0x0000000000000000000000000000000000000000000000000000000000000000"
          ],
          "data": "0x000000000000000000000000c5cb6d1c588c5bfebd23b817ce33d9d380e50c00000000000000000000000000000000000000000000000000000000000000000000000000000000000000000000000000000000000000000000000000000000a000000000000000000000000000000000000000000000000000000000000000000000000000000000000000000000000000000000000000000000000000000000000000000000000000000000000000000000000000000000000000000000004489810a900000000000000000000000000000000000001ff3684f28c67538d4d072c227340000000000000000000000008b53956c8b7753bcc7ec518e899007a880d7dfe000000000000000000000000000000000000000000000000000000000",
          "blockHash": "0x1caa5755b8d8e0080a92feeccdb1fae5d26c5086563942c105f495dca467d31a",
          "blockNumber": "0x25cd05b",
          "blockTimestamp": "0x6943fd99",
          "transactionHash": "0xfff1b90cfac4bf8f2210dab23b5e6ec934b4c9a86cbe67b486b854cc77e53125",
          "transactionIndex": "0x63",
          "logIndex": "0x14c",
          "removed": false
        },
        {
          "address": "0x869f8d6e8d05ec1fdeab1d5d8d67f3d224da7571",
          "topics": [
            "0x20fda5fd27a1ea7bf5b9567f143ac5470bb059374a27e8f67cb44f946f6d0387",
            "0xb62efc352341bb38645c7565fe6205ab0f180a0d2065dddbff38b2f6d5fbeda7"
          ],
          "data": "0xfa04f77495ac9275b44697c717a257f77b5911e1babc5efb4484211ef851b6a9",
          "blockHash": "0x1caa5755b8d8e0080a92feeccdb1fae5d26c5086563942c105f495dca467d31a",
          "blockNumber": "0x25cd05b",
          "blockTimestamp": "0x6943fd99",
          "transactionHash": "0xfff1b90cfac4bf8f2210dab23b5e6ec934b4c9a86cbe67b486b854cc77e53125",
          "transactionIndex": "0x63",
          "logIndex": "0x14d",
          "removed": false
        }
      ],
      "logsBloom": "0x00000008000000000000000040000000000000000000000000000000000000000000000000000000000000000000000100000000800000000001000000000000000000000000000000000000000000000080000000000008000000000000000000000000020000000000000000020800000080000000000000000000000000000000000000000000000000000000000000000000000002000000000000000000000000000000000000000000000000000000000000000000000000000000000000000000000000000000000000000000040000000000400000000000000020000000000000000000000000000000000000000000000000000000000000000000",
      "type": "0x2",
      "transactionHash": "0xfff1b90cfac4bf8f2210dab23b5e6ec934b4c9a86cbe67b486b854cc77e53125",
      "transactionIndex": "0x63",
      "blockHash": "0x1caa5755b8d8e0080a92feeccdb1fae5d26c5086563942c105f495dca467d31a",
      "blockNumber": "0x25cd05b",
      "gasUsed": "0xdda6",
      "effectiveGasPrice": "0x2de4d8",
      "blobGasUsed": "0xca50",
      "from": "0xce11d6fb4f1e006e5a348230449dc387fde850cc",
      "to": "0x869f8d6e8d05ec1fdeab1d5d8d67f3d224da7571",
      "contractAddress": null,
      "daFootprintGasScalar": "0x138",
      "l1BaseFeeScalar": "0x8dd",
      "l1BlobBaseFee": "0x419191",
      "l1BlobBaseFeeScalar": "0x101c12",
      "l1Fee": "0x49a6513f",
      "l1GasPrice": "0x4bba4ad",
      "l1GasUsed": "0xa68"
    },
    {
      "status": "0x1",
      "cumulativeGasUsed": "0xf88681",
      "logs": [
        {
          "address": "0xc5cb6d1c588c5bfebd23b817ce33d9d380e50c00",
          "topics": [
            "0x1cf35c87329e14a81fdc68af8a463c1db203ccfc925ff5150f5dbc71bc4c2372",
            "0x0000000000000000000000000000000000001ff3684f28c67538d4d072c22734",
            "0x0000000000000000000000008b53956c8b7753bcc7ec518e899007a880d7dfe0"
          ],
          "data": "0x",
          "blockHash": "0x1caa5755b8d8e0080a92feeccdb1fae5d26c5086563942c105f495dca467d31a",
          "blockNumber": "0x25cd05b",
          "blockTimestamp": "0x6943fd99",
          "transactionHash": "0xb80976fcab8db890d53b2040bfc14950b963929dbc8634acc45531437c1f57a5",
          "transactionIndex": "0x64",
          "logIndex": "0x14e",
          "removed": false
        },
        {
          "address": "0x869f8d6e8d05ec1fdeab1d5d8d67f3d224da7571",
          "topics": [
            "0xc2617efa69bab66782fa219543714338489c4e9e178271560a91b82c3f612b58",
            "0xb62efc352341bb38645c7565fe6205ab0f180a0d2065dddbff38b2f6d5fbeda7",
            "0x0000000000000000000000000000000000000000000000000000000000000000"
          ],
          "data": "0x000000000000000000000000c5cb6d1c588c5bfebd23b817ce33d9d380e50c0000000000000000000000000000000000000000000000000000000000000000000000000000000000000000000000000000000000000000000000000000000060000000000000000000000000000000000000000000000000000000000000004489810a900000000000000000000000000000000000001ff3684f28c67538d4d072c227340000000000000000000000008b53956c8b7753bcc7ec518e899007a880d7dfe000000000000000000000000000000000000000000000000000000000",
          "blockHash": "0x1caa5755b8d8e0080a92feeccdb1fae5d26c5086563942c105f495dca467d31a",
          "blockNumber": "0x25cd05b",
          "blockTimestamp": "0x6943fd99",
          "transactionHash": "0xb80976fcab8db890d53b2040bfc14950b963929dbc8634acc45531437c1f57a5",
          "transactionIndex": "0x64",
          "logIndex": "0x14f",
          "removed": false
        }
      ],
      "logsBloom": "0x00000008000000000000000000000000000000000000000000400000000000000000200000000000000000000000000000000000000800000203000100000000000000000000000000000000000000000080000000000000000000000000002000000000020000400000000008020800000000000000000000020000000000000000008000000000000000000000000000000000000002000000001000000000000000000000000000000000000000000000000000000000000000000000000000000008000000080000000000040000040000000000000000000000000020000000000000000000000000000000000000000000000000000000000000000000",
      "type": "0x2",
      "transactionHash": "0xb80976fcab8db890d53b2040bfc14950b963929dbc8634acc45531437c1f57a5",
      "transactionIndex": "0x64",
      "blockHash": "0x1caa5755b8d8e0080a92feeccdb1fae5d26c5086563942c105f495dca467d31a",
      "blockNumber": "0x25cd05b",
      "gasUsed": "0x1d2b8",
      "effectiveGasPrice": "0x2de4d8",
      "blobGasUsed": "0xc7e0",
      "from": "0xce11d6fb4f1e006e5a348230449dc387fde850cc",
      "to": "0x869f8d6e8d05ec1fdeab1d5d8d67f3d224da7571",
      "contractAddress": null,
      "daFootprintGasScalar": "0x138",
      "l1BaseFeeScalar": "0x8dd",
      "l1BlobBaseFee": "0x419191",
      "l1BlobBaseFeeScalar": "0x101c12",
      "l1Fee": "0x488a3602",
      "l1GasPrice": "0x4bba4ad",
      "l1GasUsed": "0xa40"
    }
  ],
  "libraries": [],
  "pending": [],
  "returns": {},
  "timestamp": 1766063517576,
  "chain": 8453,
  "commit": "3835213"
}