{
  "transactions": [
    {
      "hash": "0xa8f6622bc43df561c0a4985d66dc9f50315b0f2036b9e7e68431a8b966a447dd",
      "transactionType": "CALL",
      "contractName": null,
      "contractAddress": "0x8e074b7636f6a56097f1f719e708e2c932e23bab",
      "function": "schedule(address,uint256,bytes,bytes32,bytes32,uint256)",
      "arguments": [
        "0x4A5c3Cca0Ac2a1949D600891A89dd19B35189Cf0",
        "0",
        "0x9362149e000000000000000000000000d4a0e0b9149bcee3c920d2e00b5de09138fd8bb70000000000000000000000002d04c5bdf9ecb7b16833c4d8006c53eb0736baeb",
        "0x0000000000000000000000000000000000000000000000000000000000000000",
        "0x0dca096f280d551c33ce3810930f088d9221f851fd6c04adfafef5df6d37e65a",
        "345600"
      ],
      "transaction": {
        "from": "0xd6768630e0b26eba52d52e75a5d21989aa750113",
        "to": "0x8e074b7636f6a56097f1f719e708e2c932e23bab",
        "gas": "0x132ab",
        "value": "0x0",
        "input": "0x01d5062a0000000000000000000000004a5c3cca0ac2a1949d600891a89dd19b35189cf0000000000000000000000000000000000000000000000000000000000000000000000000000000000000000000000000000000000000000000000000000000c000000000000000000000000000000000000000000000000000000000000000000dca096f280d551c33ce3810930f088d9221f851fd6c04adfafef5df6d37e65a000000000000000000000000000000000000000000000000000000000005460000000000000000000000000000000000000000000000000000000000000000449362149e000000000000000000000000d4a0e0b9149bcee3c920d2e00b5de09138fd8bb70000000000000000000000002d04c5bdf9ecb7b16833c4d8006c53eb0736baeb00000000000000000000000000000000000000000000000000000000",
        "nonce": "0xb",
        "chainId": "0x2105"
      },
      "additionalContracts": [],
      "isFixedGasLimit": false
    }
  ],
  "receipts": [
    {
      "type": "0x2",
      "status": "0x1",
      "cumulativeGasUsed": "0x11ba0f4",
      "logs": [
        {
          "address": "0x8e074b7636f6a56097f1f719e708e2c932e23bab",
          "topics": [
            "0x4cf4410cc57040e44862ef0f45f3dd5a5e02db8eb8add648d4b0e236f1d07dca",
            "0x3b977e537910f6bdfb3b86ff2e287b4c26a5d56e58cf84a1ee4a512cc1abcf2c",
            "0x0000000000000000000000000000000000000000000000000000000000000000"
          ],
          "data": "0x0000000000000000000000004a5c3cca0ac2a1949d600891a89dd19b35189cf0000000000000000000000000000000000000000000000000000000000000000000000000000000000000000000000000000000000000000000000000000000a00000000000000000000000000000000000000000000000000000000000000000000000000000000000000000000000000000000000000000000000000005460000000000000000000000000000000000000000000000000000000000000000449362149e000000000000000000000000d4a0e0b9149bcee3c920d2e00b5de09138fd8bb70000000000000000000000002d04c5bdf9ecb7b16833c4d8006c53eb0736baeb00000000000000000000000000000000000000000000000000000000",
          "blockHash": "0x4dd09ee3da53dbba29d7772f76cda9c890f571fece472f3be66f22ae9ad6687d",
          "blockNumber": "0x2da0394",
          "blockTimestamp": "0x6a3e640b",
          "transactionHash": "0xa8f6622bc43df561c0a4985d66dc9f50315b0f2036b9e7e68431a8b966a447dd",
          "transactionIndex": "0x7a",
          "logIndex": "0x193",
          "removed": false
        },
        {
          "address": "0x8e074b7636f6a56097f1f719e708e2c932e23bab",
          "topics": [
            "0x20fda5fd27a1ea7bf5b9567f143ac5470bb059374a27e8f67cb44f946f6d0387",
            "0x3b977e537910f6bdfb3b86ff2e287b4c26a5d56e58cf84a1ee4a512cc1abcf2c"
          ],
          "data": "0x0dca096f280d551c33ce3810930f088d9221f851fd6c04adfafef5df6d37e65a",
          "blockHash": "0x4dd09ee3da53dbba29d7772f76cda9c890f571fece472f3be66f22ae9ad6687d",
          "blockNumber": "0x2da0394",
          "blockTimestamp": "0x6a3e640b",
          "transactionHash": "0xa8f6622bc43df561c0a4985d66dc9f50315b0f2036b9e7e68431a8b966a447dd",
          "transactionIndex": "0x7a",
          "logIndex": "0x194",
          "removed": false
        }
      ],
      "logsBloom": "0x00000000080000000000000040000000000000000000000000000000000000000000000000001000000000000000000100100000800000000000000000000000000000000000000000000000000000000000000000000008000000000000000000000000020000000000000000000800000080000000000000000000000000000000000000000000000000000000000000000000000000000000000000000000000000000000000000000000000000000080000000000000000000000000000000000010000000000000000000000000000000000000400000000000000020000000000000000000000000000000000000000000000000000000000000800000",
      "transactionHash": "0xa8f6622bc43df561c0a4985d66dc9f50315b0f2036b9e7e68431a8b966a447dd",
      "transactionIndex": "0x7a",
      "blockHash": "0x4dd09ee3da53dbba29d7772f76cda9c890f571fece472f3be66f22ae9ad6687d",
      "blockNumber": "0x2da0394",
      "gasUsed": "0xde06",
      "effectiveGasPrice": "0x57bcee",
      "blobGasUsed": "0x677c",
      "from": "0xd6768630e0b26eba52d52e75a5d21989aa750113",
      "to": "0x8e074b7636f6a56097f1f719e708e2c932e23bab",
      "contractAddress": null,
      "l1GasPrice": "0x60b4555",
      "l1GasUsed": "0xb31",
      "l1Fee": "0x67d6f50c",
      "l1BaseFeeScalar": "0x8dd",
      "l1BlobBaseFee": "0x576410",
      "l1BlobBaseFeeScalar": "0x101c12",
      "daFootprintGasScalar": "0x94"
    }
  ],
  "libraries": [],
  "pending": [],
  "returns": {},
  "timestamp": 1782473741989,
  "chain": 8453,
  "commit": "de5ca46"
}