{
  "transactions": [
    {
      "hash": "0x5da9176b3cb236975bc0d0ed63cfc59a283a061dd0cb01dac90f60a3407179b8",
      "transactionType": "CALL",
      "contractName": null,
      "contractAddress": "0x8e074b7636f6a56097f1f719e708e2c932e23bab",
      "function": "schedule(address,uint256,bytes,bytes32,bytes32,uint256)",
      "arguments": [
        "0x4A5c3Cca0Ac2a1949D600891A89dd19B35189Cf0",
        "0",
        "0x9362149e0000000000000000000000003ef3d8ba38ebe18db133cec108f4d14ce00dd9ae000000000000000000000000da7ac043a74f1f96da01b073743448b6ba2bfc0c",
        "0x7ac5d88a13cd2acf506ab335af9f46af373b9527f040efc590ac456670847bff",
        "0x7f55325ba79e980424c5c9b5c50869a10f75c89543cc75e973320fc25cfb0075",
        "345600"
      ],
      "transaction": {
        "from": "0xf8cbf6437d2473ec59885299af38d9a13ce97eca",
        "to": "0x8e074b7636f6a56097f1f719e708e2c932e23bab",
        "gas": "0x134bd",
        "value": "0x0",
        "input": "0x01d5062a0000000000000000000000004a5c3cca0ac2a1949d600891a89dd19b35189cf0000000000000000000000000000000000000000000000000000000000000000000000000000000000000000000000000000000000000000000000000000000c07ac5d88a13cd2acf506ab335af9f46af373b9527f040efc590ac456670847bff7f55325ba79e980424c5c9b5c50869a10f75c89543cc75e973320fc25cfb0075000000000000000000000000000000000000000000000000000000000005460000000000000000000000000000000000000000000000000000000000000000449362149e0000000000000000000000003ef3d8ba38ebe18db133cec108f4d14ce00dd9ae000000000000000000000000da7ac043a74f1f96da01b073743448b6ba2bfc0c00000000000000000000000000000000000000000000000000000000",
        "nonce": "0x7b",
        "chainId": "0x2105"
      },
      "additionalContracts": [],
      "isFixedGasLimit": false
    }
  ],
  "receipts": [
    {
      "status": "0x1",
      "cumulativeGasUsed": "0xc3084c",
      "logs": [
        {
          "address": "0x8e074b7636f6a56097f1f719e708e2c932e23bab",
          "topics": [
            "0x4cf4410cc57040e44862ef0f45f3dd5a5e02db8eb8add648d4b0e236f1d07dca",
            "0xd9747cd8fa1b848ef18c3f0ec1ef8e08a84c181bb78af546e868da0dfbd27ab5",
            "0x0000000000000000000000000000000000000000000000000000000000000000"
          ],
          "data": "0x0000000000000000000000004a5c3cca0ac2a1949d600891a89dd19b35189cf0000000000000000000000000000000000000000000000000000000000000000000000000000000000000000000000000000000000000000000000000000000a07ac5d88a13cd2acf506ab335af9f46af373b9527f040efc590ac456670847bff000000000000000000000000000000000000000000000000000000000005460000000000000000000000000000000000000000000000000000000000000000449362149e0000000000000000000000003ef3d8ba38ebe18db133cec108f4d14ce00dd9ae000000000000000000000000da7ac043a74f1f96da01b073743448b6ba2bfc0c00000000000000000000000000000000000000000000000000000000",
          "blockHash": "0x8c554e744a1473ab52e1d6ee1181aecbe7d9e76251c9877db62edb6d5772ee0c",
          "blockNumber": "0x296ecfe",
          "blockTimestamp": "0x69b836df",
          "transactionHash": "0x5da9176b3cb236975bc0d0ed63cfc59a283a061dd0cb01dac90f60a3407179b8",
          "transactionIndex": "0x3d",
          "logIndex": "0x185",
          "removed": false
        },
        {
          "address": "0x8e074b7636f6a56097f1f719e708e2c932e23bab",
          "topics": [
            "0x20fda5fd27a1ea7bf5b9567f143ac5470bb059374a27e8f67cb44f946f6d0387",
            "0xd9747cd8fa1b848ef18c3f0ec1ef8e08a84c181bb78af546e868da0dfbd27ab5"
          ],
          "data": "0x7f55325ba79e980424c5c9b5c50869a10f75c89543cc75e973320fc25cfb0075",
          "blockHash": "0x8c554e744a1473ab52e1d6ee1181aecbe7d9e76251c9877db62edb6d5772ee0c",
          "blockNumber": "0x296ecfe",
          "blockTimestamp": "0x69b836df",
          "transactionHash": "0x5da9176b3cb236975bc0d0ed63cfc59a283a061dd0cb01dac90f60a3407179b8",
          "transactionIndex": "0x3d",
          "logIndex": "0x186",
          "removed": false
        }
      ],
      "logsBloom": "0x00000000000000000000000040000000000000000000000000000000000000000000000000001000000000000000000100000000800000000000000000000000000000000000000000000000000000000000000000000008000000000000000000000000020000000000000000000800000080000000000000000000000000000000000000000000004000000000000000000200000000000000000000000000000000000000000000000000200000000000000000000000000000000000000000000010000000000000000000000000000000000000400000000000000020000000000000000000000000000000000000000000000000000000000000800000",
      "type": "0x2",
      "transactionHash": "0x5da9176b3cb236975bc0d0ed63cfc59a283a061dd0cb01dac90f60a3407179b8",
      "transactionIndex": "0x3d",
      "blockHash": "0x8c554e744a1473ab52e1d6ee1181aecbe7d9e76251c9877db62edb6d5772ee0c",
      "blockNumber": "0x296ecfe",
      "gasUsed": "0xdf86",
      "effectiveGasPrice": "0x6588cd",
      "blobGasUsed": "0x6ec4",
      "from": "0xf8cbf6437d2473ec59885299af38d9a13ce97eca",
      "to": "0x8e074b7636f6a56097f1f719e708e2c932e23bab",
      "contractAddress": null,
      "daFootprintGasScalar": "0x8b",
      "l1BaseFeeScalar": "0x8dd",
      "l1BlobBaseFee": "0xf0a0ea",
      "l1BlobBaseFeeScalar": "0x101c12",
      "l1Fee": "0x142e1901a",
      "l1GasPrice": "0x10392b61",
      "l1GasUsed": "0xcc2"
    }
  ],
  "libraries": [],
  "pending": [],
  "returns": {},
  "timestamp": 1773680355511,
  "chain": 8453,
  "commit": "dee1601"
}