{
  "transactions": [
    {
      "hash": "0x5681f7755210514e5a9d594a65a438d406077836b2c76d301ed04c1d4bab5cb1",
      "transactionType": "CALL",
      "contractName": null,
      "contractAddress": "0x8e074b7636f6a56097f1f719e708e2c932e23bab",
      "function": "schedule(address,uint256,bytes,bytes32,bytes32,uint256)",
      "arguments": [
        "0x4A5c3Cca0Ac2a1949D600891A89dd19B35189Cf0",
        "0",
        "0x9362149e000000000000000000000000aadf01dd90ae0a6bb9eb908294658037096e04040000000000000000000000003bf2b1e1da1bd2c3d397e9df06b7f717c2f12ad7",
        "0x0000000000000000000000000000000000000000000000000000000000000000",
        "0xaf3f280ce1567c10b4e0f9bf84028303af51d1fa1b5bb19b19f03bef57f09b47",
        "345600"
      ],
      "transaction": {
        "from": "0xd6768630e0b26eba52d52e75a5d21989aa750113",
        "to": "0x8e074b7636f6a56097f1f719e708e2c932e23bab",
        "gas": "0x144c6",
        "value": "0x0",
        "input": "0x01d5062a0000000000000000000000004a5c3cca0ac2a1949d600891a89dd19b35189cf0000000000000000000000000000000000000000000000000000000000000000000000000000000000000000000000000000000000000000000000000000000c00000000000000000000000000000000000000000000000000000000000000000af3f280ce1567c10b4e0f9bf84028303af51d1fa1b5bb19b19f03bef57f09b47000000000000000000000000000000000000000000000000000000000005460000000000000000000000000000000000000000000000000000000000000000449362149e000000000000000000000000aadf01dd90ae0a6bb9eb908294658037096e04040000000000000000000000003bf2b1e1da1bd2c3d397e9df06b7f717c2f12ad700000000000000000000000000000000000000000000000000000000",
        "nonce": "0x1e",
        "chainId": "0x2105"
      },
      "additionalContracts": [],
      "isFixedGasLimit": false
    }
  ],
  "receipts": [
    {
      "type": "0x2",
      "status": "0x1",
      "cumulativeGasUsed": "0x585967",
      "logs": [
        {
          "address": "0x8e074b7636f6a56097f1f719e708e2c932e23bab",
          "topics": [
            "0x4cf4410cc57040e44862ef0f45f3dd5a5e02db8eb8add648d4b0e236f1d07dca",
            "0xb07d472ed23934573b6f9d6a03e7a67c42033c15edc689867f0a2a60cec8538e",
            "0x0000000000000000000000000000000000000000000000000000000000000000"
          ],
          "data": "0x0000000000000000000000004a5c3cca0ac2a1949d600891a89dd19b35189cf0000000000000000000000000000000000000000000000000000000000000000000000000000000000000000000000000000000000000000000000000000000a00000000000000000000000000000000000000000000000000000000000000000000000000000000000000000000000000000000000000000000000000005460000000000000000000000000000000000000000000000000000000000000000449362149e000000000000000000000000aadf01dd90ae0a6bb9eb908294658037096e04040000000000000000000000003bf2b1e1da1bd2c3d397e9df06b7f717c2f12ad700000000000000000000000000000000000000000000000000000000",
          "blockHash": "0x617a56e0486f357ac2c05eac8af2c9cb785aec6f42b4bdd71bdb2a915d98ca71",
          "blockNumber": "0x2e21d7f",
          "blockTimestamp": "0x6a4e97e1",
          "transactionHash": "0x5681f7755210514e5a9d594a65a438d406077836b2c76d301ed04c1d4bab5cb1",
          "transactionIndex": "0x6f",
          "logIndex": "0x3b",
          "removed": false
        },
        {
          "address": "0x8e074b7636f6a56097f1f719e708e2c932e23bab",
          "topics": [
            "0x20fda5fd27a1ea7bf5b9567f143ac5470bb059374a27e8f67cb44f946f6d0387",
            "0xb07d472ed23934573b6f9d6a03e7a67c42033c15edc689867f0a2a60cec8538e"
          ],
          "data": "0xaf3f280ce1567c10b4e0f9bf84028303af51d1fa1b5bb19b19f03bef57f09b47",
          "blockHash": "0x617a56e0486f357ac2c05eac8af2c9cb785aec6f42b4bdd71bdb2a915d98ca71",
          "blockNumber": "0x2e21d7f",
          "blockTimestamp": "0x6a4e97e1",
          "transactionHash": "0x5681f7755210514e5a9d594a65a438d406077836b2c76d301ed04c1d4bab5cb1",
          "transactionIndex": "0x6f",
          "logIndex": "0x3c",
          "removed": false
        }
      ],
      "logsBloom": "0x00000000000000000000000040000000000000000000000000000000000000000000000000001000000000000000000100000000800000000000000000000000000000000000000000000000000000000000000000000008000000000000000000000000020000000000000000000800000080000000000000000000000000000000000000000000000000000000000000000000000000000000000000000000000000000000000000000000000000000000000000000000000000000000000000000010000000000000000000000000000000000000400000000200000020000000001000000000200000000000000000000000000000000000000000800000",
      "transactionHash": "0x5681f7755210514e5a9d594a65a438d406077836b2c76d301ed04c1d4bab5cb1",
      "transactionIndex": "0x6f",
      "blockHash": "0x617a56e0486f357ac2c05eac8af2c9cb785aec6f42b4bdd71bdb2a915d98ca71",
      "blockNumber": "0x2e21d7f",
      "gasUsed": "0xde12",
      "effectiveGasPrice": "0x5b8d80",
      "blobGasUsed": "0x677c",
      "from": "0xd6768630e0b26eba52d52e75a5d21989aa750113",
      "to": "0x8e074b7636f6a56097f1f719e708e2c932e23bab",
      "contractAddress": null,
      "l1GasPrice": "0x55c95dd",
      "l1GasUsed": "0xb31",
      "l1Fee": "0x6000c9f4",
      "l1BaseFeeScalar": "0x8dd",
      "l1BlobBaseFee": "0x52c983",
      "l1BlobBaseFeeScalar": "0x101c12",
      "daFootprintGasScalar": "0x94"
    }
  ],
  "libraries": [],
  "pending": [],
  "returns": {},
  "timestamp": 1783535586794,
  "chain": 8453,
  "commit": "5d5daf5"
}