{
  "transactions": [
    {
      "hash": "0x42f156ae78b02d7488a416283f27bf305a96909f58bbac3d38c327bf35f9088f",
      "transactionType": "CALL",
      "contractName": null,
      "contractAddress": "0x8e074b7636f6a56097f1f719e708e2c932e23bab",
      "function": "schedule(address,uint256,bytes,bytes32,bytes32,uint256)",
      "arguments": [
        "0x4A5c3Cca0Ac2a1949D600891A89dd19B35189Cf0",
        "0",
        "0x9362149e000000000000000000000000c063c3b3625df5f362f60f35b0bcd98e0fa650fb0000000000000000000000003bf2b1e1da1bd2c3d397e9df06b7f717c2f12ad7",
        "0x7ac5d88a13cd2acf506ab335af9f46af373b9527f040efc590ac456670847bff",
        "0x878d75459a06490b903438fcd12fda5d9d6645ab93a6c272a0c7f34c3f3862f9",
        "345600"
      ],
      "transaction": {
        "from": "0xf8cbf6437d2473ec59885299af38d9a13ce97eca",
        "to": "0x8e074b7636f6a56097f1f719e708e2c932e23bab",
        "gas": "0x146f8",
        "value": "0x0",
        "input": "0x01d5062a0000000000000000000000004a5c3cca0ac2a1949d600891a89dd19b35189cf0000000000000000000000000000000000000000000000000000000000000000000000000000000000000000000000000000000000000000000000000000000c07ac5d88a13cd2acf506ab335af9f46af373b9527f040efc590ac456670847bff878d75459a06490b903438fcd12fda5d9d6645ab93a6c272a0c7f34c3f3862f9000000000000000000000000000000000000000000000000000000000005460000000000000000000000000000000000000000000000000000000000000000449362149e000000000000000000000000c063c3b3625df5f362f60f35b0bcd98e0fa650fb0000000000000000000000003bf2b1e1da1bd2c3d397e9df06b7f717c2f12ad700000000000000000000000000000000000000000000000000000000",
        "nonce": "0x62",
        "chainId": "0x2105"
      },
      "additionalContracts": [],
      "isFixedGasLimit": false
    }
  ],
  "receipts": [
    {
      "status": "0x1",
      "cumulativeGasUsed": "0xd92330",
      "logs": [
        {
          "address": "0x8e074b7636f6a56097f1f719e708e2c932e23bab",
          "topics": [
            "0x4cf4410cc57040e44862ef0f45f3dd5a5e02db8eb8add648d4b0e236f1d07dca",
            "0xa0974d8ba3af65f4d90e01f87624f5f03c3345ca03f16394ad96370fd55818ed",
            "0x0000000000000000000000000000000000000000000000000000000000000000"
          ],
          "data": "0x0000000000000000000000004a5c3cca0ac2a1949d600891a89dd19b35189cf0000000000000000000000000000000000000000000000000000000000000000000000000000000000000000000000000000000000000000000000000000000a07ac5d88a13cd2acf506ab335af9f46af373b9527f040efc590ac456670847bff000000000000000000000000000000000000000000000000000000000005460000000000000000000000000000000000000000000000000000000000000000449362149e000000000000000000000000c063c3b3625df5f362f60f35b0bcd98e0fa650fb0000000000000000000000003bf2b1e1da1bd2c3d397e9df06b7f717c2f12ad700000000000000000000000000000000000000000000000000000000",
          "blockHash": "0xf73368b45e11616d642815f66929c1b71f8991b2c2fb2f525b780d4d8cd04fad",
          "blockNumber": "0x296ec44",
          "blockTimestamp": "0x69b8356b",
          "transactionHash": "0x42f156ae78b02d7488a416283f27bf305a96909f58bbac3d38c327bf35f9088f",
          "transactionIndex": "0x57",
          "logIndex": "0x164",
          "removed": false
        },
        {
          "address": "0x8e074b7636f6a56097f1f719e708e2c932e23bab",
          "topics": [
            "0x20fda5fd27a1ea7bf5b9567f143ac5470bb059374a27e8f67cb44f946f6d0387",
            "0xa0974d8ba3af65f4d90e01f87624f5f03c3345ca03f16394ad96370fd55818ed"
          ],
          "data": "0x878d75459a06490b903438fcd12fda5d9d6645ab93a6c272a0c7f34c3f3862f9",
          "blockHash": "0xf73368b45e11616d642815f66929c1b71f8991b2c2fb2f525b780d4d8cd04fad",
          "blockNumber": "0x296ec44",
          "blockTimestamp": "0x69b8356b",
          "transactionHash": "0x42f156ae78b02d7488a416283f27bf305a96909f58bbac3d38c327bf35f9088f",
          "transactionIndex": "0x57",
          "logIndex": "0x165",
          "removed": false
        }
      ],
      "logsBloom": "0x00000000000000000000000040000000000000000000000000000000000000000000000000001000000000000000000100000000800000000000000000000000000000000000000000000000000000000000000000000008000000000000000000000000020000000000000000000800000080000000000000000000000000000000000000000000000000000000000000000000000000000000000000000000000000000000000000000000000000000000000000000000000200000000000000000010000000000000000000000000000000000000400000040000000020000000000000200000000000000000000000000000000000000000000000800000",
      "type": "0x2",
      "transactionHash": "0x42f156ae78b02d7488a416283f27bf305a96909f58bbac3d38c327bf35f9088f",
      "transactionIndex": "0x57",
      "blockHash": "0xf73368b45e11616d642815f66929c1b71f8991b2c2fb2f525b780d4d8cd04fad",
      "blockNumber": "0x296ec44",
      "gasUsed": "0xdf92",
      "effectiveGasPrice": "0x6c4013",
      "blobGasUsed": "0x6ec4",
      "from": "0xf8cbf6437d2473ec59885299af38d9a13ce97eca",
      "to": "0x8e074b7636f6a56097f1f719e708e2c932e23bab",
      "contractAddress": null,
      "daFootprintGasScalar": "0x8b",
      "l1BaseFeeScalar": "0x8dd",
      "l1BlobBaseFee": "0xeed602",
      "l1BlobBaseFeeScalar": "0x101c12",
      "l1Fee": "0x138a48f9a",
      "l1GasPrice": "0xf0bb6c4",
      "l1GasUsed": "0xcc2"
    }
  ],
  "libraries": [],
  "pending": [],
  "returns": {},
  "timestamp": 1773679982461,
  "chain": 8453,
  "commit": "dee1601"
}