{
  "transactions": [
    {
      "hash": "0x38bc9e9e7eeae073de4a044b3694ec426004f30e243ea9cc649d6a59a532bbbd",
      "transactionType": "CALL",
      "contractName": null,
      "contractAddress": "0x8e074b7636f6a56097f1f719e708e2c932e23bab",
      "function": "schedule(address,uint256,bytes,bytes32,bytes32,uint256)",
      "arguments": [
        "0x4A5c3Cca0Ac2a1949D600891A89dd19B35189Cf0",
        "0",
        "0x9362149e000000000000000000000000611745c9107d0197f161556691c5129fd9b898d10000000000000000000000003bf2b1e1da1bd2c3d397e9df06b7f717c2f12ad7",
        "0x7ac5d88a13cd2acf506ab335af9f46af373b9527f040efc590ac456670847bff",
        "0x7f6ce06fe106551ed1d65668eca0c469704aaf474012e2f7b3c46a1836a131eb",
        "345600"
      ],
      "transaction": {
        "from": "0xf8cbf6437d2473ec59885299af38d9a13ce97eca",
        "to": "0x8e074b7636f6a56097f1f719e708e2c932e23bab",
        "gas": "0x146f8",
        "value": "0x0",
        "input": "0x01d5062a0000000000000000000000004a5c3cca0ac2a1949d600891a89dd19b35189cf0000000000000000000000000000000000000000000000000000000000000000000000000000000000000000000000000000000000000000000000000000000c07ac5d88a13cd2acf506ab335af9f46af373b9527f040efc590ac456670847bff7f6ce06fe106551ed1d65668eca0c469704aaf474012e2f7b3c46a1836a131eb000000000000000000000000000000000000000000000000000000000005460000000000000000000000000000000000000000000000000000000000000000449362149e000000000000000000000000611745c9107d0197f161556691c5129fd9b898d10000000000000000000000003bf2b1e1da1bd2c3d397e9df06b7f717c2f12ad700000000000000000000000000000000000000000000000000000000",
        "nonce": "0x6a",
        "chainId": "0x2105"
      },
      "additionalContracts": [],
      "isFixedGasLimit": false
    }
  ],
  "receipts": [
    {
      "status": "0x1",
      "cumulativeGasUsed": "0x1c9af7f",
      "logs": [
        {
          "address": "0x8e074b7636f6a56097f1f719e708e2c932e23bab",
          "topics": [
            "0x4cf4410cc57040e44862ef0f45f3dd5a5e02db8eb8add648d4b0e236f1d07dca",
            "0xc180ded3783e86f338417092522a6a1ae4d6a86659c5475af44c1f7af6280d63",
            "0x0000000000000000000000000000000000000000000000000000000000000000"
          ],
          "data": "0x0000000000000000000000004a5c3cca0ac2a1949d600891a89dd19b35189cf0000000000000000000000000000000000000000000000000000000000000000000000000000000000000000000000000000000000000000000000000000000a07ac5d88a13cd2acf506ab335af9f46af373b9527f040efc590ac456670847bff000000000000000000000000000000000000000000000000000000000005460000000000000000000000000000000000000000000000000000000000000000449362149e000000000000000000000000611745c9107d0197f161556691c5129fd9b898d10000000000000000000000003bf2b1e1da1bd2c3d397e9df06b7f717c2f12ad700000000000000000000000000000000000000000000000000000000",
          "blockHash": "0x573736970c4f246967926d0a4846217dd95dce2c4abd0a6a50858fd7151784d1",
          "blockNumber": "0x296ec81",
          "blockTimestamp": "0x69b835e5",
          "transactionHash": "0x38bc9e9e7eeae073de4a044b3694ec426004f30e243ea9cc649d6a59a532bbbd",
          "transactionIndex": "0x72",
          "logIndex": "0x2a6",
          "removed": false
        },
        {
          "address": "0x8e074b7636f6a56097f1f719e708e2c932e23bab",
          "topics": [
            "0x20fda5fd27a1ea7bf5b9567f143ac5470bb059374a27e8f67cb44f946f6d0387",
            "0xc180ded3783e86f338417092522a6a1ae4d6a86659c5475af44c1f7af6280d63"
          ],
          "data": "0x7f6ce06fe106551ed1d65668eca0c469704aaf474012e2f7b3c46a1836a131eb",
          "blockHash": "0x573736970c4f246967926d0a4846217dd95dce2c4abd0a6a50858fd7151784d1",
          "blockNumber": "0x296ec81",
          "blockTimestamp": "0x69b835e5",
          "transactionHash": "0x38bc9e9e7eeae073de4a044b3694ec426004f30e243ea9cc649d6a59a532bbbd",
          "transactionIndex": "0x72",
          "logIndex": "0x2a7",
          "removed": false
        }
      ],
      "logsBloom": "0x00000000000000000000000040000000000000000000000000000000000000000000000000001000000000000000000100000000800000000000000000000000000000000000000000000000000000000000000000000028000000000200000000000000020000000000000000000800000080000000000000000000000000000000000000000000000000000000000000000000000000000000000000000000000000000000000000000004000000000000000000000000000000000000000000000010000000000000000000000000000000000000400000000000000020000000000000000000000000000000000000000000000000000000000000800000",
      "type": "0x2",
      "transactionHash": "0x38bc9e9e7eeae073de4a044b3694ec426004f30e243ea9cc649d6a59a532bbbd",
      "transactionIndex": "0x72",
      "blockHash": "0x573736970c4f246967926d0a4846217dd95dce2c4abd0a6a50858fd7151784d1",
      "blockNumber": "0x296ec81",
      "gasUsed": "0xdf92",
      "effectiveGasPrice": "0x65ae0a",
      "blobGasUsed": "0x6e39",
      "from": "0xf8cbf6437d2473ec59885299af38d9a13ce97eca",
      "to": "0x8e074b7636f6a56097f1f719e708e2c932e23bab",
      "contractAddress": null,
      "daFootprintGasScalar": "0x8b",
      "l1BaseFeeScalar": "0x8dd",
      "l1BlobBaseFee": "0xed0e77",
      "l1BlobBaseFeeScalar": "0x101c12",
      "l1Fee": "0x1331ce8e4",
      "l1GasPrice": "0xeac1d95",
      "l1GasUsed": "0xcb5"
    }
  ],
  "libraries": [],
  "pending": [],
  "returns": {},
  "timestamp": 1773680105254,
  "chain": 8453,
  "commit": "dee1601"
}