{
  "transactions": [
    {
      "hash": "0x8514f1bc445f33621d9e5e2e058ab59443324c30eca3cca58d05c4af52d53b2f",
      "transactionType": "CALL",
      "contractName": null,
      "contractAddress": "0x8e074b7636f6a56097f1f719e708e2c932e23bab",
      "function": "schedule(address,uint256,bytes,bytes32,bytes32,uint256)",
      "arguments": [
        "0x4A5c3Cca0Ac2a1949D600891A89dd19B35189Cf0",
        "0",
        "0x9362149e000000000000000000000000b125e6687d4313864e53df431d5425969c15eb2f00000000000000000000000066621c39cdea3359c22b6d9de101a3b9d19b3ad0",
        "0x7ac5d88a13cd2acf506ab335af9f46af373b9527f040efc590ac456670847bff",
        "0x43cc9b1eaba8799069d657d3792b4c9da87d8e404487a958d5c6ffe0ff67e742",
        "345600"
      ],
      "transaction": {
        "from": "0xf8cbf6437d2473ec59885299af38d9a13ce97eca",
        "to": "0x8e074b7636f6a56097f1f719e708e2c932e23bab",
        "gas": "0x146f8",
        "value": "0x0",
        "input": "0x01d5062a0000000000000000000000004a5c3cca0ac2a1949d600891a89dd19b35189cf0000000000000000000000000000000000000000000000000000000000000000000000000000000000000000000000000000000000000000000000000000000c07ac5d88a13cd2acf506ab335af9f46af373b9527f040efc590ac456670847bff43cc9b1eaba8799069d657d3792b4c9da87d8e404487a958d5c6ffe0ff67e742000000000000000000000000000000000000000000000000000000000005460000000000000000000000000000000000000000000000000000000000000000449362149e000000000000000000000000b125e6687d4313864e53df431d5425969c15eb2f00000000000000000000000066621c39cdea3359c22b6d9de101a3b9d19b3ad000000000000000000000000000000000000000000000000000000000",
        "nonce": "0x76",
        "chainId": "0x2105"
      },
      "additionalContracts": [],
      "isFixedGasLimit": false
    }
  ],
  "receipts": [
    {
      "status": "0x1",
      "cumulativeGasUsed": "0xf6d2f1",
      "logs": [
        {
          "address": "0x8e074b7636f6a56097f1f719e708e2c932e23bab",
          "topics": [
            "0x4cf4410cc57040e44862ef0f45f3dd5a5e02db8eb8add648d4b0e236f1d07dca",
            "0x84dd0a178da21fa6707d8933ab90bf2bbdd8d2c105506c105031dc138ae092cc",
            "0x0000000000000000000000000000000000000000000000000000000000000000"
          ],
          "data": "0x0000000000000000000000004a5c3cca0ac2a1949d600891a89dd19b35189cf0000000000000000000000000000000000000000000000000000000000000000000000000000000000000000000000000000000000000000000000000000000a07ac5d88a13cd2acf506ab335af9f46af373b9527f040efc590ac456670847bff000000000000000000000000000000000000000000000000000000000005460000000000000000000000000000000000000000000000000000000000000000449362149e000000000000000000000000b125e6687d4313864e53df431d5425969c15eb2f00000000000000000000000066621c39cdea3359c22b6d9de101a3b9d19b3ad000000000000000000000000000000000000000000000000000000000",
          "blockHash": "0x5b4ed4e7331edacb5b1314af0e5adcde6049a8c13885980afc0392b4c2e78f2a",
          "blockNumber": "0x296ecd9",
          "blockTimestamp": "0x69b83695",
          "transactionHash": "0x8514f1bc445f33621d9e5e2e058ab59443324c30eca3cca58d05c4af52d53b2f",
          "transactionIndex": "0x4b",
          "logIndex": "0x1c0",
          "removed": false
        },
        {
          "address": "0x8e074b7636f6a56097f1f719e708e2c932e23bab",
          "topics": [
            "0x20fda5fd27a1ea7bf5b9567f143ac5470bb059374a27e8f67cb44f946f6d0387",
            "0x84dd0a178da21fa6707d8933ab90bf2bbdd8d2c105506c105031dc138ae092cc"
          ],
          "data": "0x43cc9b1eaba8799069d657d3792b4c9da87d8e404487a958d5c6ffe0ff67e742",
          "blockHash": "0x5b4ed4e7331edacb5b1314af0e5adcde6049a8c13885980afc0392b4c2e78f2a",
          "blockNumber": "0x296ecd9",
          "blockTimestamp": "0x69b83695",
          "transactionHash": "0x8514f1bc445f33621d9e5e2e058ab59443324c30eca3cca58d05c4af52d53b2f",
          "transactionIndex": "0x4b",
          "logIndex": "0x1c1",
          "removed": false
        }
      ],
      "logsBloom": "0x00000000000000000000000040040000000000000000000000000000000000000000000000001000000000000000000100000000800000000000000000000000000000000000000000000000000000000000000000000008000000000000000000000000020000000000000000000800000080000000000000000000000000000000000000000000000000000000000000000002000000000000000000000000000000000000000000000000000000000000000000000000000000000000000000000010000000000000000000000000000000000000400000000000000020000000000000000000000000000000000040000000000000000000000000800000",
      "type": "0x2",
      "transactionHash": "0x8514f1bc445f33621d9e5e2e058ab59443324c30eca3cca58d05c4af52d53b2f",
      "transactionIndex": "0x4b",
      "blockHash": "0x5b4ed4e7331edacb5b1314af0e5adcde6049a8c13885980afc0392b4c2e78f2a",
      "blockNumber": "0x296ecd9",
      "gasUsed": "0xdf92",
      "effectiveGasPrice": "0x6811c4",
      "blobGasUsed": "0x6ec4",
      "from": "0xf8cbf6437d2473ec59885299af38d9a13ce97eca",
      "to": "0x8e074b7636f6a56097f1f719e708e2c932e23bab",
      "contractAddress": null,
      "daFootprintGasScalar": "0x8b",
      "l1BaseFeeScalar": "0x8dd",
      "l1BlobBaseFee": "0x102587e",
      "l1BlobBaseFeeScalar": "0x101c12",
      "l1Fee": "0x146bfd914",
      "l1GasPrice": "0xebb87bf",
      "l1GasUsed": "0xcc2"
    }
  ],
  "libraries": [],
  "pending": [],
  "returns": {},
  "timestamp": 1773680280516,
  "chain": 8453,
  "commit": "dee1601"
}