{
  "transactions": [
    {
      "hash": "0xe0796ab786ec21c42ceb04f2443dd2238828a3cd9bc2da475e22858d513b2db6",
      "transactionType": "CALL",
      "contractName": null,
      "contractAddress": "0x8e074b7636f6a56097f1f719e708e2c932e23bab",
      "function": "schedule(address,uint256,bytes,bytes32,bytes32,uint256)",
      "arguments": [
        "0x4A5c3Cca0Ac2a1949D600891A89dd19B35189Cf0",
        "0",
        "0x9362149e000000000000000000000000fefec33668e22677c4762d0853d56245a800ff080000000000000000000000003bf2b1e1da1bd2c3d397e9df06b7f717c2f12ad7",
        "0x0000000000000000000000000000000000000000000000000000000000000000",
        "0xc6b8546f8e2abb5735dcbe36cb56f76276e2c403617bec2c66f96e495a591750",
        "345600"
      ],
      "transaction": {
        "from": "0xd6768630e0b26eba52d52e75a5d21989aa750113",
        "to": "0x8e074b7636f6a56097f1f719e708e2c932e23bab",
        "gas": "0x132ab",
        "value": "0x0",
        "input": "0x01d5062a0000000000000000000000004a5c3cca0ac2a1949d600891a89dd19b35189cf0000000000000000000000000000000000000000000000000000000000000000000000000000000000000000000000000000000000000000000000000000000c00000000000000000000000000000000000000000000000000000000000000000c6b8546f8e2abb5735dcbe36cb56f76276e2c403617bec2c66f96e495a591750000000000000000000000000000000000000000000000000000000000005460000000000000000000000000000000000000000000000000000000000000000449362149e000000000000000000000000fefec33668e22677c4762d0853d56245a800ff080000000000000000000000003bf2b1e1da1bd2c3d397e9df06b7f717c2f12ad700000000000000000000000000000000000000000000000000000000",
        "nonce": "0xf",
        "chainId": "0x2105"
      },
      "additionalContracts": [],
      "isFixedGasLimit": false
    }
  ],
  "receipts": [
    {
      "type": "0x2",
      "status": "0x1",
      "cumulativeGasUsed": "0x5c3468",
      "logs": [
        {
          "address": "0x8e074b7636f6a56097f1f719e708e2c932e23bab",
          "topics": [
            "0x4cf4410cc57040e44862ef0f45f3dd5a5e02db8eb8add648d4b0e236f1d07dca",
            "0x6749c260371b652a45ebda03921f50a66c286700a00fc9c2f1bbdc210b6b8966",
            "0x0000000000000000000000000000000000000000000000000000000000000000"
          ],
          "data": "0x0000000000000000000000004a5c3cca0ac2a1949d600891a89dd19b35189cf0000000000000000000000000000000000000000000000000000000000000000000000000000000000000000000000000000000000000000000000000000000a00000000000000000000000000000000000000000000000000000000000000000000000000000000000000000000000000000000000000000000000000005460000000000000000000000000000000000000000000000000000000000000000449362149e000000000000000000000000fefec33668e22677c4762d0853d56245a800ff080000000000000000000000003bf2b1e1da1bd2c3d397e9df06b7f717c2f12ad700000000000000000000000000000000000000000000000000000000",
          "blockHash": "0x8ad8eeca1e72719de30bb8a13bd4d8d1d3fcd57dcadc0fcb739325dcbcef8ec3",
          "blockNumber": "0x2da03ac",
          "blockTimestamp": "0x6a3e643b",
          "transactionHash": "0xe0796ab786ec21c42ceb04f2443dd2238828a3cd9bc2da475e22858d513b2db6",
          "transactionIndex": "0x22",
          "logIndex": "0xba",
          "removed": false
        },
        {
          "address": "0x8e074b7636f6a56097f1f719e708e2c932e23bab",
          "topics": [
            "0x20fda5fd27a1ea7bf5b9567f143ac5470bb059374a27e8f67cb44f946f6d0387",
            "0x6749c260371b652a45ebda03921f50a66c286700a00fc9c2f1bbdc210b6b8966"
          ],
          "data": "0xc6b8546f8e2abb5735dcbe36cb56f76276e2c403617bec2c66f96e495a591750",
          "blockHash": "0x8ad8eeca1e72719de30bb8a13bd4d8d1d3fcd57dcadc0fcb739325dcbcef8ec3",
          "blockNumber": "0x2da03ac",
          "blockTimestamp": "0x6a3e643b",
          "transactionHash": "0xe0796ab786ec21c42ceb04f2443dd2238828a3cd9bc2da475e22858d513b2db6",
          "transactionIndex": "0x22",
          "logIndex": "0xbb",
          "removed": false
        }
      ],
      "logsBloom": "0x00000000000000000000000040000100000000000000000000000000000000000000000000001000000000000000000100000000800000000000000000000000000000000000000000000000000000000000000000000008000000000000000000000000020000000000000000000800000080000000000000000000000000000000000000000000000000000000000000000000000000000000000000000000000000000000400000000000000000000000000000000000000000000000000000000010000000000000000000000000000000000000400000000000200020000000000000000000000000000000000000000000000000000000000000800000",
      "transactionHash": "0xe0796ab786ec21c42ceb04f2443dd2238828a3cd9bc2da475e22858d513b2db6",
      "transactionIndex": "0x22",
      "blockHash": "0x8ad8eeca1e72719de30bb8a13bd4d8d1d3fcd57dcadc0fcb739325dcbcef8ec3",
      "blockNumber": "0x2da03ac",
      "gasUsed": "0xde06",
      "effectiveGasPrice": "0x57bcf3",
      "blobGasUsed": "0x677c",
      "from": "0xd6768630e0b26eba52d52e75a5d21989aa750113",
      "to": "0x8e074b7636f6a56097f1f719e708e2c932e23bab",
      "contractAddress": null,
      "l1GasPrice": "0x5adc4b2",
      "l1GasUsed": "0xb31",
      "l1Fee": "0x68ae0f0c",
      "l1BaseFeeScalar": "0x8dd",
      "l1BlobBaseFee": "0x5bbe67",
      "l1BlobBaseFeeScalar": "0x101c12",
      "daFootprintGasScalar": "0x94"
    }
  ],
  "libraries": [],
  "pending": [],
  "returns": {},
  "timestamp": 1782473790518,
  "chain": 8453,
  "commit": "de5ca46"
}