{
  "transactions": [
    {
      "hash": "0x2756a740c49922b1986c2b84d4991d3a176a816f0721a112afd1726929f93e68",
      "transactionType": "CALL",
      "contractName": null,
      "contractAddress": "0x8e074b7636f6a56097f1f719e708e2c932e23bab",
      "function": "schedule(address,uint256,bytes,bytes32,bytes32,uint256)",
      "arguments": [
        "0x4A5c3Cca0Ac2a1949D600891A89dd19B35189Cf0",
        "0",
        "0x9362149e000000000000000000000000859160db5841e5cfb8d3f144c6b3381a85a4b4100000000000000000000000003bf2b1e1da1bd2c3d397e9df06b7f717c2f12ad7",
        "0x0000000000000000000000000000000000000000000000000000000000000000",
        "0x575f4b6ff98d42911d3a0904fbf1d45400a3a269cb0b1a0cf1c26e48bd07b925",
        "345600"
      ],
      "transaction": {
        "from": "0xd6768630e0b26eba52d52e75a5d21989aa750113",
        "to": "0x8e074b7636f6a56097f1f719e708e2c932e23bab",
        "gas": "0x132ab",
        "value": "0x0",
        "input": "0x01d5062a0000000000000000000000004a5c3cca0ac2a1949d600891a89dd19b35189cf0000000000000000000000000000000000000000000000000000000000000000000000000000000000000000000000000000000000000000000000000000000c00000000000000000000000000000000000000000000000000000000000000000575f4b6ff98d42911d3a0904fbf1d45400a3a269cb0b1a0cf1c26e48bd07b925000000000000000000000000000000000000000000000000000000000005460000000000000000000000000000000000000000000000000000000000000000449362149e000000000000000000000000859160db5841e5cfb8d3f144c6b3381a85a4b4100000000000000000000000003bf2b1e1da1bd2c3d397e9df06b7f717c2f12ad700000000000000000000000000000000000000000000000000000000",
        "nonce": "0x14",
        "chainId": "0x2105"
      },
      "additionalContracts": [],
      "isFixedGasLimit": false
    }
  ],
  "receipts": [
    {
      "type": "0x2",
      "status": "0x1",
      "cumulativeGasUsed": "0x2771b85",
      "logs": [
        {
          "address": "0x8e074b7636f6a56097f1f719e708e2c932e23bab",
          "topics": [
            "0x4cf4410cc57040e44862ef0f45f3dd5a5e02db8eb8add648d4b0e236f1d07dca",
            "0x02bdc785f1e99da2461aad10941884b87016d59ff3b3643accced16d76d4b620",
            "0x0000000000000000000000000000000000000000000000000000000000000000"
          ],
          "data": "0x0000000000000000000000004a5c3cca0ac2a1949d600891a89dd19b35189cf0000000000000000000000000000000000000000000000000000000000000000000000000000000000000000000000000000000000000000000000000000000a00000000000000000000000000000000000000000000000000000000000000000000000000000000000000000000000000000000000000000000000000005460000000000000000000000000000000000000000000000000000000000000000449362149e000000000000000000000000859160db5841e5cfb8d3f144c6b3381a85a4b4100000000000000000000000003bf2b1e1da1bd2c3d397e9df06b7f717c2f12ad700000000000000000000000000000000000000000000000000000000",
          "blockHash": "0x81920199124626f61eb3a73a8c863274ad8f91b439f04fb06ed35d5a3673fed7",
          "blockNumber": "0x2da03cc",
          "blockTimestamp": "0x6a3e647b",
          "transactionHash": "0x2756a740c49922b1986c2b84d4991d3a176a816f0721a112afd1726929f93e68",
          "transactionIndex": "0xf7",
          "logIndex": "0x2b2",
          "removed": false
        },
        {
          "address": "0x8e074b7636f6a56097f1f719e708e2c932e23bab",
          "topics": [
            "0x20fda5fd27a1ea7bf5b9567f143ac5470bb059374a27e8f67cb44f946f6d0387",
            "0x02bdc785f1e99da2461aad10941884b87016d59ff3b3643accced16d76d4b620"
          ],
          "data": "0x575f4b6ff98d42911d3a0904fbf1d45400a3a269cb0b1a0cf1c26e48bd07b925",
          "blockHash": "0x81920199124626f61eb3a73a8c863274ad8f91b439f04fb06ed35d5a3673fed7",
          "blockNumber": "0x2da03cc",
          "blockTimestamp": "0x6a3e647b",
          "transactionHash": "0x2756a740c49922b1986c2b84d4991d3a176a816f0721a112afd1726929f93e68",
          "transactionIndex": "0xf7",
          "logIndex": "0x2b3",
          "removed": false
        }
      ],
      "logsBloom": "0x00000000000000000000000040000000000000000000000000000000000000000000000000001000000000000000000100000000800000000000000000000000000001000000000000000001000000000000000000000008000000000000000000000000020000000000000000000800000080000000000000000000000000000000000000000000000000000000000000000000000000000000000000000000000000000000000000000000000000000000000000000000000000000000000000000010000000000000000000000000000000100000400000000000000020000000000000000000000000000000000000000000000000000000000000800000",
      "transactionHash": "0x2756a740c49922b1986c2b84d4991d3a176a816f0721a112afd1726929f93e68",
      "transactionIndex": "0xf7",
      "blockHash": "0x81920199124626f61eb3a73a8c863274ad8f91b439f04fb06ed35d5a3673fed7",
      "blockNumber": "0x2da03cc",
      "gasUsed": "0xde06",
      "effectiveGasPrice": "0x55d4aa",
      "blobGasUsed": "0x677c",
      "from": "0xd6768630e0b26eba52d52e75a5d21989aa750113",
      "to": "0x8e074b7636f6a56097f1f719e708e2c932e23bab",
      "contractAddress": null,
      "l1GasPrice": "0x5e6ae79",
      "l1GasUsed": "0xb31",
      "l1Fee": "0x644f3d5b",
      "l1BaseFeeScalar": "0x8dd",
      "l1BlobBaseFee": "0x53de8c",
      "l1BlobBaseFeeScalar": "0x101c12",
      "daFootprintGasScalar": "0x94"
    }
  ],
  "libraries": [],
  "pending": [],
  "returns": {},
  "timestamp": 1782473853957,
  "chain": 8453,
  "commit": "de5ca46"
}