{
  "transactions": [
    {
      "hash": "0x959f6ce5b9cc344d4d4022dea9f188cb1eae0022089309fd46a2c829fe5bcbc4",
      "transactionType": "CALL",
      "contractName": null,
      "contractAddress": "0x8e074b7636f6a56097f1f719e708e2c932e23bab",
      "function": "schedule(address,uint256,bytes,bytes32,bytes32,uint256)",
      "arguments": [
        "0x4A5c3Cca0Ac2a1949D600891A89dd19B35189Cf0",
        "0",
        "0x9362149e00000000000000000000000091c056b6d4311a743614fbc03ac32d4e6a2d3a3c0000000000000000000000003bf2b1e1da1bd2c3d397e9df06b7f717c2f12ad7",
        "0x0000000000000000000000000000000000000000000000000000000000000000",
        "0xa593dc3233ecb13702ee145995663e19d7fabd753b9d6d3144352f6d83ff620a",
        "345600"
      ],
      "transaction": {
        "from": "0xd6768630e0b26eba52d52e75a5d21989aa750113",
        "to": "0x8e074b7636f6a56097f1f719e708e2c932e23bab",
        "gas": "0x144c6",
        "value": "0x0",
        "input": "0x01d5062a0000000000000000000000004a5c3cca0ac2a1949d600891a89dd19b35189cf0000000000000000000000000000000000000000000000000000000000000000000000000000000000000000000000000000000000000000000000000000000c00000000000000000000000000000000000000000000000000000000000000000a593dc3233ecb13702ee145995663e19d7fabd753b9d6d3144352f6d83ff620a000000000000000000000000000000000000000000000000000000000005460000000000000000000000000000000000000000000000000000000000000000449362149e00000000000000000000000091c056b6d4311a743614fbc03ac32d4e6a2d3a3c0000000000000000000000003bf2b1e1da1bd2c3d397e9df06b7f717c2f12ad700000000000000000000000000000000000000000000000000000000",
        "nonce": "0x1d",
        "chainId": "0x2105"
      },
      "additionalContracts": [],
      "isFixedGasLimit": false
    }
  ],
  "receipts": [
    {
      "type": "0x2",
      "status": "0x1",
      "cumulativeGasUsed": "0x10bd042",
      "logs": [
        {
          "address": "0x8e074b7636f6a56097f1f719e708e2c932e23bab",
          "topics": [
            "0x4cf4410cc57040e44862ef0f45f3dd5a5e02db8eb8add648d4b0e236f1d07dca",
            "0x8b2c4f556d6b9c225b93b68c415f6e82b8f8dbcd37b8778831276500aebdcaf0",
            "0x0000000000000000000000000000000000000000000000000000000000000000"
          ],
          "data": "0x0000000000000000000000004a5c3cca0ac2a1949d600891a89dd19b35189cf0000000000000000000000000000000000000000000000000000000000000000000000000000000000000000000000000000000000000000000000000000000a00000000000000000000000000000000000000000000000000000000000000000000000000000000000000000000000000000000000000000000000000005460000000000000000000000000000000000000000000000000000000000000000449362149e00000000000000000000000091c056b6d4311a743614fbc03ac32d4e6a2d3a3c0000000000000000000000003bf2b1e1da1bd2c3d397e9df06b7f717c2f12ad700000000000000000000000000000000000000000000000000000000",
          "blockHash": "0x285ab0fd66e991c165513315eda23d21a64514256780b3391b7478ea10cfd4af",
          "blockNumber": "0x2e21d78",
          "blockTimestamp": "0x6a4e97d3",
          "transactionHash": "0x959f6ce5b9cc344d4d4022dea9f188cb1eae0022089309fd46a2c829fe5bcbc4",
          "transactionIndex": "0x178",
          "logIndex": "0x99",
          "removed": false
        },
        {
          "address": "0x8e074b7636f6a56097f1f719e708e2c932e23bab",
          "topics": [
            "0x20fda5fd27a1ea7bf5b9567f143ac5470bb059374a27e8f67cb44f946f6d0387",
            "0x8b2c4f556d6b9c225b93b68c415f6e82b8f8dbcd37b8778831276500aebdcaf0"
          ],
          "data": "0xa593dc3233ecb13702ee145995663e19d7fabd753b9d6d3144352f6d83ff620a",
          "blockHash": "0x285ab0fd66e991c165513315eda23d21a64514256780b3391b7478ea10cfd4af",
          "blockNumber": "0x2e21d78",
          "blockTimestamp": "0x6a4e97d3",
          "transactionHash": "0x959f6ce5b9cc344d4d4022dea9f188cb1eae0022089309fd46a2c829fe5bcbc4",
          "transactionIndex": "0x178",
          "logIndex": "0x9a",
          "removed": false
        }
      ],
      "logsBloom": "0x00000000000000000000000040000000000000000000000000000000000000000000000000001000000000000000000100000000800000000000000000000000000000000000000000000000000000000200000000000008000000000002000000000000020000000000000000000800000080000000000000000000000000000000000000000000000000000000000000000000000000000000000000000000000000000000000000000000000000000000000000000000000000000000000000000010000000000000000000000000000000000000400000000000000020000000000000000000000000000000000000400000000000000000000000800000",
      "transactionHash": "0x959f6ce5b9cc344d4d4022dea9f188cb1eae0022089309fd46a2c829fe5bcbc4",
      "transactionIndex": "0x178",
      "blockHash": "0x285ab0fd66e991c165513315eda23d21a64514256780b3391b7478ea10cfd4af",
      "blockNumber": "0x2e21d78",
      "gasUsed": "0xde12",
      "effectiveGasPrice": "0x5b8d80",
      "blobGasUsed": "0x677c",
      "from": "0xd6768630e0b26eba52d52e75a5d21989aa750113",
      "to": "0x8e074b7636f6a56097f1f719e708e2c932e23bab",
      "contractAddress": null,
      "l1GasPrice": "0x511b8b1",
      "l1GasUsed": "0xb31",
      "l1Fee": "0x60e863ce",
      "l1BaseFeeScalar": "0x8dd",
      "l1BlobBaseFee": "0x56961e",
      "l1BlobBaseFeeScalar": "0x101c12",
      "daFootprintGasScalar": "0x94"
    }
  ],
  "libraries": [],
  "pending": [],
  "returns": {},
  "timestamp": 1783535571895,
  "chain": 8453,
  "commit": "5d5daf5"
}