{
  "transactions": [
    {
      "hash": "0x82692ef80ba00caa415796fbbc66d9df7dc5c91c6cc2c90833e87c0abdc646a8",
      "transactionType": "CALL",
      "contractName": null,
      "contractAddress": "0x8e074b7636f6a56097f1f719e708e2c932e23bab",
      "function": "schedule(address,uint256,bytes,bytes32,bytes32,uint256)",
      "arguments": [
        "0x4A5c3Cca0Ac2a1949D600891A89dd19B35189Cf0",
        "0",
        "0x9362149e000000000000000000000000edc817a28e8b93b03976fbd4a3ddbc9f7d176c220000000000000000000000003f7de883c831b3f164bdc57855f199616ad5366a",
        "0x7ac5d88a13cd2acf506ab335af9f46af373b9527f040efc590ac456670847bff",
        "0x12bba33d5cc9e809089f6a42ccd5b28aabb3ac23d68549799442eadf77e1029f",
        "345600"
      ],
      "transaction": {
        "from": "0xf8cbf6437d2473ec59885299af38d9a13ce97eca",
        "to": "0x8e074b7636f6a56097f1f719e708e2c932e23bab",
        "gas": "0x146f8",
        "value": "0x0",
        "input": "0x01d5062a0000000000000000000000004a5c3cca0ac2a1949d600891a89dd19b35189cf0000000000000000000000000000000000000000000000000000000000000000000000000000000000000000000000000000000000000000000000000000000c07ac5d88a13cd2acf506ab335af9f46af373b9527f040efc590ac456670847bff12bba33d5cc9e809089f6a42ccd5b28aabb3ac23d68549799442eadf77e1029f000000000000000000000000000000000000000000000000000000000005460000000000000000000000000000000000000000000000000000000000000000449362149e000000000000000000000000edc817a28e8b93b03976fbd4a3ddbc9f7d176c220000000000000000000000003f7de883c831b3f164bdc57855f199616ad5366a00000000000000000000000000000000000000000000000000000000",
        "nonce": "0x77",
        "chainId": "0x2105"
      },
      "additionalContracts": [],
      "isFixedGasLimit": false
    }
  ],
  "receipts": [
    {
      "status": "0x1",
      "cumulativeGasUsed": "0x1966bc1",
      "logs": [
        {
          "address": "0x8e074b7636f6a56097f1f719e708e2c932e23bab",
          "topics": [
            "0x4cf4410cc57040e44862ef0f45f3dd5a5e02db8eb8add648d4b0e236f1d07dca",
            "0xa078db7c259d31ef94c67de12306cd4eb35e0f78b50eb90bd637bec6eefd8dec",
            "0x0000000000000000000000000000000000000000000000000000000000000000"
          ],
          "data": "0x0000000000000000000000004a5c3cca0ac2a1949d600891a89dd19b35189cf0000000000000000000000000000000000000000000000000000000000000000000000000000000000000000000000000000000000000000000000000000000a07ac5d88a13cd2acf506ab335af9f46af373b9527f040efc590ac456670847bff000000000000000000000000000000000000000000000000000000000005460000000000000000000000000000000000000000000000000000000000000000449362149e000000000000000000000000edc817a28e8b93b03976fbd4a3ddbc9f7d176c220000000000000000000000003f7de883c831b3f164bdc57855f199616ad5366a00000000000000000000000000000000000000000000000000000000",
          "blockHash": "0x3469947f89bd200635f6a0b2bcbc4b39cc38e12eff65fabde7eb7464abe8411c",
          "blockNumber": "0x296ece0",
          "blockTimestamp": "0x69b836a3",
          "transactionHash": "0x82692ef80ba00caa415796fbbc66d9df7dc5c91c6cc2c90833e87c0abdc646a8",
          "transactionIndex": "0x81",
          "logIndex": "0x265",
          "removed": false
        },
        {
          "address": "0x8e074b7636f6a56097f1f719e708e2c932e23bab",
          "topics": [
            "0x20fda5fd27a1ea7bf5b9567f143ac5470bb059374a27e8f67cb44f946f6d0387",
            "0xa078db7c259d31ef94c67de12306cd4eb35e0f78b50eb90bd637bec6eefd8dec"
          ],
          "data": "0x12bba33d5cc9e809089f6a42ccd5b28aabb3ac23d68549799442eadf77e1029f",
          "blockHash": "0x3469947f89bd200635f6a0b2bcbc4b39cc38e12eff65fabde7eb7464abe8411c",
          "blockNumber": "0x296ece0",
          "blockTimestamp": "0x69b836a3",
          "transactionHash": "0x82692ef80ba00caa415796fbbc66d9df7dc5c91c6cc2c90833e87c0abdc646a8",
          "transactionIndex": "0x81",
          "logIndex": "0x266",
          "removed": false
        }
      ],
      "logsBloom": "0x00000000000000000000000040000000000000000000000000000000000000000000000000001000000000000000000100000000800000000000000000000000000000000000000000000000004000000000000000000008000000000000000000000000020000000000000000000800000080000000000000400000000000000000000000000000000000000000000000000000000000000000000000000000000000000040000000000000000000000000000000000000000000000000000000000010000000000000000000000000000000000000400000000000000020000000000000000000000000000000000000000000000000000000000000800000",
      "type": "0x2",
      "transactionHash": "0x82692ef80ba00caa415796fbbc66d9df7dc5c91c6cc2c90833e87c0abdc646a8",
      "transactionIndex": "0x81",
      "blockHash": "0x3469947f89bd200635f6a0b2bcbc4b39cc38e12eff65fabde7eb7464abe8411c",
      "blockNumber": "0x296ece0",
      "gasUsed": "0xdf92",
      "effectiveGasPrice": "0x65a92a",
      "blobGasUsed": "0x6e39",
      "from": "0xf8cbf6437d2473ec59885299af38d9a13ce97eca",
      "to": "0x8e074b7636f6a56097f1f719e708e2c932e23bab",
      "contractAddress": null,
      "daFootprintGasScalar": "0x8b",
      "l1BaseFeeScalar": "0x8dd",
      "l1BlobBaseFee": "0xdccca3",
      "l1BlobBaseFeeScalar": "0x101c12",
      "l1Fee": "0x130885d5b",
      "l1GasPrice": "0x102b6a18",
      "l1GasUsed": "0xcb5"
    }
  ],
  "libraries": [],
  "pending": [],
  "returns": {},
  "timestamp": 1773680295321,
  "chain": 8453,
  "commit": "dee1601"
}