{
  "transactions": [
    {
      "hash": "0xc651d3ade7f471daaac396fce0295e0f9d3b37997342102d80db5ea73bb0a992",
      "transactionType": "CALL",
      "contractName": "YieldSeekerAdminTimelock",
      "contractAddress": "0x60163d6406503426e712ed6c507137229552756d",
      "function": "schedule(address,uint256,bytes,bytes32,bytes32,uint256)",
      "arguments": [
        "0x81f17748B0abE955790346B904f6B78E67594ed0",
        "0",
        "0x9362149e000000000000000000000000b99b6df96d4d5448cc0a5b3e0ef7896df9507cf5000000000000000000000000905cd24370018befb6c648420d35dfeba9e62602",
        "0x0000000000000000000000000000000000000000000000000000000000000000",
        "0x3e892fb91dfbc10d7e435e2a6a0835629c7ff7120067adc69dda34115ffd490a",
        "0"
      ],
      "transaction": {
        "from": "0xf8cbf6437d2473ec59885299af38d9a13ce97eca",
        "to": "0x60163d6406503426e712ed6c507137229552756d",
        "gas": "0x13289",
        "value": "0x0",
        "input": "0x01d5062a00000000000000000000000081f17748b0abe955790346b904f6b78e67594ed0000000000000000000000000000000000000000000000000000000000000000000000000000000000000000000000000000000000000000000000000000000c000000000000000000000000000000000000000000000000000000000000000003e892fb91dfbc10d7e435e2a6a0835629c7ff7120067adc69dda34115ffd490a000000000000000000000000000000000000000000000000000000000000000000000000000000000000000000000000000000000000000000000000000000449362149e000000000000000000000000b99b6df96d4d5448cc0a5b3e0ef7896df9507cf5000000000000000000000000905cd24370018befb6c648420d35dfeba9e6260200000000000000000000000000000000000000000000000000000000",
        "nonce": "0x10",
        "chainId": "0x2105"
      },
      "additionalContracts": [],
      "isFixedGasLimit": false
    },
    {
      "hash": "0x391ee4f3cbe36ecaece639f89661e9065d3cf8e4881886ef1a62ee033285f4b4",
      "transactionType": "CALL",
      "contractName": "YieldSeekerAdminTimelock",
      "contractAddress": "0x60163d6406503426e712ed6c507137229552756d",
      "function": "execute(address,uint256,bytes,bytes32,bytes32)",
      "arguments": [
        "0x81f17748B0abE955790346B904f6B78E67594ed0",
        "0",
        "0x9362149e000000000000000000000000b99b6df96d4d5448cc0a5b3e0ef7896df9507cf5000000000000000000000000905cd24370018befb6c648420d35dfeba9e62602",
        "0x0000000000000000000000000000000000000000000000000000000000000000",
        "0x3e892fb91dfbc10d7e435e2a6a0835629c7ff7120067adc69dda34115ffd490a"
      ],
      "transaction": {
        "from": "0xf8cbf6437d2473ec59885299af38d9a13ce97eca",
        "to": "0x60163d6406503426e712ed6c507137229552756d",
        "gas": "0x2ad3c",
        "value": "0x0",
        "input": "0x134008d300000000000000000000000081f17748b0abe955790346b904f6b78e67594ed0000000000000000000000000000000000000000000000000000000000000000000000000000000000000000000000000000000000000000000000000000000a000000000000000000000000000000000000000000000000000000000000000003e892fb91dfbc10d7e435e2a6a0835629c7ff7120067adc69dda34115ffd490a00000000000000000000000000000000000000000000000000000000000000449362149e000000000000000000000000b99b6df96d4d5448cc0a5b3e0ef7896df9507cf5000000000000000000000000905cd24370018befb6c648420d35dfeba9e6260200000000000000000000000000000000000000000000000000000000",
        "nonce": "0x11",
        "chainId": "0x2105"
      },
      "additionalContracts": [],
      "isFixedGasLimit": false
    }
  ],
  "receipts": [
    {
      "status": "0x1",
      "cumulativeGasUsed": "0x2b88885",
      "logs": [
        {
          "address": "0x60163d6406503426e712ed6c507137229552756d",
          "topics": [
            "0x4cf4410cc57040e44862ef0f45f3dd5a5e02db8eb8add648d4b0e236f1d07dca",
            "0x5990e298549c8a706161c711a4999036aa0adbc38e849561e67e332ffc44db78",
            "0x0000000000000000000000000000000000000000000000000000000000000000"
          ],
          "data": "0x00000000000000000000000081f17748b0abe955790346b904f6b78e67594ed0000000000000000000000000000000000000000000000000000000000000000000000000000000000000000000000000000000000000000000000000000000a00000000000000000000000000000000000000000000000000000000000000000000000000000000000000000000000000000000000000000000000000000000000000000000000000000000000000000000000000000000000000000000000449362149e000000000000000000000000b99b6df96d4d5448cc0a5b3e0ef7896df9507cf5000000000000000000000000905cd24370018befb6c648420d35dfeba9e6260200000000000000000000000000000000000000000000000000000000",
          "blockHash": "0x930b31f7343387cf99a70c7625778f7e10a9d46455654a0e77b8df6aacb83f4d",
          "blockNumber": "0x26c1675",
          "blockTimestamp": "0x696289cd",
          "transactionHash": "0xc651d3ade7f471daaac396fce0295e0f9d3b37997342102d80db5ea73bb0a992",
          "transactionIndex": "0xb4",
          "logIndex": "0x412",
          "removed": false
        },
        {
          "address": "0x60163d6406503426e712ed6c507137229552756d",
          "topics": [
            "0x20fda5fd27a1ea7bf5b9567f143ac5470bb059374a27e8f67cb44f946f6d0387",
            "0x5990e298549c8a706161c711a4999036aa0adbc38e849561e67e332ffc44db78"
          ],
          "data": "0x3e892fb91dfbc10d7e435e2a6a0835629c7ff7120067adc69dda34115ffd490a",
          "blockHash": "0x930b31f7343387cf99a70c7625778f7e10a9d46455654a0e77b8df6aacb83f4d",
          "blockNumber": "0x26c1675",
          "blockTimestamp": "0x696289cd",
          "transactionHash": "0xc651d3ade7f471daaac396fce0295e0f9d3b37997342102d80db5ea73bb0a992",
          "transactionIndex": "0xb4",
          "logIndex": "0x413",
          "removed": false
        }
      ],
      "logsBloom": "0x00000000000000000000000040000000000000000000000000000000000000080000000000000000000000000000000100000000800000000000000000000000000000000000000000000000000000000000000000000008000000000000000000080000020000000000000000000800000080000000000000000000000100000000000000040040000000000000000000000000000000000000000000000000000004000000000000000000000000000000000000000000000000000000000000000000000000000000000000000000000000000000400000000000000020000000000000000000000000000000000000000000000000000000000000000000",
      "type": "0x2",
      "transactionHash": "0xc651d3ade7f471daaac396fce0295e0f9d3b37997342102d80db5ea73bb0a992",
      "transactionIndex": "0xb4",
      "blockHash": "0x930b31f7343387cf99a70c7625778f7e10a9d46455654a0e77b8df6aacb83f4d",
      "blockNumber": "0x26c1675",
      "gasUsed": "0xddee",
      "effectiveGasPrice": "0xf3abd",
      "blobGasUsed": "0xd68d",
      "from": "0xf8cbf6437d2473ec59885299af38d9a13ce97eca",
      "to": "0x60163d6406503426e712ed6c507137229552756d",
      "contractAddress": null,
      "daFootprintGasScalar": "0x145",
      "l1BaseFeeScalar": "0x8dd",
      "l1BlobBaseFee": "0x1b57ef",
      "l1BlobBaseFeeScalar": "0x101c12",
      "l1Fee": "0x1d6eb85e",
      "l1GasPrice": "0x1aa7f59",
      "l1GasUsed": "0xa9e"
    },
    {
      "status": "0x1",
      "cumulativeGasUsed": "0x2ba5d0f",
      "logs": [
        {
          "address": "0x81f17748b0abe955790346b904f6b78e67594ed0",
          "topics": [
            "0x1cf35c87329e14a81fdc68af8a463c1db203ccfc925ff5150f5dbc71bc4c2372",
            "0x000000000000000000000000b99b6df96d4d5448cc0a5b3e0ef7896df9507cf5",
            "0x000000000000000000000000905cd24370018befb6c648420d35dfeba9e62602"
          ],
          "data": "0x",
          "blockHash": "0x930b31f7343387cf99a70c7625778f7e10a9d46455654a0e77b8df6aacb83f4d",
          "blockNumber": "0x26c1675",
          "blockTimestamp": "0x696289cd",
          "transactionHash": "0x391ee4f3cbe36ecaece639f89661e9065d3cf8e4881886ef1a62ee033285f4b4",
          "transactionIndex": "0xb5",
          "logIndex": "0x414",
          "removed": false
        },
        {
          "address": "0x60163d6406503426e712ed6c507137229552756d",
          "topics": [
            "0xc2617efa69bab66782fa219543714338489c4e9e178271560a91b82c3f612b58",
            "0x5990e298549c8a706161c711a4999036aa0adbc38e849561e67e332ffc44db78",
            "0x0000000000000000000000000000000000000000000000000000000000000000"
          ],
          "data": "0x00000000000000000000000081f17748b0abe955790346b904f6b78e67594ed00000000000000000000000000000000000000000000000000000000000000000000000000000000000000000000000000000000000000000000000000000006000000000000000000000000000000000000000000000000000000000000000449362149e000000000000000000000000b99b6df96d4d5448cc0a5b3e0ef7896df9507cf5000000000000000000000000905cd24370018befb6c648420d35dfeba9e6260200000000000000000000000000000000000000000000000000000000",
          "blockHash": "0x930b31f7343387cf99a70c7625778f7e10a9d46455654a0e77b8df6aacb83f4d",
          "blockNumber": "0x26c1675",
          "blockTimestamp": "0x696289cd",
          "transactionHash": "0x391ee4f3cbe36ecaece639f89661e9065d3cf8e4881886ef1a62ee033285f4b4",
          "transactionIndex": "0xb5",
          "logIndex": "0x415",
          "removed": false
        }
      ],
      "logsBloom": "0x00000000000000000000040400000000000000000000000000000000200000080000000000000000000000000000000000000000000800000200000000000000000000000000000000000000000000000000000000000000000000000400002080080000020000000000000000000800000000000000000000000000000100000000008000040040000000000000000000000000000000000000001002000000000004000000000000000000000000000000000000000000000000000000000000000000000000080000000000000000000000000000000000000000000020000000000000000000000400000000000000000000000000000000000000000800",
      "type": "0x2",
      "transactionHash": "0x391ee4f3cbe36ecaece639f89661e9065d3cf8e4881886ef1a62ee033285f4b4",
      "transactionIndex": "0xb5",
      "blockHash": "0x930b31f7343387cf99a70c7625778f7e10a9d46455654a0e77b8df6aacb83f4d",
      "blockNumber": "0x26c1675",
      "gasUsed": "0x1d48a",
      "effectiveGasPrice": "0xf3abd",
      "blobGasUsed": "0xd403",
      "from": "0xf8cbf6437d2473ec59885299af38d9a13ce97eca",
      "to": "0x60163d6406503426e712ed6c507137229552756d",
      "contractAddress": null,
      "daFootprintGasScalar": "0x145",
      "l1BaseFeeScalar": "0x8dd",
      "l1BlobBaseFee": "0x1b57ef",
      "l1BlobBaseFeeScalar": "0x101c12",
      "l1Fee": "0x1cff6b5d",
      "l1GasPrice": "0x1aa7f59",
      "l1GasUsed": "0xa76"
    }
  ],
  "libraries": [],
  "pending": [],
  "returns": {},
  "timestamp": 1768065488836,
  "chain": 8453,
  "commit": "a2591e4"
}