{
  "transactions": [
    {
      "hash": "0x495d55426390b92bb5ad920fa4d1341eb5aeea2ee7a5351972b6e724b1c78e98",
      "transactionType": "CALL",
      "contractName": null,
      "contractAddress": "0x8e074b7636f6a56097f1f719e708e2c932e23bab",
      "function": "schedule(address,uint256,bytes,bytes32,bytes32,uint256)",
      "arguments": [
        "0x4A5c3Cca0Ac2a1949D600891A89dd19B35189Cf0",
        "0",
        "0x9362149e000000000000000000000000bca4e2e24a7cfa776e4282cc8eb06f04738b71da0000000000000000000000003bf2b1e1da1bd2c3d397e9df06b7f717c2f12ad7",
        "0x0000000000000000000000000000000000000000000000000000000000000000",
        "0xf5507350d0cae5d92ffd1f713c21e01ed0426856c30ead75c7fc48bc71f6f784",
        "345600"
      ],
      "transaction": {
        "from": "0xd6768630e0b26eba52d52e75a5d21989aa750113",
        "to": "0x8e074b7636f6a56097f1f719e708e2c932e23bab",
        "gas": "0x144c6",
        "value": "0x0",
        "input": "0x01d5062a0000000000000000000000004a5c3cca0ac2a1949d600891a89dd19b35189cf0000000000000000000000000000000000000000000000000000000000000000000000000000000000000000000000000000000000000000000000000000000c00000000000000000000000000000000000000000000000000000000000000000f5507350d0cae5d92ffd1f713c21e01ed0426856c30ead75c7fc48bc71f6f784000000000000000000000000000000000000000000000000000000000005460000000000000000000000000000000000000000000000000000000000000000449362149e000000000000000000000000bca4e2e24a7cfa776e4282cc8eb06f04738b71da0000000000000000000000003bf2b1e1da1bd2c3d397e9df06b7f717c2f12ad700000000000000000000000000000000000000000000000000000000",
        "nonce": "0x13",
        "chainId": "0x2105"
      },
      "additionalContracts": [],
      "isFixedGasLimit": false
    }
  ],
  "receipts": [
    {
      "type": "0x2",
      "status": "0x1",
      "cumulativeGasUsed": "0x1102080",
      "logs": [
        {
          "address": "0x8e074b7636f6a56097f1f719e708e2c932e23bab",
          "topics": [
            "0x4cf4410cc57040e44862ef0f45f3dd5a5e02db8eb8add648d4b0e236f1d07dca",
            "0x8b70c288797d37d1abe1d9ea9108ea6562e8538f4cad4255b02067f0e9eb052a",
            "0x0000000000000000000000000000000000000000000000000000000000000000"
          ],
          "data": "0x0000000000000000000000004a5c3cca0ac2a1949d600891a89dd19b35189cf0000000000000000000000000000000000000000000000000000000000000000000000000000000000000000000000000000000000000000000000000000000a00000000000000000000000000000000000000000000000000000000000000000000000000000000000000000000000000000000000000000000000000005460000000000000000000000000000000000000000000000000000000000000000449362149e000000000000000000000000bca4e2e24a7cfa776e4282cc8eb06f04738b71da0000000000000000000000003bf2b1e1da1bd2c3d397e9df06b7f717c2f12ad700000000000000000000000000000000000000000000000000000000",
          "blockHash": "0x49ed7cc5048d4566becfb6096b55eb49400aa8abc5053880210b13b97dc0736a",
          "blockNumber": "0x2da03c6",
          "blockTimestamp": "0x6a3e646f",
          "transactionHash": "0x495d55426390b92bb5ad920fa4d1341eb5aeea2ee7a5351972b6e724b1c78e98",
          "transactionIndex": "0x7d",
          "logIndex": "0x150",
          "removed": false
        },
        {
          "address": "0x8e074b7636f6a56097f1f719e708e2c932e23bab",
          "topics": [
            "0x20fda5fd27a1ea7bf5b9567f143ac5470bb059374a27e8f67cb44f946f6d0387",
            "0x8b70c288797d37d1abe1d9ea9108ea6562e8538f4cad4255b02067f0e9eb052a"
          ],
          "data": "0xf5507350d0cae5d92ffd1f713c21e01ed0426856c30ead75c7fc48bc71f6f784",
          "blockHash": "0x49ed7cc5048d4566becfb6096b55eb49400aa8abc5053880210b13b97dc0736a",
          "blockNumber": "0x2da03c6",
          "blockTimestamp": "0x6a3e646f",
          "transactionHash": "0x495d55426390b92bb5ad920fa4d1341eb5aeea2ee7a5351972b6e724b1c78e98",
          "transactionIndex": "0x7d",
          "logIndex": "0x151",
          "removed": false
        }
      ],
      "logsBloom": "0x00000000000000000000000040000000000000000000000000000000000000000000000000001000000000000000000100000000800000000000000000000000000000000000000000000000000000000000000000000008000000000000000000000000020000000000000000000800000080000000000000000000040000000000000000000000000000000000000000000000000000000000000000000000040000000000000000000000000000000000000000000000000000000000000000000010000000000000000000000000000000000000400000000000000020000000000000000800000000000000000000000000000000000000000000800000",
      "transactionHash": "0x495d55426390b92bb5ad920fa4d1341eb5aeea2ee7a5351972b6e724b1c78e98",
      "transactionIndex": "0x7d",
      "blockHash": "0x49ed7cc5048d4566becfb6096b55eb49400aa8abc5053880210b13b97dc0736a",
      "blockNumber": "0x2da03c6",
      "gasUsed": "0xde12",
      "effectiveGasPrice": "0x5b8d80",
      "blobGasUsed": "0x677c",
      "from": "0xd6768630e0b26eba52d52e75a5d21989aa750113",
      "to": "0x8e074b7636f6a56097f1f719e708e2c932e23bab",
      "contractAddress": null,
      "l1GasPrice": "0x5ece19f",
      "l1GasUsed": "0xb31",
      "l1Fee": "0x6351d5c4",
      "l1BaseFeeScalar": "0x8dd",
      "l1BlobBaseFee": "0x5250de",
      "l1BlobBaseFeeScalar": "0x101c12",
      "daFootprintGasScalar": "0x94"
    }
  ],
  "libraries": [],
  "pending": [],
  "returns": {},
  "timestamp": 1782473842483,
  "chain": 8453,
  "commit": "de5ca46"
}