{
  "transactions": [
    {
      "hash": "0x2976ce89e3dcb1d4907ff19ddae8731ecfc6254fdb701fae85c32e592c18b28f",
      "transactionType": "CALL",
      "contractName": null,
      "contractAddress": "0x8e074b7636f6a56097f1f719e708e2c932e23bab",
      "function": "schedule(address,uint256,bytes,bytes32,bytes32,uint256)",
      "arguments": [
        "0x4A5c3Cca0Ac2a1949D600891A89dd19B35189Cf0",
        "0",
        "0x9362149e0000000000000000000000006b13c060f13af1fdb319f52315bbbf3fb1d888440000000000000000000000003bf2b1e1da1bd2c3d397e9df06b7f717c2f12ad7",
        "0x0000000000000000000000000000000000000000000000000000000000000000",
        "0xd7b1d7a56a9d8a011d8c0cfc364cc033315c1c014a064c1d8b28ed3ead396769",
        "345600"
      ],
      "transaction": {
        "from": "0xd6768630e0b26eba52d52e75a5d21989aa750113",
        "to": "0x8e074b7636f6a56097f1f719e708e2c932e23bab",
        "gas": "0x144c6",
        "value": "0x0",
        "input": "0x01d5062a0000000000000000000000004a5c3cca0ac2a1949d600891a89dd19b35189cf0000000000000000000000000000000000000000000000000000000000000000000000000000000000000000000000000000000000000000000000000000000c00000000000000000000000000000000000000000000000000000000000000000d7b1d7a56a9d8a011d8c0cfc364cc033315c1c014a064c1d8b28ed3ead396769000000000000000000000000000000000000000000000000000000000005460000000000000000000000000000000000000000000000000000000000000000449362149e0000000000000000000000006b13c060f13af1fdb319f52315bbbf3fb1d888440000000000000000000000003bf2b1e1da1bd2c3d397e9df06b7f717c2f12ad700000000000000000000000000000000000000000000000000000000",
        "nonce": "0x12",
        "chainId": "0x2105"
      },
      "additionalContracts": [],
      "isFixedGasLimit": false
    }
  ],
  "receipts": [
    {
      "type": "0x2",
      "status": "0x1",
      "cumulativeGasUsed": "0xf6ab2e",
      "logs": [
        {
          "address": "0x8e074b7636f6a56097f1f719e708e2c932e23bab",
          "topics": [
            "0x4cf4410cc57040e44862ef0f45f3dd5a5e02db8eb8add648d4b0e236f1d07dca",
            "0xe106d3c434380e243d45f26b1ecbb9f57dce934800c73ba295392648b867e4b7",
            "0x0000000000000000000000000000000000000000000000000000000000000000"
          ],
          "data": "0x0000000000000000000000004a5c3cca0ac2a1949d600891a89dd19b35189cf0000000000000000000000000000000000000000000000000000000000000000000000000000000000000000000000000000000000000000000000000000000a00000000000000000000000000000000000000000000000000000000000000000000000000000000000000000000000000000000000000000000000000005460000000000000000000000000000000000000000000000000000000000000000449362149e0000000000000000000000006b13c060f13af1fdb319f52315bbbf3fb1d888440000000000000000000000003bf2b1e1da1bd2c3d397e9df06b7f717c2f12ad700000000000000000000000000000000000000000000000000000000",
          "blockHash": "0xda3780e480e057455661cc41abac2543184a3a9f59ddef7ba26467091ecb5358",
          "blockNumber": "0x2da03bd",
          "blockTimestamp": "0x6a3e645d",
          "transactionHash": "0x2976ce89e3dcb1d4907ff19ddae8731ecfc6254fdb701fae85c32e592c18b28f",
          "transactionIndex": "0x67",
          "logIndex": "0x14c",
          "removed": false
        },
        {
          "address": "0x8e074b7636f6a56097f1f719e708e2c932e23bab",
          "topics": [
            "0x20fda5fd27a1ea7bf5b9567f143ac5470bb059374a27e8f67cb44f946f6d0387",
            "0xe106d3c434380e243d45f26b1ecbb9f57dce934800c73ba295392648b867e4b7"
          ],
          "data": "0xd7b1d7a56a9d8a011d8c0cfc364cc033315c1c014a064c1d8b28ed3ead396769",
          "blockHash": "0xda3780e480e057455661cc41abac2543184a3a9f59ddef7ba26467091ecb5358",
          "blockNumber": "0x2da03bd",
          "blockTimestamp": "0x6a3e645d",
          "transactionHash": "0x2976ce89e3dcb1d4907ff19ddae8731ecfc6254fdb701fae85c32e592c18b28f",
          "transactionIndex": "0x67",
          "logIndex": "0x14d",
          "removed": false
        }
      ],
      "logsBloom": "0x00000000000000000080000040000000000000000000000000000000000000000000000000001000000000000000000100000000800000000000000000000000000000000000000000000000000000000000000000000008000000000000000000000000020000000000000000000800000080000000000000000000000000000000000000000000000000000000000000000000000000000000000000000000000000000000001000000000000000000000000000000000000000000000000000000010000000020000000000000000000000000000400000000000000020000000000000000000000000000000000000000000000000000000000000800000",
      "transactionHash": "0x2976ce89e3dcb1d4907ff19ddae8731ecfc6254fdb701fae85c32e592c18b28f",
      "transactionIndex": "0x67",
      "blockHash": "0xda3780e480e057455661cc41abac2543184a3a9f59ddef7ba26467091ecb5358",
      "blockNumber": "0x2da03bd",
      "gasUsed": "0xde12",
      "effectiveGasPrice": "0x55d4cb",
      "blobGasUsed": "0x677c",
      "from": "0xd6768630e0b26eba52d52e75a5d21989aa750113",
      "to": "0x8e074b7636f6a56097f1f719e708e2c932e23bab",
      "contractAddress": null,
      "l1GasPrice": "0x5e8cb4f",
      "l1GasUsed": "0xb31",
      "l1Fee": "0x6289a7d2",
      "l1BaseFeeScalar": "0x8dd",
      "l1BlobBaseFee": "0x5165cf",
      "l1BlobBaseFeeScalar": "0x101c12",
      "daFootprintGasScalar": "0x94"
    }
  ],
  "libraries": [],
  "pending": [],
  "returns": {},
  "timestamp": 1782473824010,
  "chain": 8453,
  "commit": "de5ca46"
}