{
  "transactions": [
    {
      "hash": "0x155b1e59f3b550e8ebb3ab7c7108b007727fd89d19996b5a941435af46dec4c7",
      "transactionType": "CALL",
      "contractName": null,
      "contractAddress": "0x8e074b7636f6a56097f1f719e708e2c932e23bab",
      "function": "schedule(address,uint256,bytes,bytes32,bytes32,uint256)",
      "arguments": [
        "0x4A5c3Cca0Ac2a1949D600891A89dd19B35189Cf0",
        "0",
        "0x9362149e000000000000000000000000e74c499fa461af1844fca84204490877787ced560000000000000000000000003bf2b1e1da1bd2c3d397e9df06b7f717c2f12ad7",
        "0x7ac5d88a13cd2acf506ab335af9f46af373b9527f040efc590ac456670847bff",
        "0xca39b691b678a5d272e9ebff3685768b73ba5dd4927811e32eaeb5fc34bcee3e",
        "345600"
      ],
      "transaction": {
        "from": "0xf8cbf6437d2473ec59885299af38d9a13ce97eca",
        "to": "0x8e074b7636f6a56097f1f719e708e2c932e23bab",
        "gas": "0x146f8",
        "value": "0x0",
        "input": "0x01d5062a0000000000000000000000004a5c3cca0ac2a1949d600891a89dd19b35189cf0000000000000000000000000000000000000000000000000000000000000000000000000000000000000000000000000000000000000000000000000000000c07ac5d88a13cd2acf506ab335af9f46af373b9527f040efc590ac456670847bffca39b691b678a5d272e9ebff3685768b73ba5dd4927811e32eaeb5fc34bcee3e000000000000000000000000000000000000000000000000000000000005460000000000000000000000000000000000000000000000000000000000000000449362149e000000000000000000000000e74c499fa461af1844fca84204490877787ced560000000000000000000000003bf2b1e1da1bd2c3d397e9df06b7f717c2f12ad700000000000000000000000000000000000000000000000000000000",
        "nonce": "0x5f",
        "chainId": "0x2105"
      },
      "additionalContracts": [],
      "isFixedGasLimit": false
    }
  ],
  "receipts": [
    {
      "status": "0x1",
      "cumulativeGasUsed": "0x1d9858d",
      "logs": [
        {
          "address": "0x8e074b7636f6a56097f1f719e708e2c932e23bab",
          "topics": [
            "0x4cf4410cc57040e44862ef0f45f3dd5a5e02db8eb8add648d4b0e236f1d07dca",
            "0x464ddbd4563df7f3b04a525964ea9853aa74e53eba0ecce92f406ecc786121dd",
            "0x0000000000000000000000000000000000000000000000000000000000000000"
          ],
          "data": "0x0000000000000000000000004a5c3cca0ac2a1949d600891a89dd19b35189cf0000000000000000000000000000000000000000000000000000000000000000000000000000000000000000000000000000000000000000000000000000000a07ac5d88a13cd2acf506ab335af9f46af373b9527f040efc590ac456670847bff000000000000000000000000000000000000000000000000000000000005460000000000000000000000000000000000000000000000000000000000000000449362149e000000000000000000000000e74c499fa461af1844fca84204490877787ced560000000000000000000000003bf2b1e1da1bd2c3d397e9df06b7f717c2f12ad700000000000000000000000000000000000000000000000000000000",
          "blockHash": "0x8cb823841dc2e08779d92b386e80ba1458386669409ee731811be274cf4f6382",
          "blockNumber": "0x296ec2a",
          "blockTimestamp": "0x69b83537",
          "transactionHash": "0x155b1e59f3b550e8ebb3ab7c7108b007727fd89d19996b5a941435af46dec4c7",
          "transactionIndex": "0xa4",
          "logIndex": "0x2a9",
          "removed": false
        },
        {
          "address": "0x8e074b7636f6a56097f1f719e708e2c932e23bab",
          "topics": [
            "0x20fda5fd27a1ea7bf5b9567f143ac5470bb059374a27e8f67cb44f946f6d0387",
            "0x464ddbd4563df7f3b04a525964ea9853aa74e53eba0ecce92f406ecc786121dd"
          ],
          "data": "0xca39b691b678a5d272e9ebff3685768b73ba5dd4927811e32eaeb5fc34bcee3e",
          "blockHash": "0x8cb823841dc2e08779d92b386e80ba1458386669409ee731811be274cf4f6382",
          "blockNumber": "0x296ec2a",
          "blockTimestamp": "0x69b83537",
          "transactionHash": "0x155b1e59f3b550e8ebb3ab7c7108b007727fd89d19996b5a941435af46dec4c7",
          "transactionIndex": "0xa4",
          "logIndex": "0x2aa",
          "removed": false
        }
      ],
      "logsBloom": "0x00000000000000000000000040000000000000000000000000000000000000000000000000001000000000000000000100000000800000000000000000000040000000400000000000000000000000000000000000000008000000000000000000000000020000000000000000000800000080000000000000000000000000000000000000000000000000000000000000000000000000000000000000000000000000000000000000000000000000000000000000000000000000000000000000000010000000000000000000000000000010000000400000000000000020000000000000000000000000000000000000000000000000000000000000800000",
      "type": "0x2",
      "transactionHash": "0x155b1e59f3b550e8ebb3ab7c7108b007727fd89d19996b5a941435af46dec4c7",
      "transactionIndex": "0xa4",
      "blockHash": "0x8cb823841dc2e08779d92b386e80ba1458386669409ee731811be274cf4f6382",
      "blockNumber": "0x296ec2a",
      "gasUsed": "0xdf92",
      "effectiveGasPrice": "0x624696",
      "blobGasUsed": "0x6d23",
      "from": "0xf8cbf6437d2473ec59885299af38d9a13ce97eca",
      "to": "0x8e074b7636f6a56097f1f719e708e2c932e23bab",
      "contractAddress": null,
      "daFootprintGasScalar": "0x8b",
      "l1BaseFeeScalar": "0x8dd",
      "l1BlobBaseFee": "0x1035049",
      "l1BlobBaseFeeScalar": "0x101c12",
      "l1Fee": "0x1419544c0",
      "l1GasPrice": "0xe772829",
      "l1GasUsed": "0xc9a"
    }
  ],
  "libraries": [],
  "pending": [],
  "returns": {},
  "timestamp": 1773679929571,
  "chain": 8453,
  "commit": "dee1601"
}