{
  "transactions": [
    {
      "hash": "0xf64d952c0673f6a9eaa6a1859602d77acc84934803dfe94c7a8c1a0c44045669",
      "transactionType": "CALL",
      "contractName": null,
      "contractAddress": "0x8e074b7636f6a56097f1f719e708e2c932e23bab",
      "function": "schedule(address,uint256,bytes,bytes32,bytes32,uint256)",
      "arguments": [
        "0x4A5c3Cca0Ac2a1949D600891A89dd19B35189Cf0",
        "0",
        "0x9362149e000000000000000000000000cd347c1e7d600a9a3e403497562edd0a7bc3ef210000000000000000000000003bf2b1e1da1bd2c3d397e9df06b7f717c2f12ad7",
        "0x7ac5d88a13cd2acf506ab335af9f46af373b9527f040efc590ac456670847bff",
        "0xb600eee85aa67f50498b63405c9c03d7b3bb8b05271a353986d6ae5ecd503d56",
        "345600"
      ],
      "transaction": {
        "from": "0xf8cbf6437d2473ec59885299af38d9a13ce97eca",
        "to": "0x8e074b7636f6a56097f1f719e708e2c932e23bab",
        "gas": "0x134bd",
        "value": "0x0",
        "input": "0x01d5062a0000000000000000000000004a5c3cca0ac2a1949d600891a89dd19b35189cf0000000000000000000000000000000000000000000000000000000000000000000000000000000000000000000000000000000000000000000000000000000c07ac5d88a13cd2acf506ab335af9f46af373b9527f040efc590ac456670847bffb600eee85aa67f50498b63405c9c03d7b3bb8b05271a353986d6ae5ecd503d56000000000000000000000000000000000000000000000000000000000005460000000000000000000000000000000000000000000000000000000000000000449362149e000000000000000000000000cd347c1e7d600a9a3e403497562edd0a7bc3ef210000000000000000000000003bf2b1e1da1bd2c3d397e9df06b7f717c2f12ad700000000000000000000000000000000000000000000000000000000",
        "nonce": "0x51",
        "chainId": "0x2105"
      },
      "additionalContracts": [],
      "isFixedGasLimit": false
    }
  ],
  "receipts": [
    {
      "status": "0x1",
      "cumulativeGasUsed": "0x15780da",
      "logs": [
        {
          "address": "0x8e074b7636f6a56097f1f719e708e2c932e23bab",
          "topics": [
            "0x4cf4410cc57040e44862ef0f45f3dd5a5e02db8eb8add648d4b0e236f1d07dca",
            "0x73512419c76be934b4ad799f19aa6ff539640ca5798615e2cec382abc4c2c6e3",
            "0x0000000000000000000000000000000000000000000000000000000000000000"
          ],
          "data": "0x0000000000000000000000004a5c3cca0ac2a1949d600891a89dd19b35189cf0000000000000000000000000000000000000000000000000000000000000000000000000000000000000000000000000000000000000000000000000000000a07ac5d88a13cd2acf506ab335af9f46af373b9527f040efc590ac456670847bff000000000000000000000000000000000000000000000000000000000005460000000000000000000000000000000000000000000000000000000000000000449362149e000000000000000000000000cd347c1e7d600a9a3e403497562edd0a7bc3ef210000000000000000000000003bf2b1e1da1bd2c3d397e9df06b7f717c2f12ad700000000000000000000000000000000000000000000000000000000",
          "blockHash": "0x04dd11859815dcf56d36aae9a26e8d5a512c1dd610bcc17f95c5362ecfdc58a3",
          "blockNumber": "0x296ebbd",
          "blockTimestamp": "0x69b8345d",
          "transactionHash": "0xf64d952c0673f6a9eaa6a1859602d77acc84934803dfe94c7a8c1a0c44045669",
          "transactionIndex": "0x77",
          "logIndex": "0x23c",
          "removed": false
        },
        {
          "address": "0x8e074b7636f6a56097f1f719e708e2c932e23bab",
          "topics": [
            "0x20fda5fd27a1ea7bf5b9567f143ac5470bb059374a27e8f67cb44f946f6d0387",
            "0x73512419c76be934b4ad799f19aa6ff539640ca5798615e2cec382abc4c2c6e3"
          ],
          "data": "0xb600eee85aa67f50498b63405c9c03d7b3bb8b05271a353986d6ae5ecd503d56",
          "blockHash": "0x04dd11859815dcf56d36aae9a26e8d5a512c1dd610bcc17f95c5362ecfdc58a3",
          "blockNumber": "0x296ebbd",
          "blockTimestamp": "0x69b8345d",
          "transactionHash": "0xf64d952c0673f6a9eaa6a1859602d77acc84934803dfe94c7a8c1a0c44045669",
          "transactionIndex": "0x77",
          "logIndex": "0x23d",
          "removed": false
        }
      ],
      "logsBloom": "0x00000000000000000000000040000000000000000000000000000000000000000000000000001000000000000000000100000000800000000000000000000000000000008000000000000000000000000000000000000008000000000000000000000000020000000000000000000800000080000000000000000000000000000000000000000000000000000000000200000000000000000000000000000000000000000000000000000000000000000000000000000000000000000000000000000010000000000000000000000000000000000000400000000000000020000000000000020000000000000000000000000000000000000000000000800000",
      "type": "0x2",
      "transactionHash": "0xf64d952c0673f6a9eaa6a1859602d77acc84934803dfe94c7a8c1a0c44045669",
      "transactionIndex": "0x77",
      "blockHash": "0x04dd11859815dcf56d36aae9a26e8d5a512c1dd610bcc17f95c5362ecfdc58a3",
      "blockNumber": "0x296ebbd",
      "gasUsed": "0xdf86",
      "effectiveGasPrice": "0x671d8f",
      "blobGasUsed": "0x6ec4",
      "from": "0xf8cbf6437d2473ec59885299af38d9a13ce97eca",
      "to": "0x8e074b7636f6a56097f1f719e708e2c932e23bab",
      "contractAddress": null,
      "daFootprintGasScalar": "0x8b",
      "l1BaseFeeScalar": "0x8dd",
      "l1BlobBaseFee": "0xc55ec2",
      "l1BlobBaseFeeScalar": "0x101c12",
      "l1Fee": "0x1194c5a43",
      "l1GasPrice": "0xf8714c8",
      "l1GasUsed": "0xcc2"
    }
  ],
  "libraries": [],
  "pending": [],
  "returns": {},
  "timestamp": 1773679711649,
  "chain": 8453,
  "commit": "dee1601"
}