{
  "transactions": [
    {
      "hash": "0xcaa20384931174c28b86349a13e565c3dee15e0ce3dafc4d1062ad7c106bc522",
      "transactionType": "CALL",
      "contractName": null,
      "contractAddress": "0x4e5b054109d9705c39e20d1341be75dd4f47fbd0",
      "function": "schedule(address,uint256,bytes,bytes32,bytes32,uint256)",
      "arguments": [
        "0xA1DdA4d6e2838f68CC2B945F291Ad1C5Da032ce5",
        "0",
        "0x89810a90000000000000000000000000e74c499fa461af1844fca84204490877787ced56000000000000000000000000cf0cb704125dea26d327a9f729b1aaf33b487c85",
        "0x0000000000000000000000000000000000000000000000000000000000000000",
        "0xfa8f72c71a0fbc4b1eee3a1903e7a943a1c91cc67daa24462652319102828318",
        "0"
      ],
      "transaction": {
        "from": "0xce11d6fb4f1e006e5a348230449dc387fde850cc",
        "to": "0x4e5b054109d9705c39e20d1341be75dd4f47fbd0",
        "gas": "0x132b5",
        "value": "0x0",
        "input": "0x01d5062a000000000000000000000000a1dda4d6e2838f68cc2b945f291ad1c5da032ce5000000000000000000000000000000000000000000000000000000000000000000000000000000000000000000000000000000000000000000000000000000c00000000000000000000000000000000000000000000000000000000000000000fa8f72c71a0fbc4b1eee3a1903e7a943a1c91cc67daa244626523191028283180000000000000000000000000000000000000000000000000000000000000000000000000000000000000000000000000000000000000000000000000000004489810a90000000000000000000000000e74c499fa461af1844fca84204490877787ced56000000000000000000000000cf0cb704125dea26d327a9f729b1aaf33b487c8500000000000000000000000000000000000000000000000000000000",
        "nonce": "0x35",
        "chainId": "0x2105"
      },
      "additionalContracts": [],
      "isFixedGasLimit": false
    },
    {
      "hash": "0xd08ba16bac2f1d1487ffc5dade7bc0eaa27b8be02641efc72c1c0b1806341e3d",
      "transactionType": "CALL",
      "contractName": null,
      "contractAddress": "0x4e5b054109d9705c39e20d1341be75dd4f47fbd0",
      "function": "execute(address,uint256,bytes,bytes32,bytes32)",
      "arguments": [
        "0xA1DdA4d6e2838f68CC2B945F291Ad1C5Da032ce5",
        "0",
        "0x89810a90000000000000000000000000e74c499fa461af1844fca84204490877787ced56000000000000000000000000cf0cb704125dea26d327a9f729b1aaf33b487c85",
        "0x0000000000000000000000000000000000000000000000000000000000000000",
        "0xfa8f72c71a0fbc4b1eee3a1903e7a943a1c91cc67daa24462652319102828318"
      ],
      "transaction": {
        "from": "0xce11d6fb4f1e006e5a348230449dc387fde850cc",
        "to": "0x4e5b054109d9705c39e20d1341be75dd4f47fbd0",
        "gas": "0x27645",
        "value": "0x0",
        "input": "0x134008d3000000000000000000000000a1dda4d6e2838f68cc2b945f291ad1c5da032ce5000000000000000000000000000000000000000000000000000000000000000000000000000000000000000000000000000000000000000000000000000000a00000000000000000000000000000000000000000000000000000000000000000fa8f72c71a0fbc4b1eee3a1903e7a943a1c91cc67daa24462652319102828318000000000000000000000000000000000000000000000000000000000000004489810a90000000000000000000000000e74c499fa461af1844fca84204490877787ced56000000000000000000000000cf0cb704125dea26d327a9f729b1aaf33b487c8500000000000000000000000000000000000000000000000000000000",
        "nonce": "0x36",
        "chainId": "0x2105"
      },
      "additionalContracts": [],
      "isFixedGasLimit": false
    }
  ],
  "receipts": [
    {
      "status": "0x1",
      "cumulativeGasUsed": "0x33c9fef",
      "logs": [
        {
          "address": "0x4e5b054109d9705c39e20d1341be75dd4f47fbd0",
          "topics": [
            "0x4cf4410cc57040e44862ef0f45f3dd5a5e02db8eb8add648d4b0e236f1d07dca",
            "0xf077110d03c1017301d28a086a1b0d70fc4dea1502c9e499d0fc3f85180aff55",
            "0x0000000000000000000000000000000000000000000000000000000000000000"
          ],
          "data": "0x000000000000000000000000a1dda4d6e2838f68cc2b945f291ad1c5da032ce5000000000000000000000000000000000000000000000000000000000000000000000000000000000000000000000000000000000000000000000000000000a000000000000000000000000000000000000000000000000000000000000000000000000000000000000000000000000000000000000000000000000000000000000000000000000000000000000000000000000000000000000000000000004489810a90000000000000000000000000e74c499fa461af1844fca84204490877787ced56000000000000000000000000cf0cb704125dea26d327a9f729b1aaf33b487c8500000000000000000000000000000000000000000000000000000000",
          "blockHash": "0x8c8d66be89c27b7fa41963f80de05150c785ccc5694f3001128dcab0fc4653ab",
          "blockNumber": "0x25c1085",
          "blockTimestamp": "0x69427ded",
          "transactionHash": "0xcaa20384931174c28b86349a13e565c3dee15e0ce3dafc4d1062ad7c106bc522",
          "transactionIndex": "0xb9",
          "logIndex": "0x6e1",
          "removed": false
        },
        {
          "address": "0x4e5b054109d9705c39e20d1341be75dd4f47fbd0",
          "topics": [
            "0x20fda5fd27a1ea7bf5b9567f143ac5470bb059374a27e8f67cb44f946f6d0387",
            "0xf077110d03c1017301d28a086a1b0d70fc4dea1502c9e499d0fc3f85180aff55"
          ],
          "data": "0xfa8f72c71a0fbc4b1eee3a1903e7a943a1c91cc67daa24462652319102828318",
          "blockHash": "0x8c8d66be89c27b7fa41963f80de05150c785ccc5694f3001128dcab0fc4653ab",
          "blockNumber": "0x25c1085",
          "blockTimestamp": "0x69427ded",
          "transactionHash": "0xcaa20384931174c28b86349a13e565c3dee15e0ce3dafc4d1062ad7c106bc522",
          "transactionIndex": "0xb9",
          "logIndex": "0x6e2",
          "removed": false
        }
      ],
      "logsBloom": "0x00000000000000000000000040000000000000000000000000000000000000000000000000000100000000000000000100000000800000000000000000000000000000000000000000000000000000008000000000000008000000000000000000000000020800000000000000000800000080000000000000000004200000000000000000000000000000000000000000000000000000000000008000000000000000000000000000000000000000000000000000000000000000000000000000000000000000000000000000000000000000000000400000000000000020000000000000000000000000000000000000000000000000000000000000000000",
      "type": "0x2",
      "transactionHash": "0xcaa20384931174c28b86349a13e565c3dee15e0ce3dafc4d1062ad7c106bc522",
      "transactionIndex": "0xb9",
      "blockHash": "0x8c8d66be89c27b7fa41963f80de05150c785ccc5694f3001128dcab0fc4653ab",
      "blockNumber": "0x25c1085",
      "gasUsed": "0xde0e",
      "effectiveGasPrice": "0x799fa",
      "blobGasUsed": "0xd068",
      "from": "0xce11d6fb4f1e006e5a348230449dc387fde850cc",
      "to": "0x4e5b054109d9705c39e20d1341be75dd4f47fbd0",
      "contractAddress": null,
      "daFootprintGasScalar": "0x138",
      "l1BaseFeeScalar": "0x8dd",
      "l1BlobBaseFee": "0x1dbfa5",
      "l1BlobBaseFeeScalar": "0x101c12",
      "l1Fee": "0x22f668b5",
      "l1GasPrice": "0x23bf0f5",
      "l1GasUsed": "0xab8"
    },
    {
      "status": "0x1",
      "cumulativeGasUsed": "0x33e683e",
      "logs": [
        {
          "address": "0xa1dda4d6e2838f68cc2b945f291ad1c5da032ce5",
          "topics": [
            "0x1cf35c87329e14a81fdc68af8a463c1db203ccfc925ff5150f5dbc71bc4c2372",
            "0x000000000000000000000000e74c499fa461af1844fca84204490877787ced56",
            "0x000000000000000000000000cf0cb704125dea26d327a9f729b1aaf33b487c85"
          ],
          "data": "0x",
          "blockHash": "0x8c8d66be89c27b7fa41963f80de05150c785ccc5694f3001128dcab0fc4653ab",
          "blockNumber": "0x25c1085",
          "blockTimestamp": "0x69427ded",
          "transactionHash": "0xd08ba16bac2f1d1487ffc5dade7bc0eaa27b8be02641efc72c1c0b1806341e3d",
          "transactionIndex": "0xba",
          "logIndex": "0x6e3",
          "removed": false
        },
        {
          "address": "0x4e5b054109d9705c39e20d1341be75dd4f47fbd0",
          "topics": [
            "0xc2617efa69bab66782fa219543714338489c4e9e178271560a91b82c3f612b58",
            "0xf077110d03c1017301d28a086a1b0d70fc4dea1502c9e499d0fc3f85180aff55",
            "0x0000000000000000000000000000000000000000000000000000000000000000"
          ],
          "data": "0x000000000000000000000000a1dda4d6e2838f68cc2b945f291ad1c5da032ce500000000000000000000000000000000000000000000000000000000000000000000000000000000000000000000000000000000000000000000000000000060000000000000000000000000000000000000000000000000000000000000004489810a90000000000000000000000000e74c499fa461af1844fca84204490877787ced56000000000000000000000000cf0cb704125dea26d327a9f729b1aaf33b487c8500000000000000000000000000000000000000000000000000000000",
          "blockHash": "0x8c8d66be89c27b7fa41963f80de05150c785ccc5694f3001128dcab0fc4653ab",
          "blockNumber": "0x25c1085",
          "blockTimestamp": "0x69427ded",
          "transactionHash": "0xd08ba16bac2f1d1487ffc5dade7bc0eaa27b8be02641efc72c1c0b1806341e3d",
          "transactionIndex": "0xba",
          "logIndex": "0x6e4",
          "removed": false
        }
      ],
      "logsBloom": "0x00008000000000000400000000000000008000000000000000000000000000000000000000000100000000000000000008000080000800000200000000000010000000000000000000000000000000008000000000000000000000000000002000000000020800000000000000000800000000000000000000000004200000000000008000000000000000000000000000000000000000000000009000000000000000000000000000000000800000000000000000000000000000002000000000004000000000080000000000000000000000000000000000000000000020000000000000000000000000000000000000000000000000000000000000000000",
      "type": "0x2",
      "transactionHash": "0xd08ba16bac2f1d1487ffc5dade7bc0eaa27b8be02641efc72c1c0b1806341e3d",
      "transactionIndex": "0xba",
      "blockHash": "0x8c8d66be89c27b7fa41963f80de05150c785ccc5694f3001128dcab0fc4653ab",
      "blockNumber": "0x25c1085",
      "gasUsed": "0x1c84f",
      "effectiveGasPrice": "0x799fa",
      "blobGasUsed": "0xcdf8",
      "from": "0xce11d6fb4f1e006e5a348230449dc387fde850cc",
      "to": "0x4e5b054109d9705c39e20d1341be75dd4f47fbd0",
      "contractAddress": null,
      "daFootprintGasScalar": "0x138",
      "l1BaseFeeScalar": "0x8dd",
      "l1BlobBaseFee": "0x1dbfa5",
      "l1BlobBaseFeeScalar": "0x101c12",
      "l1Fee": "0x22737c40",
      "l1GasPrice": "0x23bf0f5",
      "l1GasUsed": "0xa90"
    }
  ],
  "libraries": [],
  "pending": [],
  "returns": {},
  "timestamp": 1765965296637,
  "chain": 8453,
  "commit": "60f4cda"
}