{
  "transactions": [
    {
      "hash": "0x4987bc6ae2e18c5373a9d860a877cef19e019e84f8453d4a7f5f9ad3e22b674f",
      "transactionType": "CALL",
      "contractName": null,
      "contractAddress": "0x8e074b7636f6a56097f1f719e708e2c932e23bab",
      "function": "schedule(address,uint256,bytes,bytes32,bytes32,uint256)",
      "arguments": [
        "0x4A5c3Cca0Ac2a1949D600891A89dd19B35189Cf0",
        "0",
        "0x9362149e000000000000000000000000be6d8f0d05cc4be24d5167a3ef062215be6d18a500000000000000000000000094565f4c559d146e2a3e1f18bfeb8b2319c6b0c4",
        "0x7ac5d88a13cd2acf506ab335af9f46af373b9527f040efc590ac456670847bff",
        "0x34e823252bb3457c04d518904631562ac6a758f048b0971d6cce6a9c657183d1",
        "345600"
      ],
      "transaction": {
        "from": "0xf8cbf6437d2473ec59885299af38d9a13ce97eca",
        "to": "0x8e074b7636f6a56097f1f719e708e2c932e23bab",
        "gas": "0x146f8",
        "value": "0x0",
        "input": "0x01d5062a0000000000000000000000004a5c3cca0ac2a1949d600891a89dd19b35189cf0000000000000000000000000000000000000000000000000000000000000000000000000000000000000000000000000000000000000000000000000000000c07ac5d88a13cd2acf506ab335af9f46af373b9527f040efc590ac456670847bff34e823252bb3457c04d518904631562ac6a758f048b0971d6cce6a9c657183d1000000000000000000000000000000000000000000000000000000000005460000000000000000000000000000000000000000000000000000000000000000449362149e000000000000000000000000be6d8f0d05cc4be24d5167a3ef062215be6d18a500000000000000000000000094565f4c559d146e2a3e1f18bfeb8b2319c6b0c400000000000000000000000000000000000000000000000000000000",
        "nonce": "0x7a",
        "chainId": "0x2105"
      },
      "additionalContracts": [],
      "isFixedGasLimit": false
    }
  ],
  "receipts": [
    {
      "status": "0x1",
      "cumulativeGasUsed": "0x1eae995",
      "logs": [
        {
          "address": "0x8e074b7636f6a56097f1f719e708e2c932e23bab",
          "topics": [
            "0x4cf4410cc57040e44862ef0f45f3dd5a5e02db8eb8add648d4b0e236f1d07dca",
            "0x7ba3314ef3ac5133e77fa747a3a0ead4044810eb4de53de51c27c9f3438cb7e5",
            "0x0000000000000000000000000000000000000000000000000000000000000000"
          ],
          "data": "0x0000000000000000000000004a5c3cca0ac2a1949d600891a89dd19b35189cf0000000000000000000000000000000000000000000000000000000000000000000000000000000000000000000000000000000000000000000000000000000a07ac5d88a13cd2acf506ab335af9f46af373b9527f040efc590ac456670847bff000000000000000000000000000000000000000000000000000000000005460000000000000000000000000000000000000000000000000000000000000000449362149e000000000000000000000000be6d8f0d05cc4be24d5167a3ef062215be6d18a500000000000000000000000094565f4c559d146e2a3e1f18bfeb8b2319c6b0c400000000000000000000000000000000000000000000000000000000",
          "blockHash": "0x5a7d49fba42b77b5d16cf6416bf0814c117a847d4cb0444f1db4b753d75b7171",
          "blockNumber": "0x296ecf6",
          "blockTimestamp": "0x69b836cf",
          "transactionHash": "0x4987bc6ae2e18c5373a9d860a877cef19e019e84f8453d4a7f5f9ad3e22b674f",
          "transactionIndex": "0xbe",
          "logIndex": "0x26b",
          "removed": false
        },
        {
          "address": "0x8e074b7636f6a56097f1f719e708e2c932e23bab",
          "topics": [
            "0x20fda5fd27a1ea7bf5b9567f143ac5470bb059374a27e8f67cb44f946f6d0387",
            "0x7ba3314ef3ac5133e77fa747a3a0ead4044810eb4de53de51c27c9f3438cb7e5"
          ],
          "data": "0x34e823252bb3457c04d518904631562ac6a758f048b0971d6cce6a9c657183d1",
          "blockHash": "0x5a7d49fba42b77b5d16cf6416bf0814c117a847d4cb0444f1db4b753d75b7171",
          "blockNumber": "0x296ecf6",
          "blockTimestamp": "0x69b836cf",
          "transactionHash": "0x4987bc6ae2e18c5373a9d860a877cef19e019e84f8453d4a7f5f9ad3e22b674f",
          "transactionIndex": "0xbe",
          "logIndex": "0x26c",
          "removed": false
        }
      ],
      "logsBloom": "0x00000000000000000000000040000000000000000000000000000000000000000000000000001000000000000000000100000000800000000000000000000000000000000000000000000000000000000000000000000008000000000000000000000000020000000000000000000800000080000000000000000000000000000000000000080000000000000000000000000000000000000000000000000000000000000000000000000000000000080000000000000000000000000000000000000010000000000000000000000000000000000000400000000000000020000000000000000000000000000000000000000000000000000000000000800000",
      "type": "0x2",
      "transactionHash": "0x4987bc6ae2e18c5373a9d860a877cef19e019e84f8453d4a7f5f9ad3e22b674f",
      "transactionIndex": "0xbe",
      "blockHash": "0x5a7d49fba42b77b5d16cf6416bf0814c117a847d4cb0444f1db4b753d75b7171",
      "blockNumber": "0x296ecf6",
      "gasUsed": "0xdf92",
      "effectiveGasPrice": "0x682b8e",
      "blobGasUsed": "0x6ec4",
      "from": "0xf8cbf6437d2473ec59885299af38d9a13ce97eca",
      "to": "0x8e074b7636f6a56097f1f719e708e2c932e23bab",
      "contractAddress": null,
      "daFootprintGasScalar": "0x8b",
      "l1BaseFeeScalar": "0x8dd",
      "l1BlobBaseFee": "0xea697e",
      "l1BlobBaseFeeScalar": "0x101c12",
      "l1Fee": "0x136a91bae",
      "l1GasPrice": "0xf47e862",
      "l1GasUsed": "0xcc2"
    }
  ],
  "libraries": [],
  "pending": [],
  "returns": {},
  "timestamp": 1773680339552,
  "chain": 8453,
  "commit": "dee1601"
}