{
  "transactions": [
    {
      "hash": "0x4a2b3868c099dc252f0206af62a0471cfb89058efbdab0dbc4951889ac441b28",
      "transactionType": "CALL",
      "contractName": null,
      "contractAddress": "0x8e074b7636f6a56097f1f719e708e2c932e23bab",
      "function": "schedule(address,uint256,bytes,bytes32,bytes32,uint256)",
      "arguments": [
        "0x4A5c3Cca0Ac2a1949D600891A89dd19B35189Cf0",
        "0",
        "0x9362149e000000000000000000000000628ff693426583d9a7fb391e54366292f509d4570000000000000000000000003f7de883c831b3f164bdc57855f199616ad5366a",
        "0x0000000000000000000000000000000000000000000000000000000000000000",
        "0xbafdd58f82631c810b7d804f40d0e57f0bbb4c3ba9569793fca70ba47644cb64",
        "345600"
      ],
      "transaction": {
        "from": "0xd6768630e0b26eba52d52e75a5d21989aa750113",
        "to": "0x8e074b7636f6a56097f1f719e708e2c932e23bab",
        "gas": "0x144c6",
        "value": "0x0",
        "input": "0x01d5062a0000000000000000000000004a5c3cca0ac2a1949d600891a89dd19b35189cf0000000000000000000000000000000000000000000000000000000000000000000000000000000000000000000000000000000000000000000000000000000c00000000000000000000000000000000000000000000000000000000000000000bafdd58f82631c810b7d804f40d0e57f0bbb4c3ba9569793fca70ba47644cb64000000000000000000000000000000000000000000000000000000000005460000000000000000000000000000000000000000000000000000000000000000449362149e000000000000000000000000628ff693426583d9a7fb391e54366292f509d4570000000000000000000000003f7de883c831b3f164bdc57855f199616ad5366a00000000000000000000000000000000000000000000000000000000",
        "nonce": "0xc",
        "chainId": "0x2105"
      },
      "additionalContracts": [],
      "isFixedGasLimit": false
    }
  ],
  "receipts": [
    {
      "type": "0x2",
      "status": "0x1",
      "cumulativeGasUsed": "0x9aafaa",
      "logs": [
        {
          "address": "0x8e074b7636f6a56097f1f719e708e2c932e23bab",
          "topics": [
            "0x4cf4410cc57040e44862ef0f45f3dd5a5e02db8eb8add648d4b0e236f1d07dca",
            "0xc8e4d0f22fbfd5b946e27714d9840bd225db95bbdc31eb540303dbed31491fd5",
            "0x0000000000000000000000000000000000000000000000000000000000000000"
          ],
          "data": "0x0000000000000000000000004a5c3cca0ac2a1949d600891a89dd19b35189cf0000000000000000000000000000000000000000000000000000000000000000000000000000000000000000000000000000000000000000000000000000000a00000000000000000000000000000000000000000000000000000000000000000000000000000000000000000000000000000000000000000000000000005460000000000000000000000000000000000000000000000000000000000000000449362149e000000000000000000000000628ff693426583d9a7fb391e54366292f509d4570000000000000000000000003f7de883c831b3f164bdc57855f199616ad5366a00000000000000000000000000000000000000000000000000000000",
          "blockHash": "0x450ca1ff9780c1f5a73ec50cc5689b384d80a35dfe9051c9604c27133f561c27",
          "blockNumber": "0x2da039b",
          "blockTimestamp": "0x6a3e6419",
          "transactionHash": "0x4a2b3868c099dc252f0206af62a0471cfb89058efbdab0dbc4951889ac441b28",
          "transactionIndex": "0x40",
          "logIndex": "0xcc",
          "removed": false
        },
        {
          "address": "0x8e074b7636f6a56097f1f719e708e2c932e23bab",
          "topics": [
            "0x20fda5fd27a1ea7bf5b9567f143ac5470bb059374a27e8f67cb44f946f6d0387",
            "0xc8e4d0f22fbfd5b946e27714d9840bd225db95bbdc31eb540303dbed31491fd5"
          ],
          "data": "0xbafdd58f82631c810b7d804f40d0e57f0bbb4c3ba9569793fca70ba47644cb64",
          "blockHash": "0x450ca1ff9780c1f5a73ec50cc5689b384d80a35dfe9051c9604c27133f561c27",
          "blockNumber": "0x2da039b",
          "blockTimestamp": "0x6a3e6419",
          "transactionHash": "0x4a2b3868c099dc252f0206af62a0471cfb89058efbdab0dbc4951889ac441b28",
          "transactionIndex": "0x40",
          "logIndex": "0xcd",
          "removed": false
        }
      ],
      "logsBloom": "0x00000000000000000000000040000000000200000000000000000000000000000000000000001000000000000000000100000800800000000000000000000000000000000000000000000000000000000000000100000008000000000000000000000000020000000000000000000800000080000000000000000000000000000000000000000000000000000000000000000000000000000000000000000000000000000000000000000000000000000000000000000000000000000000000000000010000000000000000000000000000000000000400000000000000020000000000000000000000000000000000000000000000000000000000000800000",
      "transactionHash": "0x4a2b3868c099dc252f0206af62a0471cfb89058efbdab0dbc4951889ac441b28",
      "transactionIndex": "0x40",
      "blockHash": "0x450ca1ff9780c1f5a73ec50cc5689b384d80a35dfe9051c9604c27133f561c27",
      "blockNumber": "0x2da039b",
      "gasUsed": "0xde12",
      "effectiveGasPrice": "0x59a537",
      "blobGasUsed": "0x677c",
      "from": "0xd6768630e0b26eba52d52e75a5d21989aa750113",
      "to": "0x8e074b7636f6a56097f1f719e708e2c932e23bab",
      "contractAddress": null,
      "l1GasPrice": "0x5fce91c",
      "l1GasUsed": "0xb31",
      "l1Fee": "0x6a2f5f75",
      "l1BaseFeeScalar": "0x8dd",
      "l1BlobBaseFee": "0x5b0f6c",
      "l1BlobBaseFeeScalar": "0x101c12",
      "daFootprintGasScalar": "0x94"
    }
  ],
  "libraries": [],
  "pending": [],
  "returns": {},
  "timestamp": 1782473755576,
  "chain": 8453,
  "commit": "de5ca46"
}