{
  "transactions": [
    {
      "hash": "0x2e1763f918e4589d7d5d37b4073361d5670223303fc177fda95bae57fd4e2b07",
      "transactionType": "CALL",
      "contractName": null,
      "contractAddress": "0x8e074b7636f6a56097f1f719e708e2c932e23bab",
      "function": "schedule(address,uint256,bytes,bytes32,bytes32,uint256)",
      "arguments": [
        "0x4A5c3Cca0Ac2a1949D600891A89dd19B35189Cf0",
        "0",
        "0x9362149e000000000000000000000000116e1a65717a534b73ecb7d4f6543c65dbcd0e460000000000000000000000003bf2b1e1da1bd2c3d397e9df06b7f717c2f12ad7",
        "0x0000000000000000000000000000000000000000000000000000000000000000",
        "0x6bf3baac9de8b1df2d2b6748ff495d96dc0b92d3847cbbaad3dd2971dce3250b",
        "345600"
      ],
      "transaction": {
        "from": "0xd6768630e0b26eba52d52e75a5d21989aa750113",
        "to": "0x8e074b7636f6a56097f1f719e708e2c932e23bab",
        "gas": "0x144c6",
        "value": "0x0",
        "input": "0x01d5062a0000000000000000000000004a5c3cca0ac2a1949d600891a89dd19b35189cf0000000000000000000000000000000000000000000000000000000000000000000000000000000000000000000000000000000000000000000000000000000c000000000000000000000000000000000000000000000000000000000000000006bf3baac9de8b1df2d2b6748ff495d96dc0b92d3847cbbaad3dd2971dce3250b000000000000000000000000000000000000000000000000000000000005460000000000000000000000000000000000000000000000000000000000000000449362149e000000000000000000000000116e1a65717a534b73ecb7d4f6543c65dbcd0e460000000000000000000000003bf2b1e1da1bd2c3d397e9df06b7f717c2f12ad700000000000000000000000000000000000000000000000000000000",
        "nonce": "0xa",
        "chainId": "0x2105"
      },
      "additionalContracts": [],
      "isFixedGasLimit": false
    }
  ],
  "receipts": [
    {
      "type": "0x2",
      "status": "0x1",
      "cumulativeGasUsed": "0x1802908",
      "logs": [
        {
          "address": "0x8e074b7636f6a56097f1f719e708e2c932e23bab",
          "topics": [
            "0x4cf4410cc57040e44862ef0f45f3dd5a5e02db8eb8add648d4b0e236f1d07dca",
            "0x787b876065baae9e4ebfc3854b87308b908032a6081500a08b15fc973c0c03fd",
            "0x0000000000000000000000000000000000000000000000000000000000000000"
          ],
          "data": "0x0000000000000000000000004a5c3cca0ac2a1949d600891a89dd19b35189cf0000000000000000000000000000000000000000000000000000000000000000000000000000000000000000000000000000000000000000000000000000000a00000000000000000000000000000000000000000000000000000000000000000000000000000000000000000000000000000000000000000000000000005460000000000000000000000000000000000000000000000000000000000000000449362149e000000000000000000000000116e1a65717a534b73ecb7d4f6543c65dbcd0e460000000000000000000000003bf2b1e1da1bd2c3d397e9df06b7f717c2f12ad700000000000000000000000000000000000000000000000000000000",
          "blockHash": "0xc735b4bb090d6e52e27aea85574ff5801d9f92c3eef65c987d59ab8284e7e020",
          "blockNumber": "0x2d8ac80",
          "blockTimestamp": "0x6a3bb5e3",
          "transactionHash": "0x2e1763f918e4589d7d5d37b4073361d5670223303fc177fda95bae57fd4e2b07",
          "transactionIndex": "0x218",
          "logIndex": "0x33",
          "removed": false
        },
        {
          "address": "0x8e074b7636f6a56097f1f719e708e2c932e23bab",
          "topics": [
            "0x20fda5fd27a1ea7bf5b9567f143ac5470bb059374a27e8f67cb44f946f6d0387",
            "0x787b876065baae9e4ebfc3854b87308b908032a6081500a08b15fc973c0c03fd"
          ],
          "data": "0x6bf3baac9de8b1df2d2b6748ff495d96dc0b92d3847cbbaad3dd2971dce3250b",
          "blockHash": "0xc735b4bb090d6e52e27aea85574ff5801d9f92c3eef65c987d59ab8284e7e020",
          "blockNumber": "0x2d8ac80",
          "blockTimestamp": "0x6a3bb5e3",
          "transactionHash": "0x2e1763f918e4589d7d5d37b4073361d5670223303fc177fda95bae57fd4e2b07",
          "transactionIndex": "0x218",
          "logIndex": "0x34",
          "removed": false
        }
      ],
      "logsBloom": "0x00000000000000000000000040000000000000000000000000000080000000000000000000001000000000000020000100000000800000000000000000000000000000000000000000000000000000000000000000000008000000000000000000000000020000000000000000000800000080000000000000000000000000000000000000000000000000000000000000000000000000000000000000000000000000000000000000000000000000000000000000000000000000000000400000000010000000000000000000000000000000000000400000000000000020000000000000000000000000000000000000000000000000000000000000800000",
      "transactionHash": "0x2e1763f918e4589d7d5d37b4073361d5670223303fc177fda95bae57fd4e2b07",
      "transactionIndex": "0x218",
      "blockHash": "0xc735b4bb090d6e52e27aea85574ff5801d9f92c3eef65c987d59ab8284e7e020",
      "blockNumber": "0x2d8ac80",
      "gasUsed": "0xde12",
      "effectiveGasPrice": "0x5b8d80",
      "blobGasUsed": "0x6654",
      "from": "0xd6768630e0b26eba52d52e75a5d21989aa750113",
      "to": "0x8e074b7636f6a56097f1f719e708e2c932e23bab",
      "contractAddress": null,
      "l1GasPrice": "0x87e2247",
      "l1GasUsed": "0xb16",
      "l1Fee": "0x9ba0f78a",
      "l1BaseFeeScalar": "0x8dd",
      "l1BlobBaseFee": "0x89f17e",
      "l1BlobBaseFeeScalar": "0x101c12",
      "daFootprintGasScalar": "0x94"
    }
  ],
  "libraries": [],
  "pending": [],
  "returns": {},
  "timestamp": 1782298088245,
  "chain": 8453,
  "commit": "0e39ed8"
}