{
  "transactions": [
    {
      "hash": "0xf5df4ddc02067310cda69e85189482b88d8e666af4e70c94a4650c42ae5fdfee",
      "transactionType": "CALL",
      "contractName": null,
      "contractAddress": "0x8e074b7636f6a56097f1f719e708e2c932e23bab",
      "function": "schedule(address,uint256,bytes,bytes32,bytes32,uint256)",
      "arguments": [
        "0x4A5c3Cca0Ac2a1949D600891A89dd19B35189Cf0",
        "0",
        "0x9362149e00000000000000000000000023479229e52ab6aad312d0b03df9f33b46753b5e0000000000000000000000003bf2b1e1da1bd2c3d397e9df06b7f717c2f12ad7",
        "0x7ac5d88a13cd2acf506ab335af9f46af373b9527f040efc590ac456670847bff",
        "0xa3661fd83a38748907ac13f9590dc14b575fca69343344bd9d0c261f62d0ad5c",
        "345600"
      ],
      "transaction": {
        "from": "0xf8cbf6437d2473ec59885299af38d9a13ce97eca",
        "to": "0x8e074b7636f6a56097f1f719e708e2c932e23bab",
        "gas": "0x146f8",
        "value": "0x0",
        "input": "0x01d5062a0000000000000000000000004a5c3cca0ac2a1949d600891a89dd19b35189cf0000000000000000000000000000000000000000000000000000000000000000000000000000000000000000000000000000000000000000000000000000000c07ac5d88a13cd2acf506ab335af9f46af373b9527f040efc590ac456670847bffa3661fd83a38748907ac13f9590dc14b575fca69343344bd9d0c261f62d0ad5c000000000000000000000000000000000000000000000000000000000005460000000000000000000000000000000000000000000000000000000000000000449362149e00000000000000000000000023479229e52ab6aad312d0b03df9f33b46753b5e0000000000000000000000003bf2b1e1da1bd2c3d397e9df06b7f717c2f12ad700000000000000000000000000000000000000000000000000000000",
        "nonce": "0x59",
        "chainId": "0x2105"
      },
      "additionalContracts": [],
      "isFixedGasLimit": false
    }
  ],
  "receipts": [
    {
      "status": "0x1",
      "cumulativeGasUsed": "0x375f12c",
      "logs": [
        {
          "address": "0x8e074b7636f6a56097f1f719e708e2c932e23bab",
          "topics": [
            "0x4cf4410cc57040e44862ef0f45f3dd5a5e02db8eb8add648d4b0e236f1d07dca",
            "0x237def9281586675cc9ebbfcb4a6407575b0ace72c3b957e69facefbe522a8f9",
            "0x0000000000000000000000000000000000000000000000000000000000000000"
          ],
          "data": "0x0000000000000000000000004a5c3cca0ac2a1949d600891a89dd19b35189cf0000000000000000000000000000000000000000000000000000000000000000000000000000000000000000000000000000000000000000000000000000000a07ac5d88a13cd2acf506ab335af9f46af373b9527f040efc590ac456670847bff000000000000000000000000000000000000000000000000000000000005460000000000000000000000000000000000000000000000000000000000000000449362149e00000000000000000000000023479229e52ab6aad312d0b03df9f33b46753b5e0000000000000000000000003bf2b1e1da1bd2c3d397e9df06b7f717c2f12ad700000000000000000000000000000000000000000000000000000000",
          "blockHash": "0x1745ca71932740c21dc083153c95ad91c0e5f7ef9844aba0c1cd27aae37ccddc",
          "blockNumber": "0x296ebfa",
          "blockTimestamp": "0x69b834d7",
          "transactionHash": "0xf5df4ddc02067310cda69e85189482b88d8e666af4e70c94a4650c42ae5fdfee",
          "transactionIndex": "0x17d",
          "logIndex": "0x409",
          "removed": false
        },
        {
          "address": "0x8e074b7636f6a56097f1f719e708e2c932e23bab",
          "topics": [
            "0x20fda5fd27a1ea7bf5b9567f143ac5470bb059374a27e8f67cb44f946f6d0387",
            "0x237def9281586675cc9ebbfcb4a6407575b0ace72c3b957e69facefbe522a8f9"
          ],
          "data": "0xa3661fd83a38748907ac13f9590dc14b575fca69343344bd9d0c261f62d0ad5c",
          "blockHash": "0x1745ca71932740c21dc083153c95ad91c0e5f7ef9844aba0c1cd27aae37ccddc",
          "blockNumber": "0x296ebfa",
          "blockTimestamp": "0x69b834d7",
          "transactionHash": "0xf5df4ddc02067310cda69e85189482b88d8e666af4e70c94a4650c42ae5fdfee",
          "transactionIndex": "0x17d",
          "logIndex": "0x40a",
          "removed": false
        }
      ],
      "logsBloom": "0x00000000000000000000004040000000000000000000000000000000000000000000000000001000000000000000000100000000800000000000000000000000000000000000400000000000000000000000000000000008000000000000000000000000020000000000000000000800000080000000200000000000000000000000000000000000000000000000000000000000000000000000000000000000000000000000000000000000000000000000000000000000000000000000000000000010000000000000000000000000000000000000400000000000000020000000000000000000000000000000000000000000000000000000000000800000",
      "type": "0x2",
      "transactionHash": "0xf5df4ddc02067310cda69e85189482b88d8e666af4e70c94a4650c42ae5fdfee",
      "transactionIndex": "0x17d",
      "blockHash": "0x1745ca71932740c21dc083153c95ad91c0e5f7ef9844aba0c1cd27aae37ccddc",
      "blockNumber": "0x296ebfa",
      "gasUsed": "0xdf92",
      "effectiveGasPrice": "0x63ddfe",
      "blobGasUsed": "0x6ec4",
      "from": "0xf8cbf6437d2473ec59885299af38d9a13ce97eca",
      "to": "0x8e074b7636f6a56097f1f719e708e2c932e23bab",
      "contractAddress": null,
      "daFootprintGasScalar": "0x8b",
      "l1BaseFeeScalar": "0x8dd",
      "l1BlobBaseFee": "0xe45b3a",
      "l1BlobBaseFeeScalar": "0x101c12",
      "l1Fee": "0x135e8f234",
      "l1GasPrice": "0xfde1770",
      "l1GasUsed": "0xcc2"
    }
  ],
  "libraries": [],
  "pending": [],
  "returns": {},
  "timestamp": 1773679834320,
  "chain": 8453,
  "commit": "dee1601"
}