{
  "transactions": [
    {
      "hash": "0x75c8ee0adc9071aa52faee8497ea615c1ad8515bbd432f0562c3ceccf62c32b8",
      "transactionType": "CALL",
      "contractName": null,
      "contractAddress": "0x8e074b7636f6a56097f1f719e708e2c932e23bab",
      "function": "schedule(address,uint256,bytes,bytes32,bytes32,uint256)",
      "arguments": [
        "0x4A5c3Cca0Ac2a1949D600891A89dd19B35189Cf0",
        "0",
        "0x9362149e0000000000000000000000007bfa7c4f149e7415b73bdedfe609237e29cbf34a0000000000000000000000003bf2b1e1da1bd2c3d397e9df06b7f717c2f12ad7",
        "0x7ac5d88a13cd2acf506ab335af9f46af373b9527f040efc590ac456670847bff",
        "0xfc3aa48d1c421050deea6740f2fc8622c5a6f3f92d97bcd4c642b77f781fe28b",
        "345600"
      ],
      "transaction": {
        "from": "0xf8cbf6437d2473ec59885299af38d9a13ce97eca",
        "to": "0x8e074b7636f6a56097f1f719e708e2c932e23bab",
        "gas": "0x146f8",
        "value": "0x0",
        "input": "0x01d5062a0000000000000000000000004a5c3cca0ac2a1949d600891a89dd19b35189cf0000000000000000000000000000000000000000000000000000000000000000000000000000000000000000000000000000000000000000000000000000000c07ac5d88a13cd2acf506ab335af9f46af373b9527f040efc590ac456670847bfffc3aa48d1c421050deea6740f2fc8622c5a6f3f92d97bcd4c642b77f781fe28b000000000000000000000000000000000000000000000000000000000005460000000000000000000000000000000000000000000000000000000000000000449362149e0000000000000000000000007bfa7c4f149e7415b73bdedfe609237e29cbf34a0000000000000000000000003bf2b1e1da1bd2c3d397e9df06b7f717c2f12ad700000000000000000000000000000000000000000000000000000000",
        "nonce": "0x57",
        "chainId": "0x2105"
      },
      "additionalContracts": [],
      "isFixedGasLimit": false
    }
  ],
  "receipts": [
    {
      "status": "0x1",
      "cumulativeGasUsed": "0x1ac461d",
      "logs": [
        {
          "address": "0x8e074b7636f6a56097f1f719e708e2c932e23bab",
          "topics": [
            "0x4cf4410cc57040e44862ef0f45f3dd5a5e02db8eb8add648d4b0e236f1d07dca",
            "0x02d40e5878d088f9395b237c08671d3657b4a07aa95c0898298494c916d12e99",
            "0x0000000000000000000000000000000000000000000000000000000000000000"
          ],
          "data": "0x0000000000000000000000004a5c3cca0ac2a1949d600891a89dd19b35189cf0000000000000000000000000000000000000000000000000000000000000000000000000000000000000000000000000000000000000000000000000000000a07ac5d88a13cd2acf506ab335af9f46af373b9527f040efc590ac456670847bff000000000000000000000000000000000000000000000000000000000005460000000000000000000000000000000000000000000000000000000000000000449362149e0000000000000000000000007bfa7c4f149e7415b73bdedfe609237e29cbf34a0000000000000000000000003bf2b1e1da1bd2c3d397e9df06b7f717c2f12ad700000000000000000000000000000000000000000000000000000000",
          "blockHash": "0x334d2ffac2dab732eb05302706a73a3afc2061011dd3505c3e8b6b0786f17182",
          "blockNumber": "0x296ebec",
          "blockTimestamp": "0x69b834bb",
          "transactionHash": "0x75c8ee0adc9071aa52faee8497ea615c1ad8515bbd432f0562c3ceccf62c32b8",
          "transactionIndex": "0x7e",
          "logIndex": "0x2c1",
          "removed": false
        },
        {
          "address": "0x8e074b7636f6a56097f1f719e708e2c932e23bab",
          "topics": [
            "0x20fda5fd27a1ea7bf5b9567f143ac5470bb059374a27e8f67cb44f946f6d0387",
            "0x02d40e5878d088f9395b237c08671d3657b4a07aa95c0898298494c916d12e99"
          ],
          "data": "0xfc3aa48d1c421050deea6740f2fc8622c5a6f3f92d97bcd4c642b77f781fe28b",
          "blockHash": "0x334d2ffac2dab732eb05302706a73a3afc2061011dd3505c3e8b6b0786f17182",
          "blockNumber": "0x296ebec",
          "blockTimestamp": "0x69b834bb",
          "transactionHash": "0x75c8ee0adc9071aa52faee8497ea615c1ad8515bbd432f0562c3ceccf62c32b8",
          "transactionIndex": "0x7e",
          "logIndex": "0x2c2",
          "removed": false
        }
      ],
      "logsBloom": "0x00000000000000000000008040000000000000000000000000000000000000000000000000001000000000000000000100000000800000000000008000000000000000000000000000000000000000000000000000000008000000000040000000000000020000000000000000000800000080000000000000000000000000000000000000000000000000000000000000000000000000000000000000000000000000000000000000000000000000000000000000000000000000000000000000000010000000000000000000000000000000000000400000000000000020000000000000000000000000000000000000000000000000000000000000800000",
      "type": "0x2",
      "transactionHash": "0x75c8ee0adc9071aa52faee8497ea615c1ad8515bbd432f0562c3ceccf62c32b8",
      "transactionIndex": "0x7e",
      "blockHash": "0x334d2ffac2dab732eb05302706a73a3afc2061011dd3505c3e8b6b0786f17182",
      "blockNumber": "0x296ebec",
      "gasUsed": "0xdf92",
      "effectiveGasPrice": "0x61fbd0",
      "blobGasUsed": "0x6e39",
      "from": "0xf8cbf6437d2473ec59885299af38d9a13ce97eca",
      "to": "0x8e074b7636f6a56097f1f719e708e2c932e23bab",
      "contractAddress": null,
      "daFootprintGasScalar": "0x8b",
      "l1BaseFeeScalar": "0x8dd",
      "l1BlobBaseFee": "0xdda06c",
      "l1BlobBaseFeeScalar": "0x101c12",
      "l1Fee": "0x13101dce7",
      "l1GasPrice": "0x1023d06d",
      "l1GasUsed": "0xcb5"
    }
  ],
  "libraries": [],
  "pending": [],
  "returns": {},
  "timestamp": 1773679806142,
  "chain": 8453,
  "commit": "dee1601"
}