{
  "transactions": [
    {
      "hash": "0x15d933eb2d3f5fd893b5aea70badc7de5ec7d7cb96b315fe3e378573847799c5",
      "transactionType": "CALL",
      "contractName": null,
      "contractAddress": "0x8e074b7636f6a56097f1f719e708e2c932e23bab",
      "function": "schedule(address,uint256,bytes,bytes32,bytes32,uint256)",
      "arguments": [
        "0x4A5c3Cca0Ac2a1949D600891A89dd19B35189Cf0",
        "0",
        "0x9362149e000000000000000000000000b99b6df96d4d5448cc0a5b3e0ef7896df9507cf50000000000000000000000003bf2b1e1da1bd2c3d397e9df06b7f717c2f12ad7",
        "0x7ac5d88a13cd2acf506ab335af9f46af373b9527f040efc590ac456670847bff",
        "0x093476959337b36f68f3f9b458a0b1c7a7ae55b72f6d40af432d2e72d8458902",
        "345600"
      ],
      "transaction": {
        "from": "0xf8cbf6437d2473ec59885299af38d9a13ce97eca",
        "to": "0x8e074b7636f6a56097f1f719e708e2c932e23bab",
        "gas": "0x146f8",
        "value": "0x0",
        "input": "0x01d5062a0000000000000000000000004a5c3cca0ac2a1949d600891a89dd19b35189cf0000000000000000000000000000000000000000000000000000000000000000000000000000000000000000000000000000000000000000000000000000000c07ac5d88a13cd2acf506ab335af9f46af373b9527f040efc590ac456670847bff093476959337b36f68f3f9b458a0b1c7a7ae55b72f6d40af432d2e72d8458902000000000000000000000000000000000000000000000000000000000005460000000000000000000000000000000000000000000000000000000000000000449362149e000000000000000000000000b99b6df96d4d5448cc0a5b3e0ef7896df9507cf50000000000000000000000003bf2b1e1da1bd2c3d397e9df06b7f717c2f12ad700000000000000000000000000000000000000000000000000000000",
        "nonce": "0x71",
        "chainId": "0x2105"
      },
      "additionalContracts": [],
      "isFixedGasLimit": false
    }
  ],
  "receipts": [
    {
      "status": "0x1",
      "cumulativeGasUsed": "0x5c46950",
      "logs": [
        {
          "address": "0x8e074b7636f6a56097f1f719e708e2c932e23bab",
          "topics": [
            "0x4cf4410cc57040e44862ef0f45f3dd5a5e02db8eb8add648d4b0e236f1d07dca",
            "0xef6546a9c7712da75b383a97dddcfd8674dcdc05b64ef3e183530a6234e6d0ad",
            "0x0000000000000000000000000000000000000000000000000000000000000000"
          ],
          "data": "0x0000000000000000000000004a5c3cca0ac2a1949d600891a89dd19b35189cf0000000000000000000000000000000000000000000000000000000000000000000000000000000000000000000000000000000000000000000000000000000a07ac5d88a13cd2acf506ab335af9f46af373b9527f040efc590ac456670847bff000000000000000000000000000000000000000000000000000000000005460000000000000000000000000000000000000000000000000000000000000000449362149e000000000000000000000000b99b6df96d4d5448cc0a5b3e0ef7896df9507cf50000000000000000000000003bf2b1e1da1bd2c3d397e9df06b7f717c2f12ad700000000000000000000000000000000000000000000000000000000",
          "blockHash": "0x0ca480f726347c75287466fdd1387a940030256396922f076051b0a4069c0955",
          "blockNumber": "0x296ecb6",
          "blockTimestamp": "0x69b8364f",
          "transactionHash": "0x15d933eb2d3f5fd893b5aea70badc7de5ec7d7cb96b315fe3e378573847799c5",
          "transactionIndex": "0x195",
          "logIndex": "0x49b",
          "removed": false
        },
        {
          "address": "0x8e074b7636f6a56097f1f719e708e2c932e23bab",
          "topics": [
            "0x20fda5fd27a1ea7bf5b9567f143ac5470bb059374a27e8f67cb44f946f6d0387",
            "0xef6546a9c7712da75b383a97dddcfd8674dcdc05b64ef3e183530a6234e6d0ad"
          ],
          "data": "0x093476959337b36f68f3f9b458a0b1c7a7ae55b72f6d40af432d2e72d8458902",
          "blockHash": "0x0ca480f726347c75287466fdd1387a940030256396922f076051b0a4069c0955",
          "blockNumber": "0x296ecb6",
          "blockTimestamp": "0x69b8364f",
          "transactionHash": "0x15d933eb2d3f5fd893b5aea70badc7de5ec7d7cb96b315fe3e378573847799c5",
          "transactionIndex": "0x195",
          "logIndex": "0x49c",
          "removed": false
        }
      ],
      "logsBloom": "0x00000000000000000000000040000000000000000000000000000000000000400000000000001000000000000000000100000000800000000000000000000000000000000000000000000000000000000000000000000008000000000000000000000000020000000000000000000800000080000000000000000000000000000000000000000004000000000000000000000000000000000000000000000000000000000000000000000000000000000000000000000000000000000000000000000010000000000000000000000000000000000000400000000000000020004000000000000000000000000000000000000000000000000000000000800000",
      "type": "0x2",
      "transactionHash": "0x15d933eb2d3f5fd893b5aea70badc7de5ec7d7cb96b315fe3e378573847799c5",
      "transactionIndex": "0x195",
      "blockHash": "0x0ca480f726347c75287466fdd1387a940030256396922f076051b0a4069c0955",
      "blockNumber": "0x296ecb6",
      "gasUsed": "0xdf92",
      "effectiveGasPrice": "0x691855",
      "blobGasUsed": "0x6ec4",
      "from": "0xf8cbf6437d2473ec59885299af38d9a13ce97eca",
      "to": "0x8e074b7636f6a56097f1f719e708e2c932e23bab",
      "contractAddress": null,
      "daFootprintGasScalar": "0x8b",
      "l1BaseFeeScalar": "0x8dd",
      "l1BlobBaseFee": "0xefbb08",
      "l1BlobBaseFeeScalar": "0x101c12",
      "l1Fee": "0x14498ea2b",
      "l1GasPrice": "0x108e8df5",
      "l1GasUsed": "0xcc2"
    }
  ],
  "libraries": [],
  "pending": [],
  "returns": {},
  "timestamp": 1773680210166,
  "chain": 8453,
  "commit": "dee1601"
}