{
  "transactions": [
    {
      "hash": "0xe2446dffa5a719cba835f8922f6c8a8365fbc506c2057b5e9295472df3374c2c",
      "transactionType": "CALL",
      "contractName": null,
      "contractAddress": "0x773541f7c38be8106ae966ca9d6fee494a0edd24",
      "function": "schedule(address,uint256,bytes,bytes32,bytes32,uint256)",
      "arguments": [
        "0x0021c1fdD50aA76Fb59AFE3fC3A38C02c257bDcA",
        "0",
        "0x9362149e000000000000000000000000b125e6687d4313864e53df431d5425969c15eb2f00000000000000000000000065b65d4bf565b3ba92371ccd0b157da1bcb3b1a8",
        "0x0000000000000000000000000000000000000000000000000000000000000000",
        "0xa1cb2b69d9c7da0dec98d9b3fbb269afedad23e85be81e606beef844134e01ab",
        "0"
      ],
      "transaction": {
        "from": "0xf8cbf6437d2473ec59885299af38d9a13ce97eca",
        "to": "0x773541f7c38be8106ae966ca9d6fee494a0edd24",
        "gas": "0x13289",
        "value": "0x0",
        "input": "0x01d5062a0000000000000000000000000021c1fdd50aa76fb59afe3fc3a38c02c257bdca000000000000000000000000000000000000000000000000000000000000000000000000000000000000000000000000000000000000000000000000000000c00000000000000000000000000000000000000000000000000000000000000000a1cb2b69d9c7da0dec98d9b3fbb269afedad23e85be81e606beef844134e01ab000000000000000000000000000000000000000000000000000000000000000000000000000000000000000000000000000000000000000000000000000000449362149e000000000000000000000000b125e6687d4313864e53df431d5425969c15eb2f00000000000000000000000065b65d4bf565b3ba92371ccd0b157da1bcb3b1a800000000000000000000000000000000000000000000000000000000",
        "nonce": "0x27",
        "chainId": "0x2105"
      },
      "additionalContracts": [],
      "isFixedGasLimit": false
    },
    {
      "hash": "0x63ac38d1053f78f416d446a5138940634b6ffddcedc54d72db91559aee9ca5d4",
      "transactionType": "CALL",
      "contractName": null,
      "contractAddress": "0x773541f7c38be8106ae966ca9d6fee494a0edd24",
      "function": "execute(address,uint256,bytes,bytes32,bytes32)",
      "arguments": [
        "0x0021c1fdD50aA76Fb59AFE3fC3A38C02c257bDcA",
        "0",
        "0x9362149e000000000000000000000000b125e6687d4313864e53df431d5425969c15eb2f00000000000000000000000065b65d4bf565b3ba92371ccd0b157da1bcb3b1a8",
        "0x0000000000000000000000000000000000000000000000000000000000000000",
        "0xa1cb2b69d9c7da0dec98d9b3fbb269afedad23e85be81e606beef844134e01ab"
      ],
      "transaction": {
        "from": "0xf8cbf6437d2473ec59885299af38d9a13ce97eca",
        "to": "0x773541f7c38be8106ae966ca9d6fee494a0edd24",
        "gas": "0x2ad3c",
        "value": "0x0",
        "input": "0x134008d30000000000000000000000000021c1fdd50aa76fb59afe3fc3a38c02c257bdca000000000000000000000000000000000000000000000000000000000000000000000000000000000000000000000000000000000000000000000000000000a00000000000000000000000000000000000000000000000000000000000000000a1cb2b69d9c7da0dec98d9b3fbb269afedad23e85be81e606beef844134e01ab00000000000000000000000000000000000000000000000000000000000000449362149e000000000000000000000000b125e6687d4313864e53df431d5425969c15eb2f00000000000000000000000065b65d4bf565b3ba92371ccd0b157da1bcb3b1a800000000000000000000000000000000000000000000000000000000",
        "nonce": "0x28",
        "chainId": "0x2105"
      },
      "additionalContracts": [],
      "isFixedGasLimit": false
    }
  ],
  "receipts": [
    {
      "status": "0x1",
      "cumulativeGasUsed": "0x1063f16",
      "logs": [
        {
          "address": "0x773541f7c38be8106ae966ca9d6fee494a0edd24",
          "topics": [
            "0x4cf4410cc57040e44862ef0f45f3dd5a5e02db8eb8add648d4b0e236f1d07dca",
            "0x8e60d973c144799a93550011bbe051335d6e50fd4ba2809b106c1a9b4e79b3ce",
            "0x0000000000000000000000000000000000000000000000000000000000000000"
          ],
          "data": "0x0000000000000000000000000021c1fdd50aa76fb59afe3fc3a38c02c257bdca000000000000000000000000000000000000000000000000000000000000000000000000000000000000000000000000000000000000000000000000000000a00000000000000000000000000000000000000000000000000000000000000000000000000000000000000000000000000000000000000000000000000000000000000000000000000000000000000000000000000000000000000000000000449362149e000000000000000000000000b125e6687d4313864e53df431d5425969c15eb2f00000000000000000000000065b65d4bf565b3ba92371ccd0b157da1bcb3b1a800000000000000000000000000000000000000000000000000000000",
          "blockHash": "0x385204ca5167815f3d57f254f710cc2df4ac5549414d8ac6736ec35f9e500b15",
          "blockNumber": "0x28292ee",
          "blockTimestamp": "0x698f82bf",
          "transactionHash": "0xe2446dffa5a719cba835f8922f6c8a8365fbc506c2057b5e9295472df3374c2c",
          "transactionIndex": "0x47",
          "logIndex": "0x168",
          "removed": false
        },
        {
          "address": "0x773541f7c38be8106ae966ca9d6fee494a0edd24",
          "topics": [
            "0x20fda5fd27a1ea7bf5b9567f143ac5470bb059374a27e8f67cb44f946f6d0387",
            "0x8e60d973c144799a93550011bbe051335d6e50fd4ba2809b106c1a9b4e79b3ce"
          ],
          "data": "0xa1cb2b69d9c7da0dec98d9b3fbb269afedad23e85be81e606beef844134e01ab",
          "blockHash": "0x385204ca5167815f3d57f254f710cc2df4ac5549414d8ac6736ec35f9e500b15",
          "blockNumber": "0x28292ee",
          "blockTimestamp": "0x698f82bf",
          "transactionHash": "0xe2446dffa5a719cba835f8922f6c8a8365fbc506c2057b5e9295472df3374c2c",
          "transactionIndex": "0x47",
          "logIndex": "0x169",
          "removed": false
        }
      ],
      "logsBloom": "0x00000080000000000000000040000000000000000000000000000000000000000000000000000000000000000000000100000000800000000000000000000000000000000000000000800000000000000000000000000008000000000000000000000000020000000000000000000800000080000000000000000400000000000000000000000000000000000000000000000000000000000000000000000400000000000000000000000000000000000000000000000000000002000000000000000000000000000000000000000000000000000000400000000000000020000000000000000000000000000000000000000000040000000000000000000000",
      "type": "0x2",
      "transactionHash": "0xe2446dffa5a719cba835f8922f6c8a8365fbc506c2057b5e9295472df3374c2c",
      "transactionIndex": "0x47",
      "blockHash": "0x385204ca5167815f3d57f254f710cc2df4ac5549414d8ac6736ec35f9e500b15",
      "blockNumber": "0x28292ee",
      "gasUsed": "0xddee",
      "effectiveGasPrice": "0x58b3c9",
      "blobGasUsed": "0x5cd9",
      "from": "0xf8cbf6437d2473ec59885299af38d9a13ce97eca",
      "to": "0x773541f7c38be8106ae966ca9d6fee494a0edd24",
      "contractAddress": null,
      "daFootprintGasScalar": "0x8b",
      "l1BaseFeeScalar": "0x8dd",
      "l1BlobBaseFee": "0x2b1b34",
      "l1BlobBaseFeeScalar": "0x101c12",
      "l1Fee": "0x31afa75e",
      "l1GasPrice": "0x314ab87",
      "l1GasUsed": "0xab8"
    },
    {
      "status": "0x1",
      "cumulativeGasUsed": "0x10813a0",
      "logs": [
        {
          "address": "0x0021c1fdd50aa76fb59afe3fc3a38c02c257bdca",
          "topics": [
            "0x1cf35c87329e14a81fdc68af8a463c1db203ccfc925ff5150f5dbc71bc4c2372",
            "0x000000000000000000000000b125e6687d4313864e53df431d5425969c15eb2f",
            "0x00000000000000000000000065b65d4bf565b3ba92371ccd0b157da1bcb3b1a8"
          ],
          "data": "0x",
          "blockHash": "0x385204ca5167815f3d57f254f710cc2df4ac5549414d8ac6736ec35f9e500b15",
          "blockNumber": "0x28292ee",
          "blockTimestamp": "0x698f82bf",
          "transactionHash": "0x63ac38d1053f78f416d446a5138940634b6ffddcedc54d72db91559aee9ca5d4",
          "transactionIndex": "0x48",
          "logIndex": "0x16a",
          "removed": false
        },
        {
          "address": "0x773541f7c38be8106ae966ca9d6fee494a0edd24",
          "topics": [
            "0xc2617efa69bab66782fa219543714338489c4e9e178271560a91b82c3f612b58",
            "0x8e60d973c144799a93550011bbe051335d6e50fd4ba2809b106c1a9b4e79b3ce",
            "0x0000000000000000000000000000000000000000000000000000000000000000"
          ],
          "data": "0x0000000000000000000000000021c1fdd50aa76fb59afe3fc3a38c02c257bdca0000000000000000000000000000000000000000000000000000000000000000000000000000000000000000000000000000000000000000000000000000006000000000000000000000000000000000000000000000000000000000000000449362149e000000000000000000000000b125e6687d4313864e53df431d5425969c15eb2f00000000000000000000000065b65d4bf565b3ba92371ccd0b157da1bcb3b1a800000000000000000000000000000000000000000000000000000000",
          "blockHash": "0x385204ca5167815f3d57f254f710cc2df4ac5549414d8ac6736ec35f9e500b15",
          "blockNumber": "0x28292ee",
          "blockTimestamp": "0x698f82bf",
          "transactionHash": "0x63ac38d1053f78f416d446a5138940634b6ffddcedc54d72db91559aee9ca5d4",
          "transactionIndex": "0x48",
          "logIndex": "0x16b",
          "removed": false
        }
      ],
      "logsBloom": "0x00000090000000000000000000000000000000000000000008000000000000000000000000000000800000000000000000000000000800000200000000000000000000000000000000800000000000000000000000000000000000000000002000000000020000000000000000000800000000000000000000000400000000000000008000000000000000000000000000000004000000000000001000200400000000000000000000000000000000000000000000000000000002000000000000000000000000080000000080000000000000000000000000000000000020100000000000000000000000000000000000000000040000010000000000400000",
      "type": "0x2",
      "transactionHash": "0x63ac38d1053f78f416d446a5138940634b6ffddcedc54d72db91559aee9ca5d4",
      "transactionIndex": "0x48",
      "blockHash": "0x385204ca5167815f3d57f254f710cc2df4ac5549414d8ac6736ec35f9e500b15",
      "blockNumber": "0x28292ee",
      "gasUsed": "0x1d48a",
      "effectiveGasPrice": "0x58b3c9",
      "blobGasUsed": "0x5bc3",
      "from": "0xf8cbf6437d2473ec59885299af38d9a13ce97eca",
      "to": "0x773541f7c38be8106ae966ca9d6fee494a0edd24",
      "contractAddress": null,
      "daFootprintGasScalar": "0x8b",
      "l1BaseFeeScalar": "0x8dd",
      "l1BlobBaseFee": "0x2b1b34",
      "l1BlobBaseFeeScalar": "0x101c12",
      "l1Fee": "0x30f59848",
      "l1GasPrice": "0x314ab87",
      "l1GasUsed": "0xa90"
    }
  ],
  "libraries": [],
  "pending": [],
  "returns": {},
  "timestamp": 1771012802948,
  "chain": 8453,
  "commit": "feef4c5"
}