{
  "transactions": [
    {
      "hash": "0xa2d05f3315e67a37d097ab77f45cdc15c54dd518cfba9df7b87ce012dcd01815",
      "transactionType": "CALL",
      "contractName": null,
      "contractAddress": "0x8e074b7636f6a56097f1f719e708e2c932e23bab",
      "function": "schedule(address,uint256,bytes,bytes32,bytes32,uint256)",
      "arguments": [
        "0x4A5c3Cca0Ac2a1949D600891A89dd19B35189Cf0",
        "0",
        "0x9362149e000000000000000000000000beefa74640a5f7c28966cba82466eed5609444e00000000000000000000000003bf2b1e1da1bd2c3d397e9df06b7f717c2f12ad7",
        "0x7ac5d88a13cd2acf506ab335af9f46af373b9527f040efc590ac456670847bff",
        "0x4ef528fcf4ec9b1ea8e0495aa5adfe72d4ea81041225169eb8c36f1570e962f9",
        "345600"
      ],
      "transaction": {
        "from": "0xf8cbf6437d2473ec59885299af38d9a13ce97eca",
        "to": "0x8e074b7636f6a56097f1f719e708e2c932e23bab",
        "gas": "0x146f8",
        "value": "0x0",
        "input": "0x01d5062a0000000000000000000000004a5c3cca0ac2a1949d600891a89dd19b35189cf0000000000000000000000000000000000000000000000000000000000000000000000000000000000000000000000000000000000000000000000000000000c07ac5d88a13cd2acf506ab335af9f46af373b9527f040efc590ac456670847bff4ef528fcf4ec9b1ea8e0495aa5adfe72d4ea81041225169eb8c36f1570e962f9000000000000000000000000000000000000000000000000000000000005460000000000000000000000000000000000000000000000000000000000000000449362149e000000000000000000000000beefa74640a5f7c28966cba82466eed5609444e00000000000000000000000003bf2b1e1da1bd2c3d397e9df06b7f717c2f12ad700000000000000000000000000000000000000000000000000000000",
        "nonce": "0x54",
        "chainId": "0x2105"
      },
      "additionalContracts": [],
      "isFixedGasLimit": false
    }
  ],
  "receipts": [
    {
      "status": "0x1",
      "cumulativeGasUsed": "0xe6dc96",
      "logs": [
        {
          "address": "0x8e074b7636f6a56097f1f719e708e2c932e23bab",
          "topics": [
            "0x4cf4410cc57040e44862ef0f45f3dd5a5e02db8eb8add648d4b0e236f1d07dca",
            "0x92430a5be2f61e359cc6dec7e9dc20dfecd9e1724c5db787f06f7c6d4269430e",
            "0x0000000000000000000000000000000000000000000000000000000000000000"
          ],
          "data": "0x0000000000000000000000004a5c3cca0ac2a1949d600891a89dd19b35189cf0000000000000000000000000000000000000000000000000000000000000000000000000000000000000000000000000000000000000000000000000000000a07ac5d88a13cd2acf506ab335af9f46af373b9527f040efc590ac456670847bff000000000000000000000000000000000000000000000000000000000005460000000000000000000000000000000000000000000000000000000000000000449362149e000000000000000000000000beefa74640a5f7c28966cba82466eed5609444e00000000000000000000000003bf2b1e1da1bd2c3d397e9df06b7f717c2f12ad700000000000000000000000000000000000000000000000000000000",
          "blockHash": "0x25befd26b7641e35bd684973bd8954530a50f155f68cf36900650cef4251bf6a",
          "blockNumber": "0x296ebd6",
          "blockTimestamp": "0x69b8348f",
          "transactionHash": "0xa2d05f3315e67a37d097ab77f45cdc15c54dd518cfba9df7b87ce012dcd01815",
          "transactionIndex": "0x52",
          "logIndex": "0x1a1",
          "removed": false
        },
        {
          "address": "0x8e074b7636f6a56097f1f719e708e2c932e23bab",
          "topics": [
            "0x20fda5fd27a1ea7bf5b9567f143ac5470bb059374a27e8f67cb44f946f6d0387",
            "0x92430a5be2f61e359cc6dec7e9dc20dfecd9e1724c5db787f06f7c6d4269430e"
          ],
          "data": "0x4ef528fcf4ec9b1ea8e0495aa5adfe72d4ea81041225169eb8c36f1570e962f9",
          "blockHash": "0x25befd26b7641e35bd684973bd8954530a50f155f68cf36900650cef4251bf6a",
          "blockNumber": "0x296ebd6",
          "blockTimestamp": "0x69b8348f",
          "transactionHash": "0xa2d05f3315e67a37d097ab77f45cdc15c54dd518cfba9df7b87ce012dcd01815",
          "transactionIndex": "0x52",
          "logIndex": "0x1a2",
          "removed": false
        }
      ],
      "logsBloom": "0x00000000000000000000000040000000000000000000000000000000200000000000000000001000000000000000000100000000800000000000000000000000000000000000000000000000000000000000000000000008000000000000000000000000020000000000000000000800000080000000000000000000000000000000000040000000000000000000004000000000000000000000000000000000000000000000000000000000000000000000000000000000000000000000000000000010000000000000000000000000000000000000400000000000000020000000000000000000000000000000000000000000000000000000000000800000",
      "type": "0x2",
      "transactionHash": "0xa2d05f3315e67a37d097ab77f45cdc15c54dd518cfba9df7b87ce012dcd01815",
      "transactionIndex": "0x52",
      "blockHash": "0x25befd26b7641e35bd684973bd8954530a50f155f68cf36900650cef4251bf6a",
      "blockNumber": "0x296ebd6",
      "gasUsed": "0xdf92",
      "effectiveGasPrice": "0x6346bc",
      "blobGasUsed": "0x6ec4",
      "from": "0xf8cbf6437d2473ec59885299af38d9a13ce97eca",
      "to": "0x8e074b7636f6a56097f1f719e708e2c932e23bab",
      "contractAddress": null,
      "daFootprintGasScalar": "0x8b",
      "l1BaseFeeScalar": "0x8dd",
      "l1BlobBaseFee": "0xd57e24",
      "l1BlobBaseFeeScalar": "0x101c12",
      "l1Fee": "0x128094fc7",
      "l1GasPrice": "0xfaf3587",
      "l1GasUsed": "0xcc2"
    }
  ],
  "libraries": [],
  "pending": [],
  "returns": {},
  "timestamp": 1773679762386,
  "chain": 8453,
  "commit": "dee1601"
}