{
  "transactions": [
    {
      "hash": "0x4d2ac1ee438165171c45a6939cceaa4cf3c9d7c46f9eb4cce4dd7dc416c0c4dd",
      "transactionType": "CALL",
      "contractName": "YieldSeekerAdminTimelock",
      "contractAddress": "0x773541f7c38be8106ae966ca9d6fee494a0edd24",
      "function": "schedule(address,uint256,bytes,bytes32,bytes32,uint256)",
      "arguments": [
        "0x0021c1fdD50aA76Fb59AFE3fC3A38C02c257bDcA",
        "0",
        "0x9362149e000000000000000000000000cf77a3ba9a5ca399b7c97c74d54e5b1beb874e4300000000000000000000000001fe6834fa3af286d6c568dc868ceec08f7dad20",
        "0x0000000000000000000000000000000000000000000000000000000000000000",
        "0xefe102ba007ea4c809390682ca614db70128e529cd817a8b9f7c9fbbff2c9dc0",
        "0"
      ],
      "transaction": {
        "from": "0xf8cbf6437d2473ec59885299af38d9a13ce97eca",
        "to": "0x773541f7c38be8106ae966ca9d6fee494a0edd24",
        "gas": "0x14480",
        "value": "0x0",
        "input": "0x01d5062a0000000000000000000000000021c1fdd50aa76fb59afe3fc3a38c02c257bdca000000000000000000000000000000000000000000000000000000000000000000000000000000000000000000000000000000000000000000000000000000c00000000000000000000000000000000000000000000000000000000000000000efe102ba007ea4c809390682ca614db70128e529cd817a8b9f7c9fbbff2c9dc0000000000000000000000000000000000000000000000000000000000000000000000000000000000000000000000000000000000000000000000000000000449362149e000000000000000000000000cf77a3ba9a5ca399b7c97c74d54e5b1beb874e4300000000000000000000000001fe6834fa3af286d6c568dc868ceec08f7dad2000000000000000000000000000000000000000000000000000000000",
        "nonce": "0x37",
        "chainId": "0x2105"
      },
      "additionalContracts": [],
      "isFixedGasLimit": false
    },
    {
      "hash": "0x1d5a7dfb9e5d6c282fbcadee049f88852350d633ab5c3c928ecfd2772575ecbf",
      "transactionType": "CALL",
      "contractName": "YieldSeekerAdminTimelock",
      "contractAddress": "0x773541f7c38be8106ae966ca9d6fee494a0edd24",
      "function": "execute(address,uint256,bytes,bytes32,bytes32)",
      "arguments": [
        "0x0021c1fdD50aA76Fb59AFE3fC3A38C02c257bDcA",
        "0",
        "0x9362149e000000000000000000000000cf77a3ba9a5ca399b7c97c74d54e5b1beb874e4300000000000000000000000001fe6834fa3af286d6c568dc868ceec08f7dad20",
        "0x0000000000000000000000000000000000000000000000000000000000000000",
        "0xefe102ba007ea4c809390682ca614db70128e529cd817a8b9f7c9fbbff2c9dc0"
      ],
      "transaction": {
        "from": "0xf8cbf6437d2473ec59885299af38d9a13ce97eca",
        "to": "0x773541f7c38be8106ae966ca9d6fee494a0edd24",
        "gas": "0x28719",
        "value": "0x0",
        "input": "0x134008d30000000000000000000000000021c1fdd50aa76fb59afe3fc3a38c02c257bdca000000000000000000000000000000000000000000000000000000000000000000000000000000000000000000000000000000000000000000000000000000a00000000000000000000000000000000000000000000000000000000000000000efe102ba007ea4c809390682ca614db70128e529cd817a8b9f7c9fbbff2c9dc000000000000000000000000000000000000000000000000000000000000000449362149e000000000000000000000000cf77a3ba9a5ca399b7c97c74d54e5b1beb874e4300000000000000000000000001fe6834fa3af286d6c568dc868ceec08f7dad2000000000000000000000000000000000000000000000000000000000",
        "nonce": "0x38",
        "chainId": "0x2105"
      },
      "additionalContracts": [],
      "isFixedGasLimit": false
    }
  ],
  "receipts": [
    {
      "status": "0x1",
      "cumulativeGasUsed": "0x2389508",
      "logs": [
        {
          "address": "0x773541f7c38be8106ae966ca9d6fee494a0edd24",
          "topics": [
            "0x4cf4410cc57040e44862ef0f45f3dd5a5e02db8eb8add648d4b0e236f1d07dca",
            "0x7e131900d8e60212c01da7bb351de37477d0bb3176f442769028122797e7fb66",
            "0x0000000000000000000000000000000000000000000000000000000000000000"
          ],
          "data": "0x0000000000000000000000000021c1fdd50aa76fb59afe3fc3a38c02c257bdca000000000000000000000000000000000000000000000000000000000000000000000000000000000000000000000000000000000000000000000000000000a00000000000000000000000000000000000000000000000000000000000000000000000000000000000000000000000000000000000000000000000000000000000000000000000000000000000000000000000000000000000000000000000449362149e000000000000000000000000cf77a3ba9a5ca399b7c97c74d54e5b1beb874e4300000000000000000000000001fe6834fa3af286d6c568dc868ceec08f7dad2000000000000000000000000000000000000000000000000000000000",
          "blockHash": "0x2b9853504e6f6bfb379eb909732f20a165e926b86df2bd2b97216ecd01e2ff39",
          "blockNumber": "0x2849e62",
          "blockTimestamp": "0x699399a7",
          "transactionHash": "0x4d2ac1ee438165171c45a6939cceaa4cf3c9d7c46f9eb4cce4dd7dc416c0c4dd",
          "transactionIndex": "0xd7",
          "logIndex": "0x3f5",
          "removed": false
        },
        {
          "address": "0x773541f7c38be8106ae966ca9d6fee494a0edd24",
          "topics": [
            "0x20fda5fd27a1ea7bf5b9567f143ac5470bb059374a27e8f67cb44f946f6d0387",
            "0x7e131900d8e60212c01da7bb351de37477d0bb3176f442769028122797e7fb66"
          ],
          "data": "0xefe102ba007ea4c809390682ca614db70128e529cd817a8b9f7c9fbbff2c9dc0",
          "blockHash": "0x2b9853504e6f6bfb379eb909732f20a165e926b86df2bd2b97216ecd01e2ff39",
          "blockNumber": "0x2849e62",
          "blockTimestamp": "0x699399a7",
          "transactionHash": "0x4d2ac1ee438165171c45a6939cceaa4cf3c9d7c46f9eb4cce4dd7dc416c0c4dd",
          "transactionIndex": "0xd7",
          "logIndex": "0x3f6",
          "removed": false
        }
      ],
      "logsBloom": "0x00000080000000000000000040000000200000000000000000000000000000000000000000000000000000000000000100000000800000000000000000000000000000000000000000800000000000000000000000000008000000000000000000004000020000000000000000000800000080000000000000000400000000000000000000000000000000000000000000000000000000000000000000000000000000000000000000000000000000000000000000000000000000000000000000000000000000000000000000000000000000000000400000000000000020000000000000002000000000000000000000000000000000000000000000000000",
      "type": "0x2",
      "transactionHash": "0x4d2ac1ee438165171c45a6939cceaa4cf3c9d7c46f9eb4cce4dd7dc416c0c4dd",
      "transactionIndex": "0xd7",
      "blockHash": "0x2b9853504e6f6bfb379eb909732f20a165e926b86df2bd2b97216ecd01e2ff39",
      "blockNumber": "0x2849e62",
      "gasUsed": "0xdde2",
      "effectiveGasPrice": "0x468a1a",
      "blobGasUsed": "0x5c4e",
      "from": "0xf8cbf6437d2473ec59885299af38d9a13ce97eca",
      "to": "0x773541f7c38be8106ae966ca9d6fee494a0edd24",
      "contractAddress": null,
      "daFootprintGasScalar": "0x8b",
      "l1BaseFeeScalar": "0x8dd",
      "l1BlobBaseFee": "0x1c3d77",
      "l1BlobBaseFeeScalar": "0x101c12",
      "l1Fee": "0x1f27362f",
      "l1GasPrice": "0x1d18225",
      "l1GasUsed": "0xaab"
    },
    {
      "status": "0x1",
      "cumulativeGasUsed": "0x23a6986",
      "logs": [
        {
          "address": "0x0021c1fdd50aa76fb59afe3fc3a38c02c257bdca",
          "topics": [
            "0x1cf35c87329e14a81fdc68af8a463c1db203ccfc925ff5150f5dbc71bc4c2372",
            "0x000000000000000000000000cf77a3ba9a5ca399b7c97c74d54e5b1beb874e43",
            "0x00000000000000000000000001fe6834fa3af286d6c568dc868ceec08f7dad20"
          ],
          "data": "0x",
          "blockHash": "0x2b9853504e6f6bfb379eb909732f20a165e926b86df2bd2b97216ecd01e2ff39",
          "blockNumber": "0x2849e62",
          "blockTimestamp": "0x699399a7",
          "transactionHash": "0x1d5a7dfb9e5d6c282fbcadee049f88852350d633ab5c3c928ecfd2772575ecbf",
          "transactionIndex": "0xd8",
          "logIndex": "0x3f7",
          "removed": false
        },
        {
          "address": "0x773541f7c38be8106ae966ca9d6fee494a0edd24",
          "topics": [
            "0xc2617efa69bab66782fa219543714338489c4e9e178271560a91b82c3f612b58",
            "0x7e131900d8e60212c01da7bb351de37477d0bb3176f442769028122797e7fb66",
            "0x0000000000000000000000000000000000000000000000000000000000000000"
          ],
          "data": "0x0000000000000000000000000021c1fdd50aa76fb59afe3fc3a38c02c257bdca0000000000000000000000000000000000000000000000000000000000000000000000000000000000000000000000000000000000000000000000000000006000000000000000000000000000000000000000000000000000000000000000449362149e000000000000000000000000cf77a3ba9a5ca399b7c97c74d54e5b1beb874e4300000000000000000000000001fe6834fa3af286d6c568dc868ceec08f7dad2000000000000000000000000000000000000000000000000000000000",
          "blockHash": "0x2b9853504e6f6bfb379eb909732f20a165e926b86df2bd2b97216ecd01e2ff39",
          "blockNumber": "0x2849e62",
          "blockTimestamp": "0x699399a7",
          "transactionHash": "0x1d5a7dfb9e5d6c282fbcadee049f88852350d633ab5c3c928ecfd2772575ecbf",
          "transactionIndex": "0xd8",
          "logIndex": "0x3f8",
          "removed": false
        }
      ],
      "logsBloom": "0x000000800000000000000000000000002000000000000000000000000000000000000000000000000000000000000000000000000008000002000000000000000000000000000000008000000000000000000000000000000000000000000020000040000200000000000000000008000000000000000000000004000000000000000080000000000000000000040000000000040000000000000012000000010000000000000000000000000000000000000000000000000000000000000000000000000040000a0000000000000000000000000000000100000000000020100000000000002000000000000000000000000000000000010000000000000000",
      "type": "0x2",
      "transactionHash": "0x1d5a7dfb9e5d6c282fbcadee049f88852350d633ab5c3c928ecfd2772575ecbf",
      "transactionIndex": "0xd8",
      "blockHash": "0x2b9853504e6f6bfb379eb909732f20a165e926b86df2bd2b97216ecd01e2ff39",
      "blockNumber": "0x2849e62",
      "gasUsed": "0x1d47e",
      "effectiveGasPrice": "0x468a1a",
      "blobGasUsed": "0x5bc3",
      "from": "0xf8cbf6437d2473ec59885299af38d9a13ce97eca",
      "to": "0x773541f7c38be8106ae966ca9d6fee494a0edd24",
      "contractAddress": null,
      "daFootprintGasScalar": "0x8b",
      "l1BaseFeeScalar": "0x8dd",
      "l1BlobBaseFee": "0x1c3d77",
      "l1BlobBaseFeeScalar": "0x101c12",
      "l1Fee": "0x1ed90ede",
      "l1GasPrice": "0x1d18225",
      "l1GasUsed": "0xa90"
    }
  ],
  "libraries": [],
  "pending": [],
  "returns": {},
  "timestamp": 1771280810476,
  "chain": 8453,
  "commit": "19e389e"
}