{
  "transactions": [
    {
      "hash": "0xa27fe598b4f19061e34f785de8f83fd0a03b0b73ad45f3986fbe55c1103485ef",
      "transactionType": "CALL",
      "contractName": null,
      "contractAddress": "0x8e074b7636f6a56097f1f719e708e2c932e23bab",
      "function": "schedule(address,uint256,bytes,bytes32,bytes32,uint256)",
      "arguments": [
        "0x4A5c3Cca0Ac2a1949D600891A89dd19B35189Cf0",
        "0",
        "0x9362149e000000000000000000000000cf77a3ba9a5ca399b7c97c74d54e5b1beb874e43000000000000000000000000a3c92297ed000f2778924872fc5d2cfe341d020f",
        "0x7ac5d88a13cd2acf506ab335af9f46af373b9527f040efc590ac456670847bff",
        "0x74313081b51de065cebde77ac98d607bd18617a1d0fd9cc75c28c22b17983122",
        "345600"
      ],
      "transaction": {
        "from": "0xf8cbf6437d2473ec59885299af38d9a13ce97eca",
        "to": "0x8e074b7636f6a56097f1f719e708e2c932e23bab",
        "gas": "0x134bd",
        "value": "0x0",
        "input": "0x01d5062a0000000000000000000000004a5c3cca0ac2a1949d600891a89dd19b35189cf0000000000000000000000000000000000000000000000000000000000000000000000000000000000000000000000000000000000000000000000000000000c07ac5d88a13cd2acf506ab335af9f46af373b9527f040efc590ac456670847bff74313081b51de065cebde77ac98d607bd18617a1d0fd9cc75c28c22b17983122000000000000000000000000000000000000000000000000000000000005460000000000000000000000000000000000000000000000000000000000000000449362149e000000000000000000000000cf77a3ba9a5ca399b7c97c74d54e5b1beb874e43000000000000000000000000a3c92297ed000f2778924872fc5d2cfe341d020f00000000000000000000000000000000000000000000000000000000",
        "nonce": "0x79",
        "chainId": "0x2105"
      },
      "additionalContracts": [],
      "isFixedGasLimit": false
    }
  ],
  "receipts": [
    {
      "status": "0x1",
      "cumulativeGasUsed": "0x1bf7756",
      "logs": [
        {
          "address": "0x8e074b7636f6a56097f1f719e708e2c932e23bab",
          "topics": [
            "0x4cf4410cc57040e44862ef0f45f3dd5a5e02db8eb8add648d4b0e236f1d07dca",
            "0x9facbdb32500378e2ddd4a674cfea2ecb8124548f6dbe02da7ecab89b4b269cc",
            "0x0000000000000000000000000000000000000000000000000000000000000000"
          ],
          "data": "0x0000000000000000000000004a5c3cca0ac2a1949d600891a89dd19b35189cf0000000000000000000000000000000000000000000000000000000000000000000000000000000000000000000000000000000000000000000000000000000a07ac5d88a13cd2acf506ab335af9f46af373b9527f040efc590ac456670847bff000000000000000000000000000000000000000000000000000000000005460000000000000000000000000000000000000000000000000000000000000000449362149e000000000000000000000000cf77a3ba9a5ca399b7c97c74d54e5b1beb874e43000000000000000000000000a3c92297ed000f2778924872fc5d2cfe341d020f00000000000000000000000000000000000000000000000000000000",
          "blockHash": "0xa76b8fa1e94262653ac9870963aa9675476f4bde01ecb4b50363d7d13f0b1b2e",
          "blockNumber": "0x296ecef",
          "blockTimestamp": "0x69b836c1",
          "transactionHash": "0xa27fe598b4f19061e34f785de8f83fd0a03b0b73ad45f3986fbe55c1103485ef",
          "transactionIndex": "0x88",
          "logIndex": "0x1f8",
          "removed": false
        },
        {
          "address": "0x8e074b7636f6a56097f1f719e708e2c932e23bab",
          "topics": [
            "0x20fda5fd27a1ea7bf5b9567f143ac5470bb059374a27e8f67cb44f946f6d0387",
            "0x9facbdb32500378e2ddd4a674cfea2ecb8124548f6dbe02da7ecab89b4b269cc"
          ],
          "data": "0x74313081b51de065cebde77ac98d607bd18617a1d0fd9cc75c28c22b17983122",
          "blockHash": "0xa76b8fa1e94262653ac9870963aa9675476f4bde01ecb4b50363d7d13f0b1b2e",
          "blockNumber": "0x296ecef",
          "blockTimestamp": "0x69b836c1",
          "transactionHash": "0xa27fe598b4f19061e34f785de8f83fd0a03b0b73ad45f3986fbe55c1103485ef",
          "transactionIndex": "0x88",
          "logIndex": "0x1f9",
          "removed": false
        }
      ],
      "logsBloom": "0x00000000000000000000000040000000000000000000000000000000000000000000000000001000000000000000000100000000800000000000000000000000000000000000000000000000000000000000000000002008000000000000000800000000020000000000000000000800000080000000000000000000000000000000000000000000000000000000000000000000000000000000000000000000000000000000000000000000000000000000000000000000000000000000000000040010000000000000000000000000000000000000400000000000000020000000000000000000000000000000000000000000000000000000000000800000",
      "type": "0x2",
      "transactionHash": "0xa27fe598b4f19061e34f785de8f83fd0a03b0b73ad45f3986fbe55c1103485ef",
      "transactionIndex": "0x88",
      "blockHash": "0xa76b8fa1e94262653ac9870963aa9675476f4bde01ecb4b50363d7d13f0b1b2e",
      "blockNumber": "0x296ecef",
      "gasUsed": "0xdf86",
      "effectiveGasPrice": "0x683ba8",
      "blobGasUsed": "0x6ec4",
      "from": "0xf8cbf6437d2473ec59885299af38d9a13ce97eca",
      "to": "0x8e074b7636f6a56097f1f719e708e2c932e23bab",
      "contractAddress": null,
      "daFootprintGasScalar": "0x8b",
      "l1BaseFeeScalar": "0x8dd",
      "l1BlobBaseFee": "0xe98988",
      "l1BlobBaseFeeScalar": "0x101c12",
      "l1Fee": "0x13d0def53",
      "l1GasPrice": "0x103e2a61",
      "l1GasUsed": "0xcc2"
    }
  ],
  "libraries": [],
  "pending": [],
  "returns": {},
  "timestamp": 1773680324619,
  "chain": 8453,
  "commit": "dee1601"
}