{
  "transactions": [
    {
      "hash": "0xcc39d938ffa41a7fe6add36c8190531f3aafea0f9908a8a260ab573c0d01b3fb",
      "transactionType": "CALL",
      "contractName": null,
      "contractAddress": "0x8e074b7636f6a56097f1f719e708e2c932e23bab",
      "function": "schedule(address,uint256,bytes,bytes32,bytes32,uint256)",
      "arguments": [
        "0x4A5c3Cca0Ac2a1949D600891A89dd19B35189Cf0",
        "0",
        "0x9362149e000000000000000000000000c0c5689e6f4d256e861f65465b691aeecc0deb120000000000000000000000003bf2b1e1da1bd2c3d397e9df06b7f717c2f12ad7",
        "0x7ac5d88a13cd2acf506ab335af9f46af373b9527f040efc590ac456670847bff",
        "0x26743f59982237100d8e99b30b9714178121e16b2b565a788d70ad00b584eab4",
        "345600"
      ],
      "transaction": {
        "from": "0xf8cbf6437d2473ec59885299af38d9a13ce97eca",
        "to": "0x8e074b7636f6a56097f1f719e708e2c932e23bab",
        "gas": "0x134bd",
        "value": "0x0",
        "input": "0x01d5062a0000000000000000000000004a5c3cca0ac2a1949d600891a89dd19b35189cf0000000000000000000000000000000000000000000000000000000000000000000000000000000000000000000000000000000000000000000000000000000c07ac5d88a13cd2acf506ab335af9f46af373b9527f040efc590ac456670847bff26743f59982237100d8e99b30b9714178121e16b2b565a788d70ad00b584eab4000000000000000000000000000000000000000000000000000000000005460000000000000000000000000000000000000000000000000000000000000000449362149e000000000000000000000000c0c5689e6f4d256e861f65465b691aeecc0deb120000000000000000000000003bf2b1e1da1bd2c3d397e9df06b7f717c2f12ad700000000000000000000000000000000000000000000000000000000",
        "nonce": "0x53",
        "chainId": "0x2105"
      },
      "additionalContracts": [],
      "isFixedGasLimit": false
    }
  ],
  "receipts": [
    {
      "status": "0x1",
      "cumulativeGasUsed": "0x3d7d75a",
      "logs": [
        {
          "address": "0x8e074b7636f6a56097f1f719e708e2c932e23bab",
          "topics": [
            "0x4cf4410cc57040e44862ef0f45f3dd5a5e02db8eb8add648d4b0e236f1d07dca",
            "0x77eae7b12f213e1dd56e88057f626571116a68f56fe2429e8711bb45dbc8f43e",
            "0x0000000000000000000000000000000000000000000000000000000000000000"
          ],
          "data": "0x0000000000000000000000004a5c3cca0ac2a1949d600891a89dd19b35189cf0000000000000000000000000000000000000000000000000000000000000000000000000000000000000000000000000000000000000000000000000000000a07ac5d88a13cd2acf506ab335af9f46af373b9527f040efc590ac456670847bff000000000000000000000000000000000000000000000000000000000005460000000000000000000000000000000000000000000000000000000000000000449362149e000000000000000000000000c0c5689e6f4d256e861f65465b691aeecc0deb120000000000000000000000003bf2b1e1da1bd2c3d397e9df06b7f717c2f12ad700000000000000000000000000000000000000000000000000000000",
          "blockHash": "0x0ecc9502c4ef8aa5c7dc541cccc789511f36d3de2c37e4af568371bd9b330476",
          "blockNumber": "0x296ebcf",
          "blockTimestamp": "0x69b83481",
          "transactionHash": "0xcc39d938ffa41a7fe6add36c8190531f3aafea0f9908a8a260ab573c0d01b3fb",
          "transactionIndex": "0x14a",
          "logIndex": "0x4a0",
          "removed": false
        },
        {
          "address": "0x8e074b7636f6a56097f1f719e708e2c932e23bab",
          "topics": [
            "0x20fda5fd27a1ea7bf5b9567f143ac5470bb059374a27e8f67cb44f946f6d0387",
            "0x77eae7b12f213e1dd56e88057f626571116a68f56fe2429e8711bb45dbc8f43e"
          ],
          "data": "0x26743f59982237100d8e99b30b9714178121e16b2b565a788d70ad00b584eab4",
          "blockHash": "0x0ecc9502c4ef8aa5c7dc541cccc789511f36d3de2c37e4af568371bd9b330476",
          "blockNumber": "0x296ebcf",
          "blockTimestamp": "0x69b83481",
          "transactionHash": "0xcc39d938ffa41a7fe6add36c8190531f3aafea0f9908a8a260ab573c0d01b3fb",
          "transactionIndex": "0x14a",
          "logIndex": "0x4a1",
          "removed": false
        }
      ],
      "logsBloom": "0x00000000000000000000000040000000000000000000000000000000000000000000000000001000000000000000000100000000800000000000000000000000000200000000000000000000000000000000000000000008000000000000000000000000020000020000000000000800000080000000000000000000000000000000000000000000000000000000000000000000000000000000000000000000000000000000000000000000000000000000000000000000000000000000000000000010000000000000000000000000001000000000400000000000000020000000000000000000000000000000000000000000000000000000000000800000",
      "type": "0x2",
      "transactionHash": "0xcc39d938ffa41a7fe6add36c8190531f3aafea0f9908a8a260ab573c0d01b3fb",
      "transactionIndex": "0x14a",
      "blockHash": "0x0ecc9502c4ef8aa5c7dc541cccc789511f36d3de2c37e4af568371bd9b330476",
      "blockNumber": "0x296ebcf",
      "gasUsed": "0xdf86",
      "effectiveGasPrice": "0x61b45d",
      "blobGasUsed": "0x6d23",
      "from": "0xf8cbf6437d2473ec59885299af38d9a13ce97eca",
      "to": "0x8e074b7636f6a56097f1f719e708e2c932e23bab",
      "contractAddress": null,
      "daFootprintGasScalar": "0x8b",
      "l1BaseFeeScalar": "0x8dd",
      "l1BlobBaseFee": "0xc91847",
      "l1BlobBaseFeeScalar": "0x101c12",
      "l1Fee": "0x11b1712f7",
      "l1GasPrice": "0xfd24d8e",
      "l1GasUsed": "0xc9a"
    }
  ],
  "libraries": [],
  "pending": [],
  "returns": {},
  "timestamp": 1773679748788,
  "chain": 8453,
  "commit": "dee1601"
}