{
  "transactions": [
    {
      "hash": "0xf876fedf2736670c94583a10a98aa5d5ce743e359ff73d7438a7c8648347732a",
      "transactionType": "CALL",
      "contractName": "YieldSeekerAdminTimelock",
      "contractAddress": "0x869f8d6e8d05ec1fdeab1d5d8d67f3d224da7571",
      "function": "schedule(address,uint256,bytes,bytes32,bytes32,uint256)",
      "arguments": [
        "0xc5Cb6d1c588C5bfeBd23B817Ce33D9d380e50c00",
        "0",
        "0xc70d5398000000000000000000000000caf2da315f5a5499299a312b8a86faafe4bad9590000000000000000000000008b53956c8b7753bcc7ec518e899007a880d7dfe0",
        "0x0000000000000000000000000000000000000000000000000000000000000000",
        "0x88ff70f8268f9a5317383a9251d3312afc92394f69c33344d7a7008000711392",
        "0"
      ],
      "transaction": {
        "from": "0xce11d6fb4f1e006e5a348230449dc387fde850cc",
        "to": "0x869f8d6e8d05ec1fdeab1d5d8d67f3d224da7571",
        "gas": "0x13268",
        "value": "0x0",
        "input": "0x01d5062a000000000000000000000000c5cb6d1c588c5bfebd23b817ce33d9d380e50c00000000000000000000000000000000000000000000000000000000000000000000000000000000000000000000000000000000000000000000000000000000c0000000000000000000000000000000000000000000000000000000000000000088ff70f8268f9a5317383a9251d3312afc92394f69c33344d7a700800071139200000000000000000000000000000000000000000000000000000000000000000000000000000000000000000000000000000000000000000000000000000044c70d5398000000000000000000000000caf2da315f5a5499299a312b8a86faafe4bad9590000000000000000000000008b53956c8b7753bcc7ec518e899007a880d7dfe000000000000000000000000000000000000000000000000000000000",
        "nonce": "0x51",
        "chainId": "0x2105"
      },
      "additionalContracts": [],
      "isFixedGasLimit": false
    },
    {
      "hash": "0x37af6a1242dd75db69c95b4e13f6f49d2a37bd8b1127e5aa5203926a79a6960d",
      "transactionType": "CALL",
      "contractName": "YieldSeekerAdminTimelock",
      "contractAddress": "0x869f8d6e8d05ec1fdeab1d5d8d67f3d224da7571",
      "function": "execute(address,uint256,bytes,bytes32,bytes32)",
      "arguments": [
        "0xc5Cb6d1c588C5bfeBd23B817Ce33D9d380e50c00",
        "0",
        "0xc70d5398000000000000000000000000caf2da315f5a5499299a312b8a86faafe4bad9590000000000000000000000008b53956c8b7753bcc7ec518e899007a880d7dfe0",
        "0x0000000000000000000000000000000000000000000000000000000000000000",
        "0x88ff70f8268f9a5317383a9251d3312afc92394f69c33344d7a7008000711392"
      ],
      "transaction": {
        "from": "0xce11d6fb4f1e006e5a348230449dc387fde850cc",
        "to": "0x869f8d6e8d05ec1fdeab1d5d8d67f3d224da7571",
        "gas": "0x125ee",
        "value": "0x0",
        "input": "0x134008d3000000000000000000000000c5cb6d1c588c5bfebd23b817ce33d9d380e50c00000000000000000000000000000000000000000000000000000000000000000000000000000000000000000000000000000000000000000000000000000000a0000000000000000000000000000000000000000000000000000000000000000088ff70f8268f9a5317383a9251d3312afc92394f69c33344d7a70080007113920000000000000000000000000000000000000000000000000000000000000044c70d5398000000000000000000000000caf2da315f5a5499299a312b8a86faafe4bad9590000000000000000000000008b53956c8b7753bcc7ec518e899007a880d7dfe000000000000000000000000000000000000000000000000000000000",
        "nonce": "0x52",
        "chainId": "0x2105"
      },
      "additionalContracts": [],
      "isFixedGasLimit": false
    }
  ],
  "receipts": [
    {
      "status": "0x1",
      "cumulativeGasUsed": "0x11ab7e4",
      "logs": [
        {
          "address": "0x869f8d6e8d05ec1fdeab1d5d8d67f3d224da7571",
          "topics": [
            "0x4cf4410cc57040e44862ef0f45f3dd5a5e02db8eb8add648d4b0e236f1d07dca",
            "0x96cfa86885d4b1735cb8cf9ba46c26faec21b320edb32c36f48a04c92c57c767",
            "0x0000000000000000000000000000000000000000000000000000000000000000"
          ],
          "data": "0x000000000000000000000000c5cb6d1c588c5bfebd23b817ce33d9d380e50c00000000000000000000000000000000000000000000000000000000000000000000000000000000000000000000000000000000000000000000000000000000a0000000000000000000000000000000000000000000000000000000000000000000000000000000000000000000000000000000000000000000000000000000000000000000000000000000000000000000000000000000000000000000000044c70d5398000000000000000000000000caf2da315f5a5499299a312b8a86faafe4bad9590000000000000000000000008b53956c8b7753bcc7ec518e899007a880d7dfe000000000000000000000000000000000000000000000000000000000",
          "blockHash": "0x92d5738146c26af79a21c8763627cd13ce5ae73059946c12b59be4fce7877bf9",
          "blockNumber": "0x25cc9e8",
          "blockTimestamp": "0x6943f0b3",
          "transactionHash": "0x37af6a1242dd75db69c95b4e13f6f49d2a37bd8b1127e5aa5203926a79a6960d",
          "transactionIndex": "0x53",
          "logIndex": "0x1df",
          "removed": false
        },
        {
          "address": "0x869f8d6e8d05ec1fdeab1d5d8d67f3d224da7571",
          "topics": [
            "0x20fda5fd27a1ea7bf5b9567f143ac5470bb059374a27e8f67cb44f946f6d0387",
            "0x96cfa86885d4b1735cb8cf9ba46c26faec21b320edb32c36f48a04c92c57c767"
          ],
          "data": "0x88ff70f8268f9a5317383a9251d3312afc92394f69c33344d7a7008000711392",
          "blockHash": "0x92d5738146c26af79a21c8763627cd13ce5ae73059946c12b59be4fce7877bf9",
          "blockNumber": "0x25cc9e8",
          "blockTimestamp": "0x6943f0b3",
          "transactionHash": "0x37af6a1242dd75db69c95b4e13f6f49d2a37bd8b1127e5aa5203926a79a6960d",
          "transactionIndex": "0x53",
          "logIndex": "0x1e0",
          "removed": false
        }
      ],
      "logsBloom": "0x00000000000000000000000040000000000000000000000000000000000000000000020000000000000000000000000100000000800000000000000000000000000000000000000000000000000000000080000000000008000000000000000000000000020000000000000000020800000080000000000000000000000000000000000000000000000000000000100000000000000002000000000000000000000000000000000000000000000000000000000000000000000000000000000000000000000000000000000000000000000000000000400000000000000020000000000000000000000000000000000000000000000000000020000000000000",
      "type": "0x2",
      "transactionHash": "0x37af6a1242dd75db69c95b4e13f6f49d2a37bd8b1127e5aa5203926a79a6960d",
      "transactionIndex": "0x53",
      "blockHash": "0x92d5738146c26af79a21c8763627cd13ce5ae73059946c12b59be4fce7877bf9",
      "blockNumber": "0x25cc9e8",
      "gasUsed": "0xddd6",
      "effectiveGasPrice": "0x93c16",
      "blobGasUsed": "0xcdf8",
      "from": "0xce11d6fb4f1e006e5a348230449dc387fde850cc",
      "to": "0x869f8d6e8d05ec1fdeab1d5d8d67f3d224da7571",
      "contractAddress": null,
      "daFootprintGasScalar": "0x138",
      "l1BaseFeeScalar": "0x8dd",
      "l1BlobBaseFee": "0x17a012",
      "l1BlobBaseFeeScalar": "0x101c12",
      "l1Fee": "0x1b362b13",
      "l1GasPrice": "0x1ba714d",
      "l1GasUsed": "0xa9e"
    },
    {
      "status": "0x1",
      "cumulativeGasUsed": "0x11b8cb2",
      "logs": [
        {
          "address": "0xc5cb6d1c588c5bfebd23b817ce33d9d380e50c00",
          "topics": [
            "0x95acdd767bfb2c6578833b7678c4dcc015f00b35820877f64a39080989262801",
            "0x000000000000000000000000caf2da315f5a5499299a312b8a86faafe4bad959",
            "0x000000000000000000000000581ee947078b7009ae0ff840fa15a65526fdaf5c"
          ],
          "data": "0x",
          "blockHash": "0x92d5738146c26af79a21c8763627cd13ce5ae73059946c12b59be4fce7877bf9",
          "blockNumber": "0x25cc9e8",
          "blockTimestamp": "0x6943f0b3",
          "transactionHash": "0xf876fedf2736670c94583a10a98aa5d5ce743e359ff73d7438a7c8648347732a",
          "transactionIndex": "0x54",
          "logIndex": "0x1e1",
          "removed": false
        },
        {
          "address": "0xc5cb6d1c588c5bfebd23b817ce33d9d380e50c00",
          "topics": [
            "0x1cf35c87329e14a81fdc68af8a463c1db203ccfc925ff5150f5dbc71bc4c2372",
            "0x000000000000000000000000caf2da315f5a5499299a312b8a86faafe4bad959",
            "0x0000000000000000000000008b53956c8b7753bcc7ec518e899007a880d7dfe0"
          ],
          "data": "0x",
          "blockHash": "0x92d5738146c26af79a21c8763627cd13ce5ae73059946c12b59be4fce7877bf9",
          "blockNumber": "0x25cc9e8",
          "blockTimestamp": "0x6943f0b3",
          "transactionHash": "0xf876fedf2736670c94583a10a98aa5d5ce743e359ff73d7438a7c8648347732a",
          "transactionIndex": "0x54",
          "logIndex": "0x1e2",
          "removed": false
        },
        {
          "address": "0x869f8d6e8d05ec1fdeab1d5d8d67f3d224da7571",
          "topics": [
            "0xc2617efa69bab66782fa219543714338489c4e9e178271560a91b82c3f612b58",
            "0x96cfa86885d4b1735cb8cf9ba46c26faec21b320edb32c36f48a04c92c57c767",
            "0x0000000000000000000000000000000000000000000000000000000000000000"
          ],
          "data": "0x000000000000000000000000c5cb6d1c588c5bfebd23b817ce33d9d380e50c00000000000000000000000000000000000000000000000000000000000000000000000000000000000000000000000000000000000000000000000000000000600000000000000000000000000000000000000000000000000000000000000044c70d5398000000000000000000000000caf2da315f5a5499299a312b8a86faafe4bad9590000000000000000000000008b53956c8b7753bcc7ec518e899007a880d7dfe000000000000000000000000000000000000000000000000000000000",
          "blockHash": "0x92d5738146c26af79a21c8763627cd13ce5ae73059946c12b59be4fce7877bf9",
          "blockNumber": "0x25cc9e8",
          "blockTimestamp": "0x6943f0b3",
          "transactionHash": "0xf876fedf2736670c94583a10a98aa5d5ce743e359ff73d7438a7c8648347732a",
          "transactionIndex": "0x54",
          "logIndex": "0x1e3",
          "removed": false
        }
      ],
      "logsBloom": "0x00000000000000000000000000000000000040000000000000400001000000000000220000000000000000000000000000000000000800000202000100000000000000000000000004000000000000000080000000000000000000000000002000000000020100000000000000020800000200000000000000020000000000000000008000000000000000000000100000002000000002000000001000000000000000000000000000000000000000000000000000000000000010000000000000000000000080080000000000040000000000000000000000000000000020000000020000000000000000000000000000000000000000000020000000000000",
      "type": "0x2",
      "transactionHash": "0xf876fedf2736670c94583a10a98aa5d5ce743e359ff73d7438a7c8648347732a",
      "transactionIndex": "0x54",
      "blockHash": "0x92d5738146c26af79a21c8763627cd13ce5ae73059946c12b59be4fce7877bf9",
      "blockNumber": "0x25cc9e8",
      "gasUsed": "0xd4ce",
      "effectiveGasPrice": "0x93c16",
      "blobGasUsed": "0xcb88",
      "from": "0xce11d6fb4f1e006e5a348230449dc387fde850cc",
      "to": "0x869f8d6e8d05ec1fdeab1d5d8d67f3d224da7571",
      "contractAddress": null,
      "daFootprintGasScalar": "0x138",
      "l1BaseFeeScalar": "0x8dd",
      "l1BlobBaseFee": "0x17a012",
      "l1BlobBaseFeeScalar": "0x101c12",
      "l1Fee": "0x1acf4416",
      "l1GasPrice": "0x1ba714d",
      "l1GasUsed": "0xa76"
    }
  ],
  "libraries": [],
  "pending": [],
  "returns": {},
  "timestamp": 1766060214114,
  "chain": 8453,
  "commit": "3835213"
}