{
  "transactions": [
    {
      "hash": "0x1f481430bd45ad02c57d6b5c1588c7ccc842ff58563d790990601c86ea540dac",
      "transactionType": "CALL",
      "contractName": "YieldSeekerAdminTimelock",
      "contractAddress": "0x869f8d6e8d05ec1fdeab1d5d8d67f3d224da7571",
      "function": "schedule(address,uint256,bytes,bytes32,bytes32,uint256)",
      "arguments": [
        "0xc5Cb6d1c588C5bfeBd23B817Ce33D9d380e50c00",
        "0",
        "0x89810a90000000000000000000000000caf2da315f5a5499299a312b8a86faafe4bad959000000000000000000000000581ee947078b7009ae0ff840fa15a65526fdaf5c",
        "0x0000000000000000000000000000000000000000000000000000000000000000",
        "0xf4cdacd66fdf705d561aeca6687d24d9b813a343820720967358a9303d36711e",
        "0"
      ],
      "transaction": {
        "from": "0xce11d6fb4f1e006e5a348230449dc387fde850cc",
        "to": "0x869f8d6e8d05ec1fdeab1d5d8d67f3d224da7571",
        "gas": "0x13289",
        "value": "0x0",
        "input": "0x01d5062a000000000000000000000000c5cb6d1c588c5bfebd23b817ce33d9d380e50c00000000000000000000000000000000000000000000000000000000000000000000000000000000000000000000000000000000000000000000000000000000c00000000000000000000000000000000000000000000000000000000000000000f4cdacd66fdf705d561aeca6687d24d9b813a343820720967358a9303d36711e0000000000000000000000000000000000000000000000000000000000000000000000000000000000000000000000000000000000000000000000000000004489810a90000000000000000000000000caf2da315f5a5499299a312b8a86faafe4bad959000000000000000000000000581ee947078b7009ae0ff840fa15a65526fdaf5c00000000000000000000000000000000000000000000000000000000",
        "nonce": "0x4a",
        "chainId": "0x2105"
      },
      "additionalContracts": [],
      "isFixedGasLimit": false
    },
    {
      "hash": "0xdb86e8482527b5f77e28de26d0cdcd5a2324ad422053cb5def587f1e08e3d45f",
      "transactionType": "CALL",
      "contractName": "YieldSeekerAdminTimelock",
      "contractAddress": "0x869f8d6e8d05ec1fdeab1d5d8d67f3d224da7571",
      "function": "execute(address,uint256,bytes,bytes32,bytes32)",
      "arguments": [
        "0xc5Cb6d1c588C5bfeBd23B817Ce33D9d380e50c00",
        "0",
        "0x89810a90000000000000000000000000caf2da315f5a5499299a312b8a86faafe4bad959000000000000000000000000581ee947078b7009ae0ff840fa15a65526fdaf5c",
        "0x0000000000000000000000000000000000000000000000000000000000000000",
        "0xf4cdacd66fdf705d561aeca6687d24d9b813a343820720967358a9303d36711e"
      ],
      "transaction": {
        "from": "0xce11d6fb4f1e006e5a348230449dc387fde850cc",
        "to": "0x869f8d6e8d05ec1fdeab1d5d8d67f3d224da7571",
        "gas": "0x2850b",
        "value": "0x0",
        "input": "0x134008d3000000000000000000000000c5cb6d1c588c5bfebd23b817ce33d9d380e50c00000000000000000000000000000000000000000000000000000000000000000000000000000000000000000000000000000000000000000000000000000000a00000000000000000000000000000000000000000000000000000000000000000f4cdacd66fdf705d561aeca6687d24d9b813a343820720967358a9303d36711e000000000000000000000000000000000000000000000000000000000000004489810a90000000000000000000000000caf2da315f5a5499299a312b8a86faafe4bad959000000000000000000000000581ee947078b7009ae0ff840fa15a65526fdaf5c00000000000000000000000000000000000000000000000000000000",
        "nonce": "0x4b",
        "chainId": "0x2105"
      },
      "additionalContracts": [],
      "isFixedGasLimit": false
    }
  ],
  "receipts": [
    {
      "status": "0x1",
      "cumulativeGasUsed": "0x1c6b85c",
      "logs": [
        {
          "address": "0x869f8d6e8d05ec1fdeab1d5d8d67f3d224da7571",
          "topics": [
            "0x4cf4410cc57040e44862ef0f45f3dd5a5e02db8eb8add648d4b0e236f1d07dca",
            "0x3ceb265e527ea2c9b3d33d765d803f12649c18d0f49ad5a5aeaa755d92b4b230",
            "0x0000000000000000000000000000000000000000000000000000000000000000"
          ],
          "data": "0x000000000000000000000000c5cb6d1c588c5bfebd23b817ce33d9d380e50c00000000000000000000000000000000000000000000000000000000000000000000000000000000000000000000000000000000000000000000000000000000a000000000000000000000000000000000000000000000000000000000000000000000000000000000000000000000000000000000000000000000000000000000000000000000000000000000000000000000000000000000000000000000004489810a90000000000000000000000000caf2da315f5a5499299a312b8a86faafe4bad959000000000000000000000000581ee947078b7009ae0ff840fa15a65526fdaf5c00000000000000000000000000000000000000000000000000000000",
          "blockHash": "0x826ff54002a5163ea3583d790e3a0bdf61032fe18ac3c368cd56688ef3d61c44",
          "blockNumber": "0x25cc5e9",
          "blockTimestamp": "0x6943e8b5",
          "transactionHash": "0xdb86e8482527b5f77e28de26d0cdcd5a2324ad422053cb5def587f1e08e3d45f",
          "transactionIndex": "0xa6",
          "logIndex": "0x2bf",
          "removed": false
        },
        {
          "address": "0x869f8d6e8d05ec1fdeab1d5d8d67f3d224da7571",
          "topics": [
            "0x20fda5fd27a1ea7bf5b9567f143ac5470bb059374a27e8f67cb44f946f6d0387",
            "0x3ceb265e527ea2c9b3d33d765d803f12649c18d0f49ad5a5aeaa755d92b4b230"
          ],
          "data": "0xf4cdacd66fdf705d561aeca6687d24d9b813a343820720967358a9303d36711e",
          "blockHash": "0x826ff54002a5163ea3583d790e3a0bdf61032fe18ac3c368cd56688ef3d61c44",
          "blockNumber": "0x25cc5e9",
          "blockTimestamp": "0x6943e8b5",
          "transactionHash": "0xdb86e8482527b5f77e28de26d0cdcd5a2324ad422053cb5def587f1e08e3d45f",
          "transactionIndex": "0xa6",
          "logIndex": "0x2c0",
          "removed": false
        }
      ],
      "logsBloom": "0x00000000000000000000000040000000000000000000000000000000000000000000000000000000000000000000000100000000800000000000000000000000000000000000000000000000000000000080000000000008000000000000000000000000020000000000000000020800000080000000100000000000000000000000000000000000000000000000000000000000000002000000000000000008000000000400000000000000000000000000000000000000000000000000000000000000000000000000000000000000000000000000400000000000000020000000000000000000000000000000000000000000000000000000000000000000",
      "type": "0x2",
      "transactionHash": "0xdb86e8482527b5f77e28de26d0cdcd5a2324ad422053cb5def587f1e08e3d45f",
      "transactionIndex": "0xa6",
      "blockHash": "0x826ff54002a5163ea3583d790e3a0bdf61032fe18ac3c368cd56688ef3d61c44",
      "blockNumber": "0x25cc5e9",
      "gasUsed": "0xddee",
      "effectiveGasPrice": "0x8589a",
      "blobGasUsed": "0xcdf8",
      "from": "0xce11d6fb4f1e006e5a348230449dc387fde850cc",
      "to": "0x869f8d6e8d05ec1fdeab1d5d8d67f3d224da7571",
      "contractAddress": null,
      "daFootprintGasScalar": "0x138",
      "l1BaseFeeScalar": "0x8dd",
      "l1BlobBaseFee": "0x1689c1",
      "l1BlobBaseFeeScalar": "0x101c12",
      "l1Fee": "0x1a98c5bb",
      "l1GasPrice": "0x1c60060",
      "l1GasUsed": "0xa90"
    },
    {
      "status": "0x1",
      "cumulativeGasUsed": "0x1c88b5c",
      "logs": [
        {
          "address": "0xc5cb6d1c588c5bfebd23b817ce33d9d380e50c00",
          "topics": [
            "0x1cf35c87329e14a81fdc68af8a463c1db203ccfc925ff5150f5dbc71bc4c2372",
            "0x000000000000000000000000caf2da315f5a5499299a312b8a86faafe4bad959",
            "0x000000000000000000000000581ee947078b7009ae0ff840fa15a65526fdaf5c"
          ],
          "data": "0x",
          "blockHash": "0x826ff54002a5163ea3583d790e3a0bdf61032fe18ac3c368cd56688ef3d61c44",
          "blockNumber": "0x25cc5e9",
          "blockTimestamp": "0x6943e8b5",
          "transactionHash": "0x1f481430bd45ad02c57d6b5c1588c7ccc842ff58563d790990601c86ea540dac",
          "transactionIndex": "0xa7",
          "logIndex": "0x2c1",
          "removed": false
        },
        {
          "address": "0x869f8d6e8d05ec1fdeab1d5d8d67f3d224da7571",
          "topics": [
            "0xc2617efa69bab66782fa219543714338489c4e9e178271560a91b82c3f612b58",
            "0x3ceb265e527ea2c9b3d33d765d803f12649c18d0f49ad5a5aeaa755d92b4b230",
            "0x0000000000000000000000000000000000000000000000000000000000000000"
          ],
          "data": "0x000000000000000000000000c5cb6d1c588c5bfebd23b817ce33d9d380e50c0000000000000000000000000000000000000000000000000000000000000000000000000000000000000000000000000000000000000000000000000000000060000000000000000000000000000000000000000000000000000000000000004489810a90000000000000000000000000caf2da315f5a5499299a312b8a86faafe4bad959000000000000000000000000581ee947078b7009ae0ff840fa15a65526fdaf5c00000000000000000000000000000000000000000000000000000000",
          "blockHash": "0x826ff54002a5163ea3583d790e3a0bdf61032fe18ac3c368cd56688ef3d61c44",
          "blockNumber": "0x25cc5e9",
          "blockTimestamp": "0x6943e8b5",
          "transactionHash": "0x1f481430bd45ad02c57d6b5c1588c7ccc842ff58563d790990601c86ea540dac",
          "transactionIndex": "0xa7",
          "logIndex": "0x2c2",
          "removed": false
        }
      ],
      "logsBloom": "0x00000000000000000000000000000000000040000000000000000000000000000000200000000000000000000000000000000000000800000202000000000000000000000000000004000000000000000080000000000000000000000000002000000000020100000000000000020800000200000000100000020000000000000000008000000000000000000000000000002000000002000000001000000008000000000400000000000000000000000000000000000000000010000000000000000000000000080000000000000000000000000000000000000000000020000000000000000000000000000000000000000000000000000000000000000000",
      "type": "0x2",
      "transactionHash": "0x1f481430bd45ad02c57d6b5c1588c7ccc842ff58563d790990601c86ea540dac",
      "transactionIndex": "0xa7",
      "blockHash": "0x826ff54002a5163ea3583d790e3a0bdf61032fe18ac3c368cd56688ef3d61c44",
      "blockNumber": "0x25cc5e9",
      "gasUsed": "0x1d300",
      "effectiveGasPrice": "0x8589a",
      "blobGasUsed": "0xca50",
      "from": "0xce11d6fb4f1e006e5a348230449dc387fde850cc",
      "to": "0x869f8d6e8d05ec1fdeab1d5d8d67f3d224da7571",
      "contractAddress": null,
      "daFootprintGasScalar": "0x138",
      "l1BaseFeeScalar": "0x8dd",
      "l1BlobBaseFee": "0x1689c1",
      "l1BlobBaseFeeScalar": "0x101c12",
      "l1Fee": "0x1a33b289",
      "l1GasPrice": "0x1c60060",
      "l1GasUsed": "0xa68"
    }
  ],
  "libraries": [],
  "pending": [],
  "returns": {},
  "timestamp": 1766058168214,
  "chain": 8453,
  "commit": "a76589e"
}