{
  "transactions": [
    {
      "hash": "0xde82651a064e2654e4f661de20545856ee284077253ae41c6ba270d1981a330a",
      "transactionType": "CALL",
      "contractName": null,
      "contractAddress": "0x8e074b7636f6a56097f1f719e708e2c932e23bab",
      "function": "schedule(address,uint256,bytes,bytes32,bytes32,uint256)",
      "arguments": [
        "0x4A5c3Cca0Ac2a1949D600891A89dd19B35189Cf0",
        "0",
        "0x9362149e0000000000000000000000009c6864105aec23388c89600046213a44c384c8310000000000000000000000003bf2b1e1da1bd2c3d397e9df06b7f717c2f12ad7",
        "0x7ac5d88a13cd2acf506ab335af9f46af373b9527f040efc590ac456670847bff",
        "0xd154c4ccfdcf132bc31b97b21159c4f01d60285cccd548750071c66d8b045a5a",
        "345600"
      ],
      "transaction": {
        "from": "0xf8cbf6437d2473ec59885299af38d9a13ce97eca",
        "to": "0x8e074b7636f6a56097f1f719e708e2c932e23bab",
        "gas": "0x146d5",
        "value": "0x0",
        "input": "0x01d5062a0000000000000000000000004a5c3cca0ac2a1949d600891a89dd19b35189cf0000000000000000000000000000000000000000000000000000000000000000000000000000000000000000000000000000000000000000000000000000000c07ac5d88a13cd2acf506ab335af9f46af373b9527f040efc590ac456670847bffd154c4ccfdcf132bc31b97b21159c4f01d60285cccd548750071c66d8b045a5a000000000000000000000000000000000000000000000000000000000005460000000000000000000000000000000000000000000000000000000000000000449362149e0000000000000000000000009c6864105aec23388c89600046213a44c384c8310000000000000000000000003bf2b1e1da1bd2c3d397e9df06b7f717c2f12ad700000000000000000000000000000000000000000000000000000000",
        "nonce": "0x68",
        "chainId": "0x2105"
      },
      "additionalContracts": [],
      "isFixedGasLimit": false
    }
  ],
  "receipts": [
    {
      "status": "0x1",
      "cumulativeGasUsed": "0x1f354b0",
      "logs": [
        {
          "address": "0x8e074b7636f6a56097f1f719e708e2c932e23bab",
          "topics": [
            "0x4cf4410cc57040e44862ef0f45f3dd5a5e02db8eb8add648d4b0e236f1d07dca",
            "0x97c75ae7409a46034a6a38cfdb90ba5791f68d6e106a7c1e2f1cf963be0ea802",
            "0x0000000000000000000000000000000000000000000000000000000000000000"
          ],
          "data": "0x0000000000000000000000004a5c3cca0ac2a1949d600891a89dd19b35189cf0000000000000000000000000000000000000000000000000000000000000000000000000000000000000000000000000000000000000000000000000000000a07ac5d88a13cd2acf506ab335af9f46af373b9527f040efc590ac456670847bff000000000000000000000000000000000000000000000000000000000005460000000000000000000000000000000000000000000000000000000000000000449362149e0000000000000000000000009c6864105aec23388c89600046213a44c384c8310000000000000000000000003bf2b1e1da1bd2c3d397e9df06b7f717c2f12ad700000000000000000000000000000000000000000000000000000000",
          "blockHash": "0xa60e94b88f12a0cc594f3736ef01a4b7fbec975f56032eeb02803f448d61bf39",
          "blockNumber": "0x296ec73",
          "blockTimestamp": "0x69b835c9",
          "transactionHash": "0xde82651a064e2654e4f661de20545856ee284077253ae41c6ba270d1981a330a",
          "transactionIndex": "0x77",
          "logIndex": "0x295",
          "removed": false
        },
        {
          "address": "0x8e074b7636f6a56097f1f719e708e2c932e23bab",
          "topics": [
            "0x20fda5fd27a1ea7bf5b9567f143ac5470bb059374a27e8f67cb44f946f6d0387",
            "0x97c75ae7409a46034a6a38cfdb90ba5791f68d6e106a7c1e2f1cf963be0ea802"
          ],
          "data": "0xd154c4ccfdcf132bc31b97b21159c4f01d60285cccd548750071c66d8b045a5a",
          "blockHash": "0xa60e94b88f12a0cc594f3736ef01a4b7fbec975f56032eeb02803f448d61bf39",
          "blockNumber": "0x296ec73",
          "blockTimestamp": "0x69b835c9",
          "transactionHash": "0xde82651a064e2654e4f661de20545856ee284077253ae41c6ba270d1981a330a",
          "transactionIndex": "0x77",
          "logIndex": "0x296",
          "removed": false
        }
      ],
      "logsBloom": "0x00000000000000000000000040000000000000000000000000000000000000000000400000001000000000000000000100000000800000000000000000000000000000000000000000000000000000000000000000000008000000000000000000000000020000000000000000000800000080000000000000000000000000000000000000000000000000000000000000000000000000000000000000000000000000000000000000000000000000000000000020000000000000000000000000000010000000000000000000000000000000000000400000000000000020000000000000000000000000000000000000000000000000000000000008800000",
      "type": "0x2",
      "transactionHash": "0xde82651a064e2654e4f661de20545856ee284077253ae41c6ba270d1981a330a",
      "transactionIndex": "0x77",
      "blockHash": "0xa60e94b88f12a0cc594f3736ef01a4b7fbec975f56032eeb02803f448d61bf39",
      "blockNumber": "0x296ec73",
      "gasUsed": "0xdf7a",
      "effectiveGasPrice": "0x679a3e",
      "blobGasUsed": "0x6ec4",
      "from": "0xf8cbf6437d2473ec59885299af38d9a13ce97eca",
      "to": "0x8e074b7636f6a56097f1f719e708e2c932e23bab",
      "contractAddress": null,
      "daFootprintGasScalar": "0x8b",
      "l1BaseFeeScalar": "0x8dd",
      "l1BlobBaseFee": "0xe38109",
      "l1BlobBaseFeeScalar": "0x101c12",
      "l1Fee": "0x12da0b0ab",
      "l1GasPrice": "0xed8d82c",
      "l1GasUsed": "0xcc2"
    }
  ],
  "libraries": [],
  "pending": [],
  "returns": {},
  "timestamp": 1773680076835,
  "chain": 8453,
  "commit": "dee1601"
}