{
  "transactions": [
    {
      "hash": "0x9e11c386dadeced19d6ad0e7682cc9ff131509ab4e8c22afe2ec9f46644afa3e",
      "transactionType": "CALL",
      "contractName": null,
      "contractAddress": "0x8e074b7636f6a56097f1f719e708e2c932e23bab",
      "function": "schedule(address,uint256,bytes,bytes32,bytes32,uint256)",
      "arguments": [
        "0x4A5c3Cca0Ac2a1949D600891A89dd19B35189Cf0",
        "0",
        "0x9362149e0000000000000000000000004c1aeda9b43efcf1da1d1755b18802aabe90f61e0000000000000000000000003bf2b1e1da1bd2c3d397e9df06b7f717c2f12ad7",
        "0x7ac5d88a13cd2acf506ab335af9f46af373b9527f040efc590ac456670847bff",
        "0x648a20f90a0ab20f54f927dabcf5abc02d0c0e06b6e96c4b016501404908a8f6",
        "345600"
      ],
      "transaction": {
        "from": "0xf8cbf6437d2473ec59885299af38d9a13ce97eca",
        "to": "0x8e074b7636f6a56097f1f719e708e2c932e23bab",
        "gas": "0x146f8",
        "value": "0x0",
        "input": "0x01d5062a0000000000000000000000004a5c3cca0ac2a1949d600891a89dd19b35189cf0000000000000000000000000000000000000000000000000000000000000000000000000000000000000000000000000000000000000000000000000000000c07ac5d88a13cd2acf506ab335af9f46af373b9527f040efc590ac456670847bff648a20f90a0ab20f54f927dabcf5abc02d0c0e06b6e96c4b016501404908a8f6000000000000000000000000000000000000000000000000000000000005460000000000000000000000000000000000000000000000000000000000000000449362149e0000000000000000000000004c1aeda9b43efcf1da1d1755b18802aabe90f61e0000000000000000000000003bf2b1e1da1bd2c3d397e9df06b7f717c2f12ad700000000000000000000000000000000000000000000000000000000",
        "nonce": "0x6d",
        "chainId": "0x2105"
      },
      "additionalContracts": [],
      "isFixedGasLimit": false
    }
  ],
  "receipts": [
    {
      "status": "0x1",
      "cumulativeGasUsed": "0x26b04ef",
      "logs": [
        {
          "address": "0x8e074b7636f6a56097f1f719e708e2c932e23bab",
          "topics": [
            "0x4cf4410cc57040e44862ef0f45f3dd5a5e02db8eb8add648d4b0e236f1d07dca",
            "0xcc8453efb91f8788c6c4de82312dc88c5e961381c339a2058b5c20227d49f89a",
            "0x0000000000000000000000000000000000000000000000000000000000000000"
          ],
          "data": "0x0000000000000000000000004a5c3cca0ac2a1949d600891a89dd19b35189cf0000000000000000000000000000000000000000000000000000000000000000000000000000000000000000000000000000000000000000000000000000000a07ac5d88a13cd2acf506ab335af9f46af373b9527f040efc590ac456670847bff000000000000000000000000000000000000000000000000000000000005460000000000000000000000000000000000000000000000000000000000000000449362149e0000000000000000000000004c1aeda9b43efcf1da1d1755b18802aabe90f61e0000000000000000000000003bf2b1e1da1bd2c3d397e9df06b7f717c2f12ad700000000000000000000000000000000000000000000000000000000",
          "blockHash": "0xc5c3c2a6d9dd2bc8d05ecf77edb5861e84cfd244f47f2720903ba578d86e43fc",
          "blockNumber": "0x296ec98",
          "blockTimestamp": "0x69b83613",
          "transactionHash": "0x9e11c386dadeced19d6ad0e7682cc9ff131509ab4e8c22afe2ec9f46644afa3e",
          "transactionIndex": "0xce",
          "logIndex": "0x2ea",
          "removed": false
        },
        {
          "address": "0x8e074b7636f6a56097f1f719e708e2c932e23bab",
          "topics": [
            "0x20fda5fd27a1ea7bf5b9567f143ac5470bb059374a27e8f67cb44f946f6d0387",
            "0xcc8453efb91f8788c6c4de82312dc88c5e961381c339a2058b5c20227d49f89a"
          ],
          "data": "0x648a20f90a0ab20f54f927dabcf5abc02d0c0e06b6e96c4b016501404908a8f6",
          "blockHash": "0xc5c3c2a6d9dd2bc8d05ecf77edb5861e84cfd244f47f2720903ba578d86e43fc",
          "blockNumber": "0x296ec98",
          "blockTimestamp": "0x69b83613",
          "transactionHash": "0x9e11c386dadeced19d6ad0e7682cc9ff131509ab4e8c22afe2ec9f46644afa3e",
          "transactionIndex": "0xce",
          "logIndex": "0x2eb",
          "removed": false
        }
      ],
      "logsBloom": "0x00000000000000000000000040000000000000000000000000000000000000000000000000001000000000000000000100000000800000000000000000000000000000000000000000100000000000000000000000000008000000000000000000000000020000000000000000000800000080000000000000000000000000000000000000000000000000000000000000001000000000000000000000040000000000000000000000000000000000000000000000000000000000000000000000000010000000000000000000000000000000000000400000000000000020000000000000000000000000000000000000000000000000000000000000800000",
      "type": "0x2",
      "transactionHash": "0x9e11c386dadeced19d6ad0e7682cc9ff131509ab4e8c22afe2ec9f46644afa3e",
      "transactionIndex": "0xce",
      "blockHash": "0xc5c3c2a6d9dd2bc8d05ecf77edb5861e84cfd244f47f2720903ba578d86e43fc",
      "blockNumber": "0x296ec98",
      "gasUsed": "0xdf92",
      "effectiveGasPrice": "0x693373",
      "blobGasUsed": "0x6ec4",
      "from": "0xf8cbf6437d2473ec59885299af38d9a13ce97eca",
      "to": "0x8e074b7636f6a56097f1f719e708e2c932e23bab",
      "contractAddress": null,
      "daFootprintGasScalar": "0x8b",
      "l1BaseFeeScalar": "0x8dd",
      "l1BlobBaseFee": "0xdb2786",
      "l1BlobBaseFeeScalar": "0x101c12",
      "l1Fee": "0x13250056c",
      "l1GasPrice": "0x106d7534",
      "l1GasUsed": "0xcc2"
    }
  ],
  "libraries": [],
  "pending": [],
  "returns": {},
  "timestamp": 1773680150343,
  "chain": 8453,
  "commit": "dee1601"
}