{
  "transactions": [
    {
      "hash": "0xf203e4eca4537a5a6d2bbe9ded7b7d58be8e2baadbff4c923e24bd1df47ada01",
      "transactionType": "CALL",
      "contractName": null,
      "contractAddress": "0x8e074b7636f6a56097f1f719e708e2c932e23bab",
      "function": "schedule(address,uint256,bytes,bytes32,bytes32,uint256)",
      "arguments": [
        "0x4A5c3Cca0Ac2a1949D600891A89dd19B35189Cf0",
        "0",
        "0x9362149e000000000000000000000000e7d0dbe3493830e2ab62619211a2bff0fc60db420000000000000000000000003bf2b1e1da1bd2c3d397e9df06b7f717c2f12ad7",
        "0x0000000000000000000000000000000000000000000000000000000000000000",
        "0x4f1aa52885323303b8a2f2c6a0e9eadd572d49c89417e2cc647f6386e8c5e149",
        "345600"
      ],
      "transaction": {
        "from": "0xd6768630e0b26eba52d52e75a5d21989aa750113",
        "to": "0x8e074b7636f6a56097f1f719e708e2c932e23bab",
        "gas": "0x144c6",
        "value": "0x0",
        "input": "0x01d5062a0000000000000000000000004a5c3cca0ac2a1949d600891a89dd19b35189cf0000000000000000000000000000000000000000000000000000000000000000000000000000000000000000000000000000000000000000000000000000000c000000000000000000000000000000000000000000000000000000000000000004f1aa52885323303b8a2f2c6a0e9eadd572d49c89417e2cc647f6386e8c5e149000000000000000000000000000000000000000000000000000000000005460000000000000000000000000000000000000000000000000000000000000000449362149e000000000000000000000000e7d0dbe3493830e2ab62619211a2bff0fc60db420000000000000000000000003bf2b1e1da1bd2c3d397e9df06b7f717c2f12ad700000000000000000000000000000000000000000000000000000000",
        "nonce": "0x7",
        "chainId": "0x2105"
      },
      "additionalContracts": [],
      "isFixedGasLimit": false
    }
  ],
  "receipts": [
    {
      "type": "0x2",
      "status": "0x1",
      "cumulativeGasUsed": "0x1cc0fd4",
      "logs": [
        {
          "address": "0x8e074b7636f6a56097f1f719e708e2c932e23bab",
          "topics": [
            "0x4cf4410cc57040e44862ef0f45f3dd5a5e02db8eb8add648d4b0e236f1d07dca",
            "0xd20f86ae2cce9b44ec26ff82aa03c0f32fdb061b104e059635a5ddc3d224ed7c",
            "0x0000000000000000000000000000000000000000000000000000000000000000"
          ],
          "data": "0x0000000000000000000000004a5c3cca0ac2a1949d600891a89dd19b35189cf0000000000000000000000000000000000000000000000000000000000000000000000000000000000000000000000000000000000000000000000000000000a00000000000000000000000000000000000000000000000000000000000000000000000000000000000000000000000000000000000000000000000000005460000000000000000000000000000000000000000000000000000000000000000449362149e000000000000000000000000e7d0dbe3493830e2ab62619211a2bff0fc60db420000000000000000000000003bf2b1e1da1bd2c3d397e9df06b7f717c2f12ad700000000000000000000000000000000000000000000000000000000",
          "blockHash": "0xcf1cc9a02cc129e0164871ad0938575cd259c2405c4eae0a63218f6f52fbb7f2",
          "blockNumber": "0x2d8ac51",
          "blockTimestamp": "0x6a3bb585",
          "transactionHash": "0xf203e4eca4537a5a6d2bbe9ded7b7d58be8e2baadbff4c923e24bd1df47ada01",
          "transactionIndex": "0xe2",
          "logIndex": "0x20b",
          "removed": false
        },
        {
          "address": "0x8e074b7636f6a56097f1f719e708e2c932e23bab",
          "topics": [
            "0x20fda5fd27a1ea7bf5b9567f143ac5470bb059374a27e8f67cb44f946f6d0387",
            "0xd20f86ae2cce9b44ec26ff82aa03c0f32fdb061b104e059635a5ddc3d224ed7c"
          ],
          "data": "0x4f1aa52885323303b8a2f2c6a0e9eadd572d49c89417e2cc647f6386e8c5e149",
          "blockHash": "0xcf1cc9a02cc129e0164871ad0938575cd259c2405c4eae0a63218f6f52fbb7f2",
          "blockNumber": "0x2d8ac51",
          "blockTimestamp": "0x6a3bb585",
          "transactionHash": "0xf203e4eca4537a5a6d2bbe9ded7b7d58be8e2baadbff4c923e24bd1df47ada01",
          "transactionIndex": "0xe2",
          "logIndex": "0x20c",
          "removed": false
        }
      ],
      "logsBloom": "0x00000000000000000000000040000000000000000000000000000000000000000000100000001000000000000000000100000000800000000000000000000000000000000000000000000000000000000000000000000008000000000000000000000000020000000000000000000800000080080000004000000000000000000000000000000000000000000000000000000000000000000000000000000000000000000000000000000000000000000000000000000000000000000000000000000010000000000000000000000000000000000000400000000000000020000000000000000000000000000000000000000000000000000000000000800000",
      "transactionHash": "0xf203e4eca4537a5a6d2bbe9ded7b7d58be8e2baadbff4c923e24bd1df47ada01",
      "transactionIndex": "0xe2",
      "blockHash": "0xcf1cc9a02cc129e0164871ad0938575cd259c2405c4eae0a63218f6f52fbb7f2",
      "blockNumber": "0x2d8ac51",
      "gasUsed": "0xde12",
      "effectiveGasPrice": "0x578732",
      "blobGasUsed": "0x677c",
      "from": "0xd6768630e0b26eba52d52e75a5d21989aa750113",
      "to": "0x8e074b7636f6a56097f1f719e708e2c932e23bab",
      "contractAddress": null,
      "l1GasPrice": "0x9347edc",
      "l1GasUsed": "0xb31",
      "l1Fee": "0x9ce4d759",
      "l1BaseFeeScalar": "0x8dd",
      "l1BlobBaseFee": "0x836601",
      "l1BlobBaseFeeScalar": "0x101c12",
      "daFootprintGasScalar": "0x94"
    }
  ],
  "libraries": [],
  "pending": [],
  "returns": {},
  "timestamp": 1782297993755,
  "chain": 8453,
  "commit": "0e39ed8"
}