{
  "transactions": [
    {
      "hash": "0xe5c5f24c50640652c7400e6ea4dff5d424e6226d42d961fd8e4782f55e8e390d",
      "transactionType": "CALL",
      "contractName": null,
      "contractAddress": "0x8e074b7636f6a56097f1f719e708e2c932e23bab",
      "function": "schedule(address,uint256,bytes,bytes32,bytes32,uint256)",
      "arguments": [
        "0x4A5c3Cca0Ac2a1949D600891A89dd19B35189Cf0",
        "0",
        "0x9362149e000000000000000000000000beeff7ae5e00aae3db302e4b0d8c883810a581000000000000000000000000003bf2b1e1da1bd2c3d397e9df06b7f717c2f12ad7",
        "0x0000000000000000000000000000000000000000000000000000000000000000",
        "0x8c627758bdc155fdbe8d5b068cfb2c2c60900d7e8be7216c7d9ee140372bde08",
        "345600"
      ],
      "transaction": {
        "from": "0xd6768630e0b26eba52d52e75a5d21989aa750113",
        "to": "0x8e074b7636f6a56097f1f719e708e2c932e23bab",
        "gas": "0x144a3",
        "value": "0x0",
        "input": "0x01d5062a0000000000000000000000004a5c3cca0ac2a1949d600891a89dd19b35189cf0000000000000000000000000000000000000000000000000000000000000000000000000000000000000000000000000000000000000000000000000000000c000000000000000000000000000000000000000000000000000000000000000008c627758bdc155fdbe8d5b068cfb2c2c60900d7e8be7216c7d9ee140372bde08000000000000000000000000000000000000000000000000000000000005460000000000000000000000000000000000000000000000000000000000000000449362149e000000000000000000000000beeff7ae5e00aae3db302e4b0d8c883810a581000000000000000000000000003bf2b1e1da1bd2c3d397e9df06b7f717c2f12ad700000000000000000000000000000000000000000000000000000000",
        "nonce": "0x10",
        "chainId": "0x2105"
      },
      "additionalContracts": [],
      "isFixedGasLimit": false
    }
  ],
  "receipts": [
    {
      "type": "0x2",
      "status": "0x1",
      "cumulativeGasUsed": "0x9420d0",
      "logs": [
        {
          "address": "0x8e074b7636f6a56097f1f719e708e2c932e23bab",
          "topics": [
            "0x4cf4410cc57040e44862ef0f45f3dd5a5e02db8eb8add648d4b0e236f1d07dca",
            "0x842030bb1924694a775f4af21a2084b575f23d8a09b7b2a0ad954d59f8096d01",
            "0x0000000000000000000000000000000000000000000000000000000000000000"
          ],
          "data": "0x0000000000000000000000004a5c3cca0ac2a1949d600891a89dd19b35189cf0000000000000000000000000000000000000000000000000000000000000000000000000000000000000000000000000000000000000000000000000000000a00000000000000000000000000000000000000000000000000000000000000000000000000000000000000000000000000000000000000000000000000005460000000000000000000000000000000000000000000000000000000000000000449362149e000000000000000000000000beeff7ae5e00aae3db302e4b0d8c883810a581000000000000000000000000003bf2b1e1da1bd2c3d397e9df06b7f717c2f12ad700000000000000000000000000000000000000000000000000000000",
          "blockHash": "0x11b0013068d02e22e7a6c893f4aa59d65afe95a3dd0861d913868972422fa406",
          "blockNumber": "0x2da03b2",
          "blockTimestamp": "0x6a3e6447",
          "transactionHash": "0xe5c5f24c50640652c7400e6ea4dff5d424e6226d42d961fd8e4782f55e8e390d",
          "transactionIndex": "0x2a",
          "logIndex": "0xa9",
          "removed": false
        },
        {
          "address": "0x8e074b7636f6a56097f1f719e708e2c932e23bab",
          "topics": [
            "0x20fda5fd27a1ea7bf5b9567f143ac5470bb059374a27e8f67cb44f946f6d0387",
            "0x842030bb1924694a775f4af21a2084b575f23d8a09b7b2a0ad954d59f8096d01"
          ],
          "data": "0x8c627758bdc155fdbe8d5b068cfb2c2c60900d7e8be7216c7d9ee140372bde08",
          "blockHash": "0x11b0013068d02e22e7a6c893f4aa59d65afe95a3dd0861d913868972422fa406",
          "blockNumber": "0x2da03b2",
          "blockTimestamp": "0x6a3e6447",
          "transactionHash": "0xe5c5f24c50640652c7400e6ea4dff5d424e6226d42d961fd8e4782f55e8e390d",
          "transactionIndex": "0x2a",
          "logIndex": "0xaa",
          "removed": false
        }
      ],
      "logsBloom": "0x00000000000000000000000040000000000000000000000000000000000000000000000000001000000000000000000100000000800000000000000000000000000000000000000000000000000000000000000000000008000000000000000000000000020000000000000000000800000080000000000000000000000000000000000000000000000000000000000000000000000000000000000000000000000000000000000000000000000000020000000000000000000000000000000000000010000000010000800000000000000000000000400000000000000020000000000000000000000000000000000000000000000000000000000000800000",
      "transactionHash": "0xe5c5f24c50640652c7400e6ea4dff5d424e6226d42d961fd8e4782f55e8e390d",
      "transactionIndex": "0x2a",
      "blockHash": "0x11b0013068d02e22e7a6c893f4aa59d65afe95a3dd0861d913868972422fa406",
      "blockNumber": "0x2da03b2",
      "gasUsed": "0xddfa",
      "effectiveGasPrice": "0x57bcf0",
      "blobGasUsed": "0x66e8",
      "from": "0xd6768630e0b26eba52d52e75a5d21989aa750113",
      "to": "0x8e074b7636f6a56097f1f719e708e2c932e23bab",
      "contractAddress": null,
      "l1GasPrice": "0x5be3f46",
      "l1GasUsed": "0xb24",
      "l1Fee": "0x5ece4d95",
      "l1BaseFeeScalar": "0x8dd",
      "l1BlobBaseFee": "0x4e690a",
      "l1BlobBaseFeeScalar": "0x101c12",
      "daFootprintGasScalar": "0x94"
    }
  ],
  "libraries": [],
  "pending": [],
  "returns": {},
  "timestamp": 1782473801323,
  "chain": 8453,
  "commit": "de5ca46"
}