{
  "transactions": [
    {
      "hash": "0x99711d61f55104012553152434fc7b4daab156f73171990765330bcbb09b678d",
      "transactionType": "CALL",
      "contractName": null,
      "contractAddress": "0x8e074b7636f6a56097f1f719e708e2c932e23bab",
      "function": "schedule(address,uint256,bytes,bytes32,bytes32,uint256)",
      "arguments": [
        "0x4A5c3Cca0Ac2a1949D600891A89dd19B35189Cf0",
        "0",
        "0x9362149e000000000000000000000000616a4e1db48e22028f6bbf20444cd3b8e32737380000000000000000000000003bf2b1e1da1bd2c3d397e9df06b7f717c2f12ad7",
        "0x7ac5d88a13cd2acf506ab335af9f46af373b9527f040efc590ac456670847bff",
        "0xc09b7424c6e3a72487eb60b867fa471ab2c40a9af316bb213225d1c4c8f78c7d",
        "345600"
      ],
      "transaction": {
        "from": "0xf8cbf6437d2473ec59885299af38d9a13ce97eca",
        "to": "0x8e074b7636f6a56097f1f719e708e2c932e23bab",
        "gas": "0x146f8",
        "value": "0x0",
        "input": "0x01d5062a0000000000000000000000004a5c3cca0ac2a1949d600891a89dd19b35189cf0000000000000000000000000000000000000000000000000000000000000000000000000000000000000000000000000000000000000000000000000000000c07ac5d88a13cd2acf506ab335af9f46af373b9527f040efc590ac456670847bffc09b7424c6e3a72487eb60b867fa471ab2c40a9af316bb213225d1c4c8f78c7d000000000000000000000000000000000000000000000000000000000005460000000000000000000000000000000000000000000000000000000000000000449362149e000000000000000000000000616a4e1db48e22028f6bbf20444cd3b8e32737380000000000000000000000003bf2b1e1da1bd2c3d397e9df06b7f717c2f12ad700000000000000000000000000000000000000000000000000000000",
        "nonce": "0x58",
        "chainId": "0x2105"
      },
      "additionalContracts": [],
      "isFixedGasLimit": false
    }
  ],
  "receipts": [
    {
      "status": "0x1",
      "cumulativeGasUsed": "0x175aa81",
      "logs": [
        {
          "address": "0x8e074b7636f6a56097f1f719e708e2c932e23bab",
          "topics": [
            "0x4cf4410cc57040e44862ef0f45f3dd5a5e02db8eb8add648d4b0e236f1d07dca",
            "0x72587f6fe5e68e7ac986f17b2e4ffbed16deaf4a20b5e245d6c27b2dd72961c1",
            "0x0000000000000000000000000000000000000000000000000000000000000000"
          ],
          "data": "0x0000000000000000000000004a5c3cca0ac2a1949d600891a89dd19b35189cf0000000000000000000000000000000000000000000000000000000000000000000000000000000000000000000000000000000000000000000000000000000a07ac5d88a13cd2acf506ab335af9f46af373b9527f040efc590ac456670847bff000000000000000000000000000000000000000000000000000000000005460000000000000000000000000000000000000000000000000000000000000000449362149e000000000000000000000000616a4e1db48e22028f6bbf20444cd3b8e32737380000000000000000000000003bf2b1e1da1bd2c3d397e9df06b7f717c2f12ad700000000000000000000000000000000000000000000000000000000",
          "blockHash": "0xd8cf53631978d9be3062e63e4408e0697bec9e1409108bbb9427f969437adb0a",
          "blockNumber": "0x296ebf3",
          "blockTimestamp": "0x69b834c9",
          "transactionHash": "0x99711d61f55104012553152434fc7b4daab156f73171990765330bcbb09b678d",
          "transactionIndex": "0x65",
          "logIndex": "0x1ec",
          "removed": false
        },
        {
          "address": "0x8e074b7636f6a56097f1f719e708e2c932e23bab",
          "topics": [
            "0x20fda5fd27a1ea7bf5b9567f143ac5470bb059374a27e8f67cb44f946f6d0387",
            "0x72587f6fe5e68e7ac986f17b2e4ffbed16deaf4a20b5e245d6c27b2dd72961c1"
          ],
          "data": "0xc09b7424c6e3a72487eb60b867fa471ab2c40a9af316bb213225d1c4c8f78c7d",
          "blockHash": "0xd8cf53631978d9be3062e63e4408e0697bec9e1409108bbb9427f969437adb0a",
          "blockNumber": "0x296ebf3",
          "blockTimestamp": "0x69b834c9",
          "transactionHash": "0x99711d61f55104012553152434fc7b4daab156f73171990765330bcbb09b678d",
          "transactionIndex": "0x65",
          "logIndex": "0x1ed",
          "removed": false
        }
      ],
      "logsBloom": "0x00000000000000000000000040000000000000000000000000000000000000004000000000001000000000000000000100000000800000000000000000000000000000000000000000000000000000000000000000000008000000000000000000000000020000000000000000000800000080000000000000000000000000000000000000000000000000400000000000000000000000000000000000000000000000001000000000000000000000000000000000000000000000000000000000000010000000000000000000000000000000000000400000000000000020000000000000000000000000000000000000000000000000000000000000800000",
      "type": "0x2",
      "transactionHash": "0x99711d61f55104012553152434fc7b4daab156f73171990765330bcbb09b678d",
      "transactionIndex": "0x65",
      "blockHash": "0xd8cf53631978d9be3062e63e4408e0697bec9e1409108bbb9427f969437adb0a",
      "blockNumber": "0x296ebf3",
      "gasUsed": "0xdf92",
      "effectiveGasPrice": "0x6336f6",
      "blobGasUsed": "0x6ec4",
      "from": "0xf8cbf6437d2473ec59885299af38d9a13ce97eca",
      "to": "0x8e074b7636f6a56097f1f719e708e2c932e23bab",
      "contractAddress": null,
      "daFootprintGasScalar": "0x8b",
      "l1BaseFeeScalar": "0x8dd",
      "l1BlobBaseFee": "0xe45b3a",
      "l1BlobBaseFeeScalar": "0x101c12",
      "l1Fee": "0x139b528ba",
      "l1GasPrice": "0x10613f7e",
      "l1GasUsed": "0xcc2"
    }
  ],
  "libraries": [],
  "pending": [],
  "returns": {},
  "timestamp": 1773679820707,
  "chain": 8453,
  "commit": "dee1601"
}