{
  "transactions": [
    {
      "hash": "0xa8ae038e3abfc31d5f9ec19ecd2327923c24bbf49342f2ca431b66308c09fae4",
      "transactionType": "CALL",
      "contractName": null,
      "contractAddress": "0x8e074b7636f6a56097f1f719e708e2c932e23bab",
      "function": "schedule(address,uint256,bytes,bytes32,bytes32,uint256)",
      "arguments": [
        "0x4A5c3Cca0Ac2a1949D600891A89dd19B35189Cf0",
        "0",
        "0x9362149e0000000000000000000000002626664c2603336e57b271c5c0b26f421741e4810000000000000000000000004ad957983f4a419f847664722870f4033c840b58",
        "0x7ac5d88a13cd2acf506ab335af9f46af373b9527f040efc590ac456670847bff",
        "0x7f176cfe486a8a5d2ebcd8d45891f76dfe5c12ce09cfba8de1678f65fd1e5650",
        "345600"
      ],
      "transaction": {
        "from": "0xf8cbf6437d2473ec59885299af38d9a13ce97eca",
        "to": "0x8e074b7636f6a56097f1f719e708e2c932e23bab",
        "gas": "0x146f8",
        "value": "0x0",
        "input": "0x01d5062a0000000000000000000000004a5c3cca0ac2a1949d600891a89dd19b35189cf0000000000000000000000000000000000000000000000000000000000000000000000000000000000000000000000000000000000000000000000000000000c07ac5d88a13cd2acf506ab335af9f46af373b9527f040efc590ac456670847bff7f176cfe486a8a5d2ebcd8d45891f76dfe5c12ce09cfba8de1678f65fd1e5650000000000000000000000000000000000000000000000000000000000005460000000000000000000000000000000000000000000000000000000000000000449362149e0000000000000000000000002626664c2603336e57b271c5c0b26f421741e4810000000000000000000000004ad957983f4a419f847664722870f4033c840b5800000000000000000000000000000000000000000000000000000000",
        "nonce": "0x78",
        "chainId": "0x2105"
      },
      "additionalContracts": [],
      "isFixedGasLimit": false
    }
  ],
  "receipts": [
    {
      "status": "0x1",
      "cumulativeGasUsed": "0xc985b1",
      "logs": [
        {
          "address": "0x8e074b7636f6a56097f1f719e708e2c932e23bab",
          "topics": [
            "0x4cf4410cc57040e44862ef0f45f3dd5a5e02db8eb8add648d4b0e236f1d07dca",
            "0x3a71036b72c3eebfd4e6f1bf5e03ff4d8cfa7bac6314846adcecdfe6d215cd98",
            "0x0000000000000000000000000000000000000000000000000000000000000000"
          ],
          "data": "0x0000000000000000000000004a5c3cca0ac2a1949d600891a89dd19b35189cf0000000000000000000000000000000000000000000000000000000000000000000000000000000000000000000000000000000000000000000000000000000a07ac5d88a13cd2acf506ab335af9f46af373b9527f040efc590ac456670847bff000000000000000000000000000000000000000000000000000000000005460000000000000000000000000000000000000000000000000000000000000000449362149e0000000000000000000000002626664c2603336e57b271c5c0b26f421741e4810000000000000000000000004ad957983f4a419f847664722870f4033c840b5800000000000000000000000000000000000000000000000000000000",
          "blockHash": "0x2066d5911631b4867f14d5277bbd5cea49eb8fb135037455b6d1510980e76134",
          "blockNumber": "0x296ece8",
          "blockTimestamp": "0x69b836b3",
          "transactionHash": "0xa8ae038e3abfc31d5f9ec19ecd2327923c24bbf49342f2ca431b66308c09fae4",
          "transactionIndex": "0x35",
          "logIndex": "0x17a",
          "removed": false
        },
        {
          "address": "0x8e074b7636f6a56097f1f719e708e2c932e23bab",
          "topics": [
            "0x20fda5fd27a1ea7bf5b9567f143ac5470bb059374a27e8f67cb44f946f6d0387",
            "0x3a71036b72c3eebfd4e6f1bf5e03ff4d8cfa7bac6314846adcecdfe6d215cd98"
          ],
          "data": "0x7f176cfe486a8a5d2ebcd8d45891f76dfe5c12ce09cfba8de1678f65fd1e5650",
          "blockHash": "0x2066d5911631b4867f14d5277bbd5cea49eb8fb135037455b6d1510980e76134",
          "blockNumber": "0x296ece8",
          "blockTimestamp": "0x69b836b3",
          "transactionHash": "0xa8ae038e3abfc31d5f9ec19ecd2327923c24bbf49342f2ca431b66308c09fae4",
          "transactionIndex": "0x35",
          "logIndex": "0x17b",
          "removed": false
        }
      ],
      "logsBloom": "0x00000000000000000000000040000000000000000000000000000000000000000000000000001000000000000000000100000000800000000000000000000000000000000000000000000000000000000000000000000008000000000000000000000000020000000000000000000800000080000000000000000000000000000000000000000000000000000000000000000000000000000000000000000000000000000000000800000000000000000000000000000000000000000000000000000010000000000000000000000000000000000000400000000000800020000000000000000000000000000000000000000000000000000000000000808000",
      "type": "0x2",
      "transactionHash": "0xa8ae038e3abfc31d5f9ec19ecd2327923c24bbf49342f2ca431b66308c09fae4",
      "transactionIndex": "0x35",
      "blockHash": "0x2066d5911631b4867f14d5277bbd5cea49eb8fb135037455b6d1510980e76134",
      "blockNumber": "0x296ece8",
      "gasUsed": "0xdf92",
      "effectiveGasPrice": "0x689d21",
      "blobGasUsed": "0x6ec4",
      "from": "0xf8cbf6437d2473ec59885299af38d9a13ce97eca",
      "to": "0x8e074b7636f6a56097f1f719e708e2c932e23bab",
      "contractAddress": null,
      "daFootprintGasScalar": "0x8b",
      "l1BaseFeeScalar": "0x8dd",
      "l1BlobBaseFee": "0xe2a7a4",
      "l1BlobBaseFeeScalar": "0x101c12",
      "l1Fee": "0x136b9aab8",
      "l1GasPrice": "0x102bbb18",
      "l1GasUsed": "0xcc2"
    }
  ],
  "libraries": [],
  "pending": [],
  "returns": {},
  "timestamp": 1773680310891,
  "chain": 8453,
  "commit": "dee1601"
}