{
  "transactions": [
    {
      "hash": "0x0e490e65c5d1e41a8b9389c5fd550305e89c4d8c3e48b7977e18c935212b2247",
      "transactionType": "CALL",
      "contractName": null,
      "contractAddress": "0x8e074b7636f6a56097f1f719e708e2c932e23bab",
      "function": "schedule(address,uint256,bytes,bytes32,bytes32,uint256)",
      "arguments": [
        "0x4A5c3Cca0Ac2a1949D600891A89dd19B35189Cf0",
        "0",
        "0x9362149e000000000000000000000000ee8f4ec5672f09119b96ab6fb59c27e1b7e44b610000000000000000000000003bf2b1e1da1bd2c3d397e9df06b7f717c2f12ad7",
        "0x7ac5d88a13cd2acf506ab335af9f46af373b9527f040efc590ac456670847bff",
        "0xa4d297c5cb8d7bccfff8a8061cc0a46ac0833d73fa2f8e6f9e8ec187a79e2a78",
        "345600"
      ],
      "transaction": {
        "from": "0xf8cbf6437d2473ec59885299af38d9a13ce97eca",
        "to": "0x8e074b7636f6a56097f1f719e708e2c932e23bab",
        "gas": "0x146f8",
        "value": "0x0",
        "input": "0x01d5062a0000000000000000000000004a5c3cca0ac2a1949d600891a89dd19b35189cf0000000000000000000000000000000000000000000000000000000000000000000000000000000000000000000000000000000000000000000000000000000c07ac5d88a13cd2acf506ab335af9f46af373b9527f040efc590ac456670847bffa4d297c5cb8d7bccfff8a8061cc0a46ac0833d73fa2f8e6f9e8ec187a79e2a78000000000000000000000000000000000000000000000000000000000005460000000000000000000000000000000000000000000000000000000000000000449362149e000000000000000000000000ee8f4ec5672f09119b96ab6fb59c27e1b7e44b610000000000000000000000003bf2b1e1da1bd2c3d397e9df06b7f717c2f12ad700000000000000000000000000000000000000000000000000000000",
        "nonce": "0x4e",
        "chainId": "0x2105"
      },
      "additionalContracts": [],
      "isFixedGasLimit": false
    }
  ],
  "receipts": [
    {
      "status": "0x1",
      "cumulativeGasUsed": "0x25b9137",
      "logs": [
        {
          "address": "0x8e074b7636f6a56097f1f719e708e2c932e23bab",
          "topics": [
            "0x4cf4410cc57040e44862ef0f45f3dd5a5e02db8eb8add648d4b0e236f1d07dca",
            "0xc79b473d81dd75b779b78804b56984769c0023eccf9095b9b474456460c782fa",
            "0x0000000000000000000000000000000000000000000000000000000000000000"
          ],
          "data": "0x0000000000000000000000004a5c3cca0ac2a1949d600891a89dd19b35189cf0000000000000000000000000000000000000000000000000000000000000000000000000000000000000000000000000000000000000000000000000000000a07ac5d88a13cd2acf506ab335af9f46af373b9527f040efc590ac456670847bff000000000000000000000000000000000000000000000000000000000005460000000000000000000000000000000000000000000000000000000000000000449362149e000000000000000000000000ee8f4ec5672f09119b96ab6fb59c27e1b7e44b610000000000000000000000003bf2b1e1da1bd2c3d397e9df06b7f717c2f12ad700000000000000000000000000000000000000000000000000000000",
          "blockHash": "0x039e7dac87de133b94fce7f4b7c4fbf77bb97698e000c2b322fdd3657eaa60b2",
          "blockNumber": "0x296e9f0",
          "blockTimestamp": "0x69b830c3",
          "transactionHash": "0x0e490e65c5d1e41a8b9389c5fd550305e89c4d8c3e48b7977e18c935212b2247",
          "transactionIndex": "0xbf",
          "logIndex": "0x391",
          "removed": false
        },
        {
          "address": "0x8e074b7636f6a56097f1f719e708e2c932e23bab",
          "topics": [
            "0x20fda5fd27a1ea7bf5b9567f143ac5470bb059374a27e8f67cb44f946f6d0387",
            "0xc79b473d81dd75b779b78804b56984769c0023eccf9095b9b474456460c782fa"
          ],
          "data": "0xa4d297c5cb8d7bccfff8a8061cc0a46ac0833d73fa2f8e6f9e8ec187a79e2a78",
          "blockHash": "0x039e7dac87de133b94fce7f4b7c4fbf77bb97698e000c2b322fdd3657eaa60b2",
          "blockNumber": "0x296e9f0",
          "blockTimestamp": "0x69b830c3",
          "transactionHash": "0x0e490e65c5d1e41a8b9389c5fd550305e89c4d8c3e48b7977e18c935212b2247",
          "transactionIndex": "0xbf",
          "logIndex": "0x392",
          "removed": false
        }
      ],
      "logsBloom": "0x00000000000000000000000040000000000000000000000000000000000000000000000000001000000000000004000100000000800000000000000000000000000000000000000000000000000000000000000000000008000000000000000000000000020000000000000000000800000080000000000000000000000000000000000000000000000000000000000000000000000000000000000000000000000000000000000000000000000000080000000000000000000000000000000000000010000000000000000020000000000000000000400000000000000020000000000000000000000000000000000000000000000000000000000000800000",
      "type": "0x2",
      "transactionHash": "0x0e490e65c5d1e41a8b9389c5fd550305e89c4d8c3e48b7977e18c935212b2247",
      "transactionIndex": "0xbf",
      "blockHash": "0x039e7dac87de133b94fce7f4b7c4fbf77bb97698e000c2b322fdd3657eaa60b2",
      "blockNumber": "0x296e9f0",
      "gasUsed": "0xdf92",
      "effectiveGasPrice": "0x4ec8a6",
      "blobGasUsed": "0x6dae",
      "from": "0xf8cbf6437d2473ec59885299af38d9a13ce97eca",
      "to": "0x8e074b7636f6a56097f1f719e708e2c932e23bab",
      "contractAddress": null,
      "daFootprintGasScalar": "0x8b",
      "l1BaseFeeScalar": "0x8dd",
      "l1BlobBaseFee": "0xb3c1b0",
      "l1BlobBaseFeeScalar": "0x101c12",
      "l1Fee": "0xf43bde09",
      "l1GasPrice": "0xcccf111",
      "l1GasUsed": "0xca8"
    }
  ],
  "libraries": [],
  "pending": [],
  "returns": {},
  "timestamp": 1773678791581,
  "chain": 8453,
  "commit": "dee1601"
}