{
  "transactions": [
    {
      "hash": "0xab85fbb06438296df1768cb1f2e906cb6a5460207603734dd7e83ee4d66675b7",
      "transactionType": "CALL",
      "contractName": null,
      "contractAddress": "0x8e074b7636f6a56097f1f719e708e2c932e23bab",
      "function": "schedule(address,uint256,bytes,bytes32,bytes32,uint256)",
      "arguments": [
        "0x4A5c3Cca0Ac2a1949D600891A89dd19B35189Cf0",
        "0",
        "0x9362149e000000000000000000000000ef417a2512c5a41f69ae4e021648b69a7cde5d030000000000000000000000003bf2b1e1da1bd2c3d397e9df06b7f717c2f12ad7",
        "0x7ac5d88a13cd2acf506ab335af9f46af373b9527f040efc590ac456670847bff",
        "0x28c64c3b20c1fe639a54f8a2b9bb8dbfde867f9382b36aa3868964f8423407a2",
        "345600"
      ],
      "transaction": {
        "from": "0xf8cbf6437d2473ec59885299af38d9a13ce97eca",
        "to": "0x8e074b7636f6a56097f1f719e708e2c932e23bab",
        "gas": "0x146f8",
        "value": "0x0",
        "input": "0x01d5062a0000000000000000000000004a5c3cca0ac2a1949d600891a89dd19b35189cf0000000000000000000000000000000000000000000000000000000000000000000000000000000000000000000000000000000000000000000000000000000c07ac5d88a13cd2acf506ab335af9f46af373b9527f040efc590ac456670847bff28c64c3b20c1fe639a54f8a2b9bb8dbfde867f9382b36aa3868964f8423407a2000000000000000000000000000000000000000000000000000000000005460000000000000000000000000000000000000000000000000000000000000000449362149e000000000000000000000000ef417a2512c5a41f69ae4e021648b69a7cde5d030000000000000000000000003bf2b1e1da1bd2c3d397e9df06b7f717c2f12ad700000000000000000000000000000000000000000000000000000000",
        "nonce": "0x5e",
        "chainId": "0x2105"
      },
      "additionalContracts": [],
      "isFixedGasLimit": false
    }
  ],
  "receipts": [
    {
      "status": "0x1",
      "cumulativeGasUsed": "0xd39c96",
      "logs": [
        {
          "address": "0x8e074b7636f6a56097f1f719e708e2c932e23bab",
          "topics": [
            "0x4cf4410cc57040e44862ef0f45f3dd5a5e02db8eb8add648d4b0e236f1d07dca",
            "0xc23f4506079167416c446e3e1029ee30cbefa61a065e2f3502be16afb46fe6a2",
            "0x0000000000000000000000000000000000000000000000000000000000000000"
          ],
          "data": "0x0000000000000000000000004a5c3cca0ac2a1949d600891a89dd19b35189cf0000000000000000000000000000000000000000000000000000000000000000000000000000000000000000000000000000000000000000000000000000000a07ac5d88a13cd2acf506ab335af9f46af373b9527f040efc590ac456670847bff000000000000000000000000000000000000000000000000000000000005460000000000000000000000000000000000000000000000000000000000000000449362149e000000000000000000000000ef417a2512c5a41f69ae4e021648b69a7cde5d030000000000000000000000003bf2b1e1da1bd2c3d397e9df06b7f717c2f12ad700000000000000000000000000000000000000000000000000000000",
          "blockHash": "0x559124af4c7a158f8f5c4fdecef4410bca2071fedb3a2eb70d25d4695262ed45",
          "blockNumber": "0x296ec23",
          "blockTimestamp": "0x69b83529",
          "transactionHash": "0xab85fbb06438296df1768cb1f2e906cb6a5460207603734dd7e83ee4d66675b7",
          "transactionIndex": "0x39",
          "logIndex": "0x1a9",
          "removed": false
        },
        {
          "address": "0x8e074b7636f6a56097f1f719e708e2c932e23bab",
          "topics": [
            "0x20fda5fd27a1ea7bf5b9567f143ac5470bb059374a27e8f67cb44f946f6d0387",
            "0xc23f4506079167416c446e3e1029ee30cbefa61a065e2f3502be16afb46fe6a2"
          ],
          "data": "0x28c64c3b20c1fe639a54f8a2b9bb8dbfde867f9382b36aa3868964f8423407a2",
          "blockHash": "0x559124af4c7a158f8f5c4fdecef4410bca2071fedb3a2eb70d25d4695262ed45",
          "blockNumber": "0x296ec23",
          "blockTimestamp": "0x69b83529",
          "transactionHash": "0xab85fbb06438296df1768cb1f2e906cb6a5460207603734dd7e83ee4d66675b7",
          "transactionIndex": "0x39",
          "logIndex": "0x1aa",
          "removed": false
        }
      ],
      "logsBloom": "0x00000000000000000000000040000000000000000000000000000000000400000000000000001000000000000000000100000000800000000000000000000000000000000000000000000000000000000000000000000008000000000000000000000000020000000000000000000800000080000000000000000000000000000000000000000000000000000000000000000000000000000000000000000000004000000000000000000000000000000000000000000000000000000000000000000010000000000000000000000000000000000000400000000000000020000000000000000000000000000000000000000000000001000000000000800000",
      "type": "0x2",
      "transactionHash": "0xab85fbb06438296df1768cb1f2e906cb6a5460207603734dd7e83ee4d66675b7",
      "transactionIndex": "0x39",
      "blockHash": "0x559124af4c7a158f8f5c4fdecef4410bca2071fedb3a2eb70d25d4695262ed45",
      "blockNumber": "0x296ec23",
      "gasUsed": "0xdf92",
      "effectiveGasPrice": "0x62246b",
      "blobGasUsed": "0x6d23",
      "from": "0xf8cbf6437d2473ec59885299af38d9a13ce97eca",
      "to": "0x8e074b7636f6a56097f1f719e708e2c932e23bab",
      "contractAddress": null,
      "daFootprintGasScalar": "0x8b",
      "l1BaseFeeScalar": "0x8dd",
      "l1BlobBaseFee": "0x1035049",
      "l1BlobBaseFeeScalar": "0x101c12",
      "l1Fee": "0x1571560ee",
      "l1GasPrice": "0x1166edcd",
      "l1GasUsed": "0xc9a"
    }
  ],
  "libraries": [],
  "pending": [],
  "returns": {},
  "timestamp": 1773679916325,
  "chain": 8453,
  "commit": "dee1601"
}