{
  "transactions": [
    {
      "hash": "0x2cf99579e1a046530c73b61ce6b75c85924506768ac19bad6a6716951717918f",
      "transactionType": "CALL",
      "contractName": null,
      "contractAddress": "0x8e074b7636f6a56097f1f719e708e2c932e23bab",
      "function": "schedule(address,uint256,bytes,bytes32,bytes32,uint256)",
      "arguments": [
        "0x4A5c3Cca0Ac2a1949D600891A89dd19B35189Cf0",
        "0",
        "0x9362149e000000000000000000000000beef00f0a818894a2cf111644a5098421611100e0000000000000000000000003bf2b1e1da1bd2c3d397e9df06b7f717c2f12ad7",
        "0x0000000000000000000000000000000000000000000000000000000000000000",
        "0xb7a990297309162a21393e90bad0cef855aff9d6c08adc30b0260508cc240f4e",
        "345600"
      ],
      "transaction": {
        "from": "0xd6768630e0b26eba52d52e75a5d21989aa750113",
        "to": "0x8e074b7636f6a56097f1f719e708e2c932e23bab",
        "gas": "0x132ab",
        "value": "0x0",
        "input": "0x01d5062a0000000000000000000000004a5c3cca0ac2a1949d600891a89dd19b35189cf0000000000000000000000000000000000000000000000000000000000000000000000000000000000000000000000000000000000000000000000000000000c00000000000000000000000000000000000000000000000000000000000000000b7a990297309162a21393e90bad0cef855aff9d6c08adc30b0260508cc240f4e000000000000000000000000000000000000000000000000000000000005460000000000000000000000000000000000000000000000000000000000000000449362149e000000000000000000000000beef00f0a818894a2cf111644a5098421611100e0000000000000000000000003bf2b1e1da1bd2c3d397e9df06b7f717c2f12ad700000000000000000000000000000000000000000000000000000000",
        "nonce": "0x11",
        "chainId": "0x2105"
      },
      "additionalContracts": [],
      "isFixedGasLimit": false
    }
  ],
  "receipts": [
    {
      "type": "0x2",
      "status": "0x1",
      "cumulativeGasUsed": "0x139c064",
      "logs": [
        {
          "address": "0x8e074b7636f6a56097f1f719e708e2c932e23bab",
          "topics": [
            "0x4cf4410cc57040e44862ef0f45f3dd5a5e02db8eb8add648d4b0e236f1d07dca",
            "0x7e3fbcf6e98e76eafd60dfcaa658ca85bc65dd4731cbd0d89a8f4eb97316074a",
            "0x0000000000000000000000000000000000000000000000000000000000000000"
          ],
          "data": "0x0000000000000000000000004a5c3cca0ac2a1949d600891a89dd19b35189cf0000000000000000000000000000000000000000000000000000000000000000000000000000000000000000000000000000000000000000000000000000000a00000000000000000000000000000000000000000000000000000000000000000000000000000000000000000000000000000000000000000000000000005460000000000000000000000000000000000000000000000000000000000000000449362149e000000000000000000000000beef00f0a818894a2cf111644a5098421611100e0000000000000000000000003bf2b1e1da1bd2c3d397e9df06b7f717c2f12ad700000000000000000000000000000000000000000000000000000000",
          "blockHash": "0x4bea471f3185f246d15a6a599a5eca8d437367cc6f2ed5724c42e63afb9c45ce",
          "blockNumber": "0x2da03b7",
          "blockTimestamp": "0x6a3e6451",
          "transactionHash": "0x2cf99579e1a046530c73b61ce6b75c85924506768ac19bad6a6716951717918f",
          "transactionIndex": "0xa4",
          "logIndex": "0x171",
          "removed": false
        },
        {
          "address": "0x8e074b7636f6a56097f1f719e708e2c932e23bab",
          "topics": [
            "0x20fda5fd27a1ea7bf5b9567f143ac5470bb059374a27e8f67cb44f946f6d0387",
            "0x7e3fbcf6e98e76eafd60dfcaa658ca85bc65dd4731cbd0d89a8f4eb97316074a"
          ],
          "data": "0xb7a990297309162a21393e90bad0cef855aff9d6c08adc30b0260508cc240f4e",
          "blockHash": "0x4bea471f3185f246d15a6a599a5eca8d437367cc6f2ed5724c42e63afb9c45ce",
          "blockNumber": "0x2da03b7",
          "blockTimestamp": "0x6a3e6451",
          "transactionHash": "0x2cf99579e1a046530c73b61ce6b75c85924506768ac19bad6a6716951717918f",
          "transactionIndex": "0xa4",
          "logIndex": "0x172",
          "removed": false
        }
      ],
      "logsBloom": "0x00000000000000000000000040000000000000000000000000000000000000000000000000001000000000000000000100000000800000000000000000000000000000000000000000000000000000000000000000000008000000000000000000000000020000000000000000000800000080000000000000000000000000000000000000000000000000000000000000000000000000000000000000000000000000000000000000000000080000200000000000000000000000000000000000000010000000000000000000000000000000000000400000000000000020000000000000000000000000000000000000000000000200000000000000800000",
      "transactionHash": "0x2cf99579e1a046530c73b61ce6b75c85924506768ac19bad6a6716951717918f",
      "transactionIndex": "0xa4",
      "blockHash": "0x4bea471f3185f246d15a6a599a5eca8d437367cc6f2ed5724c42e63afb9c45ce",
      "blockNumber": "0x2da03b7",
      "gasUsed": "0xde06",
      "effectiveGasPrice": "0x53ec79",
      "blobGasUsed": "0x677c",
      "from": "0xd6768630e0b26eba52d52e75a5d21989aa750113",
      "to": "0x8e074b7636f6a56097f1f719e708e2c932e23bab",
      "contractAddress": null,
      "l1GasPrice": "0x5bbdeae",
      "l1GasUsed": "0xb31",
      "l1Fee": "0x60811b13",
      "l1BaseFeeScalar": "0x8dd",
      "l1BlobBaseFee": "0x503077",
      "l1BlobBaseFeeScalar": "0x101c12",
      "daFootprintGasScalar": "0x94"
    }
  ],
  "libraries": [],
  "pending": [],
  "returns": {},
  "timestamp": 1782473812397,
  "chain": 8453,
  "commit": "de5ca46"
}