{
  "transactions": [
    {
      "hash": "0xb68ede1fda3135c3786fe232e844af847f9120e52c560a1c2c056993b636007b",
      "transactionType": "CALL",
      "contractName": null,
      "contractAddress": "0x8e074b7636f6a56097f1f719e708e2c932e23bab",
      "function": "schedule(address,uint256,bytes,bytes32,bytes32,uint256)",
      "arguments": [
        "0x4A5c3Cca0Ac2a1949D600891A89dd19B35189Cf0",
        "0",
        "0x9362149e0000000000000000000000001d3b1cd0a0f242d598834b3f2d126dc6bd7746570000000000000000000000003bf2b1e1da1bd2c3d397e9df06b7f717c2f12ad7",
        "0x7ac5d88a13cd2acf506ab335af9f46af373b9527f040efc590ac456670847bff",
        "0x3aa793e8eb383749dbcc2540d8fb66a933caa6bc1be23fcb6f36a1573a59b1f9",
        "345600"
      ],
      "transaction": {
        "from": "0xf8cbf6437d2473ec59885299af38d9a13ce97eca",
        "to": "0x8e074b7636f6a56097f1f719e708e2c932e23bab",
        "gas": "0x146f8",
        "value": "0x0",
        "input": "0x01d5062a0000000000000000000000004a5c3cca0ac2a1949d600891a89dd19b35189cf0000000000000000000000000000000000000000000000000000000000000000000000000000000000000000000000000000000000000000000000000000000c07ac5d88a13cd2acf506ab335af9f46af373b9527f040efc590ac456670847bff3aa793e8eb383749dbcc2540d8fb66a933caa6bc1be23fcb6f36a1573a59b1f9000000000000000000000000000000000000000000000000000000000005460000000000000000000000000000000000000000000000000000000000000000449362149e0000000000000000000000001d3b1cd0a0f242d598834b3f2d126dc6bd7746570000000000000000000000003bf2b1e1da1bd2c3d397e9df06b7f717c2f12ad700000000000000000000000000000000000000000000000000000000",
        "nonce": "0x5a",
        "chainId": "0x2105"
      },
      "additionalContracts": [],
      "isFixedGasLimit": false
    }
  ],
  "receipts": [
    {
      "status": "0x1",
      "cumulativeGasUsed": "0x11809dc",
      "logs": [
        {
          "address": "0x8e074b7636f6a56097f1f719e708e2c932e23bab",
          "topics": [
            "0x4cf4410cc57040e44862ef0f45f3dd5a5e02db8eb8add648d4b0e236f1d07dca",
            "0xc4369a1378a43c88af2de6d7dc5bdfbf0cecdedca9378a64730a9dacf9e05f1c",
            "0x0000000000000000000000000000000000000000000000000000000000000000"
          ],
          "data": "0x0000000000000000000000004a5c3cca0ac2a1949d600891a89dd19b35189cf0000000000000000000000000000000000000000000000000000000000000000000000000000000000000000000000000000000000000000000000000000000a07ac5d88a13cd2acf506ab335af9f46af373b9527f040efc590ac456670847bff000000000000000000000000000000000000000000000000000000000005460000000000000000000000000000000000000000000000000000000000000000449362149e0000000000000000000000001d3b1cd0a0f242d598834b3f2d126dc6bd7746570000000000000000000000003bf2b1e1da1bd2c3d397e9df06b7f717c2f12ad700000000000000000000000000000000000000000000000000000000",
          "blockHash": "0x3b1514b8cfbdc7832bcfe38cee00b1e9c626aeca7861cf352f31d6327d3af413",
          "blockNumber": "0x296ec05",
          "blockTimestamp": "0x69b834ed",
          "transactionHash": "0xb68ede1fda3135c3786fe232e844af847f9120e52c560a1c2c056993b636007b",
          "transactionIndex": "0x4c",
          "logIndex": "0x233",
          "removed": false
        },
        {
          "address": "0x8e074b7636f6a56097f1f719e708e2c932e23bab",
          "topics": [
            "0x20fda5fd27a1ea7bf5b9567f143ac5470bb059374a27e8f67cb44f946f6d0387",
            "0xc4369a1378a43c88af2de6d7dc5bdfbf0cecdedca9378a64730a9dacf9e05f1c"
          ],
          "data": "0x3aa793e8eb383749dbcc2540d8fb66a933caa6bc1be23fcb6f36a1573a59b1f9",
          "blockHash": "0x3b1514b8cfbdc7832bcfe38cee00b1e9c626aeca7861cf352f31d6327d3af413",
          "blockNumber": "0x296ec05",
          "blockTimestamp": "0x69b834ed",
          "transactionHash": "0xb68ede1fda3135c3786fe232e844af847f9120e52c560a1c2c056993b636007b",
          "transactionIndex": "0x4c",
          "logIndex": "0x234",
          "removed": false
        }
      ],
      "logsBloom": "0x00000000000000000000000040000000000000000000000000000000000000000000000000001000000000000000000100000000800000000000000000000000000000000000000000000000000000000000040000000008000200000000000000000000020000000000000000000800000080000000000000000000000000000000000000000000000000000000000000000000000000000000000000000000000000000000000000020000000000000000000000000000000000000000000000000010000000000000000000000000000000000000400000000000000020000000000000000000000000000000000000000000000000000000000000800000",
      "type": "0x2",
      "transactionHash": "0xb68ede1fda3135c3786fe232e844af847f9120e52c560a1c2c056993b636007b",
      "transactionIndex": "0x4c",
      "blockHash": "0x3b1514b8cfbdc7832bcfe38cee00b1e9c626aeca7861cf352f31d6327d3af413",
      "blockNumber": "0x296ec05",
      "gasUsed": "0xdf92",
      "effectiveGasPrice": "0x68afa7",
      "blobGasUsed": "0x6ec4",
      "from": "0xf8cbf6437d2473ec59885299af38d9a13ce97eca",
      "to": "0x8e074b7636f6a56097f1f719e708e2c932e23bab",
      "contractAddress": null,
      "daFootprintGasScalar": "0x8b",
      "l1BaseFeeScalar": "0x8dd",
      "l1BlobBaseFee": "0xe45b3a",
      "l1BlobBaseFeeScalar": "0x101c12",
      "l1Fee": "0x13723cc74",
      "l1GasPrice": "0x10089117",
      "l1GasUsed": "0xcc2"
    }
  ],
  "libraries": [],
  "pending": [],
  "returns": {},
  "timestamp": 1773679855270,
  "chain": 8453,
  "commit": "dee1601"
}