{
  "transactions": [
    {
      "hash": "0x826de62a20b73016cb9afce629cc21a9c12d88099beb511bd4dae90ec5e76042",
      "transactionType": "CALL",
      "contractName": null,
      "contractAddress": "0x8e074b7636f6a56097f1f719e708e2c932e23bab",
      "function": "schedule(address,uint256,bytes,bytes32,bytes32,uint256)",
      "arguments": [
        "0x4A5c3Cca0Ac2a1949D600891A89dd19B35189Cf0",
        "0",
        "0x9362149e000000000000000000000000db90a4e973b7663ce0ccc32b6fbd37ffb19bfa830000000000000000000000003bf2b1e1da1bd2c3d397e9df06b7f717c2f12ad7",
        "0x7ac5d88a13cd2acf506ab335af9f46af373b9527f040efc590ac456670847bff",
        "0x834c7bc546bca69fc42d47d7bb246c8cc02330e2bd840a6f1e9a7f379ce84fb5",
        "345600"
      ],
      "transaction": {
        "from": "0xf8cbf6437d2473ec59885299af38d9a13ce97eca",
        "to": "0x8e074b7636f6a56097f1f719e708e2c932e23bab",
        "gas": "0x146f8",
        "value": "0x0",
        "input": "0x01d5062a0000000000000000000000004a5c3cca0ac2a1949d600891a89dd19b35189cf0000000000000000000000000000000000000000000000000000000000000000000000000000000000000000000000000000000000000000000000000000000c07ac5d88a13cd2acf506ab335af9f46af373b9527f040efc590ac456670847bff834c7bc546bca69fc42d47d7bb246c8cc02330e2bd840a6f1e9a7f379ce84fb5000000000000000000000000000000000000000000000000000000000005460000000000000000000000000000000000000000000000000000000000000000449362149e000000000000000000000000db90a4e973b7663ce0ccc32b6fbd37ffb19bfa830000000000000000000000003bf2b1e1da1bd2c3d397e9df06b7f717c2f12ad700000000000000000000000000000000000000000000000000000000",
        "nonce": "0x4f",
        "chainId": "0x2105"
      },
      "additionalContracts": [],
      "isFixedGasLimit": false
    }
  ],
  "receipts": [
    {
      "status": "0x1",
      "cumulativeGasUsed": "0x39ebec3",
      "logs": [
        {
          "address": "0x8e074b7636f6a56097f1f719e708e2c932e23bab",
          "topics": [
            "0x4cf4410cc57040e44862ef0f45f3dd5a5e02db8eb8add648d4b0e236f1d07dca",
            "0x7b4bdab67deaab5b04e799616deb29fd9aa22eb91f4690e496c0e9df67a864a8",
            "0x0000000000000000000000000000000000000000000000000000000000000000"
          ],
          "data": "0x0000000000000000000000004a5c3cca0ac2a1949d600891a89dd19b35189cf0000000000000000000000000000000000000000000000000000000000000000000000000000000000000000000000000000000000000000000000000000000a07ac5d88a13cd2acf506ab335af9f46af373b9527f040efc590ac456670847bff000000000000000000000000000000000000000000000000000000000005460000000000000000000000000000000000000000000000000000000000000000449362149e000000000000000000000000db90a4e973b7663ce0ccc32b6fbd37ffb19bfa830000000000000000000000003bf2b1e1da1bd2c3d397e9df06b7f717c2f12ad700000000000000000000000000000000000000000000000000000000",
          "blockHash": "0x23742aab41485fd8db5fced504d04023209594e53caf450a61951d698a63cfe0",
          "blockNumber": "0x296e9f7",
          "blockTimestamp": "0x69b830d1",
          "transactionHash": "0x826de62a20b73016cb9afce629cc21a9c12d88099beb511bd4dae90ec5e76042",
          "transactionIndex": "0xfd",
          "logIndex": "0x493",
          "removed": false
        },
        {
          "address": "0x8e074b7636f6a56097f1f719e708e2c932e23bab",
          "topics": [
            "0x20fda5fd27a1ea7bf5b9567f143ac5470bb059374a27e8f67cb44f946f6d0387",
            "0x7b4bdab67deaab5b04e799616deb29fd9aa22eb91f4690e496c0e9df67a864a8"
          ],
          "data": "0x834c7bc546bca69fc42d47d7bb246c8cc02330e2bd840a6f1e9a7f379ce84fb5",
          "blockHash": "0x23742aab41485fd8db5fced504d04023209594e53caf450a61951d698a63cfe0",
          "blockNumber": "0x296e9f7",
          "blockTimestamp": "0x69b830d1",
          "transactionHash": "0x826de62a20b73016cb9afce629cc21a9c12d88099beb511bd4dae90ec5e76042",
          "transactionIndex": "0xfd",
          "logIndex": "0x494",
          "removed": false
        }
      ],
      "logsBloom": "0x00000000000000000000000040000000000000000000000000000000000000000000000000001000000000000000000100000000800000000000000000000000000000000000000000000000000000000000040000000008000000000000000000000000020000000000000000000800000080000000000000000000000000000004000000000000000000000000000000000000000000000000000000000000000000000000000000000000000000000000000000000000000000000000000000000010000000000000000000000000000000000000400000000000000020000000000010000000000000000000000000000000000000000000000000800000",
      "type": "0x2",
      "transactionHash": "0x826de62a20b73016cb9afce629cc21a9c12d88099beb511bd4dae90ec5e76042",
      "transactionIndex": "0xfd",
      "blockHash": "0x23742aab41485fd8db5fced504d04023209594e53caf450a61951d698a63cfe0",
      "blockNumber": "0x296e9f7",
      "gasUsed": "0xdf92",
      "effectiveGasPrice": "0x4f073e",
      "blobGasUsed": "0x6d23",
      "from": "0xf8cbf6437d2473ec59885299af38d9a13ce97eca",
      "to": "0x8e074b7636f6a56097f1f719e708e2c932e23bab",
      "contractAddress": null,
      "daFootprintGasScalar": "0x8b",
      "l1BaseFeeScalar": "0x8dd",
      "l1BlobBaseFee": "0xb3c1b0",
      "l1BlobBaseFeeScalar": "0x101c12",
      "l1Fee": "0xf33999e0",
      "l1GasPrice": "0xcccf111",
      "l1GasUsed": "0xc9a"
    }
  ],
  "libraries": [],
  "pending": [],
  "returns": {},
  "timestamp": 1773678920427,
  "chain": 8453,
  "commit": "dee1601"
}