{
  "transactions": [
    {
      "hash": "0xd72c2b1db12ccf0cea2adc8aa980799cb574f92cdc307fcad09f72c6a21a866b",
      "transactionType": "CALL",
      "contractName": null,
      "contractAddress": "0x8e074b7636f6a56097f1f719e708e2c932e23bab",
      "function": "schedule(address,uint256,bytes,bytes32,bytes32,uint256)",
      "arguments": [
        "0x4A5c3Cca0Ac2a1949D600891A89dd19B35189Cf0",
        "0",
        "0x9362149e00000000000000000000000075e1a1f9535c01cdce25e51ea4aff0d171337e1f0000000000000000000000003bf2b1e1da1bd2c3d397e9df06b7f717c2f12ad7",
        "0x7ac5d88a13cd2acf506ab335af9f46af373b9527f040efc590ac456670847bff",
        "0x6dee9fa7cb98138ef1cf7028393632fe895c97b2e410cf37171003c7be292c2f",
        "345600"
      ],
      "transaction": {
        "from": "0xf8cbf6437d2473ec59885299af38d9a13ce97eca",
        "to": "0x8e074b7636f6a56097f1f719e708e2c932e23bab",
        "gas": "0x146f8",
        "value": "0x0",
        "input": "0x01d5062a0000000000000000000000004a5c3cca0ac2a1949d600891a89dd19b35189cf0000000000000000000000000000000000000000000000000000000000000000000000000000000000000000000000000000000000000000000000000000000c07ac5d88a13cd2acf506ab335af9f46af373b9527f040efc590ac456670847bff6dee9fa7cb98138ef1cf7028393632fe895c97b2e410cf37171003c7be292c2f000000000000000000000000000000000000000000000000000000000005460000000000000000000000000000000000000000000000000000000000000000449362149e00000000000000000000000075e1a1f9535c01cdce25e51ea4aff0d171337e1f0000000000000000000000003bf2b1e1da1bd2c3d397e9df06b7f717c2f12ad700000000000000000000000000000000000000000000000000000000",
        "nonce": "0x6b",
        "chainId": "0x2105"
      },
      "additionalContracts": [],
      "isFixedGasLimit": false
    }
  ],
  "receipts": [
    {
      "status": "0x1",
      "cumulativeGasUsed": "0x185cb3d",
      "logs": [
        {
          "address": "0x8e074b7636f6a56097f1f719e708e2c932e23bab",
          "topics": [
            "0x4cf4410cc57040e44862ef0f45f3dd5a5e02db8eb8add648d4b0e236f1d07dca",
            "0x0f271e0448fd0ce8dcafcd21cdd4485550c3cc9afee6c69efb6a063416398181",
            "0x0000000000000000000000000000000000000000000000000000000000000000"
          ],
          "data": "0x0000000000000000000000004a5c3cca0ac2a1949d600891a89dd19b35189cf0000000000000000000000000000000000000000000000000000000000000000000000000000000000000000000000000000000000000000000000000000000a07ac5d88a13cd2acf506ab335af9f46af373b9527f040efc590ac456670847bff000000000000000000000000000000000000000000000000000000000005460000000000000000000000000000000000000000000000000000000000000000449362149e00000000000000000000000075e1a1f9535c01cdce25e51ea4aff0d171337e1f0000000000000000000000003bf2b1e1da1bd2c3d397e9df06b7f717c2f12ad700000000000000000000000000000000000000000000000000000000",
          "blockHash": "0x4e55d1bf618831c121e454561e26fa7e37c8eb1fc7d5ff955760e5aed624aa2e",
          "blockNumber": "0x296ec88",
          "blockTimestamp": "0x69b835f3",
          "transactionHash": "0xd72c2b1db12ccf0cea2adc8aa980799cb574f92cdc307fcad09f72c6a21a866b",
          "transactionIndex": "0x62",
          "logIndex": "0x22e",
          "removed": false
        },
        {
          "address": "0x8e074b7636f6a56097f1f719e708e2c932e23bab",
          "topics": [
            "0x20fda5fd27a1ea7bf5b9567f143ac5470bb059374a27e8f67cb44f946f6d0387",
            "0x0f271e0448fd0ce8dcafcd21cdd4485550c3cc9afee6c69efb6a063416398181"
          ],
          "data": "0x6dee9fa7cb98138ef1cf7028393632fe895c97b2e410cf37171003c7be292c2f",
          "blockHash": "0x4e55d1bf618831c121e454561e26fa7e37c8eb1fc7d5ff955760e5aed624aa2e",
          "blockNumber": "0x296ec88",
          "blockTimestamp": "0x69b835f3",
          "transactionHash": "0xd72c2b1db12ccf0cea2adc8aa980799cb574f92cdc307fcad09f72c6a21a866b",
          "transactionIndex": "0x62",
          "logIndex": "0x22f",
          "removed": false
        }
      ],
      "logsBloom": "0x00000000000000000000000040000000000000000000000000000000000000000000000000201000000000000000000100000000800000000000000000000000000000000000000000000000000000000000000000000008000000000000000000000000020000000000000000000800000080000000000000000000000000000000000000000000000000000000000000000000000000000000000000000000000000000000000000080000000000000000000000000000000000000000000000000010000000000000000000000000000000002000400000000000000020000000000000000000000000000000000000000000000000000000000000800000",
      "type": "0x2",
      "transactionHash": "0xd72c2b1db12ccf0cea2adc8aa980799cb574f92cdc307fcad09f72c6a21a866b",
      "transactionIndex": "0x62",
      "blockHash": "0x4e55d1bf618831c121e454561e26fa7e37c8eb1fc7d5ff955760e5aed624aa2e",
      "blockNumber": "0x296ec88",
      "gasUsed": "0xdf92",
      "effectiveGasPrice": "0x658cb1",
      "blobGasUsed": "0x6d23",
      "from": "0xf8cbf6437d2473ec59885299af38d9a13ce97eca",
      "to": "0x8e074b7636f6a56097f1f719e708e2c932e23bab",
      "contractAddress": null,
      "daFootprintGasScalar": "0x8b",
      "l1BaseFeeScalar": "0x8dd",
      "l1BlobBaseFee": "0xca9aaf",
      "l1BlobBaseFeeScalar": "0x101c12",
      "l1Fee": "0x1144d3e80",
      "l1GasPrice": "0xeb90c6d",
      "l1GasUsed": "0xc9a"
    }
  ],
  "libraries": [],
  "pending": [],
  "returns": {},
  "timestamp": 1773680119097,
  "chain": 8453,
  "commit": "dee1601"
}