{
  "transactions": [
    {
      "hash": "0x3aa7a833c7cf9b9ad8604e2febd3ab8a311a76f02e632912dffa66078fd3bdc5",
      "transactionType": "CALL",
      "contractName": null,
      "contractAddress": "0x8e074b7636f6a56097f1f719e708e2c932e23bab",
      "function": "schedule(address,uint256,bytes,bytes32,bytes32,uint256)",
      "arguments": [
        "0x4A5c3Cca0Ac2a1949D600891A89dd19B35189Cf0",
        "0",
        "0x9362149e000000000000000000000000beefa7b88064feef0cee02aaebbd95d30df3878f0000000000000000000000003bf2b1e1da1bd2c3d397e9df06b7f717c2f12ad7",
        "0x7ac5d88a13cd2acf506ab335af9f46af373b9527f040efc590ac456670847bff",
        "0x383dfea1591af52a9c079cccb2b97db7937b4eb7833d7bdd8d009117f54699b0",
        "345600"
      ],
      "transaction": {
        "from": "0xf8cbf6437d2473ec59885299af38d9a13ce97eca",
        "to": "0x8e074b7636f6a56097f1f719e708e2c932e23bab",
        "gas": "0x134bd",
        "value": "0x0",
        "input": "0x01d5062a0000000000000000000000004a5c3cca0ac2a1949d600891a89dd19b35189cf0000000000000000000000000000000000000000000000000000000000000000000000000000000000000000000000000000000000000000000000000000000c07ac5d88a13cd2acf506ab335af9f46af373b9527f040efc590ac456670847bff383dfea1591af52a9c079cccb2b97db7937b4eb7833d7bdd8d009117f54699b0000000000000000000000000000000000000000000000000000000000005460000000000000000000000000000000000000000000000000000000000000000449362149e000000000000000000000000beefa7b88064feef0cee02aaebbd95d30df3878f0000000000000000000000003bf2b1e1da1bd2c3d397e9df06b7f717c2f12ad700000000000000000000000000000000000000000000000000000000",
        "nonce": "0x65",
        "chainId": "0x2105"
      },
      "additionalContracts": [],
      "isFixedGasLimit": false
    }
  ],
  "receipts": [
    {
      "status": "0x1",
      "cumulativeGasUsed": "0x9cbecb",
      "logs": [
        {
          "address": "0x8e074b7636f6a56097f1f719e708e2c932e23bab",
          "topics": [
            "0x4cf4410cc57040e44862ef0f45f3dd5a5e02db8eb8add648d4b0e236f1d07dca",
            "0x7907d37bc8d2b54d0afcb417508ba13cd8eca92fb9d642609eed37f1b013aba1",
            "0x0000000000000000000000000000000000000000000000000000000000000000"
          ],
          "data": "0x0000000000000000000000004a5c3cca0ac2a1949d600891a89dd19b35189cf0000000000000000000000000000000000000000000000000000000000000000000000000000000000000000000000000000000000000000000000000000000a07ac5d88a13cd2acf506ab335af9f46af373b9527f040efc590ac456670847bff000000000000000000000000000000000000000000000000000000000005460000000000000000000000000000000000000000000000000000000000000000449362149e000000000000000000000000beefa7b88064feef0cee02aaebbd95d30df3878f0000000000000000000000003bf2b1e1da1bd2c3d397e9df06b7f717c2f12ad700000000000000000000000000000000000000000000000000000000",
          "blockHash": "0xdb71de992c61bd76bc073147486bd24ae80a579a469ceaef475d9149dffd0906",
          "blockNumber": "0x296ec5d",
          "blockTimestamp": "0x69b8359d",
          "transactionHash": "0x3aa7a833c7cf9b9ad8604e2febd3ab8a311a76f02e632912dffa66078fd3bdc5",
          "transactionIndex": "0x37",
          "logIndex": "0x116",
          "removed": false
        },
        {
          "address": "0x8e074b7636f6a56097f1f719e708e2c932e23bab",
          "topics": [
            "0x20fda5fd27a1ea7bf5b9567f143ac5470bb059374a27e8f67cb44f946f6d0387",
            "0x7907d37bc8d2b54d0afcb417508ba13cd8eca92fb9d642609eed37f1b013aba1"
          ],
          "data": "0x383dfea1591af52a9c079cccb2b97db7937b4eb7833d7bdd8d009117f54699b0",
          "blockHash": "0xdb71de992c61bd76bc073147486bd24ae80a579a469ceaef475d9149dffd0906",
          "blockNumber": "0x296ec5d",
          "blockTimestamp": "0x69b8359d",
          "transactionHash": "0x3aa7a833c7cf9b9ad8604e2febd3ab8a311a76f02e632912dffa66078fd3bdc5",
          "transactionIndex": "0x37",
          "logIndex": "0x117",
          "removed": false
        }
      ],
      "logsBloom": "0x00000000000000000000000040000000000000000000000000000000000000000000000000001000000000000000000100000000800000000000000000000001000000000000000000000000000000000000000000000008000000000000000000000000020000000000000000000800000080002000000000000000000000000000000000000000000000000000000000000000000000000000000000000000000000000000000000000000000000000000000000000000000000000000000000000010000000000000000000008000000000000000400000000000000020000000000000000000000000000000000000000000000000000000000000800000",
      "type": "0x2",
      "transactionHash": "0x3aa7a833c7cf9b9ad8604e2febd3ab8a311a76f02e632912dffa66078fd3bdc5",
      "transactionIndex": "0x37",
      "blockHash": "0xdb71de992c61bd76bc073147486bd24ae80a579a469ceaef475d9149dffd0906",
      "blockNumber": "0x296ec5d",
      "gasUsed": "0xdf86",
      "effectiveGasPrice": "0x7065a5",
      "blobGasUsed": "0x6ec4",
      "from": "0xf8cbf6437d2473ec59885299af38d9a13ce97eca",
      "to": "0x8e074b7636f6a56097f1f719e708e2c932e23bab",
      "contractAddress": null,
      "daFootprintGasScalar": "0x8b",
      "l1BaseFeeScalar": "0x8dd",
      "l1BlobBaseFee": "0xd64adf",
      "l1BlobBaseFeeScalar": "0x101c12",
      "l1Fee": "0x11e5c99fe",
      "l1GasPrice": "0xe49d4d1",
      "l1GasUsed": "0xcc2"
    }
  ],
  "libraries": [],
  "pending": [],
  "returns": {},
  "timestamp": 1773680032612,
  "chain": 8453,
  "commit": "dee1601"
}