{
  "transactions": [
    {
      "hash": "0x9fdc04ea1ae4fcb06337777ff13b415b54b6aaf6b1d3115fd84520d9898edaa3",
      "transactionType": "CALL",
      "contractName": null,
      "contractAddress": "0x8e074b7636f6a56097f1f719e708e2c932e23bab",
      "function": "schedule(address,uint256,bytes,bytes32,bytes32,uint256)",
      "arguments": [
        "0x4A5c3Cca0Ac2a1949D600891A89dd19B35189Cf0",
        "0",
        "0x9362149e000000000000000000000000236919f11ff9ea9550a4287696c2fc9e18e6e8900000000000000000000000003bf2b1e1da1bd2c3d397e9df06b7f717c2f12ad7",
        "0x7ac5d88a13cd2acf506ab335af9f46af373b9527f040efc590ac456670847bff",
        "0xe8865bc6798c8343043fece65f1eb5dcb10785953ac653f5d2c639426e9f2f2b",
        "345600"
      ],
      "transaction": {
        "from": "0xf8cbf6437d2473ec59885299af38d9a13ce97eca",
        "to": "0x8e074b7636f6a56097f1f719e708e2c932e23bab",
        "gas": "0x146f8",
        "value": "0x0",
        "input": "0x01d5062a0000000000000000000000004a5c3cca0ac2a1949d600891a89dd19b35189cf0000000000000000000000000000000000000000000000000000000000000000000000000000000000000000000000000000000000000000000000000000000c07ac5d88a13cd2acf506ab335af9f46af373b9527f040efc590ac456670847bffe8865bc6798c8343043fece65f1eb5dcb10785953ac653f5d2c639426e9f2f2b000000000000000000000000000000000000000000000000000000000005460000000000000000000000000000000000000000000000000000000000000000449362149e000000000000000000000000236919f11ff9ea9550a4287696c2fc9e18e6e8900000000000000000000000003bf2b1e1da1bd2c3d397e9df06b7f717c2f12ad700000000000000000000000000000000000000000000000000000000",
        "nonce": "0x60",
        "chainId": "0x2105"
      },
      "additionalContracts": [],
      "isFixedGasLimit": false
    }
  ],
  "receipts": [
    {
      "status": "0x1",
      "cumulativeGasUsed": "0x4cd73de",
      "logs": [
        {
          "address": "0x8e074b7636f6a56097f1f719e708e2c932e23bab",
          "topics": [
            "0x4cf4410cc57040e44862ef0f45f3dd5a5e02db8eb8add648d4b0e236f1d07dca",
            "0xbba18d76c85db28ef4df0d1dc88b77ab7825fe8e5563732a19cc59f8930e92a2",
            "0x0000000000000000000000000000000000000000000000000000000000000000"
          ],
          "data": "0x0000000000000000000000004a5c3cca0ac2a1949d600891a89dd19b35189cf0000000000000000000000000000000000000000000000000000000000000000000000000000000000000000000000000000000000000000000000000000000a07ac5d88a13cd2acf506ab335af9f46af373b9527f040efc590ac456670847bff000000000000000000000000000000000000000000000000000000000005460000000000000000000000000000000000000000000000000000000000000000449362149e000000000000000000000000236919f11ff9ea9550a4287696c2fc9e18e6e8900000000000000000000000003bf2b1e1da1bd2c3d397e9df06b7f717c2f12ad700000000000000000000000000000000000000000000000000000000",
          "blockHash": "0xc374b718afe726d70ac9079d8ef79b337121fab2d80215fff8d2a07165b92493",
          "blockNumber": "0x296ec32",
          "blockTimestamp": "0x69b83547",
          "transactionHash": "0x9fdc04ea1ae4fcb06337777ff13b415b54b6aaf6b1d3115fd84520d9898edaa3",
          "transactionIndex": "0xf4",
          "logIndex": "0x6f7",
          "removed": false
        },
        {
          "address": "0x8e074b7636f6a56097f1f719e708e2c932e23bab",
          "topics": [
            "0x20fda5fd27a1ea7bf5b9567f143ac5470bb059374a27e8f67cb44f946f6d0387",
            "0xbba18d76c85db28ef4df0d1dc88b77ab7825fe8e5563732a19cc59f8930e92a2"
          ],
          "data": "0xe8865bc6798c8343043fece65f1eb5dcb10785953ac653f5d2c639426e9f2f2b",
          "blockHash": "0xc374b718afe726d70ac9079d8ef79b337121fab2d80215fff8d2a07165b92493",
          "blockNumber": "0x296ec32",
          "blockTimestamp": "0x69b83547",
          "transactionHash": "0x9fdc04ea1ae4fcb06337777ff13b415b54b6aaf6b1d3115fd84520d9898edaa3",
          "transactionIndex": "0xf4",
          "logIndex": "0x6f8",
          "removed": false
        }
      ],
      "logsBloom": "0x00000000000000000000000040000000000000000000000000000000000000000000000000001000000000000000000100000000800000000000000000000000000000000000000000000000000000000000000000000008000000000000000000000000420000000000000000000800000080000000000000000000000000000000000000000000000000000000000000000000000000000000000000000000000000000000000000000000000000000000000000000000000000000000000000000010000000000000000000000000000000000000400000000000000020000000000000100000000000000000000000000000000800000000000000800000",
      "type": "0x2",
      "transactionHash": "0x9fdc04ea1ae4fcb06337777ff13b415b54b6aaf6b1d3115fd84520d9898edaa3",
      "transactionIndex": "0xf4",
      "blockHash": "0xc374b718afe726d70ac9079d8ef79b337121fab2d80215fff8d2a07165b92493",
      "blockNumber": "0x296ec32",
      "gasUsed": "0xdf92",
      "effectiveGasPrice": "0x67068d",
      "blobGasUsed": "0x6ec4",
      "from": "0xf8cbf6437d2473ec59885299af38d9a13ce97eca",
      "to": "0x8e074b7636f6a56097f1f719e708e2c932e23bab",
      "contractAddress": null,
      "daFootprintGasScalar": "0x8b",
      "l1BaseFeeScalar": "0x8dd",
      "l1BlobBaseFee": "0xf52b78",
      "l1BlobBaseFeeScalar": "0x101c12",
      "l1Fee": "0x14433801e",
      "l1GasPrice": "0xfe2b1dd",
      "l1GasUsed": "0xcc2"
    }
  ],
  "libraries": [],
  "pending": [],
  "returns": {},
  "timestamp": 1773679946373,
  "chain": 8453,
  "commit": "dee1601"
}