{
  "transactions": [
    {
      "hash": "0xfa55e03195e95eb86ae99a10d5bb4382eb581af7205ad6ab8b17af2af3442ef1",
      "transactionType": "CALL",
      "contractName": null,
      "contractAddress": "0x8e074b7636f6a56097f1f719e708e2c932e23bab",
      "function": "schedule(address,uint256,bytes,bytes32,bytes32,uint256)",
      "arguments": [
        "0x4A5c3Cca0Ac2a1949D600891A89dd19B35189Cf0",
        "0",
        "0x9362149e00000000000000000000000046e6b214b524310239732d51387075e0e70970bf00000000000000000000000066621c39cdea3359c22b6d9de101a3b9d19b3ad0",
        "0x0000000000000000000000000000000000000000000000000000000000000000",
        "0x4d763e671feaad05fa0afa6261dbc6dbae330db2323357bd26be48f927c6abd4",
        "345600"
      ],
      "transaction": {
        "from": "0xd6768630e0b26eba52d52e75a5d21989aa750113",
        "to": "0x8e074b7636f6a56097f1f719e708e2c932e23bab",
        "gas": "0x144c6",
        "value": "0x0",
        "input": "0x01d5062a0000000000000000000000004a5c3cca0ac2a1949d600891a89dd19b35189cf0000000000000000000000000000000000000000000000000000000000000000000000000000000000000000000000000000000000000000000000000000000c000000000000000000000000000000000000000000000000000000000000000004d763e671feaad05fa0afa6261dbc6dbae330db2323357bd26be48f927c6abd4000000000000000000000000000000000000000000000000000000000005460000000000000000000000000000000000000000000000000000000000000000449362149e00000000000000000000000046e6b214b524310239732d51387075e0e70970bf00000000000000000000000066621c39cdea3359c22b6d9de101a3b9d19b3ad000000000000000000000000000000000000000000000000000000000",
        "nonce": "0xe",
        "chainId": "0x2105"
      },
      "additionalContracts": [],
      "isFixedGasLimit": false
    }
  ],
  "receipts": [
    {
      "type": "0x2",
      "status": "0x1",
      "cumulativeGasUsed": "0xecab1b",
      "logs": [
        {
          "address": "0x8e074b7636f6a56097f1f719e708e2c932e23bab",
          "topics": [
            "0x4cf4410cc57040e44862ef0f45f3dd5a5e02db8eb8add648d4b0e236f1d07dca",
            "0x581943bfd600f8d60b0d8979d110a9a1280db26eed73f8f160b059a90042579a",
            "0x0000000000000000000000000000000000000000000000000000000000000000"
          ],
          "data": "0x0000000000000000000000004a5c3cca0ac2a1949d600891a89dd19b35189cf0000000000000000000000000000000000000000000000000000000000000000000000000000000000000000000000000000000000000000000000000000000a00000000000000000000000000000000000000000000000000000000000000000000000000000000000000000000000000000000000000000000000000005460000000000000000000000000000000000000000000000000000000000000000449362149e00000000000000000000000046e6b214b524310239732d51387075e0e70970bf00000000000000000000000066621c39cdea3359c22b6d9de101a3b9d19b3ad000000000000000000000000000000000000000000000000000000000",
          "blockHash": "0x752fc2cc52679f52a47759d7778fef85a84b6a9bc69ebaf02d763c3409240dbd",
          "blockNumber": "0x2da03a6",
          "blockTimestamp": "0x6a3e642f",
          "transactionHash": "0xfa55e03195e95eb86ae99a10d5bb4382eb581af7205ad6ab8b17af2af3442ef1",
          "transactionIndex": "0x5e",
          "logIndex": "0xfa",
          "removed": false
        },
        {
          "address": "0x8e074b7636f6a56097f1f719e708e2c932e23bab",
          "topics": [
            "0x20fda5fd27a1ea7bf5b9567f143ac5470bb059374a27e8f67cb44f946f6d0387",
            "0x581943bfd600f8d60b0d8979d110a9a1280db26eed73f8f160b059a90042579a"
          ],
          "data": "0x4d763e671feaad05fa0afa6261dbc6dbae330db2323357bd26be48f927c6abd4",
          "blockHash": "0x752fc2cc52679f52a47759d7778fef85a84b6a9bc69ebaf02d763c3409240dbd",
          "blockNumber": "0x2da03a6",
          "blockTimestamp": "0x6a3e642f",
          "transactionHash": "0xfa55e03195e95eb86ae99a10d5bb4382eb581af7205ad6ab8b17af2af3442ef1",
          "transactionIndex": "0x5e",
          "logIndex": "0xfb",
          "removed": false
        }
      ],
      "logsBloom": "0x00000000000000000000000040000000000000000000000000000000000000000000000000001000000000000000000100000000800000000000000000000000000000000000000000000000200000000000000000000008000000000000000020000000020000000000000000000800000080000000000000000000000000000000000000000000000000000000000000000000000000000000000000000000000000000000000000000000000000000000080000000000000000000000000000000010000000000000000000000000000000000000400000000000000020000000000000000000000000000000000000000000000000000000000000800000",
      "transactionHash": "0xfa55e03195e95eb86ae99a10d5bb4382eb581af7205ad6ab8b17af2af3442ef1",
      "transactionIndex": "0x5e",
      "blockHash": "0x752fc2cc52679f52a47759d7778fef85a84b6a9bc69ebaf02d763c3409240dbd",
      "blockNumber": "0x2da03a6",
      "gasUsed": "0xde12",
      "effectiveGasPrice": "0x53ec66",
      "blobGasUsed": "0x677c",
      "from": "0xd6768630e0b26eba52d52e75a5d21989aa750113",
      "to": "0x8e074b7636f6a56097f1f719e708e2c932e23bab",
      "contractAddress": null,
      "l1GasPrice": "0x5f73a3c",
      "l1GasUsed": "0xb31",
      "l1Fee": "0x6a0a6c7c",
      "l1BaseFeeScalar": "0x8dd",
      "l1BlobBaseFee": "0x5b0f6c",
      "l1BlobBaseFeeScalar": "0x101c12",
      "daFootprintGasScalar": "0x94"
    }
  ],
  "libraries": [],
  "pending": [],
  "returns": {},
  "timestamp": 1782473777959,
  "chain": 8453,
  "commit": "de5ca46"
}