{
  "transactions": [
    {
      "hash": "0x4cd5d23929e904eff3142a0a6b8946673bdb8779fb9470a69748df1aa0c9d461",
      "transactionType": "CALL",
      "contractName": null,
      "contractAddress": "0x8e074b7636f6a56097f1f719e708e2c932e23bab",
      "function": "schedule(address,uint256,bytes,bytes32,bytes32,uint256)",
      "arguments": [
        "0x4A5c3Cca0Ac2a1949D600891A89dd19B35189Cf0",
        "0",
        "0x9362149e0000000000000000000000004e65fe4dba92790696d040ac24aa414708f5c0ab0000000000000000000000002d04c5bdf9ecb7b16833c4d8006c53eb0736baeb",
        "0x7ac5d88a13cd2acf506ab335af9f46af373b9527f040efc590ac456670847bff",
        "0x5f6efc11b07c970b2d34ac0aea866b169c7a3f5523cf7344eda45b3a0e3a1e88",
        "345600"
      ],
      "transaction": {
        "from": "0xf8cbf6437d2473ec59885299af38d9a13ce97eca",
        "to": "0x8e074b7636f6a56097f1f719e708e2c932e23bab",
        "gas": "0x134bd",
        "value": "0x0",
        "input": "0x01d5062a0000000000000000000000004a5c3cca0ac2a1949d600891a89dd19b35189cf0000000000000000000000000000000000000000000000000000000000000000000000000000000000000000000000000000000000000000000000000000000c07ac5d88a13cd2acf506ab335af9f46af373b9527f040efc590ac456670847bff5f6efc11b07c970b2d34ac0aea866b169c7a3f5523cf7344eda45b3a0e3a1e88000000000000000000000000000000000000000000000000000000000005460000000000000000000000000000000000000000000000000000000000000000449362149e0000000000000000000000004e65fe4dba92790696d040ac24aa414708f5c0ab0000000000000000000000002d04c5bdf9ecb7b16833c4d8006c53eb0736baeb00000000000000000000000000000000000000000000000000000000",
        "nonce": "0x75",
        "chainId": "0x2105"
      },
      "additionalContracts": [],
      "isFixedGasLimit": false
    }
  ],
  "receipts": [
    {
      "status": "0x1",
      "cumulativeGasUsed": "0x41dd0f9",
      "logs": [
        {
          "address": "0x8e074b7636f6a56097f1f719e708e2c932e23bab",
          "topics": [
            "0x4cf4410cc57040e44862ef0f45f3dd5a5e02db8eb8add648d4b0e236f1d07dca",
            "0x119e5703d7cb2f9860223434f7ac67f021685da87a14ca53997143b00707db85",
            "0x0000000000000000000000000000000000000000000000000000000000000000"
          ],
          "data": "0x0000000000000000000000004a5c3cca0ac2a1949d600891a89dd19b35189cf0000000000000000000000000000000000000000000000000000000000000000000000000000000000000000000000000000000000000000000000000000000a07ac5d88a13cd2acf506ab335af9f46af373b9527f040efc590ac456670847bff000000000000000000000000000000000000000000000000000000000005460000000000000000000000000000000000000000000000000000000000000000449362149e0000000000000000000000004e65fe4dba92790696d040ac24aa414708f5c0ab0000000000000000000000002d04c5bdf9ecb7b16833c4d8006c53eb0736baeb00000000000000000000000000000000000000000000000000000000",
          "blockHash": "0xea19005b380ef8c37a36086d7e48f5697e2e4c646fcab2f59b28a6a34857385b",
          "blockNumber": "0x296ecd1",
          "blockTimestamp": "0x69b83685",
          "transactionHash": "0x4cd5d23929e904eff3142a0a6b8946673bdb8779fb9470a69748df1aa0c9d461",
          "transactionIndex": "0x149",
          "logIndex": "0x3e5",
          "removed": false
        },
        {
          "address": "0x8e074b7636f6a56097f1f719e708e2c932e23bab",
          "topics": [
            "0x20fda5fd27a1ea7bf5b9567f143ac5470bb059374a27e8f67cb44f946f6d0387",
            "0x119e5703d7cb2f9860223434f7ac67f021685da87a14ca53997143b00707db85"
          ],
          "data": "0x5f6efc11b07c970b2d34ac0aea866b169c7a3f5523cf7344eda45b3a0e3a1e88",
          "blockHash": "0xea19005b380ef8c37a36086d7e48f5697e2e4c646fcab2f59b28a6a34857385b",
          "blockNumber": "0x296ecd1",
          "blockTimestamp": "0x69b83685",
          "transactionHash": "0x4cd5d23929e904eff3142a0a6b8946673bdb8779fb9470a69748df1aa0c9d461",
          "transactionIndex": "0x149",
          "logIndex": "0x3e6",
          "removed": false
        }
      ],
      "logsBloom": "0x00000000000000000000000040000000000000000000000000000000000000000000000000001000000000000000000100000000800000000000000000000000000000000000000000000000000000000000000000000008000000000000000000000040020000000000000000000800000080000000000000000000000000000000000000000000000000000000000000000000000000400000000000000000000000000000000000000000000000000000000000000000000000000000000000000010000000000000000000000000000000000000400000000000000020000000000000000008000000000000000000000000000000000000000000800000",
      "type": "0x2",
      "transactionHash": "0x4cd5d23929e904eff3142a0a6b8946673bdb8779fb9470a69748df1aa0c9d461",
      "transactionIndex": "0x149",
      "blockHash": "0xea19005b380ef8c37a36086d7e48f5697e2e4c646fcab2f59b28a6a34857385b",
      "blockNumber": "0x296ecd1",
      "gasUsed": "0xdf86",
      "effectiveGasPrice": "0x670ed8",
      "blobGasUsed": "0x6ec4",
      "from": "0xf8cbf6437d2473ec59885299af38d9a13ce97eca",
      "to": "0x8e074b7636f6a56097f1f719e708e2c932e23bab",
      "contractAddress": null,
      "daFootprintGasScalar": "0x8b",
      "l1BaseFeeScalar": "0x8dd",
      "l1BlobBaseFee": "0xfc9d40",
      "l1BlobBaseFeeScalar": "0x101c12",
      "l1Fee": "0x14c538f40",
      "l1GasPrice": "0x1022cfda",
      "l1GasUsed": "0xcc2"
    }
  ],
  "libraries": [],
  "pending": [],
  "returns": {},
  "timestamp": 1773680264361,
  "chain": 8453,
  "commit": "dee1601"
}