{
  "transactions": [
    {
      "hash": "0xb23701d4310d140f6b4c524ac612774157e88197019bd36d98a086961bfe029c",
      "transactionType": "CALL",
      "contractName": null,
      "contractAddress": "0x8e074b7636f6a56097f1f719e708e2c932e23bab",
      "function": "schedule(address,uint256,bytes,bytes32,bytes32,uint256)",
      "arguments": [
        "0x4A5c3Cca0Ac2a1949D600891A89dd19B35189Cf0",
        "0",
        "0x9362149e000000000000000000000000beef010f9cb27031ad51e3333f9af9c6b12281830000000000000000000000003bf2b1e1da1bd2c3d397e9df06b7f717c2f12ad7",
        "0x7ac5d88a13cd2acf506ab335af9f46af373b9527f040efc590ac456670847bff",
        "0x7a8f5bf26615fa3f8eb9cfb7f1522c601bc9644934fd4f3559f2f382979b3980",
        "345600"
      ],
      "transaction": {
        "from": "0xf8cbf6437d2473ec59885299af38d9a13ce97eca",
        "to": "0x8e074b7636f6a56097f1f719e708e2c932e23bab",
        "gas": "0x146f8",
        "value": "0x0",
        "input": "0x01d5062a0000000000000000000000004a5c3cca0ac2a1949d600891a89dd19b35189cf0000000000000000000000000000000000000000000000000000000000000000000000000000000000000000000000000000000000000000000000000000000c07ac5d88a13cd2acf506ab335af9f46af373b9527f040efc590ac456670847bff7a8f5bf26615fa3f8eb9cfb7f1522c601bc9644934fd4f3559f2f382979b3980000000000000000000000000000000000000000000000000000000000005460000000000000000000000000000000000000000000000000000000000000000449362149e000000000000000000000000beef010f9cb27031ad51e3333f9af9c6b12281830000000000000000000000003bf2b1e1da1bd2c3d397e9df06b7f717c2f12ad700000000000000000000000000000000000000000000000000000000",
        "nonce": "0x55",
        "chainId": "0x2105"
      },
      "additionalContracts": [],
      "isFixedGasLimit": false
    }
  ],
  "receipts": [
    {
      "status": "0x1",
      "cumulativeGasUsed": "0x1aafd5d",
      "logs": [
        {
          "address": "0x8e074b7636f6a56097f1f719e708e2c932e23bab",
          "topics": [
            "0x4cf4410cc57040e44862ef0f45f3dd5a5e02db8eb8add648d4b0e236f1d07dca",
            "0x209df10bcc24a51ddd0f160bcbae17c202edd0d2bfa0bcddac6550ef9f64b0e0",
            "0x0000000000000000000000000000000000000000000000000000000000000000"
          ],
          "data": "0x0000000000000000000000004a5c3cca0ac2a1949d600891a89dd19b35189cf0000000000000000000000000000000000000000000000000000000000000000000000000000000000000000000000000000000000000000000000000000000a07ac5d88a13cd2acf506ab335af9f46af373b9527f040efc590ac456670847bff000000000000000000000000000000000000000000000000000000000005460000000000000000000000000000000000000000000000000000000000000000449362149e000000000000000000000000beef010f9cb27031ad51e3333f9af9c6b12281830000000000000000000000003bf2b1e1da1bd2c3d397e9df06b7f717c2f12ad700000000000000000000000000000000000000000000000000000000",
          "blockHash": "0xc06045ebbb816a3526fec6b07e372ea6970cb345db7d7034b6b938680ad5b2c9",
          "blockNumber": "0x296ebdd",
          "blockTimestamp": "0x69b8349d",
          "transactionHash": "0xb23701d4310d140f6b4c524ac612774157e88197019bd36d98a086961bfe029c",
          "transactionIndex": "0xad",
          "logIndex": "0x296",
          "removed": false
        },
        {
          "address": "0x8e074b7636f6a56097f1f719e708e2c932e23bab",
          "topics": [
            "0x20fda5fd27a1ea7bf5b9567f143ac5470bb059374a27e8f67cb44f946f6d0387",
            "0x209df10bcc24a51ddd0f160bcbae17c202edd0d2bfa0bcddac6550ef9f64b0e0"
          ],
          "data": "0x7a8f5bf26615fa3f8eb9cfb7f1522c601bc9644934fd4f3559f2f382979b3980",
          "blockHash": "0xc06045ebbb816a3526fec6b07e372ea6970cb345db7d7034b6b938680ad5b2c9",
          "blockNumber": "0x296ebdd",
          "blockTimestamp": "0x69b8349d",
          "transactionHash": "0xb23701d4310d140f6b4c524ac612774157e88197019bd36d98a086961bfe029c",
          "transactionIndex": "0xad",
          "logIndex": "0x297",
          "removed": false
        }
      ],
      "logsBloom": "0x00000000000000000000000040000000000000000000000000000000000000000000000000001000000000000000000100000000800000000000000000000000000000000000000000001000000000000000000000200008000000000000000000000000020000000000000000000800000080000000000000000000000000000000000000000000000000000000000000000000000000000000000000000000000100000000000000000000000000000000000000000000000000000000000000000010000000000000000000000000000000000000400000000000000020000000000000000000000000000000000000000000000000000000000000800000",
      "type": "0x2",
      "transactionHash": "0xb23701d4310d140f6b4c524ac612774157e88197019bd36d98a086961bfe029c",
      "transactionIndex": "0xad",
      "blockHash": "0xc06045ebbb816a3526fec6b07e372ea6970cb345db7d7034b6b938680ad5b2c9",
      "blockNumber": "0x296ebdd",
      "gasUsed": "0xdf92",
      "effectiveGasPrice": "0x6483ba",
      "blobGasUsed": "0x6ec4",
      "from": "0xf8cbf6437d2473ec59885299af38d9a13ce97eca",
      "to": "0x8e074b7636f6a56097f1f719e708e2c932e23bab",
      "contractAddress": null,
      "daFootprintGasScalar": "0x8b",
      "l1BaseFeeScalar": "0x8dd",
      "l1BlobBaseFee": "0xd71864",
      "l1BlobBaseFeeScalar": "0x101c12",
      "l1Fee": "0x124933389",
      "l1GasPrice": "0xf09108c",
      "l1GasUsed": "0xcc2"
    }
  ],
  "libraries": [],
  "pending": [],
  "returns": {},
  "timestamp": 1773679776055,
  "chain": 8453,
  "commit": "dee1601"
}