{
  "transactions": [
    {
      "hash": "0x37f5981d2a17e00261a029e8688ca5e5e71bac1cab37a9cd0d387062cef4905b",
      "transactionType": "CALL",
      "contractName": null,
      "contractAddress": "0x8e074b7636f6a56097f1f719e708e2c932e23bab",
      "function": "schedule(address,uint256,bytes,bytes32,bytes32,uint256)",
      "arguments": [
        "0x4A5c3Cca0Ac2a1949D600891A89dd19B35189Cf0",
        "0",
        "0x9362149e000000000000000000000000beefe94c8ad530842bfe7d8b397938ffc1cb83b20000000000000000000000003bf2b1e1da1bd2c3d397e9df06b7f717c2f12ad7",
        "0x7ac5d88a13cd2acf506ab335af9f46af373b9527f040efc590ac456670847bff",
        "0x0334430773a58780c466983c926c85b83e91e9a54d7ded7719bcac3ff2999b9b",
        "345600"
      ],
      "transaction": {
        "from": "0xf8cbf6437d2473ec59885299af38d9a13ce97eca",
        "to": "0x8e074b7636f6a56097f1f719e708e2c932e23bab",
        "gas": "0x146f8",
        "value": "0x0",
        "input": "0x01d5062a0000000000000000000000004a5c3cca0ac2a1949d600891a89dd19b35189cf0000000000000000000000000000000000000000000000000000000000000000000000000000000000000000000000000000000000000000000000000000000c07ac5d88a13cd2acf506ab335af9f46af373b9527f040efc590ac456670847bff0334430773a58780c466983c926c85b83e91e9a54d7ded7719bcac3ff2999b9b000000000000000000000000000000000000000000000000000000000005460000000000000000000000000000000000000000000000000000000000000000449362149e000000000000000000000000beefe94c8ad530842bfe7d8b397938ffc1cb83b20000000000000000000000003bf2b1e1da1bd2c3d397e9df06b7f717c2f12ad700000000000000000000000000000000000000000000000000000000",
        "nonce": "0x64",
        "chainId": "0x2105"
      },
      "additionalContracts": [],
      "isFixedGasLimit": false
    }
  ],
  "receipts": [
    {
      "status": "0x1",
      "cumulativeGasUsed": "0x1207c9b",
      "logs": [
        {
          "address": "0x8e074b7636f6a56097f1f719e708e2c932e23bab",
          "topics": [
            "0x4cf4410cc57040e44862ef0f45f3dd5a5e02db8eb8add648d4b0e236f1d07dca",
            "0x3833d5760024e8dcdc1b253747a08f935239a1b20a9d3aa69e316758364f3e82",
            "0x0000000000000000000000000000000000000000000000000000000000000000"
          ],
          "data": "0x0000000000000000000000004a5c3cca0ac2a1949d600891a89dd19b35189cf0000000000000000000000000000000000000000000000000000000000000000000000000000000000000000000000000000000000000000000000000000000a07ac5d88a13cd2acf506ab335af9f46af373b9527f040efc590ac456670847bff000000000000000000000000000000000000000000000000000000000005460000000000000000000000000000000000000000000000000000000000000000449362149e000000000000000000000000beefe94c8ad530842bfe7d8b397938ffc1cb83b20000000000000000000000003bf2b1e1da1bd2c3d397e9df06b7f717c2f12ad700000000000000000000000000000000000000000000000000000000",
          "blockHash": "0x18de64586395a96295c269d250bce186936b74444ccaf723e7bb80f22d7f72fa",
          "blockNumber": "0x296ec56",
          "blockTimestamp": "0x69b8358f",
          "transactionHash": "0x37f5981d2a17e00261a029e8688ca5e5e71bac1cab37a9cd0d387062cef4905b",
          "transactionIndex": "0x52",
          "logIndex": "0x1cc",
          "removed": false
        },
        {
          "address": "0x8e074b7636f6a56097f1f719e708e2c932e23bab",
          "topics": [
            "0x20fda5fd27a1ea7bf5b9567f143ac5470bb059374a27e8f67cb44f946f6d0387",
            "0x3833d5760024e8dcdc1b253747a08f935239a1b20a9d3aa69e316758364f3e82"
          ],
          "data": "0x0334430773a58780c466983c926c85b83e91e9a54d7ded7719bcac3ff2999b9b",
          "blockHash": "0x18de64586395a96295c269d250bce186936b74444ccaf723e7bb80f22d7f72fa",
          "blockNumber": "0x296ec56",
          "blockTimestamp": "0x69b8358f",
          "transactionHash": "0x37f5981d2a17e00261a029e8688ca5e5e71bac1cab37a9cd0d387062cef4905b",
          "transactionIndex": "0x52",
          "logIndex": "0x1cd",
          "removed": false
        }
      ],
      "logsBloom": "0x00000000000000000000000040000000000000000000000000000000000000000000000000001000000000000001000100000000800000000000000000000000000000000001000000000000000000000000000000000008000000000000000000000000020000000000000000000800000080000000000000000000000000000000000000000000000000000000000000000000000000000000000000000000000000000000000000000000000000000000000000000000000000000000000000000010000000000000000000000000000000000000400000000000000020000000000000000000000080000000000000000000000000000000000000800000",
      "type": "0x2",
      "transactionHash": "0x37f5981d2a17e00261a029e8688ca5e5e71bac1cab37a9cd0d387062cef4905b",
      "transactionIndex": "0x52",
      "blockHash": "0x18de64586395a96295c269d250bce186936b74444ccaf723e7bb80f22d7f72fa",
      "blockNumber": "0x296ec56",
      "gasUsed": "0xdf92",
      "effectiveGasPrice": "0x6a36f8",
      "blobGasUsed": "0x6ec4",
      "from": "0xf8cbf6437d2473ec59885299af38d9a13ce97eca",
      "to": "0x8e074b7636f6a56097f1f719e708e2c932e23bab",
      "contractAddress": null,
      "daFootprintGasScalar": "0x8b",
      "l1BaseFeeScalar": "0x8dd",
      "l1BlobBaseFee": "0xd189d3",
      "l1BlobBaseFeeScalar": "0x101c12",
      "l1Fee": "0x1186d18ae",
      "l1GasPrice": "0xe0718c4",
      "l1GasUsed": "0xcc2"
    }
  ],
  "libraries": [],
  "pending": [],
  "returns": {},
  "timestamp": 1773680017898,
  "chain": 8453,
  "commit": "dee1601"
}