{
  "transactions": [
    {
      "hash": "0xd6f2847ee807f623a139e2862840314d671ac7ce0c8c98f697facde58b13770e",
      "transactionType": "CALL",
      "contractName": null,
      "contractAddress": "0x8e074b7636f6a56097f1f719e708e2c932e23bab",
      "function": "schedule(address,uint256,bytes,bytes32,bytes32,uint256)",
      "arguments": [
        "0x4A5c3Cca0Ac2a1949D600891A89dd19B35189Cf0",
        "0",
        "0x9362149e000000000000000000000000085178078796da17b191f9081b5e2fccc79a7ee70000000000000000000000003bf2b1e1da1bd2c3d397e9df06b7f717c2f12ad7",
        "0x7ac5d88a13cd2acf506ab335af9f46af373b9527f040efc590ac456670847bff",
        "0x3ac0c008cf2369c292a38422e3f60a0b6ecf5ef7a001e40e21f5b5380883c399",
        "345600"
      ],
      "transaction": {
        "from": "0xf8cbf6437d2473ec59885299af38d9a13ce97eca",
        "to": "0x8e074b7636f6a56097f1f719e708e2c932e23bab",
        "gas": "0x146f8",
        "value": "0x0",
        "input": "0x01d5062a0000000000000000000000004a5c3cca0ac2a1949d600891a89dd19b35189cf0000000000000000000000000000000000000000000000000000000000000000000000000000000000000000000000000000000000000000000000000000000c07ac5d88a13cd2acf506ab335af9f46af373b9527f040efc590ac456670847bff3ac0c008cf2369c292a38422e3f60a0b6ecf5ef7a001e40e21f5b5380883c399000000000000000000000000000000000000000000000000000000000005460000000000000000000000000000000000000000000000000000000000000000449362149e000000000000000000000000085178078796da17b191f9081b5e2fccc79a7ee70000000000000000000000003bf2b1e1da1bd2c3d397e9df06b7f717c2f12ad700000000000000000000000000000000000000000000000000000000",
        "nonce": "0x63",
        "chainId": "0x2105"
      },
      "additionalContracts": [],
      "isFixedGasLimit": false
    }
  ],
  "receipts": [
    {
      "status": "0x1",
      "cumulativeGasUsed": "0x9238b6",
      "logs": [
        {
          "address": "0x8e074b7636f6a56097f1f719e708e2c932e23bab",
          "topics": [
            "0x4cf4410cc57040e44862ef0f45f3dd5a5e02db8eb8add648d4b0e236f1d07dca",
            "0x0f6199dc24bf844f37bf749b797924327147910f8befda9548933af5bc28567f",
            "0x0000000000000000000000000000000000000000000000000000000000000000"
          ],
          "data": "0x0000000000000000000000004a5c3cca0ac2a1949d600891a89dd19b35189cf0000000000000000000000000000000000000000000000000000000000000000000000000000000000000000000000000000000000000000000000000000000a07ac5d88a13cd2acf506ab335af9f46af373b9527f040efc590ac456670847bff000000000000000000000000000000000000000000000000000000000005460000000000000000000000000000000000000000000000000000000000000000449362149e000000000000000000000000085178078796da17b191f9081b5e2fccc79a7ee70000000000000000000000003bf2b1e1da1bd2c3d397e9df06b7f717c2f12ad700000000000000000000000000000000000000000000000000000000",
          "blockHash": "0x04fd7da24cebd81512ef4b4f2ac076d23534f0695139642cb504ac11d2b41709",
          "blockNumber": "0x296ec4e",
          "blockTimestamp": "0x69b8357f",
          "transactionHash": "0xd6f2847ee807f623a139e2862840314d671ac7ce0c8c98f697facde58b13770e",
          "transactionIndex": "0x39",
          "logIndex": "0xe0",
          "removed": false
        },
        {
          "address": "0x8e074b7636f6a56097f1f719e708e2c932e23bab",
          "topics": [
            "0x20fda5fd27a1ea7bf5b9567f143ac5470bb059374a27e8f67cb44f946f6d0387",
            "0x0f6199dc24bf844f37bf749b797924327147910f8befda9548933af5bc28567f"
          ],
          "data": "0x3ac0c008cf2369c292a38422e3f60a0b6ecf5ef7a001e40e21f5b5380883c399",
          "blockHash": "0x04fd7da24cebd81512ef4b4f2ac076d23534f0695139642cb504ac11d2b41709",
          "blockNumber": "0x296ec4e",
          "blockTimestamp": "0x69b8357f",
          "transactionHash": "0xd6f2847ee807f623a139e2862840314d671ac7ce0c8c98f697facde58b13770e",
          "transactionIndex": "0x39",
          "logIndex": "0xe1",
          "removed": false
        }
      ],
      "logsBloom": "0x00000000000000000000000040000000000000000000000000000000000000000000000000001000000000000000000100000000800000000000000000000000000000000000000000000000000000000000000000000008000000000000000000000000020020000000000000000800000080000000000000000000000000000000000000000000000000000000000000000000000000000000000000000000000000000000000000000000000000000000000000000000000000000000000000000010000000000000000000000000000000000000400000040000000020000000000000000000000000000100000000000000000000000000000000800000",
      "type": "0x2",
      "transactionHash": "0xd6f2847ee807f623a139e2862840314d671ac7ce0c8c98f697facde58b13770e",
      "transactionIndex": "0x39",
      "blockHash": "0x04fd7da24cebd81512ef4b4f2ac076d23534f0695139642cb504ac11d2b41709",
      "blockNumber": "0x296ec4e",
      "gasUsed": "0xdf92",
      "effectiveGasPrice": "0x6a0a47",
      "blobGasUsed": "0x6ec4",
      "from": "0xf8cbf6437d2473ec59885299af38d9a13ce97eca",
      "to": "0x8e074b7636f6a56097f1f719e708e2c932e23bab",
      "contractAddress": null,
      "daFootprintGasScalar": "0x8b",
      "l1BaseFeeScalar": "0x8dd",
      "l1BlobBaseFee": "0xd0c1a0",
      "l1BlobBaseFeeScalar": "0x101c12",
      "l1Fee": "0x120ae7e9f",
      "l1GasPrice": "0xf3af279",
      "l1GasUsed": "0xcc2"
    }
  ],
  "libraries": [],
  "pending": [],
  "returns": {},
  "timestamp": 1773680004343,
  "chain": 8453,
  "commit": "dee1601"
}