{
  "transactions": [
    {
      "hash": "0x912ff68433654c6b944c0ccf8543ead6a52cb660252d515939829646a61a701e",
      "transactionType": "CALL",
      "contractName": null,
      "contractAddress": "0x8e074b7636f6a56097f1f719e708e2c932e23bab",
      "function": "schedule(address,uint256,bytes,bytes32,bytes32,uint256)",
      "arguments": [
        "0x4A5c3Cca0Ac2a1949D600891A89dd19B35189Cf0",
        "0",
        "0x9362149e00000000000000000000000043e623ff7d14d5b105f7be9c488f36dbf11d1f460000000000000000000000003bf2b1e1da1bd2c3d397e9df06b7f717c2f12ad7",
        "0x7ac5d88a13cd2acf506ab335af9f46af373b9527f040efc590ac456670847bff",
        "0x9f2aa4b805689e5d1ff1a8f1e2a939ca8d6b60a7c5c7f705a2d08097eeeab509",
        "345600"
      ],
      "transaction": {
        "from": "0xf8cbf6437d2473ec59885299af38d9a13ce97eca",
        "to": "0x8e074b7636f6a56097f1f719e708e2c932e23bab",
        "gas": "0x146f8",
        "value": "0x0",
        "input": "0x01d5062a0000000000000000000000004a5c3cca0ac2a1949d600891a89dd19b35189cf0000000000000000000000000000000000000000000000000000000000000000000000000000000000000000000000000000000000000000000000000000000c07ac5d88a13cd2acf506ab335af9f46af373b9527f040efc590ac456670847bff9f2aa4b805689e5d1ff1a8f1e2a939ca8d6b60a7c5c7f705a2d08097eeeab509000000000000000000000000000000000000000000000000000000000005460000000000000000000000000000000000000000000000000000000000000000449362149e00000000000000000000000043e623ff7d14d5b105f7be9c488f36dbf11d1f460000000000000000000000003bf2b1e1da1bd2c3d397e9df06b7f717c2f12ad700000000000000000000000000000000000000000000000000000000",
        "nonce": "0x6c",
        "chainId": "0x2105"
      },
      "additionalContracts": [],
      "isFixedGasLimit": false
    }
  ],
  "receipts": [
    {
      "status": "0x1",
      "cumulativeGasUsed": "0x2dda858",
      "logs": [
        {
          "address": "0x8e074b7636f6a56097f1f719e708e2c932e23bab",
          "topics": [
            "0x4cf4410cc57040e44862ef0f45f3dd5a5e02db8eb8add648d4b0e236f1d07dca",
            "0xdffb7d2e640ee3523ca2b490b35c43231eb0a772d7a2430e10a7ac9e8f3199c0",
            "0x0000000000000000000000000000000000000000000000000000000000000000"
          ],
          "data": "0x0000000000000000000000004a5c3cca0ac2a1949d600891a89dd19b35189cf0000000000000000000000000000000000000000000000000000000000000000000000000000000000000000000000000000000000000000000000000000000a07ac5d88a13cd2acf506ab335af9f46af373b9527f040efc590ac456670847bff000000000000000000000000000000000000000000000000000000000005460000000000000000000000000000000000000000000000000000000000000000449362149e00000000000000000000000043e623ff7d14d5b105f7be9c488f36dbf11d1f460000000000000000000000003bf2b1e1da1bd2c3d397e9df06b7f717c2f12ad700000000000000000000000000000000000000000000000000000000",
          "blockHash": "0xfa993f7353fe07f06e9501687a2f49fccc5a631a15d2f362230002d7a41def43",
          "blockNumber": "0x296ec90",
          "blockTimestamp": "0x69b83603",
          "transactionHash": "0x912ff68433654c6b944c0ccf8543ead6a52cb660252d515939829646a61a701e",
          "transactionIndex": "0x115",
          "logIndex": "0x3a9",
          "removed": false
        },
        {
          "address": "0x8e074b7636f6a56097f1f719e708e2c932e23bab",
          "topics": [
            "0x20fda5fd27a1ea7bf5b9567f143ac5470bb059374a27e8f67cb44f946f6d0387",
            "0xdffb7d2e640ee3523ca2b490b35c43231eb0a772d7a2430e10a7ac9e8f3199c0"
          ],
          "data": "0x9f2aa4b805689e5d1ff1a8f1e2a939ca8d6b60a7c5c7f705a2d08097eeeab509",
          "blockHash": "0xfa993f7353fe07f06e9501687a2f49fccc5a631a15d2f362230002d7a41def43",
          "blockNumber": "0x296ec90",
          "blockTimestamp": "0x69b83603",
          "transactionHash": "0x912ff68433654c6b944c0ccf8543ead6a52cb660252d515939829646a61a701e",
          "transactionIndex": "0x115",
          "logIndex": "0x3aa",
          "removed": false
        }
      ],
      "logsBloom": "0x00000000000000000000000040000000000000000000000000000000000000000000000000001000000400000000000100000000800000000000000000000000000000000000000000000000000000000000000000000008000000000000000000000000020000000000000000000800000080000000000000000000000000000000000000000000000000000000000000000000000000000000000000000000000000000000000000000000000000000000000000000000000000000000000000000010000000000000000000000000000000000800400000001000000020000000000000000000000000000000000000000000000000000000000000800000",
      "type": "0x2",
      "transactionHash": "0x912ff68433654c6b944c0ccf8543ead6a52cb660252d515939829646a61a701e",
      "transactionIndex": "0x115",
      "blockHash": "0xfa993f7353fe07f06e9501687a2f49fccc5a631a15d2f362230002d7a41def43",
      "blockNumber": "0x296ec90",
      "gasUsed": "0xdf92",
      "effectiveGasPrice": "0x69222c",
      "blobGasUsed": "0x6dae",
      "from": "0xf8cbf6437d2473ec59885299af38d9a13ce97eca",
      "to": "0x8e074b7636f6a56097f1f719e708e2c932e23bab",
      "contractAddress": null,
      "daFootprintGasScalar": "0x8b",
      "l1BaseFeeScalar": "0x8dd",
      "l1BlobBaseFee": "0xcf3374",
      "l1BlobBaseFeeScalar": "0x101c12",
      "l1Fee": "0x11969b27c",
      "l1GasPrice": "0xebd7031",
      "l1GasUsed": "0xca8"
    }
  ],
  "libraries": [],
  "pending": [],
  "returns": {},
  "timestamp": 1773680134225,
  "chain": 8453,
  "commit": "dee1601"
}