{
  "transactions": [
    {
      "hash": "0xf37e3e4ceba7bc157b6fe5499ec41170b37bf3b3be8873749ecb0d479aba010d",
      "transactionType": "CALL",
      "contractName": null,
      "contractAddress": "0x8e074b7636f6a56097f1f719e708e2c932e23bab",
      "function": "schedule(address,uint256,bytes,bytes32,bytes32,uint256)",
      "arguments": [
        "0x4A5c3Cca0Ac2a1949D600891A89dd19B35189Cf0",
        "0",
        "0x9362149e0000000000000000000000009272d6153133175175bc276512b2336be3931ce90000000000000000000000003bf2b1e1da1bd2c3d397e9df06b7f717c2f12ad7",
        "0x0000000000000000000000000000000000000000000000000000000000000000",
        "0x34df270cdeae7fecb279e45967b82c92078afec844ded7ade83f25aa0ab5a492",
        "345600"
      ],
      "transaction": {
        "from": "0xd6768630e0b26eba52d52e75a5d21989aa750113",
        "to": "0x8e074b7636f6a56097f1f719e708e2c932e23bab",
        "gas": "0x144c6",
        "value": "0x0",
        "input": "0x01d5062a0000000000000000000000004a5c3cca0ac2a1949d600891a89dd19b35189cf0000000000000000000000000000000000000000000000000000000000000000000000000000000000000000000000000000000000000000000000000000000c0000000000000000000000000000000000000000000000000000000000000000034df270cdeae7fecb279e45967b82c92078afec844ded7ade83f25aa0ab5a492000000000000000000000000000000000000000000000000000000000005460000000000000000000000000000000000000000000000000000000000000000449362149e0000000000000000000000009272d6153133175175bc276512b2336be3931ce90000000000000000000000003bf2b1e1da1bd2c3d397e9df06b7f717c2f12ad700000000000000000000000000000000000000000000000000000000",
        "nonce": "0x1f",
        "chainId": "0x2105"
      },
      "additionalContracts": [],
      "isFixedGasLimit": false
    }
  ],
  "receipts": [
    {
      "type": "0x2",
      "status": "0x1",
      "cumulativeGasUsed": "0x1f8b0d3",
      "logs": [
        {
          "address": "0x8e074b7636f6a56097f1f719e708e2c932e23bab",
          "topics": [
            "0x4cf4410cc57040e44862ef0f45f3dd5a5e02db8eb8add648d4b0e236f1d07dca",
            "0x142a2009d6ca703e618021749c3b1d2254dfe3bd2e63ca52c53cd9aff7a1811e",
            "0x0000000000000000000000000000000000000000000000000000000000000000"
          ],
          "data": "0x0000000000000000000000004a5c3cca0ac2a1949d600891a89dd19b35189cf0000000000000000000000000000000000000000000000000000000000000000000000000000000000000000000000000000000000000000000000000000000a00000000000000000000000000000000000000000000000000000000000000000000000000000000000000000000000000000000000000000000000000005460000000000000000000000000000000000000000000000000000000000000000449362149e0000000000000000000000009272d6153133175175bc276512b2336be3931ce90000000000000000000000003bf2b1e1da1bd2c3d397e9df06b7f717c2f12ad700000000000000000000000000000000000000000000000000000000",
          "blockHash": "0x96674b53f62fb037d7d347669fd32ae23acc532564140202d4d2bc07d565f0c0",
          "blockNumber": "0x2e21d84",
          "blockTimestamp": "0x6a4e97eb",
          "transactionHash": "0xf37e3e4ceba7bc157b6fe5499ec41170b37bf3b3be8873749ecb0d479aba010d",
          "transactionIndex": "0x230",
          "logIndex": "0x1b2",
          "removed": false
        },
        {
          "address": "0x8e074b7636f6a56097f1f719e708e2c932e23bab",
          "topics": [
            "0x20fda5fd27a1ea7bf5b9567f143ac5470bb059374a27e8f67cb44f946f6d0387",
            "0x142a2009d6ca703e618021749c3b1d2254dfe3bd2e63ca52c53cd9aff7a1811e"
          ],
          "data": "0x34df270cdeae7fecb279e45967b82c92078afec844ded7ade83f25aa0ab5a492",
          "blockHash": "0x96674b53f62fb037d7d347669fd32ae23acc532564140202d4d2bc07d565f0c0",
          "blockNumber": "0x2e21d84",
          "blockTimestamp": "0x6a4e97eb",
          "transactionHash": "0xf37e3e4ceba7bc157b6fe5499ec41170b37bf3b3be8873749ecb0d479aba010d",
          "transactionIndex": "0x230",
          "logIndex": "0x1b3",
          "removed": false
        }
      ],
      "logsBloom": "0x00000000000000000000000040000000000000000000000000000000000000000000000000001000000000000000080100000000800000000000000000000000000000000000000000000000000000000000000000000008000000000000000000000000020000000000200000000800000080000000000000000000000000000000000000000000000000000000000000000000000000000000000000000000000000000000000000000000000000000000000000000000000000100000000000000010000000000000000000000000000000000000400000000000000020000000000000000000000000000000000000000000000000000000000000800000",
      "transactionHash": "0xf37e3e4ceba7bc157b6fe5499ec41170b37bf3b3be8873749ecb0d479aba010d",
      "transactionIndex": "0x230",
      "blockHash": "0x96674b53f62fb037d7d347669fd32ae23acc532564140202d4d2bc07d565f0c0",
      "blockNumber": "0x2e21d84",
      "gasUsed": "0xde12",
      "effectiveGasPrice": "0x5b9407",
      "blobGasUsed": "0x677c",
      "from": "0xd6768630e0b26eba52d52e75a5d21989aa750113",
      "to": "0x8e074b7636f6a56097f1f719e708e2c932e23bab",
      "contractAddress": null,
      "l1GasPrice": "0x5317671",
      "l1GasUsed": "0xb31",
      "l1Fee": "0x5f230fbe",
      "l1BaseFeeScalar": "0x8dd",
      "l1BlobBaseFee": "0x5318e8",
      "l1BlobBaseFeeScalar": "0x101c12",
      "daFootprintGasScalar": "0x94"
    }
  ],
  "libraries": [],
  "pending": [],
  "returns": {},
  "timestamp": 1783535595592,
  "chain": 8453,
  "commit": "5d5daf5"
}