{
  "transactions": [
    {
      "hash": "0xed2e7e4c6d4f46bba6cb4ebd10a7f15664ba0f343931ce9d9ba595370325ff39",
      "transactionType": "CALL",
      "contractName": "YieldSeekerAdminTimelock",
      "contractAddress": "0x60163d6406503426e712ed6c507137229552756d",
      "function": "schedule(address,uint256,bytes,bytes32,bytes32,uint256)",
      "arguments": [
        "0x81f17748B0abE955790346B904f6B78E67594ed0",
        "0",
        "0x9362149e000000000000000000000000e74c499fa461af1844fca84204490877787ced56000000000000000000000000905cd24370018befb6c648420d35dfeba9e62602",
        "0x0000000000000000000000000000000000000000000000000000000000000000",
        "0xae10a4052459e822c266f54de431cd898eac3d6851bc6c7c6a24d0917f88a9bf",
        "0"
      ],
      "transaction": {
        "from": "0xf8cbf6437d2473ec59885299af38d9a13ce97eca",
        "to": "0x60163d6406503426e712ed6c507137229552756d",
        "gas": "0x144a3",
        "value": "0x0",
        "input": "0x01d5062a00000000000000000000000081f17748b0abe955790346b904f6b78e67594ed0000000000000000000000000000000000000000000000000000000000000000000000000000000000000000000000000000000000000000000000000000000c00000000000000000000000000000000000000000000000000000000000000000ae10a4052459e822c266f54de431cd898eac3d6851bc6c7c6a24d0917f88a9bf000000000000000000000000000000000000000000000000000000000000000000000000000000000000000000000000000000000000000000000000000000449362149e000000000000000000000000e74c499fa461af1844fca84204490877787ced56000000000000000000000000905cd24370018befb6c648420d35dfeba9e6260200000000000000000000000000000000000000000000000000000000",
        "nonce": "0xa",
        "chainId": "0x2105"
      },
      "additionalContracts": [],
      "isFixedGasLimit": false
    },
    {
      "hash": "0xab97e980c69302b9a486601d16ebf6a9c702a6d61cc21626d312b16d517050f9",
      "transactionType": "CALL",
      "contractName": "YieldSeekerAdminTimelock",
      "contractAddress": "0x60163d6406503426e712ed6c507137229552756d",
      "function": "execute(address,uint256,bytes,bytes32,bytes32)",
      "arguments": [
        "0x81f17748B0abE955790346B904f6B78E67594ed0",
        "0",
        "0x9362149e000000000000000000000000e74c499fa461af1844fca84204490877787ced56000000000000000000000000905cd24370018befb6c648420d35dfeba9e62602",
        "0x0000000000000000000000000000000000000000000000000000000000000000",
        "0xae10a4052459e822c266f54de431cd898eac3d6851bc6c7c6a24d0917f88a9bf"
      ],
      "transaction": {
        "from": "0xf8cbf6437d2473ec59885299af38d9a13ce97eca",
        "to": "0x60163d6406503426e712ed6c507137229552756d",
        "gas": "0x30eff",
        "value": "0x0",
        "input": "0x134008d300000000000000000000000081f17748b0abe955790346b904f6b78e67594ed0000000000000000000000000000000000000000000000000000000000000000000000000000000000000000000000000000000000000000000000000000000a00000000000000000000000000000000000000000000000000000000000000000ae10a4052459e822c266f54de431cd898eac3d6851bc6c7c6a24d0917f88a9bf00000000000000000000000000000000000000000000000000000000000000449362149e000000000000000000000000e74c499fa461af1844fca84204490877787ced56000000000000000000000000905cd24370018befb6c648420d35dfeba9e6260200000000000000000000000000000000000000000000000000000000",
        "nonce": "0xb",
        "chainId": "0x2105"
      },
      "additionalContracts": [],
      "isFixedGasLimit": false
    }
  ],
  "receipts": [
    {
      "status": "0x1",
      "cumulativeGasUsed": "0x282cc88",
      "logs": [
        {
          "address": "0x60163d6406503426e712ed6c507137229552756d",
          "topics": [
            "0x4cf4410cc57040e44862ef0f45f3dd5a5e02db8eb8add648d4b0e236f1d07dca",
            "0xfa1e69ee89d68768956fe442ed68b5b8ef12b26ce48f2f33b20dfe87279051bd",
            "0x0000000000000000000000000000000000000000000000000000000000000000"
          ],
          "data": "0x00000000000000000000000081f17748b0abe955790346b904f6b78e67594ed0000000000000000000000000000000000000000000000000000000000000000000000000000000000000000000000000000000000000000000000000000000a00000000000000000000000000000000000000000000000000000000000000000000000000000000000000000000000000000000000000000000000000000000000000000000000000000000000000000000000000000000000000000000000449362149e000000000000000000000000e74c499fa461af1844fca84204490877787ced56000000000000000000000000905cd24370018befb6c648420d35dfeba9e6260200000000000000000000000000000000000000000000000000000000",
          "blockHash": "0x5c6f4fde2ac8b03c64ac8d49ad09bd0c54d07a3e21eeebb84eb637bf28df02ce",
          "blockNumber": "0x26c0c86",
          "blockTimestamp": "0x696275ef",
          "transactionHash": "0xab97e980c69302b9a486601d16ebf6a9c702a6d61cc21626d312b16d517050f9",
          "transactionIndex": "0x77",
          "logIndex": "0x38f",
          "removed": false
        },
        {
          "address": "0x60163d6406503426e712ed6c507137229552756d",
          "topics": [
            "0x20fda5fd27a1ea7bf5b9567f143ac5470bb059374a27e8f67cb44f946f6d0387",
            "0xfa1e69ee89d68768956fe442ed68b5b8ef12b26ce48f2f33b20dfe87279051bd"
          ],
          "data": "0xae10a4052459e822c266f54de431cd898eac3d6851bc6c7c6a24d0917f88a9bf",
          "blockHash": "0x5c6f4fde2ac8b03c64ac8d49ad09bd0c54d07a3e21eeebb84eb637bf28df02ce",
          "blockNumber": "0x26c0c86",
          "blockTimestamp": "0x696275ef",
          "transactionHash": "0xab97e980c69302b9a486601d16ebf6a9c702a6d61cc21626d312b16d517050f9",
          "transactionIndex": "0x77",
          "logIndex": "0x390",
          "removed": false
        }
      ],
      "logsBloom": "0x00000000000000000000000040000000000000000000000000000000000000000000000000000000000000000000000100000000800000000000000000000000000000000000000000000000000000000000000000000008000000000000000000080000020000000000000000000800000080000000200000000000000000000000000000040040000000000000000000000000000000000000020000000000000000000000000000000000000000000000000000000000000000000000000000000000000000000000000000000000000000000000400000000000000022000000000000000000000000000000000000000000000000000000000000000000",
      "type": "0x2",
      "transactionHash": "0xab97e980c69302b9a486601d16ebf6a9c702a6d61cc21626d312b16d517050f9",
      "transactionIndex": "0x77",
      "blockHash": "0x5c6f4fde2ac8b03c64ac8d49ad09bd0c54d07a3e21eeebb84eb637bf28df02ce",
      "blockNumber": "0x26c0c86",
      "gasUsed": "0xddfa",
      "effectiveGasPrice": "0xfecad",
      "blobGasUsed": "0xd68d",
      "from": "0xf8cbf6437d2473ec59885299af38d9a13ce97eca",
      "to": "0x60163d6406503426e712ed6c507137229552756d",
      "contractAddress": null,
      "daFootprintGasScalar": "0x145",
      "l1BaseFeeScalar": "0x8dd",
      "l1BlobBaseFee": "0x1bf6d5",
      "l1BlobBaseFeeScalar": "0x101c12",
      "l1Fee": "0x2030911a",
      "l1GasPrice": "0x20ae485",
      "l1GasUsed": "0xa9e"
    },
    {
      "status": "0x1",
      "cumulativeGasUsed": "0x284e3ea",
      "logs": [
        {
          "address": "0x81f17748b0abe955790346b904f6b78e67594ed0",
          "topics": [
            "0x1cf35c87329e14a81fdc68af8a463c1db203ccfc925ff5150f5dbc71bc4c2372",
            "0x000000000000000000000000e74c499fa461af1844fca84204490877787ced56",
            "0x000000000000000000000000905cd24370018befb6c648420d35dfeba9e62602"
          ],
          "data": "0x",
          "blockHash": "0x5c6f4fde2ac8b03c64ac8d49ad09bd0c54d07a3e21eeebb84eb637bf28df02ce",
          "blockNumber": "0x26c0c86",
          "blockTimestamp": "0x696275ef",
          "transactionHash": "0xed2e7e4c6d4f46bba6cb4ebd10a7f15664ba0f343931ce9d9ba595370325ff39",
          "transactionIndex": "0x78",
          "logIndex": "0x391",
          "removed": false
        },
        {
          "address": "0x60163d6406503426e712ed6c507137229552756d",
          "topics": [
            "0xc2617efa69bab66782fa219543714338489c4e9e178271560a91b82c3f612b58",
            "0xfa1e69ee89d68768956fe442ed68b5b8ef12b26ce48f2f33b20dfe87279051bd",
            "0x0000000000000000000000000000000000000000000000000000000000000000"
          ],
          "data": "0x00000000000000000000000081f17748b0abe955790346b904f6b78e67594ed00000000000000000000000000000000000000000000000000000000000000000000000000000000000000000000000000000000000000000000000000000006000000000000000000000000000000000000000000000000000000000000000449362149e000000000000000000000000e74c499fa461af1844fca84204490877787ced56000000000000000000000000905cd24370018befb6c648420d35dfeba9e6260200000000000000000000000000000000000000000000000000000000",
          "blockHash": "0x5c6f4fde2ac8b03c64ac8d49ad09bd0c54d07a3e21eeebb84eb637bf28df02ce",
          "blockNumber": "0x26c0c86",
          "blockTimestamp": "0x696275ef",
          "transactionHash": "0xed2e7e4c6d4f46bba6cb4ebd10a7f15664ba0f343931ce9d9ba595370325ff39",
          "transactionIndex": "0x78",
          "logIndex": "0x392",
          "removed": false
        }
      ],
      "logsBloom": "0x00000000000000000000040400000000008000000000000000000000000000000000000000000000000000000000000000000000000800000200000000000000000000000000000000000000000000000000000000000000000000000400002000080000020000000000000000000800000000000000200000000000000000000000008000040040000000000000000000000000000000000000021002000000000000000000000000000000800000000000000000000000000000002000000000000000000000080000000000000000000000000000000000000000000022000000000000000000000400000000000000000000000000000000000000000000",
      "type": "0x2",
      "transactionHash": "0xed2e7e4c6d4f46bba6cb4ebd10a7f15664ba0f343931ce9d9ba595370325ff39",
      "transactionIndex": "0x78",
      "blockHash": "0x5c6f4fde2ac8b03c64ac8d49ad09bd0c54d07a3e21eeebb84eb637bf28df02ce",
      "blockNumber": "0x26c0c86",
      "gasUsed": "0x21762",
      "effectiveGasPrice": "0xfecad",
      "blobGasUsed": "0xd403",
      "from": "0xf8cbf6437d2473ec59885299af38d9a13ce97eca",
      "to": "0x60163d6406503426e712ed6c507137229552756d",
      "contractAddress": null,
      "daFootprintGasScalar": "0x145",
      "l1BaseFeeScalar": "0x8dd",
      "l1BlobBaseFee": "0x1bf6d5",
      "l1BlobBaseFeeScalar": "0x101c12",
      "l1Fee": "0x1fb6d6e5",
      "l1GasPrice": "0x20ae485",
      "l1GasUsed": "0xa76"
    }
  ],
  "libraries": [],
  "pending": [],
  "returns": {},
  "timestamp": 1768060402289,
  "chain": 8453,
  "commit": "a2591e4"
}