{
  "transactions": [
    {
      "hash": "0x3fe03a7d069dc1787d62283e1448eca2852ccf515eaf63381ee0cb4e67908645",
      "transactionType": "CALL",
      "contractName": "YieldSeekerAdminTimelock",
      "contractAddress": "0x773541f7c38be8106ae966ca9d6fee494a0edd24",
      "function": "schedule(address,uint256,bytes,bytes32,bytes32,uint256)",
      "arguments": [
        "0x0021c1fdD50aA76Fb59AFE3fC3A38C02c257bDcA",
        "0",
        "0x9362149e000000000000000000000000be6d8f0d05cc4be24d5167a3ef062215be6d18a5000000000000000000000000840974f44d2738661703292ccf339c404a864ac4",
        "0x0000000000000000000000000000000000000000000000000000000000000000",
        "0xb90f26b483eee961dbc78842887cb135b6a43158daf73bee3e6e2be048b7d09f",
        "0"
      ],
      "transaction": {
        "from": "0xf8cbf6437d2473ec59885299af38d9a13ce97eca",
        "to": "0x773541f7c38be8106ae966ca9d6fee494a0edd24",
        "gas": "0x13289",
        "value": "0x0",
        "input": "0x01d5062a0000000000000000000000000021c1fdd50aa76fb59afe3fc3a38c02c257bdca000000000000000000000000000000000000000000000000000000000000000000000000000000000000000000000000000000000000000000000000000000c00000000000000000000000000000000000000000000000000000000000000000b90f26b483eee961dbc78842887cb135b6a43158daf73bee3e6e2be048b7d09f000000000000000000000000000000000000000000000000000000000000000000000000000000000000000000000000000000000000000000000000000000449362149e000000000000000000000000be6d8f0d05cc4be24d5167a3ef062215be6d18a5000000000000000000000000840974f44d2738661703292ccf339c404a864ac400000000000000000000000000000000000000000000000000000000",
        "nonce": "0x39",
        "chainId": "0x2105"
      },
      "additionalContracts": [],
      "isFixedGasLimit": false
    },
    {
      "hash": "0x7a8afeff3c9a366e665103c20426d382f64e4631b7a608817d303acc86595300",
      "transactionType": "CALL",
      "contractName": "YieldSeekerAdminTimelock",
      "contractAddress": "0x773541f7c38be8106ae966ca9d6fee494a0edd24",
      "function": "execute(address,uint256,bytes,bytes32,bytes32)",
      "arguments": [
        "0x0021c1fdD50aA76Fb59AFE3fC3A38C02c257bDcA",
        "0",
        "0x9362149e000000000000000000000000be6d8f0d05cc4be24d5167a3ef062215be6d18a5000000000000000000000000840974f44d2738661703292ccf339c404a864ac4",
        "0x0000000000000000000000000000000000000000000000000000000000000000",
        "0xb90f26b483eee961dbc78842887cb135b6a43158daf73bee3e6e2be048b7d09f"
      ],
      "transaction": {
        "from": "0xf8cbf6437d2473ec59885299af38d9a13ce97eca",
        "to": "0x773541f7c38be8106ae966ca9d6fee494a0edd24",
        "gas": "0x2ad3c",
        "value": "0x0",
        "input": "0x134008d30000000000000000000000000021c1fdd50aa76fb59afe3fc3a38c02c257bdca000000000000000000000000000000000000000000000000000000000000000000000000000000000000000000000000000000000000000000000000000000a00000000000000000000000000000000000000000000000000000000000000000b90f26b483eee961dbc78842887cb135b6a43158daf73bee3e6e2be048b7d09f00000000000000000000000000000000000000000000000000000000000000449362149e000000000000000000000000be6d8f0d05cc4be24d5167a3ef062215be6d18a5000000000000000000000000840974f44d2738661703292ccf339c404a864ac400000000000000000000000000000000000000000000000000000000",
        "nonce": "0x3a",
        "chainId": "0x2105"
      },
      "additionalContracts": [],
      "isFixedGasLimit": false
    }
  ],
  "receipts": [
    {
      "status": "0x1",
      "cumulativeGasUsed": "0x1935556",
      "logs": [
        {
          "address": "0x773541f7c38be8106ae966ca9d6fee494a0edd24",
          "topics": [
            "0x4cf4410cc57040e44862ef0f45f3dd5a5e02db8eb8add648d4b0e236f1d07dca",
            "0xb8221cba93d05a01a024527084e85680f4ba32e7fd4e390521844dab76772001",
            "0x0000000000000000000000000000000000000000000000000000000000000000"
          ],
          "data": "0x0000000000000000000000000021c1fdd50aa76fb59afe3fc3a38c02c257bdca000000000000000000000000000000000000000000000000000000000000000000000000000000000000000000000000000000000000000000000000000000a00000000000000000000000000000000000000000000000000000000000000000000000000000000000000000000000000000000000000000000000000000000000000000000000000000000000000000000000000000000000000000000000449362149e000000000000000000000000be6d8f0d05cc4be24d5167a3ef062215be6d18a5000000000000000000000000840974f44d2738661703292ccf339c404a864ac400000000000000000000000000000000000000000000000000000000",
          "blockHash": "0xe07eed7776e2da83680e3b8b210a8b8aa185fd7a8aa21a8617f16be2f967f423",
          "blockNumber": "0x2849e88",
          "blockTimestamp": "0x699399f3",
          "transactionHash": "0x7a8afeff3c9a366e665103c20426d382f64e4631b7a608817d303acc86595300",
          "transactionIndex": "0x45",
          "logIndex": "0x269",
          "removed": false
        },
        {
          "address": "0x773541f7c38be8106ae966ca9d6fee494a0edd24",
          "topics": [
            "0x20fda5fd27a1ea7bf5b9567f143ac5470bb059374a27e8f67cb44f946f6d0387",
            "0xb8221cba93d05a01a024527084e85680f4ba32e7fd4e390521844dab76772001"
          ],
          "data": "0xb90f26b483eee961dbc78842887cb135b6a43158daf73bee3e6e2be048b7d09f",
          "blockHash": "0xe07eed7776e2da83680e3b8b210a8b8aa185fd7a8aa21a8617f16be2f967f423",
          "blockNumber": "0x2849e88",
          "blockTimestamp": "0x699399f3",
          "transactionHash": "0x7a8afeff3c9a366e665103c20426d382f64e4631b7a608817d303acc86595300",
          "transactionIndex": "0x45",
          "logIndex": "0x26a",
          "removed": false
        }
      ],
      "logsBloom": "0x00000080000000000000000040000000000000000000000200000000000000000000000000000000000000000000000100000000800000000000000000000000000000000000000000800000000000000000000000000008000000000000000000000000020000000000020000000800000080000000000000000400000000000000000000000000000000000000000000000000000000000000000000000000000000000000000000000000000000000000000000000000000800000000000000000000000000000000000000000000000000000000400000000000000020000000000000000000000000000000000000000000000000000000000000000000",
      "type": "0x2",
      "transactionHash": "0x7a8afeff3c9a366e665103c20426d382f64e4631b7a608817d303acc86595300",
      "transactionIndex": "0x45",
      "blockHash": "0xe07eed7776e2da83680e3b8b210a8b8aa185fd7a8aa21a8617f16be2f967f423",
      "blockNumber": "0x2849e88",
      "gasUsed": "0xddee",
      "effectiveGasPrice": "0x43ab7a",
      "blobGasUsed": "0x5cd9",
      "from": "0xf8cbf6437d2473ec59885299af38d9a13ce97eca",
      "to": "0x773541f7c38be8106ae966ca9d6fee494a0edd24",
      "contractAddress": null,
      "daFootprintGasScalar": "0x8b",
      "l1BaseFeeScalar": "0x8dd",
      "l1BlobBaseFee": "0x1f5b67",
      "l1BlobBaseFeeScalar": "0x101c12",
      "l1Fee": "0x231f7714",
      "l1GasPrice": "0x213c219",
      "l1GasUsed": "0xab8"
    },
    {
      "status": "0x1",
      "cumulativeGasUsed": "0x19529e0",
      "logs": [
        {
          "address": "0x0021c1fdd50aa76fb59afe3fc3a38c02c257bdca",
          "topics": [
            "0x1cf35c87329e14a81fdc68af8a463c1db203ccfc925ff5150f5dbc71bc4c2372",
            "0x000000000000000000000000be6d8f0d05cc4be24d5167a3ef062215be6d18a5",
            "0x000000000000000000000000840974f44d2738661703292ccf339c404a864ac4"
          ],
          "data": "0x",
          "blockHash": "0xe07eed7776e2da83680e3b8b210a8b8aa185fd7a8aa21a8617f16be2f967f423",
          "blockNumber": "0x2849e88",
          "blockTimestamp": "0x699399f3",
          "transactionHash": "0x3fe03a7d069dc1787d62283e1448eca2852ccf515eaf63381ee0cb4e67908645",
          "transactionIndex": "0x46",
          "logIndex": "0x26b",
          "removed": false
        },
        {
          "address": "0x773541f7c38be8106ae966ca9d6fee494a0edd24",
          "topics": [
            "0xc2617efa69bab66782fa219543714338489c4e9e178271560a91b82c3f612b58",
            "0xb8221cba93d05a01a024527084e85680f4ba32e7fd4e390521844dab76772001",
            "0x0000000000000000000000000000000000000000000000000000000000000000"
          ],
          "data": "0x0000000000000000000000000021c1fdd50aa76fb59afe3fc3a38c02c257bdca0000000000000000000000000000000000000000000000000000000000000000000000000000000000000000000000000000000000000000000000000000006000000000000000000000000000000000000000000000000000000000000000449362149e000000000000000000000000be6d8f0d05cc4be24d5167a3ef062215be6d18a5000000000000000000000000840974f44d2738661703292ccf339c404a864ac400000000000000000000000000000000000000000000000000000000",
          "blockHash": "0xe07eed7776e2da83680e3b8b210a8b8aa185fd7a8aa21a8617f16be2f967f423",
          "blockNumber": "0x2849e88",
          "blockTimestamp": "0x699399f3",
          "transactionHash": "0x3fe03a7d069dc1787d62283e1448eca2852ccf515eaf63381ee0cb4e67908645",
          "transactionIndex": "0x46",
          "logIndex": "0x26c",
          "removed": false
        }
      ],
      "logsBloom": "0x00080080000000000000000000000000000000000000000200000000000000000000000000000000000000000000000100000000000800000200000000000000000000000000000000800000400000000000040000000000000000000000002000000000020000000000020000000800000000000000000000000400000080000000008000000000000000000000000000000004000000000000001000000000000000000000000000000000000000000000000000000000000800000000000000000000000000080000000080000000000000000000000000000000000020100000000000000000000000000000000000000000000000010000000000000000",
      "type": "0x2",
      "transactionHash": "0x3fe03a7d069dc1787d62283e1448eca2852ccf515eaf63381ee0cb4e67908645",
      "transactionIndex": "0x46",
      "blockHash": "0xe07eed7776e2da83680e3b8b210a8b8aa185fd7a8aa21a8617f16be2f967f423",
      "blockNumber": "0x2849e88",
      "gasUsed": "0x1d48a",
      "effectiveGasPrice": "0x43ab7a",
      "blobGasUsed": "0x5bc3",
      "from": "0xf8cbf6437d2473ec59885299af38d9a13ce97eca",
      "to": "0x773541f7c38be8106ae966ca9d6fee494a0edd24",
      "contractAddress": null,
      "daFootprintGasScalar": "0x8b",
      "l1BaseFeeScalar": "0x8dd",
      "l1BlobBaseFee": "0x1f5b67",
      "l1BlobBaseFeeScalar": "0x101c12",
      "l1Fee": "0x229bf0e2",
      "l1GasPrice": "0x213c219",
      "l1GasUsed": "0xa90"
    }
  ],
  "libraries": [],
  "pending": [],
  "returns": {},
  "timestamp": 1771280886722,
  "chain": 8453,
  "commit": "19e389e"
}
