{
  "transactions": [
    {
      "hash": "0x49b7cd2d9b4f1929278d72c81acd937ce1c925912c2cf9304b7631192b76eac7",
      "transactionType": "CALL",
      "contractName": null,
      "contractAddress": "0x8e074b7636f6a56097f1f719e708e2c932e23bab",
      "function": "schedule(address,uint256,bytes,bytes32,bytes32,uint256)",
      "arguments": [
        "0x4A5c3Cca0Ac2a1949D600891A89dd19B35189Cf0",
        "0",
        "0x9362149e000000000000000000000000beef0e0834849acc03f0089f01f4f1eeb06873c90000000000000000000000003bf2b1e1da1bd2c3d397e9df06b7f717c2f12ad7",
        "0x0000000000000000000000000000000000000000000000000000000000000000",
        "0xbaba48802b5520ffe204a03c222850bfdd3eb2efd60bcb3ac3b9cd9e7adcb752",
        "345600"
      ],
      "transaction": {
        "from": "0xd6768630e0b26eba52d52e75a5d21989aa750113",
        "to": "0x8e074b7636f6a56097f1f719e708e2c932e23bab",
        "gas": "0x144c6",
        "value": "0x0",
        "input": "0x01d5062a0000000000000000000000004a5c3cca0ac2a1949d600891a89dd19b35189cf0000000000000000000000000000000000000000000000000000000000000000000000000000000000000000000000000000000000000000000000000000000c00000000000000000000000000000000000000000000000000000000000000000baba48802b5520ffe204a03c222850bfdd3eb2efd60bcb3ac3b9cd9e7adcb752000000000000000000000000000000000000000000000000000000000005460000000000000000000000000000000000000000000000000000000000000000449362149e000000000000000000000000beef0e0834849acc03f0089f01f4f1eeb06873c90000000000000000000000003bf2b1e1da1bd2c3d397e9df06b7f717c2f12ad700000000000000000000000000000000000000000000000000000000",
        "nonce": "0x2",
        "chainId": "0x2105"
      },
      "additionalContracts": [],
      "isFixedGasLimit": false
    }
  ],
  "receipts": [
    {
      "type": "0x2",
      "status": "0x1",
      "cumulativeGasUsed": "0x8fc93e",
      "logs": [
        {
          "address": "0x8e074b7636f6a56097f1f719e708e2c932e23bab",
          "topics": [
            "0x4cf4410cc57040e44862ef0f45f3dd5a5e02db8eb8add648d4b0e236f1d07dca",
            "0xc9e62cee303a79b9b6e706e8e806b6dd5e433db3d6dd7f91f7f9c5ff9da042ef",
            "0x0000000000000000000000000000000000000000000000000000000000000000"
          ],
          "data": "0x0000000000000000000000004a5c3cca0ac2a1949d600891a89dd19b35189cf0000000000000000000000000000000000000000000000000000000000000000000000000000000000000000000000000000000000000000000000000000000a00000000000000000000000000000000000000000000000000000000000000000000000000000000000000000000000000000000000000000000000000005460000000000000000000000000000000000000000000000000000000000000000449362149e000000000000000000000000beef0e0834849acc03f0089f01f4f1eeb06873c90000000000000000000000003bf2b1e1da1bd2c3d397e9df06b7f717c2f12ad700000000000000000000000000000000000000000000000000000000",
          "blockHash": "0x2d38e4b29acedf4ff7720555b1646179b7cc7df827522d686f93f28f675391d6",
          "blockNumber": "0x2d8ac06",
          "blockTimestamp": "0x6a3bb4ef",
          "transactionHash": "0x49b7cd2d9b4f1929278d72c81acd937ce1c925912c2cf9304b7631192b76eac7",
          "transactionIndex": "0x1f",
          "logIndex": "0xd9",
          "removed": false
        },
        {
          "address": "0x8e074b7636f6a56097f1f719e708e2c932e23bab",
          "topics": [
            "0x20fda5fd27a1ea7bf5b9567f143ac5470bb059374a27e8f67cb44f946f6d0387",
            "0xc9e62cee303a79b9b6e706e8e806b6dd5e433db3d6dd7f91f7f9c5ff9da042ef"
          ],
          "data": "0xbaba48802b5520ffe204a03c222850bfdd3eb2efd60bcb3ac3b9cd9e7adcb752",
          "blockHash": "0x2d38e4b29acedf4ff7720555b1646179b7cc7df827522d686f93f28f675391d6",
          "blockNumber": "0x2d8ac06",
          "blockTimestamp": "0x6a3bb4ef",
          "transactionHash": "0x49b7cd2d9b4f1929278d72c81acd937ce1c925912c2cf9304b7631192b76eac7",
          "transactionIndex": "0x1f",
          "logIndex": "0xda",
          "removed": false
        }
      ],
      "logsBloom": "0x00010000000000000000000040000000000000000000000000000000000000000000000000021000000000000000000100000000800000000000000000000000000000000000000000000000000000000000000000000008000000000000000000000000020000000000000000000800000080000000000000000000000000000000000000000000000000000000000000000000000000000000000000000000000000000000000000000000000000000000000000000000000000000000000000000010000000000000000000000000000000000000400000000000000020000000000000000000000000000200000000000000000000000000000000800000",
      "transactionHash": "0x49b7cd2d9b4f1929278d72c81acd937ce1c925912c2cf9304b7631192b76eac7",
      "transactionIndex": "0x1f",
      "blockHash": "0x2d38e4b29acedf4ff7720555b1646179b7cc7df827522d686f93f28f675391d6",
      "blockNumber": "0x2d8ac06",
      "gasUsed": "0xde12",
      "effectiveGasPrice": "0x5b8d80",
      "blobGasUsed": "0x677c",
      "from": "0xd6768630e0b26eba52d52e75a5d21989aa750113",
      "to": "0x8e074b7636f6a56097f1f719e708e2c932e23bab",
      "contractAddress": null,
      "l1GasPrice": "0x9488e61",
      "l1GasUsed": "0xb31",
      "l1Fee": "0x8d281139",
      "l1BaseFeeScalar": "0x8dd",
      "l1BlobBaseFee": "0x6d668f",
      "l1BlobBaseFeeScalar": "0x101c12",
      "daFootprintGasScalar": "0x94"
    }
  ],
  "libraries": [],
  "pending": [],
  "returns": {},
  "timestamp": 1782297844072,
  "chain": 8453,
  "commit": "0e39ed8"
}