{
  "transactions": [
    {
      "hash": "0xbad1b8590b5bced9c6df2f156305f2195adf9b70c60b1a1b99125f984be05e54",
      "transactionType": "CALL",
      "contractName": null,
      "contractAddress": "0x8e074b7636f6a56097f1f719e708e2c932e23bab",
      "function": "schedule(address,uint256,bytes,bytes32,bytes32,uint256)",
      "arguments": [
        "0x4A5c3Cca0Ac2a1949D600891A89dd19B35189Cf0",
        "0",
        "0x9362149e000000000000000000000000882018411bc4a020a879cee183441fc9fa5d7f8b0000000000000000000000003bf2b1e1da1bd2c3d397e9df06b7f717c2f12ad7",
        "0x0000000000000000000000000000000000000000000000000000000000000000",
        "0xf3df14e8f54db246896359c6344ef25190392405a801e74fb9b507656ba67e89",
        "345600"
      ],
      "transaction": {
        "from": "0xd6768630e0b26eba52d52e75a5d21989aa750113",
        "to": "0x8e074b7636f6a56097f1f719e708e2c932e23bab",
        "gas": "0x144c6",
        "value": "0x0",
        "input": "0x01d5062a0000000000000000000000004a5c3cca0ac2a1949d600891a89dd19b35189cf0000000000000000000000000000000000000000000000000000000000000000000000000000000000000000000000000000000000000000000000000000000c00000000000000000000000000000000000000000000000000000000000000000f3df14e8f54db246896359c6344ef25190392405a801e74fb9b507656ba67e89000000000000000000000000000000000000000000000000000000000005460000000000000000000000000000000000000000000000000000000000000000449362149e000000000000000000000000882018411bc4a020a879cee183441fc9fa5d7f8b0000000000000000000000003bf2b1e1da1bd2c3d397e9df06b7f717c2f12ad700000000000000000000000000000000000000000000000000000000",
        "nonce": "0x1a",
        "chainId": "0x2105"
      },
      "additionalContracts": [],
      "isFixedGasLimit": false
    }
  ],
  "receipts": [
    {
      "type": "0x2",
      "status": "0x1",
      "cumulativeGasUsed": "0xa3654c",
      "logs": [
        {
          "address": "0x8e074b7636f6a56097f1f719e708e2c932e23bab",
          "topics": [
            "0x4cf4410cc57040e44862ef0f45f3dd5a5e02db8eb8add648d4b0e236f1d07dca",
            "0x944fbc84c4ca691880c7c2712669bbb6f96e11059f8674d1616a70b07b922291",
            "0x0000000000000000000000000000000000000000000000000000000000000000"
          ],
          "data": "0x0000000000000000000000004a5c3cca0ac2a1949d600891a89dd19b35189cf0000000000000000000000000000000000000000000000000000000000000000000000000000000000000000000000000000000000000000000000000000000a00000000000000000000000000000000000000000000000000000000000000000000000000000000000000000000000000000000000000000000000000005460000000000000000000000000000000000000000000000000000000000000000449362149e000000000000000000000000882018411bc4a020a879cee183441fc9fa5d7f8b0000000000000000000000003bf2b1e1da1bd2c3d397e9df06b7f717c2f12ad700000000000000000000000000000000000000000000000000000000",
          "blockHash": "0x1db4b62ad07271ee5b0e63a2979f6530527de91b9d7e0b7c8f9e775a9f95833b",
          "blockNumber": "0x2da0401",
          "blockTimestamp": "0x6a3e64e5",
          "transactionHash": "0xbad1b8590b5bced9c6df2f156305f2195adf9b70c60b1a1b99125f984be05e54",
          "transactionIndex": "0x37",
          "logIndex": "0x110",
          "removed": false
        },
        {
          "address": "0x8e074b7636f6a56097f1f719e708e2c932e23bab",
          "topics": [
            "0x20fda5fd27a1ea7bf5b9567f143ac5470bb059374a27e8f67cb44f946f6d0387",
            "0x944fbc84c4ca691880c7c2712669bbb6f96e11059f8674d1616a70b07b922291"
          ],
          "data": "0xf3df14e8f54db246896359c6344ef25190392405a801e74fb9b507656ba67e89",
          "blockHash": "0x1db4b62ad07271ee5b0e63a2979f6530527de91b9d7e0b7c8f9e775a9f95833b",
          "blockNumber": "0x2da0401",
          "blockTimestamp": "0x6a3e64e5",
          "transactionHash": "0xbad1b8590b5bced9c6df2f156305f2195adf9b70c60b1a1b99125f984be05e54",
          "transactionIndex": "0x37",
          "logIndex": "0x111",
          "removed": false
        }
      ],
      "logsBloom": "0x00000000000000000000000040000000000000000000000000000000000000000000000000001000000000000000000100000000800000000000000000000000000000000000000000000000000000000000000000000008000000000000000000010000020000000000000000000800000080000000000000000000000000000000000000000000000000000000000000000000000000000000000000000000000004000000000000000000000000000000040000000000000000000000000000000010000000000000000000000000000000000000400000000000000020000000000000000000000000000000000000000000000000000000000000800000",
      "transactionHash": "0xbad1b8590b5bced9c6df2f156305f2195adf9b70c60b1a1b99125f984be05e54",
      "transactionIndex": "0x37",
      "blockHash": "0x1db4b62ad07271ee5b0e63a2979f6530527de91b9d7e0b7c8f9e775a9f95833b",
      "blockNumber": "0x2da0401",
      "gasUsed": "0xde12",
      "effectiveGasPrice": "0x57bcef",
      "blobGasUsed": "0x677c",
      "from": "0xd6768630e0b26eba52d52e75a5d21989aa750113",
      "to": "0x8e074b7636f6a56097f1f719e708e2c932e23bab",
      "contractAddress": null,
      "l1GasPrice": "0x603a68f",
      "l1GasUsed": "0xb31",
      "l1Fee": "0x69dae9f2",
      "l1BaseFeeScalar": "0x8dd",
      "l1BlobBaseFee": "0x5a61bc",
      "l1BlobBaseFeeScalar": "0x101c12",
      "daFootprintGasScalar": "0x94"
    }
  ],
  "libraries": [],
  "pending": [],
  "returns": {},
  "timestamp": 1782473960522,
  "chain": 8453,
  "commit": "de5ca46"
}