{
  "transactions": [
    {
      "hash": "0xa32316c6a1736f8c2a0aba76747d8b1641f334a6fe43eb7be58d1a6ad52ba1f5",
      "transactionType": "CALL",
      "contractName": "YieldSeekerAdminTimelock",
      "contractAddress": "0x1070914586f291184ae8db6b58d78352d0c2ba06",
      "function": "schedule(address,uint256,bytes,bytes32,bytes32,uint256)",
      "arguments": [
        "0x9F0EE9EC60Cbc85fdd85859b57778fbF98aC9d81",
        "0",
        "0x9362149e0000000000000000000000000000000000001ff3684f28c67538d4d072c227340000000000000000000000002063e51fcfebe88b48b2a7a5e13d3b7a16d86821",
        "0x0000000000000000000000000000000000000000000000000000000000000000",
        "0x106e960fe6f25c8dd3fd5fb3a0a35990f7880d73ff33cef7e314a7cf573c8f4c",
        "0"
      ],
      "transaction": {
        "from": "0xce11d6fb4f1e006e5a348230449dc387fde850cc",
        "to": "0x1070914586f291184ae8db6b58d78352d0c2ba06",
        "gas": "0x1443a",
        "value": "0x0",
        "input": "0x01d5062a0000000000000000000000009f0ee9ec60cbc85fdd85859b57778fbf98ac9d81000000000000000000000000000000000000000000000000000000000000000000000000000000000000000000000000000000000000000000000000000000c00000000000000000000000000000000000000000000000000000000000000000106e960fe6f25c8dd3fd5fb3a0a35990f7880d73ff33cef7e314a7cf573c8f4c000000000000000000000000000000000000000000000000000000000000000000000000000000000000000000000000000000000000000000000000000000449362149e0000000000000000000000000000000000001ff3684f28c67538d4d072c227340000000000000000000000002063e51fcfebe88b48b2a7a5e13d3b7a16d8682100000000000000000000000000000000000000000000000000000000",
        "nonce": "0x80",
        "chainId": "0x2105"
      },
      "additionalContracts": [],
      "isFixedGasLimit": false
    },
    {
      "hash": "0xbaa231c49590de36b3ec9fe26b0b2b88199f6cdb81a947c8a2755fedf1763e3b",
      "transactionType": "CALL",
      "contractName": "YieldSeekerAdminTimelock",
      "contractAddress": "0x1070914586f291184ae8db6b58d78352d0c2ba06",
      "function": "execute(address,uint256,bytes,bytes32,bytes32)",
      "arguments": [
        "0x9F0EE9EC60Cbc85fdd85859b57778fbF98aC9d81",
        "0",
        "0x9362149e0000000000000000000000000000000000001ff3684f28c67538d4d072c227340000000000000000000000002063e51fcfebe88b48b2a7a5e13d3b7a16d86821",
        "0x0000000000000000000000000000000000000000000000000000000000000000",
        "0x106e960fe6f25c8dd3fd5fb3a0a35990f7880d73ff33cef7e314a7cf573c8f4c"
      ],
      "transaction": {
        "from": "0xce11d6fb4f1e006e5a348230449dc387fde850cc",
        "to": "0x1070914586f291184ae8db6b58d78352d0c2ba06",
        "gas": "0x286d7",
        "value": "0x0",
        "input": "0x134008d30000000000000000000000009f0ee9ec60cbc85fdd85859b57778fbf98ac9d81000000000000000000000000000000000000000000000000000000000000000000000000000000000000000000000000000000000000000000000000000000a00000000000000000000000000000000000000000000000000000000000000000106e960fe6f25c8dd3fd5fb3a0a35990f7880d73ff33cef7e314a7cf573c8f4c00000000000000000000000000000000000000000000000000000000000000449362149e0000000000000000000000000000000000001ff3684f28c67538d4d072c227340000000000000000000000002063e51fcfebe88b48b2a7a5e13d3b7a16d8682100000000000000000000000000000000000000000000000000000000",
        "nonce": "0x81",
        "chainId": "0x2105"
      },
      "additionalContracts": [],
      "isFixedGasLimit": false
    }
  ],
  "receipts": [
    {
      "status": "0x1",
      "cumulativeGasUsed": "0x15a0252",
      "logs": [
        {
          "address": "0x1070914586f291184ae8db6b58d78352d0c2ba06",
          "topics": [
            "0x4cf4410cc57040e44862ef0f45f3dd5a5e02db8eb8add648d4b0e236f1d07dca",
            "0xb9211f52ce291c8d389814df862de7c81b77965e9d1e4d6cdd2e906f2a09e4a6",
            "0x0000000000000000000000000000000000000000000000000000000000000000"
          ],
          "data": "0x0000000000000000000000009f0ee9ec60cbc85fdd85859b57778fbf98ac9d81000000000000000000000000000000000000000000000000000000000000000000000000000000000000000000000000000000000000000000000000000000a00000000000000000000000000000000000000000000000000000000000000000000000000000000000000000000000000000000000000000000000000000000000000000000000000000000000000000000000000000000000000000000000449362149e0000000000000000000000000000000000001ff3684f28c67538d4d072c227340000000000000000000000002063e51fcfebe88b48b2a7a5e13d3b7a16d8682100000000000000000000000000000000000000000000000000000000",
          "blockHash": "0x57f7b0e8834eed03f3d6fdda90a7c30e6fb21e81cec0d19ad1d848ab99d76161",
          "blockNumber": "0x266be7d",
          "blockTimestamp": "0x6957d9dd",
          "transactionHash": "0xa32316c6a1736f8c2a0aba76747d8b1641f334a6fe43eb7be58d1a6ad52ba1f5",
          "transactionIndex": "0x59",
          "logIndex": "0x23f",
          "removed": false
        },
        {
          "address": "0x1070914586f291184ae8db6b58d78352d0c2ba06",
          "topics": [
            "0x20fda5fd27a1ea7bf5b9567f143ac5470bb059374a27e8f67cb44f946f6d0387",
            "0xb9211f52ce291c8d389814df862de7c81b77965e9d1e4d6cdd2e906f2a09e4a6"
          ],
          "data": "0x106e960fe6f25c8dd3fd5fb3a0a35990f7880d73ff33cef7e314a7cf573c8f4c",
          "blockHash": "0x57f7b0e8834eed03f3d6fdda90a7c30e6fb21e81cec0d19ad1d848ab99d76161",
          "blockNumber": "0x266be7d",
          "blockTimestamp": "0x6957d9dd",
          "transactionHash": "0xa32316c6a1736f8c2a0aba76747d8b1641f334a6fe43eb7be58d1a6ad52ba1f5",
          "transactionIndex": "0x59",
          "logIndex": "0x240",
          "removed": false
        }
      ],
      "logsBloom": "0x00000000000000000000000040000000000000000000000000000000000000000000000000000000000000000400000100000000800000400000000000000000000000000000000000000000000000000000000000000008000000000000000000000000020000000000000000000c00000081000000000000000000000000000000000000000000000000040000000000000000000000000000000000000000000000000000000000000000000000000000000000000000000000000000000000000000000000000000000000000000000000000000400040000000000020000000000000000000000000000000000000000000000000000000000000000000",
      "type": "0x2",
      "transactionHash": "0xa32316c6a1736f8c2a0aba76747d8b1641f334a6fe43eb7be58d1a6ad52ba1f5",
      "transactionIndex": "0x59",
      "blockHash": "0x57f7b0e8834eed03f3d6fdda90a7c30e6fb21e81cec0d19ad1d848ab99d76161",
      "blockNumber": "0x266be7d",
      "gasUsed": "0xddb2",
      "effectiveGasPrice": "0x882445",
      "blobGasUsed": "0xd68d",
      "from": "0xce11d6fb4f1e006e5a348230449dc387fde850cc",
      "to": "0x1070914586f291184ae8db6b58d78352d0c2ba06",
      "contractAddress": null,
      "daFootprintGasScalar": "0x145",
      "l1BaseFeeScalar": "0x8dd",
      "l1BlobBaseFee": "0xa378db",
      "l1BlobBaseFeeScalar": "0x101c12",
      "l1Fee": "0xac5a1f1a",
      "l1GasPrice": "0x983648c",
      "l1GasUsed": "0xa90"
    },
    {
      "status": "0x1",
      "cumulativeGasUsed": "0x15bd6a0",
      "logs": [
        {
          "address": "0x9f0ee9ec60cbc85fdd85859b57778fbf98ac9d81",
          "topics": [
            "0x1cf35c87329e14a81fdc68af8a463c1db203ccfc925ff5150f5dbc71bc4c2372",
            "0x0000000000000000000000000000000000001ff3684f28c67538d4d072c22734",
            "0x0000000000000000000000002063e51fcfebe88b48b2a7a5e13d3b7a16d86821"
          ],
          "data": "0x",
          "blockHash": "0x57f7b0e8834eed03f3d6fdda90a7c30e6fb21e81cec0d19ad1d848ab99d76161",
          "blockNumber": "0x266be7d",
          "blockTimestamp": "0x6957d9dd",
          "transactionHash": "0xbaa231c49590de36b3ec9fe26b0b2b88199f6cdb81a947c8a2755fedf1763e3b",
          "transactionIndex": "0x5a",
          "logIndex": "0x241",
          "removed": false
        },
        {
          "address": "0x1070914586f291184ae8db6b58d78352d0c2ba06",
          "topics": [
            "0xc2617efa69bab66782fa219543714338489c4e9e178271560a91b82c3f612b58",
            "0xb9211f52ce291c8d389814df862de7c81b77965e9d1e4d6cdd2e906f2a09e4a6",
            "0x0000000000000000000000000000000000000000000000000000000000000000"
          ],
          "data": "0x0000000000000000000000009f0ee9ec60cbc85fdd85859b57778fbf98ac9d810000000000000000000000000000000000000000000000000000000000000000000000000000000000000000000000000000000000000000000000000000006000000000000000000000000000000000000000000000000000000000000000449362149e0000000000000000000000000000000000001ff3684f28c67538d4d072c227340000000000000000000000002063e51fcfebe88b48b2a7a5e13d3b7a16d8682100000000000000000000000000000000000000000000000000000000",
          "blockHash": "0x57f7b0e8834eed03f3d6fdda90a7c30e6fb21e81cec0d19ad1d848ab99d76161",
          "blockNumber": "0x266be7d",
          "blockTimestamp": "0x6957d9dd",
          "transactionHash": "0xbaa231c49590de36b3ec9fe26b0b2b88199f6cdb81a947c8a2755fedf1763e3b",
          "transactionIndex": "0x5a",
          "logIndex": "0x242",
          "removed": false
        }
      ],
      "logsBloom": "0x00000000000000000000000000000000000000000000000000000000000000000000000000000000000000000400000000000000000800400200000000000000000000000000000000000000000000000000000000000000004000000000002000000000020000400000000008000c00000001800000000000000002000000000000008000000000000000040000002000000000000000000000001000000000000000000000000000000000000000000000000000000000000000000000000000000008000000080000000000000000000000000000000040000000000020000000000000008000000400000000000000000000000000000000000000000000",
      "type": "0x2",
      "transactionHash": "0xbaa231c49590de36b3ec9fe26b0b2b88199f6cdb81a947c8a2755fedf1763e3b",
      "transactionIndex": "0x5a",
      "blockHash": "0x57f7b0e8834eed03f3d6fdda90a7c30e6fb21e81cec0d19ad1d848ab99d76161",
      "blockNumber": "0x266be7d",
      "gasUsed": "0x1d44e",
      "effectiveGasPrice": "0x882445",
      "blobGasUsed": "0xd2be",
      "from": "0xce11d6fb4f1e006e5a348230449dc387fde850cc",
      "to": "0x1070914586f291184ae8db6b58d78352d0c2ba06",
      "contractAddress": null,
      "daFootprintGasScalar": "0x145",
      "l1BaseFeeScalar": "0x8dd",
      "l1BlobBaseFee": "0xa378db",
      "l1BlobBaseFeeScalar": "0x101c12",
      "l1Fee": "0xa9cb22fc",
      "l1GasPrice": "0x983648c",
      "l1GasUsed": "0xa68"
    }
  ],
  "libraries": [],
  "pending": [],
  "returns": {},
  "timestamp": 1767365089388,
  "chain": 8453,
  "commit": "bd89ccd"
}