{
  "transactions": [
    {
      "hash": "0x944034e6ebb2ed917b13cb52aec353052ca308727f69dd2d2cc38c7ef020a2fb",
      "transactionType": "CALL",
      "contractName": null,
      "contractAddress": "0x8e074b7636f6a56097f1f719e708e2c932e23bab",
      "function": "schedule(address,uint256,bytes,bytes32,bytes32,uint256)",
      "arguments": [
        "0x4A5c3Cca0Ac2a1949D600891A89dd19B35189Cf0",
        "0",
        "0x9362149e000000000000000000000000e34d43ca9152d198b60654868c8cd197196a492f0000000000000000000000003bf2b1e1da1bd2c3d397e9df06b7f717c2f12ad7",
        "0x0000000000000000000000000000000000000000000000000000000000000000",
        "0x267abd30ed77712c524c2ed16d35590de729f5e7a98f6129b4afd1edb23b855a",
        "345600"
      ],
      "transaction": {
        "from": "0xd6768630e0b26eba52d52e75a5d21989aa750113",
        "to": "0x8e074b7636f6a56097f1f719e708e2c932e23bab",
        "gas": "0x144c6",
        "value": "0x0",
        "input": "0x01d5062a0000000000000000000000004a5c3cca0ac2a1949d600891a89dd19b35189cf0000000000000000000000000000000000000000000000000000000000000000000000000000000000000000000000000000000000000000000000000000000c00000000000000000000000000000000000000000000000000000000000000000267abd30ed77712c524c2ed16d35590de729f5e7a98f6129b4afd1edb23b855a000000000000000000000000000000000000000000000000000000000005460000000000000000000000000000000000000000000000000000000000000000449362149e000000000000000000000000e34d43ca9152d198b60654868c8cd197196a492f0000000000000000000000003bf2b1e1da1bd2c3d397e9df06b7f717c2f12ad700000000000000000000000000000000000000000000000000000000",
        "nonce": "0x8",
        "chainId": "0x2105"
      },
      "additionalContracts": [],
      "isFixedGasLimit": false
    }
  ],
  "receipts": [
    {
      "type": "0x2",
      "status": "0x1",
      "cumulativeGasUsed": "0xcaafcb",
      "logs": [
        {
          "address": "0x8e074b7636f6a56097f1f719e708e2c932e23bab",
          "topics": [
            "0x4cf4410cc57040e44862ef0f45f3dd5a5e02db8eb8add648d4b0e236f1d07dca",
            "0x085930f6606281f963f20a55684ba92a372c867b10bf99ef0713c1f7bb7ebd3b",
            "0x0000000000000000000000000000000000000000000000000000000000000000"
          ],
          "data": "0x0000000000000000000000004a5c3cca0ac2a1949d600891a89dd19b35189cf0000000000000000000000000000000000000000000000000000000000000000000000000000000000000000000000000000000000000000000000000000000a00000000000000000000000000000000000000000000000000000000000000000000000000000000000000000000000000000000000000000000000000005460000000000000000000000000000000000000000000000000000000000000000449362149e000000000000000000000000e34d43ca9152d198b60654868c8cd197196a492f0000000000000000000000003bf2b1e1da1bd2c3d397e9df06b7f717c2f12ad700000000000000000000000000000000000000000000000000000000",
          "blockHash": "0x290f29eee5714ee52156f30f7e6b7da6a07d6d820bafe8bf62fee82e838976d4",
          "blockNumber": "0x2d8ac64",
          "blockTimestamp": "0x6a3bb5ab",
          "transactionHash": "0x944034e6ebb2ed917b13cb52aec353052ca308727f69dd2d2cc38c7ef020a2fb",
          "transactionIndex": "0x38",
          "logIndex": "0x186",
          "removed": false
        },
        {
          "address": "0x8e074b7636f6a56097f1f719e708e2c932e23bab",
          "topics": [
            "0x20fda5fd27a1ea7bf5b9567f143ac5470bb059374a27e8f67cb44f946f6d0387",
            "0x085930f6606281f963f20a55684ba92a372c867b10bf99ef0713c1f7bb7ebd3b"
          ],
          "data": "0x267abd30ed77712c524c2ed16d35590de729f5e7a98f6129b4afd1edb23b855a",
          "blockHash": "0x290f29eee5714ee52156f30f7e6b7da6a07d6d820bafe8bf62fee82e838976d4",
          "blockNumber": "0x2d8ac64",
          "blockTimestamp": "0x6a3bb5ab",
          "transactionHash": "0x944034e6ebb2ed917b13cb52aec353052ca308727f69dd2d2cc38c7ef020a2fb",
          "transactionIndex": "0x38",
          "logIndex": "0x187",
          "removed": false
        }
      ],
      "logsBloom": "0x00000000000000000000000040000000000000000000000000000000000002000000000000001000000000000000000100000000800000000000000000000000000000000000000000000000000000000000000000000008000000000000000001000000020000000000000000000800000080000000000000000000000000000000000000000000000000000000000000000000000000000000000000000000000000000000000000000000000000000000000000000000000000000000000000000090000000000000000000000000000000000000400000000000000020000000000000000000000000000000000000000000000000000000000000800000",
      "transactionHash": "0x944034e6ebb2ed917b13cb52aec353052ca308727f69dd2d2cc38c7ef020a2fb",
      "transactionIndex": "0x38",
      "blockHash": "0x290f29eee5714ee52156f30f7e6b7da6a07d6d820bafe8bf62fee82e838976d4",
      "blockNumber": "0x2d8ac64",
      "gasUsed": "0xde12",
      "effectiveGasPrice": "0x5b8d80",
      "blobGasUsed": "0x677c",
      "from": "0xd6768630e0b26eba52d52e75a5d21989aa750113",
      "to": "0x8e074b7636f6a56097f1f719e708e2c932e23bab",
      "contractAddress": null,
      "l1GasPrice": "0x8f0b553",
      "l1GasUsed": "0xb31",
      "l1Fee": "0xa37e36c8",
      "l1BaseFeeScalar": "0x8dd",
      "l1BlobBaseFee": "0x8eaa19",
      "l1BlobBaseFeeScalar": "0x101c12",
      "daFootprintGasScalar": "0x94"
    }
  ],
  "libraries": [],
  "pending": [],
  "returns": {},
  "timestamp": 1782298030485,
  "chain": 8453,
  "commit": "0e39ed8"
}