{
  "transactions": [
    {
      "hash": "0x4f4b23c2085b450b96c2653a38d5771fa50b6ebbba4ac03c72ff82dc74223b34",
      "transactionType": "CALL",
      "contractName": "YieldSeekerAdminTimelock",
      "contractAddress": "0x60163d6406503426e712ed6c507137229552756d",
      "function": "schedule(address,uint256,bytes,bytes32,bytes32,uint256)",
      "arguments": [
        "0x81f17748B0abE955790346B904f6B78E67594ed0",
        "0",
        "0x9362149e0000000000000000000000003ef3d8ba38ebe18db133cec108f4d14ce00dd9ae000000000000000000000000d28d02f82a1d735c973b5b24c30ed7a56839fb96",
        "0x0000000000000000000000000000000000000000000000000000000000000000",
        "0xf40ea70e8b267ddf44cf8164bf10b31ef8b9577d5cc52072991434c3e0739dff",
        "0"
      ],
      "transaction": {
        "from": "0xf8cbf6437d2473ec59885299af38d9a13ce97eca",
        "to": "0x60163d6406503426e712ed6c507137229552756d",
        "gas": "0x144a3",
        "value": "0x0",
        "input": "0x01d5062a00000000000000000000000081f17748b0abe955790346b904f6b78e67594ed0000000000000000000000000000000000000000000000000000000000000000000000000000000000000000000000000000000000000000000000000000000c00000000000000000000000000000000000000000000000000000000000000000f40ea70e8b267ddf44cf8164bf10b31ef8b9577d5cc52072991434c3e0739dff000000000000000000000000000000000000000000000000000000000000000000000000000000000000000000000000000000000000000000000000000000449362149e0000000000000000000000003ef3d8ba38ebe18db133cec108f4d14ce00dd9ae000000000000000000000000d28d02f82a1d735c973b5b24c30ed7a56839fb9600000000000000000000000000000000000000000000000000000000",
        "nonce": "0xe",
        "chainId": "0x2105"
      },
      "additionalContracts": [],
      "isFixedGasLimit": false
    },
    {
      "hash": "0xf525de205fe55db277fe0fe51eb58bb2fd6ff5472d14463511a8864a4531b301",
      "transactionType": "CALL",
      "contractName": "YieldSeekerAdminTimelock",
      "contractAddress": "0x60163d6406503426e712ed6c507137229552756d",
      "function": "execute(address,uint256,bytes,bytes32,bytes32)",
      "arguments": [
        "0x81f17748B0abE955790346B904f6B78E67594ed0",
        "0",
        "0x9362149e0000000000000000000000003ef3d8ba38ebe18db133cec108f4d14ce00dd9ae000000000000000000000000d28d02f82a1d735c973b5b24c30ed7a56839fb96",
        "0x0000000000000000000000000000000000000000000000000000000000000000",
        "0xf40ea70e8b267ddf44cf8164bf10b31ef8b9577d5cc52072991434c3e0739dff"
      ],
      "transaction": {
        "from": "0xf8cbf6437d2473ec59885299af38d9a13ce97eca",
        "to": "0x60163d6406503426e712ed6c507137229552756d",
        "gas": "0x2873b",
        "value": "0x0",
        "input": "0x134008d300000000000000000000000081f17748b0abe955790346b904f6b78e67594ed0000000000000000000000000000000000000000000000000000000000000000000000000000000000000000000000000000000000000000000000000000000a00000000000000000000000000000000000000000000000000000000000000000f40ea70e8b267ddf44cf8164bf10b31ef8b9577d5cc52072991434c3e0739dff00000000000000000000000000000000000000000000000000000000000000449362149e0000000000000000000000003ef3d8ba38ebe18db133cec108f4d14ce00dd9ae000000000000000000000000d28d02f82a1d735c973b5b24c30ed7a56839fb9600000000000000000000000000000000000000000000000000000000",
        "nonce": "0xf",
        "chainId": "0x2105"
      },
      "additionalContracts": [],
      "isFixedGasLimit": false
    }
  ],
  "receipts": [
    {
      "status": "0x1",
      "cumulativeGasUsed": "0x2a50751",
      "logs": [
        {
          "address": "0x60163d6406503426e712ed6c507137229552756d",
          "topics": [
            "0x4cf4410cc57040e44862ef0f45f3dd5a5e02db8eb8add648d4b0e236f1d07dca",
            "0x9a15f6aef8a3b9dfcb3ba34dd7fff284e2f83aaa4a19c6d3b26a2408b0fe562e",
            "0x0000000000000000000000000000000000000000000000000000000000000000"
          ],
          "data": "0x00000000000000000000000081f17748b0abe955790346b904f6b78e67594ed0000000000000000000000000000000000000000000000000000000000000000000000000000000000000000000000000000000000000000000000000000000a00000000000000000000000000000000000000000000000000000000000000000000000000000000000000000000000000000000000000000000000000000000000000000000000000000000000000000000000000000000000000000000000449362149e0000000000000000000000003ef3d8ba38ebe18db133cec108f4d14ce00dd9ae000000000000000000000000d28d02f82a1d735c973b5b24c30ed7a56839fb9600000000000000000000000000000000000000000000000000000000",
          "blockHash": "0x8b73fb9cb4c0b1b4904539e24410872767a62308b57594d91ab775567191c380",
          "blockNumber": "0x26c0cd7",
          "blockTimestamp": "0x69627691",
          "transactionHash": "0x4f4b23c2085b450b96c2653a38d5771fa50b6ebbba4ac03c72ff82dc74223b34",
          "transactionIndex": "0x57",
          "logIndex": "0x567",
          "removed": false
        },
        {
          "address": "0x60163d6406503426e712ed6c507137229552756d",
          "topics": [
            "0x20fda5fd27a1ea7bf5b9567f143ac5470bb059374a27e8f67cb44f946f6d0387",
            "0x9a15f6aef8a3b9dfcb3ba34dd7fff284e2f83aaa4a19c6d3b26a2408b0fe562e"
          ],
          "data": "0xf40ea70e8b267ddf44cf8164bf10b31ef8b9577d5cc52072991434c3e0739dff",
          "blockHash": "0x8b73fb9cb4c0b1b4904539e24410872767a62308b57594d91ab775567191c380",
          "blockNumber": "0x26c0cd7",
          "blockTimestamp": "0x69627691",
          "transactionHash": "0x4f4b23c2085b450b96c2653a38d5771fa50b6ebbba4ac03c72ff82dc74223b34",
          "transactionIndex": "0x57",
          "logIndex": "0x568",
          "removed": false
        }
      ],
      "logsBloom": "0x00000000000000000000000040000000000000000000000000000000000000000000000000000000000000000000000100000000800080000000000000000000000000000000000000000000000000000000000000000008000000000000000000080000020000000000000000000800000080000000000000000000000000000000000000040040000000000000000000000001000000000080000000000000000000000000000000000000000000000000000000000000000000000000000000000000000000000000000000000000000000000000400000000000000020000000000000000000000000000000000000000000000000000000000000000000",
      "type": "0x2",
      "transactionHash": "0x4f4b23c2085b450b96c2653a38d5771fa50b6ebbba4ac03c72ff82dc74223b34",
      "transactionIndex": "0x57",
      "blockHash": "0x8b73fb9cb4c0b1b4904539e24410872767a62308b57594d91ab775567191c380",
      "blockNumber": "0x26c0cd7",
      "gasUsed": "0xddfa",
      "effectiveGasPrice": "0xfe465",
      "blobGasUsed": "0xd68d",
      "from": "0xf8cbf6437d2473ec59885299af38d9a13ce97eca",
      "to": "0x60163d6406503426e712ed6c507137229552756d",
      "contractAddress": null,
      "daFootprintGasScalar": "0x145",
      "l1BaseFeeScalar": "0x8dd",
      "l1BlobBaseFee": "0x1e05ec",
      "l1BlobBaseFeeScalar": "0x101c12",
      "l1Fee": "0x22c4f0ce",
      "l1GasPrice": "0x23a16ca",
      "l1GasUsed": "0xa9e"
    },
    {
      "status": "0x1",
      "cumulativeGasUsed": "0x2bb19a1",
      "logs": [
        {
          "address": "0x81f17748b0abe955790346b904f6b78e67594ed0",
          "topics": [
            "0x1cf35c87329e14a81fdc68af8a463c1db203ccfc925ff5150f5dbc71bc4c2372",
            "0x0000000000000000000000003ef3d8ba38ebe18db133cec108f4d14ce00dd9ae",
            "0x000000000000000000000000d28d02f82a1d735c973b5b24c30ed7a56839fb96"
          ],
          "data": "0x",
          "blockHash": "0x8b73fb9cb4c0b1b4904539e24410872767a62308b57594d91ab775567191c380",
          "blockNumber": "0x26c0cd7",
          "blockTimestamp": "0x69627691",
          "transactionHash": "0xf525de205fe55db277fe0fe51eb58bb2fd6ff5472d14463511a8864a4531b301",
          "transactionIndex": "0x63",
          "logIndex": "0x58c",
          "removed": false
        },
        {
          "address": "0x60163d6406503426e712ed6c507137229552756d",
          "topics": [
            "0xc2617efa69bab66782fa219543714338489c4e9e178271560a91b82c3f612b58",
            "0x9a15f6aef8a3b9dfcb3ba34dd7fff284e2f83aaa4a19c6d3b26a2408b0fe562e",
            "0x0000000000000000000000000000000000000000000000000000000000000000"
          ],
          "data": "0x00000000000000000000000081f17748b0abe955790346b904f6b78e67594ed00000000000000000000000000000000000000000000000000000000000000000000000000000000000000000000000000000000000000000000000000000006000000000000000000000000000000000000000000000000000000000000000449362149e0000000000000000000000003ef3d8ba38ebe18db133cec108f4d14ce00dd9ae000000000000000000000000d28d02f82a1d735c973b5b24c30ed7a56839fb9600000000000000000000000000000000000000000000000000000000",
          "blockHash": "0x8b73fb9cb4c0b1b4904539e24410872767a62308b57594d91ab775567191c380",
          "blockNumber": "0x26c0cd7",
          "blockTimestamp": "0x69627691",
          "transactionHash": "0xf525de205fe55db277fe0fe51eb58bb2fd6ff5472d14463511a8864a4531b301",
          "transactionIndex": "0x63",
          "logIndex": "0x58d",
          "removed": false
        }
      ],
      "logsBloom": "0x40000000000000000000000402000000000000000000000000000000000000000000000000000000000000000000000000000000000880000200000000000000000000000000000000000011000000000000000000000000000000000400002000080000020000000000000000000804000000000000000000000000000000000000008000040040000000000000000000000001000000000080001000000000000000000000000000000000000000000000000000000000000000000000000000000000100000080000000000000000000000000000000000000000000020000000000000000000000000000000000000000000000000000000000000000000",
      "type": "0x2",
      "transactionHash": "0xf525de205fe55db277fe0fe51eb58bb2fd6ff5472d14463511a8864a4531b301",
      "transactionIndex": "0x63",
      "blockHash": "0x8b73fb9cb4c0b1b4904539e24410872767a62308b57594d91ab775567191c380",
      "blockNumber": "0x26c0cd7",
      "gasUsed": "0x1d496",
      "effectiveGasPrice": "0xfe465",
      "blobGasUsed": "0xd403",
      "from": "0xf8cbf6437d2473ec59885299af38d9a13ce97eca",
      "to": "0x60163d6406503426e712ed6c507137229552756d",
      "contractAddress": null,
      "daFootprintGasScalar": "0x145",
      "l1BaseFeeScalar": "0x8dd",
      "l1BlobBaseFee": "0x1e05ec",
      "l1BlobBaseFeeScalar": "0x101c12",
      "l1Fee": "0x2241755b",
      "l1GasPrice": "0x23a16ca",
      "l1GasUsed": "0xa76"
    }
  ],
  "libraries": [],
  "pending": [],
  "returns": {},
  "timestamp": 1768060564934,
  "chain": 8453,
  "commit": "a2591e4"
}