{
  "transactions": [
    {
      "hash": "0x541622c7242393e7303ed909514df704799dd3a12c9ff36d2282f402de675a10",
      "transactionType": "CALL",
      "contractName": null,
      "contractAddress": "0x8e074b7636f6a56097f1f719e708e2c932e23bab",
      "function": "schedule(address,uint256,bytes,bytes32,bytes32,uint256)",
      "arguments": [
        "0x4A5c3Cca0Ac2a1949D600891A89dd19B35189Cf0",
        "0",
        "0x9362149e00000000000000000000000036aeae0e411a1e28372e0d66f02e57744ebe75990000000000000000000000003bf2b1e1da1bd2c3d397e9df06b7f717c2f12ad7",
        "0x7ac5d88a13cd2acf506ab335af9f46af373b9527f040efc590ac456670847bff",
        "0x179a94d632e8dca4d7da7aef47ed769684153fa1f8c359f1fdc5189b4f82b435",
        "345600"
      ],
      "transaction": {
        "from": "0xf8cbf6437d2473ec59885299af38d9a13ce97eca",
        "to": "0x8e074b7636f6a56097f1f719e708e2c932e23bab",
        "gas": "0x146f8",
        "value": "0x0",
        "input": "0x01d5062a0000000000000000000000004a5c3cca0ac2a1949d600891a89dd19b35189cf0000000000000000000000000000000000000000000000000000000000000000000000000000000000000000000000000000000000000000000000000000000c07ac5d88a13cd2acf506ab335af9f46af373b9527f040efc590ac456670847bff179a94d632e8dca4d7da7aef47ed769684153fa1f8c359f1fdc5189b4f82b435000000000000000000000000000000000000000000000000000000000005460000000000000000000000000000000000000000000000000000000000000000449362149e00000000000000000000000036aeae0e411a1e28372e0d66f02e57744ebe75990000000000000000000000003bf2b1e1da1bd2c3d397e9df06b7f717c2f12ad700000000000000000000000000000000000000000000000000000000",
        "nonce": "0x66",
        "chainId": "0x2105"
      },
      "additionalContracts": [],
      "isFixedGasLimit": false
    }
  ],
  "receipts": [
    {
      "status": "0x1",
      "cumulativeGasUsed": "0x21a0054",
      "logs": [
        {
          "address": "0x8e074b7636f6a56097f1f719e708e2c932e23bab",
          "topics": [
            "0x4cf4410cc57040e44862ef0f45f3dd5a5e02db8eb8add648d4b0e236f1d07dca",
            "0x9312c1c969d38554525a072273b027cd7ecadf893a0a9b638b246ff85bf09917",
            "0x0000000000000000000000000000000000000000000000000000000000000000"
          ],
          "data": "0x0000000000000000000000004a5c3cca0ac2a1949d600891a89dd19b35189cf0000000000000000000000000000000000000000000000000000000000000000000000000000000000000000000000000000000000000000000000000000000a07ac5d88a13cd2acf506ab335af9f46af373b9527f040efc590ac456670847bff000000000000000000000000000000000000000000000000000000000005460000000000000000000000000000000000000000000000000000000000000000449362149e00000000000000000000000036aeae0e411a1e28372e0d66f02e57744ebe75990000000000000000000000003bf2b1e1da1bd2c3d397e9df06b7f717c2f12ad700000000000000000000000000000000000000000000000000000000",
          "blockHash": "0x71975c7e0426823235468692bc14c32f7d6eb4a4d42fdd8bf156a2c7b223b28f",
          "blockNumber": "0x296ec64",
          "blockTimestamp": "0x69b835ab",
          "transactionHash": "0x541622c7242393e7303ed909514df704799dd3a12c9ff36d2282f402de675a10",
          "transactionIndex": "0xa5",
          "logIndex": "0x343",
          "removed": false
        },
        {
          "address": "0x8e074b7636f6a56097f1f719e708e2c932e23bab",
          "topics": [
            "0x20fda5fd27a1ea7bf5b9567f143ac5470bb059374a27e8f67cb44f946f6d0387",
            "0x9312c1c969d38554525a072273b027cd7ecadf893a0a9b638b246ff85bf09917"
          ],
          "data": "0x179a94d632e8dca4d7da7aef47ed769684153fa1f8c359f1fdc5189b4f82b435",
          "blockHash": "0x71975c7e0426823235468692bc14c32f7d6eb4a4d42fdd8bf156a2c7b223b28f",
          "blockNumber": "0x296ec64",
          "blockTimestamp": "0x69b835ab",
          "transactionHash": "0x541622c7242393e7303ed909514df704799dd3a12c9ff36d2282f402de675a10",
          "transactionIndex": "0xa5",
          "logIndex": "0x344",
          "removed": false
        }
      ],
      "logsBloom": "0x00000000000000000000000040000000000000000000000000000000000000000000000000001000000000000000000100000000800000000000000000000000000000000000000000000000000000000000000080000008000000000000000000000000020000000000000000000800000080000000000000000000000000000000000000000000000000000000000000000000000000000000000000000000000000000000000000000000000000000000000000000000000000000000000000000010000000000000010000000000000000000000400000000000100020000000000000000000000000000000000000000000000000000000000000800000",
      "type": "0x2",
      "transactionHash": "0x541622c7242393e7303ed909514df704799dd3a12c9ff36d2282f402de675a10",
      "transactionIndex": "0xa5",
      "blockHash": "0x71975c7e0426823235468692bc14c32f7d6eb4a4d42fdd8bf156a2c7b223b28f",
      "blockNumber": "0x296ec64",
      "gasUsed": "0xdf92",
      "effectiveGasPrice": "0x6fd7f5",
      "blobGasUsed": "0x6ec4",
      "from": "0xf8cbf6437d2473ec59885299af38d9a13ce97eca",
      "to": "0x8e074b7636f6a56097f1f719e708e2c932e23bab",
      "contractAddress": null,
      "daFootprintGasScalar": "0x8b",
      "l1BaseFeeScalar": "0x8dd",
      "l1BlobBaseFee": "0xd64adf",
      "l1BlobBaseFeeScalar": "0x101c12",
      "l1Fee": "0x1266b99fb",
      "l1GasPrice": "0xf6023f6",
      "l1GasUsed": "0xcc2"
    }
  ],
  "libraries": [],
  "pending": [],
  "returns": {},
  "timestamp": 1773680046687,
  "chain": 8453,
  "commit": "dee1601"
}