{
  "transactions": [
    {
      "hash": "0x57b544564debd82030447fbb782f29462839c8718d271f73856aeb6cb8f69de4",
      "transactionType": "CALL",
      "contractName": null,
      "contractAddress": "0x8e074b7636f6a56097f1f719e708e2c932e23bab",
      "function": "schedule(address,uint256,bytes,bytes32,bytes32,uint256)",
      "arguments": [
        "0x4A5c3Cca0Ac2a1949D600891A89dd19B35189Cf0",
        "0",
        "0x9362149e000000000000000000000000beeff2490feffa212fac2f6553682c219e6a88450000000000000000000000003bf2b1e1da1bd2c3d397e9df06b7f717c2f12ad7",
        "0x0000000000000000000000000000000000000000000000000000000000000000",
        "0xe96dc0224ead50a5e481b114b8452b9c5ac7fe52525e4056ed647c490459d493",
        "345600"
      ],
      "transaction": {
        "from": "0xd6768630e0b26eba52d52e75a5d21989aa750113",
        "to": "0x8e074b7636f6a56097f1f719e708e2c932e23bab",
        "gas": "0x144c6",
        "value": "0x0",
        "input": "0x01d5062a0000000000000000000000004a5c3cca0ac2a1949d600891a89dd19b35189cf0000000000000000000000000000000000000000000000000000000000000000000000000000000000000000000000000000000000000000000000000000000c00000000000000000000000000000000000000000000000000000000000000000e96dc0224ead50a5e481b114b8452b9c5ac7fe52525e4056ed647c490459d493000000000000000000000000000000000000000000000000000000000005460000000000000000000000000000000000000000000000000000000000000000449362149e000000000000000000000000beeff2490feffa212fac2f6553682c219e6a88450000000000000000000000003bf2b1e1da1bd2c3d397e9df06b7f717c2f12ad700000000000000000000000000000000000000000000000000000000",
        "nonce": "0x1c",
        "chainId": "0x2105"
      },
      "additionalContracts": [],
      "isFixedGasLimit": false
    }
  ],
  "receipts": [
    {
      "type": "0x2",
      "status": "0x1",
      "cumulativeGasUsed": "0x3032bc1",
      "logs": [
        {
          "address": "0x8e074b7636f6a56097f1f719e708e2c932e23bab",
          "topics": [
            "0x4cf4410cc57040e44862ef0f45f3dd5a5e02db8eb8add648d4b0e236f1d07dca",
            "0xff1f96698ca865b07ef2fce9c05ee1aabd265759ba98ad033422f1af4ab1e334",
            "0x0000000000000000000000000000000000000000000000000000000000000000"
          ],
          "data": "0x0000000000000000000000004a5c3cca0ac2a1949d600891a89dd19b35189cf0000000000000000000000000000000000000000000000000000000000000000000000000000000000000000000000000000000000000000000000000000000a00000000000000000000000000000000000000000000000000000000000000000000000000000000000000000000000000000000000000000000000000005460000000000000000000000000000000000000000000000000000000000000000449362149e000000000000000000000000beeff2490feffa212fac2f6553682c219e6a88450000000000000000000000003bf2b1e1da1bd2c3d397e9df06b7f717c2f12ad700000000000000000000000000000000000000000000000000000000",
          "blockHash": "0x16a2699594d577ee741d7a1f1bba01cb81ea7beb4066e57c4bd7994d8474ef04",
          "blockNumber": "0x2e21d73",
          "blockTimestamp": "0x6a4e97c9",
          "transactionHash": "0x57b544564debd82030447fbb782f29462839c8718d271f73856aeb6cb8f69de4",
          "transactionIndex": "0x20c",
          "logIndex": "0x376",
          "removed": false
        },
        {
          "address": "0x8e074b7636f6a56097f1f719e708e2c932e23bab",
          "topics": [
            "0x20fda5fd27a1ea7bf5b9567f143ac5470bb059374a27e8f67cb44f946f6d0387",
            "0xff1f96698ca865b07ef2fce9c05ee1aabd265759ba98ad033422f1af4ab1e334"
          ],
          "data": "0xe96dc0224ead50a5e481b114b8452b9c5ac7fe52525e4056ed647c490459d493",
          "blockHash": "0x16a2699594d577ee741d7a1f1bba01cb81ea7beb4066e57c4bd7994d8474ef04",
          "blockNumber": "0x2e21d73",
          "blockTimestamp": "0x6a4e97c9",
          "transactionHash": "0x57b544564debd82030447fbb782f29462839c8718d271f73856aeb6cb8f69de4",
          "transactionIndex": "0x20c",
          "logIndex": "0x377",
          "removed": false
        }
      ],
      "logsBloom": "0x00000008000000000000000040000000000000000000000000000000000000000000000000001000000010000000000100000000800000000000000000000000000000000000000000000000000000000000000000000008000000000000000000000000020000000000200000000800000080000000000000000000000000000000000000000000000000000000000000000000000000000000000000000000000000000000000000000000000000000000000000000000000000000000000000000010000000000000000000000000000000000000400000000000000020000000000000000000000000000000000000000000000000000000000000800000",
      "transactionHash": "0x57b544564debd82030447fbb782f29462839c8718d271f73856aeb6cb8f69de4",
      "transactionIndex": "0x20c",
      "blockHash": "0x16a2699594d577ee741d7a1f1bba01cb81ea7beb4066e57c4bd7994d8474ef04",
      "blockNumber": "0x2e21d73",
      "gasUsed": "0xde12",
      "effectiveGasPrice": "0x5b8d80",
      "blobGasUsed": "0x677c",
      "from": "0xd6768630e0b26eba52d52e75a5d21989aa750113",
      "to": "0x8e074b7636f6a56097f1f719e708e2c932e23bab",
      "contractAddress": null,
      "l1GasPrice": "0x5819d36",
      "l1GasUsed": "0xb31",
      "l1Fee": "0x61a21bdb",
      "l1BaseFeeScalar": "0x8dd",
      "l1BlobBaseFee": "0x53b897",
      "l1BlobBaseFeeScalar": "0x101c12",
      "daFootprintGasScalar": "0x94"
    }
  ],
  "libraries": [],
  "pending": [],
  "returns": {},
  "timestamp": 1783535562219,
  "chain": 8453,
  "commit": "5d5daf5"
}