{
  "transactions": [
    {
      "hash": "0x722ffa324c92a890a176aca3018ae2b68b3f80a6ac357a4a2f016c94c7e326b4",
      "transactionType": "CALL",
      "contractName": null,
      "contractAddress": "0x8e074b7636f6a56097f1f719e708e2c932e23bab",
      "function": "schedule(address,uint256,bytes,bytes32,bytes32,uint256)",
      "arguments": [
        "0x4A5c3Cca0Ac2a1949D600891A89dd19B35189Cf0",
        "0",
        "0x9362149e000000000000000000000000e1ba476304255353aef290e6474a417d06e7b7730000000000000000000000003bf2b1e1da1bd2c3d397e9df06b7f717c2f12ad7",
        "0x7ac5d88a13cd2acf506ab335af9f46af373b9527f040efc590ac456670847bff",
        "0xad7bef198baf73d95f2b0b2e28502413f8662549ae27a5155d793a8ca514e85e",
        "345600"
      ],
      "transaction": {
        "from": "0xf8cbf6437d2473ec59885299af38d9a13ce97eca",
        "to": "0x8e074b7636f6a56097f1f719e708e2c932e23bab",
        "gas": "0x146f8",
        "value": "0x0",
        "input": "0x01d5062a0000000000000000000000004a5c3cca0ac2a1949d600891a89dd19b35189cf0000000000000000000000000000000000000000000000000000000000000000000000000000000000000000000000000000000000000000000000000000000c07ac5d88a13cd2acf506ab335af9f46af373b9527f040efc590ac456670847bffad7bef198baf73d95f2b0b2e28502413f8662549ae27a5155d793a8ca514e85e000000000000000000000000000000000000000000000000000000000005460000000000000000000000000000000000000000000000000000000000000000449362149e000000000000000000000000e1ba476304255353aef290e6474a417d06e7b7730000000000000000000000003bf2b1e1da1bd2c3d397e9df06b7f717c2f12ad700000000000000000000000000000000000000000000000000000000",
        "nonce": "0x73",
        "chainId": "0x2105"
      },
      "additionalContracts": [],
      "isFixedGasLimit": false
    }
  ],
  "receipts": [
    {
      "status": "0x1",
      "cumulativeGasUsed": "0x1d5f724",
      "logs": [
        {
          "address": "0x8e074b7636f6a56097f1f719e708e2c932e23bab",
          "topics": [
            "0x4cf4410cc57040e44862ef0f45f3dd5a5e02db8eb8add648d4b0e236f1d07dca",
            "0xaacfed0d3485e43712667f94b80693f428c313d59d7ff0aacc8d6d7aa1ec6248",
            "0x0000000000000000000000000000000000000000000000000000000000000000"
          ],
          "data": "0x0000000000000000000000004a5c3cca0ac2a1949d600891a89dd19b35189cf0000000000000000000000000000000000000000000000000000000000000000000000000000000000000000000000000000000000000000000000000000000a07ac5d88a13cd2acf506ab335af9f46af373b9527f040efc590ac456670847bff000000000000000000000000000000000000000000000000000000000005460000000000000000000000000000000000000000000000000000000000000000449362149e000000000000000000000000e1ba476304255353aef290e6474a417d06e7b7730000000000000000000000003bf2b1e1da1bd2c3d397e9df06b7f717c2f12ad700000000000000000000000000000000000000000000000000000000",
          "blockHash": "0xbb48e62fdff8b76c5fc4ae6ebba44406ae9c972ed54aee495ca5835fb17b6e78",
          "blockNumber": "0x296ecc5",
          "blockTimestamp": "0x69b8366d",
          "transactionHash": "0x722ffa324c92a890a176aca3018ae2b68b3f80a6ac357a4a2f016c94c7e326b4",
          "transactionIndex": "0x88",
          "logIndex": "0x267",
          "removed": false
        },
        {
          "address": "0x8e074b7636f6a56097f1f719e708e2c932e23bab",
          "topics": [
            "0x20fda5fd27a1ea7bf5b9567f143ac5470bb059374a27e8f67cb44f946f6d0387",
            "0xaacfed0d3485e43712667f94b80693f428c313d59d7ff0aacc8d6d7aa1ec6248"
          ],
          "data": "0xad7bef198baf73d95f2b0b2e28502413f8662549ae27a5155d793a8ca514e85e",
          "blockHash": "0xbb48e62fdff8b76c5fc4ae6ebba44406ae9c972ed54aee495ca5835fb17b6e78",
          "blockNumber": "0x296ecc5",
          "blockTimestamp": "0x69b8366d",
          "transactionHash": "0x722ffa324c92a890a176aca3018ae2b68b3f80a6ac357a4a2f016c94c7e326b4",
          "transactionIndex": "0x88",
          "logIndex": "0x268",
          "removed": false
        }
      ],
      "logsBloom": "0x00000000000000000000000040000000000000000000000000000000000000000000000000001000000000000000000100000000800000000000000000000000000000000000000000000000000000000000000000000008000000000000000000000000020000000000000000000800000080000000000000000000000000000000000000000000000000000000000000000000000000000000000000000000100000000000000000000000000000000000000040000000000000000000000000000010008000000000000000000000000000000000400000000000000020000000000000000000000000000000000000000000000000000000000000800000",
      "type": "0x2",
      "transactionHash": "0x722ffa324c92a890a176aca3018ae2b68b3f80a6ac357a4a2f016c94c7e326b4",
      "transactionIndex": "0x88",
      "blockHash": "0xbb48e62fdff8b76c5fc4ae6ebba44406ae9c972ed54aee495ca5835fb17b6e78",
      "blockNumber": "0x296ecc5",
      "gasUsed": "0xdf92",
      "effectiveGasPrice": "0x68820c",
      "blobGasUsed": "0x6ec4",
      "from": "0xf8cbf6437d2473ec59885299af38d9a13ce97eca",
      "to": "0x8e074b7636f6a56097f1f719e708e2c932e23bab",
      "contractAddress": null,
      "daFootprintGasScalar": "0x8b",
      "l1BaseFeeScalar": "0x8dd",
      "l1BlobBaseFee": "0xf26f53",
      "l1BlobBaseFeeScalar": "0x101c12",
      "l1Fee": "0x145de0a62",
      "l1GasPrice": "0x106bc5bb",
      "l1GasUsed": "0xcc2"
    }
  ],
  "libraries": [],
  "pending": [],
  "returns": {},
  "timestamp": 1773680239829,
  "chain": 8453,
  "commit": "dee1601"
}