{
  "transactions": [
    {
      "hash": null,
      "transactionType": "CALL",
      "contractName": null,
      "contractAddress": "0x8e074b7636f6a56097f1f719e708e2c932e23bab",
      "function": "schedule(address,uint256,bytes,bytes32,bytes32,uint256)",
      "arguments": [
        "0x4A5c3Cca0Ac2a1949D600891A89dd19B35189Cf0",
        "0",
        "0x9362149e000000000000000000000000beef0e0834849acc03f0089f01f4f1eeb06873c90000000000000000000000003bf2b1e1da1bd2c3d397e9df06b7f717c2f12ad7",
        "0x0000000000000000000000000000000000000000000000000000000000000000",
        "0xbaba48802b5520ffe204a03c222850bfdd3eb2efd60bcb3ac3b9cd9e7adcb752",
        "345600"
      ],
      "transaction": {
        "from": "0xd6768630e0b26eba52d52e75a5d21989aa750113",
        "to": "0x8e074b7636f6a56097f1f719e708e2c932e23bab",
        "gas": "0x144c6",
        "value": "0x0",
        "input": "0x01d5062a0000000000000000000000004a5c3cca0ac2a1949d600891a89dd19b35189cf0000000000000000000000000000000000000000000000000000000000000000000000000000000000000000000000000000000000000000000000000000000c00000000000000000000000000000000000000000000000000000000000000000baba48802b5520ffe204a03c222850bfdd3eb2efd60bcb3ac3b9cd9e7adcb752000000000000000000000000000000000000000000000000000000000005460000000000000000000000000000000000000000000000000000000000000000449362149e000000000000000000000000beef0e0834849acc03f0089f01f4f1eeb06873c90000000000000000000000003bf2b1e1da1bd2c3d397e9df06b7f717c2f12ad700000000000000000000000000000000000000000000000000000000",
        "nonce": "0x0",
        "chainId": "0x2105"
      },
      "additionalContracts": [],
      "isFixedGasLimit": false
    }
  ],
  "receipts": [],
  "libraries": [],
  "pending": [],
  "returns": {},
  "timestamp": 1782297418120,
  "chain": 8453,
  "commit": "0e39ed8"
}