{
  "transactions": [
    {
      "hash": "0x3e4199b2bfb27c7986bc406a711013f6338765483a028f06095720a167049f51",
      "transactionType": "CALL",
      "contractName": "YieldSeekerAdminTimelock",
      "contractAddress": "0x773541f7c38be8106ae966ca9d6fee494a0edd24",
      "function": "schedule(address,uint256,bytes,bytes32,bytes32,uint256)",
      "arguments": [
        "0x2c61dC81bc40389FF11CE68e78E93a3F75e41b9c",
        "0",
        "0x99b39dc100000000000000000000000000000000000000000000000000000000000000200000000000000000000000000000000000000000000000000000000000000001000000000000000000000000590830dfdf9a3f68afcdde2694773debdf267774",
        "0x0000000000000000000000000000000000000000000000000000000000000000",
        "0x246250b5c38bf75f992da1df0c5fca203c2c386ab9f5f2876942203e40dfe40f",
        "0"
      ],
      "transaction": {
        "from": "0xf8cbf6437d2473ec59885299af38d9a13ce97eca",
        "to": "0x773541f7c38be8106ae966ca9d6fee494a0edd24",
        "gas": "0x1339b",
        "value": "0x0",
        "input": "0x01d5062a0000000000000000000000002c61dc81bc40389ff11ce68e78e93a3f75e41b9c000000000000000000000000000000000000000000000000000000000000000000000000000000000000000000000000000000000000000000000000000000c00000000000000000000000000000000000000000000000000000000000000000246250b5c38bf75f992da1df0c5fca203c2c386ab9f5f2876942203e40dfe40f0000000000000000000000000000000000000000000000000000000000000000000000000000000000000000000000000000000000000000000000000000006499b39dc100000000000000000000000000000000000000000000000000000000000000200000000000000000000000000000000000000000000000000000000000000001000000000000000000000000590830dfdf9a3f68afcdde2694773debdf26777400000000000000000000000000000000000000000000000000000000",
        "nonce": "0x3b",
        "chainId": "0x2105"
      },
      "additionalContracts": [],
      "isFixedGasLimit": false
    },
    {
      "hash": "0x114304b380f13e14f85206189a0967769e515301a4ec425858e3d75b3e8b89fb",
      "transactionType": "CALL",
      "contractName": "YieldSeekerAdminTimelock",
      "contractAddress": "0x773541f7c38be8106ae966ca9d6fee494a0edd24",
      "function": "execute(address,uint256,bytes,bytes32,bytes32)",
      "arguments": [
        "0x2c61dC81bc40389FF11CE68e78E93a3F75e41b9c",
        "0",
        "0x99b39dc100000000000000000000000000000000000000000000000000000000000000200000000000000000000000000000000000000000000000000000000000000001000000000000000000000000590830dfdf9a3f68afcdde2694773debdf267774",
        "0x0000000000000000000000000000000000000000000000000000000000000000",
        "0x246250b5c38bf75f992da1df0c5fca203c2c386ab9f5f2876942203e40dfe40f"
      ],
      "transaction": {
        "from": "0xf8cbf6437d2473ec59885299af38d9a13ce97eca",
        "to": "0x773541f7c38be8106ae966ca9d6fee494a0edd24",
        "gas": "0x282f7",
        "value": "0x0",
        "input": "0x134008d30000000000000000000000002c61dc81bc40389ff11ce68e78e93a3f75e41b9c000000000000000000000000000000000000000000000000000000000000000000000000000000000000000000000000000000000000000000000000000000a00000000000000000000000000000000000000000000000000000000000000000246250b5c38bf75f992da1df0c5fca203c2c386ab9f5f2876942203e40dfe40f000000000000000000000000000000000000000000000000000000000000006499b39dc100000000000000000000000000000000000000000000000000000000000000200000000000000000000000000000000000000000000000000000000000000001000000000000000000000000590830dfdf9a3f68afcdde2694773debdf26777400000000000000000000000000000000000000000000000000000000",
        "nonce": "0x3c",
        "chainId": "0x2105"
      },
      "additionalContracts": [],
      "isFixedGasLimit": false
    }
  ],
  "receipts": [
    {
      "status": "0x1",
      "cumulativeGasUsed": "0x1ac707e",
      "logs": [
        {
          "address": "0x773541f7c38be8106ae966ca9d6fee494a0edd24",
          "topics": [
            "0x4cf4410cc57040e44862ef0f45f3dd5a5e02db8eb8add648d4b0e236f1d07dca",
            "0x61528d82e6d74a258d0c9cc5ba36eff89588abe334c2e92ba74877721ffb82a3",
            "0x0000000000000000000000000000000000000000000000000000000000000000"
          ],
          "data": "0x0000000000000000000000002c61dc81bc40389ff11ce68e78e93a3f75e41b9c000000000000000000000000000000000000000000000000000000000000000000000000000000000000000000000000000000000000000000000000000000a000000000000000000000000000000000000000000000000000000000000000000000000000000000000000000000000000000000000000000000000000000000000000000000000000000000000000000000000000000000000000000000006499b39dc100000000000000000000000000000000000000000000000000000000000000200000000000000000000000000000000000000000000000000000000000000001000000000000000000000000590830dfdf9a3f68afcdde2694773debdf26777400000000000000000000000000000000000000000000000000000000",
          "blockHash": "0x215cbff0530a468ecd7fdff86373bc5ed95579ce85c7c003ba366945e0ffa81a",
          "blockNumber": "0x284a834",
          "blockTimestamp": "0x6993ad4b",
          "transactionHash": "0x3e4199b2bfb27c7986bc406a711013f6338765483a028f06095720a167049f51",
          "transactionIndex": "0x70",
          "logIndex": "0x29d",
          "removed": false
        },
        {
          "address": "0x773541f7c38be8106ae966ca9d6fee494a0edd24",
          "topics": [
            "0x20fda5fd27a1ea7bf5b9567f143ac5470bb059374a27e8f67cb44f946f6d0387",
            "0x61528d82e6d74a258d0c9cc5ba36eff89588abe334c2e92ba74877721ffb82a3"
          ],
          "data": "0x246250b5c38bf75f992da1df0c5fca203c2c386ab9f5f2876942203e40dfe40f",
          "blockHash": "0x215cbff0530a468ecd7fdff86373bc5ed95579ce85c7c003ba366945e0ffa81a",
          "blockNumber": "0x284a834",
          "blockTimestamp": "0x6993ad4b",
          "transactionHash": "0x3e4199b2bfb27c7986bc406a711013f6338765483a028f06095720a167049f51",
          "transactionIndex": "0x70",
          "logIndex": "0x29e",
          "removed": false
        }
      ],
      "logsBloom": "0x00000080400000000000000040000000000000000000000000000000000000000000000000000000000000100000000100000000800000000000000000000000000000000000000000800000000000000000000000000008000000000000000000000000020000000000000000000800000080000000000000000c00000000000000000000000000000000000000000000000000000000000000000000000000000000000000000000000000000000000000000000000000000000000000000000000000000000000000000000000000000000000000400000000000000020000000000000000000000000000000000000000000000000000000000000000000",
      "type": "0x2",
      "transactionHash": "0x3e4199b2bfb27c7986bc406a711013f6338765483a028f06095720a167049f51",
      "transactionIndex": "0x70",
      "blockHash": "0x215cbff0530a468ecd7fdff86373bc5ed95579ce85c7c003ba366945e0ffa81a",
      "blockNumber": "0x284a834",
      "gasUsed": "0xdeb4",
      "effectiveGasPrice": "0x25d1cc",
      "blobGasUsed": "0x56e0",
      "from": "0xf8cbf6437d2473ec59885299af38d9a13ce97eca",
      "to": "0x773541f7c38be8106ae966ca9d6fee494a0edd24",
      "contractAddress": null,
      "daFootprintGasScalar": "0x8b",
      "l1BaseFeeScalar": "0x8dd",
      "l1BlobBaseFee": "0x175644",
      "l1BlobBaseFeeScalar": "0x101c12",
      "l1Fee": "0x1c034a2b",
      "l1GasPrice": "0x226ab63",
      "l1GasUsed": "0xa0a"
    },
    {
      "status": "0x1",
      "cumulativeGasUsed": "0x1d1778a",
      "logs": [
        {
          "address": "0x2c61dc81bc40389ff11ce68e78e93a3f75e41b9c",
          "topics": [
            "0x4ac723403fd9e3f5fbe7116bb75c15981bd5cb9ca32255900e5c29d9597cbee2",
            "0x000000000000000000000000590830dfdf9a3f68afcdde2694773debdf267774"
          ],
          "data": "0x",
          "blockHash": "0x215cbff0530a468ecd7fdff86373bc5ed95579ce85c7c003ba366945e0ffa81a",
          "blockNumber": "0x284a834",
          "blockTimestamp": "0x6993ad4b",
          "transactionHash": "0x114304b380f13e14f85206189a0967769e515301a4ec425858e3d75b3e8b89fb",
          "transactionIndex": "0x87",
          "logIndex": "0x2de",
          "removed": false
        },
        {
          "address": "0x773541f7c38be8106ae966ca9d6fee494a0edd24",
          "topics": [
            "0xc2617efa69bab66782fa219543714338489c4e9e178271560a91b82c3f612b58",
            "0x61528d82e6d74a258d0c9cc5ba36eff89588abe334c2e92ba74877721ffb82a3",
            "0x0000000000000000000000000000000000000000000000000000000000000000"
          ],
          "data": "0x0000000000000000000000002c61dc81bc40389ff11ce68e78e93a3f75e41b9c00000000000000000000000000000000000000000000000000000000000000000000000000000000000000000000000000000000000000000000000000000060000000000000000000000000000000000000000000000000000000000000006499b39dc100000000000000000000000000000000000000000000000000000000000000200000000000000000000000000000000000000000000000000000000000000001000000000000000000000000590830dfdf9a3f68afcdde2694773debdf26777400000000000000000000000000000000000000000000000000000000",
          "blockHash": "0x215cbff0530a468ecd7fdff86373bc5ed95579ce85c7c003ba366945e0ffa81a",
          "blockNumber": "0x284a834",
          "blockTimestamp": "0x6993ad4b",
          "transactionHash": "0x114304b380f13e14f85206189a0967769e515301a4ec425858e3d75b3e8b89fb",
          "transactionIndex": "0x87",
          "logIndex": "0x2df",
          "removed": false
        }
      ],
      "logsBloom": "0x00000081400000000000000000000001000000000000000000000000000000000000000000000000001000100000000000000000000800000000000000000000000000000000010000800000000000000000000000000000004000000000002000000000020000000000000000000800000000000000000000000c00000000000000000000000000000000000000000000000000000000040010000000000000000000000000000000000000000000000000000000000000000000000000000000000000000000080000000000000000000000000000000000000000000020000000000000000000000000000000000000000000000000000000000820000000",
      "type": "0x2",
      "transactionHash": "0x114304b380f13e14f85206189a0967769e515301a4ec425858e3d75b3e8b89fb",
      "transactionIndex": "0x87",
      "blockHash": "0x215cbff0530a468ecd7fdff86373bc5ed95579ce85c7c003ba366945e0ffa81a",
      "blockNumber": "0x284a834",
      "gasUsed": "0x1b7a3",
      "effectiveGasPrice": "0x25d1cc",
      "blobGasUsed": "0x55ca",
      "from": "0xf8cbf6437d2473ec59885299af38d9a13ce97eca",
      "to": "0x773541f7c38be8106ae966ca9d6fee494a0edd24",
      "contractAddress": null,
      "daFootprintGasScalar": "0x8b",
      "l1BaseFeeScalar": "0x8dd",
      "l1BlobBaseFee": "0x175644",
      "l1BlobBaseFeeScalar": "0x101c12",
      "l1Fee": "0x1b934a8f",
      "l1GasPrice": "0x226ab63",
      "l1GasUsed": "0x9e2"
    }
  ],
  "libraries": [],
  "pending": [],
  "returns": {},
  "timestamp": 1771285838021,
  "chain": 8453,
  "commit": "a21cb13"
}